{
  "_format": "hh-sol-artifact-1",
  "contractName": "GovernorPreventLateQuorumMock",
  "sourceName": "contracts/openzeppelin/mocks/GovernorPreventLateQuorumMock.sol",
  "abi": [
    {
      "inputs": [
        {
          "internalType": "string",
          "name": "name_",
          "type": "string"
        },
        {
          "internalType": "contract IVotes",
          "name": "token_",
          "type": "address"
        },
        {
          "internalType": "uint256",
          "name": "votingDelay_",
          "type": "uint256"
        },
        {
          "internalType": "uint256",
          "name": "votingPeriod_",
          "type": "uint256"
        },
        {
          "internalType": "uint256",
          "name": "quorum_",
          "type": "uint256"
        },
        {
          "internalType": "uint64",
          "name": "voteExtension_",
          "type": "uint64"
        }
      ],
      "stateMutability": "nonpayable",
      "type": "constructor"
    },
    {
      "inputs": [],
      "name": "Empty",
      "type": "error"
    },
    {
      "anonymous": false,
      "inputs": [
        {
          "indexed": false,
          "internalType": "uint64",
          "name": "oldVoteExtension",
          "type": "uint64"
        },
        {
          "indexed": false,
          "internalType": "uint64",
          "name": "newVoteExtension",
          "type": "uint64"
        }
      ],
      "name": "LateQuorumVoteExtensionSet",
      "type": "event"
    },
    {
      "anonymous": false,
      "inputs": [
        {
          "indexed": false,
          "internalType": "uint256",
          "name": "proposalId",
          "type": "uint256"
        }
      ],
      "name": "ProposalCanceled",
      "type": "event"
    },
    {
      "anonymous": false,
      "inputs": [
        {
          "indexed": false,
          "internalType": "uint256",
          "name": "proposalId",
          "type": "uint256"
        },
        {
          "indexed": false,
          "internalType": "address",
          "name": "proposer",
          "type": "address"
        },
        {
          "indexed": false,
          "internalType": "address[]",
          "name": "targets",
          "type": "address[]"
        },
        {
          "indexed": false,
          "internalType": "uint256[]",
          "name": "values",
          "type": "uint256[]"
        },
        {
          "indexed": false,
          "internalType": "string[]",
          "name": "signatures",
          "type": "string[]"
        },
        {
          "indexed": false,
          "internalType": "bytes[]",
          "name": "calldatas",
          "type": "bytes[]"
        },
        {
          "indexed": false,
          "internalType": "uint256",
          "name": "startBlock",
          "type": "uint256"
        },
        {
          "indexed": false,
          "internalType": "uint256",
          "name": "endBlock",
          "type": "uint256"
        },
        {
          "indexed": false,
          "internalType": "string",
          "name": "description",
          "type": "string"
        }
      ],
      "name": "ProposalCreated",
      "type": "event"
    },
    {
      "anonymous": false,
      "inputs": [
        {
          "indexed": false,
          "internalType": "uint256",
          "name": "proposalId",
          "type": "uint256"
        }
      ],
      "name": "ProposalExecuted",
      "type": "event"
    },
    {
      "anonymous": false,
      "inputs": [
        {
          "indexed": true,
          "internalType": "uint256",
          "name": "proposalId",
          "type": "uint256"
        },
        {
          "indexed": false,
          "internalType": "uint64",
          "name": "extendedDeadline",
          "type": "uint64"
        }
      ],
      "name": "ProposalExtended",
      "type": "event"
    },
    {
      "anonymous": false,
      "inputs": [
        {
          "indexed": false,
          "internalType": "uint256",
          "name": "oldProposalThreshold",
          "type": "uint256"
        },
        {
          "indexed": false,
          "internalType": "uint256",
          "name": "newProposalThreshold",
          "type": "uint256"
        }
      ],
      "name": "ProposalThresholdSet",
      "type": "event"
    },
    {
      "anonymous": false,
      "inputs": [
        {
          "indexed": true,
          "internalType": "address",
          "name": "voter",
          "type": "address"
        },
        {
          "indexed": false,
          "internalType": "uint256",
          "name": "proposalId",
          "type": "uint256"
        },
        {
          "indexed": false,
          "internalType": "uint8",
          "name": "support",
          "type": "uint8"
        },
        {
          "indexed": false,
          "internalType": "uint256",
          "name": "weight",
          "type": "uint256"
        },
        {
          "indexed": false,
          "internalType": "string",
          "name": "reason",
          "type": "string"
        }
      ],
      "name": "VoteCast",
      "type": "event"
    },
    {
      "anonymous": false,
      "inputs": [
        {
          "indexed": true,
          "internalType": "address",
          "name": "voter",
          "type": "address"
        },
        {
          "indexed": false,
          "internalType": "uint256",
          "name": "proposalId",
          "type": "uint256"
        },
        {
          "indexed": false,
          "internalType": "uint8",
          "name": "support",
          "type": "uint8"
        },
        {
          "indexed": false,
          "internalType": "uint256",
          "name": "weight",
          "type": "uint256"
        },
        {
          "indexed": false,
          "internalType": "string",
          "name": "reason",
          "type": "string"
        },
        {
          "indexed": false,
          "internalType": "bytes",
          "name": "params",
          "type": "bytes"
        }
      ],
      "name": "VoteCastWithParams",
      "type": "event"
    },
    {
      "anonymous": false,
      "inputs": [
        {
          "indexed": false,
          "internalType": "uint256",
          "name": "oldVotingDelay",
          "type": "uint256"
        },
        {
          "indexed": false,
          "internalType": "uint256",
          "name": "newVotingDelay",
          "type": "uint256"
        }
      ],
      "name": "VotingDelaySet",
      "type": "event"
    },
    {
      "anonymous": false,
      "inputs": [
        {
          "indexed": false,
          "internalType": "uint256",
          "name": "oldVotingPeriod",
          "type": "uint256"
        },
        {
          "indexed": false,
          "internalType": "uint256",
          "name": "newVotingPeriod",
          "type": "uint256"
        }
      ],
      "name": "VotingPeriodSet",
      "type": "event"
    },
    {
      "inputs": [],
      "name": "BALLOT_TYPEHASH",
      "outputs": [
        {
          "internalType": "bytes32",
          "name": "",
          "type": "bytes32"
        }
      ],
      "stateMutability": "view",
      "type": "function"
    },
    {
      "inputs": [],
      "name": "COUNTING_MODE",
      "outputs": [
        {
          "internalType": "string",
          "name": "",
          "type": "string"
        }
      ],
      "stateMutability": "pure",
      "type": "function"
    },
    {
      "inputs": [],
      "name": "EXTENDED_BALLOT_TYPEHASH",
      "outputs": [
        {
          "internalType": "bytes32",
          "name": "",
          "type": "bytes32"
        }
      ],
      "stateMutability": "view",
      "type": "function"
    },
    {
      "inputs": [
        {
          "internalType": "uint256",
          "name": "proposalId",
          "type": "uint256"
        },
        {
          "internalType": "uint8",
          "name": "support",
          "type": "uint8"
        }
      ],
      "name": "castVote",
      "outputs": [
        {
          "internalType": "uint256",
          "name": "",
          "type": "uint256"
        }
      ],
      "stateMutability": "nonpayable",
      "type": "function"
    },
    {
      "inputs": [
        {
          "internalType": "uint256",
          "name": "proposalId",
          "type": "uint256"
        },
        {
          "internalType": "uint8",
          "name": "support",
          "type": "uint8"
        },
        {
          "internalType": "uint8",
          "name": "v",
          "type": "uint8"
        },
        {
          "internalType": "bytes32",
          "name": "r",
          "type": "bytes32"
        },
        {
          "internalType": "bytes32",
          "name": "s",
          "type": "bytes32"
        }
      ],
      "name": "castVoteBySig",
      "outputs": [
        {
          "internalType": "uint256",
          "name": "",
          "type": "uint256"
        }
      ],
      "stateMutability": "nonpayable",
      "type": "function"
    },
    {
      "inputs": [
        {
          "internalType": "uint256",
          "name": "proposalId",
          "type": "uint256"
        },
        {
          "internalType": "uint8",
          "name": "support",
          "type": "uint8"
        },
        {
          "internalType": "string",
          "name": "reason",
          "type": "string"
        }
      ],
      "name": "castVoteWithReason",
      "outputs": [
        {
          "internalType": "uint256",
          "name": "",
          "type": "uint256"
        }
      ],
      "stateMutability": "nonpayable",
      "type": "function"
    },
    {
      "inputs": [
        {
          "internalType": "uint256",
          "name": "proposalId",
          "type": "uint256"
        },
        {
          "internalType": "uint8",
          "name": "support",
          "type": "uint8"
        },
        {
          "internalType": "string",
          "name": "reason",
          "type": "string"
        },
        {
          "internalType": "bytes",
          "name": "params",
          "type": "bytes"
        }
      ],
      "name": "castVoteWithReasonAndParams",
      "outputs": [
        {
          "internalType": "uint256",
          "name": "",
          "type": "uint256"
        }
      ],
      "stateMutability": "nonpayable",
      "type": "function"
    },
    {
      "inputs": [
        {
          "internalType": "uint256",
          "name": "proposalId",
          "type": "uint256"
        },
        {
          "internalType": "uint8",
          "name": "support",
          "type": "uint8"
        },
        {
          "internalType": "string",
          "name": "reason",
          "type": "string"
        },
        {
          "internalType": "bytes",
          "name": "params",
          "type": "bytes"
        },
        {
          "internalType": "uint8",
          "name": "v",
          "type": "uint8"
        },
        {
          "internalType": "bytes32",
          "name": "r",
          "type": "bytes32"
        },
        {
          "internalType": "bytes32",
          "name": "s",
          "type": "bytes32"
        }
      ],
      "name": "castVoteWithReasonAndParamsBySig",
      "outputs": [
        {
          "internalType": "uint256",
          "name": "",
          "type": "uint256"
        }
      ],
      "stateMutability": "nonpayable",
      "type": "function"
    },
    {
      "inputs": [
        {
          "internalType": "address[]",
          "name": "targets",
          "type": "address[]"
        },
        {
          "internalType": "uint256[]",
          "name": "values",
          "type": "uint256[]"
        },
        {
          "internalType": "bytes[]",
          "name": "calldatas",
          "type": "bytes[]"
        },
        {
          "internalType": "bytes32",
          "name": "descriptionHash",
          "type": "bytes32"
        }
      ],
      "name": "execute",
      "outputs": [
        {
          "internalType": "uint256",
          "name": "",
          "type": "uint256"
        }
      ],
      "stateMutability": "payable",
      "type": "function"
    },
    {
      "inputs": [
        {
          "internalType": "address",
          "name": "account",
          "type": "address"
        },
        {
          "internalType": "uint256",
          "name": "blockNumber",
          "type": "uint256"
        }
      ],
      "name": "getVotes",
      "outputs": [
        {
          "internalType": "uint256",
          "name": "",
          "type": "uint256"
        }
      ],
      "stateMutability": "view",
      "type": "function"
    },
    {
      "inputs": [
        {
          "internalType": "address",
          "name": "account",
          "type": "address"
        },
        {
          "internalType": "uint256",
          "name": "blockNumber",
          "type": "uint256"
        },
        {
          "internalType": "bytes",
          "name": "params",
          "type": "bytes"
        }
      ],
      "name": "getVotesWithParams",
      "outputs": [
        {
          "internalType": "uint256",
          "name": "",
          "type": "uint256"
        }
      ],
      "stateMutability": "view",
      "type": "function"
    },
    {
      "inputs": [
        {
          "internalType": "uint256",
          "name": "proposalId",
          "type": "uint256"
        },
        {
          "internalType": "address",
          "name": "account",
          "type": "address"
        }
      ],
      "name": "hasVoted",
      "outputs": [
        {
          "internalType": "bool",
          "name": "",
          "type": "bool"
        }
      ],
      "stateMutability": "view",
      "type": "function"
    },
    {
      "inputs": [
        {
          "internalType": "address[]",
          "name": "targets",
          "type": "address[]"
        },
        {
          "internalType": "uint256[]",
          "name": "values",
          "type": "uint256[]"
        },
        {
          "internalType": "bytes[]",
          "name": "calldatas",
          "type": "bytes[]"
        },
        {
          "internalType": "bytes32",
          "name": "descriptionHash",
          "type": "bytes32"
        }
      ],
      "name": "hashProposal",
      "outputs": [
        {
          "internalType": "uint256",
          "name": "",
          "type": "uint256"
        }
      ],
      "stateMutability": "pure",
      "type": "function"
    },
    {
      "inputs": [],
      "name": "lateQuorumVoteExtension",
      "outputs": [
        {
          "internalType": "uint64",
          "name": "",
          "type": "uint64"
        }
      ],
      "stateMutability": "view",
      "type": "function"
    },
    {
      "inputs": [],
      "name": "name",
      "outputs": [
        {
          "internalType": "string",
          "name": "",
          "type": "string"
        }
      ],
      "stateMutability": "view",
      "type": "function"
    },
    {
      "inputs": [
        {
          "internalType": "address",
          "name": "",
          "type": "address"
        },
        {
          "internalType": "address",
          "name": "",
          "type": "address"
        },
        {
          "internalType": "uint256[]",
          "name": "",
          "type": "uint256[]"
        },
        {
          "internalType": "uint256[]",
          "name": "",
          "type": "uint256[]"
        },
        {
          "internalType": "bytes",
          "name": "",
          "type": "bytes"
        }
      ],
      "name": "onERC1155BatchReceived",
      "outputs": [
        {
          "internalType": "bytes4",
          "name": "",
          "type": "bytes4"
        }
      ],
      "stateMutability": "nonpayable",
      "type": "function"
    },
    {
      "inputs": [
        {
          "internalType": "address",
          "name": "",
          "type": "address"
        },
        {
          "internalType": "address",
          "name": "",
          "type": "address"
        },
        {
          "internalType": "uint256",
          "name": "",
          "type": "uint256"
        },
        {
          "internalType": "uint256",
          "name": "",
          "type": "uint256"
        },
        {
          "internalType": "bytes",
          "name": "",
          "type": "bytes"
        }
      ],
      "name": "onERC1155Received",
      "outputs": [
        {
          "internalType": "bytes4",
          "name": "",
          "type": "bytes4"
        }
      ],
      "stateMutability": "nonpayable",
      "type": "function"
    },
    {
      "inputs": [
        {
          "internalType": "address",
          "name": "",
          "type": "address"
        },
        {
          "internalType": "address",
          "name": "",
          "type": "address"
        },
        {
          "internalType": "uint256",
          "name": "",
          "type": "uint256"
        },
        {
          "internalType": "bytes",
          "name": "",
          "type": "bytes"
        }
      ],
      "name": "onERC721Received",
      "outputs": [
        {
          "internalType": "bytes4",
          "name": "",
          "type": "bytes4"
        }
      ],
      "stateMutability": "nonpayable",
      "type": "function"
    },
    {
      "inputs": [
        {
          "internalType": "uint256",
          "name": "proposalId",
          "type": "uint256"
        }
      ],
      "name": "proposalDeadline",
      "outputs": [
        {
          "internalType": "uint256",
          "name": "",
          "type": "uint256"
        }
      ],
      "stateMutability": "view",
      "type": "function"
    },
    {
      "inputs": [
        {
          "internalType": "uint256",
          "name": "proposalId",
          "type": "uint256"
        }
      ],
      "name": "proposalSnapshot",
      "outputs": [
        {
          "internalType": "uint256",
          "name": "",
          "type": "uint256"
        }
      ],
      "stateMutability": "view",
      "type": "function"
    },
    {
      "inputs": [],
      "name": "proposalThreshold",
      "outputs": [
        {
          "internalType": "uint256",
          "name": "",
          "type": "uint256"
        }
      ],
      "stateMutability": "view",
      "type": "function"
    },
    {
      "inputs": [
        {
          "internalType": "uint256",
          "name": "proposalId",
          "type": "uint256"
        }
      ],
      "name": "proposalVotes",
      "outputs": [
        {
          "internalType": "uint256",
          "name": "againstVotes",
          "type": "uint256"
        },
        {
          "internalType": "uint256",
          "name": "forVotes",
          "type": "uint256"
        },
        {
          "internalType": "uint256",
          "name": "abstainVotes",
          "type": "uint256"
        }
      ],
      "stateMutability": "view",
      "type": "function"
    },
    {
      "inputs": [
        {
          "internalType": "address[]",
          "name": "targets",
          "type": "address[]"
        },
        {
          "internalType": "uint256[]",
          "name": "values",
          "type": "uint256[]"
        },
        {
          "internalType": "bytes[]",
          "name": "calldatas",
          "type": "bytes[]"
        },
        {
          "internalType": "string",
          "name": "description",
          "type": "string"
        }
      ],
      "name": "propose",
      "outputs": [
        {
          "internalType": "uint256",
          "name": "",
          "type": "uint256"
        }
      ],
      "stateMutability": "nonpayable",
      "type": "function"
    },
    {
      "inputs": [
        {
          "internalType": "uint256",
          "name": "",
          "type": "uint256"
        }
      ],
      "name": "quorum",
      "outputs": [
        {
          "internalType": "uint256",
          "name": "",
          "type": "uint256"
        }
      ],
      "stateMutability": "view",
      "type": "function"
    },
    {
      "inputs": [
        {
          "internalType": "address",
          "name": "target",
          "type": "address"
        },
        {
          "internalType": "uint256",
          "name": "value",
          "type": "uint256"
        },
        {
          "internalType": "bytes",
          "name": "data",
          "type": "bytes"
        }
      ],
      "name": "relay",
      "outputs": [],
      "stateMutability": "payable",
      "type": "function"
    },
    {
      "inputs": [
        {
          "internalType": "uint64",
          "name": "newVoteExtension",
          "type": "uint64"
        }
      ],
      "name": "setLateQuorumVoteExtension",
      "outputs": [],
      "stateMutability": "nonpayable",
      "type": "function"
    },
    {
      "inputs": [
        {
          "internalType": "uint256",
          "name": "newProposalThreshold",
          "type": "uint256"
        }
      ],
      "name": "setProposalThreshold",
      "outputs": [],
      "stateMutability": "nonpayable",
      "type": "function"
    },
    {
      "inputs": [
        {
          "internalType": "uint256",
          "name": "newVotingDelay",
          "type": "uint256"
        }
      ],
      "name": "setVotingDelay",
      "outputs": [],
      "stateMutability": "nonpayable",
      "type": "function"
    },
    {
      "inputs": [
        {
          "internalType": "uint256",
          "name": "newVotingPeriod",
          "type": "uint256"
        }
      ],
      "name": "setVotingPeriod",
      "outputs": [],
      "stateMutability": "nonpayable",
      "type": "function"
    },
    {
      "inputs": [
        {
          "internalType": "uint256",
          "name": "proposalId",
          "type": "uint256"
        }
      ],
      "name": "state",
      "outputs": [
        {
          "internalType": "enum IGovernor.ProposalState",
          "name": "",
          "type": "uint8"
        }
      ],
      "stateMutability": "view",
      "type": "function"
    },
    {
      "inputs": [
        {
          "internalType": "bytes4",
          "name": "interfaceId",
          "type": "bytes4"
        }
      ],
      "name": "supportsInterface",
      "outputs": [
        {
          "internalType": "bool",
          "name": "",
          "type": "bool"
        }
      ],
      "stateMutability": "view",
      "type": "function"
    },
    {
      "inputs": [],
      "name": "token",
      "outputs": [
        {
          "internalType": "contract IVotes",
          "name": "",
          "type": "address"
        }
      ],
      "stateMutability": "view",
      "type": "function"
    },
    {
      "inputs": [],
      "name": "version",
      "outputs": [
        {
          "internalType": "string",
          "name": "",
          "type": "string"
        }
      ],
      "stateMutability": "view",
      "type": "function"
    },
    {
      "inputs": [],
      "name": "votingDelay",
      "outputs": [
        {
          "internalType": "uint256",
          "name": "",
          "type": "uint256"
        }
      ],
      "stateMutability": "view",
      "type": "function"
    },
    {
      "inputs": [],
      "name": "votingPeriod",
      "outputs": [
        {
          "internalType": "uint256",
          "name": "",
          "type": "uint256"
        }
      ],
      "stateMutability": "view",
      "type": "function"
    },
    {
      "stateMutability": "payable",
      "type": "receive"
    }
  ],
  "bytecode": "0x6101606040523480156200001257600080fd5b5060405162005dd838038062005dd8833981810160405281019062000038919062000704565b8085858560008a8062000050620001ad60201b60201c565b60008280519060200120905060008280519060200120905060007f8b73c3c69bb8fe3d512ecc4cf759cc79239f7b179b0ffacaa9a75d522b39400f90508260e081815250508161010081815250504660a08181525050620000b9818484620001ea60201b60201c565b608081815250503073ffffffffffffffffffffffffffffffffffffffff1660c08173ffffffffffffffffffffffffffffffffffffffff1681525050806101208181525050505050505080600090805190602001906200011a929190620003be565b50506200012d836200022660201b60201c565b6200013e826200026d60201b60201c565b6200014f81620002fa60201b60201c565b5050508073ffffffffffffffffffffffffffffffffffffffff166101408173ffffffffffffffffffffffffffffffffffffffff16815250505062000199816200034160201b60201c565b5081600a81905550505050505050620009d2565b60606040518060400160405280600181526020017f3100000000000000000000000000000000000000000000000000000000000000815250905090565b6000838383463060405160200162000207959493929190620007fc565b6040516020818303038152906040528051906020012090509392505050565b7fc565b045403dc03c2eea82b81a0465edad9e2e7fc4d97e11421c209da93d7a93600454826040516200025b92919062000859565b60405180910390a18060048190555050565b60008111620002b3576040517f08c379a0000000000000000000000000000000000000000000000000000000008152600401620002aa906200090d565b60405180910390fd5b7f7e3f7f0708a84de9203036abaa450dccc85ad5ff52f78c170f3edb55cf5e882860055482604051620002e892919062000859565b60405180910390a18060058190555050565b7fccb45da8d5717e6c4544694297c4ba5cf151d455c9bb0ed4fc7a38411bc05461600654826040516200032f92919062000859565b60405180910390a18060068190555050565b7f7ca4ac117ed3cdce75c1161d8207c440389b1a15d69d096831664657c07dafc2600860009054906101000a900467ffffffffffffffff16826040516200038a92919062000940565b60405180910390a180600860006101000a81548167ffffffffffffffff021916908367ffffffffffffffff16021790555050565b828054620003cc906200099c565b90600052602060002090601f016020900481019282620003f057600085556200043c565b82601f106200040b57805160ff19168380011785556200043c565b828001600101855582156200043c579182015b828111156200043b5782518255916020019190600101906200041e565b5b5090506200044b91906200044f565b5090565b5b808211156200046a57600081600090555060010162000450565b5090565b6000604051905090565b600080fd5b600080fd5b600080fd5b600080fd5b6000601f19601f8301169050919050565b7f4e487b7100000000000000000000000000000000000000000000000000000000600052604160045260246000fd5b620004d7826200048c565b810181811067ffffffffffffffff82111715620004f957620004f86200049d565b5b80604052505050565b60006200050e6200046e565b90506200051c8282620004cc565b919050565b600067ffffffffffffffff8211156200053f576200053e6200049d565b5b6200054a826200048c565b9050602081019050919050565b60005b83811015620005775780820151818401526020810190506200055a565b8381111562000587576000848401525b50505050565b6000620005a46200059e8462000521565b62000502565b905082815260208101848484011115620005c357620005c262000487565b5b620005d084828562000557565b509392505050565b600082601f830112620005f057620005ef62000482565b5b8151620006028482602086016200058d565b91505092915050565b600073ffffffffffffffffffffffffffffffffffffffff82169050919050565b600062000638826200060b565b9050919050565b60006200064c826200062b565b9050919050565b6200065e816200063f565b81146200066a57600080fd5b50565b6000815190506200067e8162000653565b92915050565b6000819050919050565b620006998162000684565b8114620006a557600080fd5b50565b600081519050620006b9816200068e565b92915050565b600067ffffffffffffffff82169050919050565b620006de81620006bf565b8114620006ea57600080fd5b50565b600081519050620006fe81620006d3565b92915050565b60008060008060008060c0878903121562000724576200072362000478565b5b600087015167ffffffffffffffff8111156200074557620007446200047d565b5b6200075389828a01620005d8565b96505060206200076689828a016200066d565b95505060406200077989828a01620006a8565b94505060606200078c89828a01620006a8565b93505060806200079f89828a01620006a8565b92505060a0620007b289828a01620006ed565b9150509295509295509295565b6000819050919050565b620007d481620007bf565b82525050565b620007e58162000684565b82525050565b620007f6816200062b565b82525050565b600060a082019050620008136000830188620007c9565b620008226020830187620007c9565b620008316040830186620007c9565b620008406060830185620007da565b6200084f6080830184620007eb565b9695505050505050565b6000604082019050620008706000830185620007da565b6200087f6020830184620007da565b9392505050565b600082825260208201905092915050565b7f476f7665726e6f7253657474696e67733a20766f74696e6720706572696f642060008201527f746f6f206c6f7700000000000000000000000000000000000000000000000000602082015250565b6000620008f560278362000886565b9150620009028262000897565b604082019050919050565b600060208201905081810360008301526200092881620008e6565b9050919050565b6200093a81620006bf565b82525050565b60006040820190506200095760008301856200092f565b6200096660208301846200092f565b9392505050565b7f4e487b7100000000000000000000000000000000000000000000000000000000600052602260045260246000fd5b60006002820490506001821680620009b557607f821691505b60208210811415620009cc57620009cb6200096d565b5b50919050565b60805160a05160c05160e0516101005161012051610140516153a462000a3460003960008181611bb20152612165015260006124cc0152600061250e015260006124ed0152600061242201526000612478015260006124a101526153a46000f3fe6080604052600436106102085760003560e01c806370b0f66011610118578063d07f91e9116100a0578063eb9019d41161006f578063eb9019d41461086f578063ece40cc1146108ac578063f23a6e61146108d5578063f8ce560a14610912578063fc0c546a1461094f5761024e565b8063d07f91e9146107c7578063dd4e2ba5146107f0578063deaaa7cc1461081b578063ea0217cf146108465761024e565b8063b58131b0116100e7578063b58131b0146106c9578063bc197c81146106f4578063c01f9e3714610731578063c28bc2fa1461076e578063c59057e41461078a5761024e565b806370b0f660146105e95780637b3c71d3146106125780637d5e81e21461064f5780639a802a6d1461068c5761024e565b806332b8113e1161019b578063438596321161016a57806343859632146104c8578063544ffc9c1461050557806354fd4d5014610544578063567813881461056f5780635f398a14146105ac5761024e565b806332b8113e146103f85780633932abb1146104235780633bccf4fd1461044e5780633e4f49e61461048b5761024e565b8063150b7a02116101d7578063150b7a02146103235780632656227d146103605780632d63f693146103905780632fe3e261146103cd5761024e565b806301ffc9a71461025357806302a251a31461029057806303420181146102bb57806306fdde03146102f85761024e565b3661024e573073ffffffffffffffffffffffffffffffffffffffff1661022c61097a565b73ffffffffffffffffffffffffffffffffffffffff161461024c57600080fd5b005b600080fd5b34801561025f57600080fd5b5061027a60048036038101906102759190612f49565b610982565b6040516102879190612f91565b60405180910390f35b34801561029c57600080fd5b506102a5610ae7565b6040516102b29190612fc5565b60405180910390f35b3480156102c757600080fd5b506102e260048036038101906102dd9190613221565b610af1565b6040516102ef9190612fc5565b60405180910390f35b34801561030457600080fd5b5061030d610bd6565b60405161031a9190613387565b60405180910390f35b34801561032f57600080fd5b5061034a60048036038101906103459190613407565b610c68565b6040516103579190613499565b60405180910390f35b61037a6004803603810190610375919061371b565b610c7c565b6040516103879190612fc5565b60405180910390f35b34801561039c57600080fd5b506103b760048036038101906103b291906137d6565b610dc9565b6040516103c49190612fc5565b60405180910390f35b3480156103d957600080fd5b506103e2610e37565b6040516103ef9190613812565b60405180910390f35b34801561040457600080fd5b5061040d610e5b565b60405161041a9190613850565b60405180910390f35b34801561042f57600080fd5b50610438610e79565b6040516104459190612fc5565b60405180910390f35b34801561045a57600080fd5b506104756004803603810190610470919061386b565b610e83565b6040516104829190612fc5565b60405180910390f35b34801561049757600080fd5b506104b260048036038101906104ad91906137d6565b610f0d565b6040516104bf919061395d565b60405180910390f35b3480156104d457600080fd5b506104ef60048036038101906104ea9190613978565b611022565b6040516104fc9190612f91565b60405180910390f35b34801561051157600080fd5b5061052c600480360381019061052791906137d6565b61108d565b60405161053b939291906139b8565b60405180910390f35b34801561055057600080fd5b506105596110c5565b6040516105669190613387565b60405180910390f35b34801561057b57600080fd5b50610596600480360381019061059191906139ef565b611102565b6040516105a39190612fc5565b60405180910390f35b3480156105b857600080fd5b506105d360048036038101906105ce9190613a2f565b611133565b6040516105e09190612fc5565b60405180910390f35b3480156105f557600080fd5b50610610600480360381019061060b91906137d6565b61119d565b005b34801561061e57600080fd5b5061063960048036038101906106349190613ad3565b611299565b6040516106469190612fc5565b60405180910390f35b34801561065b57600080fd5b5061067660048036038101906106719190613be8565b611301565b6040516106839190612fc5565b60405180910390f35b34801561069857600080fd5b506106b360048036038101906106ae9190613cbf565b611608565b6040516106c09190612fc5565b60405180910390f35b3480156106d557600080fd5b506106de61161e565b6040516106eb9190612fc5565b60405180910390f35b34801561070057600080fd5b5061071b60048036038101906107169190613d2e565b61162d565b6040516107289190613499565b60405180910390f35b34801561073d57600080fd5b50610758600480360381019061075391906137d6565b611642565b6040516107659190612fc5565b60405180910390f35b61078860048036038101906107839190613e53565b611654565b005b34801561079657600080fd5b506107b160048036038101906107ac919061371b565b6117e2565b6040516107be9190612fc5565b60405180910390f35b3480156107d357600080fd5b506107ee60048036038101906107e99190613ef3565b61181e565b005b3480156107fc57600080fd5b5061080561191a565b6040516108129190613387565b60405180910390f35b34801561082757600080fd5b50610830611957565b60405161083d9190613812565b60405180910390f35b34801561085257600080fd5b5061086d600480360381019061086891906137d6565b61197b565b005b34801561087b57600080fd5b5061089660048036038101906108919190613f20565b611a77565b6040516108a39190612fc5565b60405180910390f35b3480156108b857600080fd5b506108d360048036038101906108ce91906137d6565b611a93565b005b3480156108e157600080fd5b506108fc60048036038101906108f79190613f60565b611b8f565b6040516109099190613499565b60405180910390f35b34801561091e57600080fd5b50610939600480360381019061093491906137d6565b611ba4565b6040516109469190612fc5565b60405180910390f35b34801561095b57600080fd5b50610964611bb0565b6040516109719190614056565b60405180910390f35b600030905090565b6000639a802a6d60e01b630342018160e01b635f398a1460e01b7f79dd796f000000000000000000000000000000000000000000000000000000001818187bffffffffffffffffffffffffffffffffffffffffffffffffffffffff1916827bffffffffffffffffffffffffffffffffffffffffffffffffffffffff19161480610a6857507f79dd796f000000000000000000000000000000000000000000000000000000007bffffffffffffffffffffffffffffffffffffffffffffffffffffffff1916827bffffffffffffffffffffffffffffffffffffffffffffffffffffffff1916145b80610ad057507f4e2312e0000000000000000000000000000000000000000000000000000000007bffffffffffffffffffffffffffffffffffffffffffffffffffffffff1916827bffffffffffffffffffffffffffffffffffffffffffffffffffffffff1916145b80610ae05750610adf82611bd4565b5b9050919050565b6000600554905090565b600080610b74610b6c7fb3b3f3b703cd84ce352197dcff232b1b5d3cfb2025ce47cf04742d0651f1af888c8c8c8c604051610b2d9291906140a1565b60405180910390208b80519060200120604051602001610b519594939291906140c9565b60405160208183030381529060405280519060200120611c3e565b868686611c58565b9050610bc78a828b8b8b8080601f016020809104026020016040519081016040528093929190818152602001838380828437600081840152601f19601f820116905080830192505050505050508a611c83565b91505098975050505050505050565b606060008054610be59061414b565b80601f0160208091040260200160405190810160405280929190818152602001828054610c119061414b565b8015610c5e5780601f10610c3357610100808354040283529160200191610c5e565b820191906000526020600020905b815481529060010190602001808311610c4157829003601f168201915b5050505050905090565b600063150b7a0260e01b9050949350505050565b600080610c8b868686866117e2565b90506000610c9882610f0d565b905060046007811115610cae57610cad6138e6565b5b816007811115610cc157610cc06138e6565b5b1480610cf1575060056007811115610cdc57610cdb6138e6565b5b816007811115610cef57610cee6138e6565b5b145b610d30576040517f08c379a0000000000000000000000000000000000000000000000000000000008152600401610d27906141ef565b60405180910390fd5b600180600084815260200190815260200160002060020160006101000a81548160ff0219169083151502179055507f712ae1383f79ac853f8d882153778e0260ef8f03b504e2866e0593e04d2b291f82604051610d8d9190612fc5565b60405180910390a1610da28288888888611c9d565b610daf8288888888611d81565b610dbc8288888888611e90565b8192505050949350505050565b6000610e26600160008481526020019081526020016000206000016040518060200160405290816000820160009054906101000a900467ffffffffffffffff1667ffffffffffffffff1667ffffffffffffffff1681525050611eeb565b67ffffffffffffffff169050919050565b7fb3b3f3b703cd84ce352197dcff232b1b5d3cfb2025ce47cf04742d0651f1af8881565b6000600860009054906101000a900467ffffffffffffffff16905090565b6000600454905090565b600080610ee4610edc7f150214d74d59b7d1e90c73fc22ef3d991dd0a76b046543d4d80ab92d2a50328f8989604051602001610ec19392919061420f565b60405160208183030381529060405280519060200120611c3e565b868686611c58565b9050610f0187828860405180602001604052806000815250611ef9565b91505095945050505050565b6000806001600084815260200190815260200160002090508060020160009054906101000a900460ff1615610f4657600791505061101d565b8060020160019054906101000a900460ff1615610f6757600291505061101d565b6000610f7284610dc9565b90506000811415610fb8576040517f08c379a0000000000000000000000000000000000000000000000000000000008152600401610faf90614292565b60405180910390fd5b438110610fca5760009250505061101d565b6000610fd585611642565b9050438110610fea576001935050505061101d565b610ff385611f19565b8015611004575061100385611f60565b5b15611015576004935050505061101d565b600393505050505b919050565b60006007600084815260200190815260200160002060030160008373ffffffffffffffffffffffffffffffffffffffff1673ffffffffffffffffffffffffffffffffffffffff16815260200190815260200160002060009054906101000a900460ff16905092915050565b600080600080600760008681526020019081526020016000209050806000015481600101548260020154935093509350509193909250565b60606040518060400160405280600181526020017f3100000000000000000000000000000000000000000000000000000000000000815250905090565b60008061110d611f8b565b905061112a84828560405180602001604052806000815250611ef9565b91505092915050565b60008061113e611f8b565b905061119187828888888080601f016020809104026020016040519081016040528093929190818152602001838380828437600081840152601f19601f8201169050808301925050505050505087611c83565b91505095945050505050565b6111a561097a565b73ffffffffffffffffffffffffffffffffffffffff166111c3611f8b565b73ffffffffffffffffffffffffffffffffffffffff1614611219576040517f08c379a0000000000000000000000000000000000000000000000000000000008152600401611210906142fe565b60405180910390fd5b3073ffffffffffffffffffffffffffffffffffffffff1661123861097a565b73ffffffffffffffffffffffffffffffffffffffff161461128d57600061125d611f93565b60405161126b9291906140a1565b604051809103902090505b806112816002611fa0565b1461128b57611276565b505b6112968161207c565b50565b6000806112a4611f8b565b90506112f686828787878080601f016020809104026020016040519081016040528093929190818152602001838380828437600081840152601f19601f82011690508083019250505050505050611ef9565b915050949350505050565b600061130b61161e565b611328611316611f8b565b600143611323919061434d565b611a77565b1015611369576040517f08c379a0000000000000000000000000000000000000000000000000000000008152600401611360906143f3565b60405180910390fd5b600061137e86868686805190602001206117e2565b905084518651146113c4576040517f08c379a00000000000000000000000000000000000000000000000000000000081526004016113bb90614485565b60405180910390fd5b8351865114611408576040517f08c379a00000000000000000000000000000000000000000000000000000000081526004016113ff90614485565b60405180910390fd5b600086511161144c576040517f08c379a0000000000000000000000000000000000000000000000000000000008152600401611443906144f1565b60405180910390fd5b60006001600083815260200190815260200160002090506114ac816000016040518060200160405290816000820160009054906101000a900467ffffffffffffffff1667ffffffffffffffff1667ffffffffffffffff16815250506120c1565b6114eb576040517f08c379a00000000000000000000000000000000000000000000000000000000081526004016114e290614583565b60405180910390fd5b60006114fd6114f8610e79565b6120db565b611506436120db565b61151091906145a3565b9050600061152461151f610ae7565b6120db565b8261152f91906145a3565b9050611547828460000161213290919063ffffffff16565b61155d818460010161213290919063ffffffff16565b7f7d84a6263ae0d98d3329bd7b46bb4e8d6f98cd35a7adb45c274c8b7fd5ebd5e084611587611f8b565b8b8b8d5167ffffffffffffffff8111156115a4576115a36130c0565b5b6040519080825280602002602001820160405280156115d757816020015b60608152602001906001900390816115c25790505b508c88888e6040516115f1999897969594939291906149c0565b60405180910390a183945050505050949350505050565b6000611615848484612161565b90509392505050565b6000611628612217565b905090565b600063bc197c8160e01b905095945050505050565b600061164d82612221565b9050919050565b61165c61097a565b73ffffffffffffffffffffffffffffffffffffffff1661167a611f8b565b73ffffffffffffffffffffffffffffffffffffffff16146116d0576040517f08c379a00000000000000000000000000000000000000000000000000000000081526004016116c7906142fe565b60405180910390fd5b3073ffffffffffffffffffffffffffffffffffffffff166116ef61097a565b73ffffffffffffffffffffffffffffffffffffffff1614611744576000611714611f93565b6040516117229291906140a1565b604051809103902090505b806117386002611fa0565b146117425761172d565b505b6000808573ffffffffffffffffffffffffffffffffffffffff1685858560405161176f9291906140a1565b60006040518083038185875af1925050503d80600081146117ac576040519150601f19603f3d011682016040523d82523d6000602084013e6117b1565b606091505b50915091506117d982826040518060600160405280602881526020016153206028913961229d565b50505050505050565b6000848484846040516020016117fb9493929190614a70565b6040516020818303038152906040528051906020012060001c9050949350505050565b61182661097a565b73ffffffffffffffffffffffffffffffffffffffff16611844611f8b565b73ffffffffffffffffffffffffffffffffffffffff161461189a576040517f08c379a0000000000000000000000000000000000000000000000000000000008152600401611891906142fe565b60405180910390fd5b3073ffffffffffffffffffffffffffffffffffffffff166118b961097a565b73ffffffffffffffffffffffffffffffffffffffff161461190e5760006118de611f93565b6040516118ec9291906140a1565b604051809103902090505b806119026002611fa0565b1461190c576118f7565b505b611917816122bf565b50565b60606040518060400160405280602081526020017f737570706f72743d627261766f2671756f72756d3d666f722c6162737461696e815250905090565b7f150214d74d59b7d1e90c73fc22ef3d991dd0a76b046543d4d80ab92d2a50328f81565b61198361097a565b73ffffffffffffffffffffffffffffffffffffffff166119a1611f8b565b73ffffffffffffffffffffffffffffffffffffffff16146119f7576040517f08c379a00000000000000000000000000000000000000000000000000000000081526004016119ee906142fe565b60405180910390fd5b3073ffffffffffffffffffffffffffffffffffffffff16611a1661097a565b73ffffffffffffffffffffffffffffffffffffffff1614611a6b576000611a3b611f93565b604051611a499291906140a1565b604051809103902090505b80611a5f6002611fa0565b14611a6957611a54565b505b611a748161233a565b50565b6000611a8b8383611a866123c2565b612161565b905092915050565b611a9b61097a565b73ffffffffffffffffffffffffffffffffffffffff16611ab9611f8b565b73ffffffffffffffffffffffffffffffffffffffff1614611b0f576040517f08c379a0000000000000000000000000000000000000000000000000000000008152600401611b06906142fe565b60405180910390fd5b3073ffffffffffffffffffffffffffffffffffffffff16611b2e61097a565b73ffffffffffffffffffffffffffffffffffffffff1614611b83576000611b53611f93565b604051611b619291906140a1565b604051809103902090505b80611b776002611fa0565b14611b8157611b6c565b505b611b8c816123d9565b50565b600063f23a6e6160e01b905095945050505050565b6000600a549050919050565b7f000000000000000000000000000000000000000000000000000000000000000081565b60007f01ffc9a7000000000000000000000000000000000000000000000000000000007bffffffffffffffffffffffffffffffffffffffffffffffffffffffff1916827bffffffffffffffffffffffffffffffffffffffffffffffffffffffff1916149050919050565b6000611c51611c4b61241e565b83612538565b9050919050565b6000806000611c698787878761256b565b91509150611c768161264e565b8192505050949350505050565b6000611c9286868686866127bc565b905095945050505050565b3073ffffffffffffffffffffffffffffffffffffffff16611cbc61097a565b73ffffffffffffffffffffffffffffffffffffffff1614611d7a5760005b8451811015611d78573073ffffffffffffffffffffffffffffffffffffffff16858281518110611d0d57611d0c614aca565b5b602002602001015173ffffffffffffffffffffffffffffffffffffffff161415611d6757611d66838281518110611d4757611d46614aca565b5b60200260200101518051906020012060026128d690919063ffffffff16565b5b80611d7190614af9565b9050611cda565b505b5050505050565b600060405180606001604052806027815260200161534860279139905060005b8551811015611e8757600080878381518110611dc057611dbf614aca565b5b602002602001015173ffffffffffffffffffffffffffffffffffffffff16878481518110611df157611df0614aca565b5b6020026020010151878581518110611e0c57611e0b614aca565b5b6020026020010151604051611e219190614b73565b60006040518083038185875af1925050503d8060008114611e5e576040519150601f19603f3d011682016040523d82523d6000602084013e611e63565b606091505b5091509150611e7382828661229d565b50505080611e8090614af9565b9050611da1565b50505050505050565b3073ffffffffffffffffffffffffffffffffffffffff16611eaf61097a565b73ffffffffffffffffffffffffffffffffffffffff1614611ee457611ed46002612952565b611ee357611ee26002612987565b5b5b5050505050565b600081600001519050919050565b6000611f0f85858585611f0a6123c2565b611c83565b9050949350505050565b60008060076000848152602001908152602001600020905080600201548160010154611f459190614b8a565b611f56611f5185610dc9565b611ba4565b1115915050919050565b6000806007600084815260200190815260200160002090508060000154816001015411915050919050565b600033905090565b3660008036915091509091565b6000611fab82612952565b15611fe2576040517f3db2a12a00000000000000000000000000000000000000000000000000000000815260040160405180910390fd5b60008260000160009054906101000a9004600f0b905082600101600082600f0b600f0b815260200190815260200160002054915082600101600082600f0b600f0b815260200190815260200160002060009055600181018360000160006101000a8154816fffffffffffffffffffffffffffffffff0219169083600f0b6fffffffffffffffffffffffffffffffff16021790555050919050565b7fc565b045403dc03c2eea82b81a0465edad9e2e7fc4d97e11421c209da93d7a93600454826040516120af929190614be0565b60405180910390a18060048190555050565b600080826000015167ffffffffffffffff16149050919050565b600067ffffffffffffffff801682111561212a576040517f08c379a000000000000000000000000000000000000000000000000000000000815260040161212190614c7b565b60405180910390fd5b819050919050565b808260000160006101000a81548167ffffffffffffffff021916908367ffffffffffffffff1602179055505050565b60007f000000000000000000000000000000000000000000000000000000000000000073ffffffffffffffffffffffffffffffffffffffff16633a46b1a885856040518363ffffffff1660e01b81526004016121be929190614c9b565b60206040518083038186803b1580156121d657600080fd5b505afa1580156121ea573d6000803e3d6000fd5b505050506040513d601f19601f8201168201806040525081019061220e9190614cd9565b90509392505050565b6000600654905090565b600061229661222f83612a08565b612287600960008681526020019081526020016000206040518060200160405290816000820160009054906101000a900467ffffffffffffffff1667ffffffffffffffff1667ffffffffffffffff1681525050611eeb565b67ffffffffffffffff16612a76565b9050919050565b606083156122ad578290506122b8565b6122b78383612a8f565b5b9392505050565b7f7ca4ac117ed3cdce75c1161d8207c440389b1a15d69d096831664657c07dafc2600860009054906101000a900467ffffffffffffffff1682604051612306929190614d06565b60405180910390a180600860006101000a81548167ffffffffffffffff021916908367ffffffffffffffff16021790555050565b6000811161237d576040517f08c379a000000000000000000000000000000000000000000000000000000000815260040161237490614da1565b60405180910390fd5b7f7e3f7f0708a84de9203036abaa450dccc85ad5ff52f78c170f3edb55cf5e8828600554826040516123b0929190614be0565b60405180910390a18060058190555050565b606060405180602001604052806000815250905090565b7fccb45da8d5717e6c4544694297c4ba5cf151d455c9bb0ed4fc7a38411bc054616006548260405161240c929190614be0565b60405180910390a18060068190555050565b60007f000000000000000000000000000000000000000000000000000000000000000073ffffffffffffffffffffffffffffffffffffffff163073ffffffffffffffffffffffffffffffffffffffff1614801561249a57507f000000000000000000000000000000000000000000000000000000000000000046145b156124c7577f00000000000000000000000000000000000000000000000000000000000000009050612535565b6125327f00000000000000000000000000000000000000000000000000000000000000007f00000000000000000000000000000000000000000000000000000000000000007f0000000000000000000000000000000000000000000000000000000000000000612adf565b90505b90565b6000828260405160200161254d929190614e39565b60405160208183030381529060405280519060200120905092915050565b6000807f7fffffffffffffffffffffffffffffff5d576e7357a4501ddfe92f46681b20a08360001c11156125a6576000600391509150612645565b6000600187878787604051600081526020016040526040516125cb9493929190614e70565b6020604051602081039080840390855afa1580156125ed573d6000803e3d6000fd5b505050602060405103519050600073ffffffffffffffffffffffffffffffffffffffff168173ffffffffffffffffffffffffffffffffffffffff16141561263c57600060019250925050612645565b80600092509250505b94509492505050565b60006004811115612662576126616138e6565b5b816004811115612675576126746138e6565b5b1415612680576127b9565b60016004811115612694576126936138e6565b5b8160048111156126a7576126a66138e6565b5b14156126e8576040517f08c379a00000000000000000000000000000000000000000000000000000000081526004016126df90614f01565b60405180910390fd5b600260048111156126fc576126fb6138e6565b5b81600481111561270f5761270e6138e6565b5b1415612750576040517f08c379a000000000000000000000000000000000000000000000000000000000815260040161274790614f6d565b60405180910390fd5b60036004811115612764576127636138e6565b5b816004811115612777576127766138e6565b5b14156127b8576040517f08c379a00000000000000000000000000000000000000000000000000000000081526004016127af90614fff565b60405180910390fd5b5b50565b6000806127cc8787878787612b19565b9050600060096000898152602001908152602001600020905061282b816040518060200160405290816000820160009054906101000a900467ffffffffffffffff1667ffffffffffffffff1667ffffffffffffffff16815250506120c1565b801561283c575061283b88611f19565b5b156128c857600061284b610e5b565b612854436120db565b61285e91906145a3565b905061286989611642565b8167ffffffffffffffff1611156128b357887f541f725fb9f7c98a30cc9c0ff32fbb14358cd7159c847a3aa20a2bdc442ba511826040516128aa9190613850565b60405180910390a25b6128c6818361213290919063ffffffff16565b505b819250505095945050505050565b60008260000160109054906101000a9004600f0b90508183600101600083600f0b600f0b815260200190815260200160002081905550600181018360000160106101000a8154816fffffffffffffffffffffffffffffffff0219169083600f0b6fffffffffffffffffffffffffffffffff160217905550505050565b60008160000160009054906101000a9004600f0b600f0b8260000160109054906101000a9004600f0b600f0b13159050919050565b60008160000160006101000a8154816fffffffffffffffffffffffffffffffff0219169083600f0b6fffffffffffffffffffffffffffffffff16021790555060008160000160106101000a8154816fffffffffffffffffffffffffffffffff0219169083600f0b6fffffffffffffffffffffffffffffffff16021790555050565b6000612a65600160008481526020019081526020016000206001016040518060200160405290816000820160009054906101000a900467ffffffffffffffff1667ffffffffffffffff1667ffffffffffffffff1681525050611eeb565b67ffffffffffffffff169050919050565b6000818311612a855781612a87565b825b905092915050565b600082511115612aa25781518083602001fd5b806040517f08c379a0000000000000000000000000000000000000000000000000000000008152600401612ad69190613387565b60405180910390fd5b60008383834630604051602001612afa95949392919061501f565b6040516020818303038152906040528051906020012090509392505050565b60008060016000888152602001908152602001600020905060016007811115612b4557612b446138e6565b5b612b4e88610f0d565b6007811115612b6057612b5f6138e6565b5b14612ba0576040517f08c379a0000000000000000000000000000000000000000000000000000000008152600401612b97906150e4565b60405180910390fd5b6000612bff87612bef846000016040518060200160405290816000820160009054906101000a900467ffffffffffffffff1667ffffffffffffffff1667ffffffffffffffff1681525050611eeb565b67ffffffffffffffff1686612161565b9050612c0e8888888488612cd6565b600084511415612c71578673ffffffffffffffffffffffffffffffffffffffff167fb8e138887d0aa13bab447e82de9d5c1777041ecd21ca36ba824ff1e6c07ddda489888489604051612c649493929190615104565b60405180910390a2612cc8565b8673ffffffffffffffffffffffffffffffffffffffff167fe2babfbac5889a709b63bb7f598b324e08bc5a4fb9ec647fb3cbc9ec07eb87128988848989604051612cbf95949392919061519a565b60405180910390a25b809250505095945050505050565b60006007600087815260200190815260200160002090508060030160008673ffffffffffffffffffffffffffffffffffffffff1673ffffffffffffffffffffffffffffffffffffffff16815260200190815260200160002060009054906101000a900460ff1615612d7c576040517f08c379a0000000000000000000000000000000000000000000000000000000008152600401612d739061526d565b60405180910390fd5b60018160030160008773ffffffffffffffffffffffffffffffffffffffff1673ffffffffffffffffffffffffffffffffffffffff16815260200190815260200160002060006101000a81548160ff02191690831515021790555060006002811115612dea57612de96138e6565b5b60ff168460ff161415612e175782816000016000828254612e0b9190614b8a565b92505081905550612ed5565b60016002811115612e2b57612e2a6138e6565b5b60ff168460ff161415612e585782816001016000828254612e4c9190614b8a565b92505081905550612ed4565b600280811115612e6b57612e6a6138e6565b5b60ff168460ff161415612e985782816002016000828254612e8c9190614b8a565b92505081905550612ed3565b6040517f08c379a0000000000000000000000000000000000000000000000000000000008152600401612eca906152ff565b60405180910390fd5b5b5b505050505050565b6000604051905090565b600080fd5b600080fd5b60007fffffffff0000000000000000000000000000000000000000000000000000000082169050919050565b612f2681612ef1565b8114612f3157600080fd5b50565b600081359050612f4381612f1d565b92915050565b600060208284031215612f5f57612f5e612ee7565b5b6000612f6d84828501612f34565b91505092915050565b60008115159050919050565b612f8b81612f76565b82525050565b6000602082019050612fa66000830184612f82565b92915050565b6000819050919050565b612fbf81612fac565b82525050565b6000602082019050612fda6000830184612fb6565b92915050565b612fe981612fac565b8114612ff457600080fd5b50565b60008135905061300681612fe0565b92915050565b600060ff82169050919050565b6130228161300c565b811461302d57600080fd5b50565b60008135905061303f81613019565b92915050565b600080fd5b600080fd5b600080fd5b60008083601f84011261306a57613069613045565b5b8235905067ffffffffffffffff8111156130875761308661304a565b5b6020830191508360018202830111156130a3576130a261304f565b5b9250929050565b600080fd5b6000601f19601f8301169050919050565b7f4e487b7100000000000000000000000000000000000000000000000000000000600052604160045260246000fd5b6130f8826130af565b810181811067ffffffffffffffff82111715613117576131166130c0565b5b80604052505050565b600061312a612edd565b905061313682826130ef565b919050565b600067ffffffffffffffff821115613156576131556130c0565b5b61315f826130af565b9050602081019050919050565b82818337600083830152505050565b600061318e6131898461313b565b613120565b9050828152602081018484840111156131aa576131a96130aa565b5b6131b584828561316c565b509392505050565b600082601f8301126131d2576131d1613045565b5b81356131e284826020860161317b565b91505092915050565b6000819050919050565b6131fe816131eb565b811461320957600080fd5b50565b60008135905061321b816131f5565b92915050565b60008060008060008060008060e0898b03121561324157613240612ee7565b5b600061324f8b828c01612ff7565b98505060206132608b828c01613030565b975050604089013567ffffffffffffffff81111561328157613280612eec565b5b61328d8b828c01613054565b9650965050606089013567ffffffffffffffff8111156132b0576132af612eec565b5b6132bc8b828c016131bd565b94505060806132cd8b828c01613030565b93505060a06132de8b828c0161320c565b92505060c06132ef8b828c0161320c565b9150509295985092959890939650565b600081519050919050565b600082825260208201905092915050565b60005b8381101561333957808201518184015260208101905061331e565b83811115613348576000848401525b50505050565b6000613359826132ff565b613363818561330a565b935061337381856020860161331b565b61337c816130af565b840191505092915050565b600060208201905081810360008301526133a1818461334e565b905092915050565b600073ffffffffffffffffffffffffffffffffffffffff82169050919050565b60006133d4826133a9565b9050919050565b6133e4816133c9565b81146133ef57600080fd5b50565b600081359050613401816133db565b92915050565b6000806000806080858703121561342157613420612ee7565b5b600061342f878288016133f2565b9450506020613440878288016133f2565b935050604061345187828801612ff7565b925050606085013567ffffffffffffffff81111561347257613471612eec565b5b61347e878288016131bd565b91505092959194509250565b61349381612ef1565b82525050565b60006020820190506134ae600083018461348a565b92915050565b600067ffffffffffffffff8211156134cf576134ce6130c0565b5b602082029050602081019050919050565b60006134f36134ee846134b4565b613120565b905080838252602082019050602084028301858111156135165761351561304f565b5b835b8181101561353f578061352b88826133f2565b845260208401935050602081019050613518565b5050509392505050565b600082601f83011261355e5761355d613045565b5b813561356e8482602086016134e0565b91505092915050565b600067ffffffffffffffff821115613592576135916130c0565b5b602082029050602081019050919050565b60006135b66135b184613577565b613120565b905080838252602082019050602084028301858111156135d9576135d861304f565b5b835b8181101561360257806135ee8882612ff7565b8452602084019350506020810190506135db565b5050509392505050565b600082601f83011261362157613620613045565b5b81356136318482602086016135a3565b91505092915050565b600067ffffffffffffffff821115613655576136546130c0565b5b602082029050602081019050919050565b60006136796136748461363a565b613120565b9050808382526020820190506020840283018581111561369c5761369b61304f565b5b835b818110156136e357803567ffffffffffffffff8111156136c1576136c0613045565b5b8086016136ce89826131bd565b8552602085019450505060208101905061369e565b5050509392505050565b600082601f83011261370257613701613045565b5b8135613712848260208601613666565b91505092915050565b6000806000806080858703121561373557613734612ee7565b5b600085013567ffffffffffffffff81111561375357613752612eec565b5b61375f87828801613549565b945050602085013567ffffffffffffffff8111156137805761377f612eec565b5b61378c8782880161360c565b935050604085013567ffffffffffffffff8111156137ad576137ac612eec565b5b6137b9878288016136ed565b92505060606137ca8782880161320c565b91505092959194509250565b6000602082840312156137ec576137eb612ee7565b5b60006137fa84828501612ff7565b91505092915050565b61380c816131eb565b82525050565b60006020820190506138276000830184613803565b92915050565b600067ffffffffffffffff82169050919050565b61384a8161382d565b82525050565b60006020820190506138656000830184613841565b92915050565b600080600080600060a0868803121561388757613886612ee7565b5b600061389588828901612ff7565b95505060206138a688828901613030565b94505060406138b788828901613030565b93505060606138c88882890161320c565b92505060806138d98882890161320c565b9150509295509295909350565b7f4e487b7100000000000000000000000000000000000000000000000000000000600052602160045260246000fd5b60088110613926576139256138e6565b5b50565b600081905061393782613915565b919050565b600061394782613929565b9050919050565b6139578161393c565b82525050565b6000602082019050613972600083018461394e565b92915050565b6000806040838503121561398f5761398e612ee7565b5b600061399d85828601612ff7565b92505060206139ae858286016133f2565b9150509250929050565b60006060820190506139cd6000830186612fb6565b6139da6020830185612fb6565b6139e76040830184612fb6565b949350505050565b60008060408385031215613a0657613a05612ee7565b5b6000613a1485828601612ff7565b9250506020613a2585828601613030565b9150509250929050565b600080600080600060808688031215613a4b57613a4a612ee7565b5b6000613a5988828901612ff7565b9550506020613a6a88828901613030565b945050604086013567ffffffffffffffff811115613a8b57613a8a612eec565b5b613a9788828901613054565b9350935050606086013567ffffffffffffffff811115613aba57613ab9612eec565b5b613ac6888289016131bd565b9150509295509295909350565b60008060008060608587031215613aed57613aec612ee7565b5b6000613afb87828801612ff7565b9450506020613b0c87828801613030565b935050604085013567ffffffffffffffff811115613b2d57613b2c612eec565b5b613b3987828801613054565b925092505092959194509250565b600067ffffffffffffffff821115613b6257613b616130c0565b5b613b6b826130af565b9050602081019050919050565b6000613b8b613b8684613b47565b613120565b905082815260208101848484011115613ba757613ba66130aa565b5b613bb284828561316c565b509392505050565b600082601f830112613bcf57613bce613045565b5b8135613bdf848260208601613b78565b91505092915050565b60008060008060808587031215613c0257613c01612ee7565b5b600085013567ffffffffffffffff811115613c2057613c1f612eec565b5b613c2c87828801613549565b945050602085013567ffffffffffffffff811115613c4d57613c4c612eec565b5b613c598782880161360c565b935050604085013567ffffffffffffffff811115613c7a57613c79612eec565b5b613c86878288016136ed565b925050606085013567ffffffffffffffff811115613ca757613ca6612eec565b5b613cb387828801613bba565b91505092959194509250565b600080600060608486031215613cd857613cd7612ee7565b5b6000613ce6868287016133f2565b9350506020613cf786828701612ff7565b925050604084013567ffffffffffffffff811115613d1857613d17612eec565b5b613d24868287016131bd565b9150509250925092565b600080600080600060a08688031215613d4a57613d49612ee7565b5b6000613d58888289016133f2565b9550506020613d69888289016133f2565b945050604086013567ffffffffffffffff811115613d8a57613d89612eec565b5b613d968882890161360c565b935050606086013567ffffffffffffffff811115613db757613db6612eec565b5b613dc38882890161360c565b925050608086013567ffffffffffffffff811115613de457613de3612eec565b5b613df0888289016131bd565b9150509295509295909350565b60008083601f840112613e1357613e12613045565b5b8235905067ffffffffffffffff811115613e3057613e2f61304a565b5b602083019150836001820283011115613e4c57613e4b61304f565b5b9250929050565b60008060008060608587031215613e6d57613e6c612ee7565b5b6000613e7b878288016133f2565b9450506020613e8c87828801612ff7565b935050604085013567ffffffffffffffff811115613ead57613eac612eec565b5b613eb987828801613dfd565b925092505092959194509250565b613ed08161382d565b8114613edb57600080fd5b50565b600081359050613eed81613ec7565b92915050565b600060208284031215613f0957613f08612ee7565b5b6000613f1784828501613ede565b91505092915050565b60008060408385031215613f3757613f36612ee7565b5b6000613f45858286016133f2565b9250506020613f5685828601612ff7565b9150509250929050565b600080600080600060a08688031215613f7c57613f7b612ee7565b5b6000613f8a888289016133f2565b9550506020613f9b888289016133f2565b9450506040613fac88828901612ff7565b9350506060613fbd88828901612ff7565b925050608086013567ffffffffffffffff811115613fde57613fdd612eec565b5b613fea888289016131bd565b9150509295509295909350565b6000819050919050565b600061401c614017614012846133a9565b613ff7565b6133a9565b9050919050565b600061402e82614001565b9050919050565b600061404082614023565b9050919050565b61405081614035565b82525050565b600060208201905061406b6000830184614047565b92915050565b600081905092915050565b60006140888385614071565b935061409583858461316c565b82840190509392505050565b60006140ae82848661407c565b91508190509392505050565b6140c38161300c565b82525050565b600060a0820190506140de6000830188613803565b6140eb6020830187612fb6565b6140f860408301866140ba565b6141056060830185613803565b6141126080830184613803565b9695505050505050565b7f4e487b7100000000000000000000000000000000000000000000000000000000600052602260045260246000fd5b6000600282049050600182168061416357607f821691505b602082108114156141775761417661411c565b5b50919050565b7f476f7665726e6f723a2070726f706f73616c206e6f742073756363657373667560008201527f6c00000000000000000000000000000000000000000000000000000000000000602082015250565b60006141d960218361330a565b91506141e48261417d565b604082019050919050565b60006020820190508181036000830152614208816141cc565b9050919050565b60006060820190506142246000830186613803565b6142316020830185612fb6565b61423e60408301846140ba565b949350505050565b7f476f7665726e6f723a20756e6b6e6f776e2070726f706f73616c206964000000600082015250565b600061427c601d8361330a565b915061428782614246565b602082019050919050565b600060208201905081810360008301526142ab8161426f565b9050919050565b7f476f7665726e6f723a206f6e6c79476f7665726e616e63650000000000000000600082015250565b60006142e860188361330a565b91506142f3826142b2565b602082019050919050565b60006020820190508181036000830152614317816142db565b9050919050565b7f4e487b7100000000000000000000000000000000000000000000000000000000600052601160045260246000fd5b600061435882612fac565b915061436383612fac565b9250828210156143765761437561431e565b5b828203905092915050565b7f476f7665726e6f723a2070726f706f73657220766f7465732062656c6f77207060008201527f726f706f73616c207468726573686f6c64000000000000000000000000000000602082015250565b60006143dd60318361330a565b91506143e882614381565b604082019050919050565b6000602082019050818103600083015261440c816143d0565b9050919050565b7f476f7665726e6f723a20696e76616c69642070726f706f73616c206c656e677460008201527f6800000000000000000000000000000000000000000000000000000000000000602082015250565b600061446f60218361330a565b915061447a82614413565b604082019050919050565b6000602082019050818103600083015261449e81614462565b9050919050565b7f476f7665726e6f723a20656d7074792070726f706f73616c0000000000000000600082015250565b60006144db60188361330a565b91506144e6826144a5565b602082019050919050565b6000602082019050818103600083015261450a816144ce565b9050919050565b7f476f7665726e6f723a2070726f706f73616c20616c726561647920657869737460008201527f7300000000000000000000000000000000000000000000000000000000000000602082015250565b600061456d60218361330a565b915061457882614511565b604082019050919050565b6000602082019050818103600083015261459c81614560565b9050919050565b60006145ae8261382d565b91506145b98361382d565b92508267ffffffffffffffff038211156145d6576145d561431e565b5b828201905092915050565b6145ea816133c9565b82525050565b600081519050919050565b600082825260208201905092915050565b6000819050602082019050919050565b614625816133c9565b82525050565b6000614637838361461c565b60208301905092915050565b6000602082019050919050565b600061465b826145f0565b61466581856145fb565b93506146708361460c565b8060005b838110156146a1578151614688888261462b565b975061469383614643565b925050600181019050614674565b5085935050505092915050565b600081519050919050565b600082825260208201905092915050565b6000819050602082019050919050565b6146e381612fac565b82525050565b60006146f583836146da565b60208301905092915050565b6000602082019050919050565b6000614719826146ae565b61472381856146b9565b935061472e836146ca565b8060005b8381101561475f57815161474688826146e9565b975061475183614701565b925050600181019050614732565b5085935050505092915050565b600081519050919050565b600082825260208201905092915050565b6000819050602082019050919050565b600082825260208201905092915050565b60006147b4826132ff565b6147be8185614798565b93506147ce81856020860161331b565b6147d7816130af565b840191505092915050565b60006147ee83836147a9565b905092915050565b6000602082019050919050565b600061480e8261476c565b6148188185614777565b93508360208202850161482a85614788565b8060005b85811015614866578484038952815161484785826147e2565b9450614852836147f6565b925060208a0199505060018101905061482e565b50829750879550505050505092915050565b600081519050919050565b600082825260208201905092915050565b6000819050602082019050919050565b600081519050919050565b600082825260208201905092915050565b60006148cb826148a4565b6148d581856148af565b93506148e581856020860161331b565b6148ee816130af565b840191505092915050565b600061490583836148c0565b905092915050565b6000602082019050919050565b600061492582614878565b61492f8185614883565b93508360208202850161494185614894565b8060005b8581101561497d578484038952815161495e85826148f9565b94506149698361490d565b925060208a01995050600181019050614945565b50829750879550505050505092915050565b60006149aa6149a56149a08461382d565b613ff7565b612fac565b9050919050565b6149ba8161498f565b82525050565b6000610120820190506149d6600083018c612fb6565b6149e3602083018b6145e1565b81810360408301526149f5818a614650565b90508181036060830152614a09818961470e565b90508181036080830152614a1d8188614803565b905081810360a0830152614a31818761491a565b9050614a4060c08301866149b1565b614a4d60e08301856149b1565b818103610100830152614a60818461334e565b90509a9950505050505050505050565b60006080820190508181036000830152614a8a8187614650565b90508181036020830152614a9e818661470e565b90508181036040830152614ab2818561491a565b9050614ac16060830184613803565b95945050505050565b7f4e487b7100000000000000000000000000000000000000000000000000000000600052603260045260246000fd5b6000614b0482612fac565b91507fffffffffffffffffffffffffffffffffffffffffffffffffffffffffffffffff821415614b3757614b3661431e565b5b600182019050919050565b6000614b4d826148a4565b614b578185614071565b9350614b6781856020860161331b565b80840191505092915050565b6000614b7f8284614b42565b915081905092915050565b6000614b9582612fac565b9150614ba083612fac565b9250827fffffffffffffffffffffffffffffffffffffffffffffffffffffffffffffffff03821115614bd557614bd461431e565b5b828201905092915050565b6000604082019050614bf56000830185612fb6565b614c026020830184612fb6565b9392505050565b7f53616665436173743a2076616c756520646f65736e27742066697420696e203660008201527f3420626974730000000000000000000000000000000000000000000000000000602082015250565b6000614c6560268361330a565b9150614c7082614c09565b604082019050919050565b60006020820190508181036000830152614c9481614c58565b9050919050565b6000604082019050614cb060008301856145e1565b614cbd6020830184612fb6565b9392505050565b600081519050614cd381612fe0565b92915050565b600060208284031215614cef57614cee612ee7565b5b6000614cfd84828501614cc4565b91505092915050565b6000604082019050614d1b6000830185613841565b614d286020830184613841565b9392505050565b7f476f7665726e6f7253657474696e67733a20766f74696e6720706572696f642060008201527f746f6f206c6f7700000000000000000000000000000000000000000000000000602082015250565b6000614d8b60278361330a565b9150614d9682614d2f565b604082019050919050565b60006020820190508181036000830152614dba81614d7e565b9050919050565b600081905092915050565b7f1901000000000000000000000000000000000000000000000000000000000000600082015250565b6000614e02600283614dc1565b9150614e0d82614dcc565b600282019050919050565b6000819050919050565b614e33614e2e826131eb565b614e18565b82525050565b6000614e4482614df5565b9150614e508285614e22565b602082019150614e608284614e22565b6020820191508190509392505050565b6000608082019050614e856000830187613803565b614e9260208301866140ba565b614e9f6040830185613803565b614eac6060830184613803565b95945050505050565b7f45434453413a20696e76616c6964207369676e61747572650000000000000000600082015250565b6000614eeb60188361330a565b9150614ef682614eb5565b602082019050919050565b60006020820190508181036000830152614f1a81614ede565b9050919050565b7f45434453413a20696e76616c6964207369676e6174757265206c656e67746800600082015250565b6000614f57601f8361330a565b9150614f6282614f21565b602082019050919050565b60006020820190508181036000830152614f8681614f4a565b9050919050565b7f45434453413a20696e76616c6964207369676e6174757265202773272076616c60008201527f7565000000000000000000000000000000000000000000000000000000000000602082015250565b6000614fe960228361330a565b9150614ff482614f8d565b604082019050919050565b6000602082019050818103600083015261501881614fdc565b9050919050565b600060a0820190506150346000830188613803565b6150416020830187613803565b61504e6040830186613803565b61505b6060830185612fb6565b61506860808301846145e1565b9695505050505050565b7f476f7665726e6f723a20766f7465206e6f742063757272656e746c792061637460008201527f6976650000000000000000000000000000000000000000000000000000000000602082015250565b60006150ce60238361330a565b91506150d982615072565b604082019050919050565b600060208201905081810360008301526150fd816150c1565b9050919050565b60006080820190506151196000830187612fb6565b61512660208301866140ba565b6151336040830185612fb6565b8181036060830152615145818461334e565b905095945050505050565b600082825260208201905092915050565b600061516c826148a4565b6151768185615150565b935061518681856020860161331b565b61518f816130af565b840191505092915050565b600060a0820190506151af6000830188612fb6565b6151bc60208301876140ba565b6151c96040830186612fb6565b81810360608301526151db818561334e565b905081810360808301526151ef8184615161565b90509695505050505050565b7f476f7665726e6f72566f74696e6753696d706c653a20766f746520616c72656160008201527f6479206361737400000000000000000000000000000000000000000000000000602082015250565b600061525760278361330a565b9150615262826151fb565b604082019050919050565b600060208201905081810360008301526152868161524a565b9050919050565b7f476f7665726e6f72566f74696e6753696d706c653a20696e76616c696420766160008201527f6c756520666f7220656e756d20566f7465547970650000000000000000000000602082015250565b60006152e960358361330a565b91506152f48261528d565b604082019050919050565b60006020820190508181036000830152615318816152dc565b905091905056fe476f7665726e6f723a2072656c617920726576657274656420776974686f7574206d657373616765476f7665726e6f723a2063616c6c20726576657274656420776974686f7574206d657373616765a2646970667358221220f808048a9b5e766b632995f11c56bd6f7dd9501d1cf89cd6a20cef887638223364736f6c63430008090033",
  "linkReferences": {},
  "deployedLinkReferences": {}
}