{
  "_format": "hh-sol-artifact-1",
  "contractName": "CrossChainEnabledArbitrumL2Mock",
  "sourceName": "contracts/openzeppelin/mocks/crosschain/receivers.sol",
  "abi": [
    {
      "inputs": [
        {
          "internalType": "address",
          "name": "actual",
          "type": "address"
        },
        {
          "internalType": "address",
          "name": "expected",
          "type": "address"
        }
      ],
      "name": "InvalidCrossChainSender",
      "type": "error"
    },
    {
      "inputs": [],
      "name": "NotCrossChainCall",
      "type": "error"
    },
    {
      "inputs": [],
      "name": "crossChainOwnerRestricted",
      "outputs": [],
      "stateMutability": "nonpayable",
      "type": "function"
    },
    {
      "inputs": [],
      "name": "crossChainRestricted",
      "outputs": [],
      "stateMutability": "nonpayable",
      "type": "function"
    },
    {
      "inputs": [],
      "name": "owner",
      "outputs": [
        {
          "internalType": "address",
          "name": "",
          "type": "address"
        }
      ],
      "stateMutability": "view",
      "type": "function"
    }
  ],
  "bytecode": "0x60a06040523373ffffffffffffffffffffffffffffffffffffffff1660809073ffffffffffffffffffffffffffffffffffffffff1681525034801561004357600080fd5b506080516104aa6100646000396000818160ba015260de01526104aa6000f3fe608060405234801561001057600080fd5b50600436106100415760003560e01c80634b074af5146100465780638da5cb5b14610050578063f97f51891461006e575b600080fd5b61004e610078565b005b6100586100b8565b604051610065919061036d565b60405180910390f35b6100766100dc565b005b61008061017f565b6100b6576040517f4a74df9200000000000000000000000000000000000000000000000000000000815260040160405180910390fd5b565b7f000000000000000000000000000000000000000000000000000000000000000081565b7f00000000000000000000000000000000000000000000000000000000000000006000610107610190565b90508073ffffffffffffffffffffffffffffffffffffffff168273ffffffffffffffffffffffffffffffffffffffff161461017b5780826040517fef25d32b000000000000000000000000000000000000000000000000000000008152600401610172929190610388565b60405180910390fd5b5050565b600061018b60646101df565b905090565b600061019a61017f565b6101d0576040517f4a74df9200000000000000000000000000000000000000000000000000000000815260040160405180910390fd5b6101da6064610266565b905090565b60008173ffffffffffffffffffffffffffffffffffffffff1663175a260b6040518163ffffffff1660e01b815260040160206040518083038186803b15801561022757600080fd5b505afa15801561023b573d6000803e3d6000fd5b505050506040513d601f19601f8201168201806040525081019061025f91906103ee565b9050919050565b6000610271826101df565b6102a7576040517f4a74df9200000000000000000000000000000000000000000000000000000000815260040160405180910390fd5b8173ffffffffffffffffffffffffffffffffffffffff1663d74523b36040518163ffffffff1660e01b815260040160206040518083038186803b1580156102ed57600080fd5b505afa158015610301573d6000803e3d6000fd5b505050506040513d601f19601f820116820180604052508101906103259190610447565b9050919050565b600073ffffffffffffffffffffffffffffffffffffffff82169050919050565b60006103578261032c565b9050919050565b6103678161034c565b82525050565b6000602082019050610382600083018461035e565b92915050565b600060408201905061039d600083018561035e565b6103aa602083018461035e565b9392505050565b600080fd5b60008115159050919050565b6103cb816103b6565b81146103d657600080fd5b50565b6000815190506103e8816103c2565b92915050565b600060208284031215610404576104036103b1565b5b6000610412848285016103d9565b91505092915050565b6104248161034c565b811461042f57600080fd5b50565b6000815190506104418161041b565b92915050565b60006020828403121561045d5761045c6103b1565b5b600061046b84828501610432565b9150509291505056fea2646970667358221220df3b9b47fa2e21b8f45782c2285d7c80e5c7139cf6ea44c3e44b1b09f26a022d64736f6c63430008090033",
  "linkReferences": {},
  "deployedLinkReferences": {}
}