{
  "_format": "hh-sol-artifact-1",
  "contractName": "VotesMock",
  "sourceName": "contracts/openzeppelin/mocks/VotesMock.sol",
  "abi": [
    {
      "inputs": [
        {
          "internalType": "string",
          "name": "name",
          "type": "string"
        }
      ],
      "stateMutability": "nonpayable",
      "type": "constructor"
    },
    {
      "anonymous": false,
      "inputs": [
        {
          "indexed": true,
          "internalType": "address",
          "name": "delegator",
          "type": "address"
        },
        {
          "indexed": true,
          "internalType": "address",
          "name": "fromDelegate",
          "type": "address"
        },
        {
          "indexed": true,
          "internalType": "address",
          "name": "toDelegate",
          "type": "address"
        }
      ],
      "name": "DelegateChanged",
      "type": "event"
    },
    {
      "anonymous": false,
      "inputs": [
        {
          "indexed": true,
          "internalType": "address",
          "name": "delegate",
          "type": "address"
        },
        {
          "indexed": false,
          "internalType": "uint256",
          "name": "previousBalance",
          "type": "uint256"
        },
        {
          "indexed": false,
          "internalType": "uint256",
          "name": "newBalance",
          "type": "uint256"
        }
      ],
      "name": "DelegateVotesChanged",
      "type": "event"
    },
    {
      "inputs": [],
      "name": "DOMAIN_SEPARATOR",
      "outputs": [
        {
          "internalType": "bytes32",
          "name": "",
          "type": "bytes32"
        }
      ],
      "stateMutability": "view",
      "type": "function"
    },
    {
      "inputs": [
        {
          "internalType": "uint256",
          "name": "voteId",
          "type": "uint256"
        }
      ],
      "name": "burn",
      "outputs": [],
      "stateMutability": "nonpayable",
      "type": "function"
    },
    {
      "inputs": [
        {
          "internalType": "address",
          "name": "delegatee",
          "type": "address"
        }
      ],
      "name": "delegate",
      "outputs": [],
      "stateMutability": "nonpayable",
      "type": "function"
    },
    {
      "inputs": [
        {
          "internalType": "address",
          "name": "account",
          "type": "address"
        },
        {
          "internalType": "address",
          "name": "newDelegation",
          "type": "address"
        }
      ],
      "name": "delegate",
      "outputs": [],
      "stateMutability": "nonpayable",
      "type": "function"
    },
    {
      "inputs": [
        {
          "internalType": "address",
          "name": "delegatee",
          "type": "address"
        },
        {
          "internalType": "uint256",
          "name": "nonce",
          "type": "uint256"
        },
        {
          "internalType": "uint256",
          "name": "expiry",
          "type": "uint256"
        },
        {
          "internalType": "uint8",
          "name": "v",
          "type": "uint8"
        },
        {
          "internalType": "bytes32",
          "name": "r",
          "type": "bytes32"
        },
        {
          "internalType": "bytes32",
          "name": "s",
          "type": "bytes32"
        }
      ],
      "name": "delegateBySig",
      "outputs": [],
      "stateMutability": "nonpayable",
      "type": "function"
    },
    {
      "inputs": [
        {
          "internalType": "address",
          "name": "account",
          "type": "address"
        }
      ],
      "name": "delegates",
      "outputs": [
        {
          "internalType": "address",
          "name": "",
          "type": "address"
        }
      ],
      "stateMutability": "view",
      "type": "function"
    },
    {
      "inputs": [],
      "name": "getChainId",
      "outputs": [
        {
          "internalType": "uint256",
          "name": "",
          "type": "uint256"
        }
      ],
      "stateMutability": "view",
      "type": "function"
    },
    {
      "inputs": [
        {
          "internalType": "uint256",
          "name": "blockNumber",
          "type": "uint256"
        }
      ],
      "name": "getPastTotalSupply",
      "outputs": [
        {
          "internalType": "uint256",
          "name": "",
          "type": "uint256"
        }
      ],
      "stateMutability": "view",
      "type": "function"
    },
    {
      "inputs": [
        {
          "internalType": "address",
          "name": "account",
          "type": "address"
        },
        {
          "internalType": "uint256",
          "name": "blockNumber",
          "type": "uint256"
        }
      ],
      "name": "getPastVotes",
      "outputs": [
        {
          "internalType": "uint256",
          "name": "",
          "type": "uint256"
        }
      ],
      "stateMutability": "view",
      "type": "function"
    },
    {
      "inputs": [],
      "name": "getTotalSupply",
      "outputs": [
        {
          "internalType": "uint256",
          "name": "",
          "type": "uint256"
        }
      ],
      "stateMutability": "view",
      "type": "function"
    },
    {
      "inputs": [
        {
          "internalType": "address",
          "name": "account",
          "type": "address"
        }
      ],
      "name": "getVotes",
      "outputs": [
        {
          "internalType": "uint256",
          "name": "",
          "type": "uint256"
        }
      ],
      "stateMutability": "view",
      "type": "function"
    },
    {
      "inputs": [
        {
          "internalType": "address",
          "name": "account",
          "type": "address"
        },
        {
          "internalType": "uint256",
          "name": "voteId",
          "type": "uint256"
        }
      ],
      "name": "mint",
      "outputs": [],
      "stateMutability": "nonpayable",
      "type": "function"
    },
    {
      "inputs": [
        {
          "internalType": "address",
          "name": "owner",
          "type": "address"
        }
      ],
      "name": "nonces",
      "outputs": [
        {
          "internalType": "uint256",
          "name": "",
          "type": "uint256"
        }
      ],
      "stateMutability": "view",
      "type": "function"
    }
  ],
  "bytecode": "0x6101406040523480156200001257600080fd5b506040516200293538038062002935833981810160405281019062000038919062000301565b806040518060400160405280600181526020017f310000000000000000000000000000000000000000000000000000000000000081525060008280519060200120905060008280519060200120905060007f8b73c3c69bb8fe3d512ecc4cf759cc79239f7b179b0ffacaa9a75d522b39400f90508260e081815250508161010081815250504660a08181525050620000d88184846200012860201b60201c565b608081815250503073ffffffffffffffffffffffffffffffffffffffff1660c08173ffffffffffffffffffffffffffffffffffffffff16815250508061012081815250505050505050506200042a565b6000838383463060405160200162000145959493929190620003cd565b6040516020818303038152906040528051906020012090509392505050565b6000604051905090565b600080fd5b600080fd5b600080fd5b600080fd5b6000601f19601f8301169050919050565b7f4e487b7100000000000000000000000000000000000000000000000000000000600052604160045260246000fd5b620001cd8262000182565b810181811067ffffffffffffffff82111715620001ef57620001ee62000193565b5b80604052505050565b60006200020462000164565b9050620002128282620001c2565b919050565b600067ffffffffffffffff82111562000235576200023462000193565b5b620002408262000182565b9050602081019050919050565b60005b838110156200026d57808201518184015260208101905062000250565b838111156200027d576000848401525b50505050565b60006200029a620002948462000217565b620001f8565b905082815260208101848484011115620002b957620002b86200017d565b5b620002c68482856200024d565b509392505050565b600082601f830112620002e657620002e562000178565b5b8151620002f884826020860162000283565b91505092915050565b6000602082840312156200031a57620003196200016e565b5b600082015167ffffffffffffffff8111156200033b576200033a62000173565b5b6200034984828501620002ce565b91505092915050565b6000819050919050565b620003678162000352565b82525050565b6000819050919050565b62000382816200036d565b82525050565b600073ffffffffffffffffffffffffffffffffffffffff82169050919050565b6000620003b58262000388565b9050919050565b620003c781620003a8565b82525050565b600060a082019050620003e460008301886200035c565b620003f360208301876200035c565b6200040260408301866200035c565b62000411606083018562000377565b620004206080830184620003bc565b9695505050505050565b60805160a05160c05160e05161010051610120516124bb6200047a60003960006107e401526000610826015260006108050152600061073a01526000610790015260006107b901526124bb6000f3fe608060405234801561001057600080fd5b50600436106100cf5760003560e01c80635c19a95c1161008c5780638e539e8c116100665780638e539e8c146102105780639ab24eb014610240578063c3cda52014610270578063c4e41b221461028c576100cf565b80635c19a95c146101a85780637ecebe00146101c45780638ab65686146101f4576100cf565b80633408e470146100d45780633644e515146100f25780633a46b1a81461011057806340c10f191461014057806342966c681461015c578063587cde1e14610178575b600080fd5b6100dc6102aa565b6040516100e991906119ea565b60405180910390f35b6100fa6102b2565b6040516101079190611a1e565b60405180910390f35b61012a60048036038101906101259190611ac8565b6102c1565b60405161013791906119ea565b60405180910390f35b61015a60048036038101906101559190611ac8565b61031c565b005b61017660048036038101906101719190611b08565b6103d6565b005b610192600480360381019061018d9190611b35565b610476565b60405161019f9190611b71565b60405180910390f35b6101c260048036038101906101bd9190611b35565b6104de565b005b6101de60048036038101906101d99190611b35565b6104f8565b6040516101eb91906119ea565b60405180910390f35b61020e60048036038101906102099190611b8c565b610548565b005b61022a60048036038101906102259190611b08565b610556565b60405161023791906119ea565b60405180910390f35b61025a60048036038101906102559190611b35565b6105b5565b60405161026791906119ea565b60405180910390f35b61028a60048036038101906102859190611c31565b610623565b005b610294610727565b6040516102a191906119ea565b60405180910390f35b600046905090565b60006102bc610736565b905090565b600061031482600160008673ffffffffffffffffffffffffffffffffffffffff1673ffffffffffffffffffffffffffffffffffffffff16815260200190815260200160002061085090919063ffffffff16565b905092915050565b6001600460008473ffffffffffffffffffffffffffffffffffffffff1673ffffffffffffffffffffffffffffffffffffffff168152602001908152602001600020600082825461036c9190611ced565b92505081905550816005600083815260200190815260200160002060006101000a81548173ffffffffffffffffffffffffffffffffffffffff021916908373ffffffffffffffffffffffffffffffffffffffff1602179055506103d260008360016109b5565b5050565b60006005600083815260200190815260200160002060009054906101000a900473ffffffffffffffffffffffffffffffffffffffff1690506001600460008373ffffffffffffffffffffffffffffffffffffffff1673ffffffffffffffffffffffffffffffffffffffff168152602001908152602001600020600082825461045e9190611d43565b9250508190555061047281600060016109b5565b5050565b60008060008373ffffffffffffffffffffffffffffffffffffffff1673ffffffffffffffffffffffffffffffffffffffff16815260200190815260200160002060009054906101000a900473ffffffffffffffffffffffffffffffffffffffff169050919050565b60006104e8610a75565b90506104f48183610a7d565b5050565b6000610541600360008473ffffffffffffffffffffffffffffffffffffffff1673ffffffffffffffffffffffffffffffffffffffff168152602001908152602001600020610b90565b9050919050565b6105528282610a7d565b5050565b600043821061059a576040517f08c379a000000000000000000000000000000000000000000000000000000000815260040161059190611dd4565b60405180910390fd5b6105ae82600261085090919063ffffffff16565b9050919050565b60006105fe600160008473ffffffffffffffffffffffffffffffffffffffff1673ffffffffffffffffffffffffffffffffffffffff168152602001908152602001600020610b9e565b7bffffffffffffffffffffffffffffffffffffffffffffffffffffffff169050919050565b83421115610666576040517f08c379a000000000000000000000000000000000000000000000000000000000815260040161065d90611e40565b60405180910390fd5b60006106c86106c07fe48329057bfd03d55e49b547132e39cffd9c1820ad7b9d4c5307691425d15adf8989896040516020016106a59493929190611e60565b60405160208183030381529060405280519060200120610c08565b858585610c22565b90506106d381610c4d565b8614610714576040517f08c379a000000000000000000000000000000000000000000000000000000000815260040161070b90611ef1565b60405180910390fd5b61071e8188610a7d565b50505050505050565b6000610731610cab565b905090565b60007f000000000000000000000000000000000000000000000000000000000000000073ffffffffffffffffffffffffffffffffffffffff163073ffffffffffffffffffffffffffffffffffffffff161480156107b257507f000000000000000000000000000000000000000000000000000000000000000046145b156107df577f0000000000000000000000000000000000000000000000000000000000000000905061084d565b61084a7f00000000000000000000000000000000000000000000000000000000000000007f00000000000000000000000000000000000000000000000000000000000000007f0000000000000000000000000000000000000000000000000000000000000000610cda565b90505b90565b6000438210610894576040517f08c379a000000000000000000000000000000000000000000000000000000000815260040161088b90611f5d565b60405180910390fd5b600061089f83610d14565b905060008460000180549050905060008082905060058311156109225760006108c784610d67565b846108d29190611d43565b90506108e18860000182610e61565b60000160009054906101000a900463ffffffff1663ffffffff168563ffffffff16101561091057809150610920565b60018161091d9190611ced565b92505b505b600061093388600001868585610e76565b90506000811461098757610956886000016001836109519190611d43565b610e61565b60000160049054906101000a90047bffffffffffffffffffffffffffffffffffffffffffffffffffffffff1661098a565b60005b7bffffffffffffffffffffffffffffffffffffffffffffffffffffffff169550505050505092915050565b600073ffffffffffffffffffffffffffffffffffffffff168373ffffffffffffffffffffffffffffffffffffffff161415610a0557610a02610ee9826002610eff9092919063ffffffff16565b50505b600073ffffffffffffffffffffffffffffffffffffffff168273ffffffffffffffffffffffffffffffffffffffff161415610a5557610a52610f4b826002610eff9092919063ffffffff16565b50505b610a70610a6184610476565b610a6a84610476565b83610f61565b505050565b600033905090565b6000610a8883610476565b9050816000808573ffffffffffffffffffffffffffffffffffffffff1673ffffffffffffffffffffffffffffffffffffffff16815260200190815260200160002060006101000a81548173ffffffffffffffffffffffffffffffffffffffff021916908373ffffffffffffffffffffffffffffffffffffffff1602179055508173ffffffffffffffffffffffffffffffffffffffff168173ffffffffffffffffffffffffffffffffffffffff168473ffffffffffffffffffffffffffffffffffffffff167f3134e8a2e6d97e929a7e54011ea5485d7d196dd5f0ba4d4ef95803e8e3fc257f60405160405180910390a4610b8b8183610b868661116e565b610f61565b505050565b600081600001549050919050565b6000808260000180549050905060008114610bfd57610bcc83600001600183610bc79190611d43565b610e61565b60000160049054906101000a90047bffffffffffffffffffffffffffffffffffffffffffffffffffffffff16610c00565b60005b915050919050565b6000610c1b610c15610736565b836111b7565b9050919050565b6000806000610c33878787876111ea565b91509150610c40816112cd565b8192505050949350505050565b600080600360008473ffffffffffffffffffffffffffffffffffffffff1673ffffffffffffffffffffffffffffffffffffffff1681526020019081526020016000209050610c9a81610b90565b9150610ca58161143b565b50919050565b6000610cb76002610b9e565b7bffffffffffffffffffffffffffffffffffffffffffffffffffffffff16905090565b60008383834630604051602001610cf5959493929190611f7d565b6040516020818303038152906040528051906020012090509392505050565b600063ffffffff8016821115610d5f576040517f08c379a0000000000000000000000000000000000000000000000000000000008152600401610d5690612042565b60405180910390fd5b819050919050565b600080821415610d7a5760009050610e5c565b60006001610d8784611451565b901c6001901b90506001818481610da157610da0612062565b5b048201901c90506001818481610dba57610db9612062565b5b048201901c90506001818481610dd357610dd2612062565b5b048201901c90506001818481610dec57610deb612062565b5b048201901c90506001818481610e0557610e04612062565b5b048201901c90506001818481610e1e57610e1d612062565b5b048201901c90506001818481610e3757610e36612062565b5b048201901c9050610e5881828581610e5257610e51612062565b5b04611532565b9150505b919050565b60008260005281602060002001905092915050565b60005b81831015610ede576000610e8d848461154b565b90508463ffffffff16610ea08783610e61565b60000160009054906101000a900463ffffffff1663ffffffff161115610ec857809250610ed8565b600181610ed59190611ced565b93505b50610e79565b819050949350505050565b60008183610ef79190611ced565b905092915050565b600080610f3f85610f3a610f1288610b9e565b7bffffffffffffffffffffffffffffffffffffffffffffffffffffffff16868863ffffffff16565b611571565b91509150935093915050565b60008183610f599190611d43565b905092915050565b8173ffffffffffffffffffffffffffffffffffffffff168373ffffffffffffffffffffffffffffffffffffffff1614158015610f9d5750600081115b1561116957600073ffffffffffffffffffffffffffffffffffffffff168373ffffffffffffffffffffffffffffffffffffffff16146110855760008061102e610f4b84600160008973ffffffffffffffffffffffffffffffffffffffff1673ffffffffffffffffffffffffffffffffffffffff168152602001908152602001600020610eff9092919063ffffffff16565b915091508473ffffffffffffffffffffffffffffffffffffffff167fdec2bacdd2f05b59de34da9b523dff8be42e5e38e818c82fdb0bae774387a724838360405161107a929190612091565b60405180910390a250505b600073ffffffffffffffffffffffffffffffffffffffff168273ffffffffffffffffffffffffffffffffffffffff161461116857600080611111610ee984600160008873ffffffffffffffffffffffffffffffffffffffff1673ffffffffffffffffffffffffffffffffffffffff168152602001908152602001600020610eff9092919063ffffffff16565b915091508373ffffffffffffffffffffffffffffffffffffffff167fdec2bacdd2f05b59de34da9b523dff8be42e5e38e818c82fdb0bae774387a724838360405161115d929190612091565b60405180910390a250505b5b505050565b6000600460008373ffffffffffffffffffffffffffffffffffffffff1673ffffffffffffffffffffffffffffffffffffffff168152602001908152602001600020549050919050565b600082826040516020016111cc929190612132565b60405160208183030381529060405280519060200120905092915050565b6000807f7fffffffffffffffffffffffffffffff5d576e7357a4501ddfe92f46681b20a08360001c11156112255760006003915091506112c4565b60006001878787876040516000815260200160405260405161124a9493929190612178565b6020604051602081039080840390855afa15801561126c573d6000803e3d6000fd5b505050602060405103519050600073ffffffffffffffffffffffffffffffffffffffff168173ffffffffffffffffffffffffffffffffffffffff1614156112bb576000600192509250506112c4565b80600092509250505b94509492505050565b600060048111156112e1576112e06121bd565b5b8160048111156112f4576112f36121bd565b5b14156112ff57611438565b60016004811115611313576113126121bd565b5b816004811115611326576113256121bd565b5b1415611367576040517f08c379a000000000000000000000000000000000000000000000000000000000815260040161135e90612238565b60405180910390fd5b6002600481111561137b5761137a6121bd565b5b81600481111561138e5761138d6121bd565b5b14156113cf576040517f08c379a00000000000000000000000000000000000000000000000000000000081526004016113c6906122a4565b60405180910390fd5b600360048111156113e3576113e26121bd565b5b8160048111156113f6576113f56121bd565b5b1415611437576040517f08c379a000000000000000000000000000000000000000000000000000000000815260040161142e90612336565b60405180910390fd5b5b50565b6001816000016000828254019250508190555050565b600080600090506000608084901c111561147357608083901c92506080810190505b6000604084901c111561148e57604083901c92506040810190505b6000602084901c11156114a957602083901c92506020810190505b6000601084901c11156114c457601083901c92506010810190505b6000600884901c11156114df57600883901c92506008810190505b6000600484901c11156114fa57600483901c92506004810190505b6000600284901c111561151557600283901c92506002810190505b6000600184901c1115611529576001810190505b80915050919050565b60008183106115415781611543565b825b905092915050565b6000600282841861155c9190612356565b8284166115699190611ced565b905092915050565b6000806115928460000161158443610d14565b61158d866115df565b61164a565b817bffffffffffffffffffffffffffffffffffffffffffffffffffffffff169150807bffffffffffffffffffffffffffffffffffffffffffffffffffffffff169050915091509250929050565b60007bffffffffffffffffffffffffffffffffffffffffffffffffffffffff8016821115611642576040517f08c379a0000000000000000000000000000000000000000000000000000000008152600401611639906123f9565b60405180910390fd5b819050919050565b60008060008580549050905060008111156118e1576000611677876001846116729190611d43565b610e61565b6040518060400160405290816000820160009054906101000a900463ffffffff1663ffffffff1663ffffffff1681526020016000820160049054906101000a90047bffffffffffffffffffffffffffffffffffffffffffffffffffffffff167bffffffffffffffffffffffffffffffffffffffffffffffffffffffff167bffffffffffffffffffffffffffffffffffffffffffffffffffffffff168152505090508563ffffffff16816000015163ffffffff16111561176b576040517f08c379a000000000000000000000000000000000000000000000000000000000815260040161176290612465565b60405180910390fd5b8563ffffffff16816000015163ffffffff1614156117f0578461179a886001856117959190611d43565b610e61565b60000160046101000a8154817bffffffffffffffffffffffffffffffffffffffffffffffffffffffff02191690837bffffffffffffffffffffffffffffffffffffffffffffffffffffffff1602179055506118d0565b8660405180604001604052808863ffffffff168152602001877bffffffffffffffffffffffffffffffffffffffffffffffffffffffff168152509080600181540180825580915050600190039060005260206000200160009091909190915060008201518160000160006101000a81548163ffffffff021916908363ffffffff16021790555060208201518160000160046101000a8154817bffffffffffffffffffffffffffffffffffffffffffffffffffffffff02191690837bffffffffffffffffffffffffffffffffffffffffffffffffffffffff16021790555050505b8060200151859350935050506119c9565b8560405180604001604052808763ffffffff168152602001867bffffffffffffffffffffffffffffffffffffffffffffffffffffffff168152509080600181540180825580915050600190039060005260206000200160009091909190915060008201518160000160006101000a81548163ffffffff021916908363ffffffff16021790555060208201518160000160046101000a8154817bffffffffffffffffffffffffffffffffffffffffffffffffffffffff02191690837bffffffffffffffffffffffffffffffffffffffffffffffffffffffff160217905550505060008492509250505b935093915050565b6000819050919050565b6119e4816119d1565b82525050565b60006020820190506119ff60008301846119db565b92915050565b6000819050919050565b611a1881611a05565b82525050565b6000602082019050611a336000830184611a0f565b92915050565b600080fd5b600073ffffffffffffffffffffffffffffffffffffffff82169050919050565b6000611a6982611a3e565b9050919050565b611a7981611a5e565b8114611a8457600080fd5b50565b600081359050611a9681611a70565b92915050565b611aa5816119d1565b8114611ab057600080fd5b50565b600081359050611ac281611a9c565b92915050565b60008060408385031215611adf57611ade611a39565b5b6000611aed85828601611a87565b9250506020611afe85828601611ab3565b9150509250929050565b600060208284031215611b1e57611b1d611a39565b5b6000611b2c84828501611ab3565b91505092915050565b600060208284031215611b4b57611b4a611a39565b5b6000611b5984828501611a87565b91505092915050565b611b6b81611a5e565b82525050565b6000602082019050611b866000830184611b62565b92915050565b60008060408385031215611ba357611ba2611a39565b5b6000611bb185828601611a87565b9250506020611bc285828601611a87565b9150509250929050565b600060ff82169050919050565b611be281611bcc565b8114611bed57600080fd5b50565b600081359050611bff81611bd9565b92915050565b611c0e81611a05565b8114611c1957600080fd5b50565b600081359050611c2b81611c05565b92915050565b60008060008060008060c08789031215611c4e57611c4d611a39565b5b6000611c5c89828a01611a87565b9650506020611c6d89828a01611ab3565b9550506040611c7e89828a01611ab3565b9450506060611c8f89828a01611bf0565b9350506080611ca089828a01611c1c565b92505060a0611cb189828a01611c1c565b9150509295509295509295565b7f4e487b7100000000000000000000000000000000000000000000000000000000600052601160045260246000fd5b6000611cf8826119d1565b9150611d03836119d1565b9250827fffffffffffffffffffffffffffffffffffffffffffffffffffffffffffffffff03821115611d3857611d37611cbe565b5b828201905092915050565b6000611d4e826119d1565b9150611d59836119d1565b925082821015611d6c57611d6b611cbe565b5b828203905092915050565b600082825260208201905092915050565b7f566f7465733a20626c6f636b206e6f7420796574206d696e6564000000000000600082015250565b6000611dbe601a83611d77565b9150611dc982611d88565b602082019050919050565b60006020820190508181036000830152611ded81611db1565b9050919050565b7f566f7465733a207369676e617475726520657870697265640000000000000000600082015250565b6000611e2a601883611d77565b9150611e3582611df4565b602082019050919050565b60006020820190508181036000830152611e5981611e1d565b9050919050565b6000608082019050611e756000830187611a0f565b611e826020830186611b62565b611e8f60408301856119db565b611e9c60608301846119db565b95945050505050565b7f566f7465733a20696e76616c6964206e6f6e6365000000000000000000000000600082015250565b6000611edb601483611d77565b9150611ee682611ea5565b602082019050919050565b60006020820190508181036000830152611f0a81611ece565b9050919050565b7f436865636b706f696e74733a20626c6f636b206e6f7420796574206d696e6564600082015250565b6000611f47602083611d77565b9150611f5282611f11565b602082019050919050565b60006020820190508181036000830152611f7681611f3a565b9050919050565b600060a082019050611f926000830188611a0f565b611f9f6020830187611a0f565b611fac6040830186611a0f565b611fb960608301856119db565b611fc66080830184611b62565b9695505050505050565b7f53616665436173743a2076616c756520646f65736e27742066697420696e203360008201527f3220626974730000000000000000000000000000000000000000000000000000602082015250565b600061202c602683611d77565b915061203782611fd0565b604082019050919050565b6000602082019050818103600083015261205b8161201f565b9050919050565b7f4e487b7100000000000000000000000000000000000000000000000000000000600052601260045260246000fd5b60006040820190506120a660008301856119db565b6120b360208301846119db565b9392505050565b600081905092915050565b7f1901000000000000000000000000000000000000000000000000000000000000600082015250565b60006120fb6002836120ba565b9150612106826120c5565b600282019050919050565b6000819050919050565b61212c61212782611a05565b612111565b82525050565b600061213d826120ee565b9150612149828561211b565b602082019150612159828461211b565b6020820191508190509392505050565b61217281611bcc565b82525050565b600060808201905061218d6000830187611a0f565b61219a6020830186612169565b6121a76040830185611a0f565b6121b46060830184611a0f565b95945050505050565b7f4e487b7100000000000000000000000000000000000000000000000000000000600052602160045260246000fd5b7f45434453413a20696e76616c6964207369676e61747572650000000000000000600082015250565b6000612222601883611d77565b915061222d826121ec565b602082019050919050565b6000602082019050818103600083015261225181612215565b9050919050565b7f45434453413a20696e76616c6964207369676e6174757265206c656e67746800600082015250565b600061228e601f83611d77565b915061229982612258565b602082019050919050565b600060208201905081810360008301526122bd81612281565b9050919050565b7f45434453413a20696e76616c6964207369676e6174757265202773272076616c60008201527f7565000000000000000000000000000000000000000000000000000000000000602082015250565b6000612320602283611d77565b915061232b826122c4565b604082019050919050565b6000602082019050818103600083015261234f81612313565b9050919050565b6000612361826119d1565b915061236c836119d1565b92508261237c5761237b612062565b5b828204905092915050565b7f53616665436173743a2076616c756520646f65736e27742066697420696e203260008201527f3234206269747300000000000000000000000000000000000000000000000000602082015250565b60006123e3602783611d77565b91506123ee82612387565b604082019050919050565b60006020820190508181036000830152612412816123d6565b9050919050565b7f436865636b706f696e743a20696e76616c6964206b6579000000000000000000600082015250565b600061244f601783611d77565b915061245a82612419565b602082019050919050565b6000602082019050818103600083015261247e81612442565b905091905056fea264697066735822122094412fed07fba9ae22c6a701b55d45171e451e6be59a1609634a3ea5bcdca58e64736f6c63430008090033",
  "linkReferences": {},
  "deployedLinkReferences": {}
}