{
  "_format": "hh-sol-artifact-1",
  "contractName": "MyGovernor",
  "sourceName": "contracts/openzeppelin/mocks/wizard/MyGovernor3.sol",
  "abi": [
    {
      "inputs": [
        {
          "internalType": "contract IVotes",
          "name": "_token",
          "type": "address"
        },
        {
          "internalType": "contract TimelockController",
          "name": "_timelock",
          "type": "address"
        }
      ],
      "stateMutability": "nonpayable",
      "type": "constructor"
    },
    {
      "inputs": [],
      "name": "Empty",
      "type": "error"
    },
    {
      "anonymous": false,
      "inputs": [
        {
          "indexed": false,
          "internalType": "uint256",
          "name": "proposalId",
          "type": "uint256"
        }
      ],
      "name": "ProposalCanceled",
      "type": "event"
    },
    {
      "anonymous": false,
      "inputs": [
        {
          "indexed": false,
          "internalType": "uint256",
          "name": "proposalId",
          "type": "uint256"
        },
        {
          "indexed": false,
          "internalType": "address",
          "name": "proposer",
          "type": "address"
        },
        {
          "indexed": false,
          "internalType": "address[]",
          "name": "targets",
          "type": "address[]"
        },
        {
          "indexed": false,
          "internalType": "uint256[]",
          "name": "values",
          "type": "uint256[]"
        },
        {
          "indexed": false,
          "internalType": "string[]",
          "name": "signatures",
          "type": "string[]"
        },
        {
          "indexed": false,
          "internalType": "bytes[]",
          "name": "calldatas",
          "type": "bytes[]"
        },
        {
          "indexed": false,
          "internalType": "uint256",
          "name": "startBlock",
          "type": "uint256"
        },
        {
          "indexed": false,
          "internalType": "uint256",
          "name": "endBlock",
          "type": "uint256"
        },
        {
          "indexed": false,
          "internalType": "string",
          "name": "description",
          "type": "string"
        }
      ],
      "name": "ProposalCreated",
      "type": "event"
    },
    {
      "anonymous": false,
      "inputs": [
        {
          "indexed": false,
          "internalType": "uint256",
          "name": "proposalId",
          "type": "uint256"
        }
      ],
      "name": "ProposalExecuted",
      "type": "event"
    },
    {
      "anonymous": false,
      "inputs": [
        {
          "indexed": false,
          "internalType": "uint256",
          "name": "proposalId",
          "type": "uint256"
        },
        {
          "indexed": false,
          "internalType": "uint256",
          "name": "eta",
          "type": "uint256"
        }
      ],
      "name": "ProposalQueued",
      "type": "event"
    },
    {
      "anonymous": false,
      "inputs": [
        {
          "indexed": false,
          "internalType": "uint256",
          "name": "oldQuorumNumerator",
          "type": "uint256"
        },
        {
          "indexed": false,
          "internalType": "uint256",
          "name": "newQuorumNumerator",
          "type": "uint256"
        }
      ],
      "name": "QuorumNumeratorUpdated",
      "type": "event"
    },
    {
      "anonymous": false,
      "inputs": [
        {
          "indexed": false,
          "internalType": "address",
          "name": "oldTimelock",
          "type": "address"
        },
        {
          "indexed": false,
          "internalType": "address",
          "name": "newTimelock",
          "type": "address"
        }
      ],
      "name": "TimelockChange",
      "type": "event"
    },
    {
      "anonymous": false,
      "inputs": [
        {
          "indexed": true,
          "internalType": "address",
          "name": "voter",
          "type": "address"
        },
        {
          "indexed": false,
          "internalType": "uint256",
          "name": "proposalId",
          "type": "uint256"
        },
        {
          "indexed": false,
          "internalType": "uint8",
          "name": "support",
          "type": "uint8"
        },
        {
          "indexed": false,
          "internalType": "uint256",
          "name": "weight",
          "type": "uint256"
        },
        {
          "indexed": false,
          "internalType": "string",
          "name": "reason",
          "type": "string"
        }
      ],
      "name": "VoteCast",
      "type": "event"
    },
    {
      "anonymous": false,
      "inputs": [
        {
          "indexed": true,
          "internalType": "address",
          "name": "voter",
          "type": "address"
        },
        {
          "indexed": false,
          "internalType": "uint256",
          "name": "proposalId",
          "type": "uint256"
        },
        {
          "indexed": false,
          "internalType": "uint8",
          "name": "support",
          "type": "uint8"
        },
        {
          "indexed": false,
          "internalType": "uint256",
          "name": "weight",
          "type": "uint256"
        },
        {
          "indexed": false,
          "internalType": "string",
          "name": "reason",
          "type": "string"
        },
        {
          "indexed": false,
          "internalType": "bytes",
          "name": "params",
          "type": "bytes"
        }
      ],
      "name": "VoteCastWithParams",
      "type": "event"
    },
    {
      "inputs": [],
      "name": "BALLOT_TYPEHASH",
      "outputs": [
        {
          "internalType": "bytes32",
          "name": "",
          "type": "bytes32"
        }
      ],
      "stateMutability": "view",
      "type": "function"
    },
    {
      "inputs": [],
      "name": "COUNTING_MODE",
      "outputs": [
        {
          "internalType": "string",
          "name": "",
          "type": "string"
        }
      ],
      "stateMutability": "pure",
      "type": "function"
    },
    {
      "inputs": [],
      "name": "EXTENDED_BALLOT_TYPEHASH",
      "outputs": [
        {
          "internalType": "bytes32",
          "name": "",
          "type": "bytes32"
        }
      ],
      "stateMutability": "view",
      "type": "function"
    },
    {
      "inputs": [
        {
          "internalType": "uint256",
          "name": "proposalId",
          "type": "uint256"
        }
      ],
      "name": "cancel",
      "outputs": [],
      "stateMutability": "nonpayable",
      "type": "function"
    },
    {
      "inputs": [
        {
          "internalType": "uint256",
          "name": "proposalId",
          "type": "uint256"
        },
        {
          "internalType": "uint8",
          "name": "support",
          "type": "uint8"
        }
      ],
      "name": "castVote",
      "outputs": [
        {
          "internalType": "uint256",
          "name": "",
          "type": "uint256"
        }
      ],
      "stateMutability": "nonpayable",
      "type": "function"
    },
    {
      "inputs": [
        {
          "internalType": "uint256",
          "name": "proposalId",
          "type": "uint256"
        },
        {
          "internalType": "uint8",
          "name": "support",
          "type": "uint8"
        },
        {
          "internalType": "uint8",
          "name": "v",
          "type": "uint8"
        },
        {
          "internalType": "bytes32",
          "name": "r",
          "type": "bytes32"
        },
        {
          "internalType": "bytes32",
          "name": "s",
          "type": "bytes32"
        }
      ],
      "name": "castVoteBySig",
      "outputs": [
        {
          "internalType": "uint256",
          "name": "",
          "type": "uint256"
        }
      ],
      "stateMutability": "nonpayable",
      "type": "function"
    },
    {
      "inputs": [
        {
          "internalType": "uint256",
          "name": "proposalId",
          "type": "uint256"
        },
        {
          "internalType": "uint8",
          "name": "support",
          "type": "uint8"
        },
        {
          "internalType": "string",
          "name": "reason",
          "type": "string"
        }
      ],
      "name": "castVoteWithReason",
      "outputs": [
        {
          "internalType": "uint256",
          "name": "",
          "type": "uint256"
        }
      ],
      "stateMutability": "nonpayable",
      "type": "function"
    },
    {
      "inputs": [
        {
          "internalType": "uint256",
          "name": "proposalId",
          "type": "uint256"
        },
        {
          "internalType": "uint8",
          "name": "support",
          "type": "uint8"
        },
        {
          "internalType": "string",
          "name": "reason",
          "type": "string"
        },
        {
          "internalType": "bytes",
          "name": "params",
          "type": "bytes"
        }
      ],
      "name": "castVoteWithReasonAndParams",
      "outputs": [
        {
          "internalType": "uint256",
          "name": "",
          "type": "uint256"
        }
      ],
      "stateMutability": "nonpayable",
      "type": "function"
    },
    {
      "inputs": [
        {
          "internalType": "uint256",
          "name": "proposalId",
          "type": "uint256"
        },
        {
          "internalType": "uint8",
          "name": "support",
          "type": "uint8"
        },
        {
          "internalType": "string",
          "name": "reason",
          "type": "string"
        },
        {
          "internalType": "bytes",
          "name": "params",
          "type": "bytes"
        },
        {
          "internalType": "uint8",
          "name": "v",
          "type": "uint8"
        },
        {
          "internalType": "bytes32",
          "name": "r",
          "type": "bytes32"
        },
        {
          "internalType": "bytes32",
          "name": "s",
          "type": "bytes32"
        }
      ],
      "name": "castVoteWithReasonAndParamsBySig",
      "outputs": [
        {
          "internalType": "uint256",
          "name": "",
          "type": "uint256"
        }
      ],
      "stateMutability": "nonpayable",
      "type": "function"
    },
    {
      "inputs": [
        {
          "internalType": "address[]",
          "name": "targets",
          "type": "address[]"
        },
        {
          "internalType": "uint256[]",
          "name": "values",
          "type": "uint256[]"
        },
        {
          "internalType": "bytes[]",
          "name": "calldatas",
          "type": "bytes[]"
        },
        {
          "internalType": "bytes32",
          "name": "descriptionHash",
          "type": "bytes32"
        }
      ],
      "name": "execute",
      "outputs": [
        {
          "internalType": "uint256",
          "name": "",
          "type": "uint256"
        }
      ],
      "stateMutability": "payable",
      "type": "function"
    },
    {
      "inputs": [
        {
          "internalType": "uint256",
          "name": "proposalId",
          "type": "uint256"
        }
      ],
      "name": "execute",
      "outputs": [],
      "stateMutability": "payable",
      "type": "function"
    },
    {
      "inputs": [
        {
          "internalType": "uint256",
          "name": "proposalId",
          "type": "uint256"
        }
      ],
      "name": "getActions",
      "outputs": [
        {
          "internalType": "address[]",
          "name": "targets",
          "type": "address[]"
        },
        {
          "internalType": "uint256[]",
          "name": "values",
          "type": "uint256[]"
        },
        {
          "internalType": "string[]",
          "name": "signatures",
          "type": "string[]"
        },
        {
          "internalType": "bytes[]",
          "name": "calldatas",
          "type": "bytes[]"
        }
      ],
      "stateMutability": "view",
      "type": "function"
    },
    {
      "inputs": [
        {
          "internalType": "uint256",
          "name": "proposalId",
          "type": "uint256"
        },
        {
          "internalType": "address",
          "name": "voter",
          "type": "address"
        }
      ],
      "name": "getReceipt",
      "outputs": [
        {
          "components": [
            {
              "internalType": "bool",
              "name": "hasVoted",
              "type": "bool"
            },
            {
              "internalType": "uint8",
              "name": "support",
              "type": "uint8"
            },
            {
              "internalType": "uint96",
              "name": "votes",
              "type": "uint96"
            }
          ],
          "internalType": "struct IGovernorCompatibilityBravo.Receipt",
          "name": "",
          "type": "tuple"
        }
      ],
      "stateMutability": "view",
      "type": "function"
    },
    {
      "inputs": [
        {
          "internalType": "address",
          "name": "account",
          "type": "address"
        },
        {
          "internalType": "uint256",
          "name": "blockNumber",
          "type": "uint256"
        }
      ],
      "name": "getVotes",
      "outputs": [
        {
          "internalType": "uint256",
          "name": "",
          "type": "uint256"
        }
      ],
      "stateMutability": "view",
      "type": "function"
    },
    {
      "inputs": [
        {
          "internalType": "address",
          "name": "account",
          "type": "address"
        },
        {
          "internalType": "uint256",
          "name": "blockNumber",
          "type": "uint256"
        },
        {
          "internalType": "bytes",
          "name": "params",
          "type": "bytes"
        }
      ],
      "name": "getVotesWithParams",
      "outputs": [
        {
          "internalType": "uint256",
          "name": "",
          "type": "uint256"
        }
      ],
      "stateMutability": "view",
      "type": "function"
    },
    {
      "inputs": [
        {
          "internalType": "uint256",
          "name": "proposalId",
          "type": "uint256"
        },
        {
          "internalType": "address",
          "name": "account",
          "type": "address"
        }
      ],
      "name": "hasVoted",
      "outputs": [
        {
          "internalType": "bool",
          "name": "",
          "type": "bool"
        }
      ],
      "stateMutability": "view",
      "type": "function"
    },
    {
      "inputs": [
        {
          "internalType": "address[]",
          "name": "targets",
          "type": "address[]"
        },
        {
          "internalType": "uint256[]",
          "name": "values",
          "type": "uint256[]"
        },
        {
          "internalType": "bytes[]",
          "name": "calldatas",
          "type": "bytes[]"
        },
        {
          "internalType": "bytes32",
          "name": "descriptionHash",
          "type": "bytes32"
        }
      ],
      "name": "hashProposal",
      "outputs": [
        {
          "internalType": "uint256",
          "name": "",
          "type": "uint256"
        }
      ],
      "stateMutability": "pure",
      "type": "function"
    },
    {
      "inputs": [],
      "name": "name",
      "outputs": [
        {
          "internalType": "string",
          "name": "",
          "type": "string"
        }
      ],
      "stateMutability": "view",
      "type": "function"
    },
    {
      "inputs": [
        {
          "internalType": "address",
          "name": "",
          "type": "address"
        },
        {
          "internalType": "address",
          "name": "",
          "type": "address"
        },
        {
          "internalType": "uint256[]",
          "name": "",
          "type": "uint256[]"
        },
        {
          "internalType": "uint256[]",
          "name": "",
          "type": "uint256[]"
        },
        {
          "internalType": "bytes",
          "name": "",
          "type": "bytes"
        }
      ],
      "name": "onERC1155BatchReceived",
      "outputs": [
        {
          "internalType": "bytes4",
          "name": "",
          "type": "bytes4"
        }
      ],
      "stateMutability": "nonpayable",
      "type": "function"
    },
    {
      "inputs": [
        {
          "internalType": "address",
          "name": "",
          "type": "address"
        },
        {
          "internalType": "address",
          "name": "",
          "type": "address"
        },
        {
          "internalType": "uint256",
          "name": "",
          "type": "uint256"
        },
        {
          "internalType": "uint256",
          "name": "",
          "type": "uint256"
        },
        {
          "internalType": "bytes",
          "name": "",
          "type": "bytes"
        }
      ],
      "name": "onERC1155Received",
      "outputs": [
        {
          "internalType": "bytes4",
          "name": "",
          "type": "bytes4"
        }
      ],
      "stateMutability": "nonpayable",
      "type": "function"
    },
    {
      "inputs": [
        {
          "internalType": "address",
          "name": "",
          "type": "address"
        },
        {
          "internalType": "address",
          "name": "",
          "type": "address"
        },
        {
          "internalType": "uint256",
          "name": "",
          "type": "uint256"
        },
        {
          "internalType": "bytes",
          "name": "",
          "type": "bytes"
        }
      ],
      "name": "onERC721Received",
      "outputs": [
        {
          "internalType": "bytes4",
          "name": "",
          "type": "bytes4"
        }
      ],
      "stateMutability": "nonpayable",
      "type": "function"
    },
    {
      "inputs": [
        {
          "internalType": "uint256",
          "name": "proposalId",
          "type": "uint256"
        }
      ],
      "name": "proposalDeadline",
      "outputs": [
        {
          "internalType": "uint256",
          "name": "",
          "type": "uint256"
        }
      ],
      "stateMutability": "view",
      "type": "function"
    },
    {
      "inputs": [
        {
          "internalType": "uint256",
          "name": "proposalId",
          "type": "uint256"
        }
      ],
      "name": "proposalEta",
      "outputs": [
        {
          "internalType": "uint256",
          "name": "",
          "type": "uint256"
        }
      ],
      "stateMutability": "view",
      "type": "function"
    },
    {
      "inputs": [
        {
          "internalType": "uint256",
          "name": "proposalId",
          "type": "uint256"
        }
      ],
      "name": "proposalSnapshot",
      "outputs": [
        {
          "internalType": "uint256",
          "name": "",
          "type": "uint256"
        }
      ],
      "stateMutability": "view",
      "type": "function"
    },
    {
      "inputs": [],
      "name": "proposalThreshold",
      "outputs": [
        {
          "internalType": "uint256",
          "name": "",
          "type": "uint256"
        }
      ],
      "stateMutability": "pure",
      "type": "function"
    },
    {
      "inputs": [
        {
          "internalType": "uint256",
          "name": "proposalId",
          "type": "uint256"
        }
      ],
      "name": "proposals",
      "outputs": [
        {
          "internalType": "uint256",
          "name": "id",
          "type": "uint256"
        },
        {
          "internalType": "address",
          "name": "proposer",
          "type": "address"
        },
        {
          "internalType": "uint256",
          "name": "eta",
          "type": "uint256"
        },
        {
          "internalType": "uint256",
          "name": "startBlock",
          "type": "uint256"
        },
        {
          "internalType": "uint256",
          "name": "endBlock",
          "type": "uint256"
        },
        {
          "internalType": "uint256",
          "name": "forVotes",
          "type": "uint256"
        },
        {
          "internalType": "uint256",
          "name": "againstVotes",
          "type": "uint256"
        },
        {
          "internalType": "uint256",
          "name": "abstainVotes",
          "type": "uint256"
        },
        {
          "internalType": "bool",
          "name": "canceled",
          "type": "bool"
        },
        {
          "internalType": "bool",
          "name": "executed",
          "type": "bool"
        }
      ],
      "stateMutability": "view",
      "type": "function"
    },
    {
      "inputs": [
        {
          "internalType": "address[]",
          "name": "targets",
          "type": "address[]"
        },
        {
          "internalType": "uint256[]",
          "name": "values",
          "type": "uint256[]"
        },
        {
          "internalType": "bytes[]",
          "name": "calldatas",
          "type": "bytes[]"
        },
        {
          "internalType": "string",
          "name": "description",
          "type": "string"
        }
      ],
      "name": "propose",
      "outputs": [
        {
          "internalType": "uint256",
          "name": "",
          "type": "uint256"
        }
      ],
      "stateMutability": "nonpayable",
      "type": "function"
    },
    {
      "inputs": [
        {
          "internalType": "address[]",
          "name": "targets",
          "type": "address[]"
        },
        {
          "internalType": "uint256[]",
          "name": "values",
          "type": "uint256[]"
        },
        {
          "internalType": "string[]",
          "name": "signatures",
          "type": "string[]"
        },
        {
          "internalType": "bytes[]",
          "name": "calldatas",
          "type": "bytes[]"
        },
        {
          "internalType": "string",
          "name": "description",
          "type": "string"
        }
      ],
      "name": "propose",
      "outputs": [
        {
          "internalType": "uint256",
          "name": "",
          "type": "uint256"
        }
      ],
      "stateMutability": "nonpayable",
      "type": "function"
    },
    {
      "inputs": [
        {
          "internalType": "address[]",
          "name": "targets",
          "type": "address[]"
        },
        {
          "internalType": "uint256[]",
          "name": "values",
          "type": "uint256[]"
        },
        {
          "internalType": "bytes[]",
          "name": "calldatas",
          "type": "bytes[]"
        },
        {
          "internalType": "bytes32",
          "name": "descriptionHash",
          "type": "bytes32"
        }
      ],
      "name": "queue",
      "outputs": [
        {
          "internalType": "uint256",
          "name": "",
          "type": "uint256"
        }
      ],
      "stateMutability": "nonpayable",
      "type": "function"
    },
    {
      "inputs": [
        {
          "internalType": "uint256",
          "name": "proposalId",
          "type": "uint256"
        }
      ],
      "name": "queue",
      "outputs": [],
      "stateMutability": "nonpayable",
      "type": "function"
    },
    {
      "inputs": [
        {
          "internalType": "uint256",
          "name": "blockNumber",
          "type": "uint256"
        }
      ],
      "name": "quorum",
      "outputs": [
        {
          "internalType": "uint256",
          "name": "",
          "type": "uint256"
        }
      ],
      "stateMutability": "view",
      "type": "function"
    },
    {
      "inputs": [],
      "name": "quorumDenominator",
      "outputs": [
        {
          "internalType": "uint256",
          "name": "",
          "type": "uint256"
        }
      ],
      "stateMutability": "view",
      "type": "function"
    },
    {
      "inputs": [
        {
          "internalType": "uint256",
          "name": "blockNumber",
          "type": "uint256"
        }
      ],
      "name": "quorumNumerator",
      "outputs": [
        {
          "internalType": "uint256",
          "name": "",
          "type": "uint256"
        }
      ],
      "stateMutability": "view",
      "type": "function"
    },
    {
      "inputs": [],
      "name": "quorumNumerator",
      "outputs": [
        {
          "internalType": "uint256",
          "name": "",
          "type": "uint256"
        }
      ],
      "stateMutability": "view",
      "type": "function"
    },
    {
      "inputs": [],
      "name": "quorumVotes",
      "outputs": [
        {
          "internalType": "uint256",
          "name": "",
          "type": "uint256"
        }
      ],
      "stateMutability": "view",
      "type": "function"
    },
    {
      "inputs": [
        {
          "internalType": "address",
          "name": "target",
          "type": "address"
        },
        {
          "internalType": "uint256",
          "name": "value",
          "type": "uint256"
        },
        {
          "internalType": "bytes",
          "name": "data",
          "type": "bytes"
        }
      ],
      "name": "relay",
      "outputs": [],
      "stateMutability": "payable",
      "type": "function"
    },
    {
      "inputs": [
        {
          "internalType": "uint256",
          "name": "proposalId",
          "type": "uint256"
        }
      ],
      "name": "state",
      "outputs": [
        {
          "internalType": "enum IGovernor.ProposalState",
          "name": "",
          "type": "uint8"
        }
      ],
      "stateMutability": "view",
      "type": "function"
    },
    {
      "inputs": [
        {
          "internalType": "bytes4",
          "name": "interfaceId",
          "type": "bytes4"
        }
      ],
      "name": "supportsInterface",
      "outputs": [
        {
          "internalType": "bool",
          "name": "",
          "type": "bool"
        }
      ],
      "stateMutability": "view",
      "type": "function"
    },
    {
      "inputs": [],
      "name": "timelock",
      "outputs": [
        {
          "internalType": "address",
          "name": "",
          "type": "address"
        }
      ],
      "stateMutability": "view",
      "type": "function"
    },
    {
      "inputs": [],
      "name": "token",
      "outputs": [
        {
          "internalType": "contract IVotes",
          "name": "",
          "type": "address"
        }
      ],
      "stateMutability": "view",
      "type": "function"
    },
    {
      "inputs": [
        {
          "internalType": "uint256",
          "name": "newQuorumNumerator",
          "type": "uint256"
        }
      ],
      "name": "updateQuorumNumerator",
      "outputs": [],
      "stateMutability": "nonpayable",
      "type": "function"
    },
    {
      "inputs": [
        {
          "internalType": "contract TimelockController",
          "name": "newTimelock",
          "type": "address"
        }
      ],
      "name": "updateTimelock",
      "outputs": [],
      "stateMutability": "nonpayable",
      "type": "function"
    },
    {
      "inputs": [],
      "name": "version",
      "outputs": [
        {
          "internalType": "string",
          "name": "",
          "type": "string"
        }
      ],
      "stateMutability": "view",
      "type": "function"
    },
    {
      "inputs": [],
      "name": "votingDelay",
      "outputs": [
        {
          "internalType": "uint256",
          "name": "",
          "type": "uint256"
        }
      ],
      "stateMutability": "pure",
      "type": "function"
    },
    {
      "inputs": [],
      "name": "votingPeriod",
      "outputs": [
        {
          "internalType": "uint256",
          "name": "",
          "type": "uint256"
        }
      ],
      "stateMutability": "pure",
      "type": "function"
    },
    {
      "stateMutability": "payable",
      "type": "receive"
    }
  ],
  "bytecode": "0x6101606040523480156200001257600080fd5b506040516200942038038062009420833981810160405281019062000038919062000c11565b600482826040518060400160405280600a81526020017f4d79476f7665726e6f72000000000000000000000000000000000000000000008152508062000083620001b160201b60201c565b60008280519060200120905060008280519060200120905060007f8b73c3c69bb8fe3d512ecc4cf759cc79239f7b179b0ffacaa9a75d522b39400f90508260e081815250508161010081815250504660a08181525050620000ec818484620001ee60201b60201c565b608081815250503073ffffffffffffffffffffffffffffffffffffffff1660c08173ffffffffffffffffffffffffffffffffffffffff1681525050806101208181525050505050505080600090805190602001906200014d92919062000a8a565b505062000160816200022a60201b60201c565b508073ffffffffffffffffffffffffffffffffffffffff166101408173ffffffffffffffffffffffffffffffffffffffff168152505050620001a881620002cb60201b60201c565b50505062001096565b60606040518060400160405280600181526020017f3100000000000000000000000000000000000000000000000000000000000000815250905090565b600083838346306040516020016200020b95949392919062000c9f565b6040516020818303038152906040528051906020012090509392505050565b7f08f74ea46ef7894f65eabfb5e6e695de773a000b47c529ab559178069b226401600460009054906101000a900473ffffffffffffffffffffffffffffffffffffffff16826040516200027f92919062000cfc565b60405180910390a180600460006101000a81548173ffffffffffffffffffffffffffffffffffffffff021916908373ffffffffffffffffffffffffffffffffffffffff16021790555050565b620002db620004aa60201b60201c565b81111562000320576040517f08c379a0000000000000000000000000000000000000000000000000000000008152600401620003179062000dd6565b60405180910390fd5b600062000332620004b360201b60201c565b9050600081141580156200034e57506000600860000180549050145b156200044e5760086000016040518060400160405280600063ffffffff16815260200162000387846200050960201b62002a971760201c565b7bffffffffffffffffffffffffffffffffffffffffffffffffffffffff168152509080600181540180825580915050600190039060005260206000200160009091909190915060008201518160000160006101000a81548163ffffffff021916908363ffffffff16021790555060208201518160000160046101000a8154817bffffffffffffffffffffffffffffffffffffffffffffffffffffffff02191690837bffffffffffffffffffffffffffffffffffffffffffffffffffffffff16021790555050505b620004698260086200057760201b62002b021790919060201c565b50507f0553476bf02ef2726e8ce5ced78d63e26e602e4a2257b1f559418e24b463399781836040516200049e92919062000df8565b60405180910390a15050565b60006064905090565b600080600860000180549050146200050057620004dc60086200060760201b62002b701760201c565b7bffffffffffffffffffffffffffffffffffffffffffffffffffffffff1662000504565b6007545b905090565b60007bffffffffffffffffffffffffffffffffffffffffffffffffffffffff80168211156200056f576040517f08c379a0000000000000000000000000000000000000000000000000000000008152600401620005669062000e9b565b60405180910390fd5b819050919050565b600080620005ba8460000162000598436200067d60201b62002bda1760201c565b620005ae866200050960201b62002a971760201c565b620006d360201b60201c565b817bffffffffffffffffffffffffffffffffffffffffffffffffffffffff169150807bffffffffffffffffffffffffffffffffffffffffffffffffffffffff169050915091509250929050565b60008082600001805490509050600081146200067257620006408360000160018362000634919062000eec565b62000a7560201b60201c565b60000160049054906101000a90047bffffffffffffffffffffffffffffffffffffffffffffffffffffffff1662000675565b60005b915050919050565b600063ffffffff8016821115620006cb576040517f08c379a0000000000000000000000000000000000000000000000000000000008152600401620006c29062000f9d565b60405180910390fd5b819050919050565b6000806000858054905090506000811115620009855760006200070b87600184620006ff919062000eec565b62000a7560201b60201c565b6040518060400160405290816000820160009054906101000a900463ffffffff1663ffffffff1663ffffffff1681526020016000820160049054906101000a90047bffffffffffffffffffffffffffffffffffffffffffffffffffffffff167bffffffffffffffffffffffffffffffffffffffffffffffffffffffff167bffffffffffffffffffffffffffffffffffffffffffffffffffffffff168152505090508563ffffffff16816000015163ffffffff16111562000802576040517f08c379a0000000000000000000000000000000000000000000000000000000008152600401620007f9906200100f565b60405180910390fd5b8563ffffffff16816000015163ffffffff1614156200089357846200083c8860018562000830919062000eec565b62000a7560201b60201c565b60000160046101000a8154817bffffffffffffffffffffffffffffffffffffffffffffffffffffffff02191690837bffffffffffffffffffffffffffffffffffffffffffffffffffffffff16021790555062000973565b8660405180604001604052808863ffffffff168152602001877bffffffffffffffffffffffffffffffffffffffffffffffffffffffff168152509080600181540180825580915050600190039060005260206000200160009091909190915060008201518160000160006101000a81548163ffffffff021916908363ffffffff16021790555060208201518160000160046101000a8154817bffffffffffffffffffffffffffffffffffffffffffffffffffffffff02191690837bffffffffffffffffffffffffffffffffffffffffffffffffffffffff16021790555050505b80602001518593509350505062000a6d565b8560405180604001604052808763ffffffff168152602001867bffffffffffffffffffffffffffffffffffffffffffffffffffffffff168152509080600181540180825580915050600190039060005260206000200160009091909190915060008201518160000160006101000a81548163ffffffff021916908363ffffffff16021790555060208201518160000160046101000a8154817bffffffffffffffffffffffffffffffffffffffffffffffffffffffff02191690837bffffffffffffffffffffffffffffffffffffffffffffffffffffffff160217905550505060008492509250505b935093915050565b60008260005281602060002001905092915050565b82805462000a989062001060565b90600052602060002090601f01602090048101928262000abc576000855562000b08565b82601f1062000ad757805160ff191683800117855562000b08565b8280016001018555821562000b08579182015b8281111562000b0757825182559160200191906001019062000aea565b5b50905062000b17919062000b1b565b5090565b5b8082111562000b3657600081600090555060010162000b1c565b5090565b600080fd5b600073ffffffffffffffffffffffffffffffffffffffff82169050919050565b600062000b6c8262000b3f565b9050919050565b600062000b808262000b5f565b9050919050565b62000b928162000b73565b811462000b9e57600080fd5b50565b60008151905062000bb28162000b87565b92915050565b600062000bc58262000b3f565b9050919050565b600062000bd98262000bb8565b9050919050565b62000beb8162000bcc565b811462000bf757600080fd5b50565b60008151905062000c0b8162000be0565b92915050565b6000806040838503121562000c2b5762000c2a62000b3a565b5b600062000c3b8582860162000ba1565b925050602062000c4e8582860162000bfa565b9150509250929050565b6000819050919050565b62000c6d8162000c58565b82525050565b6000819050919050565b62000c888162000c73565b82525050565b62000c998162000b5f565b82525050565b600060a08201905062000cb6600083018862000c62565b62000cc5602083018762000c62565b62000cd4604083018662000c62565b62000ce3606083018562000c7d565b62000cf2608083018462000c8e565b9695505050505050565b600060408201905062000d13600083018562000c8e565b62000d22602083018462000c8e565b9392505050565b600082825260208201905092915050565b7f476f7665726e6f72566f74657351756f72756d4672616374696f6e3a2071756f60008201527f72756d4e756d657261746f72206f7665722071756f72756d44656e6f6d696e6160208201527f746f720000000000000000000000000000000000000000000000000000000000604082015250565b600062000dbe60438362000d29565b915062000dcb8262000d3a565b606082019050919050565b6000602082019050818103600083015262000df18162000daf565b9050919050565b600060408201905062000e0f600083018562000c7d565b62000e1e602083018462000c7d565b9392505050565b7f53616665436173743a2076616c756520646f65736e27742066697420696e203260008201527f3234206269747300000000000000000000000000000000000000000000000000602082015250565b600062000e8360278362000d29565b915062000e908262000e25565b604082019050919050565b6000602082019050818103600083015262000eb68162000e74565b9050919050565b7f4e487b7100000000000000000000000000000000000000000000000000000000600052601160045260246000fd5b600062000ef98262000c73565b915062000f068362000c73565b92508282101562000f1c5762000f1b62000ebd565b5b828203905092915050565b7f53616665436173743a2076616c756520646f65736e27742066697420696e203360008201527f3220626974730000000000000000000000000000000000000000000000000000602082015250565b600062000f8560268362000d29565b915062000f928262000f27565b604082019050919050565b6000602082019050818103600083015262000fb88162000f76565b9050919050565b7f436865636b706f696e743a20696e76616c6964206b6579000000000000000000600082015250565b600062000ff760178362000d29565b9150620010048262000fbf565b602082019050919050565b600060208201905081810360008301526200102a8162000fe8565b9050919050565b7f4e487b7100000000000000000000000000000000000000000000000000000000600052602260045260246000fd5b600060028204905060018216806200107957607f821691505b6020821081141562001090576200108f62001031565b5b50919050565b60805160a05160c05160e051610100516101205161014051618321620010ff600039600081816127c0015281816137ad0152613a53015260006140c401526000614106015260006140e50152600061401a015260006140700152600061409901526183216000f3fe6080604052600436106102765760003560e01c80637b3c71d31161014f578063c59057e4116100c1578063e23a9a521161007a578063e23a9a5214610ac2578063eb9019d414610aff578063f23a6e6114610b3c578063f8ce560a14610b79578063fc0c546a14610bb6578063fe0d94c114610be1576102bc565b8063c59057e41461099e578063d33219b4146109db578063da95691a14610a06578063dd4e2ba514610a43578063ddf0b00914610a6e578063deaaa7cc14610a97576102bc565b8063a890c91011610113578063a890c91014610877578063ab58fb8e146108a0578063b58131b0146108dd578063bc197c8114610908578063c01f9e3714610945578063c28bc2fa14610982576102bc565b80637b3c71d31461076a5780637d5e81e2146107a757806397c3d334146107e45780639a802a6d1461080f578063a7713a701461084c576102bc565b80632fe3e261116101e857806340e58ee5116101ac57806340e58ee514610622578063438596321461064b57806354fd4d501461068857806356781388146106b35780635f398a14146106f057806360c4247f1461072d576102bc565b80632fe3e26114610512578063328dd9821461053d5780633932abb11461057d5780633bccf4fd146105a85780633e4f49e6146105e5576102bc565b806306fdde031161023a57806306fdde03146103d5578063150b7a0214610400578063160cbed71461043d57806324bc1a641461047a5780632656227d146104a55780632d63f693146104d5576102bc565b8063013cf08b146102c157806301ffc9a71461030757806302a251a314610344578063034201811461036f57806306f3f9e6146103ac576102bc565b366102bc573073ffffffffffffffffffffffffffffffffffffffff1661029a610bfd565b73ffffffffffffffffffffffffffffffffffffffff16146102ba57600080fd5b005b600080fd5b3480156102cd57600080fd5b506102e860048036038101906102e39190615507565b610c0c565b6040516102fe9a9998979695949392919061559f565b60405180910390f35b34801561031357600080fd5b5061032e60048036038101906103299190615693565b610d01565b60405161033b91906156c0565b60405180910390f35b34801561035057600080fd5b50610359610d13565b60405161036691906156db565b60405180910390f35b34801561037b57600080fd5b506103966004803603810190610391919061590b565b610d1d565b6040516103a391906156db565b60405180910390f35b3480156103b857600080fd5b506103d360048036038101906103ce9190615507565b610e02565b005b3480156103e157600080fd5b506103ea610efe565b6040516103f79190615a71565b60405180910390f35b34801561040c57600080fd5b5061042760048036038101906104229190615abf565b610f90565b6040516104349190615b51565b60405180910390f35b34801561044957600080fd5b50610464600480360381019061045f9190615dd3565b610fa4565b60405161047191906156db565b60405180910390f35b34801561048657600080fd5b5061048f61127c565b60405161049c91906156db565b60405180910390f35b6104bf60048036038101906104ba9190615dd3565b611298565b6040516104cc91906156db565b60405180910390f35b3480156104e157600080fd5b506104fc60048036038101906104f79190615507565b6113e5565b60405161050991906156db565b60405180910390f35b34801561051e57600080fd5b50610527611453565b6040516105349190615e9d565b60405180910390f35b34801561054957600080fd5b50610564600480360381019061055f9190615507565b611477565b6040516105749493929190616257565b60405180910390f35b34801561058957600080fd5b50610592611734565b60405161059f91906156db565b60405180910390f35b3480156105b457600080fd5b506105cf60048036038101906105ca91906162b8565b61173d565b6040516105dc91906156db565b60405180910390f35b3480156105f157600080fd5b5061060c60048036038101906106079190615507565b6117c7565b60405161061991906163aa565b60405180910390f35b34801561062e57600080fd5b5061064960048036038101906106449190615507565b6117d9565b005b34801561065757600080fd5b50610672600480360381019061066d91906163c5565b611b71565b60405161067f91906156c0565b60405180910390f35b34801561069457600080fd5b5061069d611bdf565b6040516106aa9190615a71565b60405180910390f35b3480156106bf57600080fd5b506106da60048036038101906106d59190616405565b611c1c565b6040516106e791906156db565b60405180910390f35b3480156106fc57600080fd5b5061071760048036038101906107129190616445565b611c4d565b60405161072491906156db565b60405180910390f35b34801561073957600080fd5b50610754600480360381019061074f9190615507565b611cb7565b60405161076191906156db565b60405180910390f35b34801561077657600080fd5b50610791600480360381019061078c91906164e9565b611e04565b60405161079e91906156db565b60405180910390f35b3480156107b357600080fd5b506107ce60048036038101906107c991906165fe565b611e6c565b6040516107db91906156db565b60405180910390f35b3480156107f057600080fd5b506107f9611e84565b60405161080691906156db565b60405180910390f35b34801561081b57600080fd5b50610836600480360381019061083191906166d5565b611e8d565b60405161084391906156db565b60405180910390f35b34801561085857600080fd5b50610861611ea3565b60405161086e91906156db565b60405180910390f35b34801561088357600080fd5b5061089e60048036038101906108999190616794565b611eea565b005b3480156108ac57600080fd5b506108c760048036038101906108c29190615507565b611fe6565b6040516108d491906156db565b60405180910390f35b3480156108e957600080fd5b506108f26120c2565b6040516108ff91906156db565b60405180910390f35b34801561091457600080fd5b5061092f600480360381019061092a91906167c1565b6120d3565b60405161093c9190615b51565b60405180910390f35b34801561095157600080fd5b5061096c60048036038101906109679190615507565b6120e8565b60405161097991906156db565b60405180910390f35b61099c600480360381019061099791906168e6565b612156565b005b3480156109aa57600080fd5b506109c560048036038101906109c09190615dd3565b6122e4565b6040516109d291906156db565b60405180910390f35b3480156109e757600080fd5b506109f0612320565b6040516109fd919061695a565b60405180910390f35b348015610a1257600080fd5b50610a2d6004803603810190610a289190616a56565b61234a565b604051610a3a91906156db565b60405180910390f35b348015610a4f57600080fd5b50610a58612381565b604051610a659190615a71565b60405180910390f35b348015610a7a57600080fd5b50610a956004803603810190610a909190615507565b6123be565b005b348015610aa357600080fd5b50610aac612673565b604051610ab99190615e9d565b60405180910390f35b348015610ace57600080fd5b50610ae96004803603810190610ae491906163c5565b612697565b604051610af69190616be4565b60405180910390f35b348015610b0b57600080fd5b50610b266004803603810190610b219190616bff565b61277b565b604051610b3391906156db565b60405180910390f35b348015610b4857600080fd5b50610b636004803603810190610b5e9190616c3f565b612797565b604051610b709190615b51565b60405180910390f35b348015610b8557600080fd5b50610ba06004803603810190610b9b9190615507565b6127ac565b604051610bad91906156db565b60405180910390f35b348015610bc257600080fd5b50610bcb6127be565b604051610bd89190616d35565b60405180910390f35b610bfb6004803603810190610bf69190615507565b6127e2565b005b6000610c07612c2d565b905090565b6000806000806000806000806000808a9950610c278b611fe6565b9750610c328b6113e5565b9650610c3d8b6120e8565b95506000600660008d815260200190815260200160002090508060000160009054906101000a900473ffffffffffffffffffffffffffffffffffffffff1699508060050154955080600601549450806007015493506000610c9d8d6117c7565b905060026007811115610cb357610cb2616333565b5b816007811115610cc657610cc5616333565b5b149350600780811115610cdc57610cdb616333565b5b816007811115610cef57610cee616333565b5b14925050509193959799509193959799565b6000610d0c82612c57565b9050919050565b600061b2fa905090565b600080610da0610d987fb3b3f3b703cd84ce352197dcff232b1b5d3cfb2025ce47cf04742d0651f1af888c8c8c8c604051610d59929190616d80565b60405180910390208b80519060200120604051602001610d7d959493929190616da8565b60405160208183030381529060405280519060200120612cd1565b868686612ceb565b9050610df38a828b8b8b8080601f016020809104026020016040519081016040528093929190818152602001838380828437600081840152601f19601f820116905080830192505050505050508a612d16565b91505098975050505050505050565b610e0a610bfd565b73ffffffffffffffffffffffffffffffffffffffff16610e28612ed3565b73ffffffffffffffffffffffffffffffffffffffff1614610e7e576040517f08c379a0000000000000000000000000000000000000000000000000000000008152600401610e7590616e47565b60405180910390fd5b3073ffffffffffffffffffffffffffffffffffffffff16610e9d610bfd565b73ffffffffffffffffffffffffffffffffffffffff1614610ef2576000610ec2612edb565b604051610ed0929190616d80565b604051809103902090505b80610ee66002612ee8565b14610ef057610edb565b505b610efb81612fc4565b50565b606060008054610f0d90616e96565b80601f0160208091040260200160405190810160405280929190818152602001828054610f3990616e96565b8015610f865780601f10610f5b57610100808354040283529160200191610f86565b820191906000526020600020905b815481529060010190602001808311610f6957829003601f168201915b5050505050905090565b600063150b7a0260e01b9050949350505050565b600080610fb3868686866122e4565b905060046007811115610fc957610fc8616333565b5b610fd2826117c7565b6007811115610fe457610fe3616333565b5b14611024576040517f08c379a000000000000000000000000000000000000000000000000000000000815260040161101b90616f3a565b60405180910390fd5b6000600460009054906101000a900473ffffffffffffffffffffffffffffffffffffffff1673ffffffffffffffffffffffffffffffffffffffff1663f27a0c926040518163ffffffff1660e01b815260040160206040518083038186803b15801561108e57600080fd5b505afa1580156110a2573d6000803e3d6000fd5b505050506040513d601f19601f820116820180604052508101906110c69190616f6f565b9050600460009054906101000a900473ffffffffffffffffffffffffffffffffffffffff1673ffffffffffffffffffffffffffffffffffffffff1663b1c5f4278888886000896040518663ffffffff1660e01b815260040161112c959493929190616fe4565b60206040518083038186803b15801561114457600080fd5b505afa158015611158573d6000803e3d6000fd5b505050506040513d601f19601f8201168201806040525081019061117c9190617061565b6005600084815260200190815260200160002081905550600460009054906101000a900473ffffffffffffffffffffffffffffffffffffffff1673ffffffffffffffffffffffffffffffffffffffff16638f2a0bb0888888600089876040518763ffffffff1660e01b81526004016111f99695949392919061708e565b600060405180830381600087803b15801561121357600080fd5b505af1158015611227573d6000803e3d6000fd5b505050507f9a2e42fd6722813d69113e7d0079d3d940171428df7373df9c7f7617cfda28928282426112599190617133565b604051611267929190617189565b60405180910390a18192505050949350505050565b600061129360014361128e91906171b2565b6127ac565b905090565b6000806112a7868686866122e4565b905060006112b4826117c7565b9050600460078111156112ca576112c9616333565b5b8160078111156112dd576112dc616333565b5b148061130d5750600560078111156112f8576112f7616333565b5b81600781111561130b5761130a616333565b5b145b61134c576040517f08c379a000000000000000000000000000000000000000000000000000000000815260040161134390616f3a565b60405180910390fd5b600180600084815260200190815260200160002060020160006101000a81548160ff0219169083151502179055507f712ae1383f79ac853f8d882153778e0260ef8f03b504e2866e0593e04d2b291f826040516113a991906156db565b60405180910390a16113be8288888888613178565b6113cb828888888861325c565b6113d88288888888613270565b8192505050949350505050565b6000611442600160008481526020019081526020016000206000016040518060200160405290816000820160009054906101000a900467ffffffffffffffff1667ffffffffffffffff1667ffffffffffffffff16815250506132cb565b67ffffffffffffffff169050919050565b7fb3b3f3b703cd84ce352197dcff232b1b5d3cfb2025ce47cf04742d0651f1af8881565b6060806060806000600660008781526020019081526020016000209050806001018160020182600301836004018380548060200260200160405190810160405280929190818152602001828054801561152557602002820191906000526020600020905b8160009054906101000a900473ffffffffffffffffffffffffffffffffffffffff1673ffffffffffffffffffffffffffffffffffffffff16815260200190600101908083116114db575b505050505093508280548060200260200160405190810160405280929190818152602001828054801561157757602002820191906000526020600020905b815481526020019060010190808311611563575b5050505050925081805480602002602001604051908101604052809291908181526020016000905b8282101561164b5783829060005260206000200180546115be90616e96565b80601f01602080910402602001604051908101604052809291908181526020018280546115ea90616e96565b80156116375780601f1061160c57610100808354040283529160200191611637565b820191906000526020600020905b81548152906001019060200180831161161a57829003601f168201915b50505050508152602001906001019061159f565b50505050915080805480602002602001604051908101604052809291908181526020016000905b8282101561171e57838290600052602060002001805461169190616e96565b80601f01602080910402602001604051908101604052809291908181526020018280546116bd90616e96565b801561170a5780601f106116df5761010080835404028352916020019161170a565b820191906000526020600020905b8154815290600101906020018083116116ed57829003601f168201915b505050505081526020019060010190611672565b5050505090509450945094509450509193509193565b60006001905090565b60008061179e6117967f150214d74d59b7d1e90c73fc22ef3d991dd0a76b046543d4d80ab92d2a50328f898960405160200161177b939291906171e6565b60405160208183030381529060405280519060200120612cd1565b868686612ceb565b90506117bb878288604051806020016040528060008152506132d9565b91505095945050505050565b60006117d2826132f9565b9050919050565b60006006600083815260200190815260200160002090508060000160009054906101000a900473ffffffffffffffffffffffffffffffffffffffff1673ffffffffffffffffffffffffffffffffffffffff16611833612ed3565b73ffffffffffffffffffffffffffffffffffffffff16148061189457506118586120c2565b6118928260000160009054906101000a900473ffffffffffffffffffffffffffffffffffffffff1660014361188d91906171b2565b61277b565b105b6118d3576040517f08c379a00000000000000000000000000000000000000000000000000000000081526004016118ca9061728f565b60405180910390fd5b611b6c8160010180548060200260200160405190810160405280929190818152602001828054801561195a57602002820191906000526020600020905b8160009054906101000a900473ffffffffffffffffffffffffffffffffffffffff1673ffffffffffffffffffffffffffffffffffffffff1681526020019060010190808311611910575b5050505050826002018054806020026020016040519081016040528092919081815260200182805480156119ad57602002820191906000526020600020905b815481526020019060010190808311611999575b5050505050611b6284600301805480602002602001604051908101604052809291908181526020016000905b82821015611a855783829060005260206000200180546119f890616e96565b80601f0160208091040260200160405190810160405280929190818152602001828054611a2490616e96565b8015611a715780601f10611a4657610100808354040283529160200191611a71565b820191906000526020600020905b815481529060010190602001808311611a5457829003601f168201915b5050505050815260200190600101906119d9565b5050505085600401805480602002602001604051908101604052809291908181526020016000905b82821015611b59578382906000526020600020018054611acc90616e96565b80601f0160208091040260200160405190810160405280929190818152602001828054611af890616e96565b8015611b455780601f10611b1a57610100808354040283529160200191611b45565b820191906000526020600020905b815481529060010190602001808311611b2857829003601f168201915b505050505081526020019060010190611aad565b505050506134eb565b8460090154613627565b505050565b60006006600084815260200190815260200160002060080160008373ffffffffffffffffffffffffffffffffffffffff1673ffffffffffffffffffffffffffffffffffffffff16815260200190815260200160002060000160009054906101000a900460ff16905092915050565b60606040518060400160405280600181526020017f3100000000000000000000000000000000000000000000000000000000000000815250905090565b600080611c27612ed3565b9050611c44848285604051806020016040528060008152506132d9565b91505092915050565b600080611c58612ed3565b9050611cab87828888888080601f016020809104026020016040519081016040528093929190818152602001838380828437600081840152601f19601f8201169050808301925050505050505087612d16565b91505095945050505050565b60008060086000018054905090506000811415611cd957600754915050611dff565b60006008600001600183611ced91906171b2565b81548110611cfe57611cfd6172af565b5b906000526020600020016040518060400160405290816000820160009054906101000a900463ffffffff1663ffffffff1663ffffffff1681526020016000820160049054906101000a90047bffffffffffffffffffffffffffffffffffffffffffffffffffffffff167bffffffffffffffffffffffffffffffffffffffffffffffffffffffff167bffffffffffffffffffffffffffffffffffffffffffffffffffffffff1681525050905083816000015163ffffffff1611611de65780602001517bffffffffffffffffffffffffffffffffffffffffffffffffffffffff1692505050611dff565b611dfa84600861363f90919063ffffffff16565b925050505b919050565b600080611e0f612ed3565b9050611e6186828787878080601f016020809104026020016040519081016040528093929190818152602001838380828437600081840152601f19601f820116905080830192505050505050506132d9565b915050949350505050565b6000611e7a8585858561372e565b9050949350505050565b60006064905090565b6000611e9a8484846137a9565b90509392505050565b60008060086000018054905014611ee157611ebe6008612b70565b7bffffffffffffffffffffffffffffffffffffffffffffffffffffffff16611ee5565b6007545b905090565b611ef2610bfd565b73ffffffffffffffffffffffffffffffffffffffff16611f10612ed3565b73ffffffffffffffffffffffffffffffffffffffff1614611f66576040517f08c379a0000000000000000000000000000000000000000000000000000000008152600401611f5d90616e47565b60405180910390fd5b3073ffffffffffffffffffffffffffffffffffffffff16611f85610bfd565b73ffffffffffffffffffffffffffffffffffffffff1614611fda576000611faa612edb565b604051611fb8929190616d80565b604051809103902090505b80611fce6002612ee8565b14611fd857611fc3565b505b611fe38161385f565b50565b600080600460009054906101000a900473ffffffffffffffffffffffffffffffffffffffff1673ffffffffffffffffffffffffffffffffffffffff1663d45c443560056000868152602001908152602001600020546040518263ffffffff1660e01b81526004016120579190615e9d565b60206040518083038186803b15801561206f57600080fd5b505afa158015612083573d6000803e3d6000fd5b505050506040513d601f19601f820116820180604052508101906120a79190616f6f565b9050600181146120b757806120ba565b60005b915050919050565b6000683635c9adc5dea00000905090565b600063bc197c8160e01b905095945050505050565b6000612145600160008481526020019081526020016000206001016040518060200160405290816000820160009054906101000a900467ffffffffffffffff1667ffffffffffffffff1667ffffffffffffffff16815250506132cb565b67ffffffffffffffff169050919050565b61215e610bfd565b73ffffffffffffffffffffffffffffffffffffffff1661217c612ed3565b73ffffffffffffffffffffffffffffffffffffffff16146121d2576040517f08c379a00000000000000000000000000000000000000000000000000000000081526004016121c990616e47565b60405180910390fd5b3073ffffffffffffffffffffffffffffffffffffffff166121f1610bfd565b73ffffffffffffffffffffffffffffffffffffffff1614612246576000612216612edb565b604051612224929190616d80565b604051809103902090505b8061223a6002612ee8565b146122445761222f565b505b6000808573ffffffffffffffffffffffffffffffffffffffff16858585604051612271929190616d80565b60006040518083038185875af1925050503d80600081146122ae576040519150601f19603f3d011682016040523d82523d6000602084013e6122b3565b606091505b50915091506122db82826040518060600160405280602881526020016182c4602891396138fe565b50505050505050565b6000848484846040516020016122fd94939291906172de565b6040516020818303038152906040528051906020012060001c9050949350505050565b6000600460009054906101000a900473ffffffffffffffffffffffffffffffffffffffff16905090565b6000612361612357612ed3565b8787878787613920565b612376868661237087876134eb565b85611e6c565b905095945050505050565b60606040518060400160405280601a81526020017f737570706f72743d627261766f2671756f72756d3d627261766f000000000000815250905090565b600060066000838152602001908152602001600020905061266e8160010180548060200260200160405190810160405280929190818152602001828054801561245c57602002820191906000526020600020905b8160009054906101000a900473ffffffffffffffffffffffffffffffffffffffff1673ffffffffffffffffffffffffffffffffffffffff1681526020019060010190808311612412575b5050505050826002018054806020026020016040519081016040528092919081815260200182805480156124af57602002820191906000526020600020905b81548152602001906001019080831161249b575b505050505061266484600301805480602002602001604051908101604052809291908181526020016000905b828210156125875783829060005260206000200180546124fa90616e96565b80601f016020809104026020016040519081016040528092919081815260200182805461252690616e96565b80156125735780601f1061254857610100808354040283529160200191612573565b820191906000526020600020905b81548152906001019060200180831161255657829003601f168201915b5050505050815260200190600101906124db565b5050505085600401805480602002602001604051908101604052809291908181526020016000905b8282101561265b5783829060005260206000200180546125ce90616e96565b80601f01602080910402602001604051908101604052809291908181526020018280546125fa90616e96565b80156126475780601f1061261c57610100808354040283529160200191612647565b820191906000526020600020905b81548152906001019060200180831161262a57829003601f168201915b5050505050815260200190600101906125af565b505050506134eb565b8460090154610fa4565b505050565b7f150214d74d59b7d1e90c73fc22ef3d991dd0a76b046543d4d80ab92d2a50328f81565b61269f615101565b6006600084815260200190815260200160002060080160008373ffffffffffffffffffffffffffffffffffffffff1673ffffffffffffffffffffffffffffffffffffffff1681526020019081526020016000206040518060600160405290816000820160009054906101000a900460ff161515151581526020016000820160019054906101000a900460ff1660ff1660ff1681526020016000820160029054906101000a90046bffffffffffffffffffffffff166bffffffffffffffffffffffff166bffffffffffffffffffffffff1681525050905092915050565b600061278f838361278a613a27565b6137a9565b905092915050565b600063f23a6e6160e01b905095945050505050565b60006127b782613a3e565b9050919050565b7f000000000000000000000000000000000000000000000000000000000000000081565b6000600660008381526020019081526020016000209050612a928160010180548060200260200160405190810160405280929190818152602001828054801561288057602002820191906000526020600020905b8160009054906101000a900473ffffffffffffffffffffffffffffffffffffffff1673ffffffffffffffffffffffffffffffffffffffff1681526020019060010190808311612836575b5050505050826002018054806020026020016040519081016040528092919081815260200182805480156128d357602002820191906000526020600020905b8154815260200190600101908083116128bf575b5050505050612a8884600301805480602002602001604051908101604052809291908181526020016000905b828210156129ab57838290600052602060002001805461291e90616e96565b80601f016020809104026020016040519081016040528092919081815260200182805461294a90616e96565b80156129975780601f1061296c57610100808354040283529160200191612997565b820191906000526020600020905b81548152906001019060200180831161297a57829003601f168201915b5050505050815260200190600101906128ff565b5050505085600401805480602002602001604051908101604052809291908181526020016000905b82821015612a7f5783829060005260206000200180546129f290616e96565b80601f0160208091040260200160405190810160405280929190818152602001828054612a1e90616e96565b8015612a6b5780601f10612a4057610100808354040283529160200191612a6b565b820191906000526020600020905b815481529060010190602001808311612a4e57829003601f168201915b5050505050815260200190600101906129d3565b505050506134eb565b8460090154611298565b505050565b60007bffffffffffffffffffffffffffffffffffffffffffffffffffffffff8016821115612afa576040517f08c379a0000000000000000000000000000000000000000000000000000000008152600401612af1906173aa565b60405180910390fd5b819050919050565b600080612b2384600001612b1543612bda565b612b1e86612a97565b613b15565b817bffffffffffffffffffffffffffffffffffffffffffffffffffffffff169150807bffffffffffffffffffffffffffffffffffffffffffffffffffffffff169050915091509250929050565b6000808260000180549050905060008114612bcf57612b9e83600001600183612b9991906171b2565b613e9c565b60000160049054906101000a90047bffffffffffffffffffffffffffffffffffffffffffffffffffffffff16612bd2565b60005b915050919050565b600063ffffffff8016821115612c25576040517f08c379a0000000000000000000000000000000000000000000000000000000008152600401612c1c9061743c565b60405180910390fd5b819050919050565b6000600460009054906101000a900473ffffffffffffffffffffffffffffffffffffffff16905090565b60007f6e665ced000000000000000000000000000000000000000000000000000000007bffffffffffffffffffffffffffffffffffffffffffffffffffffffff1916827bffffffffffffffffffffffffffffffffffffffffffffffffffffffff19161480612cca5750612cc982613eb1565b5b9050919050565b6000612ce4612cde614016565b83614130565b9050919050565b6000806000612cfc87878787614163565b91509150612d0981614246565b8192505050949350505050565b60008060016000888152602001908152602001600020905060016007811115612d4257612d41616333565b5b612d4b886117c7565b6007811115612d5d57612d5c616333565b5b14612d9d576040517f08c379a0000000000000000000000000000000000000000000000000000000008152600401612d94906174ce565b60405180910390fd5b6000612dfc87612dec846000016040518060200160405290816000820160009054906101000a900467ffffffffffffffff1667ffffffffffffffff1667ffffffffffffffff16815250506132cb565b67ffffffffffffffff16866137a9565b9050612e0b88888884886143b4565b600084511415612e6e578673ffffffffffffffffffffffffffffffffffffffff167fb8e138887d0aa13bab447e82de9d5c1777041ecd21ca36ba824ff1e6c07ddda489888489604051612e6194939291906174ee565b60405180910390a2612ec5565b8673ffffffffffffffffffffffffffffffffffffffff167fe2babfbac5889a709b63bb7f598b324e08bc5a4fb9ec647fb3cbc9ec07eb87128988848989604051612ebc959493929190617584565b60405180910390a25b809250505095945050505050565b600033905090565b3660008036915091509091565b6000612ef3826145df565b15612f2a576040517f3db2a12a00000000000000000000000000000000000000000000000000000000815260040160405180910390fd5b60008260000160009054906101000a9004600f0b905082600101600082600f0b600f0b815260200190815260200160002054915082600101600082600f0b600f0b815260200190815260200160002060009055600181018360000160006101000a8154816fffffffffffffffffffffffffffffffff0219169083600f0b6fffffffffffffffffffffffffffffffff16021790555050919050565b612fcc611e84565b81111561300e576040517f08c379a00000000000000000000000000000000000000000000000000000000081526004016130059061767d565b60405180910390fd5b6000613018611ea3565b90506000811415801561303357506000600860000180549050145b156131255760086000016040518060400160405280600063ffffffff16815260200161305e84612a97565b7bffffffffffffffffffffffffffffffffffffffffffffffffffffffff168152509080600181540180825580915050600190039060005260206000200160009091909190915060008201518160000160006101000a81548163ffffffff021916908363ffffffff16021790555060208201518160000160046101000a8154817bffffffffffffffffffffffffffffffffffffffffffffffffffffffff02191690837bffffffffffffffffffffffffffffffffffffffffffffffffffffffff16021790555050505b613139826008612b0290919063ffffffff16565b50507f0553476bf02ef2726e8ce5ced78d63e26e602e4a2257b1f559418e24b4633997818360405161316c929190617189565b60405180910390a15050565b3073ffffffffffffffffffffffffffffffffffffffff16613197610bfd565b73ffffffffffffffffffffffffffffffffffffffff16146132555760005b8451811015613253573073ffffffffffffffffffffffffffffffffffffffff168582815181106131e8576131e76172af565b5b602002602001015173ffffffffffffffffffffffffffffffffffffffff16141561324257613241838281518110613222576132216172af565b5b602002602001015180519060200120600261461490919063ffffffff16565b5b8061324c9061769d565b90506131b5565b505b5050505050565b6132698585858585614690565b5050505050565b3073ffffffffffffffffffffffffffffffffffffffff1661328f610bfd565b73ffffffffffffffffffffffffffffffffffffffff16146132c4576132b460026145df565b6132c3576132c2600261472e565b5b5b5050505050565b600081600001519050919050565b60006132ef858585856132ea613a27565b612d16565b9050949350505050565b600080613305836147af565b90506004600781111561331b5761331a616333565b5b81600781111561332e5761332d616333565b5b1461333c57809150506134e6565b6000600560008581526020019081526020016000205490506000801b8114156133695781925050506134e6565b600460009054906101000a900473ffffffffffffffffffffffffffffffffffffffff1673ffffffffffffffffffffffffffffffffffffffff16632ab0f529826040518263ffffffff1660e01b81526004016133c49190615e9d565b60206040518083038186803b1580156133dc57600080fd5b505afa1580156133f0573d6000803e3d6000fd5b505050506040513d601f19601f820116820180604052508101906134149190617712565b15613424576007925050506134e6565b600460009054906101000a900473ffffffffffffffffffffffffffffffffffffffff1673ffffffffffffffffffffffffffffffffffffffff1663584b153e826040518263ffffffff1660e01b815260040161347f9190615e9d565b60206040518083038186803b15801561349757600080fd5b505afa1580156134ab573d6000803e3d6000fd5b505050506040513d601f19601f820116820180604052508101906134cf9190617712565b156134df576005925050506134e6565b6002925050505b919050565b60606000825167ffffffffffffffff81111561350a576135096157aa565b5b60405190808252806020026020018201604052801561353d57816020015b60608152602001906001900390816135285790505b50905060005b845181101561361c576000858281518110613561576135606172af565b5b602002602001015151146135d157848181518110613582576135816172af565b5b6020026020010151805190602001208482815181106135a4576135a36172af565b5b60200260200101516040516020016135bd929190617791565b6040516020818303038152906040526135ed565b8381815181106135e4576135e36172af565b5b60200260200101515b828281518110613600576135ff6172af565b5b6020026020010181905250806136159061769d565b9050613543565b508091505092915050565b6000613635858585856148c4565b9050949350505050565b6000438210613683576040517f08c379a000000000000000000000000000000000000000000000000000000000815260040161367a90617805565b60405180910390fd5b600061368e83612bda565b905060008460000180549050905060006136ae86600001846000856149b6565b905060008114613702576136d1866000016001836136cc91906171b2565b613e9c565b60000160049054906101000a90047bffffffffffffffffffffffffffffffffffffffffffffffffffffffff16613705565b60005b7bffffffffffffffffffffffffffffffffffffffffffffffffffffffff16935050505092915050565b600061379361373b612ed3565b8686865167ffffffffffffffff811115613758576137576157aa565b5b60405190808252806020026020018201604052801561378b57816020015b60608152602001906001900390816137765790505b508787613920565b61379f85858585614a29565b9050949350505050565b60007f000000000000000000000000000000000000000000000000000000000000000073ffffffffffffffffffffffffffffffffffffffff16633a46b1a885856040518363ffffffff1660e01b8152600401613806929190617825565b60206040518083038186803b15801561381e57600080fd5b505afa158015613832573d6000803e3d6000fd5b505050506040513d601f19601f820116820180604052508101906138569190616f6f565b90509392505050565b7f08f74ea46ef7894f65eabfb5e6e695de773a000b47c529ab559178069b226401600460009054906101000a900473ffffffffffffffffffffffffffffffffffffffff16826040516138b292919061784e565b60405180910390a180600460006101000a81548173ffffffffffffffffffffffffffffffffffffffff021916908373ffffffffffffffffffffffffffffffffffffffff16021790555050565b6060831561390e57829050613919565b6139188383614d30565b5b9392505050565b6000818051906020012090506000613943878761393d88886134eb565b856122e4565b905060006006600083815260200190815260200160002090506000801b81600901541415613a1c57888160000160006101000a81548173ffffffffffffffffffffffffffffffffffffffff021916908373ffffffffffffffffffffffffffffffffffffffff160217905550878160010190805190602001906139c6929190615135565b50868160020190805190602001906139df9291906151bf565b50858160030190805190602001906139f892919061520c565b5084816004019080519060200190613a1192919061526c565b508281600901819055505b505050505050505050565b606060405180602001604052806000815250905090565b6000613a48611e84565b613a5183611cb7565b7f000000000000000000000000000000000000000000000000000000000000000073ffffffffffffffffffffffffffffffffffffffff16638e539e8c856040518263ffffffff1660e01b8152600401613aaa91906156db565b60206040518083038186803b158015613ac257600080fd5b505afa158015613ad6573d6000803e3d6000fd5b505050506040513d601f19601f82011682018060405250810190613afa9190616f6f565b613b049190617877565b613b0e9190617900565b9050919050565b6000806000858054905090506000811115613dac576000613b4287600184613b3d91906171b2565b613e9c565b6040518060400160405290816000820160009054906101000a900463ffffffff1663ffffffff1663ffffffff1681526020016000820160049054906101000a90047bffffffffffffffffffffffffffffffffffffffffffffffffffffffff167bffffffffffffffffffffffffffffffffffffffffffffffffffffffff167bffffffffffffffffffffffffffffffffffffffffffffffffffffffff168152505090508563ffffffff16816000015163ffffffff161115613c36576040517f08c379a0000000000000000000000000000000000000000000000000000000008152600401613c2d9061797d565b60405180910390fd5b8563ffffffff16816000015163ffffffff161415613cbb5784613c6588600185613c6091906171b2565b613e9c565b60000160046101000a8154817bffffffffffffffffffffffffffffffffffffffffffffffffffffffff02191690837bffffffffffffffffffffffffffffffffffffffffffffffffffffffff160217905550613d9b565b8660405180604001604052808863ffffffff168152602001877bffffffffffffffffffffffffffffffffffffffffffffffffffffffff168152509080600181540180825580915050600190039060005260206000200160009091909190915060008201518160000160006101000a81548163ffffffff021916908363ffffffff16021790555060208201518160000160046101000a8154817bffffffffffffffffffffffffffffffffffffffffffffffffffffffff02191690837bffffffffffffffffffffffffffffffffffffffffffffffffffffffff16021790555050505b806020015185935093505050613e94565b8560405180604001604052808763ffffffff168152602001867bffffffffffffffffffffffffffffffffffffffffffffffffffffffff168152509080600181540180825580915050600190039060005260206000200160009091909190915060008201518160000160006101000a81548163ffffffff021916908363ffffffff16021790555060208201518160000160046101000a8154817bffffffffffffffffffffffffffffffffffffffffffffffffffffffff02191690837bffffffffffffffffffffffffffffffffffffffffffffffffffffffff160217905550505060008492509250505b935093915050565b60008260005281602060002001905092915050565b6000639a802a6d60e01b630342018160e01b635f398a1460e01b7f79dd796f000000000000000000000000000000000000000000000000000000001818187bffffffffffffffffffffffffffffffffffffffffffffffffffffffff1916827bffffffffffffffffffffffffffffffffffffffffffffffffffffffff19161480613f9757507f79dd796f000000000000000000000000000000000000000000000000000000007bffffffffffffffffffffffffffffffffffffffffffffffffffffffff1916827bffffffffffffffffffffffffffffffffffffffffffffffffffffffff1916145b80613fff57507f4e2312e0000000000000000000000000000000000000000000000000000000007bffffffffffffffffffffffffffffffffffffffffffffffffffffffff1916827bffffffffffffffffffffffffffffffffffffffffffffffffffffffff1916145b8061400f575061400e82614d80565b5b9050919050565b60007f000000000000000000000000000000000000000000000000000000000000000073ffffffffffffffffffffffffffffffffffffffff163073ffffffffffffffffffffffffffffffffffffffff1614801561409257507f000000000000000000000000000000000000000000000000000000000000000046145b156140bf577f0000000000000000000000000000000000000000000000000000000000000000905061412d565b61412a7f00000000000000000000000000000000000000000000000000000000000000007f00000000000000000000000000000000000000000000000000000000000000007f0000000000000000000000000000000000000000000000000000000000000000614dea565b90505b90565b60008282604051602001614145929190617a15565b60405160208183030381529060405280519060200120905092915050565b6000807f7fffffffffffffffffffffffffffffff5d576e7357a4501ddfe92f46681b20a08360001c111561419e57600060039150915061423d565b6000600187878787604051600081526020016040526040516141c39493929190617a4c565b6020604051602081039080840390855afa1580156141e5573d6000803e3d6000fd5b505050602060405103519050600073ffffffffffffffffffffffffffffffffffffffff168173ffffffffffffffffffffffffffffffffffffffff1614156142345760006001925092505061423d565b80600092509250505b94509492505050565b6000600481111561425a57614259616333565b5b81600481111561426d5761426c616333565b5b1415614278576143b1565b6001600481111561428c5761428b616333565b5b81600481111561429f5761429e616333565b5b14156142e0576040517f08c379a00000000000000000000000000000000000000000000000000000000081526004016142d790617add565b60405180910390fd5b600260048111156142f4576142f3616333565b5b81600481111561430757614306616333565b5b1415614348576040517f08c379a000000000000000000000000000000000000000000000000000000000815260040161433f90617b49565b60405180910390fd5b6003600481111561435c5761435b616333565b5b81600481111561436f5761436e616333565b5b14156143b0576040517f08c379a00000000000000000000000000000000000000000000000000000000081526004016143a790617bdb565b60405180910390fd5b5b50565b600060066000878152602001908152602001600020905060008160080160008773ffffffffffffffffffffffffffffffffffffffff1673ffffffffffffffffffffffffffffffffffffffff16815260200190815260200160002090508060000160009054906101000a900460ff1615614462576040517f08c379a000000000000000000000000000000000000000000000000000000000815260040161445990617c6d565b60405180910390fd5b60018160000160006101000a81548160ff021916908315150217905550848160000160016101000a81548160ff021916908360ff1602179055506144a584614e24565b8160000160026101000a8154816bffffffffffffffffffffffff02191690836bffffffffffffffffffffffff160217905550600060028111156144eb576144ea616333565b5b60ff168560ff161415614518578382600601600082825461450c9190617133565b925050819055506145d6565b6001600281111561452c5761452b616333565b5b60ff168560ff161415614559578382600501600082825461454d9190617133565b925050819055506145d5565b60028081111561456c5761456b616333565b5b60ff168560ff161415614599578382600701600082825461458d9190617133565b925050819055506145d4565b6040517f08c379a00000000000000000000000000000000000000000000000000000000081526004016145cb90617cff565b60405180910390fd5b5b5b50505050505050565b60008160000160009054906101000a9004600f0b600f0b8260000160109054906101000a9004600f0b600f0b13159050919050565b60008260000160109054906101000a9004600f0b90508183600101600083600f0b600f0b815260200190815260200160002081905550600181018360000160106101000a8154816fffffffffffffffffffffffffffffffff0219169083600f0b6fffffffffffffffffffffffffffffffff160217905550505050565b600460009054906101000a900473ffffffffffffffffffffffffffffffffffffffff1673ffffffffffffffffffffffffffffffffffffffff1663e38335e5348686866000876040518763ffffffff1660e01b81526004016146f5959493929190616fe4565b6000604051808303818588803b15801561470e57600080fd5b505af1158015614722573d6000803e3d6000fd5b50505050505050505050565b60008160000160006101000a8154816fffffffffffffffffffffffffffffffff0219169083600f0b6fffffffffffffffffffffffffffffffff16021790555060008160000160106101000a8154816fffffffffffffffffffffffffffffffff0219169083600f0b6fffffffffffffffffffffffffffffffff16021790555050565b6000806001600084815260200190815260200160002090508060020160009054906101000a900460ff16156147e85760079150506148bf565b8060020160019054906101000a900460ff16156148095760029150506148bf565b6000614814846113e5565b9050600081141561485a576040517f08c379a000000000000000000000000000000000000000000000000000000000815260040161485190617d6b565b60405180910390fd5b43811061486c576000925050506148bf565b6000614877856120e8565b905043811061488c57600193505050506148bf565b61489585614e7f565b80156148a657506148a585614eb7565b5b156148b757600493505050506148bf565b600393505050505b919050565b6000806148d386868686614ee2565b90506000801b6005600083815260200190815260200160002054146149aa57600460009054906101000a900473ffffffffffffffffffffffffffffffffffffffff1673ffffffffffffffffffffffffffffffffffffffff1663c4d252f560056000848152602001908152602001600020546040518263ffffffff1660e01b81526004016149609190615e9d565b600060405180830381600087803b15801561497a57600080fd5b505af115801561498e573d6000803e3d6000fd5b5050505060056000828152602001908152602001600020600090555b80915050949350505050565b60005b81831015614a1e5760006149cd848461503b565b90508463ffffffff166149e08783613e9c565b60000160009054906101000a900463ffffffff1663ffffffff161115614a0857809250614a18565b600181614a159190617133565b93505b506149b9565b819050949350505050565b6000614a336120c2565b614a50614a3e612ed3565b600143614a4b91906171b2565b61277b565b1015614a91576040517f08c379a0000000000000000000000000000000000000000000000000000000008152600401614a8890617dfd565b60405180910390fd5b6000614aa686868686805190602001206122e4565b90508451865114614aec576040517f08c379a0000000000000000000000000000000000000000000000000000000008152600401614ae390617e8f565b60405180910390fd5b8351865114614b30576040517f08c379a0000000000000000000000000000000000000000000000000000000008152600401614b2790617e8f565b60405180910390fd5b6000865111614b74576040517f08c379a0000000000000000000000000000000000000000000000000000000008152600401614b6b90617efb565b60405180910390fd5b6000600160008381526020019081526020016000209050614bd4816000016040518060200160405290816000820160009054906101000a900467ffffffffffffffff1667ffffffffffffffff1667ffffffffffffffff1681525050615061565b614c13576040517f08c379a0000000000000000000000000000000000000000000000000000000008152600401614c0a90617f8d565b60405180910390fd5b6000614c25614c20611734565b61507b565b614c2e4361507b565b614c389190617fc1565b90506000614c4c614c47610d13565b61507b565b82614c579190617fc1565b9050614c6f82846000016150d290919063ffffffff16565b614c8581846001016150d290919063ffffffff16565b7f7d84a6263ae0d98d3329bd7b46bb4e8d6f98cd35a7adb45c274c8b7fd5ebd5e084614caf612ed3565b8b8b8d5167ffffffffffffffff811115614ccc57614ccb6157aa565b5b604051908082528060200260200182016040528015614cff57816020015b6060815260200190600190039081614cea5790505b508c88888e604051614d1999989796959493929190618030565b60405180910390a183945050505050949350505050565b600082511115614d435781518083602001fd5b806040517f08c379a0000000000000000000000000000000000000000000000000000000008152600401614d779190615a71565b60405180910390fd5b60007f01ffc9a7000000000000000000000000000000000000000000000000000000007bffffffffffffffffffffffffffffffffffffffffffffffffffffffff1916827bffffffffffffffffffffffffffffffffffffffffffffffffffffffff1916149050919050565b60008383834630604051602001614e059594939291906180e0565b6040516020818303038152906040528051906020012090509392505050565b60006bffffffffffffffffffffffff8016821115614e77576040517f08c379a0000000000000000000000000000000000000000000000000000000008152600401614e6e906181a5565b60405180910390fd5b819050919050565b6000806006600084815260200190815260200160002090508060050154614ead614ea8856113e5565b6127ac565b1115915050919050565b6000806006600084815260200190815260200160002090508060060154816005015411915050919050565b600080614ef1868686866122e4565b90506000614efe826117c7565b905060026007811115614f1457614f13616333565b5b816007811115614f2757614f26616333565b5b14158015614f5a575060066007811115614f4457614f43616333565b5b816007811115614f5757614f56616333565b5b14155b8015614f8a5750600780811115614f7457614f73616333565b5b816007811115614f8757614f86616333565b5b14155b614fc9576040517f08c379a0000000000000000000000000000000000000000000000000000000008152600401614fc090618211565b60405180910390fd5b600180600084815260200190815260200160002060020160016101000a81548160ff0219169083151502179055507f789cf55be980739dad1d0699b93b58e806b51c9d96619bfa8fe0a28abaa7b30c8260405161502691906156db565b60405180910390a18192505050949350505050565b6000600282841861504c9190617900565b8284166150599190617133565b905092915050565b600080826000015167ffffffffffffffff16149050919050565b600067ffffffffffffffff80168211156150ca576040517f08c379a00000000000000000000000000000000000000000000000000000000081526004016150c1906182a3565b60405180910390fd5b819050919050565b808260000160006101000a81548167ffffffffffffffff021916908367ffffffffffffffff1602179055505050565b6040518060600160405280600015158152602001600060ff16815260200160006bffffffffffffffffffffffff1681525090565b8280548282559060005260206000209081019282156151ae579160200282015b828111156151ad5782518260006101000a81548173ffffffffffffffffffffffffffffffffffffffff021916908373ffffffffffffffffffffffffffffffffffffffff16021790555091602001919060010190615155565b5b5090506151bb91906152cc565b5090565b8280548282559060005260206000209081019282156151fb579160200282015b828111156151fa5782518255916020019190600101906151df565b5b50905061520891906152cc565b5090565b82805482825590600052602060002090810192821561525b579160200282015b8281111561525a57825182908051906020019061524a9291906152e9565b509160200191906001019061522c565b5b509050615268919061536f565b5090565b8280548282559060005260206000209081019282156152bb579160200282015b828111156152ba5782518290805190602001906152aa929190615393565b509160200191906001019061528c565b5b5090506152c89190615419565b5090565b5b808211156152e55760008160009055506001016152cd565b5090565b8280546152f590616e96565b90600052602060002090601f016020900481019282615317576000855561535e565b82601f1061533057805160ff191683800117855561535e565b8280016001018555821561535e579182015b8281111561535d578251825591602001919060010190615342565b5b50905061536b91906152cc565b5090565b5b8082111561538f5760008181615386919061543d565b50600101615370565b5090565b82805461539f90616e96565b90600052602060002090601f0160209004810192826153c15760008555615408565b82601f106153da57805160ff1916838001178555615408565b82800160010185558215615408579182015b828111156154075782518255916020019190600101906153ec565b5b50905061541591906152cc565b5090565b5b808211156154395760008181615430919061547d565b5060010161541a565b5090565b50805461544990616e96565b6000825580601f1061545b575061547a565b601f01602090049060005260206000209081019061547991906152cc565b5b50565b50805461548990616e96565b6000825580601f1061549b57506154ba565b601f0160209004906000526020600020908101906154b991906152cc565b5b50565b6000604051905090565b600080fd5b600080fd5b6000819050919050565b6154e4816154d1565b81146154ef57600080fd5b50565b600081359050615501816154db565b92915050565b60006020828403121561551d5761551c6154c7565b5b600061552b848285016154f2565b91505092915050565b61553d816154d1565b82525050565b600073ffffffffffffffffffffffffffffffffffffffff82169050919050565b600061556e82615543565b9050919050565b61557e81615563565b82525050565b60008115159050919050565b61559981615584565b82525050565b6000610140820190506155b5600083018d615534565b6155c2602083018c615575565b6155cf604083018b615534565b6155dc606083018a615534565b6155e96080830189615534565b6155f660a0830188615534565b61560360c0830187615534565b61561060e0830186615534565b61561e610100830185615590565b61562c610120830184615590565b9b9a5050505050505050505050565b60007fffffffff0000000000000000000000000000000000000000000000000000000082169050919050565b6156708161563b565b811461567b57600080fd5b50565b60008135905061568d81615667565b92915050565b6000602082840312156156a9576156a86154c7565b5b60006156b78482850161567e565b91505092915050565b60006020820190506156d56000830184615590565b92915050565b60006020820190506156f06000830184615534565b92915050565b600060ff82169050919050565b61570c816156f6565b811461571757600080fd5b50565b60008135905061572981615703565b92915050565b600080fd5b600080fd5b600080fd5b60008083601f8401126157545761575361572f565b5b8235905067ffffffffffffffff81111561577157615770615734565b5b60208301915083600182028301111561578d5761578c615739565b5b9250929050565b600080fd5b6000601f19601f8301169050919050565b7f4e487b7100000000000000000000000000000000000000000000000000000000600052604160045260246000fd5b6157e282615799565b810181811067ffffffffffffffff82111715615801576158006157aa565b5b80604052505050565b60006158146154bd565b905061582082826157d9565b919050565b600067ffffffffffffffff8211156158405761583f6157aa565b5b61584982615799565b9050602081019050919050565b82818337600083830152505050565b600061587861587384615825565b61580a565b90508281526020810184848401111561589457615893615794565b5b61589f848285615856565b509392505050565b600082601f8301126158bc576158bb61572f565b5b81356158cc848260208601615865565b91505092915050565b6000819050919050565b6158e8816158d5565b81146158f357600080fd5b50565b600081359050615905816158df565b92915050565b60008060008060008060008060e0898b03121561592b5761592a6154c7565b5b60006159398b828c016154f2565b985050602061594a8b828c0161571a565b975050604089013567ffffffffffffffff81111561596b5761596a6154cc565b5b6159778b828c0161573e565b9650965050606089013567ffffffffffffffff81111561599a576159996154cc565b5b6159a68b828c016158a7565b94505060806159b78b828c0161571a565b93505060a06159c88b828c016158f6565b92505060c06159d98b828c016158f6565b9150509295985092959890939650565b600081519050919050565b600082825260208201905092915050565b60005b83811015615a23578082015181840152602081019050615a08565b83811115615a32576000848401525b50505050565b6000615a43826159e9565b615a4d81856159f4565b9350615a5d818560208601615a05565b615a6681615799565b840191505092915050565b60006020820190508181036000830152615a8b8184615a38565b905092915050565b615a9c81615563565b8114615aa757600080fd5b50565b600081359050615ab981615a93565b92915050565b60008060008060808587031215615ad957615ad86154c7565b5b6000615ae787828801615aaa565b9450506020615af887828801615aaa565b9350506040615b09878288016154f2565b925050606085013567ffffffffffffffff811115615b2a57615b296154cc565b5b615b36878288016158a7565b91505092959194509250565b615b4b8161563b565b82525050565b6000602082019050615b666000830184615b42565b92915050565b600067ffffffffffffffff821115615b8757615b866157aa565b5b602082029050602081019050919050565b6000615bab615ba684615b6c565b61580a565b90508083825260208201905060208402830185811115615bce57615bcd615739565b5b835b81811015615bf75780615be38882615aaa565b845260208401935050602081019050615bd0565b5050509392505050565b600082601f830112615c1657615c1561572f565b5b8135615c26848260208601615b98565b91505092915050565b600067ffffffffffffffff821115615c4a57615c496157aa565b5b602082029050602081019050919050565b6000615c6e615c6984615c2f565b61580a565b90508083825260208201905060208402830185811115615c9157615c90615739565b5b835b81811015615cba5780615ca688826154f2565b845260208401935050602081019050615c93565b5050509392505050565b600082601f830112615cd957615cd861572f565b5b8135615ce9848260208601615c5b565b91505092915050565b600067ffffffffffffffff821115615d0d57615d0c6157aa565b5b602082029050602081019050919050565b6000615d31615d2c84615cf2565b61580a565b90508083825260208201905060208402830185811115615d5457615d53615739565b5b835b81811015615d9b57803567ffffffffffffffff811115615d7957615d7861572f565b5b808601615d8689826158a7565b85526020850194505050602081019050615d56565b5050509392505050565b600082601f830112615dba57615db961572f565b5b8135615dca848260208601615d1e565b91505092915050565b60008060008060808587031215615ded57615dec6154c7565b5b600085013567ffffffffffffffff811115615e0b57615e0a6154cc565b5b615e1787828801615c01565b945050602085013567ffffffffffffffff811115615e3857615e376154cc565b5b615e4487828801615cc4565b935050604085013567ffffffffffffffff811115615e6557615e646154cc565b5b615e7187828801615da5565b9250506060615e82878288016158f6565b91505092959194509250565b615e97816158d5565b82525050565b6000602082019050615eb26000830184615e8e565b92915050565b600081519050919050565b600082825260208201905092915050565b6000819050602082019050919050565b615eed81615563565b82525050565b6000615eff8383615ee4565b60208301905092915050565b6000602082019050919050565b6000615f2382615eb8565b615f2d8185615ec3565b9350615f3883615ed4565b8060005b83811015615f69578151615f508882615ef3565b9750615f5b83615f0b565b925050600181019050615f3c565b5085935050505092915050565b600081519050919050565b600082825260208201905092915050565b6000819050602082019050919050565b615fab816154d1565b82525050565b6000615fbd8383615fa2565b60208301905092915050565b6000602082019050919050565b6000615fe182615f76565b615feb8185615f81565b9350615ff683615f92565b8060005b8381101561602757815161600e8882615fb1565b975061601983615fc9565b925050600181019050615ffa565b5085935050505092915050565b600081519050919050565b600082825260208201905092915050565b6000819050602082019050919050565b600082825260208201905092915050565b600061607c826159e9565b6160868185616060565b9350616096818560208601615a05565b61609f81615799565b840191505092915050565b60006160b68383616071565b905092915050565b6000602082019050919050565b60006160d682616034565b6160e0818561603f565b9350836020820285016160f285616050565b8060005b8581101561612e578484038952815161610f85826160aa565b945061611a836160be565b925060208a019950506001810190506160f6565b50829750879550505050505092915050565b600081519050919050565b600082825260208201905092915050565b6000819050602082019050919050565b600081519050919050565b600082825260208201905092915050565b60006161938261616c565b61619d8185616177565b93506161ad818560208601615a05565b6161b681615799565b840191505092915050565b60006161cd8383616188565b905092915050565b6000602082019050919050565b60006161ed82616140565b6161f7818561614b565b9350836020820285016162098561615c565b8060005b85811015616245578484038952815161622685826161c1565b9450616231836161d5565b925060208a0199505060018101905061620d565b50829750879550505050505092915050565b600060808201905081810360008301526162718187615f18565b905081810360208301526162858186615fd6565b9050818103604083015261629981856160cb565b905081810360608301526162ad81846161e2565b905095945050505050565b600080600080600060a086880312156162d4576162d36154c7565b5b60006162e2888289016154f2565b95505060206162f38882890161571a565b94505060406163048882890161571a565b9350506060616315888289016158f6565b9250506080616326888289016158f6565b9150509295509295909350565b7f4e487b7100000000000000000000000000000000000000000000000000000000600052602160045260246000fd5b6008811061637357616372616333565b5b50565b600081905061638482616362565b919050565b600061639482616376565b9050919050565b6163a481616389565b82525050565b60006020820190506163bf600083018461639b565b92915050565b600080604083850312156163dc576163db6154c7565b5b60006163ea858286016154f2565b92505060206163fb85828601615aaa565b9150509250929050565b6000806040838503121561641c5761641b6154c7565b5b600061642a858286016154f2565b925050602061643b8582860161571a565b9150509250929050565b600080600080600060808688031215616461576164606154c7565b5b600061646f888289016154f2565b95505060206164808882890161571a565b945050604086013567ffffffffffffffff8111156164a1576164a06154cc565b5b6164ad8882890161573e565b9350935050606086013567ffffffffffffffff8111156164d0576164cf6154cc565b5b6164dc888289016158a7565b9150509295509295909350565b60008060008060608587031215616503576165026154c7565b5b6000616511878288016154f2565b94505060206165228782880161571a565b935050604085013567ffffffffffffffff811115616543576165426154cc565b5b61654f8782880161573e565b925092505092959194509250565b600067ffffffffffffffff821115616578576165776157aa565b5b61658182615799565b9050602081019050919050565b60006165a161659c8461655d565b61580a565b9050828152602081018484840111156165bd576165bc615794565b5b6165c8848285615856565b509392505050565b600082601f8301126165e5576165e461572f565b5b81356165f584826020860161658e565b91505092915050565b60008060008060808587031215616618576166176154c7565b5b600085013567ffffffffffffffff811115616636576166356154cc565b5b61664287828801615c01565b945050602085013567ffffffffffffffff811115616663576166626154cc565b5b61666f87828801615cc4565b935050604085013567ffffffffffffffff8111156166905761668f6154cc565b5b61669c87828801615da5565b925050606085013567ffffffffffffffff8111156166bd576166bc6154cc565b5b6166c9878288016165d0565b91505092959194509250565b6000806000606084860312156166ee576166ed6154c7565b5b60006166fc86828701615aaa565b935050602061670d868287016154f2565b925050604084013567ffffffffffffffff81111561672e5761672d6154cc565b5b61673a868287016158a7565b9150509250925092565b600061674f82615543565b9050919050565b600061676182616744565b9050919050565b61677181616756565b811461677c57600080fd5b50565b60008135905061678e81616768565b92915050565b6000602082840312156167aa576167a96154c7565b5b60006167b88482850161677f565b91505092915050565b600080600080600060a086880312156167dd576167dc6154c7565b5b60006167eb88828901615aaa565b95505060206167fc88828901615aaa565b945050604086013567ffffffffffffffff81111561681d5761681c6154cc565b5b61682988828901615cc4565b935050606086013567ffffffffffffffff81111561684a576168496154cc565b5b61685688828901615cc4565b925050608086013567ffffffffffffffff811115616877576168766154cc565b5b616883888289016158a7565b9150509295509295909350565b60008083601f8401126168a6576168a561572f565b5b8235905067ffffffffffffffff8111156168c3576168c2615734565b5b6020830191508360018202830111156168df576168de615739565b5b9250929050565b60008060008060608587031215616900576168ff6154c7565b5b600061690e87828801615aaa565b945050602061691f878288016154f2565b935050604085013567ffffffffffffffff8111156169405761693f6154cc565b5b61694c87828801616890565b925092505092959194509250565b600060208201905061696f6000830184615575565b92915050565b600067ffffffffffffffff8211156169905761698f6157aa565b5b602082029050602081019050919050565b60006169b46169af84616975565b61580a565b905080838252602082019050602084028301858111156169d7576169d6615739565b5b835b81811015616a1e57803567ffffffffffffffff8111156169fc576169fb61572f565b5b808601616a0989826165d0565b855260208501945050506020810190506169d9565b5050509392505050565b600082601f830112616a3d57616a3c61572f565b5b8135616a4d8482602086016169a1565b91505092915050565b600080600080600060a08688031215616a7257616a716154c7565b5b600086013567ffffffffffffffff811115616a9057616a8f6154cc565b5b616a9c88828901615c01565b955050602086013567ffffffffffffffff811115616abd57616abc6154cc565b5b616ac988828901615cc4565b945050604086013567ffffffffffffffff811115616aea57616ae96154cc565b5b616af688828901616a28565b935050606086013567ffffffffffffffff811115616b1757616b166154cc565b5b616b2388828901615da5565b925050608086013567ffffffffffffffff811115616b4457616b436154cc565b5b616b50888289016165d0565b9150509295509295909350565b616b6681615584565b82525050565b616b75816156f6565b82525050565b60006bffffffffffffffffffffffff82169050919050565b616b9c81616b7b565b82525050565b606082016000820151616bb86000850182616b5d565b506020820151616bcb6020850182616b6c565b506040820151616bde6040850182616b93565b50505050565b6000606082019050616bf96000830184616ba2565b92915050565b60008060408385031215616c1657616c156154c7565b5b6000616c2485828601615aaa565b9250506020616c35858286016154f2565b9150509250929050565b600080600080600060a08688031215616c5b57616c5a6154c7565b5b6000616c6988828901615aaa565b9550506020616c7a88828901615aaa565b9450506040616c8b888289016154f2565b9350506060616c9c888289016154f2565b925050608086013567ffffffffffffffff811115616cbd57616cbc6154cc565b5b616cc9888289016158a7565b9150509295509295909350565b6000819050919050565b6000616cfb616cf6616cf184615543565b616cd6565b615543565b9050919050565b6000616d0d82616ce0565b9050919050565b6000616d1f82616d02565b9050919050565b616d2f81616d14565b82525050565b6000602082019050616d4a6000830184616d26565b92915050565b600081905092915050565b6000616d678385616d50565b9350616d74838584615856565b82840190509392505050565b6000616d8d828486616d5b565b91508190509392505050565b616da2816156f6565b82525050565b600060a082019050616dbd6000830188615e8e565b616dca6020830187615534565b616dd76040830186616d99565b616de46060830185615e8e565b616df16080830184615e8e565b9695505050505050565b7f476f7665726e6f723a206f6e6c79476f7665726e616e63650000000000000000600082015250565b6000616e316018836159f4565b9150616e3c82616dfb565b602082019050919050565b60006020820190508181036000830152616e6081616e24565b9050919050565b7f4e487b7100000000000000000000000000000000000000000000000000000000600052602260045260246000fd5b60006002820490506001821680616eae57607f821691505b60208210811415616ec257616ec1616e67565b5b50919050565b7f476f7665726e6f723a2070726f706f73616c206e6f742073756363657373667560008201527f6c00000000000000000000000000000000000000000000000000000000000000602082015250565b6000616f246021836159f4565b9150616f2f82616ec8565b604082019050919050565b60006020820190508181036000830152616f5381616f17565b9050919050565b600081519050616f69816154db565b92915050565b600060208284031215616f8557616f846154c7565b5b6000616f9384828501616f5a565b91505092915050565b6000819050919050565b60008160001b9050919050565b6000616fce616fc9616fc484616f9c565b616fa6565b6158d5565b9050919050565b616fde81616fb3565b82525050565b600060a0820190508181036000830152616ffe8188615f18565b905081810360208301526170128187615fd6565b9050818103604083015261702681866161e2565b90506170356060830185616fd5565b6170426080830184615e8e565b9695505050505050565b60008151905061705b816158df565b92915050565b600060208284031215617077576170766154c7565b5b60006170858482850161704c565b91505092915050565b600060c08201905081810360008301526170a88189615f18565b905081810360208301526170bc8188615fd6565b905081810360408301526170d081876161e2565b90506170df6060830186616fd5565b6170ec6080830185615e8e565b6170f960a0830184615534565b979650505050505050565b7f4e487b7100000000000000000000000000000000000000000000000000000000600052601160045260246000fd5b600061713e826154d1565b9150617149836154d1565b9250827fffffffffffffffffffffffffffffffffffffffffffffffffffffffffffffffff0382111561717e5761717d617104565b5b828201905092915050565b600060408201905061719e6000830185615534565b6171ab6020830184615534565b9392505050565b60006171bd826154d1565b91506171c8836154d1565b9250828210156171db576171da617104565b5b828203905092915050565b60006060820190506171fb6000830186615e8e565b6172086020830185615534565b6172156040830184616d99565b949350505050565b7f476f7665726e6f72427261766f3a2070726f706f7365722061626f766520746860008201527f726573686f6c6400000000000000000000000000000000000000000000000000602082015250565b60006172796027836159f4565b91506172848261721d565b604082019050919050565b600060208201905081810360008301526172a88161726c565b9050919050565b7f4e487b7100000000000000000000000000000000000000000000000000000000600052603260045260246000fd5b600060808201905081810360008301526172f88187615f18565b9050818103602083015261730c8186615fd6565b9050818103604083015261732081856161e2565b905061732f6060830184615e8e565b95945050505050565b7f53616665436173743a2076616c756520646f65736e27742066697420696e203260008201527f3234206269747300000000000000000000000000000000000000000000000000602082015250565b60006173946027836159f4565b915061739f82617338565b604082019050919050565b600060208201905081810360008301526173c381617387565b9050919050565b7f53616665436173743a2076616c756520646f65736e27742066697420696e203360008201527f3220626974730000000000000000000000000000000000000000000000000000602082015250565b60006174266026836159f4565b9150617431826173ca565b604082019050919050565b6000602082019050818103600083015261745581617419565b9050919050565b7f476f7665726e6f723a20766f7465206e6f742063757272656e746c792061637460008201527f6976650000000000000000000000000000000000000000000000000000000000602082015250565b60006174b86023836159f4565b91506174c38261745c565b604082019050919050565b600060208201905081810360008301526174e7816174ab565b9050919050565b60006080820190506175036000830187615534565b6175106020830186616d99565b61751d6040830185615534565b818103606083015261752f8184615a38565b905095945050505050565b600082825260208201905092915050565b60006175568261616c565b617560818561753a565b9350617570818560208601615a05565b61757981615799565b840191505092915050565b600060a0820190506175996000830188615534565b6175a66020830187616d99565b6175b36040830186615534565b81810360608301526175c58185615a38565b905081810360808301526175d9818461754b565b90509695505050505050565b7f476f7665726e6f72566f74657351756f72756d4672616374696f6e3a2071756f60008201527f72756d4e756d657261746f72206f7665722071756f72756d44656e6f6d696e6160208201527f746f720000000000000000000000000000000000000000000000000000000000604082015250565b60006176676043836159f4565b9150617672826175e5565b606082019050919050565b600060208201905081810360008301526176968161765a565b9050919050565b60006176a8826154d1565b91507fffffffffffffffffffffffffffffffffffffffffffffffffffffffffffffffff8214156176db576176da617104565b5b600182019050919050565b6176ef81615584565b81146176fa57600080fd5b50565b60008151905061770c816176e6565b92915050565b600060208284031215617728576177276154c7565b5b6000617736848285016176fd565b91505092915050565b6000819050919050565b61775a6177558261563b565b61773f565b82525050565b600061776b8261616c565b6177758185616d50565b9350617785818560208601615a05565b80840191505092915050565b600061779d8285617749565b6004820191506177ad8284617760565b91508190509392505050565b7f436865636b706f696e74733a20626c6f636b206e6f7420796574206d696e6564600082015250565b60006177ef6020836159f4565b91506177fa826177b9565b602082019050919050565b6000602082019050818103600083015261781e816177e2565b9050919050565b600060408201905061783a6000830185615575565b6178476020830184615534565b9392505050565b60006040820190506178636000830185615575565b6178706020830184615575565b9392505050565b6000617882826154d1565b915061788d836154d1565b9250817fffffffffffffffffffffffffffffffffffffffffffffffffffffffffffffffff04831182151516156178c6576178c5617104565b5b828202905092915050565b7f4e487b7100000000000000000000000000000000000000000000000000000000600052601260045260246000fd5b600061790b826154d1565b9150617916836154d1565b925082617926576179256178d1565b5b828204905092915050565b7f436865636b706f696e743a20696e76616c6964206b6579000000000000000000600082015250565b60006179676017836159f4565b915061797282617931565b602082019050919050565b600060208201905081810360008301526179968161795a565b9050919050565b600081905092915050565b7f1901000000000000000000000000000000000000000000000000000000000000600082015250565b60006179de60028361799d565b91506179e9826179a8565b600282019050919050565b6000819050919050565b617a0f617a0a826158d5565b6179f4565b82525050565b6000617a20826179d1565b9150617a2c82856179fe565b602082019150617a3c82846179fe565b6020820191508190509392505050565b6000608082019050617a616000830187615e8e565b617a6e6020830186616d99565b617a7b6040830185615e8e565b617a886060830184615e8e565b95945050505050565b7f45434453413a20696e76616c6964207369676e61747572650000000000000000600082015250565b6000617ac76018836159f4565b9150617ad282617a91565b602082019050919050565b60006020820190508181036000830152617af681617aba565b9050919050565b7f45434453413a20696e76616c6964207369676e6174757265206c656e67746800600082015250565b6000617b33601f836159f4565b9150617b3e82617afd565b602082019050919050565b60006020820190508181036000830152617b6281617b26565b9050919050565b7f45434453413a20696e76616c6964207369676e6174757265202773272076616c60008201527f7565000000000000000000000000000000000000000000000000000000000000602082015250565b6000617bc56022836159f4565b9150617bd082617b69565b604082019050919050565b60006020820190508181036000830152617bf481617bb8565b9050919050565b7f476f7665726e6f72436f6d7061746962696c697479427261766f3a20766f746560008201527f20616c7265616479206361737400000000000000000000000000000000000000602082015250565b6000617c57602d836159f4565b9150617c6282617bfb565b604082019050919050565b60006020820190508181036000830152617c8681617c4a565b9050919050565b7f476f7665726e6f72436f6d7061746962696c697479427261766f3a20696e766160008201527f6c696420766f7465207479706500000000000000000000000000000000000000602082015250565b6000617ce9602d836159f4565b9150617cf482617c8d565b604082019050919050565b60006020820190508181036000830152617d1881617cdc565b9050919050565b7f476f7665726e6f723a20756e6b6e6f776e2070726f706f73616c206964000000600082015250565b6000617d55601d836159f4565b9150617d6082617d1f565b602082019050919050565b60006020820190508181036000830152617d8481617d48565b9050919050565b7f476f7665726e6f723a2070726f706f73657220766f7465732062656c6f77207060008201527f726f706f73616c207468726573686f6c64000000000000000000000000000000602082015250565b6000617de76031836159f4565b9150617df282617d8b565b604082019050919050565b60006020820190508181036000830152617e1681617dda565b9050919050565b7f476f7665726e6f723a20696e76616c69642070726f706f73616c206c656e677460008201527f6800000000000000000000000000000000000000000000000000000000000000602082015250565b6000617e796021836159f4565b9150617e8482617e1d565b604082019050919050565b60006020820190508181036000830152617ea881617e6c565b9050919050565b7f476f7665726e6f723a20656d7074792070726f706f73616c0000000000000000600082015250565b6000617ee56018836159f4565b9150617ef082617eaf565b602082019050919050565b60006020820190508181036000830152617f1481617ed8565b9050919050565b7f476f7665726e6f723a2070726f706f73616c20616c726561647920657869737460008201527f7300000000000000000000000000000000000000000000000000000000000000602082015250565b6000617f776021836159f4565b9150617f8282617f1b565b604082019050919050565b60006020820190508181036000830152617fa681617f6a565b9050919050565b600067ffffffffffffffff82169050919050565b6000617fcc82617fad565b9150617fd783617fad565b92508267ffffffffffffffff03821115617ff457617ff3617104565b5b828201905092915050565b600061801a61801561801084617fad565b616cd6565b6154d1565b9050919050565b61802a81617fff565b82525050565b600061012082019050618046600083018c615534565b618053602083018b615575565b8181036040830152618065818a615f18565b905081810360608301526180798189615fd6565b9050818103608083015261808d81886160cb565b905081810360a08301526180a181876161e2565b90506180b060c0830186618021565b6180bd60e0830185618021565b8181036101008301526180d08184615a38565b90509a9950505050505050505050565b600060a0820190506180f56000830188615e8e565b6181026020830187615e8e565b61810f6040830186615e8e565b61811c6060830185615534565b6181296080830184615575565b9695505050505050565b7f53616665436173743a2076616c756520646f65736e27742066697420696e203960008201527f3620626974730000000000000000000000000000000000000000000000000000602082015250565b600061818f6026836159f4565b915061819a82618133565b604082019050919050565b600060208201905081810360008301526181be81618182565b9050919050565b7f476f7665726e6f723a2070726f706f73616c206e6f7420616374697665000000600082015250565b60006181fb601d836159f4565b9150618206826181c5565b602082019050919050565b6000602082019050818103600083015261822a816181ee565b9050919050565b7f53616665436173743a2076616c756520646f65736e27742066697420696e203660008201527f3420626974730000000000000000000000000000000000000000000000000000602082015250565b600061828d6026836159f4565b915061829882618231565b604082019050919050565b600060208201905081810360008301526182bc81618280565b905091905056fe476f7665726e6f723a2072656c617920726576657274656420776974686f7574206d657373616765a2646970667358221220bc99f221f767b5026b3bee2596a820c937e4a056df9747fc15f511a172b8b71464736f6c63430008090033",
  "linkReferences": {},
  "deployedLinkReferences": {}
}