{
  "_format": "hh-sol-artifact-1",
  "contractName": "ERC165CheckerMock",
  "sourceName": "contracts/openzeppelin/mocks/ERC165CheckerMock.sol",
  "abi": [
    {
      "inputs": [
        {
          "internalType": "address",
          "name": "account",
          "type": "address"
        },
        {
          "internalType": "bytes4[]",
          "name": "interfaceIds",
          "type": "bytes4[]"
        }
      ],
      "name": "getSupportedInterfaces",
      "outputs": [
        {
          "internalType": "bool[]",
          "name": "",
          "type": "bool[]"
        }
      ],
      "stateMutability": "view",
      "type": "function"
    },
    {
      "inputs": [
        {
          "internalType": "address",
          "name": "account",
          "type": "address"
        },
        {
          "internalType": "bytes4[]",
          "name": "interfaceIds",
          "type": "bytes4[]"
        }
      ],
      "name": "supportsAllInterfaces",
      "outputs": [
        {
          "internalType": "bool",
          "name": "",
          "type": "bool"
        }
      ],
      "stateMutability": "view",
      "type": "function"
    },
    {
      "inputs": [
        {
          "internalType": "address",
          "name": "account",
          "type": "address"
        }
      ],
      "name": "supportsERC165",
      "outputs": [
        {
          "internalType": "bool",
          "name": "",
          "type": "bool"
        }
      ],
      "stateMutability": "view",
      "type": "function"
    },
    {
      "inputs": [
        {
          "internalType": "address",
          "name": "account",
          "type": "address"
        },
        {
          "internalType": "bytes4",
          "name": "interfaceId",
          "type": "bytes4"
        }
      ],
      "name": "supportsERC165InterfaceUnchecked",
      "outputs": [
        {
          "internalType": "bool",
          "name": "",
          "type": "bool"
        }
      ],
      "stateMutability": "view",
      "type": "function"
    },
    {
      "inputs": [
        {
          "internalType": "address",
          "name": "account",
          "type": "address"
        },
        {
          "internalType": "bytes4",
          "name": "interfaceId",
          "type": "bytes4"
        }
      ],
      "name": "supportsInterface",
      "outputs": [
        {
          "internalType": "bool",
          "name": "",
          "type": "bool"
        }
      ],
      "stateMutability": "view",
      "type": "function"
    }
  ],
  "bytecode": "0x608060405234801561001057600080fd5b506109cb806100206000396000f3fe608060405234801561001057600080fd5b50600436106100575760003560e01c80634b9dd9041461005c57806355a899751461008c57806377e6b4cc146100bc578063c398a925146100ec578063d90570071461011c575b600080fd5b610076600480360381019061007191906106db565b61014c565b6040516100839190610752565b60405180910390f35b6100a660048036038101906100a1919061076d565b61017f565b6040516100b39190610752565b60405180910390f35b6100d660048036038101906100d191906106db565b6101b2565b6040516100e3919061086b565b60405180910390f35b6101066004803603810190610101919061088d565b6101e5565b6040516101139190610752565b60405180910390f35b6101366004803603810190610131919061076d565b61020d565b6040516101439190610752565b60405180910390f35b6000610177828473ffffffffffffffffffffffffffffffffffffffff1661024090919063ffffffff16565b905092915050565b60006101aa828473ffffffffffffffffffffffffffffffffffffffff166102b590919063ffffffff16565b905092915050565b60606101dd828473ffffffffffffffffffffffffffffffffffffffff1661037490919063ffffffff16565b905092915050565b60006102068273ffffffffffffffffffffffffffffffffffffffff16610446565b9050919050565b6000610238828473ffffffffffffffffffffffffffffffffffffffff1661049390919063ffffffff16565b905092915050565b600061024b83610446565b61025857600090506102af565b60005b82518110156102a9576102888484838151811061027b5761027a6108ba565b5b60200260200101516102b5565b6102965760009150506102af565b80806102a190610922565b91505061025b565b50600190505b92915050565b6000806301ffc9a760e01b836040516024016102d1919061097a565b604051602081830303815290604052907bffffffffffffffffffffffffffffffffffffffffffffffffffffffff19166020820180517bffffffffffffffffffffffffffffffffffffffffffffffffffffffff838183161783525050505090506000806000602060008551602087018a617530fa92503d9150600051905082801561035c575060208210155b80156103685750600081115b94505050505092915050565b60606000825167ffffffffffffffff81111561039357610392610540565b5b6040519080825280602002602001820160405280156103c15781602001602082028036833780820191505090505b5090506103cd84610446565b1561043c5760005b835181101561043a57610402858583815181106103f5576103f46108ba565b5b60200260200101516102b5565b828281518110610415576104146108ba565b5b602002602001019015159081151581525050808061043290610922565b9150506103d5565b505b8091505092915050565b6000610472827f01ffc9a7000000000000000000000000000000000000000000000000000000006102b5565b801561048c575061048a8263ffffffff60e01b6102b5565b155b9050919050565b600061049e83610446565b80156104b057506104af83836102b5565b5b905092915050565b6000604051905090565b600080fd5b600080fd5b600073ffffffffffffffffffffffffffffffffffffffff82169050919050565b60006104f7826104cc565b9050919050565b610507816104ec565b811461051257600080fd5b50565b600081359050610524816104fe565b92915050565b600080fd5b6000601f19601f8301169050919050565b7f4e487b7100000000000000000000000000000000000000000000000000000000600052604160045260246000fd5b6105788261052f565b810181811067ffffffffffffffff8211171561059757610596610540565b5b80604052505050565b60006105aa6104b8565b90506105b6828261056f565b919050565b600067ffffffffffffffff8211156105d6576105d5610540565b5b602082029050602081019050919050565b600080fd5b60007fffffffff0000000000000000000000000000000000000000000000000000000082169050919050565b610621816105ec565b811461062c57600080fd5b50565b60008135905061063e81610618565b92915050565b6000610657610652846105bb565b6105a0565b9050808382526020820190506020840283018581111561067a576106796105e7565b5b835b818110156106a3578061068f888261062f565b84526020840193505060208101905061067c565b5050509392505050565b600082601f8301126106c2576106c161052a565b5b81356106d2848260208601610644565b91505092915050565b600080604083850312156106f2576106f16104c2565b5b600061070085828601610515565b925050602083013567ffffffffffffffff811115610721576107206104c7565b5b61072d858286016106ad565b9150509250929050565b60008115159050919050565b61074c81610737565b82525050565b60006020820190506107676000830184610743565b92915050565b60008060408385031215610784576107836104c2565b5b600061079285828601610515565b92505060206107a38582860161062f565b9150509250929050565b600081519050919050565b600082825260208201905092915050565b6000819050602082019050919050565b6107e281610737565b82525050565b60006107f483836107d9565b60208301905092915050565b6000602082019050919050565b6000610818826107ad565b61082281856107b8565b935061082d836107c9565b8060005b8381101561085e57815161084588826107e8565b975061085083610800565b925050600181019050610831565b5085935050505092915050565b60006020820190508181036000830152610885818461080d565b905092915050565b6000602082840312156108a3576108a26104c2565b5b60006108b184828501610515565b91505092915050565b7f4e487b7100000000000000000000000000000000000000000000000000000000600052603260045260246000fd5b7f4e487b7100000000000000000000000000000000000000000000000000000000600052601160045260246000fd5b6000819050919050565b600061092d82610918565b91507fffffffffffffffffffffffffffffffffffffffffffffffffffffffffffffffff8214156109605761095f6108e9565b5b600182019050919050565b610974816105ec565b82525050565b600060208201905061098f600083018461096b565b9291505056fea2646970667358221220cd7707d09a2549e07c42b86336ee98f13b2640ab9e29f45bae3c68c08fdf213f64736f6c63430008090033",
  "linkReferences": {},
  "deployedLinkReferences": {}
}