{
  "_format": "hh-sol-artifact-1",
  "contractName": "ERC20VotesCompMock",
  "sourceName": "contracts/openzeppelin/mocks/ERC20VotesCompMock.sol",
  "abi": [
    {
      "inputs": [
        {
          "internalType": "string",
          "name": "name",
          "type": "string"
        },
        {
          "internalType": "string",
          "name": "symbol",
          "type": "string"
        }
      ],
      "stateMutability": "nonpayable",
      "type": "constructor"
    },
    {
      "anonymous": false,
      "inputs": [
        {
          "indexed": true,
          "internalType": "address",
          "name": "owner",
          "type": "address"
        },
        {
          "indexed": true,
          "internalType": "address",
          "name": "spender",
          "type": "address"
        },
        {
          "indexed": false,
          "internalType": "uint256",
          "name": "value",
          "type": "uint256"
        }
      ],
      "name": "Approval",
      "type": "event"
    },
    {
      "anonymous": false,
      "inputs": [
        {
          "indexed": true,
          "internalType": "address",
          "name": "delegator",
          "type": "address"
        },
        {
          "indexed": true,
          "internalType": "address",
          "name": "fromDelegate",
          "type": "address"
        },
        {
          "indexed": true,
          "internalType": "address",
          "name": "toDelegate",
          "type": "address"
        }
      ],
      "name": "DelegateChanged",
      "type": "event"
    },
    {
      "anonymous": false,
      "inputs": [
        {
          "indexed": true,
          "internalType": "address",
          "name": "delegate",
          "type": "address"
        },
        {
          "indexed": false,
          "internalType": "uint256",
          "name": "previousBalance",
          "type": "uint256"
        },
        {
          "indexed": false,
          "internalType": "uint256",
          "name": "newBalance",
          "type": "uint256"
        }
      ],
      "name": "DelegateVotesChanged",
      "type": "event"
    },
    {
      "anonymous": false,
      "inputs": [
        {
          "indexed": true,
          "internalType": "address",
          "name": "from",
          "type": "address"
        },
        {
          "indexed": true,
          "internalType": "address",
          "name": "to",
          "type": "address"
        },
        {
          "indexed": false,
          "internalType": "uint256",
          "name": "value",
          "type": "uint256"
        }
      ],
      "name": "Transfer",
      "type": "event"
    },
    {
      "inputs": [],
      "name": "DOMAIN_SEPARATOR",
      "outputs": [
        {
          "internalType": "bytes32",
          "name": "",
          "type": "bytes32"
        }
      ],
      "stateMutability": "view",
      "type": "function"
    },
    {
      "inputs": [
        {
          "internalType": "address",
          "name": "owner",
          "type": "address"
        },
        {
          "internalType": "address",
          "name": "spender",
          "type": "address"
        }
      ],
      "name": "allowance",
      "outputs": [
        {
          "internalType": "uint256",
          "name": "",
          "type": "uint256"
        }
      ],
      "stateMutability": "view",
      "type": "function"
    },
    {
      "inputs": [
        {
          "internalType": "address",
          "name": "spender",
          "type": "address"
        },
        {
          "internalType": "uint256",
          "name": "amount",
          "type": "uint256"
        }
      ],
      "name": "approve",
      "outputs": [
        {
          "internalType": "bool",
          "name": "",
          "type": "bool"
        }
      ],
      "stateMutability": "nonpayable",
      "type": "function"
    },
    {
      "inputs": [
        {
          "internalType": "address",
          "name": "account",
          "type": "address"
        }
      ],
      "name": "balanceOf",
      "outputs": [
        {
          "internalType": "uint256",
          "name": "",
          "type": "uint256"
        }
      ],
      "stateMutability": "view",
      "type": "function"
    },
    {
      "inputs": [
        {
          "internalType": "address",
          "name": "account",
          "type": "address"
        },
        {
          "internalType": "uint256",
          "name": "amount",
          "type": "uint256"
        }
      ],
      "name": "burn",
      "outputs": [],
      "stateMutability": "nonpayable",
      "type": "function"
    },
    {
      "inputs": [
        {
          "internalType": "address",
          "name": "account",
          "type": "address"
        },
        {
          "internalType": "uint32",
          "name": "pos",
          "type": "uint32"
        }
      ],
      "name": "checkpoints",
      "outputs": [
        {
          "components": [
            {
              "internalType": "uint32",
              "name": "fromBlock",
              "type": "uint32"
            },
            {
              "internalType": "uint224",
              "name": "votes",
              "type": "uint224"
            }
          ],
          "internalType": "struct ERC20Votes.Checkpoint",
          "name": "",
          "type": "tuple"
        }
      ],
      "stateMutability": "view",
      "type": "function"
    },
    {
      "inputs": [],
      "name": "decimals",
      "outputs": [
        {
          "internalType": "uint8",
          "name": "",
          "type": "uint8"
        }
      ],
      "stateMutability": "view",
      "type": "function"
    },
    {
      "inputs": [
        {
          "internalType": "address",
          "name": "spender",
          "type": "address"
        },
        {
          "internalType": "uint256",
          "name": "subtractedValue",
          "type": "uint256"
        }
      ],
      "name": "decreaseAllowance",
      "outputs": [
        {
          "internalType": "bool",
          "name": "",
          "type": "bool"
        }
      ],
      "stateMutability": "nonpayable",
      "type": "function"
    },
    {
      "inputs": [
        {
          "internalType": "address",
          "name": "delegatee",
          "type": "address"
        }
      ],
      "name": "delegate",
      "outputs": [],
      "stateMutability": "nonpayable",
      "type": "function"
    },
    {
      "inputs": [
        {
          "internalType": "address",
          "name": "delegatee",
          "type": "address"
        },
        {
          "internalType": "uint256",
          "name": "nonce",
          "type": "uint256"
        },
        {
          "internalType": "uint256",
          "name": "expiry",
          "type": "uint256"
        },
        {
          "internalType": "uint8",
          "name": "v",
          "type": "uint8"
        },
        {
          "internalType": "bytes32",
          "name": "r",
          "type": "bytes32"
        },
        {
          "internalType": "bytes32",
          "name": "s",
          "type": "bytes32"
        }
      ],
      "name": "delegateBySig",
      "outputs": [],
      "stateMutability": "nonpayable",
      "type": "function"
    },
    {
      "inputs": [
        {
          "internalType": "address",
          "name": "account",
          "type": "address"
        }
      ],
      "name": "delegates",
      "outputs": [
        {
          "internalType": "address",
          "name": "",
          "type": "address"
        }
      ],
      "stateMutability": "view",
      "type": "function"
    },
    {
      "inputs": [],
      "name": "getChainId",
      "outputs": [
        {
          "internalType": "uint256",
          "name": "",
          "type": "uint256"
        }
      ],
      "stateMutability": "view",
      "type": "function"
    },
    {
      "inputs": [
        {
          "internalType": "address",
          "name": "account",
          "type": "address"
        }
      ],
      "name": "getCurrentVotes",
      "outputs": [
        {
          "internalType": "uint96",
          "name": "",
          "type": "uint96"
        }
      ],
      "stateMutability": "view",
      "type": "function"
    },
    {
      "inputs": [
        {
          "internalType": "uint256",
          "name": "blockNumber",
          "type": "uint256"
        }
      ],
      "name": "getPastTotalSupply",
      "outputs": [
        {
          "internalType": "uint256",
          "name": "",
          "type": "uint256"
        }
      ],
      "stateMutability": "view",
      "type": "function"
    },
    {
      "inputs": [
        {
          "internalType": "address",
          "name": "account",
          "type": "address"
        },
        {
          "internalType": "uint256",
          "name": "blockNumber",
          "type": "uint256"
        }
      ],
      "name": "getPastVotes",
      "outputs": [
        {
          "internalType": "uint256",
          "name": "",
          "type": "uint256"
        }
      ],
      "stateMutability": "view",
      "type": "function"
    },
    {
      "inputs": [
        {
          "internalType": "address",
          "name": "account",
          "type": "address"
        },
        {
          "internalType": "uint256",
          "name": "blockNumber",
          "type": "uint256"
        }
      ],
      "name": "getPriorVotes",
      "outputs": [
        {
          "internalType": "uint96",
          "name": "",
          "type": "uint96"
        }
      ],
      "stateMutability": "view",
      "type": "function"
    },
    {
      "inputs": [
        {
          "internalType": "address",
          "name": "account",
          "type": "address"
        }
      ],
      "name": "getVotes",
      "outputs": [
        {
          "internalType": "uint256",
          "name": "",
          "type": "uint256"
        }
      ],
      "stateMutability": "view",
      "type": "function"
    },
    {
      "inputs": [
        {
          "internalType": "address",
          "name": "spender",
          "type": "address"
        },
        {
          "internalType": "uint256",
          "name": "addedValue",
          "type": "uint256"
        }
      ],
      "name": "increaseAllowance",
      "outputs": [
        {
          "internalType": "bool",
          "name": "",
          "type": "bool"
        }
      ],
      "stateMutability": "nonpayable",
      "type": "function"
    },
    {
      "inputs": [
        {
          "internalType": "address",
          "name": "account",
          "type": "address"
        },
        {
          "internalType": "uint256",
          "name": "amount",
          "type": "uint256"
        }
      ],
      "name": "mint",
      "outputs": [],
      "stateMutability": "nonpayable",
      "type": "function"
    },
    {
      "inputs": [],
      "name": "name",
      "outputs": [
        {
          "internalType": "string",
          "name": "",
          "type": "string"
        }
      ],
      "stateMutability": "view",
      "type": "function"
    },
    {
      "inputs": [
        {
          "internalType": "address",
          "name": "owner",
          "type": "address"
        }
      ],
      "name": "nonces",
      "outputs": [
        {
          "internalType": "uint256",
          "name": "",
          "type": "uint256"
        }
      ],
      "stateMutability": "view",
      "type": "function"
    },
    {
      "inputs": [
        {
          "internalType": "address",
          "name": "account",
          "type": "address"
        }
      ],
      "name": "numCheckpoints",
      "outputs": [
        {
          "internalType": "uint32",
          "name": "",
          "type": "uint32"
        }
      ],
      "stateMutability": "view",
      "type": "function"
    },
    {
      "inputs": [
        {
          "internalType": "address",
          "name": "owner",
          "type": "address"
        },
        {
          "internalType": "address",
          "name": "spender",
          "type": "address"
        },
        {
          "internalType": "uint256",
          "name": "value",
          "type": "uint256"
        },
        {
          "internalType": "uint256",
          "name": "deadline",
          "type": "uint256"
        },
        {
          "internalType": "uint8",
          "name": "v",
          "type": "uint8"
        },
        {
          "internalType": "bytes32",
          "name": "r",
          "type": "bytes32"
        },
        {
          "internalType": "bytes32",
          "name": "s",
          "type": "bytes32"
        }
      ],
      "name": "permit",
      "outputs": [],
      "stateMutability": "nonpayable",
      "type": "function"
    },
    {
      "inputs": [],
      "name": "symbol",
      "outputs": [
        {
          "internalType": "string",
          "name": "",
          "type": "string"
        }
      ],
      "stateMutability": "view",
      "type": "function"
    },
    {
      "inputs": [],
      "name": "totalSupply",
      "outputs": [
        {
          "internalType": "uint256",
          "name": "",
          "type": "uint256"
        }
      ],
      "stateMutability": "view",
      "type": "function"
    },
    {
      "inputs": [
        {
          "internalType": "address",
          "name": "to",
          "type": "address"
        },
        {
          "internalType": "uint256",
          "name": "amount",
          "type": "uint256"
        }
      ],
      "name": "transfer",
      "outputs": [
        {
          "internalType": "bool",
          "name": "",
          "type": "bool"
        }
      ],
      "stateMutability": "nonpayable",
      "type": "function"
    },
    {
      "inputs": [
        {
          "internalType": "address",
          "name": "from",
          "type": "address"
        },
        {
          "internalType": "address",
          "name": "to",
          "type": "address"
        },
        {
          "internalType": "uint256",
          "name": "amount",
          "type": "uint256"
        }
      ],
      "name": "transferFrom",
      "outputs": [
        {
          "internalType": "bool",
          "name": "",
          "type": "bool"
        }
      ],
      "stateMutability": "nonpayable",
      "type": "function"
    }
  ],
  "bytecode": "0x6101406040523480156200001257600080fd5b506040516200440f3803806200440f8339818101604052810190620000389190620003ea565b81806040518060400160405280600181526020017f3100000000000000000000000000000000000000000000000000000000000000815250848481600390805190602001906200008a9291906200019d565b508060049080519060200190620000a39291906200019d565b50505060008280519060200120905060008280519060200120905060007f8b73c3c69bb8fe3d512ecc4cf759cc79239f7b179b0ffacaa9a75d522b39400f90508260e081815250508161010081815250504660a081815250506200010f8184846200016160201b60201c565b608081815250503073ffffffffffffffffffffffffffffffffffffffff1660c08173ffffffffffffffffffffffffffffffffffffffff16815250508061012081815250505050505050505050620005ac565b600083838346306040516020016200017e959493929190620004ea565b6040516020818303038152906040528051906020012090509392505050565b828054620001ab9062000576565b90600052602060002090601f016020900481019282620001cf57600085556200021b565b82601f10620001ea57805160ff19168380011785556200021b565b828001600101855582156200021b579182015b828111156200021a578251825591602001919060010190620001fd565b5b5090506200022a91906200022e565b5090565b5b80821115620002495760008160009055506001016200022f565b5090565b6000604051905090565b600080fd5b600080fd5b600080fd5b600080fd5b6000601f19601f8301169050919050565b7f4e487b7100000000000000000000000000000000000000000000000000000000600052604160045260246000fd5b620002b6826200026b565b810181811067ffffffffffffffff82111715620002d857620002d76200027c565b5b80604052505050565b6000620002ed6200024d565b9050620002fb8282620002ab565b919050565b600067ffffffffffffffff8211156200031e576200031d6200027c565b5b62000329826200026b565b9050602081019050919050565b60005b838110156200035657808201518184015260208101905062000339565b8381111562000366576000848401525b50505050565b6000620003836200037d8462000300565b620002e1565b905082815260208101848484011115620003a257620003a162000266565b5b620003af84828562000336565b509392505050565b600082601f830112620003cf57620003ce62000261565b5b8151620003e18482602086016200036c565b91505092915050565b6000806040838503121562000404576200040362000257565b5b600083015167ffffffffffffffff8111156200042557620004246200025c565b5b6200043385828601620003b7565b925050602083015167ffffffffffffffff8111156200045757620004566200025c565b5b6200046585828601620003b7565b9150509250929050565b6000819050919050565b62000484816200046f565b82525050565b6000819050919050565b6200049f816200048a565b82525050565b600073ffffffffffffffffffffffffffffffffffffffff82169050919050565b6000620004d282620004a5565b9050919050565b620004e481620004c5565b82525050565b600060a08201905062000501600083018862000479565b62000510602083018762000479565b6200051f604083018662000479565b6200052e606083018562000494565b6200053d6080830184620004d9565b9695505050505050565b7f4e487b7100000000000000000000000000000000000000000000000000000000600052602260045260246000fd5b600060028204905060018216806200058f57607f821691505b60208210811415620005a657620005a562000547565b5b50919050565b60805160a05160c05160e0516101005161012051613e13620005fc600039600061156e015260006115b00152600061158f015260006114c40152600061151a015260006115430152613e136000f3fe608060405234801561001057600080fd5b50600436106101a95760003560e01c806370a08231116100f9578063a457c2d711610097578063c3cda52011610071578063c3cda52014610556578063d505accf14610572578063dd62ed3e1461058e578063f1127ed8146105be576101a9565b8063a457c2d7146104c6578063a9059cbb146104f6578063b4b5ea5714610526576101a9565b80638e539e8c116100d35780638e539e8c1461042c57806395d89b411461045c5780639ab24eb01461047a5780639dc29fac146104aa576101a9565b806370a082311461039c578063782d6fe1146103cc5780637ecebe00146103fc576101a9565b80633644e5151161016657806340c10f191161014057806340c10f1914610304578063587cde1e146103205780635c19a95c146103505780636fcfff451461036c576101a9565b80633644e5151461028657806339509351146102a45780633a46b1a8146102d4576101a9565b806306fdde03146101ae578063095ea7b3146101cc57806318160ddd146101fc57806323b872dd1461021a578063313ce5671461024a5780633408e47014610268575b600080fd5b6101b66105ee565b6040516101c391906128dd565b60405180910390f35b6101e660048036038101906101e19190612998565b610680565b6040516101f391906129f3565b60405180910390f35b6102046106a3565b6040516102119190612a1d565b60405180910390f35b610234600480360381019061022f9190612a38565b6106ad565b60405161024191906129f3565b60405180910390f35b6102526106dc565b60405161025f9190612aa7565b60405180910390f35b6102706106e5565b60405161027d9190612a1d565b60405180910390f35b61028e6106ed565b60405161029b9190612adb565b60405180910390f35b6102be60048036038101906102b99190612998565b6106fc565b6040516102cb91906129f3565b60405180910390f35b6102ee60048036038101906102e99190612998565b610733565b6040516102fb9190612a1d565b60405180910390f35b61031e60048036038101906103199190612998565b6107c7565b005b61033a60048036038101906103359190612af6565b6107d5565b6040516103479190612b32565b60405180910390f35b61036a60048036038101906103659190612af6565b61083e565b005b61038660048036038101906103819190612af6565b610852565b6040516103939190612b6c565b60405180910390f35b6103b660048036038101906103b19190612af6565b6108a6565b6040516103c39190612a1d565b60405180910390f35b6103e660048036038101906103e19190612998565b6108ee565b6040516103f39190612bae565b60405180910390f35b61041660048036038101906104119190612af6565b61090a565b6040516104239190612a1d565b60405180910390f35b61044660048036038101906104419190612bc9565b61095a565b6040516104539190612a1d565b60405180910390f35b6104646109b0565b60405161047191906128dd565b60405180910390f35b610494600480360381019061048f9190612af6565b610a42565b6040516104a19190612a1d565b60405180910390f35b6104c460048036038101906104bf9190612998565b610b4a565b005b6104e060048036038101906104db9190612998565b610b58565b6040516104ed91906129f3565b60405180910390f35b610510600480360381019061050b9190612998565b610bcf565b60405161051d91906129f3565b60405180910390f35b610540600480360381019061053b9190612af6565b610bf2565b60405161054d9190612bae565b60405180910390f35b610570600480360381019061056b9190612c4e565b610c0c565b005b61058c60048036038101906105879190612cdb565b610d10565b005b6105a860048036038101906105a39190612d7d565b610e52565b6040516105b59190612a1d565b60405180910390f35b6105d860048036038101906105d39190612de9565b610ed9565b6040516105e59190612e9e565b60405180910390f35b6060600380546105fd90612ee8565b80601f016020809104026020016040519081016040528092919081815260200182805461062990612ee8565b80156106765780601f1061064b57610100808354040283529160200191610676565b820191906000526020600020905b81548152906001019060200180831161065957829003601f168201915b5050505050905090565b60008061068b610fe9565b9050610698818585610ff1565b600191505092915050565b6000600254905090565b6000806106b8610fe9565b90506106c58582856111bc565b6106d0858585611248565b60019150509392505050565b60006012905090565b600046905090565b60006106f76114c0565b905090565b600080610707610fe9565b90506107288185856107198589610e52565b6107239190612f49565b610ff1565b600191505092915050565b6000438210610777576040517f08c379a000000000000000000000000000000000000000000000000000000000815260040161076e90612feb565b60405180910390fd5b6107bf600860008573ffffffffffffffffffffffffffffffffffffffff1673ffffffffffffffffffffffffffffffffffffffff168152602001908152602001600020836115da565b905092915050565b6107d18282611722565b5050565b6000600760008373ffffffffffffffffffffffffffffffffffffffff1673ffffffffffffffffffffffffffffffffffffffff16815260200190815260200160002060009054906101000a900473ffffffffffffffffffffffffffffffffffffffff169050919050565b61084f610849610fe9565b826117af565b50565b600061089f600860008473ffffffffffffffffffffffffffffffffffffffff1673ffffffffffffffffffffffffffffffffffffffff168152602001908152602001600020805490506118c9565b9050919050565b60008060008373ffffffffffffffffffffffffffffffffffffffff1673ffffffffffffffffffffffffffffffffffffffff168152602001908152602001600020549050919050565b60006109026108fd8484610733565b61191c565b905092915050565b6000610953600560008473ffffffffffffffffffffffffffffffffffffffff1673ffffffffffffffffffffffffffffffffffffffff168152602001908152602001600020611977565b9050919050565b600043821061099e576040517f08c379a000000000000000000000000000000000000000000000000000000000815260040161099590612feb565b60405180910390fd5b6109a96009836115da565b9050919050565b6060600480546109bf90612ee8565b80601f01602080910402602001604051908101604052809291908181526020018280546109eb90612ee8565b8015610a385780601f10610a0d57610100808354040283529160200191610a38565b820191906000526020600020905b815481529060010190602001808311610a1b57829003601f168201915b5050505050905090565b600080600860008473ffffffffffffffffffffffffffffffffffffffff1673ffffffffffffffffffffffffffffffffffffffff16815260200190815260200160002080549050905060008114610b2157600860008473ffffffffffffffffffffffffffffffffffffffff1673ffffffffffffffffffffffffffffffffffffffff1681526020019081526020016000206001820381548110610ae657610ae561300b565b5b9060005260206000200160000160049054906101000a90047bffffffffffffffffffffffffffffffffffffffffffffffffffffffff16610b24565b60005b7bffffffffffffffffffffffffffffffffffffffffffffffffffffffff16915050919050565b610b548282611985565b5050565b600080610b63610fe9565b90506000610b718286610e52565b905083811015610bb6576040517f08c379a0000000000000000000000000000000000000000000000000000000008152600401610bad906130ac565b60405180910390fd5b610bc38286868403610ff1565b60019250505092915050565b600080610bda610fe9565b9050610be7818585611248565b600191505092915050565b6000610c05610c0083610a42565b61191c565b9050919050565b83421115610c4f576040517f08c379a0000000000000000000000000000000000000000000000000000000008152600401610c4690613118565b60405180910390fd5b6000610cb1610ca97fe48329057bfd03d55e49b547132e39cffd9c1820ad7b9d4c5307691425d15adf898989604051602001610c8e9493929190613138565b604051602081830303815290604052805190602001206119a3565b8585856119bd565b9050610cbc816119e8565b8614610cfd576040517f08c379a0000000000000000000000000000000000000000000000000000000008152600401610cf4906131c9565b60405180910390fd5b610d0781886117af565b50505050505050565b83421115610d53576040517f08c379a0000000000000000000000000000000000000000000000000000000008152600401610d4a90613235565b60405180910390fd5b60007f6e71edae12b1b97f4d1f60370fef10105fa2faae0126114a169c64845d6126c9888888610d828c6119e8565b89604051602001610d9896959493929190613255565b6040516020818303038152906040528051906020012090506000610dbb826119a3565b90506000610dcb828787876119bd565b90508973ffffffffffffffffffffffffffffffffffffffff168173ffffffffffffffffffffffffffffffffffffffff1614610e3b576040517f08c379a0000000000000000000000000000000000000000000000000000000008152600401610e3290613302565b60405180910390fd5b610e468a8a8a610ff1565b50505050505050505050565b6000600160008473ffffffffffffffffffffffffffffffffffffffff1673ffffffffffffffffffffffffffffffffffffffff16815260200190815260200160002060008373ffffffffffffffffffffffffffffffffffffffff1673ffffffffffffffffffffffffffffffffffffffff16815260200190815260200160002054905092915050565b610ee1612806565b600860008473ffffffffffffffffffffffffffffffffffffffff1673ffffffffffffffffffffffffffffffffffffffff1681526020019081526020016000208263ffffffff1681548110610f3857610f3761300b565b5b906000526020600020016040518060400160405290816000820160009054906101000a900463ffffffff1663ffffffff1663ffffffff1681526020016000820160049054906101000a90047bffffffffffffffffffffffffffffffffffffffffffffffffffffffff167bffffffffffffffffffffffffffffffffffffffffffffffffffffffff167bffffffffffffffffffffffffffffffffffffffffffffffffffffffff1681525050905092915050565b600033905090565b600073ffffffffffffffffffffffffffffffffffffffff168373ffffffffffffffffffffffffffffffffffffffff161415611061576040517f08c379a000000000000000000000000000000000000000000000000000000000815260040161105890613394565b60405180910390fd5b600073ffffffffffffffffffffffffffffffffffffffff168273ffffffffffffffffffffffffffffffffffffffff1614156110d1576040517f08c379a00000000000000000000000000000000000000000000000000000000081526004016110c890613426565b60405180910390fd5b80600160008573ffffffffffffffffffffffffffffffffffffffff1673ffffffffffffffffffffffffffffffffffffffff16815260200190815260200160002060008473ffffffffffffffffffffffffffffffffffffffff1673ffffffffffffffffffffffffffffffffffffffff168152602001908152602001600020819055508173ffffffffffffffffffffffffffffffffffffffff168373ffffffffffffffffffffffffffffffffffffffff167f8c5be1e5ebec7d5bd14f71427d1e84f3dd0314c0f7b2291e5b200ac8c7c3b925836040516111af9190612a1d565b60405180910390a3505050565b60006111c88484610e52565b90507fffffffffffffffffffffffffffffffffffffffffffffffffffffffffffffffff81146112425781811015611234576040517f08c379a000000000000000000000000000000000000000000000000000000000815260040161122b90613492565b60405180910390fd5b6112418484848403610ff1565b5b50505050565b600073ffffffffffffffffffffffffffffffffffffffff168373ffffffffffffffffffffffffffffffffffffffff1614156112b8576040517f08c379a00000000000000000000000000000000000000000000000000000000081526004016112af90613524565b60405180910390fd5b600073ffffffffffffffffffffffffffffffffffffffff168273ffffffffffffffffffffffffffffffffffffffff161415611328576040517f08c379a000000000000000000000000000000000000000000000000000000000815260040161131f906135b6565b60405180910390fd5b611333838383611a46565b60008060008573ffffffffffffffffffffffffffffffffffffffff1673ffffffffffffffffffffffffffffffffffffffff168152602001908152602001600020549050818110156113b9576040517f08c379a00000000000000000000000000000000000000000000000000000000081526004016113b090613648565b60405180910390fd5b8181036000808673ffffffffffffffffffffffffffffffffffffffff1673ffffffffffffffffffffffffffffffffffffffff16815260200190815260200160002081905550816000808573ffffffffffffffffffffffffffffffffffffffff1673ffffffffffffffffffffffffffffffffffffffff168152602001908152602001600020600082825401925050819055508273ffffffffffffffffffffffffffffffffffffffff168473ffffffffffffffffffffffffffffffffffffffff167fddf252ad1be2c89b69c2b068fc378daa952ba7f163c4a11628f55a4df523b3ef846040516114a79190612a1d565b60405180910390a36114ba848484611a4b565b50505050565b60007f000000000000000000000000000000000000000000000000000000000000000073ffffffffffffffffffffffffffffffffffffffff163073ffffffffffffffffffffffffffffffffffffffff1614801561153c57507f000000000000000000000000000000000000000000000000000000000000000046145b15611569577f000000000000000000000000000000000000000000000000000000000000000090506115d7565b6115d47f00000000000000000000000000000000000000000000000000000000000000007f00000000000000000000000000000000000000000000000000000000000000007f0000000000000000000000000000000000000000000000000000000000000000611a76565b90505b90565b6000808380549050905060008082905060058311156116505760006115fe84611ab0565b846116099190613668565b9050856116168883611baa565b60000160009054906101000a900463ffffffff1663ffffffff16111561163e5780915061164e565b60018161164b9190612f49565b92505b505b5b808210156116b05760006116658383611bbf565b9050856116728883611baa565b60000160009054906101000a900463ffffffff1663ffffffff16111561169a578091506116aa565b6001816116a79190612f49565b92505b50611651565b600081146116f6576116c58660018303611baa565b60000160049054906101000a90047bffffffffffffffffffffffffffffffffffffffffffffffffffffffff166116f9565b60005b7bffffffffffffffffffffffffffffffffffffffffffffffffffffffff16935050505092915050565b61172c8282611be5565b611734611d3c565b7bffffffffffffffffffffffffffffffffffffffffffffffffffffffff1661175a6106a3565b111561179b576040517f08c379a00000000000000000000000000000000000000000000000000000000081526004016117929061370e565b60405180910390fd5b6117a96009611d5283611d68565b50505050565b60006117ba836107d5565b905060006117c7846108a6565b905082600760008673ffffffffffffffffffffffffffffffffffffffff1673ffffffffffffffffffffffffffffffffffffffff16815260200190815260200160002060006101000a81548173ffffffffffffffffffffffffffffffffffffffff021916908373ffffffffffffffffffffffffffffffffffffffff1602179055508273ffffffffffffffffffffffffffffffffffffffff168273ffffffffffffffffffffffffffffffffffffffff168573ffffffffffffffffffffffffffffffffffffffff167f3134e8a2e6d97e929a7e54011ea5485d7d196dd5f0ba4d4ef95803e8e3fc257f60405160405180910390a46118c3828483612025565b50505050565b600063ffffffff8016821115611914576040517f08c379a000000000000000000000000000000000000000000000000000000000815260040161190b906137a0565b60405180910390fd5b819050919050565b60006bffffffffffffffffffffffff801682111561196f576040517f08c379a000000000000000000000000000000000000000000000000000000000815260040161196690613832565b60405180910390fd5b819050919050565b600081600001549050919050565b61198f828261221e565b61199d60096123ec83611d68565b50505050565b60006119b66119b06114c0565b83612402565b9050919050565b60008060006119ce87878787612435565b915091506119db81612518565b8192505050949350505050565b600080600560008473ffffffffffffffffffffffffffffffffffffffff1673ffffffffffffffffffffffffffffffffffffffff1681526020019081526020016000209050611a3581611977565b9150611a4081612686565b50919050565b505050565b611a5683838361269c565b611a71611a62846107d5565b611a6b846107d5565b83612025565b505050565b60008383834630604051602001611a91959493929190613852565b6040516020818303038152906040528051906020012090509392505050565b600080821415611ac35760009050611ba5565b60006001611ad0846126a1565b901c6001901b90506001818481611aea57611ae96138a5565b5b048201901c90506001818481611b0357611b026138a5565b5b048201901c90506001818481611b1c57611b1b6138a5565b5b048201901c90506001818481611b3557611b346138a5565b5b048201901c90506001818481611b4e57611b4d6138a5565b5b048201901c90506001818481611b6757611b666138a5565b5b048201901c90506001818481611b8057611b7f6138a5565b5b048201901c9050611ba181828581611b9b57611b9a6138a5565b5b04612782565b9150505b919050565b60008260005281602060002001905092915050565b60006002828418611bd091906138d4565b828416611bdd9190612f49565b905092915050565b600073ffffffffffffffffffffffffffffffffffffffff168273ffffffffffffffffffffffffffffffffffffffff161415611c55576040517f08c379a0000000000000000000000000000000000000000000000000000000008152600401611c4c90613951565b60405180910390fd5b611c6160008383611a46565b8060026000828254611c739190612f49565b92505081905550806000808473ffffffffffffffffffffffffffffffffffffffff1673ffffffffffffffffffffffffffffffffffffffff168152602001908152602001600020600082825401925050819055508173ffffffffffffffffffffffffffffffffffffffff16600073ffffffffffffffffffffffffffffffffffffffff167fddf252ad1be2c89b69c2b068fc378daa952ba7f163c4a11628f55a4df523b3ef83604051611d249190612a1d565b60405180910390a3611d3860008383611a4b565b5050565b60006bffffffffffffffffffffffff8016905090565b60008183611d609190612f49565b905092915050565b6000806000858054905090506000808214611e2e57611d8a8760018403611baa565b6040518060400160405290816000820160009054906101000a900463ffffffff1663ffffffff1663ffffffff1681526020016000820160049054906101000a90047bffffffffffffffffffffffffffffffffffffffffffffffffffffffff167bffffffffffffffffffffffffffffffffffffffffffffffffffffffff167bffffffffffffffffffffffffffffffffffffffffffffffffffffffff1681525050611e6a565b6040518060400160405280600063ffffffff16815260200160007bffffffffffffffffffffffffffffffffffffffffffffffffffffffff168152505b905080602001517bffffffffffffffffffffffffffffffffffffffffffffffffffffffff169350611e9f84868863ffffffff16565b9250600082118015611eba575043816000015163ffffffff16145b15611f2b57611ec88361279b565b611ed58860018503611baa565b60000160046101000a8154817bffffffffffffffffffffffffffffffffffffffffffffffffffffffff02191690837bffffffffffffffffffffffffffffffffffffffffffffffffffffffff16021790555061201b565b866040518060400160405280611f40436118c9565b63ffffffff168152602001611f548661279b565b7bffffffffffffffffffffffffffffffffffffffffffffffffffffffff168152509080600181540180825580915050600190039060005260206000200160009091909190915060008201518160000160006101000a81548163ffffffff021916908363ffffffff16021790555060208201518160000160046101000a8154817bffffffffffffffffffffffffffffffffffffffffffffffffffffffff02191690837bffffffffffffffffffffffffffffffffffffffffffffffffffffffff16021790555050505b5050935093915050565b8173ffffffffffffffffffffffffffffffffffffffff168373ffffffffffffffffffffffffffffffffffffffff16141580156120615750600081115b1561221957600073ffffffffffffffffffffffffffffffffffffffff168373ffffffffffffffffffffffffffffffffffffffff161461213f576000806120e8600860008773ffffffffffffffffffffffffffffffffffffffff1673ffffffffffffffffffffffffffffffffffffffff1681526020019081526020016000206123ec85611d68565b915091508473ffffffffffffffffffffffffffffffffffffffff167fdec2bacdd2f05b59de34da9b523dff8be42e5e38e818c82fdb0bae774387a7248383604051612134929190613971565b60405180910390a250505b600073ffffffffffffffffffffffffffffffffffffffff168273ffffffffffffffffffffffffffffffffffffffff1614612218576000806121c1600860008673ffffffffffffffffffffffffffffffffffffffff1673ffffffffffffffffffffffffffffffffffffffff168152602001908152602001600020611d5285611d68565b915091508373ffffffffffffffffffffffffffffffffffffffff167fdec2bacdd2f05b59de34da9b523dff8be42e5e38e818c82fdb0bae774387a724838360405161220d929190613971565b60405180910390a250505b5b505050565b600073ffffffffffffffffffffffffffffffffffffffff168273ffffffffffffffffffffffffffffffffffffffff16141561228e576040517f08c379a000000000000000000000000000000000000000000000000000000000815260040161228590613a0c565b60405180910390fd5b61229a82600083611a46565b60008060008473ffffffffffffffffffffffffffffffffffffffff1673ffffffffffffffffffffffffffffffffffffffff16815260200190815260200160002054905081811015612320576040517f08c379a000000000000000000000000000000000000000000000000000000000815260040161231790613a9e565b60405180910390fd5b8181036000808573ffffffffffffffffffffffffffffffffffffffff1673ffffffffffffffffffffffffffffffffffffffff1681526020019081526020016000208190555081600260008282540392505081905550600073ffffffffffffffffffffffffffffffffffffffff168373ffffffffffffffffffffffffffffffffffffffff167fddf252ad1be2c89b69c2b068fc378daa952ba7f163c4a11628f55a4df523b3ef846040516123d39190612a1d565b60405180910390a36123e783600084611a4b565b505050565b600081836123fa9190613668565b905092915050565b60008282604051602001612417929190613b36565b60405160208183030381529060405280519060200120905092915050565b6000807f7fffffffffffffffffffffffffffffff5d576e7357a4501ddfe92f46681b20a08360001c111561247057600060039150915061250f565b6000600187878787604051600081526020016040526040516124959493929190613b6d565b6020604051602081039080840390855afa1580156124b7573d6000803e3d6000fd5b505050602060405103519050600073ffffffffffffffffffffffffffffffffffffffff168173ffffffffffffffffffffffffffffffffffffffff1614156125065760006001925092505061250f565b80600092509250505b94509492505050565b6000600481111561252c5761252b613bb2565b5b81600481111561253f5761253e613bb2565b5b141561254a57612683565b6001600481111561255e5761255d613bb2565b5b81600481111561257157612570613bb2565b5b14156125b2576040517f08c379a00000000000000000000000000000000000000000000000000000000081526004016125a990613c2d565b60405180910390fd5b600260048111156125c6576125c5613bb2565b5b8160048111156125d9576125d8613bb2565b5b141561261a576040517f08c379a000000000000000000000000000000000000000000000000000000000815260040161261190613c99565b60405180910390fd5b6003600481111561262e5761262d613bb2565b5b81600481111561264157612640613bb2565b5b1415612682576040517f08c379a000000000000000000000000000000000000000000000000000000000815260040161267990613d2b565b60405180910390fd5b5b50565b6001816000016000828254019250508190555050565b505050565b600080600090506000608084901c11156126c357608083901c92506080810190505b6000604084901c11156126de57604083901c92506040810190505b6000602084901c11156126f957602083901c92506020810190505b6000601084901c111561271457601083901c92506010810190505b6000600884901c111561272f57600883901c92506008810190505b6000600484901c111561274a57600483901c92506004810190505b6000600284901c111561276557600283901c92506002810190505b6000600184901c1115612779576001810190505b80915050919050565b60008183106127915781612793565b825b905092915050565b60007bffffffffffffffffffffffffffffffffffffffffffffffffffffffff80168211156127fe576040517f08c379a00000000000000000000000000000000000000000000000000000000081526004016127f590613dbd565b60405180910390fd5b819050919050565b6040518060400160405280600063ffffffff16815260200160007bffffffffffffffffffffffffffffffffffffffffffffffffffffffff1681525090565b600081519050919050565b600082825260208201905092915050565b60005b8381101561287e578082015181840152602081019050612863565b8381111561288d576000848401525b50505050565b6000601f19601f8301169050919050565b60006128af82612844565b6128b9818561284f565b93506128c9818560208601612860565b6128d281612893565b840191505092915050565b600060208201905081810360008301526128f781846128a4565b905092915050565b600080fd5b600073ffffffffffffffffffffffffffffffffffffffff82169050919050565b600061292f82612904565b9050919050565b61293f81612924565b811461294a57600080fd5b50565b60008135905061295c81612936565b92915050565b6000819050919050565b61297581612962565b811461298057600080fd5b50565b6000813590506129928161296c565b92915050565b600080604083850312156129af576129ae6128ff565b5b60006129bd8582860161294d565b92505060206129ce85828601612983565b9150509250929050565b60008115159050919050565b6129ed816129d8565b82525050565b6000602082019050612a0860008301846129e4565b92915050565b612a1781612962565b82525050565b6000602082019050612a326000830184612a0e565b92915050565b600080600060608486031215612a5157612a506128ff565b5b6000612a5f8682870161294d565b9350506020612a708682870161294d565b9250506040612a8186828701612983565b9150509250925092565b600060ff82169050919050565b612aa181612a8b565b82525050565b6000602082019050612abc6000830184612a98565b92915050565b6000819050919050565b612ad581612ac2565b82525050565b6000602082019050612af06000830184612acc565b92915050565b600060208284031215612b0c57612b0b6128ff565b5b6000612b1a8482850161294d565b91505092915050565b612b2c81612924565b82525050565b6000602082019050612b476000830184612b23565b92915050565b600063ffffffff82169050919050565b612b6681612b4d565b82525050565b6000602082019050612b816000830184612b5d565b92915050565b60006bffffffffffffffffffffffff82169050919050565b612ba881612b87565b82525050565b6000602082019050612bc36000830184612b9f565b92915050565b600060208284031215612bdf57612bde6128ff565b5b6000612bed84828501612983565b91505092915050565b612bff81612a8b565b8114612c0a57600080fd5b50565b600081359050612c1c81612bf6565b92915050565b612c2b81612ac2565b8114612c3657600080fd5b50565b600081359050612c4881612c22565b92915050565b60008060008060008060c08789031215612c6b57612c6a6128ff565b5b6000612c7989828a0161294d565b9650506020612c8a89828a01612983565b9550506040612c9b89828a01612983565b9450506060612cac89828a01612c0d565b9350506080612cbd89828a01612c39565b92505060a0612cce89828a01612c39565b9150509295509295509295565b600080600080600080600060e0888a031215612cfa57612cf96128ff565b5b6000612d088a828b0161294d565b9750506020612d198a828b0161294d565b9650506040612d2a8a828b01612983565b9550506060612d3b8a828b01612983565b9450506080612d4c8a828b01612c0d565b93505060a0612d5d8a828b01612c39565b92505060c0612d6e8a828b01612c39565b91505092959891949750929550565b60008060408385031215612d9457612d936128ff565b5b6000612da28582860161294d565b9250506020612db38582860161294d565b9150509250929050565b612dc681612b4d565b8114612dd157600080fd5b50565b600081359050612de381612dbd565b92915050565b60008060408385031215612e0057612dff6128ff565b5b6000612e0e8582860161294d565b9250506020612e1f85828601612dd4565b9150509250929050565b612e3281612b4d565b82525050565b60007bffffffffffffffffffffffffffffffffffffffffffffffffffffffff82169050919050565b612e6981612e38565b82525050565b604082016000820151612e856000850182612e29565b506020820151612e986020850182612e60565b50505050565b6000604082019050612eb36000830184612e6f565b92915050565b7f4e487b7100000000000000000000000000000000000000000000000000000000600052602260045260246000fd5b60006002820490506001821680612f0057607f821691505b60208210811415612f1457612f13612eb9565b5b50919050565b7f4e487b7100000000000000000000000000000000000000000000000000000000600052601160045260246000fd5b6000612f5482612962565b9150612f5f83612962565b9250827fffffffffffffffffffffffffffffffffffffffffffffffffffffffffffffffff03821115612f9457612f93612f1a565b5b828201905092915050565b7f4552433230566f7465733a20626c6f636b206e6f7420796574206d696e656400600082015250565b6000612fd5601f8361284f565b9150612fe082612f9f565b602082019050919050565b6000602082019050818103600083015261300481612fc8565b9050919050565b7f4e487b7100000000000000000000000000000000000000000000000000000000600052603260045260246000fd5b7f45524332303a2064656372656173656420616c6c6f77616e63652062656c6f7760008201527f207a65726f000000000000000000000000000000000000000000000000000000602082015250565b600061309660258361284f565b91506130a18261303a565b604082019050919050565b600060208201905081810360008301526130c581613089565b9050919050565b7f4552433230566f7465733a207369676e61747572652065787069726564000000600082015250565b6000613102601d8361284f565b915061310d826130cc565b602082019050919050565b60006020820190508181036000830152613131816130f5565b9050919050565b600060808201905061314d6000830187612acc565b61315a6020830186612b23565b6131676040830185612a0e565b6131746060830184612a0e565b95945050505050565b7f4552433230566f7465733a20696e76616c6964206e6f6e636500000000000000600082015250565b60006131b360198361284f565b91506131be8261317d565b602082019050919050565b600060208201905081810360008301526131e2816131a6565b9050919050565b7f45524332305065726d69743a206578706972656420646561646c696e65000000600082015250565b600061321f601d8361284f565b915061322a826131e9565b602082019050919050565b6000602082019050818103600083015261324e81613212565b9050919050565b600060c08201905061326a6000830189612acc565b6132776020830188612b23565b6132846040830187612b23565b6132916060830186612a0e565b61329e6080830185612a0e565b6132ab60a0830184612a0e565b979650505050505050565b7f45524332305065726d69743a20696e76616c6964207369676e61747572650000600082015250565b60006132ec601e8361284f565b91506132f7826132b6565b602082019050919050565b6000602082019050818103600083015261331b816132df565b9050919050565b7f45524332303a20617070726f76652066726f6d20746865207a65726f2061646460008201527f7265737300000000000000000000000000000000000000000000000000000000602082015250565b600061337e60248361284f565b915061338982613322565b604082019050919050565b600060208201905081810360008301526133ad81613371565b9050919050565b7f45524332303a20617070726f766520746f20746865207a65726f20616464726560008201527f7373000000000000000000000000000000000000000000000000000000000000602082015250565b600061341060228361284f565b915061341b826133b4565b604082019050919050565b6000602082019050818103600083015261343f81613403565b9050919050565b7f45524332303a20696e73756666696369656e7420616c6c6f77616e6365000000600082015250565b600061347c601d8361284f565b915061348782613446565b602082019050919050565b600060208201905081810360008301526134ab8161346f565b9050919050565b7f45524332303a207472616e736665722066726f6d20746865207a65726f20616460008201527f6472657373000000000000000000000000000000000000000000000000000000602082015250565b600061350e60258361284f565b9150613519826134b2565b604082019050919050565b6000602082019050818103600083015261353d81613501565b9050919050565b7f45524332303a207472616e7366657220746f20746865207a65726f206164647260008201527f6573730000000000000000000000000000000000000000000000000000000000602082015250565b60006135a060238361284f565b91506135ab82613544565b604082019050919050565b600060208201905081810360008301526135cf81613593565b9050919050565b7f45524332303a207472616e7366657220616d6f756e742065786365656473206260008201527f616c616e63650000000000000000000000000000000000000000000000000000602082015250565b600061363260268361284f565b915061363d826135d6565b604082019050919050565b6000602082019050818103600083015261366181613625565b9050919050565b600061367382612962565b915061367e83612962565b92508282101561369157613690612f1a565b5b828203905092915050565b7f4552433230566f7465733a20746f74616c20737570706c79207269736b73206f60008201527f766572666c6f77696e6720766f74657300000000000000000000000000000000602082015250565b60006136f860308361284f565b91506137038261369c565b604082019050919050565b60006020820190508181036000830152613727816136eb565b9050919050565b7f53616665436173743a2076616c756520646f65736e27742066697420696e203360008201527f3220626974730000000000000000000000000000000000000000000000000000602082015250565b600061378a60268361284f565b91506137958261372e565b604082019050919050565b600060208201905081810360008301526137b98161377d565b9050919050565b7f53616665436173743a2076616c756520646f65736e27742066697420696e203960008201527f3620626974730000000000000000000000000000000000000000000000000000602082015250565b600061381c60268361284f565b9150613827826137c0565b604082019050919050565b6000602082019050818103600083015261384b8161380f565b9050919050565b600060a0820190506138676000830188612acc565b6138746020830187612acc565b6138816040830186612acc565b61388e6060830185612a0e565b61389b6080830184612b23565b9695505050505050565b7f4e487b7100000000000000000000000000000000000000000000000000000000600052601260045260246000fd5b60006138df82612962565b91506138ea83612962565b9250826138fa576138f96138a5565b5b828204905092915050565b7f45524332303a206d696e7420746f20746865207a65726f206164647265737300600082015250565b600061393b601f8361284f565b915061394682613905565b602082019050919050565b6000602082019050818103600083015261396a8161392e565b9050919050565b60006040820190506139866000830185612a0e565b6139936020830184612a0e565b9392505050565b7f45524332303a206275726e2066726f6d20746865207a65726f2061646472657360008201527f7300000000000000000000000000000000000000000000000000000000000000602082015250565b60006139f660218361284f565b9150613a018261399a565b604082019050919050565b60006020820190508181036000830152613a25816139e9565b9050919050565b7f45524332303a206275726e20616d6f756e7420657863656564732062616c616e60008201527f6365000000000000000000000000000000000000000000000000000000000000602082015250565b6000613a8860228361284f565b9150613a9382613a2c565b604082019050919050565b60006020820190508181036000830152613ab781613a7b565b9050919050565b600081905092915050565b7f1901000000000000000000000000000000000000000000000000000000000000600082015250565b6000613aff600283613abe565b9150613b0a82613ac9565b600282019050919050565b6000819050919050565b613b30613b2b82612ac2565b613b15565b82525050565b6000613b4182613af2565b9150613b4d8285613b1f565b602082019150613b5d8284613b1f565b6020820191508190509392505050565b6000608082019050613b826000830187612acc565b613b8f6020830186612a98565b613b9c6040830185612acc565b613ba96060830184612acc565b95945050505050565b7f4e487b7100000000000000000000000000000000000000000000000000000000600052602160045260246000fd5b7f45434453413a20696e76616c6964207369676e61747572650000000000000000600082015250565b6000613c1760188361284f565b9150613c2282613be1565b602082019050919050565b60006020820190508181036000830152613c4681613c0a565b9050919050565b7f45434453413a20696e76616c6964207369676e6174757265206c656e67746800600082015250565b6000613c83601f8361284f565b9150613c8e82613c4d565b602082019050919050565b60006020820190508181036000830152613cb281613c76565b9050919050565b7f45434453413a20696e76616c6964207369676e6174757265202773272076616c60008201527f7565000000000000000000000000000000000000000000000000000000000000602082015250565b6000613d1560228361284f565b9150613d2082613cb9565b604082019050919050565b60006020820190508181036000830152613d4481613d08565b9050919050565b7f53616665436173743a2076616c756520646f65736e27742066697420696e203260008201527f3234206269747300000000000000000000000000000000000000000000000000602082015250565b6000613da760278361284f565b9150613db282613d4b565b604082019050919050565b60006020820190508181036000830152613dd681613d9a565b905091905056fea26469706673582212201f2948cc386363b5bdc7e3a58ba3a9b7e91003d29dc222d39ab69880696cdba464736f6c63430008090033",
  "linkReferences": {},
  "deployedLinkReferences": {}
}