{
  "_format": "hh-sol-artifact-1",
  "contractName": "ERC20SnapshotMock",
  "sourceName": "contracts/openzeppelin/mocks/ERC20SnapshotMock.sol",
  "abi": [
    {
      "inputs": [
        {
          "internalType": "string",
          "name": "name",
          "type": "string"
        },
        {
          "internalType": "string",
          "name": "symbol",
          "type": "string"
        },
        {
          "internalType": "address",
          "name": "initialAccount",
          "type": "address"
        },
        {
          "internalType": "uint256",
          "name": "initialBalance",
          "type": "uint256"
        }
      ],
      "stateMutability": "nonpayable",
      "type": "constructor"
    },
    {
      "anonymous": false,
      "inputs": [
        {
          "indexed": true,
          "internalType": "address",
          "name": "owner",
          "type": "address"
        },
        {
          "indexed": true,
          "internalType": "address",
          "name": "spender",
          "type": "address"
        },
        {
          "indexed": false,
          "internalType": "uint256",
          "name": "value",
          "type": "uint256"
        }
      ],
      "name": "Approval",
      "type": "event"
    },
    {
      "anonymous": false,
      "inputs": [
        {
          "indexed": false,
          "internalType": "uint256",
          "name": "id",
          "type": "uint256"
        }
      ],
      "name": "Snapshot",
      "type": "event"
    },
    {
      "anonymous": false,
      "inputs": [
        {
          "indexed": true,
          "internalType": "address",
          "name": "from",
          "type": "address"
        },
        {
          "indexed": true,
          "internalType": "address",
          "name": "to",
          "type": "address"
        },
        {
          "indexed": false,
          "internalType": "uint256",
          "name": "value",
          "type": "uint256"
        }
      ],
      "name": "Transfer",
      "type": "event"
    },
    {
      "inputs": [
        {
          "internalType": "address",
          "name": "owner",
          "type": "address"
        },
        {
          "internalType": "address",
          "name": "spender",
          "type": "address"
        }
      ],
      "name": "allowance",
      "outputs": [
        {
          "internalType": "uint256",
          "name": "",
          "type": "uint256"
        }
      ],
      "stateMutability": "view",
      "type": "function"
    },
    {
      "inputs": [
        {
          "internalType": "address",
          "name": "spender",
          "type": "address"
        },
        {
          "internalType": "uint256",
          "name": "amount",
          "type": "uint256"
        }
      ],
      "name": "approve",
      "outputs": [
        {
          "internalType": "bool",
          "name": "",
          "type": "bool"
        }
      ],
      "stateMutability": "nonpayable",
      "type": "function"
    },
    {
      "inputs": [
        {
          "internalType": "address",
          "name": "account",
          "type": "address"
        }
      ],
      "name": "balanceOf",
      "outputs": [
        {
          "internalType": "uint256",
          "name": "",
          "type": "uint256"
        }
      ],
      "stateMutability": "view",
      "type": "function"
    },
    {
      "inputs": [
        {
          "internalType": "address",
          "name": "account",
          "type": "address"
        },
        {
          "internalType": "uint256",
          "name": "snapshotId",
          "type": "uint256"
        }
      ],
      "name": "balanceOfAt",
      "outputs": [
        {
          "internalType": "uint256",
          "name": "",
          "type": "uint256"
        }
      ],
      "stateMutability": "view",
      "type": "function"
    },
    {
      "inputs": [
        {
          "internalType": "address",
          "name": "account",
          "type": "address"
        },
        {
          "internalType": "uint256",
          "name": "amount",
          "type": "uint256"
        }
      ],
      "name": "burn",
      "outputs": [],
      "stateMutability": "nonpayable",
      "type": "function"
    },
    {
      "inputs": [],
      "name": "decimals",
      "outputs": [
        {
          "internalType": "uint8",
          "name": "",
          "type": "uint8"
        }
      ],
      "stateMutability": "view",
      "type": "function"
    },
    {
      "inputs": [
        {
          "internalType": "address",
          "name": "spender",
          "type": "address"
        },
        {
          "internalType": "uint256",
          "name": "subtractedValue",
          "type": "uint256"
        }
      ],
      "name": "decreaseAllowance",
      "outputs": [
        {
          "internalType": "bool",
          "name": "",
          "type": "bool"
        }
      ],
      "stateMutability": "nonpayable",
      "type": "function"
    },
    {
      "inputs": [
        {
          "internalType": "address",
          "name": "spender",
          "type": "address"
        },
        {
          "internalType": "uint256",
          "name": "addedValue",
          "type": "uint256"
        }
      ],
      "name": "increaseAllowance",
      "outputs": [
        {
          "internalType": "bool",
          "name": "",
          "type": "bool"
        }
      ],
      "stateMutability": "nonpayable",
      "type": "function"
    },
    {
      "inputs": [
        {
          "internalType": "address",
          "name": "account",
          "type": "address"
        },
        {
          "internalType": "uint256",
          "name": "amount",
          "type": "uint256"
        }
      ],
      "name": "mint",
      "outputs": [],
      "stateMutability": "nonpayable",
      "type": "function"
    },
    {
      "inputs": [],
      "name": "name",
      "outputs": [
        {
          "internalType": "string",
          "name": "",
          "type": "string"
        }
      ],
      "stateMutability": "view",
      "type": "function"
    },
    {
      "inputs": [],
      "name": "snapshot",
      "outputs": [],
      "stateMutability": "nonpayable",
      "type": "function"
    },
    {
      "inputs": [],
      "name": "symbol",
      "outputs": [
        {
          "internalType": "string",
          "name": "",
          "type": "string"
        }
      ],
      "stateMutability": "view",
      "type": "function"
    },
    {
      "inputs": [],
      "name": "totalSupply",
      "outputs": [
        {
          "internalType": "uint256",
          "name": "",
          "type": "uint256"
        }
      ],
      "stateMutability": "view",
      "type": "function"
    },
    {
      "inputs": [
        {
          "internalType": "uint256",
          "name": "snapshotId",
          "type": "uint256"
        }
      ],
      "name": "totalSupplyAt",
      "outputs": [
        {
          "internalType": "uint256",
          "name": "",
          "type": "uint256"
        }
      ],
      "stateMutability": "view",
      "type": "function"
    },
    {
      "inputs": [
        {
          "internalType": "address",
          "name": "to",
          "type": "address"
        },
        {
          "internalType": "uint256",
          "name": "amount",
          "type": "uint256"
        }
      ],
      "name": "transfer",
      "outputs": [
        {
          "internalType": "bool",
          "name": "",
          "type": "bool"
        }
      ],
      "stateMutability": "nonpayable",
      "type": "function"
    },
    {
      "inputs": [
        {
          "internalType": "address",
          "name": "from",
          "type": "address"
        },
        {
          "internalType": "address",
          "name": "to",
          "type": "address"
        },
        {
          "internalType": "uint256",
          "name": "amount",
          "type": "uint256"
        }
      ],
      "name": "transferFrom",
      "outputs": [
        {
          "internalType": "bool",
          "name": "",
          "type": "bool"
        }
      ],
      "stateMutability": "nonpayable",
      "type": "function"
    }
  ],
  "bytecode": "0x60806040523480156200001157600080fd5b50604051620029ad380380620029ad8339818101604052810190620000379190620007ce565b8383816003908051906020019062000051929190620004e1565b5080600490805190602001906200006a929190620004e1565b5050506200007f82826200008960201b60201c565b5050505062000a8a565b600073ffffffffffffffffffffffffffffffffffffffff168273ffffffffffffffffffffffffffffffffffffffff161415620000fc576040517f08c379a0000000000000000000000000000000000000000000000000000000008152600401620000f390620008df565b60405180910390fd5b6200011060008383620001f760201b60201c565b806002600082825462000124919062000930565b92505081905550806000808473ffffffffffffffffffffffffffffffffffffffff1673ffffffffffffffffffffffffffffffffffffffff168152602001908152602001600020600082825401925050819055508173ffffffffffffffffffffffffffffffffffffffff16600073ffffffffffffffffffffffffffffffffffffffff167fddf252ad1be2c89b69c2b068fc378daa952ba7f163c4a11628f55a4df523b3ef83604051620001d791906200099e565b60405180910390a3620001f360008383620002f260201b60201c565b5050565b6200020f838383620002f760201b620007601760201c565b600073ffffffffffffffffffffffffffffffffffffffff168373ffffffffffffffffffffffffffffffffffffffff1614156200026c576200025682620002fc60201b60201c565b620002666200035f60201b60201c565b620002ed565b600073ffffffffffffffffffffffffffffffffffffffff168273ffffffffffffffffffffffffffffffffffffffff161415620002c957620002b383620002fc60201b60201c565b620002c36200035f60201b60201c565b620002ec565b620002da83620002fc60201b60201c565b620002eb82620002fc60201b60201c565b5b5b505050565b505050565b505050565b6200035c600560008373ffffffffffffffffffffffffffffffffffffffff1673ffffffffffffffffffffffffffffffffffffffff16815260200190815260200160002062000350836200038360201b60201c565b620003cb60201b60201c565b50565b620003816006620003756200045760201b60201c565b620003cb60201b60201c565b565b60008060008373ffffffffffffffffffffffffffffffffffffffff1673ffffffffffffffffffffffffffffffffffffffff168152602001908152602001600020549050919050565b6000620003dd6200046160201b60201c565b905080620003f4846000016200047f60201b60201c565b1015620004525782600001819080600181540180825580915050600190039060005260206000200160009091909190915055826001018290806001815401808255809150506001900390600052602060002001600090919091909150555b505050565b6000600254905090565b60006200047a6008620004d360201b620007651760201c565b905090565b60008082805490501415620004985760009050620004ce565b8160018380549050620004ac9190620009bb565b81548110620004c057620004bf620009f6565b5b906000526020600020015490505b919050565b600081600001549050919050565b828054620004ef9062000a54565b90600052602060002090601f0160209004810192826200051357600085556200055f565b82601f106200052e57805160ff19168380011785556200055f565b828001600101855582156200055f579182015b828111156200055e57825182559160200191906001019062000541565b5b5090506200056e919062000572565b5090565b5b808211156200058d57600081600090555060010162000573565b5090565b6000604051905090565b600080fd5b600080fd5b600080fd5b600080fd5b6000601f19601f8301169050919050565b7f4e487b7100000000000000000000000000000000000000000000000000000000600052604160045260246000fd5b620005fa82620005af565b810181811067ffffffffffffffff821117156200061c576200061b620005c0565b5b80604052505050565b60006200063162000591565b90506200063f8282620005ef565b919050565b600067ffffffffffffffff821115620006625762000661620005c0565b5b6200066d82620005af565b9050602081019050919050565b60005b838110156200069a5780820151818401526020810190506200067d565b83811115620006aa576000848401525b50505050565b6000620006c7620006c18462000644565b62000625565b905082815260208101848484011115620006e657620006e5620005aa565b5b620006f38482856200067a565b509392505050565b600082601f830112620007135762000712620005a5565b5b815162000725848260208601620006b0565b91505092915050565b600073ffffffffffffffffffffffffffffffffffffffff82169050919050565b60006200075b826200072e565b9050919050565b6200076d816200074e565b81146200077957600080fd5b50565b6000815190506200078d8162000762565b92915050565b6000819050919050565b620007a88162000793565b8114620007b457600080fd5b50565b600081519050620007c8816200079d565b92915050565b60008060008060808587031215620007eb57620007ea6200059b565b5b600085015167ffffffffffffffff8111156200080c576200080b620005a0565b5b6200081a87828801620006fb565b945050602085015167ffffffffffffffff8111156200083e576200083d620005a0565b5b6200084c87828801620006fb565b93505060406200085f878288016200077c565b92505060606200087287828801620007b7565b91505092959194509250565b600082825260208201905092915050565b7f45524332303a206d696e7420746f20746865207a65726f206164647265737300600082015250565b6000620008c7601f836200087e565b9150620008d4826200088f565b602082019050919050565b60006020820190508181036000830152620008fa81620008b8565b9050919050565b7f4e487b7100000000000000000000000000000000000000000000000000000000600052601160045260246000fd5b60006200093d8262000793565b91506200094a8362000793565b9250827fffffffffffffffffffffffffffffffffffffffffffffffffffffffffffffffff0382111562000982576200098162000901565b5b828201905092915050565b620009988162000793565b82525050565b6000602082019050620009b560008301846200098d565b92915050565b6000620009c88262000793565b9150620009d58362000793565b925082821015620009eb57620009ea62000901565b5b828203905092915050565b7f4e487b7100000000000000000000000000000000000000000000000000000000600052603260045260246000fd5b7f4e487b7100000000000000000000000000000000000000000000000000000000600052602260045260246000fd5b6000600282049050600182168062000a6d57607f821691505b6020821081141562000a845762000a8362000a25565b5b50919050565b611f138062000a9a6000396000f3fe608060405234801561001057600080fd5b50600436106101005760003560e01c806370a08231116100975780639dc29fac116100665780639dc29fac146102c3578063a457c2d7146102df578063a9059cbb1461030f578063dd62ed3e1461033f57610100565b806370a082311461023b57806395d89b411461026b5780639711715a14610289578063981b24d01461029357610100565b8063313ce567116100d3578063313ce567146101a157806339509351146101bf57806340c10f19146101ef5780634ee2cd7e1461020b57610100565b806306fdde0314610105578063095ea7b31461012357806318160ddd1461015357806323b872dd14610171575b600080fd5b61010d61036f565b60405161011a9190611475565b60405180910390f35b61013d60048036038101906101389190611530565b610401565b60405161014a919061158b565b60405180910390f35b61015b610424565b60405161016891906115b5565b60405180910390f35b61018b600480360381019061018691906115d0565b61042e565b604051610198919061158b565b60405180910390f35b6101a961045d565b6040516101b6919061163f565b60405180910390f35b6101d960048036038101906101d49190611530565b610466565b6040516101e6919061158b565b60405180910390f35b61020960048036038101906102049190611530565b61049d565b005b61022560048036038101906102209190611530565b6104ab565b60405161023291906115b5565b60405180910390f35b6102556004803603810190610250919061165a565b61051b565b60405161026291906115b5565b60405180910390f35b610273610563565b6040516102809190611475565b60405180910390f35b6102916105f5565b005b6102ad60048036038101906102a89190611687565b610600565b6040516102ba91906115b5565b60405180910390f35b6102dd60048036038101906102d89190611530565b610631565b005b6102f960048036038101906102f49190611530565b61063f565b604051610306919061158b565b60405180910390f35b61032960048036038101906103249190611530565b6106b6565b604051610336919061158b565b60405180910390f35b610359600480360381019061035491906116b4565b6106d9565b60405161036691906115b5565b60405180910390f35b60606003805461037e90611723565b80601f01602080910402602001604051908101604052809291908181526020018280546103aa90611723565b80156103f75780601f106103cc576101008083540402835291602001916103f7565b820191906000526020600020905b8154815290600101906020018083116103da57829003601f168201915b5050505050905090565b60008061040c610773565b905061041981858561077b565b600191505092915050565b6000600254905090565b600080610439610773565b9050610446858285610946565b6104518585856109d2565b60019150509392505050565b60006012905090565b600080610471610773565b905061049281858561048385896106d9565b61048d9190611784565b61077b565b600191505092915050565b6104a78282610c4a565b5050565b60008060006104f884600560008873ffffffffffffffffffffffffffffffffffffffff1673ffffffffffffffffffffffffffffffffffffffff168152602001908152602001600020610da1565b915091508161050f5761050a8561051b565b610511565b805b9250505092915050565b60008060008373ffffffffffffffffffffffffffffffffffffffff1673ffffffffffffffffffffffffffffffffffffffff168152602001908152602001600020549050919050565b60606004805461057290611723565b80601f016020809104026020016040519081016040528092919081815260200182805461059e90611723565b80156105eb5780601f106105c0576101008083540402835291602001916105eb565b820191906000526020600020905b8154815290600101906020018083116105ce57829003601f168201915b5050505050905090565b6105fd610e97565b50565b6000806000610610846006610da1565b915091508161062657610621610424565b610628565b805b92505050919050565b61063b8282610eed565b5050565b60008061064a610773565b9050600061065882866106d9565b90508381101561069d576040517f08c379a00000000000000000000000000000000000000000000000000000000081526004016106949061184c565b60405180910390fd5b6106aa828686840361077b565b60019250505092915050565b6000806106c1610773565b90506106ce8185856109d2565b600191505092915050565b6000600160008473ffffffffffffffffffffffffffffffffffffffff1673ffffffffffffffffffffffffffffffffffffffff16815260200190815260200160002060008373ffffffffffffffffffffffffffffffffffffffff1673ffffffffffffffffffffffffffffffffffffffff16815260200190815260200160002054905092915050565b505050565b600081600001549050919050565b600033905090565b600073ffffffffffffffffffffffffffffffffffffffff168373ffffffffffffffffffffffffffffffffffffffff1614156107eb576040517f08c379a00000000000000000000000000000000000000000000000000000000081526004016107e2906118de565b60405180910390fd5b600073ffffffffffffffffffffffffffffffffffffffff168273ffffffffffffffffffffffffffffffffffffffff16141561085b576040517f08c379a000000000000000000000000000000000000000000000000000000000815260040161085290611970565b60405180910390fd5b80600160008573ffffffffffffffffffffffffffffffffffffffff1673ffffffffffffffffffffffffffffffffffffffff16815260200190815260200160002060008473ffffffffffffffffffffffffffffffffffffffff1673ffffffffffffffffffffffffffffffffffffffff168152602001908152602001600020819055508173ffffffffffffffffffffffffffffffffffffffff168373ffffffffffffffffffffffffffffffffffffffff167f8c5be1e5ebec7d5bd14f71427d1e84f3dd0314c0f7b2291e5b200ac8c7c3b9258360405161093991906115b5565b60405180910390a3505050565b600061095284846106d9565b90507fffffffffffffffffffffffffffffffffffffffffffffffffffffffffffffffff81146109cc57818110156109be576040517f08c379a00000000000000000000000000000000000000000000000000000000081526004016109b5906119dc565b60405180910390fd5b6109cb848484840361077b565b5b50505050565b600073ffffffffffffffffffffffffffffffffffffffff168373ffffffffffffffffffffffffffffffffffffffff161415610a42576040517f08c379a0000000000000000000000000000000000000000000000000000000008152600401610a3990611a6e565b60405180910390fd5b600073ffffffffffffffffffffffffffffffffffffffff168273ffffffffffffffffffffffffffffffffffffffff161415610ab2576040517f08c379a0000000000000000000000000000000000000000000000000000000008152600401610aa990611b00565b60405180910390fd5b610abd8383836110bb565b60008060008573ffffffffffffffffffffffffffffffffffffffff1673ffffffffffffffffffffffffffffffffffffffff16815260200190815260200160002054905081811015610b43576040517f08c379a0000000000000000000000000000000000000000000000000000000008152600401610b3a90611b92565b60405180910390fd5b8181036000808673ffffffffffffffffffffffffffffffffffffffff1673ffffffffffffffffffffffffffffffffffffffff16815260200190815260200160002081905550816000808573ffffffffffffffffffffffffffffffffffffffff1673ffffffffffffffffffffffffffffffffffffffff168152602001908152602001600020600082825401925050819055508273ffffffffffffffffffffffffffffffffffffffff168473ffffffffffffffffffffffffffffffffffffffff167fddf252ad1be2c89b69c2b068fc378daa952ba7f163c4a11628f55a4df523b3ef84604051610c3191906115b5565b60405180910390a3610c44848484611175565b50505050565b600073ffffffffffffffffffffffffffffffffffffffff168273ffffffffffffffffffffffffffffffffffffffff161415610cba576040517f08c379a0000000000000000000000000000000000000000000000000000000008152600401610cb190611bfe565b60405180910390fd5b610cc6600083836110bb565b8060026000828254610cd89190611784565b92505081905550806000808473ffffffffffffffffffffffffffffffffffffffff1673ffffffffffffffffffffffffffffffffffffffff168152602001908152602001600020600082825401925050819055508173ffffffffffffffffffffffffffffffffffffffff16600073ffffffffffffffffffffffffffffffffffffffff167fddf252ad1be2c89b69c2b068fc378daa952ba7f163c4a11628f55a4df523b3ef83604051610d8991906115b5565b60405180910390a3610d9d60008383611175565b5050565b60008060008411610de7576040517f08c379a0000000000000000000000000000000000000000000000000000000008152600401610dde90611c6a565b60405180910390fd5b610def61117a565b841115610e31576040517f08c379a0000000000000000000000000000000000000000000000000000000008152600401610e2890611cd6565b60405180910390fd5b6000610e49858560000161118b90919063ffffffff16565b90508360000180549050811415610e67576000809250925050610e90565b6001846001018281548110610e7f57610e7e611cf6565b5b906000526020600020015492509250505b9250929050565b6000610ea36008611245565b6000610ead61117a565b90507f8030e83b04d87bef53480e26263266d6ca66863aa8506aca6f2559d18aa1cb6781604051610ede91906115b5565b60405180910390a18091505090565b600073ffffffffffffffffffffffffffffffffffffffff168273ffffffffffffffffffffffffffffffffffffffff161415610f5d576040517f08c379a0000000000000000000000000000000000000000000000000000000008152600401610f5490611d97565b60405180910390fd5b610f69826000836110bb565b60008060008473ffffffffffffffffffffffffffffffffffffffff1673ffffffffffffffffffffffffffffffffffffffff16815260200190815260200160002054905081811015610fef576040517f08c379a0000000000000000000000000000000000000000000000000000000008152600401610fe690611e29565b60405180910390fd5b8181036000808573ffffffffffffffffffffffffffffffffffffffff1673ffffffffffffffffffffffffffffffffffffffff1681526020019081526020016000208190555081600260008282540392505081905550600073ffffffffffffffffffffffffffffffffffffffff168373ffffffffffffffffffffffffffffffffffffffff167fddf252ad1be2c89b69c2b068fc378daa952ba7f163c4a11628f55a4df523b3ef846040516110a291906115b5565b60405180910390a36110b683600084611175565b505050565b6110c6838383610760565b600073ffffffffffffffffffffffffffffffffffffffff168373ffffffffffffffffffffffffffffffffffffffff161415611111576111048261125b565b61110c6112ae565b611170565b600073ffffffffffffffffffffffffffffffffffffffff168273ffffffffffffffffffffffffffffffffffffffff16141561115c5761114f8361125b565b6111576112ae565b61116f565b6111658361125b565b61116e8261125b565b5b5b505050565b505050565b60006111866008610765565b905090565b600080838054905014156111a2576000905061123f565b600080848054905090505b808210156111f65760006111c183836112c2565b9050846111ce87836112e8565b6000015411156111e0578091506111f0565b6001816111ed9190611784565b92505b506111ad565b60008211801561121e575083611218866001856112139190611e49565b6112e8565b60000154145b15611239576001826112309190611e49565b9250505061123f565b81925050505b92915050565b6001816000016000828254019250508190555050565b6112ab600560008373ffffffffffffffffffffffffffffffffffffffff1673ffffffffffffffffffffffffffffffffffffffff1681526020019081526020016000206112a68361051b565b61130a565b50565b6112c060066112bb610424565b61130a565b565b600060028284186112d39190611eac565b8284166112e09190611784565b905092915050565b6000808360005282602060002001905061130181611385565b91505092915050565b600061131461117a565b9050806113238460000161138f565b10156113805782600001819080600181540180825580915050600190039060005260206000200160009091909190915055826001018290806001815401808255809150506001900390600052602060002001600090919091909150555b505050565b6000819050919050565b600080828054905014156113a657600090506113d7565b81600183805490506113b89190611e49565b815481106113c9576113c8611cf6565b5b906000526020600020015490505b919050565b600081519050919050565b600082825260208201905092915050565b60005b838110156114165780820151818401526020810190506113fb565b83811115611425576000848401525b50505050565b6000601f19601f8301169050919050565b6000611447826113dc565b61145181856113e7565b93506114618185602086016113f8565b61146a8161142b565b840191505092915050565b6000602082019050818103600083015261148f818461143c565b905092915050565b600080fd5b600073ffffffffffffffffffffffffffffffffffffffff82169050919050565b60006114c78261149c565b9050919050565b6114d7816114bc565b81146114e257600080fd5b50565b6000813590506114f4816114ce565b92915050565b6000819050919050565b61150d816114fa565b811461151857600080fd5b50565b60008135905061152a81611504565b92915050565b6000806040838503121561154757611546611497565b5b6000611555858286016114e5565b92505060206115668582860161151b565b9150509250929050565b60008115159050919050565b61158581611570565b82525050565b60006020820190506115a0600083018461157c565b92915050565b6115af816114fa565b82525050565b60006020820190506115ca60008301846115a6565b92915050565b6000806000606084860312156115e9576115e8611497565b5b60006115f7868287016114e5565b9350506020611608868287016114e5565b92505060406116198682870161151b565b9150509250925092565b600060ff82169050919050565b61163981611623565b82525050565b60006020820190506116546000830184611630565b92915050565b6000602082840312156116705761166f611497565b5b600061167e848285016114e5565b91505092915050565b60006020828403121561169d5761169c611497565b5b60006116ab8482850161151b565b91505092915050565b600080604083850312156116cb576116ca611497565b5b60006116d9858286016114e5565b92505060206116ea858286016114e5565b9150509250929050565b7f4e487b7100000000000000000000000000000000000000000000000000000000600052602260045260246000fd5b6000600282049050600182168061173b57607f821691505b6020821081141561174f5761174e6116f4565b5b50919050565b7f4e487b7100000000000000000000000000000000000000000000000000000000600052601160045260246000fd5b600061178f826114fa565b915061179a836114fa565b9250827fffffffffffffffffffffffffffffffffffffffffffffffffffffffffffffffff038211156117cf576117ce611755565b5b828201905092915050565b7f45524332303a2064656372656173656420616c6c6f77616e63652062656c6f7760008201527f207a65726f000000000000000000000000000000000000000000000000000000602082015250565b60006118366025836113e7565b9150611841826117da565b604082019050919050565b6000602082019050818103600083015261186581611829565b9050919050565b7f45524332303a20617070726f76652066726f6d20746865207a65726f2061646460008201527f7265737300000000000000000000000000000000000000000000000000000000602082015250565b60006118c86024836113e7565b91506118d38261186c565b604082019050919050565b600060208201905081810360008301526118f7816118bb565b9050919050565b7f45524332303a20617070726f766520746f20746865207a65726f20616464726560008201527f7373000000000000000000000000000000000000000000000000000000000000602082015250565b600061195a6022836113e7565b9150611965826118fe565b604082019050919050565b600060208201905081810360008301526119898161194d565b9050919050565b7f45524332303a20696e73756666696369656e7420616c6c6f77616e6365000000600082015250565b60006119c6601d836113e7565b91506119d182611990565b602082019050919050565b600060208201905081810360008301526119f5816119b9565b9050919050565b7f45524332303a207472616e736665722066726f6d20746865207a65726f20616460008201527f6472657373000000000000000000000000000000000000000000000000000000602082015250565b6000611a586025836113e7565b9150611a63826119fc565b604082019050919050565b60006020820190508181036000830152611a8781611a4b565b9050919050565b7f45524332303a207472616e7366657220746f20746865207a65726f206164647260008201527f6573730000000000000000000000000000000000000000000000000000000000602082015250565b6000611aea6023836113e7565b9150611af582611a8e565b604082019050919050565b60006020820190508181036000830152611b1981611add565b9050919050565b7f45524332303a207472616e7366657220616d6f756e742065786365656473206260008201527f616c616e63650000000000000000000000000000000000000000000000000000602082015250565b6000611b7c6026836113e7565b9150611b8782611b20565b604082019050919050565b60006020820190508181036000830152611bab81611b6f565b9050919050565b7f45524332303a206d696e7420746f20746865207a65726f206164647265737300600082015250565b6000611be8601f836113e7565b9150611bf382611bb2565b602082019050919050565b60006020820190508181036000830152611c1781611bdb565b9050919050565b7f4552433230536e617073686f743a206964206973203000000000000000000000600082015250565b6000611c546016836113e7565b9150611c5f82611c1e565b602082019050919050565b60006020820190508181036000830152611c8381611c47565b9050919050565b7f4552433230536e617073686f743a206e6f6e6578697374656e74206964000000600082015250565b6000611cc0601d836113e7565b9150611ccb82611c8a565b602082019050919050565b60006020820190508181036000830152611cef81611cb3565b9050919050565b7f4e487b7100000000000000000000000000000000000000000000000000000000600052603260045260246000fd5b7f45524332303a206275726e2066726f6d20746865207a65726f2061646472657360008201527f7300000000000000000000000000000000000000000000000000000000000000602082015250565b6000611d816021836113e7565b9150611d8c82611d25565b604082019050919050565b60006020820190508181036000830152611db081611d74565b9050919050565b7f45524332303a206275726e20616d6f756e7420657863656564732062616c616e60008201527f6365000000000000000000000000000000000000000000000000000000000000602082015250565b6000611e136022836113e7565b9150611e1e82611db7565b604082019050919050565b60006020820190508181036000830152611e4281611e06565b9050919050565b6000611e54826114fa565b9150611e5f836114fa565b925082821015611e7257611e71611755565b5b828203905092915050565b7f4e487b7100000000000000000000000000000000000000000000000000000000600052601260045260246000fd5b6000611eb7826114fa565b9150611ec2836114fa565b925082611ed257611ed1611e7d565b5b82820490509291505056fea2646970667358221220743c6c9bedd6c19d6d4cc7a1b5ffb83c1db2517a77a1888b66a092c3f53a02bf64736f6c63430008090033",
  "linkReferences": {},
  "deployedLinkReferences": {}
}