{
  "_format": "hh-sol-artifact-1",
  "contractName": "SafeERC20Wrapper",
  "sourceName": "contracts/openzeppelin/mocks/SafeERC20Helper.sol",
  "abi": [
    {
      "inputs": [
        {
          "internalType": "contract IERC20",
          "name": "token",
          "type": "address"
        }
      ],
      "stateMutability": "nonpayable",
      "type": "constructor"
    },
    {
      "inputs": [],
      "name": "allowance",
      "outputs": [
        {
          "internalType": "uint256",
          "name": "",
          "type": "uint256"
        }
      ],
      "stateMutability": "view",
      "type": "function"
    },
    {
      "inputs": [
        {
          "internalType": "uint256",
          "name": "amount",
          "type": "uint256"
        }
      ],
      "name": "approve",
      "outputs": [],
      "stateMutability": "nonpayable",
      "type": "function"
    },
    {
      "inputs": [
        {
          "internalType": "uint256",
          "name": "amount",
          "type": "uint256"
        }
      ],
      "name": "decreaseAllowance",
      "outputs": [],
      "stateMutability": "nonpayable",
      "type": "function"
    },
    {
      "inputs": [
        {
          "internalType": "uint256",
          "name": "amount",
          "type": "uint256"
        }
      ],
      "name": "increaseAllowance",
      "outputs": [],
      "stateMutability": "nonpayable",
      "type": "function"
    },
    {
      "inputs": [
        {
          "internalType": "address",
          "name": "owner",
          "type": "address"
        },
        {
          "internalType": "address",
          "name": "spender",
          "type": "address"
        },
        {
          "internalType": "uint256",
          "name": "value",
          "type": "uint256"
        },
        {
          "internalType": "uint256",
          "name": "deadline",
          "type": "uint256"
        },
        {
          "internalType": "uint8",
          "name": "v",
          "type": "uint8"
        },
        {
          "internalType": "bytes32",
          "name": "r",
          "type": "bytes32"
        },
        {
          "internalType": "bytes32",
          "name": "s",
          "type": "bytes32"
        }
      ],
      "name": "permit",
      "outputs": [],
      "stateMutability": "nonpayable",
      "type": "function"
    },
    {
      "inputs": [
        {
          "internalType": "uint256",
          "name": "allowance_",
          "type": "uint256"
        }
      ],
      "name": "setAllowance",
      "outputs": [],
      "stateMutability": "nonpayable",
      "type": "function"
    },
    {
      "inputs": [],
      "name": "transfer",
      "outputs": [],
      "stateMutability": "nonpayable",
      "type": "function"
    },
    {
      "inputs": [],
      "name": "transferFrom",
      "outputs": [],
      "stateMutability": "nonpayable",
      "type": "function"
    }
  ],
  "bytecode": "0x60806040523480156200001157600080fd5b5060405162001802380380620018028339818101604052810190620000379190620000fc565b806000806101000a81548173ffffffffffffffffffffffffffffffffffffffff021916908373ffffffffffffffffffffffffffffffffffffffff160217905550506200012e565b600080fd5b600073ffffffffffffffffffffffffffffffffffffffff82169050919050565b6000620000b08262000083565b9050919050565b6000620000c482620000a3565b9050919050565b620000d681620000b7565b8114620000e257600080fd5b50565b600081519050620000f681620000cb565b92915050565b6000602082840312156200011557620001146200007e565b5b60006200012584828501620000e5565b91505092915050565b6116c4806200013e6000396000f3fe608060405234801561001057600080fd5b50600436106100885760003560e01c80638a4068dd1161005b5780638a4068dd146100eb578063b759f954146100f5578063d505accf14610111578063de242ff41461012d57610088565b806310bad4cf1461008d57806311e330b2146100a95780633ba93f26146100c5578063811c34d3146100e1575b600080fd5b6100a760048036038101906100a29190610dfd565b61014b565b005b6100c360048036038101906100be9190610dfd565b61019a565b005b6100df60048036038101906100da9190610dfd565b6101e9565b005b6100e9610277565b005b6100f36102c9565b005b61010f600480360381019061010a9190610dfd565b610317565b005b61012b60048036038101906101269190610ef7565b610366565b005b61013561039f565b6040516101429190610fa8565b60405180910390f35b61019760008260008054906101000a900473ffffffffffffffffffffffffffffffffffffffff1673ffffffffffffffffffffffffffffffffffffffff166104539092919063ffffffff16565b50565b6101e660008260008054906101000a900473ffffffffffffffffffffffffffffffffffffffff1673ffffffffffffffffffffffffffffffffffffffff166105b49092919063ffffffff16565b50565b60008054906101000a900473ffffffffffffffffffffffffffffffffffffffff1673ffffffffffffffffffffffffffffffffffffffff16633ba93f26826040518263ffffffff1660e01b81526004016102429190610fa8565b600060405180830381600087803b15801561025c57600080fd5b505af1158015610270573d6000803e3d6000fd5b5050505050565b6102c760008060008060009054906101000a900473ffffffffffffffffffffffffffffffffffffffff1673ffffffffffffffffffffffffffffffffffffffff166106d5909392919063ffffffff16565b565b61031560008060008054906101000a900473ffffffffffffffffffffffffffffffffffffffff1673ffffffffffffffffffffffffffffffffffffffff1661075e9092919063ffffffff16565b565b61036360008260008054906101000a900473ffffffffffffffffffffffffffffffffffffffff1673ffffffffffffffffffffffffffffffffffffffff166107e49092919063ffffffff16565b50565b61039660008054906101000a900473ffffffffffffffffffffffffffffffffffffffff1688888888888888610942565b50505050505050565b60008060009054906101000a900473ffffffffffffffffffffffffffffffffffffffff1673ffffffffffffffffffffffffffffffffffffffff1663dd62ed3e6000806040518363ffffffff1660e01b81526004016103fe929190610fd2565b60206040518083038186803b15801561041657600080fd5b505afa15801561042a573d6000803e3d6000fd5b505050506040513d601f19601f8201168201806040525081019061044e9190611010565b905090565b60008373ffffffffffffffffffffffffffffffffffffffff1663dd62ed3e30856040518363ffffffff1660e01b8152600401610490929190610fd2565b60206040518083038186803b1580156104a857600080fd5b505afa1580156104bc573d6000803e3d6000fd5b505050506040513d601f19601f820116820180604052508101906104e09190611010565b905081811015610525576040517f08c379a000000000000000000000000000000000000000000000000000000000815260040161051c906110c0565b60405180910390fd5b600082820390506105ad8563095ea7b360e01b868460405160240161054b9291906110e0565b604051602081830303815290604052907bffffffffffffffffffffffffffffffffffffffffffffffffffffffff19166020820180517bffffffffffffffffffffffffffffffffffffffffffffffffffffffff8381831617835250505050610b2d565b5050505050565b6000818473ffffffffffffffffffffffffffffffffffffffff1663dd62ed3e30866040518363ffffffff1660e01b81526004016105f2929190610fd2565b60206040518083038186803b15801561060a57600080fd5b505afa15801561061e573d6000803e3d6000fd5b505050506040513d601f19601f820116820180604052508101906106429190611010565b61064c9190611138565b90506106cf8463095ea7b360e01b858460405160240161066d9291906110e0565b604051602081830303815290604052907bffffffffffffffffffffffffffffffffffffffffffffffffffffffff19166020820180517bffffffffffffffffffffffffffffffffffffffffffffffffffffffff8381831617835250505050610b2d565b50505050565b610758846323b872dd60e01b8585856040516024016106f69392919061118e565b604051602081830303815290604052907bffffffffffffffffffffffffffffffffffffffffffffffffffffffff19166020820180517bffffffffffffffffffffffffffffffffffffffffffffffffffffffff8381831617835250505050610b2d565b50505050565b6107df8363a9059cbb60e01b848460405160240161077d9291906110e0565b604051602081830303815290604052907bffffffffffffffffffffffffffffffffffffffffffffffffffffffff19166020820180517bffffffffffffffffffffffffffffffffffffffffffffffffffffffff8381831617835250505050610b2d565b505050565b600081148061087d575060008373ffffffffffffffffffffffffffffffffffffffff1663dd62ed3e30856040518363ffffffff1660e01b815260040161082b929190610fd2565b60206040518083038186803b15801561084357600080fd5b505afa158015610857573d6000803e3d6000fd5b505050506040513d601f19601f8201168201806040525081019061087b9190611010565b145b6108bc576040517f08c379a00000000000000000000000000000000000000000000000000000000081526004016108b390611237565b60405180910390fd5b61093d8363095ea7b360e01b84846040516024016108db9291906110e0565b604051602081830303815290604052907bffffffffffffffffffffffffffffffffffffffffffffffffffffffff19166020820180517bffffffffffffffffffffffffffffffffffffffffffffffffffffffff8381831617835250505050610b2d565b505050565b60008873ffffffffffffffffffffffffffffffffffffffff16637ecebe00896040518263ffffffff1660e01b815260040161097d9190611257565b60206040518083038186803b15801561099557600080fd5b505afa1580156109a9573d6000803e3d6000fd5b505050506040513d601f19601f820116820180604052508101906109cd9190611010565b90508873ffffffffffffffffffffffffffffffffffffffff1663d505accf898989898989896040518863ffffffff1660e01b8152600401610a149796959493929190611290565b600060405180830381600087803b158015610a2e57600080fd5b505af1158015610a42573d6000803e3d6000fd5b5050505060008973ffffffffffffffffffffffffffffffffffffffff16637ecebe008a6040518263ffffffff1660e01b8152600401610a819190611257565b60206040518083038186803b158015610a9957600080fd5b505afa158015610aad573d6000803e3d6000fd5b505050506040513d601f19601f82011682018060405250810190610ad19190611010565b9050600182610ae09190611138565b8114610b21576040517f08c379a0000000000000000000000000000000000000000000000000000000008152600401610b1890611371565b60405180910390fd5b50505050505050505050565b6000610b8f826040518060400160405280602081526020017f5361666545524332303a206c6f772d6c6576656c2063616c6c206661696c65648152508573ffffffffffffffffffffffffffffffffffffffff16610bf49092919063ffffffff16565b9050600081511115610bef5780806020019051810190610baf91906113c9565b610bee576040517f08c379a0000000000000000000000000000000000000000000000000000000008152600401610be590611468565b60405180910390fd5b5b505050565b6060610c038484600085610c0c565b90509392505050565b606082471015610c51576040517f08c379a0000000000000000000000000000000000000000000000000000000008152600401610c48906114fa565b60405180910390fd5b6000808673ffffffffffffffffffffffffffffffffffffffff168587604051610c7a9190611594565b60006040518083038185875af1925050503d8060008114610cb7576040519150601f19603f3d011682016040523d82523d6000602084013e610cbc565b606091505b5091509150610ccd87838387610cd9565b92505050949350505050565b60608315610d3c57600083511415610d3457610cf485610d4f565b610d33576040517f08c379a0000000000000000000000000000000000000000000000000000000008152600401610d2a906115f7565b60405180910390fd5b5b829050610d47565b610d468383610d72565b5b949350505050565b6000808273ffffffffffffffffffffffffffffffffffffffff163b119050919050565b600082511115610d855781518083602001fd5b806040517f08c379a0000000000000000000000000000000000000000000000000000000008152600401610db9919061166c565b60405180910390fd5b600080fd5b6000819050919050565b610dda81610dc7565b8114610de557600080fd5b50565b600081359050610df781610dd1565b92915050565b600060208284031215610e1357610e12610dc2565b5b6000610e2184828501610de8565b91505092915050565b600073ffffffffffffffffffffffffffffffffffffffff82169050919050565b6000610e5582610e2a565b9050919050565b610e6581610e4a565b8114610e7057600080fd5b50565b600081359050610e8281610e5c565b92915050565b600060ff82169050919050565b610e9e81610e88565b8114610ea957600080fd5b50565b600081359050610ebb81610e95565b92915050565b6000819050919050565b610ed481610ec1565b8114610edf57600080fd5b50565b600081359050610ef181610ecb565b92915050565b600080600080600080600060e0888a031215610f1657610f15610dc2565b5b6000610f248a828b01610e73565b9750506020610f358a828b01610e73565b9650506040610f468a828b01610de8565b9550506060610f578a828b01610de8565b9450506080610f688a828b01610eac565b93505060a0610f798a828b01610ee2565b92505060c0610f8a8a828b01610ee2565b91505092959891949750929550565b610fa281610dc7565b82525050565b6000602082019050610fbd6000830184610f99565b92915050565b610fcc81610e4a565b82525050565b6000604082019050610fe76000830185610fc3565b610ff46020830184610fc3565b9392505050565b60008151905061100a81610dd1565b92915050565b60006020828403121561102657611025610dc2565b5b600061103484828501610ffb565b91505092915050565b600082825260208201905092915050565b7f5361666545524332303a2064656372656173656420616c6c6f77616e6365206260008201527f656c6f77207a65726f0000000000000000000000000000000000000000000000602082015250565b60006110aa60298361103d565b91506110b58261104e565b604082019050919050565b600060208201905081810360008301526110d98161109d565b9050919050565b60006040820190506110f56000830185610fc3565b6111026020830184610f99565b9392505050565b7f4e487b7100000000000000000000000000000000000000000000000000000000600052601160045260246000fd5b600061114382610dc7565b915061114e83610dc7565b9250827fffffffffffffffffffffffffffffffffffffffffffffffffffffffffffffffff0382111561118357611182611109565b5b828201905092915050565b60006060820190506111a36000830186610fc3565b6111b06020830185610fc3565b6111bd6040830184610f99565b949350505050565b7f5361666545524332303a20617070726f76652066726f6d206e6f6e2d7a65726f60008201527f20746f206e6f6e2d7a65726f20616c6c6f77616e636500000000000000000000602082015250565b600061122160368361103d565b915061122c826111c5565b604082019050919050565b6000602082019050818103600083015261125081611214565b9050919050565b600060208201905061126c6000830184610fc3565b92915050565b61127b81610e88565b82525050565b61128a81610ec1565b82525050565b600060e0820190506112a5600083018a610fc3565b6112b26020830189610fc3565b6112bf6040830188610f99565b6112cc6060830187610f99565b6112d96080830186611272565b6112e660a0830185611281565b6112f360c0830184611281565b98975050505050505050565b7f5361666545524332303a207065726d697420646964206e6f742073756363656560008201527f6400000000000000000000000000000000000000000000000000000000000000602082015250565b600061135b60218361103d565b9150611366826112ff565b604082019050919050565b6000602082019050818103600083015261138a8161134e565b9050919050565b60008115159050919050565b6113a681611391565b81146113b157600080fd5b50565b6000815190506113c38161139d565b92915050565b6000602082840312156113df576113de610dc2565b5b60006113ed848285016113b4565b91505092915050565b7f5361666545524332303a204552433230206f7065726174696f6e20646964206e60008201527f6f74207375636365656400000000000000000000000000000000000000000000602082015250565b6000611452602a8361103d565b915061145d826113f6565b604082019050919050565b6000602082019050818103600083015261148181611445565b9050919050565b7f416464726573733a20696e73756666696369656e742062616c616e636520666f60008201527f722063616c6c0000000000000000000000000000000000000000000000000000602082015250565b60006114e460268361103d565b91506114ef82611488565b604082019050919050565b60006020820190508181036000830152611513816114d7565b9050919050565b600081519050919050565b600081905092915050565b60005b8381101561154e578082015181840152602081019050611533565b8381111561155d576000848401525b50505050565b600061156e8261151a565b6115788185611525565b9350611588818560208601611530565b80840191505092915050565b60006115a08284611563565b915081905092915050565b7f416464726573733a2063616c6c20746f206e6f6e2d636f6e7472616374000000600082015250565b60006115e1601d8361103d565b91506115ec826115ab565b602082019050919050565b60006020820190508181036000830152611610816115d4565b9050919050565b600081519050919050565b6000601f19601f8301169050919050565b600061163e82611617565b611648818561103d565b9350611658818560208601611530565b61166181611622565b840191505092915050565b600060208201905081810360008301526116868184611633565b90509291505056fea2646970667358221220ed39ed1827edd1780f0224ae2725eeb3554b9e639a988e8d12cb7fbb98fb837c64736f6c63430008090033",
  "linkReferences": {},
  "deployedLinkReferences": {}
}