{
  "_format": "hh-sol-artifact-1",
  "contractName": "InitializableMock",
  "sourceName": "contracts/openzeppelin/mocks/InitializableMock.sol",
  "abi": [
    {
      "anonymous": false,
      "inputs": [
        {
          "indexed": false,
          "internalType": "uint8",
          "name": "version",
          "type": "uint8"
        }
      ],
      "name": "Initialized",
      "type": "event"
    },
    {
      "inputs": [],
      "name": "fail",
      "outputs": [],
      "stateMutability": "pure",
      "type": "function"
    },
    {
      "inputs": [],
      "name": "initialize",
      "outputs": [],
      "stateMutability": "nonpayable",
      "type": "function"
    },
    {
      "inputs": [],
      "name": "initializeOnlyInitializing",
      "outputs": [],
      "stateMutability": "nonpayable",
      "type": "function"
    },
    {
      "inputs": [
        {
          "internalType": "uint256",
          "name": "_x",
          "type": "uint256"
        }
      ],
      "name": "initializeWithX",
      "outputs": [],
      "stateMutability": "payable",
      "type": "function"
    },
    {
      "inputs": [],
      "name": "initializerNested",
      "outputs": [],
      "stateMutability": "nonpayable",
      "type": "function"
    },
    {
      "inputs": [],
      "name": "initializerRan",
      "outputs": [
        {
          "internalType": "bool",
          "name": "",
          "type": "bool"
        }
      ],
      "stateMutability": "view",
      "type": "function"
    },
    {
      "inputs": [],
      "name": "isInitializing",
      "outputs": [
        {
          "internalType": "bool",
          "name": "",
          "type": "bool"
        }
      ],
      "stateMutability": "view",
      "type": "function"
    },
    {
      "inputs": [
        {
          "internalType": "uint256",
          "name": "_x",
          "type": "uint256"
        }
      ],
      "name": "nonInitializable",
      "outputs": [],
      "stateMutability": "payable",
      "type": "function"
    },
    {
      "inputs": [],
      "name": "onlyInitializingNested",
      "outputs": [],
      "stateMutability": "nonpayable",
      "type": "function"
    },
    {
      "inputs": [],
      "name": "onlyInitializingRan",
      "outputs": [
        {
          "internalType": "bool",
          "name": "",
          "type": "bool"
        }
      ],
      "stateMutability": "view",
      "type": "function"
    },
    {
      "inputs": [],
      "name": "x",
      "outputs": [
        {
          "internalType": "uint256",
          "name": "",
          "type": "uint256"
        }
      ],
      "stateMutability": "view",
      "type": "function"
    }
  ],
  "bytecode": "0x608060405234801561001057600080fd5b50610b3b806100206000396000f3fe60806040526004361061009b5760003560e01c806376268ae81161006457806376268ae8146101405780637cffe97a146101575780638129fc1c14610182578063a9cc471814610199578063c3b8ef2a146101b0578063e955c9ec146101db5761009b565b806218eaa8146100a05780630c55699c146100bc57806310065ed2146100e75780633ec91f05146100fe57806368449d1b14610129575b600080fd5b6100ba60048036038101906100b5919061086a565b6101f7565b005b3480156100c857600080fd5b506100d1610335565b6040516100de91906108a6565b60405180910390f35b3480156100f357600080fd5b506100fc61033b565b005b34801561010a57600080fd5b506101136103a7565b60405161012091906108dc565b60405180910390f35b34801561013557600080fd5b5061013e6103b6565b005b34801561014c57600080fd5b506101556104f4565b005b34801561016357600080fd5b5061016c610632565b60405161017991906108dc565b60405180910390f35b34801561018e57600080fd5b50610197610645565b005b3480156101a557600080fd5b506101ae610796565b005b3480156101bc57600080fd5b506101c56107d9565b6040516101d291906108dc565b60405180910390f35b6101f560048036038101906101f0919061086a565b6107ec565b005b60008060019054906101000a900460ff161590508080156102285750600160008054906101000a900460ff1660ff16105b806102555750610237306107f6565b1580156102545750600160008054906101000a900460ff1660ff16145b5b610294576040517f08c379a000000000000000000000000000000000000000000000000000000000815260040161028b9061097a565b60405180910390fd5b60016000806101000a81548160ff021916908360ff16021790555080156102d1576001600060016101000a81548160ff0219169083151502179055505b8160018190555080156103315760008060016101000a81548160ff0219169083151502179055507f7f26b83ff96e1f2b6a682f133852f6798a09c465da95921460cefb3847402498600160405161032891906109ec565b60405180910390a15b5050565b60015481565b600060019054906101000a900460ff1661038a576040517f08c379a000000000000000000000000000000000000000000000000000000000815260040161038190610a79565b60405180910390fd5b6001600060036101000a81548160ff021916908315150217905550565b60006103b1610819565b905090565b60008060019054906101000a900460ff161590508080156103e75750600160008054906101000a900460ff1660ff16105b8061041457506103f6306107f6565b1580156104135750600160008054906101000a900460ff1660ff16145b5b610453576040517f08c379a000000000000000000000000000000000000000000000000000000000815260040161044a9061097a565b60405180910390fd5b60016000806101000a81548160ff021916908360ff1602179055508015610490576001600060016101000a81548160ff0219169083151502179055505b61049861033b565b80156104f15760008060016101000a81548160ff0219169083151502179055507f7f26b83ff96e1f2b6a682f133852f6798a09c465da95921460cefb384740249860016040516104e891906109ec565b60405180910390a15b50565b60008060019054906101000a900460ff161590508080156105255750600160008054906101000a900460ff1660ff16105b806105525750610534306107f6565b1580156105515750600160008054906101000a900460ff1660ff16145b5b610591576040517f08c379a00000000000000000000000000000000000000000000000000000000081526004016105889061097a565b60405180910390fd5b60016000806101000a81548160ff021916908360ff16021790555080156105ce576001600060016101000a81548160ff0219169083151502179055505b6105d6610645565b801561062f5760008060016101000a81548160ff0219169083151502179055507f7f26b83ff96e1f2b6a682f133852f6798a09c465da95921460cefb3847402498600160405161062691906109ec565b60405180910390a15b50565b600060039054906101000a900460ff1681565b60008060019054906101000a900460ff161590508080156106765750600160008054906101000a900460ff1660ff16105b806106a35750610685306107f6565b1580156106a25750600160008054906101000a900460ff1660ff16145b5b6106e2576040517f08c379a00000000000000000000000000000000000000000000000000000000081526004016106d99061097a565b60405180910390fd5b60016000806101000a81548160ff021916908360ff160217905550801561071f576001600060016101000a81548160ff0219169083151502179055505b6001600060026101000a81548160ff02191690831515021790555080156107935760008060016101000a81548160ff0219169083151502179055507f7f26b83ff96e1f2b6a682f133852f6798a09c465da95921460cefb3847402498600160405161078a91906109ec565b60405180910390a15b50565b60006107d7576040517f08c379a00000000000000000000000000000000000000000000000000000000081526004016107ce90610ae5565b60405180910390fd5b565b600060029054906101000a900460ff1681565b8060018190555050565b6000808273ffffffffffffffffffffffffffffffffffffffff163b119050919050565b60008060019054906101000a900460ff16905090565b600080fd5b6000819050919050565b61084781610834565b811461085257600080fd5b50565b6000813590506108648161083e565b92915050565b6000602082840312156108805761087f61082f565b5b600061088e84828501610855565b91505092915050565b6108a081610834565b82525050565b60006020820190506108bb6000830184610897565b92915050565b60008115159050919050565b6108d6816108c1565b82525050565b60006020820190506108f160008301846108cd565b92915050565b600082825260208201905092915050565b7f496e697469616c697a61626c653a20636f6e747261637420697320616c72656160008201527f647920696e697469616c697a6564000000000000000000000000000000000000602082015250565b6000610964602e836108f7565b915061096f82610908565b604082019050919050565b6000602082019050818103600083015261099381610957565b9050919050565b6000819050919050565b600060ff82169050919050565b6000819050919050565b60006109d66109d16109cc8461099a565b6109b1565b6109a4565b9050919050565b6109e6816109bb565b82525050565b6000602082019050610a0160008301846109dd565b92915050565b7f496e697469616c697a61626c653a20636f6e7472616374206973206e6f74206960008201527f6e697469616c697a696e67000000000000000000000000000000000000000000602082015250565b6000610a63602b836108f7565b9150610a6e82610a07565b604082019050919050565b60006020820190508181036000830152610a9281610a56565b9050919050565b7f496e697469616c697a61626c654d6f636b20666f72636564206661696c757265600082015250565b6000610acf6020836108f7565b9150610ada82610a99565b602082019050919050565b60006020820190508181036000830152610afe81610ac2565b905091905056fea2646970667358221220bda6dbc1913636b8437b110f52246639fce8e842b8b93916865e30fd83e7242d64736f6c63430008090033",
  "linkReferences": {},
  "deployedLinkReferences": {}
}