{
  "_format": "hh-sol-artifact-1",
  "contractName": "TimersBlockNumberImpl",
  "sourceName": "contracts/openzeppelin/mocks/TimersBlockNumberImpl.sol",
  "abi": [
    {
      "inputs": [],
      "name": "getDeadline",
      "outputs": [
        {
          "internalType": "uint64",
          "name": "",
          "type": "uint64"
        }
      ],
      "stateMutability": "view",
      "type": "function"
    },
    {
      "inputs": [],
      "name": "isExpired",
      "outputs": [
        {
          "internalType": "bool",
          "name": "",
          "type": "bool"
        }
      ],
      "stateMutability": "view",
      "type": "function"
    },
    {
      "inputs": [],
      "name": "isPending",
      "outputs": [
        {
          "internalType": "bool",
          "name": "",
          "type": "bool"
        }
      ],
      "stateMutability": "view",
      "type": "function"
    },
    {
      "inputs": [],
      "name": "isStarted",
      "outputs": [
        {
          "internalType": "bool",
          "name": "",
          "type": "bool"
        }
      ],
      "stateMutability": "view",
      "type": "function"
    },
    {
      "inputs": [],
      "name": "isUnset",
      "outputs": [
        {
          "internalType": "bool",
          "name": "",
          "type": "bool"
        }
      ],
      "stateMutability": "view",
      "type": "function"
    },
    {
      "inputs": [],
      "name": "reset",
      "outputs": [],
      "stateMutability": "nonpayable",
      "type": "function"
    },
    {
      "inputs": [
        {
          "internalType": "uint64",
          "name": "timestamp",
          "type": "uint64"
        }
      ],
      "name": "setDeadline",
      "outputs": [],
      "stateMutability": "nonpayable",
      "type": "function"
    }
  ],
  "bytecode": "0x608060405234801561001057600080fd5b506104d5806100206000396000f3fe608060405234801561001057600080fd5b506004361061007d5760003560e01c80635f8d96de1161005b5780635f8d96de146100dc5780639c30ad7e146100fa578063aebc048314610118578063d826f88f146101345761007d565b80632260fe3a146100825780632f13b60c146100a0578063544736e6146100be575b600080fd5b61008a61013e565b60405161009791906103e8565b60405180910390f35b6100a861018c565b6040516100b591906103e8565b60405180910390f35b6100c66101da565b6040516100d391906103e8565b60405180910390f35b6100e4610228565b6040516100f19190610426565b60405180910390f35b610102610276565b60405161010f91906103e8565b60405180910390f35b610132600480360381019061012d9190610472565b6102c4565b005b61013c6102db565b005b600061018760006040518060200160405290816000820160009054906101000a900467ffffffffffffffff1667ffffffffffffffff1667ffffffffffffffff16815250506102e7565b905090565b60006101d560006040518060200160405290816000820160009054906101000a900467ffffffffffffffff1667ffffffffffffffff1667ffffffffffffffff1681525050610301565b905090565b600061022360006040518060200160405290816000820160009054906101000a900467ffffffffffffffff1667ffffffffffffffff1667ffffffffffffffff168152505061032d565b905090565b600061027160006040518060200160405290816000820160009054906101000a900467ffffffffffffffff1667ffffffffffffffff1667ffffffffffffffff1681525050610347565b905090565b60006102bf60006040518060200160405290816000820160009054906101000a900467ffffffffffffffff1667ffffffffffffffff1667ffffffffffffffff1681525050610355565b905090565b6102d881600061036f90919063ffffffff16565b50565b6102e5600061039e565b565b600080826000015167ffffffffffffffff16149050919050565b600061030c8261032d565b8015610326575043826000015167ffffffffffffffff1611155b9050919050565b600080826000015167ffffffffffffffff16119050919050565b600081600001519050919050565b600043826000015167ffffffffffffffff16119050919050565b808260000160006101000a81548167ffffffffffffffff021916908367ffffffffffffffff1602179055505050565b60008160000160006101000a81548167ffffffffffffffff021916908367ffffffffffffffff16021790555050565b60008115159050919050565b6103e2816103cd565b82525050565b60006020820190506103fd60008301846103d9565b92915050565b600067ffffffffffffffff82169050919050565b61042081610403565b82525050565b600060208201905061043b6000830184610417565b92915050565b600080fd5b61044f81610403565b811461045a57600080fd5b50565b60008135905061046c81610446565b92915050565b60006020828403121561048857610487610441565b5b60006104968482850161045d565b9150509291505056fea264697066735822122092afa89314d35b44a5598fd840c93d5fed3a67e398b72e4ee1912ac11fd42fc764736f6c63430008090033",
  "linkReferences": {},
  "deployedLinkReferences": {}
}