{
  "_format": "hh-sol-artifact-1",
  "contractName": "AddressArraysMock",
  "sourceName": "contracts/openzeppelin/mocks/ArraysMock.sol",
  "abi": [
    {
      "inputs": [
        {
          "internalType": "address[]",
          "name": "array",
          "type": "address[]"
        }
      ],
      "stateMutability": "nonpayable",
      "type": "constructor"
    },
    {
      "inputs": [
        {
          "internalType": "uint256",
          "name": "pos",
          "type": "uint256"
        }
      ],
      "name": "unsafeAccess",
      "outputs": [
        {
          "internalType": "address",
          "name": "",
          "type": "address"
        }
      ],
      "stateMutability": "view",
      "type": "function"
    }
  ],
  "bytecode": "0x608060405234801561001057600080fd5b506040516104e03803806104e0833981810160405281019061003291906102c1565b806000908051906020019061004892919061004f565b505061030a565b8280548282559060005260206000209081019282156100c8579160200282015b828111156100c75782518260006101000a81548173ffffffffffffffffffffffffffffffffffffffff021916908373ffffffffffffffffffffffffffffffffffffffff1602179055509160200191906001019061006f565b5b5090506100d591906100d9565b5090565b5b808211156100f25760008160009055506001016100da565b5090565b6000604051905090565b600080fd5b600080fd5b600080fd5b6000601f19601f8301169050919050565b7f4e487b7100000000000000000000000000000000000000000000000000000000600052604160045260246000fd5b6101588261010f565b810181811067ffffffffffffffff8211171561017757610176610120565b5b80604052505050565b600061018a6100f6565b9050610196828261014f565b919050565b600067ffffffffffffffff8211156101b6576101b5610120565b5b602082029050602081019050919050565b600080fd5b600073ffffffffffffffffffffffffffffffffffffffff82169050919050565b60006101f7826101cc565b9050919050565b610207816101ec565b811461021257600080fd5b50565b600081519050610224816101fe565b92915050565b600061023d6102388461019b565b610180565b905080838252602082019050602084028301858111156102605761025f6101c7565b5b835b8181101561028957806102758882610215565b845260208401935050602081019050610262565b5050509392505050565b600082601f8301126102a8576102a761010a565b5b81516102b884826020860161022a565b91505092915050565b6000602082840312156102d7576102d6610100565b5b600082015167ffffffffffffffff8111156102f5576102f4610105565b5b61030184828501610293565b91505092915050565b6101c7806103196000396000f3fe608060405234801561001057600080fd5b506004361061002b5760003560e01c806340aa934d14610030575b600080fd5b61004a60048036038101906100459190610108565b610060565b6040516100579190610176565b60405180910390f35b60006100768260006100a190919063ffffffff16565b60000160009054906101000a900473ffffffffffffffffffffffffffffffffffffffff169050919050565b600080836000528260206000200190506100ba816100c3565b91505092915050565b6000819050919050565b600080fd5b6000819050919050565b6100e5816100d2565b81146100f057600080fd5b50565b600081359050610102816100dc565b92915050565b60006020828403121561011e5761011d6100cd565b5b600061012c848285016100f3565b91505092915050565b600073ffffffffffffffffffffffffffffffffffffffff82169050919050565b600061016082610135565b9050919050565b61017081610155565b82525050565b600060208201905061018b6000830184610167565b9291505056fea26469706673582212204bb72304724957d813689f6b2508b0d8c34f586f3adbaf0287c5058a72b2a65064736f6c63430008090033",
  "linkReferences": {},
  "deployedLinkReferences": {}
}