{
  "_format": "hh-sol-artifact-1",
  "contractName": "ERC721Mock",
  "sourceName": "contracts/openzeppelin/mocks/ERC721Mock.sol",
  "abi": [
    {
      "inputs": [
        {
          "internalType": "string",
          "name": "name",
          "type": "string"
        },
        {
          "internalType": "string",
          "name": "symbol",
          "type": "string"
        }
      ],
      "stateMutability": "nonpayable",
      "type": "constructor"
    },
    {
      "anonymous": false,
      "inputs": [
        {
          "indexed": true,
          "internalType": "address",
          "name": "owner",
          "type": "address"
        },
        {
          "indexed": true,
          "internalType": "address",
          "name": "approved",
          "type": "address"
        },
        {
          "indexed": true,
          "internalType": "uint256",
          "name": "tokenId",
          "type": "uint256"
        }
      ],
      "name": "Approval",
      "type": "event"
    },
    {
      "anonymous": false,
      "inputs": [
        {
          "indexed": true,
          "internalType": "address",
          "name": "owner",
          "type": "address"
        },
        {
          "indexed": true,
          "internalType": "address",
          "name": "operator",
          "type": "address"
        },
        {
          "indexed": false,
          "internalType": "bool",
          "name": "approved",
          "type": "bool"
        }
      ],
      "name": "ApprovalForAll",
      "type": "event"
    },
    {
      "anonymous": false,
      "inputs": [
        {
          "indexed": true,
          "internalType": "address",
          "name": "from",
          "type": "address"
        },
        {
          "indexed": true,
          "internalType": "address",
          "name": "to",
          "type": "address"
        },
        {
          "indexed": true,
          "internalType": "uint256",
          "name": "tokenId",
          "type": "uint256"
        }
      ],
      "name": "Transfer",
      "type": "event"
    },
    {
      "inputs": [
        {
          "internalType": "address",
          "name": "to",
          "type": "address"
        },
        {
          "internalType": "uint256",
          "name": "tokenId",
          "type": "uint256"
        }
      ],
      "name": "approve",
      "outputs": [],
      "stateMutability": "nonpayable",
      "type": "function"
    },
    {
      "inputs": [
        {
          "internalType": "address",
          "name": "owner",
          "type": "address"
        }
      ],
      "name": "balanceOf",
      "outputs": [
        {
          "internalType": "uint256",
          "name": "",
          "type": "uint256"
        }
      ],
      "stateMutability": "view",
      "type": "function"
    },
    {
      "inputs": [],
      "name": "baseURI",
      "outputs": [
        {
          "internalType": "string",
          "name": "",
          "type": "string"
        }
      ],
      "stateMutability": "view",
      "type": "function"
    },
    {
      "inputs": [
        {
          "internalType": "uint256",
          "name": "tokenId",
          "type": "uint256"
        }
      ],
      "name": "burn",
      "outputs": [],
      "stateMutability": "nonpayable",
      "type": "function"
    },
    {
      "inputs": [
        {
          "internalType": "uint256",
          "name": "tokenId",
          "type": "uint256"
        }
      ],
      "name": "exists",
      "outputs": [
        {
          "internalType": "bool",
          "name": "",
          "type": "bool"
        }
      ],
      "stateMutability": "view",
      "type": "function"
    },
    {
      "inputs": [
        {
          "internalType": "uint256",
          "name": "tokenId",
          "type": "uint256"
        }
      ],
      "name": "getApproved",
      "outputs": [
        {
          "internalType": "address",
          "name": "",
          "type": "address"
        }
      ],
      "stateMutability": "view",
      "type": "function"
    },
    {
      "inputs": [
        {
          "internalType": "address",
          "name": "owner",
          "type": "address"
        },
        {
          "internalType": "address",
          "name": "operator",
          "type": "address"
        }
      ],
      "name": "isApprovedForAll",
      "outputs": [
        {
          "internalType": "bool",
          "name": "",
          "type": "bool"
        }
      ],
      "stateMutability": "view",
      "type": "function"
    },
    {
      "inputs": [
        {
          "internalType": "address",
          "name": "to",
          "type": "address"
        },
        {
          "internalType": "uint256",
          "name": "tokenId",
          "type": "uint256"
        }
      ],
      "name": "mint",
      "outputs": [],
      "stateMutability": "nonpayable",
      "type": "function"
    },
    {
      "inputs": [],
      "name": "name",
      "outputs": [
        {
          "internalType": "string",
          "name": "",
          "type": "string"
        }
      ],
      "stateMutability": "view",
      "type": "function"
    },
    {
      "inputs": [
        {
          "internalType": "uint256",
          "name": "tokenId",
          "type": "uint256"
        }
      ],
      "name": "ownerOf",
      "outputs": [
        {
          "internalType": "address",
          "name": "",
          "type": "address"
        }
      ],
      "stateMutability": "view",
      "type": "function"
    },
    {
      "inputs": [
        {
          "internalType": "address",
          "name": "to",
          "type": "address"
        },
        {
          "internalType": "uint256",
          "name": "tokenId",
          "type": "uint256"
        },
        {
          "internalType": "bytes",
          "name": "_data",
          "type": "bytes"
        }
      ],
      "name": "safeMint",
      "outputs": [],
      "stateMutability": "nonpayable",
      "type": "function"
    },
    {
      "inputs": [
        {
          "internalType": "address",
          "name": "to",
          "type": "address"
        },
        {
          "internalType": "uint256",
          "name": "tokenId",
          "type": "uint256"
        }
      ],
      "name": "safeMint",
      "outputs": [],
      "stateMutability": "nonpayable",
      "type": "function"
    },
    {
      "inputs": [
        {
          "internalType": "address",
          "name": "from",
          "type": "address"
        },
        {
          "internalType": "address",
          "name": "to",
          "type": "address"
        },
        {
          "internalType": "uint256",
          "name": "tokenId",
          "type": "uint256"
        }
      ],
      "name": "safeTransferFrom",
      "outputs": [],
      "stateMutability": "nonpayable",
      "type": "function"
    },
    {
      "inputs": [
        {
          "internalType": "address",
          "name": "from",
          "type": "address"
        },
        {
          "internalType": "address",
          "name": "to",
          "type": "address"
        },
        {
          "internalType": "uint256",
          "name": "tokenId",
          "type": "uint256"
        },
        {
          "internalType": "bytes",
          "name": "data",
          "type": "bytes"
        }
      ],
      "name": "safeTransferFrom",
      "outputs": [],
      "stateMutability": "nonpayable",
      "type": "function"
    },
    {
      "inputs": [
        {
          "internalType": "address",
          "name": "operator",
          "type": "address"
        },
        {
          "internalType": "bool",
          "name": "approved",
          "type": "bool"
        }
      ],
      "name": "setApprovalForAll",
      "outputs": [],
      "stateMutability": "nonpayable",
      "type": "function"
    },
    {
      "inputs": [
        {
          "internalType": "bytes4",
          "name": "interfaceId",
          "type": "bytes4"
        }
      ],
      "name": "supportsInterface",
      "outputs": [
        {
          "internalType": "bool",
          "name": "",
          "type": "bool"
        }
      ],
      "stateMutability": "view",
      "type": "function"
    },
    {
      "inputs": [],
      "name": "symbol",
      "outputs": [
        {
          "internalType": "string",
          "name": "",
          "type": "string"
        }
      ],
      "stateMutability": "view",
      "type": "function"
    },
    {
      "inputs": [
        {
          "internalType": "uint256",
          "name": "tokenId",
          "type": "uint256"
        }
      ],
      "name": "tokenURI",
      "outputs": [
        {
          "internalType": "string",
          "name": "",
          "type": "string"
        }
      ],
      "stateMutability": "view",
      "type": "function"
    },
    {
      "inputs": [
        {
          "internalType": "address",
          "name": "from",
          "type": "address"
        },
        {
          "internalType": "address",
          "name": "to",
          "type": "address"
        },
        {
          "internalType": "uint256",
          "name": "tokenId",
          "type": "uint256"
        }
      ],
      "name": "transferFrom",
      "outputs": [],
      "stateMutability": "nonpayable",
      "type": "function"
    }
  ],
  "bytecode": "0x60806040523480156200001157600080fd5b5060405162002d7338038062002d738339818101604052810190620000379190620002c2565b818181600090805190602001906200005192919062000075565b5080600190805190602001906200006a92919062000075565b5050505050620003ac565b828054620000839062000376565b90600052602060002090601f016020900481019282620000a75760008555620000f3565b82601f10620000c257805160ff1916838001178555620000f3565b82800160010185558215620000f3579182015b82811115620000f2578251825591602001919060010190620000d5565b5b50905062000102919062000106565b5090565b5b808211156200012157600081600090555060010162000107565b5090565b6000604051905090565b600080fd5b600080fd5b600080fd5b600080fd5b6000601f19601f8301169050919050565b7f4e487b7100000000000000000000000000000000000000000000000000000000600052604160045260246000fd5b6200018e8262000143565b810181811067ffffffffffffffff82111715620001b057620001af62000154565b5b80604052505050565b6000620001c562000125565b9050620001d3828262000183565b919050565b600067ffffffffffffffff821115620001f657620001f562000154565b5b620002018262000143565b9050602081019050919050565b60005b838110156200022e57808201518184015260208101905062000211565b838111156200023e576000848401525b50505050565b60006200025b6200025584620001d8565b620001b9565b9050828152602081018484840111156200027a57620002796200013e565b5b620002878482856200020e565b509392505050565b600082601f830112620002a757620002a662000139565b5b8151620002b984826020860162000244565b91505092915050565b60008060408385031215620002dc57620002db6200012f565b5b600083015167ffffffffffffffff811115620002fd57620002fc62000134565b5b6200030b858286016200028f565b925050602083015167ffffffffffffffff8111156200032f576200032e62000134565b5b6200033d858286016200028f565b9150509250929050565b7f4e487b7100000000000000000000000000000000000000000000000000000000600052602260045260246000fd5b600060028204905060018216806200038f57607f821691505b60208210811415620003a657620003a562000347565b5b50919050565b6129b780620003bc6000396000f3fe608060405234801561001057600080fd5b50600436106101215760003560e01c80636352211e116100ad578063a144819411610071578063a144819414610318578063a22cb46514610334578063b88d4fde14610350578063c87b56dd1461036c578063e985e9c51461039c57610121565b80636352211e146102605780636c0360eb1461029057806370a08231146102ae5780638832e6e3146102de57806395d89b41146102fa57610121565b806323b872dd116100f457806323b872dd146101c057806340c10f19146101dc57806342842e0e146101f857806342966c68146102145780634f558e791461023057610121565b806301ffc9a71461012657806306fdde0314610156578063081812fc14610174578063095ea7b3146101a4575b600080fd5b610140600480360381019061013b9190611b81565b6103cc565b60405161014d9190611bc9565b60405180910390f35b61015e6104ae565b60405161016b9190611c7d565b60405180910390f35b61018e60048036038101906101899190611cd5565b610540565b60405161019b9190611d43565b60405180910390f35b6101be60048036038101906101b99190611d8a565b610586565b005b6101da60048036038101906101d59190611dca565b61069e565b005b6101f660048036038101906101f19190611d8a565b6106fe565b005b610212600480360381019061020d9190611dca565b61070c565b005b61022e60048036038101906102299190611cd5565b61072c565b005b61024a60048036038101906102459190611cd5565b610738565b6040516102579190611bc9565b60405180910390f35b61027a60048036038101906102759190611cd5565b61074a565b6040516102879190611d43565b60405180910390f35b6102986107d1565b6040516102a59190611c7d565b60405180910390f35b6102c860048036038101906102c39190611e1d565b6107e0565b6040516102d59190611e59565b60405180910390f35b6102f860048036038101906102f39190611fa9565b610898565b005b6103026108a8565b60405161030f9190611c7d565b60405180910390f35b610332600480360381019061032d9190611d8a565b61093a565b005b61034e60048036038101906103499190612044565b610948565b005b61036a60048036038101906103659190612084565b61095e565b005b61038660048036038101906103819190611cd5565b6109c0565b6040516103939190611c7d565b60405180910390f35b6103b660048036038101906103b19190612107565b610a28565b6040516103c39190611bc9565b60405180910390f35b60007f80ac58cd000000000000000000000000000000000000000000000000000000007bffffffffffffffffffffffffffffffffffffffffffffffffffffffff1916827bffffffffffffffffffffffffffffffffffffffffffffffffffffffff1916148061049757507f5b5e139f000000000000000000000000000000000000000000000000000000007bffffffffffffffffffffffffffffffffffffffffffffffffffffffff1916827bffffffffffffffffffffffffffffffffffffffffffffffffffffffff1916145b806104a757506104a682610abc565b5b9050919050565b6060600080546104bd90612176565b80601f01602080910402602001604051908101604052809291908181526020018280546104e990612176565b80156105365780601f1061050b57610100808354040283529160200191610536565b820191906000526020600020905b81548152906001019060200180831161051957829003601f168201915b5050505050905090565b600061054b82610b26565b6004600083815260200190815260200160002060009054906101000a900473ffffffffffffffffffffffffffffffffffffffff169050919050565b60006105918261074a565b90508073ffffffffffffffffffffffffffffffffffffffff168373ffffffffffffffffffffffffffffffffffffffff161415610602576040517f08c379a00000000000000000000000000000000000000000000000000000000081526004016105f99061221a565b60405180910390fd5b8073ffffffffffffffffffffffffffffffffffffffff16610621610b71565b73ffffffffffffffffffffffffffffffffffffffff161480610650575061064f8161064a610b71565b610a28565b5b61068f576040517f08c379a0000000000000000000000000000000000000000000000000000000008152600401610686906122ac565b60405180910390fd5b6106998383610b79565b505050565b6106af6106a9610b71565b82610c32565b6106ee576040517f08c379a00000000000000000000000000000000000000000000000000000000081526004016106e59061233e565b60405180910390fd5b6106f9838383610cc7565b505050565b6107088282610fc1565b5050565b6107278383836040518060200160405280600081525061095e565b505050565b610735816111df565b50565b60006107438261132d565b9050919050565b6000806107568361136e565b9050600073ffffffffffffffffffffffffffffffffffffffff168173ffffffffffffffffffffffffffffffffffffffff1614156107c8576040517f08c379a00000000000000000000000000000000000000000000000000000000081526004016107bf906123aa565b60405180910390fd5b80915050919050565b60606107db6113ab565b905090565b60008073ffffffffffffffffffffffffffffffffffffffff168273ffffffffffffffffffffffffffffffffffffffff161415610851576040517f08c379a00000000000000000000000000000000000000000000000000000000081526004016108489061243c565b60405180910390fd5b600360008373ffffffffffffffffffffffffffffffffffffffff1673ffffffffffffffffffffffffffffffffffffffff168152602001908152602001600020549050919050565b6108a38383836113c2565b505050565b6060600180546108b790612176565b80601f01602080910402602001604051908101604052809291908181526020018280546108e390612176565b80156109305780601f1061090557610100808354040283529160200191610930565b820191906000526020600020905b81548152906001019060200180831161091357829003601f168201915b5050505050905090565b610944828261141d565b5050565b61095a610953610b71565b838361143b565b5050565b61096f610969610b71565b83610c32565b6109ae576040517f08c379a00000000000000000000000000000000000000000000000000000000081526004016109a59061233e565b60405180910390fd5b6109ba848484846115a8565b50505050565b60606109cb82610b26565b60006109d56113ab565b905060008151116109f55760405180602001604052806000815250610a20565b806109ff84611604565b604051602001610a10929190612498565b6040516020818303038152906040525b915050919050565b6000600560008473ffffffffffffffffffffffffffffffffffffffff1673ffffffffffffffffffffffffffffffffffffffff16815260200190815260200160002060008373ffffffffffffffffffffffffffffffffffffffff1673ffffffffffffffffffffffffffffffffffffffff16815260200190815260200160002060009054906101000a900460ff16905092915050565b60007f01ffc9a7000000000000000000000000000000000000000000000000000000007bffffffffffffffffffffffffffffffffffffffffffffffffffffffff1916827bffffffffffffffffffffffffffffffffffffffffffffffffffffffff1916149050919050565b610b2f8161132d565b610b6e576040517f08c379a0000000000000000000000000000000000000000000000000000000008152600401610b65906123aa565b60405180910390fd5b50565b600033905090565b816004600083815260200190815260200160002060006101000a81548173ffffffffffffffffffffffffffffffffffffffff021916908373ffffffffffffffffffffffffffffffffffffffff160217905550808273ffffffffffffffffffffffffffffffffffffffff16610bec8361074a565b73ffffffffffffffffffffffffffffffffffffffff167f8c5be1e5ebec7d5bd14f71427d1e84f3dd0314c0f7b2291e5b200ac8c7c3b92560405160405180910390a45050565b600080610c3e8361074a565b90508073ffffffffffffffffffffffffffffffffffffffff168473ffffffffffffffffffffffffffffffffffffffff161480610c805750610c7f8185610a28565b5b80610cbe57508373ffffffffffffffffffffffffffffffffffffffff16610ca684610540565b73ffffffffffffffffffffffffffffffffffffffff16145b91505092915050565b8273ffffffffffffffffffffffffffffffffffffffff16610ce78261074a565b73ffffffffffffffffffffffffffffffffffffffff1614610d3d576040517f08c379a0000000000000000000000000000000000000000000000000000000008152600401610d349061252e565b60405180910390fd5b600073ffffffffffffffffffffffffffffffffffffffff168273ffffffffffffffffffffffffffffffffffffffff161415610dad576040517f08c379a0000000000000000000000000000000000000000000000000000000008152600401610da4906125c0565b60405180910390fd5b610dba83838360016116dc565b8273ffffffffffffffffffffffffffffffffffffffff16610dda8261074a565b73ffffffffffffffffffffffffffffffffffffffff1614610e30576040517f08c379a0000000000000000000000000000000000000000000000000000000008152600401610e279061252e565b60405180910390fd5b6004600082815260200190815260200160002060006101000a81549073ffffffffffffffffffffffffffffffffffffffff02191690556001600360008573ffffffffffffffffffffffffffffffffffffffff1673ffffffffffffffffffffffffffffffffffffffff168152602001908152602001600020600082825403925050819055506001600360008473ffffffffffffffffffffffffffffffffffffffff1673ffffffffffffffffffffffffffffffffffffffff16815260200190815260200160002060008282540192505081905550816002600083815260200190815260200160002060006101000a81548173ffffffffffffffffffffffffffffffffffffffff021916908373ffffffffffffffffffffffffffffffffffffffff160217905550808273ffffffffffffffffffffffffffffffffffffffff168473ffffffffffffffffffffffffffffffffffffffff167fddf252ad1be2c89b69c2b068fc378daa952ba7f163c4a11628f55a4df523b3ef60405160405180910390a4610fbc8383836001611802565b505050565b600073ffffffffffffffffffffffffffffffffffffffff168273ffffffffffffffffffffffffffffffffffffffff161415611031576040517f08c379a00000000000000000000000000000000000000000000000000000000081526004016110289061262c565b60405180910390fd5b61103a8161132d565b1561107a576040517f08c379a000000000000000000000000000000000000000000000000000000000815260040161107190612698565b60405180910390fd5b6110886000838360016116dc565b6110918161132d565b156110d1576040517f08c379a00000000000000000000000000000000000000000000000000000000081526004016110c890612698565b60405180910390fd5b6001600360008473ffffffffffffffffffffffffffffffffffffffff1673ffffffffffffffffffffffffffffffffffffffff16815260200190815260200160002060008282540192505081905550816002600083815260200190815260200160002060006101000a81548173ffffffffffffffffffffffffffffffffffffffff021916908373ffffffffffffffffffffffffffffffffffffffff160217905550808273ffffffffffffffffffffffffffffffffffffffff16600073ffffffffffffffffffffffffffffffffffffffff167fddf252ad1be2c89b69c2b068fc378daa952ba7f163c4a11628f55a4df523b3ef60405160405180910390a46111db600083836001611802565b5050565b60006111ea8261074a565b90506111fa8160008460016116dc565b6112038261074a565b90506004600083815260200190815260200160002060006101000a81549073ffffffffffffffffffffffffffffffffffffffff02191690556001600360008373ffffffffffffffffffffffffffffffffffffffff1673ffffffffffffffffffffffffffffffffffffffff168152602001908152602001600020600082825403925050819055506002600083815260200190815260200160002060006101000a81549073ffffffffffffffffffffffffffffffffffffffff021916905581600073ffffffffffffffffffffffffffffffffffffffff168273ffffffffffffffffffffffffffffffffffffffff167fddf252ad1be2c89b69c2b068fc378daa952ba7f163c4a11628f55a4df523b3ef60405160405180910390a4611329816000846001611802565b5050565b60008073ffffffffffffffffffffffffffffffffffffffff1661134f8361136e565b73ffffffffffffffffffffffffffffffffffffffff1614159050919050565b60006002600083815260200190815260200160002060009054906101000a900473ffffffffffffffffffffffffffffffffffffffff169050919050565b606060405180602001604052806000815250905090565b6113cc8383610fc1565b6113d96000848484611808565b611418576040517f08c379a000000000000000000000000000000000000000000000000000000000815260040161140f9061272a565b60405180910390fd5b505050565b6114378282604051806020016040528060008152506113c2565b5050565b8173ffffffffffffffffffffffffffffffffffffffff168373ffffffffffffffffffffffffffffffffffffffff1614156114aa576040517f08c379a00000000000000000000000000000000000000000000000000000000081526004016114a190612796565b60405180910390fd5b80600560008573ffffffffffffffffffffffffffffffffffffffff1673ffffffffffffffffffffffffffffffffffffffff16815260200190815260200160002060008473ffffffffffffffffffffffffffffffffffffffff1673ffffffffffffffffffffffffffffffffffffffff16815260200190815260200160002060006101000a81548160ff0219169083151502179055508173ffffffffffffffffffffffffffffffffffffffff168373ffffffffffffffffffffffffffffffffffffffff167f17307eab39ab6107e8899845ad3d59bd9653f200f220920489ca2b5937696c318360405161159b9190611bc9565b60405180910390a3505050565b6115b3848484610cc7565b6115bf84848484611808565b6115fe576040517f08c379a00000000000000000000000000000000000000000000000000000000081526004016115f59061272a565b60405180910390fd5b50505050565b6060600060016116138461199f565b01905060008167ffffffffffffffff81111561163257611631611e7e565b5b6040519080825280601f01601f1916602001820160405280156116645781602001600182028036833780820191505090505b509050600082602001820190505b6001156116d1578080600190039150507f3031323334353637383961626364656600000000000000000000000000000000600a86061a8153600a85816116bb576116ba6127b6565b5b04945060008514156116cc576116d1565b611672565b819350505050919050565b60018111156117fc57600073ffffffffffffffffffffffffffffffffffffffff168473ffffffffffffffffffffffffffffffffffffffff16146117705780600360008673ffffffffffffffffffffffffffffffffffffffff1673ffffffffffffffffffffffffffffffffffffffff16815260200190815260200160002060008282546117689190612814565b925050819055505b600073ffffffffffffffffffffffffffffffffffffffff168373ffffffffffffffffffffffffffffffffffffffff16146117fb5780600360008573ffffffffffffffffffffffffffffffffffffffff1673ffffffffffffffffffffffffffffffffffffffff16815260200190815260200160002060008282546117f39190612848565b925050819055505b5b50505050565b50505050565b60006118298473ffffffffffffffffffffffffffffffffffffffff16611af2565b15611992578373ffffffffffffffffffffffffffffffffffffffff1663150b7a02611852610b71565b8786866040518563ffffffff1660e01b815260040161187494939291906128f3565b602060405180830381600087803b15801561188e57600080fd5b505af19250505080156118bf57506040513d601f19601f820116820180604052508101906118bc9190612954565b60015b611942573d80600081146118ef576040519150601f19603f3d011682016040523d82523d6000602084013e6118f4565b606091505b5060008151141561193a576040517f08c379a00000000000000000000000000000000000000000000000000000000081526004016119319061272a565b60405180910390fd5b805181602001fd5b63150b7a0260e01b7bffffffffffffffffffffffffffffffffffffffffffffffffffffffff1916817bffffffffffffffffffffffffffffffffffffffffffffffffffffffff191614915050611997565b600190505b949350505050565b600080600090507a184f03e93ff9f4daa797ed6e38ed64bf6a1f01000000000000000083106119fd577a184f03e93ff9f4daa797ed6e38ed64bf6a1f01000000000000000083816119f3576119f26127b6565b5b0492506040810190505b6d04ee2d6d415b85acef81000000008310611a3a576d04ee2d6d415b85acef81000000008381611a3057611a2f6127b6565b5b0492506020810190505b662386f26fc100008310611a6957662386f26fc100008381611a5f57611a5e6127b6565b5b0492506010810190505b6305f5e1008310611a92576305f5e1008381611a8857611a876127b6565b5b0492506008810190505b6127108310611ab7576127108381611aad57611aac6127b6565b5b0492506004810190505b60648310611ada5760648381611ad057611acf6127b6565b5b0492506002810190505b600a8310611ae9576001810190505b80915050919050565b6000808273ffffffffffffffffffffffffffffffffffffffff163b119050919050565b6000604051905090565b600080fd5b600080fd5b60007fffffffff0000000000000000000000000000000000000000000000000000000082169050919050565b611b5e81611b29565b8114611b6957600080fd5b50565b600081359050611b7b81611b55565b92915050565b600060208284031215611b9757611b96611b1f565b5b6000611ba584828501611b6c565b91505092915050565b60008115159050919050565b611bc381611bae565b82525050565b6000602082019050611bde6000830184611bba565b92915050565b600081519050919050565b600082825260208201905092915050565b60005b83811015611c1e578082015181840152602081019050611c03565b83811115611c2d576000848401525b50505050565b6000601f19601f8301169050919050565b6000611c4f82611be4565b611c598185611bef565b9350611c69818560208601611c00565b611c7281611c33565b840191505092915050565b60006020820190508181036000830152611c978184611c44565b905092915050565b6000819050919050565b611cb281611c9f565b8114611cbd57600080fd5b50565b600081359050611ccf81611ca9565b92915050565b600060208284031215611ceb57611cea611b1f565b5b6000611cf984828501611cc0565b91505092915050565b600073ffffffffffffffffffffffffffffffffffffffff82169050919050565b6000611d2d82611d02565b9050919050565b611d3d81611d22565b82525050565b6000602082019050611d586000830184611d34565b92915050565b611d6781611d22565b8114611d7257600080fd5b50565b600081359050611d8481611d5e565b92915050565b60008060408385031215611da157611da0611b1f565b5b6000611daf85828601611d75565b9250506020611dc085828601611cc0565b9150509250929050565b600080600060608486031215611de357611de2611b1f565b5b6000611df186828701611d75565b9350506020611e0286828701611d75565b9250506040611e1386828701611cc0565b9150509250925092565b600060208284031215611e3357611e32611b1f565b5b6000611e4184828501611d75565b91505092915050565b611e5381611c9f565b82525050565b6000602082019050611e6e6000830184611e4a565b92915050565b600080fd5b600080fd5b7f4e487b7100000000000000000000000000000000000000000000000000000000600052604160045260246000fd5b611eb682611c33565b810181811067ffffffffffffffff82111715611ed557611ed4611e7e565b5b80604052505050565b6000611ee8611b15565b9050611ef48282611ead565b919050565b600067ffffffffffffffff821115611f1457611f13611e7e565b5b611f1d82611c33565b9050602081019050919050565b82818337600083830152505050565b6000611f4c611f4784611ef9565b611ede565b905082815260208101848484011115611f6857611f67611e79565b5b611f73848285611f2a565b509392505050565b600082601f830112611f9057611f8f611e74565b5b8135611fa0848260208601611f39565b91505092915050565b600080600060608486031215611fc257611fc1611b1f565b5b6000611fd086828701611d75565b9350506020611fe186828701611cc0565b925050604084013567ffffffffffffffff81111561200257612001611b24565b5b61200e86828701611f7b565b9150509250925092565b61202181611bae565b811461202c57600080fd5b50565b60008135905061203e81612018565b92915050565b6000806040838503121561205b5761205a611b1f565b5b600061206985828601611d75565b925050602061207a8582860161202f565b9150509250929050565b6000806000806080858703121561209e5761209d611b1f565b5b60006120ac87828801611d75565b94505060206120bd87828801611d75565b93505060406120ce87828801611cc0565b925050606085013567ffffffffffffffff8111156120ef576120ee611b24565b5b6120fb87828801611f7b565b91505092959194509250565b6000806040838503121561211e5761211d611b1f565b5b600061212c85828601611d75565b925050602061213d85828601611d75565b9150509250929050565b7f4e487b7100000000000000000000000000000000000000000000000000000000600052602260045260246000fd5b6000600282049050600182168061218e57607f821691505b602082108114156121a2576121a1612147565b5b50919050565b7f4552433732313a20617070726f76616c20746f2063757272656e74206f776e6560008201527f7200000000000000000000000000000000000000000000000000000000000000602082015250565b6000612204602183611bef565b915061220f826121a8565b604082019050919050565b60006020820190508181036000830152612233816121f7565b9050919050565b7f4552433732313a20617070726f76652063616c6c6572206973206e6f7420746f60008201527f6b656e206f776e6572206f7220617070726f76656420666f7220616c6c000000602082015250565b6000612296603d83611bef565b91506122a18261223a565b604082019050919050565b600060208201905081810360008301526122c581612289565b9050919050565b7f4552433732313a2063616c6c6572206973206e6f7420746f6b656e206f776e6560008201527f72206f7220617070726f76656400000000000000000000000000000000000000602082015250565b6000612328602d83611bef565b9150612333826122cc565b604082019050919050565b600060208201905081810360008301526123578161231b565b9050919050565b7f4552433732313a20696e76616c696420746f6b656e2049440000000000000000600082015250565b6000612394601883611bef565b915061239f8261235e565b602082019050919050565b600060208201905081810360008301526123c381612387565b9050919050565b7f4552433732313a2061646472657373207a65726f206973206e6f74206120766160008201527f6c6964206f776e65720000000000000000000000000000000000000000000000602082015250565b6000612426602983611bef565b9150612431826123ca565b604082019050919050565b6000602082019050818103600083015261245581612419565b9050919050565b600081905092915050565b600061247282611be4565b61247c818561245c565b935061248c818560208601611c00565b80840191505092915050565b60006124a48285612467565b91506124b08284612467565b91508190509392505050565b7f4552433732313a207472616e736665722066726f6d20696e636f72726563742060008201527f6f776e6572000000000000000000000000000000000000000000000000000000602082015250565b6000612518602583611bef565b9150612523826124bc565b604082019050919050565b600060208201905081810360008301526125478161250b565b9050919050565b7f4552433732313a207472616e7366657220746f20746865207a65726f2061646460008201527f7265737300000000000000000000000000000000000000000000000000000000602082015250565b60006125aa602483611bef565b91506125b58261254e565b604082019050919050565b600060208201905081810360008301526125d98161259d565b9050919050565b7f4552433732313a206d696e7420746f20746865207a65726f2061646472657373600082015250565b6000612616602083611bef565b9150612621826125e0565b602082019050919050565b6000602082019050818103600083015261264581612609565b9050919050565b7f4552433732313a20746f6b656e20616c7265616479206d696e74656400000000600082015250565b6000612682601c83611bef565b915061268d8261264c565b602082019050919050565b600060208201905081810360008301526126b181612675565b9050919050565b7f4552433732313a207472616e7366657220746f206e6f6e20455243373231526560008201527f63656976657220696d706c656d656e7465720000000000000000000000000000602082015250565b6000612714603283611bef565b915061271f826126b8565b604082019050919050565b6000602082019050818103600083015261274381612707565b9050919050565b7f4552433732313a20617070726f766520746f2063616c6c657200000000000000600082015250565b6000612780601983611bef565b915061278b8261274a565b602082019050919050565b600060208201905081810360008301526127af81612773565b9050919050565b7f4e487b7100000000000000000000000000000000000000000000000000000000600052601260045260246000fd5b7f4e487b7100000000000000000000000000000000000000000000000000000000600052601160045260246000fd5b600061281f82611c9f565b915061282a83611c9f565b92508282101561283d5761283c6127e5565b5b828203905092915050565b600061285382611c9f565b915061285e83611c9f565b9250827fffffffffffffffffffffffffffffffffffffffffffffffffffffffffffffffff03821115612893576128926127e5565b5b828201905092915050565b600081519050919050565b600082825260208201905092915050565b60006128c58261289e565b6128cf81856128a9565b93506128df818560208601611c00565b6128e881611c33565b840191505092915050565b60006080820190506129086000830187611d34565b6129156020830186611d34565b6129226040830185611e4a565b818103606083015261293481846128ba565b905095945050505050565b60008151905061294e81611b55565b92915050565b60006020828403121561296a57612969611b1f565b5b60006129788482850161293f565b9150509291505056fea264697066735822122032f4cf279eb1ff7bdcee18ff8ccfde90c39508742c3589548c0944aed809df4d64736f6c63430008090033",
  "linkReferences": {},
  "deployedLinkReferences": {}
}