{
  "_format": "hh-sol-artifact-1",
  "contractName": "SignedMathMock",
  "sourceName": "contracts/openzeppelin/mocks/SignedMathMock.sol",
  "abi": [
    {
      "inputs": [
        {
          "internalType": "int256",
          "name": "n",
          "type": "int256"
        }
      ],
      "name": "abs",
      "outputs": [
        {
          "internalType": "uint256",
          "name": "",
          "type": "uint256"
        }
      ],
      "stateMutability": "pure",
      "type": "function"
    },
    {
      "inputs": [
        {
          "internalType": "int256",
          "name": "a",
          "type": "int256"
        },
        {
          "internalType": "int256",
          "name": "b",
          "type": "int256"
        }
      ],
      "name": "average",
      "outputs": [
        {
          "internalType": "int256",
          "name": "",
          "type": "int256"
        }
      ],
      "stateMutability": "pure",
      "type": "function"
    },
    {
      "inputs": [
        {
          "internalType": "int256",
          "name": "a",
          "type": "int256"
        },
        {
          "internalType": "int256",
          "name": "b",
          "type": "int256"
        }
      ],
      "name": "max",
      "outputs": [
        {
          "internalType": "int256",
          "name": "",
          "type": "int256"
        }
      ],
      "stateMutability": "pure",
      "type": "function"
    },
    {
      "inputs": [
        {
          "internalType": "int256",
          "name": "a",
          "type": "int256"
        },
        {
          "internalType": "int256",
          "name": "b",
          "type": "int256"
        }
      ],
      "name": "min",
      "outputs": [
        {
          "internalType": "int256",
          "name": "",
          "type": "int256"
        }
      ],
      "stateMutability": "pure",
      "type": "function"
    }
  ],
  "bytecode": "0x608060405234801561001057600080fd5b506103e2806100206000396000f3fe608060405234801561001057600080fd5b506004361061004c5760003560e01c80631b5ac4b51461005157806329aa9cbe146100815780637f0bb292146100b157806381fe5786146100e1575b600080fd5b61006b6004803603810190610066919061021e565b610111565b6040516100789190610264565b60405180910390f35b61009b6004803603810190610096919061027f565b610123565b6040516100a891906102ce565b60405180910390f35b6100cb60048036038101906100c6919061027f565b610137565b6040516100d891906102ce565b60405180910390f35b6100fb60048036038101906100f6919061027f565b61014b565b60405161010891906102ce565b60405180910390f35b600061011c8261015f565b9050919050565b600061012f838361017b565b905092915050565b60006101438383610194565b905092915050565b600061015783836101ca565b905092915050565b6000808212156101725781600003610174565b815b9050919050565b600081831261018a578161018c565b825b905092915050565b6000806001838518901d8385166101ab9190610318565b905082841860ff82901c16816101c19190610318565b91505092915050565b60008183136101d957816101db565b825b905092915050565b600080fd5b6000819050919050565b6101fb816101e8565b811461020657600080fd5b50565b600081359050610218816101f2565b92915050565b600060208284031215610234576102336101e3565b5b600061024284828501610209565b91505092915050565b6000819050919050565b61025e8161024b565b82525050565b60006020820190506102796000830184610255565b92915050565b60008060408385031215610296576102956101e3565b5b60006102a485828601610209565b92505060206102b585828601610209565b9150509250929050565b6102c8816101e8565b82525050565b60006020820190506102e360008301846102bf565b92915050565b7f4e487b7100000000000000000000000000000000000000000000000000000000600052601160045260246000fd5b6000610323826101e8565b915061032e836101e8565b9250817f7fffffffffffffffffffffffffffffffffffffffffffffffffffffffffffffff03831360008312151615610369576103686102e9565b5b817f80000000000000000000000000000000000000000000000000000000000000000383126000831216156103a1576103a06102e9565b5b82820190509291505056fea2646970667358221220a41b60f8d7ef3da160b328e42ffa1df740b5e83640e267eeb65f675fef8e130c64736f6c63430008090033",
  "linkReferences": {},
  "deployedLinkReferences": {}
}