{
  "_format": "hh-sol-artifact-1",
  "contractName": "Uint256ArraysMock",
  "sourceName": "contracts/openzeppelin/mocks/ArraysMock.sol",
  "abi": [
    {
      "inputs": [
        {
          "internalType": "uint256[]",
          "name": "array",
          "type": "uint256[]"
        }
      ],
      "stateMutability": "nonpayable",
      "type": "constructor"
    },
    {
      "inputs": [
        {
          "internalType": "uint256",
          "name": "element",
          "type": "uint256"
        }
      ],
      "name": "findUpperBound",
      "outputs": [
        {
          "internalType": "uint256",
          "name": "",
          "type": "uint256"
        }
      ],
      "stateMutability": "view",
      "type": "function"
    },
    {
      "inputs": [
        {
          "internalType": "uint256",
          "name": "pos",
          "type": "uint256"
        }
      ],
      "name": "unsafeAccess",
      "outputs": [
        {
          "internalType": "uint256",
          "name": "",
          "type": "uint256"
        }
      ],
      "stateMutability": "view",
      "type": "function"
    }
  ],
  "bytecode": "0x608060405234801561001057600080fd5b5060405161067a38038061067a8339818101604052810190610032919061025c565b806000908051906020019061004892919061004f565b50506102a5565b82805482825590600052602060002090810192821561008b579160200282015b8281111561008a57825182559160200191906001019061006f565b5b509050610098919061009c565b5090565b5b808211156100b557600081600090555060010161009d565b5090565b6000604051905090565b600080fd5b600080fd5b600080fd5b6000601f19601f8301169050919050565b7f4e487b7100000000000000000000000000000000000000000000000000000000600052604160045260246000fd5b61011b826100d2565b810181811067ffffffffffffffff8211171561013a576101396100e3565b5b80604052505050565b600061014d6100b9565b90506101598282610112565b919050565b600067ffffffffffffffff821115610179576101786100e3565b5b602082029050602081019050919050565b600080fd5b6000819050919050565b6101a28161018f565b81146101ad57600080fd5b50565b6000815190506101bf81610199565b92915050565b60006101d86101d38461015e565b610143565b905080838252602082019050602084028301858111156101fb576101fa61018a565b5b835b81811015610224578061021088826101b0565b8452602084019350506020810190506101fd565b5050509392505050565b600082601f830112610243576102426100cd565b5b81516102538482602086016101c5565b91505092915050565b600060208284031215610272576102716100c3565b5b600082015167ffffffffffffffff8111156102905761028f6100c8565b5b61029c8482850161022e565b91505092915050565b6103c6806102b46000396000f3fe608060405234801561001057600080fd5b50600436106100365760003560e01c806333e3a58a1461003b57806340aa934d1461006b575b600080fd5b61005560048036038101906100509190610220565b61009b565b604051610062919061025c565b60405180910390f35b61008560048036038101906100809190610220565b6100b8565b604051610092919061025c565b60405180910390f35b60006100b18260006100d990919063ffffffff16565b9050919050565b60006100ce82600061019390919063ffffffff16565b600001549050919050565b600080838054905014156100f0576000905061018d565b600080848054905090505b8082101561014457600061010f83836101b5565b90508461011c8783610193565b60000154111561012e5780915061013e565b60018161013b91906102a6565b92505b506100fb565b60008211801561016c5750836101668660018561016191906102fc565b610193565b60000154145b156101875760018261017e91906102fc565b9250505061018d565b81925050505b92915050565b600080836000528260206000200190506101ac816101db565b91505092915050565b600060028284186101c6919061035f565b8284166101d391906102a6565b905092915050565b6000819050919050565b600080fd5b6000819050919050565b6101fd816101ea565b811461020857600080fd5b50565b60008135905061021a816101f4565b92915050565b600060208284031215610236576102356101e5565b5b60006102448482850161020b565b91505092915050565b610256816101ea565b82525050565b6000602082019050610271600083018461024d565b92915050565b7f4e487b7100000000000000000000000000000000000000000000000000000000600052601160045260246000fd5b60006102b1826101ea565b91506102bc836101ea565b9250827fffffffffffffffffffffffffffffffffffffffffffffffffffffffffffffffff038211156102f1576102f0610277565b5b828201905092915050565b6000610307826101ea565b9150610312836101ea565b92508282101561032557610324610277565b5b828203905092915050565b7f4e487b7100000000000000000000000000000000000000000000000000000000600052601260045260246000fd5b600061036a826101ea565b9150610375836101ea565b92508261038557610384610330565b5b82820490509291505056fea2646970667358221220530b0f90f488e7b38e3d1396e4e9f763944938686ed7cd269550a63ba825347364736f6c63430008090033",
  "linkReferences": {},
  "deployedLinkReferences": {}
}