{
  "_format": "hh-sol-artifact-1",
  "contractName": "AccessControlAdapter",
  "sourceName": "contracts/utils/access/AccessControlAdapter.sol",
  "abi": [
    {
      "inputs": [],
      "name": "accessController",
      "outputs": [
        {
          "internalType": "contract IAccessControl",
          "name": "",
          "type": "address"
        }
      ],
      "stateMutability": "view",
      "type": "function"
    },
    {
      "inputs": [
        {
          "internalType": "address",
          "name": "ac_acccount",
          "type": "address"
        }
      ],
      "name": "connectAccessController",
      "outputs": [],
      "stateMutability": "nonpayable",
      "type": "function"
    },
    {
      "inputs": [
        {
          "internalType": "string",
          "name": "role",
          "type": "string"
        },
        {
          "internalType": "address",
          "name": "account",
          "type": "address"
        }
      ],
      "name": "hasRole",
      "outputs": [
        {
          "internalType": "bool",
          "name": "",
          "type": "bool"
        }
      ],
      "stateMutability": "view",
      "type": "function"
    }
  ],
  "bytecode": "0x608060405234801561001057600080fd5b50610614806100206000396000f3fe608060405234801561001057600080fd5b50600436106100415760003560e01c806352e5eb79146100465780636c9cd09714610062578063bc43cbaf14610092575b600080fd5b610060600480360381019061005b919061023f565b6100b0565b005b61007c600480360381019061007791906103b2565b6100f3565b6040516100899190610429565b60405180910390f35b61009a6101a9565b6040516100a791906104a3565b60405180910390f35b806000806101000a81548173ffffffffffffffffffffffffffffffffffffffff021916908373ffffffffffffffffffffffffffffffffffffffff16021790555050565b60008060009054906101000a900473ffffffffffffffffffffffffffffffffffffffff1673ffffffffffffffffffffffffffffffffffffffff16636c9cd09784846040518363ffffffff1660e01b8152600401610151929190610555565b60206040518083038186803b15801561016957600080fd5b505afa15801561017d573d6000803e3d6000fd5b505050506040513d601f19601f820116820180604052508101906101a191906105b1565b905092915050565b60008054906101000a900473ffffffffffffffffffffffffffffffffffffffff1681565b6000604051905090565b600080fd5b600080fd5b600073ffffffffffffffffffffffffffffffffffffffff82169050919050565b600061020c826101e1565b9050919050565b61021c81610201565b811461022757600080fd5b50565b60008135905061023981610213565b92915050565b600060208284031215610255576102546101d7565b5b60006102638482850161022a565b91505092915050565b600080fd5b600080fd5b6000601f19601f8301169050919050565b7f4e487b7100000000000000000000000000000000000000000000000000000000600052604160045260246000fd5b6102bf82610276565b810181811067ffffffffffffffff821117156102de576102dd610287565b5b80604052505050565b60006102f16101cd565b90506102fd82826102b6565b919050565b600067ffffffffffffffff82111561031d5761031c610287565b5b61032682610276565b9050602081019050919050565b82818337600083830152505050565b600061035561035084610302565b6102e7565b90508281526020810184848401111561037157610370610271565b5b61037c848285610333565b509392505050565b600082601f8301126103995761039861026c565b5b81356103a9848260208601610342565b91505092915050565b600080604083850312156103c9576103c86101d7565b5b600083013567ffffffffffffffff8111156103e7576103e66101dc565b5b6103f385828601610384565b92505060206104048582860161022a565b9150509250929050565b60008115159050919050565b6104238161040e565b82525050565b600060208201905061043e600083018461041a565b92915050565b6000819050919050565b600061046961046461045f846101e1565b610444565b6101e1565b9050919050565b600061047b8261044e565b9050919050565b600061048d82610470565b9050919050565b61049d81610482565b82525050565b60006020820190506104b86000830184610494565b92915050565b600081519050919050565b600082825260208201905092915050565b60005b838110156104f85780820151818401526020810190506104dd565b83811115610507576000848401525b50505050565b6000610518826104be565b61052281856104c9565b93506105328185602086016104da565b61053b81610276565b840191505092915050565b61054f81610201565b82525050565b6000604082019050818103600083015261056f818561050d565b905061057e6020830184610546565b9392505050565b61058e8161040e565b811461059957600080fd5b50565b6000815190506105ab81610585565b92915050565b6000602082840312156105c7576105c66101d7565b5b60006105d58482850161059c565b9150509291505056fea26469706673582212205b34f016532134a51fae948130710d1d1cb6b86141dcd7c602c04e6667d8068964736f6c63430008090033",
  "linkReferences": {},
  "deployedLinkReferences": {}
}