{
  "_format": "hh-sol-artifact-1",
  "contractName": "EnumerableBytes32SetMock",
  "sourceName": "contracts/openzeppelin/mocks/EnumerableSetMock.sol",
  "abi": [
    {
      "anonymous": false,
      "inputs": [
        {
          "indexed": false,
          "internalType": "bool",
          "name": "result",
          "type": "bool"
        }
      ],
      "name": "OperationResult",
      "type": "event"
    },
    {
      "inputs": [
        {
          "internalType": "bytes32",
          "name": "value",
          "type": "bytes32"
        }
      ],
      "name": "add",
      "outputs": [],
      "stateMutability": "nonpayable",
      "type": "function"
    },
    {
      "inputs": [
        {
          "internalType": "uint256",
          "name": "index",
          "type": "uint256"
        }
      ],
      "name": "at",
      "outputs": [
        {
          "internalType": "bytes32",
          "name": "",
          "type": "bytes32"
        }
      ],
      "stateMutability": "view",
      "type": "function"
    },
    {
      "inputs": [
        {
          "internalType": "bytes32",
          "name": "value",
          "type": "bytes32"
        }
      ],
      "name": "contains",
      "outputs": [
        {
          "internalType": "bool",
          "name": "",
          "type": "bool"
        }
      ],
      "stateMutability": "view",
      "type": "function"
    },
    {
      "inputs": [],
      "name": "length",
      "outputs": [
        {
          "internalType": "uint256",
          "name": "",
          "type": "uint256"
        }
      ],
      "stateMutability": "view",
      "type": "function"
    },
    {
      "inputs": [
        {
          "internalType": "bytes32",
          "name": "value",
          "type": "bytes32"
        }
      ],
      "name": "remove",
      "outputs": [],
      "stateMutability": "nonpayable",
      "type": "function"
    },
    {
      "inputs": [],
      "name": "values",
      "outputs": [
        {
          "internalType": "bytes32[]",
          "name": "",
          "type": "bytes32[]"
        }
      ],
      "stateMutability": "view",
      "type": "function"
    }
  ],
  "bytecode": "0x608060405234801561001057600080fd5b5061083a806100206000396000f3fe608060405234801561001057600080fd5b50600436106100625760003560e01c80631d1a696d146100675780631f7b6d3214610097578063446bffba146100b557806395bc2673146100d1578063971217b7146100ed578063e0886f901461010b575b600080fd5b610081600480360381019061007c9190610549565b61013b565b60405161008e9190610591565b60405180910390f35b61009f610158565b6040516100ac91906105c5565b60405180910390f35b6100cf60048036038101906100ca9190610549565b610169565b005b6100eb60048036038101906100e69190610549565b6101bc565b005b6100f561020f565b604051610102919061069e565b60405180910390f35b610125600480360381019061012091906106ec565b610220565b6040516101329190610728565b60405180910390f35b600061015182600061023d90919063ffffffff16565b9050919050565b60006101646000610254565b905090565b600061017f82600061026990919063ffffffff16565b90507fed9840e0775590557ad736875d96c95cf1458b766335f74339951a32c82a9e33816040516101b09190610591565b60405180910390a15050565b60006101d282600061028090919063ffffffff16565b90507fed9840e0775590557ad736875d96c95cf1458b766335f74339951a32c82a9e33816040516102039190610591565b60405180910390a15050565b606061021b6000610297565b905090565b60006102368260006102b890919063ffffffff16565b9050919050565b600061024c83600001836102cf565b905092915050565b6000610262826000016102f2565b9050919050565b60006102788360000183610303565b905092915050565b600061028f8360000183610373565b905092915050565b606060006102a783600001610487565b905060608190508092505050919050565b60006102c783600001836104e3565b905092915050565b600080836001016000848152602001908152602001600020541415905092915050565b600081600001805490509050919050565b600061030f83836102cf565b61036857826000018290806001815401808255809150506001900390600052602060002001600090919091909150558260000180549050836001016000848152602001908152602001600020819055506001905061036d565b600090505b92915050565b6000808360010160008481526020019081526020016000205490506000811461047b5760006001826103a59190610772565b90506000600186600001805490506103bd9190610772565b905081811461042c5760008660000182815481106103de576103dd6107a6565b5b9060005260206000200154905080876000018481548110610402576104016107a6565b5b90600052602060002001819055508387600101600083815260200190815260200160002081905550505b856000018054806104405761043f6107d5565b5b600190038181906000526020600020016000905590558560010160008681526020019081526020016000206000905560019350505050610481565b60009150505b92915050565b6060816000018054806020026020016040519081016040528092919081815260200182805480156104d757602002820191906000526020600020905b8154815260200190600101908083116104c3575b50505050509050919050565b60008260000182815481106104fb576104fa6107a6565b5b9060005260206000200154905092915050565b600080fd5b6000819050919050565b61052681610513565b811461053157600080fd5b50565b6000813590506105438161051d565b92915050565b60006020828403121561055f5761055e61050e565b5b600061056d84828501610534565b91505092915050565b60008115159050919050565b61058b81610576565b82525050565b60006020820190506105a66000830184610582565b92915050565b6000819050919050565b6105bf816105ac565b82525050565b60006020820190506105da60008301846105b6565b92915050565b600081519050919050565b600082825260208201905092915050565b6000819050602082019050919050565b61061581610513565b82525050565b6000610627838361060c565b60208301905092915050565b6000602082019050919050565b600061064b826105e0565b61065581856105eb565b9350610660836105fc565b8060005b83811015610691578151610678888261061b565b975061068383610633565b925050600181019050610664565b5085935050505092915050565b600060208201905081810360008301526106b88184610640565b905092915050565b6106c9816105ac565b81146106d457600080fd5b50565b6000813590506106e6816106c0565b92915050565b6000602082840312156107025761070161050e565b5b6000610710848285016106d7565b91505092915050565b61072281610513565b82525050565b600060208201905061073d6000830184610719565b92915050565b7f4e487b7100000000000000000000000000000000000000000000000000000000600052601160045260246000fd5b600061077d826105ac565b9150610788836105ac565b92508282101561079b5761079a610743565b5b828203905092915050565b7f4e487b7100000000000000000000000000000000000000000000000000000000600052603260045260246000fd5b7f4e487b7100000000000000000000000000000000000000000000000000000000600052603160045260246000fdfea2646970667358221220f63e1f42ada937a27330380e6200658b961c460ac1b82eb74d5a993b89b6f1e464736f6c63430008090033",
  "linkReferences": {},
  "deployedLinkReferences": {}
}