{
  "_format": "hh-sol-artifact-1",
  "contractName": "ERC1155SupplyMock",
  "sourceName": "contracts/openzeppelin/mocks/ERC1155SupplyMock.sol",
  "abi": [
    {
      "inputs": [
        {
          "internalType": "string",
          "name": "uri",
          "type": "string"
        }
      ],
      "stateMutability": "nonpayable",
      "type": "constructor"
    },
    {
      "anonymous": false,
      "inputs": [
        {
          "indexed": true,
          "internalType": "address",
          "name": "account",
          "type": "address"
        },
        {
          "indexed": true,
          "internalType": "address",
          "name": "operator",
          "type": "address"
        },
        {
          "indexed": false,
          "internalType": "bool",
          "name": "approved",
          "type": "bool"
        }
      ],
      "name": "ApprovalForAll",
      "type": "event"
    },
    {
      "anonymous": false,
      "inputs": [
        {
          "indexed": true,
          "internalType": "address",
          "name": "operator",
          "type": "address"
        },
        {
          "indexed": true,
          "internalType": "address",
          "name": "from",
          "type": "address"
        },
        {
          "indexed": true,
          "internalType": "address",
          "name": "to",
          "type": "address"
        },
        {
          "indexed": false,
          "internalType": "uint256[]",
          "name": "ids",
          "type": "uint256[]"
        },
        {
          "indexed": false,
          "internalType": "uint256[]",
          "name": "values",
          "type": "uint256[]"
        }
      ],
      "name": "TransferBatch",
      "type": "event"
    },
    {
      "anonymous": false,
      "inputs": [
        {
          "indexed": true,
          "internalType": "address",
          "name": "operator",
          "type": "address"
        },
        {
          "indexed": true,
          "internalType": "address",
          "name": "from",
          "type": "address"
        },
        {
          "indexed": true,
          "internalType": "address",
          "name": "to",
          "type": "address"
        },
        {
          "indexed": false,
          "internalType": "uint256",
          "name": "id",
          "type": "uint256"
        },
        {
          "indexed": false,
          "internalType": "uint256",
          "name": "value",
          "type": "uint256"
        }
      ],
      "name": "TransferSingle",
      "type": "event"
    },
    {
      "anonymous": false,
      "inputs": [
        {
          "indexed": false,
          "internalType": "string",
          "name": "value",
          "type": "string"
        },
        {
          "indexed": true,
          "internalType": "uint256",
          "name": "id",
          "type": "uint256"
        }
      ],
      "name": "URI",
      "type": "event"
    },
    {
      "inputs": [
        {
          "internalType": "address",
          "name": "account",
          "type": "address"
        },
        {
          "internalType": "uint256",
          "name": "id",
          "type": "uint256"
        }
      ],
      "name": "balanceOf",
      "outputs": [
        {
          "internalType": "uint256",
          "name": "",
          "type": "uint256"
        }
      ],
      "stateMutability": "view",
      "type": "function"
    },
    {
      "inputs": [
        {
          "internalType": "address[]",
          "name": "accounts",
          "type": "address[]"
        },
        {
          "internalType": "uint256[]",
          "name": "ids",
          "type": "uint256[]"
        }
      ],
      "name": "balanceOfBatch",
      "outputs": [
        {
          "internalType": "uint256[]",
          "name": "",
          "type": "uint256[]"
        }
      ],
      "stateMutability": "view",
      "type": "function"
    },
    {
      "inputs": [
        {
          "internalType": "address",
          "name": "owner",
          "type": "address"
        },
        {
          "internalType": "uint256",
          "name": "id",
          "type": "uint256"
        },
        {
          "internalType": "uint256",
          "name": "value",
          "type": "uint256"
        }
      ],
      "name": "burn",
      "outputs": [],
      "stateMutability": "nonpayable",
      "type": "function"
    },
    {
      "inputs": [
        {
          "internalType": "address",
          "name": "owner",
          "type": "address"
        },
        {
          "internalType": "uint256[]",
          "name": "ids",
          "type": "uint256[]"
        },
        {
          "internalType": "uint256[]",
          "name": "values",
          "type": "uint256[]"
        }
      ],
      "name": "burnBatch",
      "outputs": [],
      "stateMutability": "nonpayable",
      "type": "function"
    },
    {
      "inputs": [
        {
          "internalType": "uint256",
          "name": "id",
          "type": "uint256"
        }
      ],
      "name": "exists",
      "outputs": [
        {
          "internalType": "bool",
          "name": "",
          "type": "bool"
        }
      ],
      "stateMutability": "view",
      "type": "function"
    },
    {
      "inputs": [
        {
          "internalType": "address",
          "name": "account",
          "type": "address"
        },
        {
          "internalType": "address",
          "name": "operator",
          "type": "address"
        }
      ],
      "name": "isApprovedForAll",
      "outputs": [
        {
          "internalType": "bool",
          "name": "",
          "type": "bool"
        }
      ],
      "stateMutability": "view",
      "type": "function"
    },
    {
      "inputs": [
        {
          "internalType": "address",
          "name": "to",
          "type": "address"
        },
        {
          "internalType": "uint256",
          "name": "id",
          "type": "uint256"
        },
        {
          "internalType": "uint256",
          "name": "value",
          "type": "uint256"
        },
        {
          "internalType": "bytes",
          "name": "data",
          "type": "bytes"
        }
      ],
      "name": "mint",
      "outputs": [],
      "stateMutability": "nonpayable",
      "type": "function"
    },
    {
      "inputs": [
        {
          "internalType": "address",
          "name": "to",
          "type": "address"
        },
        {
          "internalType": "uint256[]",
          "name": "ids",
          "type": "uint256[]"
        },
        {
          "internalType": "uint256[]",
          "name": "values",
          "type": "uint256[]"
        },
        {
          "internalType": "bytes",
          "name": "data",
          "type": "bytes"
        }
      ],
      "name": "mintBatch",
      "outputs": [],
      "stateMutability": "nonpayable",
      "type": "function"
    },
    {
      "inputs": [
        {
          "internalType": "address",
          "name": "from",
          "type": "address"
        },
        {
          "internalType": "address",
          "name": "to",
          "type": "address"
        },
        {
          "internalType": "uint256[]",
          "name": "ids",
          "type": "uint256[]"
        },
        {
          "internalType": "uint256[]",
          "name": "amounts",
          "type": "uint256[]"
        },
        {
          "internalType": "bytes",
          "name": "data",
          "type": "bytes"
        }
      ],
      "name": "safeBatchTransferFrom",
      "outputs": [],
      "stateMutability": "nonpayable",
      "type": "function"
    },
    {
      "inputs": [
        {
          "internalType": "address",
          "name": "from",
          "type": "address"
        },
        {
          "internalType": "address",
          "name": "to",
          "type": "address"
        },
        {
          "internalType": "uint256",
          "name": "id",
          "type": "uint256"
        },
        {
          "internalType": "uint256",
          "name": "amount",
          "type": "uint256"
        },
        {
          "internalType": "bytes",
          "name": "data",
          "type": "bytes"
        }
      ],
      "name": "safeTransferFrom",
      "outputs": [],
      "stateMutability": "nonpayable",
      "type": "function"
    },
    {
      "inputs": [
        {
          "internalType": "address",
          "name": "operator",
          "type": "address"
        },
        {
          "internalType": "bool",
          "name": "approved",
          "type": "bool"
        }
      ],
      "name": "setApprovalForAll",
      "outputs": [],
      "stateMutability": "nonpayable",
      "type": "function"
    },
    {
      "inputs": [
        {
          "internalType": "string",
          "name": "newuri",
          "type": "string"
        }
      ],
      "name": "setURI",
      "outputs": [],
      "stateMutability": "nonpayable",
      "type": "function"
    },
    {
      "inputs": [
        {
          "internalType": "bytes4",
          "name": "interfaceId",
          "type": "bytes4"
        }
      ],
      "name": "supportsInterface",
      "outputs": [
        {
          "internalType": "bool",
          "name": "",
          "type": "bool"
        }
      ],
      "stateMutability": "view",
      "type": "function"
    },
    {
      "inputs": [
        {
          "internalType": "uint256",
          "name": "id",
          "type": "uint256"
        }
      ],
      "name": "totalSupply",
      "outputs": [
        {
          "internalType": "uint256",
          "name": "",
          "type": "uint256"
        }
      ],
      "stateMutability": "view",
      "type": "function"
    },
    {
      "inputs": [
        {
          "internalType": "uint256",
          "name": "",
          "type": "uint256"
        }
      ],
      "name": "uri",
      "outputs": [
        {
          "internalType": "string",
          "name": "",
          "type": "string"
        }
      ],
      "stateMutability": "view",
      "type": "function"
    }
  ],
  "bytecode": "0x60806040523480156200001157600080fd5b5060405162003b9138038062003b918339818101604052810190620000379190620002bc565b80806200004a816200005360201b60201c565b50505062000372565b80600290805190602001906200006b9291906200006f565b5050565b8280546200007d906200033c565b90600052602060002090601f016020900481019282620000a15760008555620000ed565b82601f10620000bc57805160ff1916838001178555620000ed565b82800160010185558215620000ed579182015b82811115620000ec578251825591602001919060010190620000cf565b5b509050620000fc919062000100565b5090565b5b808211156200011b57600081600090555060010162000101565b5090565b6000604051905090565b600080fd5b600080fd5b600080fd5b600080fd5b6000601f19601f8301169050919050565b7f4e487b7100000000000000000000000000000000000000000000000000000000600052604160045260246000fd5b62000188826200013d565b810181811067ffffffffffffffff82111715620001aa57620001a96200014e565b5b80604052505050565b6000620001bf6200011f565b9050620001cd82826200017d565b919050565b600067ffffffffffffffff821115620001f057620001ef6200014e565b5b620001fb826200013d565b9050602081019050919050565b60005b83811015620002285780820151818401526020810190506200020b565b8381111562000238576000848401525b50505050565b6000620002556200024f84620001d2565b620001b3565b90508281526020810184848401111562000274576200027362000138565b5b6200028184828562000208565b509392505050565b600082601f830112620002a157620002a062000133565b5b8151620002b38482602086016200023e565b91505092915050565b600060208284031215620002d557620002d462000129565b5b600082015167ffffffffffffffff811115620002f657620002f56200012e565b5b620003048482850162000289565b91505092915050565b7f4e487b7100000000000000000000000000000000000000000000000000000000600052602260045260246000fd5b600060028204905060018216806200035557607f821691505b602082108114156200036c576200036b6200030d565b5b50919050565b61380f80620003826000396000f3fe608060405234801561001057600080fd5b50600436106100f45760003560e01c80634f558e7911610097578063bd85b03911610066578063bd85b03914610291578063e985e9c5146102c1578063f242432a146102f1578063f5298aca1461030d576100f4565b80634f558e791461020d5780636b20c4541461023d578063731133e914610259578063a22cb46514610275576100f4565b80630e89341c116100d35780630e89341c146101755780631f7fdffa146101a55780632eb2c2d6146101c15780634e1273f4146101dd576100f4565b8062fdd58e146100f957806301ffc9a71461012957806302fe530514610159575b600080fd5b610113600480360381019061010e9190612147565b610329565b6040516101209190612196565b60405180910390f35b610143600480360381019061013e9190612209565b6103f2565b6040516101509190612251565b60405180910390f35b610173600480360381019061016e91906123b2565b6104d4565b005b61018f600480360381019061018a91906123fb565b6104e0565b60405161019c91906124b0565b60405180910390f35b6101bf60048036038101906101ba919061263b565b610574565b005b6101db60048036038101906101d691906126f6565b610586565b005b6101f760048036038101906101f29190612888565b610627565b60405161020491906129be565b60405180910390f35b610227600480360381019061022291906123fb565b610740565b6040516102349190612251565b60405180910390f35b610257600480360381019061025291906129e0565b610754565b005b610273600480360381019061026e9190612a6b565b610764565b005b61028f600480360381019061028a9190612b1a565b610776565b005b6102ab60048036038101906102a691906123fb565b61078c565b6040516102b89190612196565b60405180910390f35b6102db60048036038101906102d69190612b5a565b6107a9565b6040516102e89190612251565b60405180910390f35b61030b60048036038101906103069190612b9a565b61083d565b005b61032760048036038101906103229190612c31565b6108de565b005b60008073ffffffffffffffffffffffffffffffffffffffff168373ffffffffffffffffffffffffffffffffffffffff16141561039a576040517f08c379a000000000000000000000000000000000000000000000000000000000815260040161039190612cf6565b60405180910390fd5b60008083815260200190815260200160002060008473ffffffffffffffffffffffffffffffffffffffff1673ffffffffffffffffffffffffffffffffffffffff16815260200190815260200160002054905092915050565b60007fd9b67a26000000000000000000000000000000000000000000000000000000007bffffffffffffffffffffffffffffffffffffffffffffffffffffffff1916827bffffffffffffffffffffffffffffffffffffffffffffffffffffffff191614806104bd57507f0e89341c000000000000000000000000000000000000000000000000000000007bffffffffffffffffffffffffffffffffffffffffffffffffffffffff1916827bffffffffffffffffffffffffffffffffffffffffffffffffffffffff1916145b806104cd57506104cc826108ee565b5b9050919050565b6104dd81610958565b50565b6060600280546104ef90612d45565b80601f016020809104026020016040519081016040528092919081815260200182805461051b90612d45565b80156105685780601f1061053d57610100808354040283529160200191610568565b820191906000526020600020905b81548152906001019060200180831161054b57829003601f168201915b50505050509050919050565b61058084848484610972565b50505050565b61058e610b9f565b73ffffffffffffffffffffffffffffffffffffffff168573ffffffffffffffffffffffffffffffffffffffff1614806105d457506105d3856105ce610b9f565b6107a9565b5b610613576040517f08c379a000000000000000000000000000000000000000000000000000000000815260040161060a90612de9565b60405180910390fd5b6106208585858585610ba7565b5050505050565b6060815183511461066d576040517f08c379a000000000000000000000000000000000000000000000000000000000815260040161066490612e7b565b60405180910390fd5b6000835167ffffffffffffffff81111561068a57610689612287565b5b6040519080825280602002602001820160405280156106b85781602001602082028036833780820191505090505b50905060005b8451811015610735576107058582815181106106dd576106dc612e9b565b5b60200260200101518583815181106106f8576106f7612e9b565b5b6020026020010151610329565b82828151811061071857610717612e9b565b5b6020026020010181815250508061072e90612ef9565b90506106be565b508091505092915050565b60008061074c8361078c565b119050919050565b61075f838383610ec9565b505050565b61077084848484611198565b50505050565b610788610781610b9f565b8383611349565b5050565b600060036000838152602001908152602001600020549050919050565b6000600160008473ffffffffffffffffffffffffffffffffffffffff1673ffffffffffffffffffffffffffffffffffffffff16815260200190815260200160002060008373ffffffffffffffffffffffffffffffffffffffff1673ffffffffffffffffffffffffffffffffffffffff16815260200190815260200160002060009054906101000a900460ff16905092915050565b610845610b9f565b73ffffffffffffffffffffffffffffffffffffffff168573ffffffffffffffffffffffffffffffffffffffff16148061088b575061088a85610885610b9f565b6107a9565b5b6108ca576040517f08c379a00000000000000000000000000000000000000000000000000000000081526004016108c190612de9565b60405180910390fd5b6108d785858585856114b6565b5050505050565b6108e9838383611752565b505050565b60007f01ffc9a7000000000000000000000000000000000000000000000000000000007bffffffffffffffffffffffffffffffffffffffffffffffffffffffff1916827bffffffffffffffffffffffffffffffffffffffffffffffffffffffff1916149050919050565b806002908051906020019061096e929190611ffc565b5050565b600073ffffffffffffffffffffffffffffffffffffffff168473ffffffffffffffffffffffffffffffffffffffff1614156109e2576040517f08c379a00000000000000000000000000000000000000000000000000000000081526004016109d990612fb4565b60405180910390fd5b8151835114610a26576040517f08c379a0000000000000000000000000000000000000000000000000000000008152600401610a1d90613046565b60405180910390fd5b6000610a30610b9f565b9050610a4181600087878787611999565b60005b8451811015610afa57838181518110610a6057610a5f612e9b565b5b6020026020010151600080878481518110610a7e57610a7d612e9b565b5b6020026020010151815260200190815260200160002060008873ffffffffffffffffffffffffffffffffffffffff1673ffffffffffffffffffffffffffffffffffffffff1681526020019081526020016000206000828254610ae09190613066565b925050819055508080610af290612ef9565b915050610a44565b508473ffffffffffffffffffffffffffffffffffffffff16600073ffffffffffffffffffffffffffffffffffffffff168273ffffffffffffffffffffffffffffffffffffffff167f4a39dc06d4c0dbc64b70af90fd698a233a518aa5d07e595d983b8c0526c8f7fb8787604051610b729291906130bc565b60405180910390a4610b89816000878787876119af565b610b98816000878787876119b7565b5050505050565b600033905090565b8151835114610beb576040517f08c379a0000000000000000000000000000000000000000000000000000000008152600401610be290613046565b60405180910390fd5b600073ffffffffffffffffffffffffffffffffffffffff168473ffffffffffffffffffffffffffffffffffffffff161415610c5b576040517f08c379a0000000000000000000000000000000000000000000000000000000008152600401610c5290613165565b60405180910390fd5b6000610c65610b9f565b9050610c75818787878787611999565b60005b8451811015610e26576000858281518110610c9657610c95612e9b565b5b602002602001015190506000858381518110610cb557610cb4612e9b565b5b60200260200101519050600080600084815260200190815260200160002060008b73ffffffffffffffffffffffffffffffffffffffff1673ffffffffffffffffffffffffffffffffffffffff16815260200190815260200160002054905081811015610d56576040517f08c379a0000000000000000000000000000000000000000000000000000000008152600401610d4d906131f7565b60405180910390fd5b81810360008085815260200190815260200160002060008c73ffffffffffffffffffffffffffffffffffffffff1673ffffffffffffffffffffffffffffffffffffffff168152602001908152602001600020819055508160008085815260200190815260200160002060008b73ffffffffffffffffffffffffffffffffffffffff1673ffffffffffffffffffffffffffffffffffffffff1681526020019081526020016000206000828254610e0b9190613066565b9250508190555050505080610e1f90612ef9565b9050610c78565b508473ffffffffffffffffffffffffffffffffffffffff168673ffffffffffffffffffffffffffffffffffffffff168273ffffffffffffffffffffffffffffffffffffffff167f4a39dc06d4c0dbc64b70af90fd698a233a518aa5d07e595d983b8c0526c8f7fb8787604051610e9d9291906130bc565b60405180910390a4610eb38187878787876119af565b610ec18187878787876119b7565b505050505050565b600073ffffffffffffffffffffffffffffffffffffffff168373ffffffffffffffffffffffffffffffffffffffff161415610f39576040517f08c379a0000000000000000000000000000000000000000000000000000000008152600401610f3090613289565b60405180910390fd5b8051825114610f7d576040517f08c379a0000000000000000000000000000000000000000000000000000000008152600401610f7490613046565b60405180910390fd5b6000610f87610b9f565b9050610fa781856000868660405180602001604052806000815250611999565b60005b83518110156110f4576000848281518110610fc857610fc7612e9b565b5b602002602001015190506000848381518110610fe757610fe6612e9b565b5b60200260200101519050600080600084815260200190815260200160002060008973ffffffffffffffffffffffffffffffffffffffff1673ffffffffffffffffffffffffffffffffffffffff16815260200190815260200160002054905081811015611088576040517f08c379a000000000000000000000000000000000000000000000000000000000815260040161107f9061331b565b60405180910390fd5b81810360008085815260200190815260200160002060008a73ffffffffffffffffffffffffffffffffffffffff1673ffffffffffffffffffffffffffffffffffffffff1681526020019081526020016000208190555050505080806110ec90612ef9565b915050610faa565b50600073ffffffffffffffffffffffffffffffffffffffff168473ffffffffffffffffffffffffffffffffffffffff168273ffffffffffffffffffffffffffffffffffffffff167f4a39dc06d4c0dbc64b70af90fd698a233a518aa5d07e595d983b8c0526c8f7fb868660405161116c9291906130bc565b60405180910390a4611192818560008686604051806020016040528060008152506119af565b50505050565b600073ffffffffffffffffffffffffffffffffffffffff168473ffffffffffffffffffffffffffffffffffffffff161415611208576040517f08c379a00000000000000000000000000000000000000000000000000000000081526004016111ff90612fb4565b60405180910390fd5b6000611212610b9f565b9050600061121f85611b9e565b9050600061122c85611b9e565b905061123d83600089858589611999565b8460008088815260200190815260200160002060008973ffffffffffffffffffffffffffffffffffffffff1673ffffffffffffffffffffffffffffffffffffffff168152602001908152602001600020600082825461129c9190613066565b925050819055508673ffffffffffffffffffffffffffffffffffffffff16600073ffffffffffffffffffffffffffffffffffffffff168473ffffffffffffffffffffffffffffffffffffffff167fc3d58168c5ae7397731d063d5bbf3d657854427343f4c083240f7aacaa2d0f62898960405161131a92919061333b565b60405180910390a4611331836000898585896119af565b61134083600089898989611c18565b50505050505050565b8173ffffffffffffffffffffffffffffffffffffffff168373ffffffffffffffffffffffffffffffffffffffff1614156113b8576040517f08c379a00000000000000000000000000000000000000000000000000000000081526004016113af906133d6565b60405180910390fd5b80600160008573ffffffffffffffffffffffffffffffffffffffff1673ffffffffffffffffffffffffffffffffffffffff16815260200190815260200160002060008473ffffffffffffffffffffffffffffffffffffffff1673ffffffffffffffffffffffffffffffffffffffff16815260200190815260200160002060006101000a81548160ff0219169083151502179055508173ffffffffffffffffffffffffffffffffffffffff168373ffffffffffffffffffffffffffffffffffffffff167f17307eab39ab6107e8899845ad3d59bd9653f200f220920489ca2b5937696c31836040516114a99190612251565b60405180910390a3505050565b600073ffffffffffffffffffffffffffffffffffffffff168473ffffffffffffffffffffffffffffffffffffffff161415611526576040517f08c379a000000000000000000000000000000000000000000000000000000000815260040161151d90613165565b60405180910390fd5b6000611530610b9f565b9050600061153d85611b9e565b9050600061154a85611b9e565b905061155a838989858589611999565b600080600088815260200190815260200160002060008a73ffffffffffffffffffffffffffffffffffffffff1673ffffffffffffffffffffffffffffffffffffffff168152602001908152602001600020549050858110156115f1576040517f08c379a00000000000000000000000000000000000000000000000000000000081526004016115e8906131f7565b60405180910390fd5b85810360008089815260200190815260200160002060008b73ffffffffffffffffffffffffffffffffffffffff1673ffffffffffffffffffffffffffffffffffffffff168152602001908152602001600020819055508560008089815260200190815260200160002060008a73ffffffffffffffffffffffffffffffffffffffff1673ffffffffffffffffffffffffffffffffffffffff16815260200190815260200160002060008282546116a69190613066565b925050819055508773ffffffffffffffffffffffffffffffffffffffff168973ffffffffffffffffffffffffffffffffffffffff168573ffffffffffffffffffffffffffffffffffffffff167fc3d58168c5ae7397731d063d5bbf3d657854427343f4c083240f7aacaa2d0f628a8a60405161172392919061333b565b60405180910390a4611739848a8a86868a6119af565b611747848a8a8a8a8a611c18565b505050505050505050565b600073ffffffffffffffffffffffffffffffffffffffff168373ffffffffffffffffffffffffffffffffffffffff1614156117c2576040517f08c379a00000000000000000000000000000000000000000000000000000000081526004016117b990613289565b60405180910390fd5b60006117cc610b9f565b905060006117d984611b9e565b905060006117e684611b9e565b905061180683876000858560405180602001604052806000815250611999565b600080600087815260200190815260200160002060008873ffffffffffffffffffffffffffffffffffffffff1673ffffffffffffffffffffffffffffffffffffffff1681526020019081526020016000205490508481101561189d576040517f08c379a00000000000000000000000000000000000000000000000000000000081526004016118949061331b565b60405180910390fd5b84810360008088815260200190815260200160002060008973ffffffffffffffffffffffffffffffffffffffff1673ffffffffffffffffffffffffffffffffffffffff16815260200190815260200160002081905550600073ffffffffffffffffffffffffffffffffffffffff168773ffffffffffffffffffffffffffffffffffffffff168573ffffffffffffffffffffffffffffffffffffffff167fc3d58168c5ae7397731d063d5bbf3d657854427343f4c083240f7aacaa2d0f62898960405161196a92919061333b565b60405180910390a4611990848860008686604051806020016040528060008152506119af565b50505050505050565b6119a7868686868686611dff565b505050505050565b505050505050565b6119d68473ffffffffffffffffffffffffffffffffffffffff16611fd1565b15611b96578373ffffffffffffffffffffffffffffffffffffffff1663bc197c8187878686866040518663ffffffff1660e01b8152600401611a1c95949392919061345a565b602060405180830381600087803b158015611a3657600080fd5b505af1925050508015611a6757506040513d601f19601f82011682018060405250810190611a6491906134d7565b60015b611b0d57611a73613511565b806308c379a01415611ad05750611a88613533565b80611a935750611ad2565b806040517f08c379a0000000000000000000000000000000000000000000000000000000008152600401611ac791906124b0565b60405180910390fd5b505b6040517f08c379a0000000000000000000000000000000000000000000000000000000008152600401611b049061363b565b60405180910390fd5b63bc197c8160e01b7bffffffffffffffffffffffffffffffffffffffffffffffffffffffff1916817bffffffffffffffffffffffffffffffffffffffffffffffffffffffff191614611b94576040517f08c379a0000000000000000000000000000000000000000000000000000000008152600401611b8b906136cd565b60405180910390fd5b505b505050505050565b60606000600167ffffffffffffffff811115611bbd57611bbc612287565b5b604051908082528060200260200182016040528015611beb5781602001602082028036833780820191505090505b5090508281600081518110611c0357611c02612e9b565b5b60200260200101818152505080915050919050565b611c378473ffffffffffffffffffffffffffffffffffffffff16611fd1565b15611df7578373ffffffffffffffffffffffffffffffffffffffff1663f23a6e6187878686866040518663ffffffff1660e01b8152600401611c7d9594939291906136ed565b602060405180830381600087803b158015611c9757600080fd5b505af1925050508015611cc857506040513d601f19601f82011682018060405250810190611cc591906134d7565b60015b611d6e57611cd4613511565b806308c379a01415611d315750611ce9613533565b80611cf45750611d33565b806040517f08c379a0000000000000000000000000000000000000000000000000000000008152600401611d2891906124b0565b60405180910390fd5b505b6040517f08c379a0000000000000000000000000000000000000000000000000000000008152600401611d659061363b565b60405180910390fd5b63f23a6e6160e01b7bffffffffffffffffffffffffffffffffffffffffffffffffffffffff1916817bffffffffffffffffffffffffffffffffffffffffffffffffffffffff191614611df5576040517f08c379a0000000000000000000000000000000000000000000000000000000008152600401611dec906136cd565b60405180910390fd5b505b505050505050565b611e0d868686868686611ff4565b600073ffffffffffffffffffffffffffffffffffffffff168573ffffffffffffffffffffffffffffffffffffffff161415611ebf5760005b8351811015611ebd57828181518110611e6157611e60612e9b565b5b602002602001015160036000868481518110611e8057611e7f612e9b565b5b602002602001015181526020019081526020016000206000828254611ea59190613066565b9250508190555080611eb690612ef9565b9050611e45565b505b600073ffffffffffffffffffffffffffffffffffffffff168473ffffffffffffffffffffffffffffffffffffffff161415611fc95760005b8351811015611fc7576000848281518110611f1557611f14612e9b565b5b602002602001015190506000848381518110611f3457611f33612e9b565b5b6020026020010151905060006003600084815260200190815260200160002054905081811015611f99576040517f08c379a0000000000000000000000000000000000000000000000000000000008152600401611f90906137b9565b60405180910390fd5b818103600360008581526020019081526020016000208190555050505080611fc090612ef9565b9050611ef7565b505b505050505050565b6000808273ffffffffffffffffffffffffffffffffffffffff163b119050919050565b505050505050565b82805461200890612d45565b90600052602060002090601f01602090048101928261202a5760008555612071565b82601f1061204357805160ff1916838001178555612071565b82800160010185558215612071579182015b82811115612070578251825591602001919060010190612055565b5b50905061207e9190612082565b5090565b5b8082111561209b576000816000905550600101612083565b5090565b6000604051905090565b600080fd5b600080fd5b600073ffffffffffffffffffffffffffffffffffffffff82169050919050565b60006120de826120b3565b9050919050565b6120ee816120d3565b81146120f957600080fd5b50565b60008135905061210b816120e5565b92915050565b6000819050919050565b61212481612111565b811461212f57600080fd5b50565b6000813590506121418161211b565b92915050565b6000806040838503121561215e5761215d6120a9565b5b600061216c858286016120fc565b925050602061217d85828601612132565b9150509250929050565b61219081612111565b82525050565b60006020820190506121ab6000830184612187565b92915050565b60007fffffffff0000000000000000000000000000000000000000000000000000000082169050919050565b6121e6816121b1565b81146121f157600080fd5b50565b600081359050612203816121dd565b92915050565b60006020828403121561221f5761221e6120a9565b5b600061222d848285016121f4565b91505092915050565b60008115159050919050565b61224b81612236565b82525050565b60006020820190506122666000830184612242565b92915050565b600080fd5b600080fd5b6000601f19601f8301169050919050565b7f4e487b7100000000000000000000000000000000000000000000000000000000600052604160045260246000fd5b6122bf82612276565b810181811067ffffffffffffffff821117156122de576122dd612287565b5b80604052505050565b60006122f161209f565b90506122fd82826122b6565b919050565b600067ffffffffffffffff82111561231d5761231c612287565b5b61232682612276565b9050602081019050919050565b82818337600083830152505050565b600061235561235084612302565b6122e7565b90508281526020810184848401111561237157612370612271565b5b61237c848285612333565b509392505050565b600082601f8301126123995761239861226c565b5b81356123a9848260208601612342565b91505092915050565b6000602082840312156123c8576123c76120a9565b5b600082013567ffffffffffffffff8111156123e6576123e56120ae565b5b6123f284828501612384565b91505092915050565b600060208284031215612411576124106120a9565b5b600061241f84828501612132565b91505092915050565b600081519050919050565b600082825260208201905092915050565b60005b83811015612462578082015181840152602081019050612447565b83811115612471576000848401525b50505050565b600061248282612428565b61248c8185612433565b935061249c818560208601612444565b6124a581612276565b840191505092915050565b600060208201905081810360008301526124ca8184612477565b905092915050565b600067ffffffffffffffff8211156124ed576124ec612287565b5b602082029050602081019050919050565b600080fd5b6000612516612511846124d2565b6122e7565b90508083825260208201905060208402830185811115612539576125386124fe565b5b835b81811015612562578061254e8882612132565b84526020840193505060208101905061253b565b5050509392505050565b600082601f8301126125815761258061226c565b5b8135612591848260208601612503565b91505092915050565b600067ffffffffffffffff8211156125b5576125b4612287565b5b6125be82612276565b9050602081019050919050565b60006125de6125d98461259a565b6122e7565b9050828152602081018484840111156125fa576125f9612271565b5b612605848285612333565b509392505050565b600082601f8301126126225761262161226c565b5b81356126328482602086016125cb565b91505092915050565b60008060008060808587031215612655576126546120a9565b5b6000612663878288016120fc565b945050602085013567ffffffffffffffff811115612684576126836120ae565b5b6126908782880161256c565b935050604085013567ffffffffffffffff8111156126b1576126b06120ae565b5b6126bd8782880161256c565b925050606085013567ffffffffffffffff8111156126de576126dd6120ae565b5b6126ea8782880161260d565b91505092959194509250565b600080600080600060a08688031215612712576127116120a9565b5b6000612720888289016120fc565b9550506020612731888289016120fc565b945050604086013567ffffffffffffffff811115612752576127516120ae565b5b61275e8882890161256c565b935050606086013567ffffffffffffffff81111561277f5761277e6120ae565b5b61278b8882890161256c565b925050608086013567ffffffffffffffff8111156127ac576127ab6120ae565b5b6127b88882890161260d565b9150509295509295909350565b600067ffffffffffffffff8211156127e0576127df612287565b5b602082029050602081019050919050565b60006128046127ff846127c5565b6122e7565b90508083825260208201905060208402830185811115612827576128266124fe565b5b835b81811015612850578061283c88826120fc565b845260208401935050602081019050612829565b5050509392505050565b600082601f83011261286f5761286e61226c565b5b813561287f8482602086016127f1565b91505092915050565b6000806040838503121561289f5761289e6120a9565b5b600083013567ffffffffffffffff8111156128bd576128bc6120ae565b5b6128c98582860161285a565b925050602083013567ffffffffffffffff8111156128ea576128e96120ae565b5b6128f68582860161256c565b9150509250929050565b600081519050919050565b600082825260208201905092915050565b6000819050602082019050919050565b61293581612111565b82525050565b6000612947838361292c565b60208301905092915050565b6000602082019050919050565b600061296b82612900565b612975818561290b565b93506129808361291c565b8060005b838110156129b1578151612998888261293b565b97506129a383612953565b925050600181019050612984565b5085935050505092915050565b600060208201905081810360008301526129d88184612960565b905092915050565b6000806000606084860312156129f9576129f86120a9565b5b6000612a07868287016120fc565b935050602084013567ffffffffffffffff811115612a2857612a276120ae565b5b612a348682870161256c565b925050604084013567ffffffffffffffff811115612a5557612a546120ae565b5b612a618682870161256c565b9150509250925092565b60008060008060808587031215612a8557612a846120a9565b5b6000612a93878288016120fc565b9450506020612aa487828801612132565b9350506040612ab587828801612132565b925050606085013567ffffffffffffffff811115612ad657612ad56120ae565b5b612ae28782880161260d565b91505092959194509250565b612af781612236565b8114612b0257600080fd5b50565b600081359050612b1481612aee565b92915050565b60008060408385031215612b3157612b306120a9565b5b6000612b3f858286016120fc565b9250506020612b5085828601612b05565b9150509250929050565b60008060408385031215612b7157612b706120a9565b5b6000612b7f858286016120fc565b9250506020612b90858286016120fc565b9150509250929050565b600080600080600060a08688031215612bb657612bb56120a9565b5b6000612bc4888289016120fc565b9550506020612bd5888289016120fc565b9450506040612be688828901612132565b9350506060612bf788828901612132565b925050608086013567ffffffffffffffff811115612c1857612c176120ae565b5b612c248882890161260d565b9150509295509295909350565b600080600060608486031215612c4a57612c496120a9565b5b6000612c58868287016120fc565b9350506020612c6986828701612132565b9250506040612c7a86828701612132565b9150509250925092565b7f455243313135353a2061646472657373207a65726f206973206e6f742061207660008201527f616c6964206f776e657200000000000000000000000000000000000000000000602082015250565b6000612ce0602a83612433565b9150612ceb82612c84565b604082019050919050565b60006020820190508181036000830152612d0f81612cd3565b9050919050565b7f4e487b7100000000000000000000000000000000000000000000000000000000600052602260045260246000fd5b60006002820490506001821680612d5d57607f821691505b60208210811415612d7157612d70612d16565b5b50919050565b7f455243313135353a2063616c6c6572206973206e6f7420746f6b656e206f776e60008201527f6572206f7220617070726f766564000000000000000000000000000000000000602082015250565b6000612dd3602e83612433565b9150612dde82612d77565b604082019050919050565b60006020820190508181036000830152612e0281612dc6565b9050919050565b7f455243313135353a206163636f756e747320616e6420696473206c656e67746860008201527f206d69736d617463680000000000000000000000000000000000000000000000602082015250565b6000612e65602983612433565b9150612e7082612e09565b604082019050919050565b60006020820190508181036000830152612e9481612e58565b9050919050565b7f4e487b7100000000000000000000000000000000000000000000000000000000600052603260045260246000fd5b7f4e487b7100000000000000000000000000000000000000000000000000000000600052601160045260246000fd5b6000612f0482612111565b91507fffffffffffffffffffffffffffffffffffffffffffffffffffffffffffffffff821415612f3757612f36612eca565b5b600182019050919050565b7f455243313135353a206d696e7420746f20746865207a65726f2061646472657360008201527f7300000000000000000000000000000000000000000000000000000000000000602082015250565b6000612f9e602183612433565b9150612fa982612f42565b604082019050919050565b60006020820190508181036000830152612fcd81612f91565b9050919050565b7f455243313135353a2069647320616e6420616d6f756e7473206c656e6774682060008201527f6d69736d61746368000000000000000000000000000000000000000000000000602082015250565b6000613030602883612433565b915061303b82612fd4565b604082019050919050565b6000602082019050818103600083015261305f81613023565b9050919050565b600061307182612111565b915061307c83612111565b9250827fffffffffffffffffffffffffffffffffffffffffffffffffffffffffffffffff038211156130b1576130b0612eca565b5b828201905092915050565b600060408201905081810360008301526130d68185612960565b905081810360208301526130ea8184612960565b90509392505050565b7f455243313135353a207472616e7366657220746f20746865207a65726f20616460008201527f6472657373000000000000000000000000000000000000000000000000000000602082015250565b600061314f602583612433565b915061315a826130f3565b604082019050919050565b6000602082019050818103600083015261317e81613142565b9050919050565b7f455243313135353a20696e73756666696369656e742062616c616e636520666f60008201527f72207472616e7366657200000000000000000000000000000000000000000000602082015250565b60006131e1602a83612433565b91506131ec82613185565b604082019050919050565b60006020820190508181036000830152613210816131d4565b9050919050565b7f455243313135353a206275726e2066726f6d20746865207a65726f206164647260008201527f6573730000000000000000000000000000000000000000000000000000000000602082015250565b6000613273602383612433565b915061327e82613217565b604082019050919050565b600060208201905081810360008301526132a281613266565b9050919050565b7f455243313135353a206275726e20616d6f756e7420657863656564732062616c60008201527f616e636500000000000000000000000000000000000000000000000000000000602082015250565b6000613305602483612433565b9150613310826132a9565b604082019050919050565b60006020820190508181036000830152613334816132f8565b9050919050565b60006040820190506133506000830185612187565b61335d6020830184612187565b9392505050565b7f455243313135353a2073657474696e6720617070726f76616c2073746174757360008201527f20666f722073656c660000000000000000000000000000000000000000000000602082015250565b60006133c0602983612433565b91506133cb82613364565b604082019050919050565b600060208201905081810360008301526133ef816133b3565b9050919050565b6133ff816120d3565b82525050565b600081519050919050565b600082825260208201905092915050565b600061342c82613405565b6134368185613410565b9350613446818560208601612444565b61344f81612276565b840191505092915050565b600060a08201905061346f60008301886133f6565b61347c60208301876133f6565b818103604083015261348e8186612960565b905081810360608301526134a28185612960565b905081810360808301526134b68184613421565b90509695505050505050565b6000815190506134d1816121dd565b92915050565b6000602082840312156134ed576134ec6120a9565b5b60006134fb848285016134c2565b91505092915050565b60008160e01c9050919050565b600060033d11156135305760046000803e61352d600051613504565b90505b90565b600060443d1015613543576135c6565b61354b61209f565b60043d036004823e80513d602482011167ffffffffffffffff821117156135735750506135c6565b808201805167ffffffffffffffff81111561359157505050506135c6565b80602083010160043d0385018111156135ae5750505050506135c6565b6135bd826020018501866122b6565b82955050505050505b90565b7f455243313135353a207472616e7366657220746f206e6f6e2d4552433131353560008201527f526563656976657220696d706c656d656e746572000000000000000000000000602082015250565b6000613625603483612433565b9150613630826135c9565b604082019050919050565b6000602082019050818103600083015261365481613618565b9050919050565b7f455243313135353a204552433131353552656365697665722072656a6563746560008201527f6420746f6b656e73000000000000000000000000000000000000000000000000602082015250565b60006136b7602883612433565b91506136c28261365b565b604082019050919050565b600060208201905081810360008301526136e6816136aa565b9050919050565b600060a08201905061370260008301886133f6565b61370f60208301876133f6565b61371c6040830186612187565b6137296060830185612187565b818103608083015261373b8184613421565b90509695505050505050565b7f455243313135353a206275726e20616d6f756e74206578636565647320746f7460008201527f616c537570706c79000000000000000000000000000000000000000000000000602082015250565b60006137a3602883612433565b91506137ae82613747565b604082019050919050565b600060208201905081810360008301526137d281613796565b905091905056fea2646970667358221220d0e997f967b32759f1bbb8e69bb2f6037c3792f6fcb6c104f76741f9d3e5d4cb64736f6c63430008090033",
  "linkReferences": {},
  "deployedLinkReferences": {}
}