{
  "_format": "hh-sol-artifact-1",
  "contractName": "Checkpoints224Mock",
  "sourceName": "contracts/openzeppelin/mocks/CheckpointsMock.sol",
  "abi": [
    {
      "inputs": [],
      "name": "latest",
      "outputs": [
        {
          "internalType": "uint224",
          "name": "",
          "type": "uint224"
        }
      ],
      "stateMutability": "view",
      "type": "function"
    },
    {
      "inputs": [],
      "name": "latestCheckpoint",
      "outputs": [
        {
          "internalType": "bool",
          "name": "",
          "type": "bool"
        },
        {
          "internalType": "uint32",
          "name": "",
          "type": "uint32"
        },
        {
          "internalType": "uint224",
          "name": "",
          "type": "uint224"
        }
      ],
      "stateMutability": "view",
      "type": "function"
    },
    {
      "inputs": [],
      "name": "length",
      "outputs": [
        {
          "internalType": "uint256",
          "name": "",
          "type": "uint256"
        }
      ],
      "stateMutability": "view",
      "type": "function"
    },
    {
      "inputs": [
        {
          "internalType": "uint32",
          "name": "key",
          "type": "uint32"
        }
      ],
      "name": "lowerLookup",
      "outputs": [
        {
          "internalType": "uint224",
          "name": "",
          "type": "uint224"
        }
      ],
      "stateMutability": "view",
      "type": "function"
    },
    {
      "inputs": [
        {
          "internalType": "uint32",
          "name": "key",
          "type": "uint32"
        },
        {
          "internalType": "uint224",
          "name": "value",
          "type": "uint224"
        }
      ],
      "name": "push",
      "outputs": [
        {
          "internalType": "uint224",
          "name": "",
          "type": "uint224"
        },
        {
          "internalType": "uint224",
          "name": "",
          "type": "uint224"
        }
      ],
      "stateMutability": "nonpayable",
      "type": "function"
    },
    {
      "inputs": [
        {
          "internalType": "uint32",
          "name": "key",
          "type": "uint32"
        }
      ],
      "name": "upperLookup",
      "outputs": [
        {
          "internalType": "uint224",
          "name": "",
          "type": "uint224"
        }
      ],
      "stateMutability": "view",
      "type": "function"
    }
  ],
  "bytecode": "0x608060405234801561001057600080fd5b50610cd9806100206000396000f3fe608060405234801561001057600080fd5b50600436106100625760003560e01c80631f7b6d321461006757806352bfe789146100855780637a9b2fd8146100a3578063907c0f92146100d3578063a9dc1528146100f3578063b50b7eb614610123575b600080fd5b61006f610154565b60405161007c919061093c565b60405180910390f35b61008d610165565b60405161009a919061098e565b60405180910390f35b6100bd60048036038101906100b891906109ea565b610176565b6040516100ca919061098e565b60405180910390f35b6100db610193565b6040516100ea93929190610a41565b60405180910390f35b61010d600480360381019061010891906109ea565b6101ad565b60405161011a919061098e565b60405180910390f35b61013d60048036038101906101389190610aa4565b6101ca565b60405161014b929190610ae4565b60405180910390f35b600061016060006101ee565b905090565b600061017160006101ff565b905090565b600061018c82600061026990919063ffffffff16565b9050919050565b60008060006101a260006102dc565b925092509250909192565b60006101c38260006103de90919063ffffffff16565b9050919050565b6000806101e38484600061045e9092919063ffffffff16565b915091509250929050565b600081600001805490509050919050565b600080826000018054905090506000811461025e5761022d836000016001836102289190610b3c565b61047b565b60000160049054906101000a90047bffffffffffffffffffffffffffffffffffffffffffffffffffffffff16610261565b60005b915050919050565b6000808360000180549050905060006102888560000185600085610490565b90508181146102cf5761029e856000018261047b565b60000160049054906101000a90047bffffffffffffffffffffffffffffffffffffffffffffffffffffffff166102d2565b60005b9250505092915050565b600080600080846000018054905090506000811415610306576000806000935093509350506103d7565b60006103218660000160018461031c9190610b3c565b61047b565b6040518060400160405290816000820160009054906101000a900463ffffffff1663ffffffff1663ffffffff1681526020016000820160049054906101000a90047bffffffffffffffffffffffffffffffffffffffffffffffffffffffff167bffffffffffffffffffffffffffffffffffffffffffffffffffffffff167bffffffffffffffffffffffffffffffffffffffffffffffffffffffff1681525050905060018160000151826020015194509450945050505b9193909250565b6000808360000180549050905060006103fd8560000185600085610503565b905060008114610451576104208560000160018361041b9190610b3c565b61047b565b60000160049054906101000a90047bffffffffffffffffffffffffffffffffffffffffffffffffffffffff16610454565b60005b9250505092915050565b60008061046f856000018585610576565b91509150935093915050565b60008260005281602060002001905092915050565b60005b818310156104f85760006104a784846108fd565b90508463ffffffff166104ba878361047b565b60000160009054906101000a900463ffffffff1663ffffffff1610156104ee576001816104e79190610b70565b93506104f2565b8092505b50610493565b819050949350505050565b60005b8183101561056b57600061051a84846108fd565b90508463ffffffff1661052d878361047b565b60000160009054906101000a900463ffffffff1663ffffffff16111561055557809250610565565b6001816105629190610b70565b93505b50610506565b819050949350505050565b600080600085805490509050600081111561080d5760006105a38760018461059e9190610b3c565b61047b565b6040518060400160405290816000820160009054906101000a900463ffffffff1663ffffffff1663ffffffff1681526020016000820160049054906101000a90047bffffffffffffffffffffffffffffffffffffffffffffffffffffffff167bffffffffffffffffffffffffffffffffffffffffffffffffffffffff167bffffffffffffffffffffffffffffffffffffffffffffffffffffffff168152505090508563ffffffff16816000015163ffffffff161115610697576040517f08c379a000000000000000000000000000000000000000000000000000000000815260040161068e90610c23565b60405180910390fd5b8563ffffffff16816000015163ffffffff16141561071c57846106c6886001856106c19190610b3c565b61047b565b60000160046101000a8154817bffffffffffffffffffffffffffffffffffffffffffffffffffffffff02191690837bffffffffffffffffffffffffffffffffffffffffffffffffffffffff1602179055506107fc565b8660405180604001604052808863ffffffff168152602001877bffffffffffffffffffffffffffffffffffffffffffffffffffffffff168152509080600181540180825580915050600190039060005260206000200160009091909190915060008201518160000160006101000a81548163ffffffff021916908363ffffffff16021790555060208201518160000160046101000a8154817bffffffffffffffffffffffffffffffffffffffffffffffffffffffff02191690837bffffffffffffffffffffffffffffffffffffffffffffffffffffffff16021790555050505b8060200151859350935050506108f5565b8560405180604001604052808763ffffffff168152602001867bffffffffffffffffffffffffffffffffffffffffffffffffffffffff168152509080600181540180825580915050600190039060005260206000200160009091909190915060008201518160000160006101000a81548163ffffffff021916908363ffffffff16021790555060208201518160000160046101000a8154817bffffffffffffffffffffffffffffffffffffffffffffffffffffffff02191690837bffffffffffffffffffffffffffffffffffffffffffffffffffffffff160217905550505060008492509250505b935093915050565b6000600282841861090e9190610c72565b82841661091b9190610b70565b905092915050565b6000819050919050565b61093681610923565b82525050565b6000602082019050610951600083018461092d565b92915050565b60007bffffffffffffffffffffffffffffffffffffffffffffffffffffffff82169050919050565b61098881610957565b82525050565b60006020820190506109a3600083018461097f565b92915050565b600080fd5b600063ffffffff82169050919050565b6109c7816109ae565b81146109d257600080fd5b50565b6000813590506109e4816109be565b92915050565b600060208284031215610a00576109ff6109a9565b5b6000610a0e848285016109d5565b91505092915050565b60008115159050919050565b610a2c81610a17565b82525050565b610a3b816109ae565b82525050565b6000606082019050610a566000830186610a23565b610a636020830185610a32565b610a70604083018461097f565b949350505050565b610a8181610957565b8114610a8c57600080fd5b50565b600081359050610a9e81610a78565b92915050565b60008060408385031215610abb57610aba6109a9565b5b6000610ac9858286016109d5565b9250506020610ada85828601610a8f565b9150509250929050565b6000604082019050610af9600083018561097f565b610b06602083018461097f565b9392505050565b7f4e487b7100000000000000000000000000000000000000000000000000000000600052601160045260246000fd5b6000610b4782610923565b9150610b5283610923565b925082821015610b6557610b64610b0d565b5b828203905092915050565b6000610b7b82610923565b9150610b8683610923565b9250827fffffffffffffffffffffffffffffffffffffffffffffffffffffffffffffffff03821115610bbb57610bba610b0d565b5b828201905092915050565b600082825260208201905092915050565b7f436865636b706f696e743a20696e76616c6964206b6579000000000000000000600082015250565b6000610c0d601783610bc6565b9150610c1882610bd7565b602082019050919050565b60006020820190508181036000830152610c3c81610c00565b9050919050565b7f4e487b7100000000000000000000000000000000000000000000000000000000600052601260045260246000fd5b6000610c7d82610923565b9150610c8883610923565b925082610c9857610c97610c43565b5b82820490509291505056fea264697066735822122055982a8da463cc0d336e1b54a644c24b3ea3d18b0a8b4cad068ac6efc6872ec064736f6c63430008090033",
  "linkReferences": {},
  "deployedLinkReferences": {}
}