{
  "_format": "hh-sol-artifact-1",
  "contractName": "ERC20Manager",
  "sourceName": "contracts/token/ERC20/ERC20Manager.sol",
  "abi": [
    {
      "inputs": [
        {
          "internalType": "address",
          "name": "token",
          "type": "address"
        },
        {
          "internalType": "address",
          "name": "owner",
          "type": "address"
        },
        {
          "internalType": "address",
          "name": "spender",
          "type": "address"
        }
      ],
      "name": "allowance",
      "outputs": [
        {
          "internalType": "uint256",
          "name": "",
          "type": "uint256"
        }
      ],
      "stateMutability": "view",
      "type": "function"
    },
    {
      "inputs": [
        {
          "internalType": "address",
          "name": "token",
          "type": "address"
        },
        {
          "internalType": "address",
          "name": "account",
          "type": "address"
        }
      ],
      "name": "balanceOf",
      "outputs": [
        {
          "internalType": "uint256",
          "name": "",
          "type": "uint256"
        }
      ],
      "stateMutability": "view",
      "type": "function"
    },
    {
      "inputs": [
        {
          "internalType": "address",
          "name": "token",
          "type": "address"
        }
      ],
      "name": "totalSupply",
      "outputs": [
        {
          "internalType": "uint256",
          "name": "",
          "type": "uint256"
        }
      ],
      "stateMutability": "view",
      "type": "function"
    }
  ],
  "bytecode": "0x608060405234801561001057600080fd5b506104bf806100206000396000f3fe608060405234801561001057600080fd5b50600436106100415760003560e01c8063927da10514610046578063e4dc2aa414610076578063f7888aec146100a6575b600080fd5b610060600480360381019061005b91906102e9565b6100d6565b60405161006d9190610355565b60405180910390f35b610090600480360381019061008b9190610370565b61016c565b60405161009d9190610355565b60405180910390f35b6100c060048036038101906100bb919061039d565b6101f3565b6040516100cd9190610355565b60405180910390f35b60008373ffffffffffffffffffffffffffffffffffffffff1663dd62ed3e84846040518363ffffffff1660e01b81526004016101139291906103ec565b60206040518083038186803b15801561012b57600080fd5b505afa15801561013f573d6000803e3d6000fd5b505050506040513d601f19601f820116820180604052508101906101639190610441565b90509392505050565b60008173ffffffffffffffffffffffffffffffffffffffff166318160ddd6040518163ffffffff1660e01b815260040160206040518083038186803b1580156101b457600080fd5b505afa1580156101c8573d6000803e3d6000fd5b505050506040513d601f19601f820116820180604052508101906101ec9190610441565b9050919050565b60008273ffffffffffffffffffffffffffffffffffffffff166370a08231836040518263ffffffff1660e01b815260040161022e919061046e565b60206040518083038186803b15801561024657600080fd5b505afa15801561025a573d6000803e3d6000fd5b505050506040513d601f19601f8201168201806040525081019061027e9190610441565b905092915050565b600080fd5b600073ffffffffffffffffffffffffffffffffffffffff82169050919050565b60006102b68261028b565b9050919050565b6102c6816102ab565b81146102d157600080fd5b50565b6000813590506102e3816102bd565b92915050565b60008060006060848603121561030257610301610286565b5b6000610310868287016102d4565b9350506020610321868287016102d4565b9250506040610332868287016102d4565b9150509250925092565b6000819050919050565b61034f8161033c565b82525050565b600060208201905061036a6000830184610346565b92915050565b60006020828403121561038657610385610286565b5b6000610394848285016102d4565b91505092915050565b600080604083850312156103b4576103b3610286565b5b60006103c2858286016102d4565b92505060206103d3858286016102d4565b9150509250929050565b6103e6816102ab565b82525050565b600060408201905061040160008301856103dd565b61040e60208301846103dd565b9392505050565b61041e8161033c565b811461042957600080fd5b50565b60008151905061043b81610415565b92915050565b60006020828403121561045757610456610286565b5b60006104658482850161042c565b91505092915050565b600060208201905061048360008301846103dd565b9291505056fea2646970667358221220ec5e0cdff41849ba9f13504e444880e12018cf6130a28c6cac497a838290967d64736f6c63430008090033",
  "linkReferences": {},
  "deployedLinkReferences": {}
}