{
  "_format": "hh-sol-artifact-1",
  "contractName": "StringsMock",
  "sourceName": "contracts/openzeppelin/mocks/StringsMock.sol",
  "abi": [
    {
      "inputs": [
        {
          "internalType": "address",
          "name": "addr",
          "type": "address"
        }
      ],
      "name": "toHexString",
      "outputs": [
        {
          "internalType": "string",
          "name": "",
          "type": "string"
        }
      ],
      "stateMutability": "pure",
      "type": "function"
    },
    {
      "inputs": [
        {
          "internalType": "uint256",
          "name": "value",
          "type": "uint256"
        },
        {
          "internalType": "uint256",
          "name": "length",
          "type": "uint256"
        }
      ],
      "name": "toHexString",
      "outputs": [
        {
          "internalType": "string",
          "name": "",
          "type": "string"
        }
      ],
      "stateMutability": "pure",
      "type": "function"
    },
    {
      "inputs": [
        {
          "internalType": "uint256",
          "name": "value",
          "type": "uint256"
        }
      ],
      "name": "toHexString",
      "outputs": [
        {
          "internalType": "string",
          "name": "",
          "type": "string"
        }
      ],
      "stateMutability": "pure",
      "type": "function"
    },
    {
      "inputs": [
        {
          "internalType": "uint256",
          "name": "value",
          "type": "uint256"
        }
      ],
      "name": "toString",
      "outputs": [
        {
          "internalType": "string",
          "name": "",
          "type": "string"
        }
      ],
      "stateMutability": "pure",
      "type": "function"
    }
  ],
  "bytecode": "0x608060405234801561001057600080fd5b50610ac3806100206000396000f3fe608060405234801561001057600080fd5b506004361061004c5760003560e01c80631bb0c6651461005157806363e1cbea146100815780636900a3ae146100b15780638fba8d5c146100e1575b600080fd5b61006b60048036038101906100669190610700565b610111565b60405161007891906107c6565b60405180910390f35b61009b6004803603810190610096919061081e565b610123565b6040516100a891906107c6565b60405180910390f35b6100cb60048036038101906100c6919061085e565b610137565b6040516100d891906107c6565b60405180910390f35b6100fb60048036038101906100f6919061085e565b610149565b60405161010891906107c6565b60405180910390f35b606061011c8261015b565b9050919050565b606061012f8383610188565b905092915050565b6060610142826103c4565b9050919050565b60606101548261049c565b9050919050565b60606101818273ffffffffffffffffffffffffffffffffffffffff16601460ff16610188565b9050919050565b60606000600283600261019b91906108ba565b6101a59190610914565b67ffffffffffffffff8111156101be576101bd61096a565b5b6040519080825280601f01601f1916602001820160405280156101f05781602001600182028036833780820191505090505b5090507f30000000000000000000000000000000000000000000000000000000000000008160008151811061022857610227610999565b5b60200101907effffffffffffffffffffffffffffffffffffffffffffffffffffffffffffff1916908160001a9053507f78000000000000000000000000000000000000000000000000000000000000008160018151811061028c5761028b610999565b5b60200101907effffffffffffffffffffffffffffffffffffffffffffffffffffffffffffff1916908160001a905350600060018460026102cc91906108ba565b6102d69190610914565b90505b6001811115610376577f3031323334353637383961626364656600000000000000000000000000000000600f86166010811061031857610317610999565b5b1a60f81b82828151811061032f5761032e610999565b5b60200101907effffffffffffffffffffffffffffffffffffffffffffffffffffffffffffff1916908160001a905350600485901c94508061036f906109c8565b90506102d9565b50600084146103ba576040517f08c379a00000000000000000000000000000000000000000000000000000000081526004016103b190610a3e565b60405180910390fd5b8091505092915050565b6060600060016103d3846104ba565b01905060008167ffffffffffffffff8111156103f2576103f161096a565b5b6040519080825280601f01601f1916602001820160405280156104245781602001600182028036833780820191505090505b509050600082602001820190505b600115610491578080600190039150507f3031323334353637383961626364656600000000000000000000000000000000600a86061a8153600a858161047b5761047a610a5e565b5b049450600085141561048c57610491565b610432565b819350505050919050565b60606104b38260016104ad8561060d565b01610188565b9050919050565b600080600090507a184f03e93ff9f4daa797ed6e38ed64bf6a1f0100000000000000008310610518577a184f03e93ff9f4daa797ed6e38ed64bf6a1f010000000000000000838161050e5761050d610a5e565b5b0492506040810190505b6d04ee2d6d415b85acef81000000008310610555576d04ee2d6d415b85acef8100000000838161054b5761054a610a5e565b5b0492506020810190505b662386f26fc10000831061058457662386f26fc10000838161057a57610579610a5e565b5b0492506010810190505b6305f5e10083106105ad576305f5e10083816105a3576105a2610a5e565b5b0492506008810190505b61271083106105d25761271083816105c8576105c7610a5e565b5b0492506004810190505b606483106105f557606483816105eb576105ea610a5e565b5b0492506002810190505b600a8310610604576001810190505b80915050919050565b600080600090506000608084901c111561062f57608083901c92506010810190505b6000604084901c111561064a57604083901c92506008810190505b6000602084901c111561066557602083901c92506004810190505b6000601084901c111561068057601083901c92506002810190505b6000600884901c1115610694576001810190505b80915050919050565b600080fd5b600073ffffffffffffffffffffffffffffffffffffffff82169050919050565b60006106cd826106a2565b9050919050565b6106dd816106c2565b81146106e857600080fd5b50565b6000813590506106fa816106d4565b92915050565b6000602082840312156107165761071561069d565b5b6000610724848285016106eb565b91505092915050565b600081519050919050565b600082825260208201905092915050565b60005b8381101561076757808201518184015260208101905061074c565b83811115610776576000848401525b50505050565b6000601f19601f8301169050919050565b60006107988261072d565b6107a28185610738565b93506107b2818560208601610749565b6107bb8161077c565b840191505092915050565b600060208201905081810360008301526107e0818461078d565b905092915050565b6000819050919050565b6107fb816107e8565b811461080657600080fd5b50565b600081359050610818816107f2565b92915050565b600080604083850312156108355761083461069d565b5b600061084385828601610809565b925050602061085485828601610809565b9150509250929050565b6000602082840312156108745761087361069d565b5b600061088284828501610809565b91505092915050565b7f4e487b7100000000000000000000000000000000000000000000000000000000600052601160045260246000fd5b60006108c5826107e8565b91506108d0836107e8565b9250817fffffffffffffffffffffffffffffffffffffffffffffffffffffffffffffffff04831182151516156109095761090861088b565b5b828202905092915050565b600061091f826107e8565b915061092a836107e8565b9250827fffffffffffffffffffffffffffffffffffffffffffffffffffffffffffffffff0382111561095f5761095e61088b565b5b828201905092915050565b7f4e487b7100000000000000000000000000000000000000000000000000000000600052604160045260246000fd5b7f4e487b7100000000000000000000000000000000000000000000000000000000600052603260045260246000fd5b60006109d3826107e8565b915060008214156109e7576109e661088b565b5b600182039050919050565b7f537472696e67733a20686578206c656e67746820696e73756666696369656e74600082015250565b6000610a28602083610738565b9150610a33826109f2565b602082019050919050565b60006020820190508181036000830152610a5781610a1b565b9050919050565b7f4e487b7100000000000000000000000000000000000000000000000000000000600052601260045260246000fdfea2646970667358221220c0b2621a73b92609cea068b6b65b51b6b4fcb3ebb7e8826fa4a192885ea8ffca64736f6c63430008090033",
  "linkReferences": {},
  "deployedLinkReferences": {}
}