{
  "_format": "hh-sol-artifact-1",
  "contractName": "ERC20PermitMock",
  "sourceName": "contracts/openzeppelin/mocks/ERC20PermitMock.sol",
  "abi": [
    {
      "inputs": [
        {
          "internalType": "string",
          "name": "name",
          "type": "string"
        },
        {
          "internalType": "string",
          "name": "symbol",
          "type": "string"
        },
        {
          "internalType": "address",
          "name": "initialAccount",
          "type": "address"
        },
        {
          "internalType": "uint256",
          "name": "initialBalance",
          "type": "uint256"
        }
      ],
      "stateMutability": "payable",
      "type": "constructor"
    },
    {
      "anonymous": false,
      "inputs": [
        {
          "indexed": true,
          "internalType": "address",
          "name": "owner",
          "type": "address"
        },
        {
          "indexed": true,
          "internalType": "address",
          "name": "spender",
          "type": "address"
        },
        {
          "indexed": false,
          "internalType": "uint256",
          "name": "value",
          "type": "uint256"
        }
      ],
      "name": "Approval",
      "type": "event"
    },
    {
      "anonymous": false,
      "inputs": [
        {
          "indexed": true,
          "internalType": "address",
          "name": "from",
          "type": "address"
        },
        {
          "indexed": true,
          "internalType": "address",
          "name": "to",
          "type": "address"
        },
        {
          "indexed": false,
          "internalType": "uint256",
          "name": "value",
          "type": "uint256"
        }
      ],
      "name": "Transfer",
      "type": "event"
    },
    {
      "inputs": [],
      "name": "DOMAIN_SEPARATOR",
      "outputs": [
        {
          "internalType": "bytes32",
          "name": "",
          "type": "bytes32"
        }
      ],
      "stateMutability": "view",
      "type": "function"
    },
    {
      "inputs": [
        {
          "internalType": "address",
          "name": "owner",
          "type": "address"
        },
        {
          "internalType": "address",
          "name": "spender",
          "type": "address"
        }
      ],
      "name": "allowance",
      "outputs": [
        {
          "internalType": "uint256",
          "name": "",
          "type": "uint256"
        }
      ],
      "stateMutability": "view",
      "type": "function"
    },
    {
      "inputs": [
        {
          "internalType": "address",
          "name": "spender",
          "type": "address"
        },
        {
          "internalType": "uint256",
          "name": "amount",
          "type": "uint256"
        }
      ],
      "name": "approve",
      "outputs": [
        {
          "internalType": "bool",
          "name": "",
          "type": "bool"
        }
      ],
      "stateMutability": "nonpayable",
      "type": "function"
    },
    {
      "inputs": [
        {
          "internalType": "address",
          "name": "account",
          "type": "address"
        }
      ],
      "name": "balanceOf",
      "outputs": [
        {
          "internalType": "uint256",
          "name": "",
          "type": "uint256"
        }
      ],
      "stateMutability": "view",
      "type": "function"
    },
    {
      "inputs": [],
      "name": "decimals",
      "outputs": [
        {
          "internalType": "uint8",
          "name": "",
          "type": "uint8"
        }
      ],
      "stateMutability": "view",
      "type": "function"
    },
    {
      "inputs": [
        {
          "internalType": "address",
          "name": "spender",
          "type": "address"
        },
        {
          "internalType": "uint256",
          "name": "subtractedValue",
          "type": "uint256"
        }
      ],
      "name": "decreaseAllowance",
      "outputs": [
        {
          "internalType": "bool",
          "name": "",
          "type": "bool"
        }
      ],
      "stateMutability": "nonpayable",
      "type": "function"
    },
    {
      "inputs": [],
      "name": "getChainId",
      "outputs": [
        {
          "internalType": "uint256",
          "name": "",
          "type": "uint256"
        }
      ],
      "stateMutability": "view",
      "type": "function"
    },
    {
      "inputs": [
        {
          "internalType": "address",
          "name": "spender",
          "type": "address"
        },
        {
          "internalType": "uint256",
          "name": "addedValue",
          "type": "uint256"
        }
      ],
      "name": "increaseAllowance",
      "outputs": [
        {
          "internalType": "bool",
          "name": "",
          "type": "bool"
        }
      ],
      "stateMutability": "nonpayable",
      "type": "function"
    },
    {
      "inputs": [],
      "name": "name",
      "outputs": [
        {
          "internalType": "string",
          "name": "",
          "type": "string"
        }
      ],
      "stateMutability": "view",
      "type": "function"
    },
    {
      "inputs": [
        {
          "internalType": "address",
          "name": "owner",
          "type": "address"
        }
      ],
      "name": "nonces",
      "outputs": [
        {
          "internalType": "uint256",
          "name": "",
          "type": "uint256"
        }
      ],
      "stateMutability": "view",
      "type": "function"
    },
    {
      "inputs": [
        {
          "internalType": "address",
          "name": "owner",
          "type": "address"
        },
        {
          "internalType": "address",
          "name": "spender",
          "type": "address"
        },
        {
          "internalType": "uint256",
          "name": "value",
          "type": "uint256"
        },
        {
          "internalType": "uint256",
          "name": "deadline",
          "type": "uint256"
        },
        {
          "internalType": "uint8",
          "name": "v",
          "type": "uint8"
        },
        {
          "internalType": "bytes32",
          "name": "r",
          "type": "bytes32"
        },
        {
          "internalType": "bytes32",
          "name": "s",
          "type": "bytes32"
        }
      ],
      "name": "permit",
      "outputs": [],
      "stateMutability": "nonpayable",
      "type": "function"
    },
    {
      "inputs": [],
      "name": "symbol",
      "outputs": [
        {
          "internalType": "string",
          "name": "",
          "type": "string"
        }
      ],
      "stateMutability": "view",
      "type": "function"
    },
    {
      "inputs": [],
      "name": "totalSupply",
      "outputs": [
        {
          "internalType": "uint256",
          "name": "",
          "type": "uint256"
        }
      ],
      "stateMutability": "view",
      "type": "function"
    },
    {
      "inputs": [
        {
          "internalType": "address",
          "name": "to",
          "type": "address"
        },
        {
          "internalType": "uint256",
          "name": "amount",
          "type": "uint256"
        }
      ],
      "name": "transfer",
      "outputs": [
        {
          "internalType": "bool",
          "name": "",
          "type": "bool"
        }
      ],
      "stateMutability": "nonpayable",
      "type": "function"
    },
    {
      "inputs": [
        {
          "internalType": "address",
          "name": "from",
          "type": "address"
        },
        {
          "internalType": "address",
          "name": "to",
          "type": "address"
        },
        {
          "internalType": "uint256",
          "name": "amount",
          "type": "uint256"
        }
      ],
      "name": "transferFrom",
      "outputs": [
        {
          "internalType": "bool",
          "name": "",
          "type": "bool"
        }
      ],
      "stateMutability": "nonpayable",
      "type": "function"
    }
  ],
  "bytecode": "0x610140604052604051620028043803806200280483398181016040528101906200002a919062000608565b83806040518060400160405280600181526020017f3100000000000000000000000000000000000000000000000000000000000000815250868681600390805190602001906200007c9291906200031b565b508060049080519060200190620000959291906200031b565b50505060008280519060200120905060008280519060200120905060007f8b73c3c69bb8fe3d512ecc4cf759cc79239f7b179b0ffacaa9a75d522b39400f90508260e081815250508161010081815250504660a08181525050620001018184846200016760201b60201c565b608081815250503073ffffffffffffffffffffffffffffffffffffffff1660c08173ffffffffffffffffffffffffffffffffffffffff16815250508061012081815250505050505050506200015d8282620001a360201b60201c565b50505050620008e3565b6000838383463060405160200162000184959493929190620006f5565b6040516020818303038152906040528051906020012090509392505050565b600073ffffffffffffffffffffffffffffffffffffffff168273ffffffffffffffffffffffffffffffffffffffff16141562000216576040517f08c379a00000000000000000000000000000000000000000000000000000000081526004016200020d90620007b3565b60405180910390fd5b6200022a600083836200031160201b60201c565b80600260008282546200023e919062000804565b92505081905550806000808473ffffffffffffffffffffffffffffffffffffffff1673ffffffffffffffffffffffffffffffffffffffff168152602001908152602001600020600082825401925050819055508173ffffffffffffffffffffffffffffffffffffffff16600073ffffffffffffffffffffffffffffffffffffffff167fddf252ad1be2c89b69c2b068fc378daa952ba7f163c4a11628f55a4df523b3ef83604051620002f1919062000861565b60405180910390a36200030d600083836200031660201b60201c565b5050565b505050565b505050565b8280546200032990620008ad565b90600052602060002090601f0160209004810192826200034d576000855562000399565b82601f106200036857805160ff191683800117855562000399565b8280016001018555821562000399579182015b82811115620003985782518255916020019190600101906200037b565b5b509050620003a89190620003ac565b5090565b5b80821115620003c7576000816000905550600101620003ad565b5090565b6000604051905090565b600080fd5b600080fd5b600080fd5b600080fd5b6000601f19601f8301169050919050565b7f4e487b7100000000000000000000000000000000000000000000000000000000600052604160045260246000fd5b6200043482620003e9565b810181811067ffffffffffffffff82111715620004565762000455620003fa565b5b80604052505050565b60006200046b620003cb565b905062000479828262000429565b919050565b600067ffffffffffffffff8211156200049c576200049b620003fa565b5b620004a782620003e9565b9050602081019050919050565b60005b83811015620004d4578082015181840152602081019050620004b7565b83811115620004e4576000848401525b50505050565b600062000501620004fb846200047e565b6200045f565b90508281526020810184848401111562000520576200051f620003e4565b5b6200052d848285620004b4565b509392505050565b600082601f8301126200054d576200054c620003df565b5b81516200055f848260208601620004ea565b91505092915050565b600073ffffffffffffffffffffffffffffffffffffffff82169050919050565b6000620005958262000568565b9050919050565b620005a78162000588565b8114620005b357600080fd5b50565b600081519050620005c7816200059c565b92915050565b6000819050919050565b620005e281620005cd565b8114620005ee57600080fd5b50565b6000815190506200060281620005d7565b92915050565b60008060008060808587031215620006255762000624620003d5565b5b600085015167ffffffffffffffff811115620006465762000645620003da565b5b620006548782880162000535565b945050602085015167ffffffffffffffff811115620006785762000677620003da565b5b620006868782880162000535565b93505060406200069987828801620005b6565b9250506060620006ac87828801620005f1565b91505092959194509250565b6000819050919050565b620006cd81620006b8565b82525050565b620006de81620005cd565b82525050565b620006ef8162000588565b82525050565b600060a0820190506200070c6000830188620006c2565b6200071b6020830187620006c2565b6200072a6040830186620006c2565b620007396060830185620006d3565b620007486080830184620006e4565b9695505050505050565b600082825260208201905092915050565b7f45524332303a206d696e7420746f20746865207a65726f206164647265737300600082015250565b60006200079b601f8362000752565b9150620007a88262000763565b602082019050919050565b60006020820190508181036000830152620007ce816200078c565b9050919050565b7f4e487b7100000000000000000000000000000000000000000000000000000000600052601160045260246000fd5b60006200081182620005cd565b91506200081e83620005cd565b9250827fffffffffffffffffffffffffffffffffffffffffffffffffffffffffffffffff03821115620008565762000855620007d5565b5b828201905092915050565b6000602082019050620008786000830184620006d3565b92915050565b7f4e487b7100000000000000000000000000000000000000000000000000000000600052602260045260246000fd5b60006002820490506001821680620008c657607f821691505b60208210811415620008dd57620008dc6200087e565b5b50919050565b60805160a05160c05160e0516101005161012051611ed1620009336000396000610da101526000610de301526000610dc201526000610cf701526000610d4d01526000610d760152611ed16000f3fe608060405234801561001057600080fd5b50600436106100f55760003560e01c80633950935111610097578063a457c2d711610066578063a457c2d71461029e578063a9059cbb146102ce578063d505accf146102fe578063dd62ed3e1461031a576100f5565b806339509351146101f057806370a08231146102205780637ecebe001461025057806395d89b4114610280576100f5565b806323b872dd116100d357806323b872dd14610166578063313ce567146101965780633408e470146101b45780633644e515146101d2576100f5565b806306fdde03146100fa578063095ea7b31461011857806318160ddd14610148575b600080fd5b61010261034a565b60405161010f9190611235565b60405180910390f35b610132600480360381019061012d91906112f0565b6103dc565b60405161013f919061134b565b60405180910390f35b6101506103ff565b60405161015d9190611375565b60405180910390f35b610180600480360381019061017b9190611390565b610409565b60405161018d919061134b565b60405180910390f35b61019e610438565b6040516101ab91906113ff565b60405180910390f35b6101bc610441565b6040516101c99190611375565b60405180910390f35b6101da610449565b6040516101e79190611433565b60405180910390f35b61020a600480360381019061020591906112f0565b610458565b604051610217919061134b565b60405180910390f35b61023a6004803603810190610235919061144e565b61048f565b6040516102479190611375565b60405180910390f35b61026a6004803603810190610265919061144e565b6104d7565b6040516102779190611375565b60405180910390f35b610288610527565b6040516102959190611235565b60405180910390f35b6102b860048036038101906102b391906112f0565b6105b9565b6040516102c5919061134b565b60405180910390f35b6102e860048036038101906102e391906112f0565b610630565b6040516102f5919061134b565b60405180910390f35b610318600480360381019061031391906114d3565b610653565b005b610334600480360381019061032f9190611575565b610795565b6040516103419190611375565b60405180910390f35b606060038054610359906115e4565b80601f0160208091040260200160405190810160405280929190818152602001828054610385906115e4565b80156103d25780601f106103a7576101008083540402835291602001916103d2565b820191906000526020600020905b8154815290600101906020018083116103b557829003601f168201915b5050505050905090565b6000806103e761081c565b90506103f4818585610824565b600191505092915050565b6000600254905090565b60008061041461081c565b90506104218582856109ef565b61042c858585610a7b565b60019150509392505050565b60006012905090565b600046905090565b6000610453610cf3565b905090565b60008061046361081c565b90506104848185856104758589610795565b61047f9190611645565b610824565b600191505092915050565b60008060008373ffffffffffffffffffffffffffffffffffffffff1673ffffffffffffffffffffffffffffffffffffffff168152602001908152602001600020549050919050565b6000610520600560008473ffffffffffffffffffffffffffffffffffffffff1673ffffffffffffffffffffffffffffffffffffffff168152602001908152602001600020610e0d565b9050919050565b606060048054610536906115e4565b80601f0160208091040260200160405190810160405280929190818152602001828054610562906115e4565b80156105af5780601f10610584576101008083540402835291602001916105af565b820191906000526020600020905b81548152906001019060200180831161059257829003601f168201915b5050505050905090565b6000806105c461081c565b905060006105d28286610795565b905083811015610617576040517f08c379a000000000000000000000000000000000000000000000000000000000815260040161060e9061170d565b60405180910390fd5b6106248286868403610824565b60019250505092915050565b60008061063b61081c565b9050610648818585610a7b565b600191505092915050565b83421115610696576040517f08c379a000000000000000000000000000000000000000000000000000000000815260040161068d90611779565b60405180910390fd5b60007f6e71edae12b1b97f4d1f60370fef10105fa2faae0126114a169c64845d6126c98888886106c58c610e1b565b896040516020016106db969594939291906117a8565b60405160208183030381529060405280519060200120905060006106fe82610e79565b9050600061070e82878787610e93565b90508973ffffffffffffffffffffffffffffffffffffffff168173ffffffffffffffffffffffffffffffffffffffff161461077e576040517f08c379a000000000000000000000000000000000000000000000000000000000815260040161077590611855565b60405180910390fd5b6107898a8a8a610824565b50505050505050505050565b6000600160008473ffffffffffffffffffffffffffffffffffffffff1673ffffffffffffffffffffffffffffffffffffffff16815260200190815260200160002060008373ffffffffffffffffffffffffffffffffffffffff1673ffffffffffffffffffffffffffffffffffffffff16815260200190815260200160002054905092915050565b600033905090565b600073ffffffffffffffffffffffffffffffffffffffff168373ffffffffffffffffffffffffffffffffffffffff161415610894576040517f08c379a000000000000000000000000000000000000000000000000000000000815260040161088b906118e7565b60405180910390fd5b600073ffffffffffffffffffffffffffffffffffffffff168273ffffffffffffffffffffffffffffffffffffffff161415610904576040517f08c379a00000000000000000000000000000000000000000000000000000000081526004016108fb90611979565b60405180910390fd5b80600160008573ffffffffffffffffffffffffffffffffffffffff1673ffffffffffffffffffffffffffffffffffffffff16815260200190815260200160002060008473ffffffffffffffffffffffffffffffffffffffff1673ffffffffffffffffffffffffffffffffffffffff168152602001908152602001600020819055508173ffffffffffffffffffffffffffffffffffffffff168373ffffffffffffffffffffffffffffffffffffffff167f8c5be1e5ebec7d5bd14f71427d1e84f3dd0314c0f7b2291e5b200ac8c7c3b925836040516109e29190611375565b60405180910390a3505050565b60006109fb8484610795565b90507fffffffffffffffffffffffffffffffffffffffffffffffffffffffffffffffff8114610a755781811015610a67576040517f08c379a0000000000000000000000000000000000000000000000000000000008152600401610a5e906119e5565b60405180910390fd5b610a748484848403610824565b5b50505050565b600073ffffffffffffffffffffffffffffffffffffffff168373ffffffffffffffffffffffffffffffffffffffff161415610aeb576040517f08c379a0000000000000000000000000000000000000000000000000000000008152600401610ae290611a77565b60405180910390fd5b600073ffffffffffffffffffffffffffffffffffffffff168273ffffffffffffffffffffffffffffffffffffffff161415610b5b576040517f08c379a0000000000000000000000000000000000000000000000000000000008152600401610b5290611b09565b60405180910390fd5b610b66838383610ebe565b60008060008573ffffffffffffffffffffffffffffffffffffffff1673ffffffffffffffffffffffffffffffffffffffff16815260200190815260200160002054905081811015610bec576040517f08c379a0000000000000000000000000000000000000000000000000000000008152600401610be390611b9b565b60405180910390fd5b8181036000808673ffffffffffffffffffffffffffffffffffffffff1673ffffffffffffffffffffffffffffffffffffffff16815260200190815260200160002081905550816000808573ffffffffffffffffffffffffffffffffffffffff1673ffffffffffffffffffffffffffffffffffffffff168152602001908152602001600020600082825401925050819055508273ffffffffffffffffffffffffffffffffffffffff168473ffffffffffffffffffffffffffffffffffffffff167fddf252ad1be2c89b69c2b068fc378daa952ba7f163c4a11628f55a4df523b3ef84604051610cda9190611375565b60405180910390a3610ced848484610ec3565b50505050565b60007f000000000000000000000000000000000000000000000000000000000000000073ffffffffffffffffffffffffffffffffffffffff163073ffffffffffffffffffffffffffffffffffffffff16148015610d6f57507f000000000000000000000000000000000000000000000000000000000000000046145b15610d9c577f00000000000000000000000000000000000000000000000000000000000000009050610e0a565b610e077f00000000000000000000000000000000000000000000000000000000000000007f00000000000000000000000000000000000000000000000000000000000000007f0000000000000000000000000000000000000000000000000000000000000000610ec8565b90505b90565b600081600001549050919050565b600080600560008473ffffffffffffffffffffffffffffffffffffffff1673ffffffffffffffffffffffffffffffffffffffff1681526020019081526020016000209050610e6881610e0d565b9150610e7381610f02565b50919050565b6000610e8c610e86610cf3565b83610f18565b9050919050565b6000806000610ea487878787610f4b565b91509150610eb18161102e565b8192505050949350505050565b505050565b505050565b60008383834630604051602001610ee3959493929190611bbb565b6040516020818303038152906040528051906020012090509392505050565b6001816000016000828254019250508190555050565b60008282604051602001610f2d929190611c86565b60405160208183030381529060405280519060200120905092915050565b6000807f7fffffffffffffffffffffffffffffff5d576e7357a4501ddfe92f46681b20a08360001c1115610f86576000600391509150611025565b600060018787878760405160008152602001604052604051610fab9493929190611cbd565b6020604051602081039080840390855afa158015610fcd573d6000803e3d6000fd5b505050602060405103519050600073ffffffffffffffffffffffffffffffffffffffff168173ffffffffffffffffffffffffffffffffffffffff16141561101c57600060019250925050611025565b80600092509250505b94509492505050565b6000600481111561104257611041611d02565b5b81600481111561105557611054611d02565b5b141561106057611199565b6001600481111561107457611073611d02565b5b81600481111561108757611086611d02565b5b14156110c8576040517f08c379a00000000000000000000000000000000000000000000000000000000081526004016110bf90611d7d565b60405180910390fd5b600260048111156110dc576110db611d02565b5b8160048111156110ef576110ee611d02565b5b1415611130576040517f08c379a000000000000000000000000000000000000000000000000000000000815260040161112790611de9565b60405180910390fd5b6003600481111561114457611143611d02565b5b81600481111561115757611156611d02565b5b1415611198576040517f08c379a000000000000000000000000000000000000000000000000000000000815260040161118f90611e7b565b60405180910390fd5b5b50565b600081519050919050565b600082825260208201905092915050565b60005b838110156111d65780820151818401526020810190506111bb565b838111156111e5576000848401525b50505050565b6000601f19601f8301169050919050565b60006112078261119c565b61121181856111a7565b93506112218185602086016111b8565b61122a816111eb565b840191505092915050565b6000602082019050818103600083015261124f81846111fc565b905092915050565b600080fd5b600073ffffffffffffffffffffffffffffffffffffffff82169050919050565b60006112878261125c565b9050919050565b6112978161127c565b81146112a257600080fd5b50565b6000813590506112b48161128e565b92915050565b6000819050919050565b6112cd816112ba565b81146112d857600080fd5b50565b6000813590506112ea816112c4565b92915050565b6000806040838503121561130757611306611257565b5b6000611315858286016112a5565b9250506020611326858286016112db565b9150509250929050565b60008115159050919050565b61134581611330565b82525050565b6000602082019050611360600083018461133c565b92915050565b61136f816112ba565b82525050565b600060208201905061138a6000830184611366565b92915050565b6000806000606084860312156113a9576113a8611257565b5b60006113b7868287016112a5565b93505060206113c8868287016112a5565b92505060406113d9868287016112db565b9150509250925092565b600060ff82169050919050565b6113f9816113e3565b82525050565b600060208201905061141460008301846113f0565b92915050565b6000819050919050565b61142d8161141a565b82525050565b60006020820190506114486000830184611424565b92915050565b60006020828403121561146457611463611257565b5b6000611472848285016112a5565b91505092915050565b611484816113e3565b811461148f57600080fd5b50565b6000813590506114a18161147b565b92915050565b6114b08161141a565b81146114bb57600080fd5b50565b6000813590506114cd816114a7565b92915050565b600080600080600080600060e0888a0312156114f2576114f1611257565b5b60006115008a828b016112a5565b97505060206115118a828b016112a5565b96505060406115228a828b016112db565b95505060606115338a828b016112db565b94505060806115448a828b01611492565b93505060a06115558a828b016114be565b92505060c06115668a828b016114be565b91505092959891949750929550565b6000806040838503121561158c5761158b611257565b5b600061159a858286016112a5565b92505060206115ab858286016112a5565b9150509250929050565b7f4e487b7100000000000000000000000000000000000000000000000000000000600052602260045260246000fd5b600060028204905060018216806115fc57607f821691505b602082108114156116105761160f6115b5565b5b50919050565b7f4e487b7100000000000000000000000000000000000000000000000000000000600052601160045260246000fd5b6000611650826112ba565b915061165b836112ba565b9250827fffffffffffffffffffffffffffffffffffffffffffffffffffffffffffffffff038211156116905761168f611616565b5b828201905092915050565b7f45524332303a2064656372656173656420616c6c6f77616e63652062656c6f7760008201527f207a65726f000000000000000000000000000000000000000000000000000000602082015250565b60006116f76025836111a7565b91506117028261169b565b604082019050919050565b60006020820190508181036000830152611726816116ea565b9050919050565b7f45524332305065726d69743a206578706972656420646561646c696e65000000600082015250565b6000611763601d836111a7565b915061176e8261172d565b602082019050919050565b6000602082019050818103600083015261179281611756565b9050919050565b6117a28161127c565b82525050565b600060c0820190506117bd6000830189611424565b6117ca6020830188611799565b6117d76040830187611799565b6117e46060830186611366565b6117f16080830185611366565b6117fe60a0830184611366565b979650505050505050565b7f45524332305065726d69743a20696e76616c6964207369676e61747572650000600082015250565b600061183f601e836111a7565b915061184a82611809565b602082019050919050565b6000602082019050818103600083015261186e81611832565b9050919050565b7f45524332303a20617070726f76652066726f6d20746865207a65726f2061646460008201527f7265737300000000000000000000000000000000000000000000000000000000602082015250565b60006118d16024836111a7565b91506118dc82611875565b604082019050919050565b60006020820190508181036000830152611900816118c4565b9050919050565b7f45524332303a20617070726f766520746f20746865207a65726f20616464726560008201527f7373000000000000000000000000000000000000000000000000000000000000602082015250565b60006119636022836111a7565b915061196e82611907565b604082019050919050565b6000602082019050818103600083015261199281611956565b9050919050565b7f45524332303a20696e73756666696369656e7420616c6c6f77616e6365000000600082015250565b60006119cf601d836111a7565b91506119da82611999565b602082019050919050565b600060208201905081810360008301526119fe816119c2565b9050919050565b7f45524332303a207472616e736665722066726f6d20746865207a65726f20616460008201527f6472657373000000000000000000000000000000000000000000000000000000602082015250565b6000611a616025836111a7565b9150611a6c82611a05565b604082019050919050565b60006020820190508181036000830152611a9081611a54565b9050919050565b7f45524332303a207472616e7366657220746f20746865207a65726f206164647260008201527f6573730000000000000000000000000000000000000000000000000000000000602082015250565b6000611af36023836111a7565b9150611afe82611a97565b604082019050919050565b60006020820190508181036000830152611b2281611ae6565b9050919050565b7f45524332303a207472616e7366657220616d6f756e742065786365656473206260008201527f616c616e63650000000000000000000000000000000000000000000000000000602082015250565b6000611b856026836111a7565b9150611b9082611b29565b604082019050919050565b60006020820190508181036000830152611bb481611b78565b9050919050565b600060a082019050611bd06000830188611424565b611bdd6020830187611424565b611bea6040830186611424565b611bf76060830185611366565b611c046080830184611799565b9695505050505050565b600081905092915050565b7f1901000000000000000000000000000000000000000000000000000000000000600082015250565b6000611c4f600283611c0e565b9150611c5a82611c19565b600282019050919050565b6000819050919050565b611c80611c7b8261141a565b611c65565b82525050565b6000611c9182611c42565b9150611c9d8285611c6f565b602082019150611cad8284611c6f565b6020820191508190509392505050565b6000608082019050611cd26000830187611424565b611cdf60208301866113f0565b611cec6040830185611424565b611cf96060830184611424565b95945050505050565b7f4e487b7100000000000000000000000000000000000000000000000000000000600052602160045260246000fd5b7f45434453413a20696e76616c6964207369676e61747572650000000000000000600082015250565b6000611d676018836111a7565b9150611d7282611d31565b602082019050919050565b60006020820190508181036000830152611d9681611d5a565b9050919050565b7f45434453413a20696e76616c6964207369676e6174757265206c656e67746800600082015250565b6000611dd3601f836111a7565b9150611dde82611d9d565b602082019050919050565b60006020820190508181036000830152611e0281611dc6565b9050919050565b7f45434453413a20696e76616c6964207369676e6174757265202773272076616c60008201527f7565000000000000000000000000000000000000000000000000000000000000602082015250565b6000611e656022836111a7565b9150611e7082611e09565b604082019050919050565b60006020820190508181036000830152611e9481611e58565b905091905056fea26469706673582212203aefc8bc903fcdf2a07d7f859043b8bc60791624947490de979b1de58a01296964736f6c63430008090033",
  "linkReferences": {},
  "deployedLinkReferences": {}
}