{
  "_format": "hh-sol-artifact-1",
  "contractName": "ERC721RoyaltyMock",
  "sourceName": "contracts/openzeppelin/mocks/ERC721RoyaltyMock.sol",
  "abi": [
    {
      "inputs": [
        {
          "internalType": "string",
          "name": "name",
          "type": "string"
        },
        {
          "internalType": "string",
          "name": "symbol",
          "type": "string"
        }
      ],
      "stateMutability": "nonpayable",
      "type": "constructor"
    },
    {
      "anonymous": false,
      "inputs": [
        {
          "indexed": true,
          "internalType": "address",
          "name": "owner",
          "type": "address"
        },
        {
          "indexed": true,
          "internalType": "address",
          "name": "approved",
          "type": "address"
        },
        {
          "indexed": true,
          "internalType": "uint256",
          "name": "tokenId",
          "type": "uint256"
        }
      ],
      "name": "Approval",
      "type": "event"
    },
    {
      "anonymous": false,
      "inputs": [
        {
          "indexed": true,
          "internalType": "address",
          "name": "owner",
          "type": "address"
        },
        {
          "indexed": true,
          "internalType": "address",
          "name": "operator",
          "type": "address"
        },
        {
          "indexed": false,
          "internalType": "bool",
          "name": "approved",
          "type": "bool"
        }
      ],
      "name": "ApprovalForAll",
      "type": "event"
    },
    {
      "anonymous": false,
      "inputs": [
        {
          "indexed": true,
          "internalType": "address",
          "name": "from",
          "type": "address"
        },
        {
          "indexed": true,
          "internalType": "address",
          "name": "to",
          "type": "address"
        },
        {
          "indexed": true,
          "internalType": "uint256",
          "name": "tokenId",
          "type": "uint256"
        }
      ],
      "name": "Transfer",
      "type": "event"
    },
    {
      "inputs": [
        {
          "internalType": "address",
          "name": "to",
          "type": "address"
        },
        {
          "internalType": "uint256",
          "name": "tokenId",
          "type": "uint256"
        }
      ],
      "name": "approve",
      "outputs": [],
      "stateMutability": "nonpayable",
      "type": "function"
    },
    {
      "inputs": [
        {
          "internalType": "address",
          "name": "owner",
          "type": "address"
        }
      ],
      "name": "balanceOf",
      "outputs": [
        {
          "internalType": "uint256",
          "name": "",
          "type": "uint256"
        }
      ],
      "stateMutability": "view",
      "type": "function"
    },
    {
      "inputs": [
        {
          "internalType": "uint256",
          "name": "tokenId",
          "type": "uint256"
        }
      ],
      "name": "burn",
      "outputs": [],
      "stateMutability": "nonpayable",
      "type": "function"
    },
    {
      "inputs": [],
      "name": "deleteDefaultRoyalty",
      "outputs": [],
      "stateMutability": "nonpayable",
      "type": "function"
    },
    {
      "inputs": [
        {
          "internalType": "uint256",
          "name": "tokenId",
          "type": "uint256"
        }
      ],
      "name": "getApproved",
      "outputs": [
        {
          "internalType": "address",
          "name": "",
          "type": "address"
        }
      ],
      "stateMutability": "view",
      "type": "function"
    },
    {
      "inputs": [
        {
          "internalType": "address",
          "name": "owner",
          "type": "address"
        },
        {
          "internalType": "address",
          "name": "operator",
          "type": "address"
        }
      ],
      "name": "isApprovedForAll",
      "outputs": [
        {
          "internalType": "bool",
          "name": "",
          "type": "bool"
        }
      ],
      "stateMutability": "view",
      "type": "function"
    },
    {
      "inputs": [
        {
          "internalType": "address",
          "name": "to",
          "type": "address"
        },
        {
          "internalType": "uint256",
          "name": "tokenId",
          "type": "uint256"
        }
      ],
      "name": "mint",
      "outputs": [],
      "stateMutability": "nonpayable",
      "type": "function"
    },
    {
      "inputs": [],
      "name": "name",
      "outputs": [
        {
          "internalType": "string",
          "name": "",
          "type": "string"
        }
      ],
      "stateMutability": "view",
      "type": "function"
    },
    {
      "inputs": [
        {
          "internalType": "uint256",
          "name": "tokenId",
          "type": "uint256"
        }
      ],
      "name": "ownerOf",
      "outputs": [
        {
          "internalType": "address",
          "name": "",
          "type": "address"
        }
      ],
      "stateMutability": "view",
      "type": "function"
    },
    {
      "inputs": [
        {
          "internalType": "uint256",
          "name": "_tokenId",
          "type": "uint256"
        },
        {
          "internalType": "uint256",
          "name": "_salePrice",
          "type": "uint256"
        }
      ],
      "name": "royaltyInfo",
      "outputs": [
        {
          "internalType": "address",
          "name": "",
          "type": "address"
        },
        {
          "internalType": "uint256",
          "name": "",
          "type": "uint256"
        }
      ],
      "stateMutability": "view",
      "type": "function"
    },
    {
      "inputs": [
        {
          "internalType": "address",
          "name": "from",
          "type": "address"
        },
        {
          "internalType": "address",
          "name": "to",
          "type": "address"
        },
        {
          "internalType": "uint256",
          "name": "tokenId",
          "type": "uint256"
        }
      ],
      "name": "safeTransferFrom",
      "outputs": [],
      "stateMutability": "nonpayable",
      "type": "function"
    },
    {
      "inputs": [
        {
          "internalType": "address",
          "name": "from",
          "type": "address"
        },
        {
          "internalType": "address",
          "name": "to",
          "type": "address"
        },
        {
          "internalType": "uint256",
          "name": "tokenId",
          "type": "uint256"
        },
        {
          "internalType": "bytes",
          "name": "data",
          "type": "bytes"
        }
      ],
      "name": "safeTransferFrom",
      "outputs": [],
      "stateMutability": "nonpayable",
      "type": "function"
    },
    {
      "inputs": [
        {
          "internalType": "address",
          "name": "operator",
          "type": "address"
        },
        {
          "internalType": "bool",
          "name": "approved",
          "type": "bool"
        }
      ],
      "name": "setApprovalForAll",
      "outputs": [],
      "stateMutability": "nonpayable",
      "type": "function"
    },
    {
      "inputs": [
        {
          "internalType": "address",
          "name": "recipient",
          "type": "address"
        },
        {
          "internalType": "uint96",
          "name": "fraction",
          "type": "uint96"
        }
      ],
      "name": "setDefaultRoyalty",
      "outputs": [],
      "stateMutability": "nonpayable",
      "type": "function"
    },
    {
      "inputs": [
        {
          "internalType": "uint256",
          "name": "tokenId",
          "type": "uint256"
        },
        {
          "internalType": "address",
          "name": "recipient",
          "type": "address"
        },
        {
          "internalType": "uint96",
          "name": "fraction",
          "type": "uint96"
        }
      ],
      "name": "setTokenRoyalty",
      "outputs": [],
      "stateMutability": "nonpayable",
      "type": "function"
    },
    {
      "inputs": [
        {
          "internalType": "bytes4",
          "name": "interfaceId",
          "type": "bytes4"
        }
      ],
      "name": "supportsInterface",
      "outputs": [
        {
          "internalType": "bool",
          "name": "",
          "type": "bool"
        }
      ],
      "stateMutability": "view",
      "type": "function"
    },
    {
      "inputs": [],
      "name": "symbol",
      "outputs": [
        {
          "internalType": "string",
          "name": "",
          "type": "string"
        }
      ],
      "stateMutability": "view",
      "type": "function"
    },
    {
      "inputs": [
        {
          "internalType": "uint256",
          "name": "tokenId",
          "type": "uint256"
        }
      ],
      "name": "tokenURI",
      "outputs": [
        {
          "internalType": "string",
          "name": "",
          "type": "string"
        }
      ],
      "stateMutability": "view",
      "type": "function"
    },
    {
      "inputs": [
        {
          "internalType": "address",
          "name": "from",
          "type": "address"
        },
        {
          "internalType": "address",
          "name": "to",
          "type": "address"
        },
        {
          "internalType": "uint256",
          "name": "tokenId",
          "type": "uint256"
        }
      ],
      "name": "transferFrom",
      "outputs": [],
      "stateMutability": "nonpayable",
      "type": "function"
    }
  ],
  "bytecode": "0x60806040523480156200001157600080fd5b5060405162003615380380620036158339818101604052810190620000379190620002c2565b818181600290805190602001906200005192919062000075565b5080600390805190602001906200006a92919062000075565b5050505050620003ac565b828054620000839062000376565b90600052602060002090601f016020900481019282620000a75760008555620000f3565b82601f10620000c257805160ff1916838001178555620000f3565b82800160010185558215620000f3579182015b82811115620000f2578251825591602001919060010190620000d5565b5b50905062000102919062000106565b5090565b5b808211156200012157600081600090555060010162000107565b5090565b6000604051905090565b600080fd5b600080fd5b600080fd5b600080fd5b6000601f19601f8301169050919050565b7f4e487b7100000000000000000000000000000000000000000000000000000000600052604160045260246000fd5b6200018e8262000143565b810181811067ffffffffffffffff82111715620001b057620001af62000154565b5b80604052505050565b6000620001c562000125565b9050620001d3828262000183565b919050565b600067ffffffffffffffff821115620001f657620001f562000154565b5b620002018262000143565b9050602081019050919050565b60005b838110156200022e57808201518184015260208101905062000211565b838111156200023e576000848401525b50505050565b60006200025b6200025584620001d8565b620001b9565b9050828152602081018484840111156200027a57620002796200013e565b5b620002878482856200020e565b509392505050565b600082601f830112620002a757620002a662000139565b5b8151620002b984826020860162000244565b91505092915050565b60008060408385031215620002dc57620002db6200012f565b5b600083015167ffffffffffffffff811115620002fd57620002fc62000134565b5b6200030b858286016200028f565b925050602083015167ffffffffffffffff8111156200032f576200032e62000134565b5b6200033d858286016200028f565b9150509250929050565b7f4e487b7100000000000000000000000000000000000000000000000000000000600052602260045260246000fd5b600060028204905060018216806200038f57607f821691505b60208210811415620003a657620003a562000347565b5b50919050565b61325980620003bc6000396000f3fe608060405234801561001057600080fd5b50600436106101215760003560e01c806342966c68116100ad578063a22cb46511610071578063a22cb46514610317578063aa1b103f14610333578063b88d4fde1461033d578063c87b56dd14610359578063e985e9c51461038957610121565b806342966c68146102615780635944c7531461027d5780636352211e1461029957806370a08231146102c957806395d89b41146102f957610121565b8063095ea7b3116100f4578063095ea7b3146101c057806323b872dd146101dc5780632a55205a146101f857806340c10f191461022957806342842e0e1461024557610121565b806301ffc9a71461012657806304634d8d1461015657806306fdde0314610172578063081812fc14610190575b600080fd5b610140600480360381019061013b919061215d565b6103b9565b60405161014d91906121a5565b60405180910390f35b610170600480360381019061016b9190612262565b6103cb565b005b61017a6103d9565b604051610187919061233b565b60405180910390f35b6101aa60048036038101906101a59190612393565b61046b565b6040516101b791906123cf565b60405180910390f35b6101da60048036038101906101d591906123ea565b6104b1565b005b6101f660048036038101906101f1919061242a565b6105c9565b005b610212600480360381019061020d919061247d565b610629565b6040516102209291906124cc565b60405180910390f35b610243600480360381019061023e91906123ea565b610814565b005b61025f600480360381019061025a919061242a565b610822565b005b61027b60048036038101906102769190612393565b610842565b005b610297600480360381019061029291906124f5565b61084e565b005b6102b360048036038101906102ae9190612393565b61085e565b6040516102c091906123cf565b60405180910390f35b6102e360048036038101906102de9190612548565b6108e5565b6040516102f09190612575565b60405180910390f35b61030161099d565b60405161030e919061233b565b60405180910390f35b610331600480360381019061032c91906125bc565b610a2f565b005b61033b610a45565b005b61035760048036038101906103529190612731565b610a4f565b005b610373600480360381019061036e9190612393565b610ab1565b604051610380919061233b565b60405180910390f35b6103a3600480360381019061039e91906127b4565b610b19565b6040516103b091906121a5565b60405180910390f35b60006103c482610bad565b9050919050565b6103d58282610c8f565b5050565b6060600280546103e890612823565b80601f016020809104026020016040519081016040528092919081815260200182805461041490612823565b80156104615780601f1061043657610100808354040283529160200191610461565b820191906000526020600020905b81548152906001019060200180831161044457829003601f168201915b5050505050905090565b600061047682610e24565b6006600083815260200190815260200160002060009054906101000a900473ffffffffffffffffffffffffffffffffffffffff169050919050565b60006104bc8261085e565b90508073ffffffffffffffffffffffffffffffffffffffff168373ffffffffffffffffffffffffffffffffffffffff16141561052d576040517f08c379a0000000000000000000000000000000000000000000000000000000008152600401610524906128c7565b60405180910390fd5b8073ffffffffffffffffffffffffffffffffffffffff1661054c610e6f565b73ffffffffffffffffffffffffffffffffffffffff16148061057b575061057a81610575610e6f565b610b19565b5b6105ba576040517f08c379a00000000000000000000000000000000000000000000000000000000081526004016105b190612959565b60405180910390fd5b6105c48383610e77565b505050565b6105da6105d4610e6f565b82610f30565b610619576040517f08c379a0000000000000000000000000000000000000000000000000000000008152600401610610906129eb565b60405180910390fd5b610624838383610fc5565b505050565b6000806000600160008681526020019081526020016000206040518060400160405290816000820160009054906101000a900473ffffffffffffffffffffffffffffffffffffffff1673ffffffffffffffffffffffffffffffffffffffff1673ffffffffffffffffffffffffffffffffffffffff1681526020016000820160149054906101000a90046bffffffffffffffffffffffff166bffffffffffffffffffffffff166bffffffffffffffffffffffff16815250509050600073ffffffffffffffffffffffffffffffffffffffff16816000015173ffffffffffffffffffffffffffffffffffffffff1614156107bf5760006040518060400160405290816000820160009054906101000a900473ffffffffffffffffffffffffffffffffffffffff1673ffffffffffffffffffffffffffffffffffffffff1673ffffffffffffffffffffffffffffffffffffffff1681526020016000820160149054906101000a90046bffffffffffffffffffffffff166bffffffffffffffffffffffff166bffffffffffffffffffffffff168152505090505b60006107c96112bf565b6bffffffffffffffffffffffff1682602001516bffffffffffffffffffffffff16866107f59190612a3a565b6107ff9190612ac3565b90508160000151819350935050509250929050565b61081e82826112c9565b5050565b61083d83838360405180602001604052806000815250610a4f565b505050565b61084b816114e7565b50565b6108598383836114fc565b505050565b60008061086a836116a4565b9050600073ffffffffffffffffffffffffffffffffffffffff168173ffffffffffffffffffffffffffffffffffffffff1614156108dc576040517f08c379a00000000000000000000000000000000000000000000000000000000081526004016108d390612b40565b60405180910390fd5b80915050919050565b60008073ffffffffffffffffffffffffffffffffffffffff168273ffffffffffffffffffffffffffffffffffffffff161415610956576040517f08c379a000000000000000000000000000000000000000000000000000000000815260040161094d90612bd2565b60405180910390fd5b600560008373ffffffffffffffffffffffffffffffffffffffff1673ffffffffffffffffffffffffffffffffffffffff168152602001908152602001600020549050919050565b6060600380546109ac90612823565b80601f01602080910402602001604051908101604052809291908181526020018280546109d890612823565b8015610a255780601f106109fa57610100808354040283529160200191610a25565b820191906000526020600020905b815481529060010190602001808311610a0857829003601f168201915b5050505050905090565b610a41610a3a610e6f565b83836116e1565b5050565b610a4d61184e565b565b610a60610a5a610e6f565b83610f30565b610a9f576040517f08c379a0000000000000000000000000000000000000000000000000000000008152600401610a96906129eb565b60405180910390fd5b610aab8484848461189b565b50505050565b6060610abc82610e24565b6000610ac66118f7565b90506000815111610ae65760405180602001604052806000815250610b11565b80610af08461190e565b604051602001610b01929190612c2e565b6040516020818303038152906040525b915050919050565b6000600760008473ffffffffffffffffffffffffffffffffffffffff1673ffffffffffffffffffffffffffffffffffffffff16815260200190815260200160002060008373ffffffffffffffffffffffffffffffffffffffff1673ffffffffffffffffffffffffffffffffffffffff16815260200190815260200160002060009054906101000a900460ff16905092915050565b60007f80ac58cd000000000000000000000000000000000000000000000000000000007bffffffffffffffffffffffffffffffffffffffffffffffffffffffff1916827bffffffffffffffffffffffffffffffffffffffffffffffffffffffff19161480610c7857507f5b5e139f000000000000000000000000000000000000000000000000000000007bffffffffffffffffffffffffffffffffffffffffffffffffffffffff1916827bffffffffffffffffffffffffffffffffffffffffffffffffffffffff1916145b80610c885750610c87826119e6565b5b9050919050565b610c976112bf565b6bffffffffffffffffffffffff16816bffffffffffffffffffffffff161115610cf5576040517f08c379a0000000000000000000000000000000000000000000000000000000008152600401610cec90612cc4565b60405180910390fd5b600073ffffffffffffffffffffffffffffffffffffffff168273ffffffffffffffffffffffffffffffffffffffff161415610d65576040517f08c379a0000000000000000000000000000000000000000000000000000000008152600401610d5c90612d30565b60405180910390fd5b60405180604001604052808373ffffffffffffffffffffffffffffffffffffffff168152602001826bffffffffffffffffffffffff168152506000808201518160000160006101000a81548173ffffffffffffffffffffffffffffffffffffffff021916908373ffffffffffffffffffffffffffffffffffffffff16021790555060208201518160000160146101000a8154816bffffffffffffffffffffffff02191690836bffffffffffffffffffffffff1602179055509050505050565b610e2d81611a60565b610e6c576040517f08c379a0000000000000000000000000000000000000000000000000000000008152600401610e6390612b40565b60405180910390fd5b50565b600033905090565b816006600083815260200190815260200160002060006101000a81548173ffffffffffffffffffffffffffffffffffffffff021916908373ffffffffffffffffffffffffffffffffffffffff160217905550808273ffffffffffffffffffffffffffffffffffffffff16610eea8361085e565b73ffffffffffffffffffffffffffffffffffffffff167f8c5be1e5ebec7d5bd14f71427d1e84f3dd0314c0f7b2291e5b200ac8c7c3b92560405160405180910390a45050565b600080610f3c8361085e565b90508073ffffffffffffffffffffffffffffffffffffffff168473ffffffffffffffffffffffffffffffffffffffff161480610f7e5750610f7d8185610b19565b5b80610fbc57508373ffffffffffffffffffffffffffffffffffffffff16610fa48461046b565b73ffffffffffffffffffffffffffffffffffffffff16145b91505092915050565b8273ffffffffffffffffffffffffffffffffffffffff16610fe58261085e565b73ffffffffffffffffffffffffffffffffffffffff161461103b576040517f08c379a000000000000000000000000000000000000000000000000000000000815260040161103290612dc2565b60405180910390fd5b600073ffffffffffffffffffffffffffffffffffffffff168273ffffffffffffffffffffffffffffffffffffffff1614156110ab576040517f08c379a00000000000000000000000000000000000000000000000000000000081526004016110a290612e54565b60405180910390fd5b6110b88383836001611aa1565b8273ffffffffffffffffffffffffffffffffffffffff166110d88261085e565b73ffffffffffffffffffffffffffffffffffffffff161461112e576040517f08c379a000000000000000000000000000000000000000000000000000000000815260040161112590612dc2565b60405180910390fd5b6006600082815260200190815260200160002060006101000a81549073ffffffffffffffffffffffffffffffffffffffff02191690556001600560008573ffffffffffffffffffffffffffffffffffffffff1673ffffffffffffffffffffffffffffffffffffffff168152602001908152602001600020600082825403925050819055506001600560008473ffffffffffffffffffffffffffffffffffffffff1673ffffffffffffffffffffffffffffffffffffffff16815260200190815260200160002060008282540192505081905550816004600083815260200190815260200160002060006101000a81548173ffffffffffffffffffffffffffffffffffffffff021916908373ffffffffffffffffffffffffffffffffffffffff160217905550808273ffffffffffffffffffffffffffffffffffffffff168473ffffffffffffffffffffffffffffffffffffffff167fddf252ad1be2c89b69c2b068fc378daa952ba7f163c4a11628f55a4df523b3ef60405160405180910390a46112ba8383836001611bc7565b505050565b6000612710905090565b600073ffffffffffffffffffffffffffffffffffffffff168273ffffffffffffffffffffffffffffffffffffffff161415611339576040517f08c379a000000000000000000000000000000000000000000000000000000000815260040161133090612ec0565b60405180910390fd5b61134281611a60565b15611382576040517f08c379a000000000000000000000000000000000000000000000000000000000815260040161137990612f2c565b60405180910390fd5b611390600083836001611aa1565b61139981611a60565b156113d9576040517f08c379a00000000000000000000000000000000000000000000000000000000081526004016113d090612f2c565b60405180910390fd5b6001600560008473ffffffffffffffffffffffffffffffffffffffff1673ffffffffffffffffffffffffffffffffffffffff16815260200190815260200160002060008282540192505081905550816004600083815260200190815260200160002060006101000a81548173ffffffffffffffffffffffffffffffffffffffff021916908373ffffffffffffffffffffffffffffffffffffffff160217905550808273ffffffffffffffffffffffffffffffffffffffff16600073ffffffffffffffffffffffffffffffffffffffff167fddf252ad1be2c89b69c2b068fc378daa952ba7f163c4a11628f55a4df523b3ef60405160405180910390a46114e3600083836001611bc7565b5050565b6114f081611bcd565b6114f981611d1b565b50565b6115046112bf565b6bffffffffffffffffffffffff16816bffffffffffffffffffffffff161115611562576040517f08c379a000000000000000000000000000000000000000000000000000000000815260040161155990612cc4565b60405180910390fd5b600073ffffffffffffffffffffffffffffffffffffffff168273ffffffffffffffffffffffffffffffffffffffff1614156115d2576040517f08c379a00000000000000000000000000000000000000000000000000000000081526004016115c990612f98565b60405180910390fd5b60405180604001604052808373ffffffffffffffffffffffffffffffffffffffff168152602001826bffffffffffffffffffffffff168152506001600085815260200190815260200160002060008201518160000160006101000a81548173ffffffffffffffffffffffffffffffffffffffff021916908373ffffffffffffffffffffffffffffffffffffffff16021790555060208201518160000160146101000a8154816bffffffffffffffffffffffff02191690836bffffffffffffffffffffffff160217905550905050505050565b60006004600083815260200190815260200160002060009054906101000a900473ffffffffffffffffffffffffffffffffffffffff169050919050565b8173ffffffffffffffffffffffffffffffffffffffff168373ffffffffffffffffffffffffffffffffffffffff161415611750576040517f08c379a000000000000000000000000000000000000000000000000000000000815260040161174790613004565b60405180910390fd5b80600760008573ffffffffffffffffffffffffffffffffffffffff1673ffffffffffffffffffffffffffffffffffffffff16815260200190815260200160002060008473ffffffffffffffffffffffffffffffffffffffff1673ffffffffffffffffffffffffffffffffffffffff16815260200190815260200160002060006101000a81548160ff0219169083151502179055508173ffffffffffffffffffffffffffffffffffffffff168373ffffffffffffffffffffffffffffffffffffffff167f17307eab39ab6107e8899845ad3d59bd9653f200f220920489ca2b5937696c318360405161184191906121a5565b60405180910390a3505050565b6000806000820160006101000a81549073ffffffffffffffffffffffffffffffffffffffff02191690556000820160146101000a8154906bffffffffffffffffffffffff02191690555050565b6118a6848484610fc5565b6118b284848484611d7a565b6118f1576040517f08c379a00000000000000000000000000000000000000000000000000000000081526004016118e890613096565b60405180910390fd5b50505050565b606060405180602001604052806000815250905090565b60606000600161191d84611f11565b01905060008167ffffffffffffffff81111561193c5761193b612606565b5b6040519080825280601f01601f19166020018201604052801561196e5781602001600182028036833780820191505090505b509050600082602001820190505b6001156119db578080600190039150507f3031323334353637383961626364656600000000000000000000000000000000600a86061a8153600a85816119c5576119c4612a94565b5b04945060008514156119d6576119db565b61197c565b819350505050919050565b60007f2a55205a000000000000000000000000000000000000000000000000000000007bffffffffffffffffffffffffffffffffffffffffffffffffffffffff1916827bffffffffffffffffffffffffffffffffffffffffffffffffffffffff19161480611a595750611a5882612064565b5b9050919050565b60008073ffffffffffffffffffffffffffffffffffffffff16611a82836116a4565b73ffffffffffffffffffffffffffffffffffffffff1614159050919050565b6001811115611bc157600073ffffffffffffffffffffffffffffffffffffffff168473ffffffffffffffffffffffffffffffffffffffff1614611b355780600560008673ffffffffffffffffffffffffffffffffffffffff1673ffffffffffffffffffffffffffffffffffffffff1681526020019081526020016000206000828254611b2d91906130b6565b925050819055505b600073ffffffffffffffffffffffffffffffffffffffff168373ffffffffffffffffffffffffffffffffffffffff1614611bc05780600560008573ffffffffffffffffffffffffffffffffffffffff1673ffffffffffffffffffffffffffffffffffffffff1681526020019081526020016000206000828254611bb891906130ea565b925050819055505b5b50505050565b50505050565b6000611bd88261085e565b9050611be8816000846001611aa1565b611bf18261085e565b90506006600083815260200190815260200160002060006101000a81549073ffffffffffffffffffffffffffffffffffffffff02191690556001600560008373ffffffffffffffffffffffffffffffffffffffff1673ffffffffffffffffffffffffffffffffffffffff168152602001908152602001600020600082825403925050819055506004600083815260200190815260200160002060006101000a81549073ffffffffffffffffffffffffffffffffffffffff021916905581600073ffffffffffffffffffffffffffffffffffffffff168273ffffffffffffffffffffffffffffffffffffffff167fddf252ad1be2c89b69c2b068fc378daa952ba7f163c4a11628f55a4df523b3ef60405160405180910390a4611d17816000846001611bc7565b5050565b60016000828152602001908152602001600020600080820160006101000a81549073ffffffffffffffffffffffffffffffffffffffff02191690556000820160146101000a8154906bffffffffffffffffffffffff0219169055505050565b6000611d9b8473ffffffffffffffffffffffffffffffffffffffff166120ce565b15611f04578373ffffffffffffffffffffffffffffffffffffffff1663150b7a02611dc4610e6f565b8786866040518563ffffffff1660e01b8152600401611de69493929190613195565b602060405180830381600087803b158015611e0057600080fd5b505af1925050508015611e3157506040513d601f19601f82011682018060405250810190611e2e91906131f6565b60015b611eb4573d8060008114611e61576040519150601f19603f3d011682016040523d82523d6000602084013e611e66565b606091505b50600081511415611eac576040517f08c379a0000000000000000000000000000000000000000000000000000000008152600401611ea390613096565b60405180910390fd5b805181602001fd5b63150b7a0260e01b7bffffffffffffffffffffffffffffffffffffffffffffffffffffffff1916817bffffffffffffffffffffffffffffffffffffffffffffffffffffffff191614915050611f09565b600190505b949350505050565b600080600090507a184f03e93ff9f4daa797ed6e38ed64bf6a1f0100000000000000008310611f6f577a184f03e93ff9f4daa797ed6e38ed64bf6a1f0100000000000000008381611f6557611f64612a94565b5b0492506040810190505b6d04ee2d6d415b85acef81000000008310611fac576d04ee2d6d415b85acef81000000008381611fa257611fa1612a94565b5b0492506020810190505b662386f26fc100008310611fdb57662386f26fc100008381611fd157611fd0612a94565b5b0492506010810190505b6305f5e1008310612004576305f5e1008381611ffa57611ff9612a94565b5b0492506008810190505b612710831061202957612710838161201f5761201e612a94565b5b0492506004810190505b6064831061204c576064838161204257612041612a94565b5b0492506002810190505b600a831061205b576001810190505b80915050919050565b60007f01ffc9a7000000000000000000000000000000000000000000000000000000007bffffffffffffffffffffffffffffffffffffffffffffffffffffffff1916827bffffffffffffffffffffffffffffffffffffffffffffffffffffffff1916149050919050565b6000808273ffffffffffffffffffffffffffffffffffffffff163b119050919050565b6000604051905090565b600080fd5b600080fd5b60007fffffffff0000000000000000000000000000000000000000000000000000000082169050919050565b61213a81612105565b811461214557600080fd5b50565b60008135905061215781612131565b92915050565b600060208284031215612173576121726120fb565b5b600061218184828501612148565b91505092915050565b60008115159050919050565b61219f8161218a565b82525050565b60006020820190506121ba6000830184612196565b92915050565b600073ffffffffffffffffffffffffffffffffffffffff82169050919050565b60006121eb826121c0565b9050919050565b6121fb816121e0565b811461220657600080fd5b50565b600081359050612218816121f2565b92915050565b60006bffffffffffffffffffffffff82169050919050565b61223f8161221e565b811461224a57600080fd5b50565b60008135905061225c81612236565b92915050565b60008060408385031215612279576122786120fb565b5b600061228785828601612209565b92505060206122988582860161224d565b9150509250929050565b600081519050919050565b600082825260208201905092915050565b60005b838110156122dc5780820151818401526020810190506122c1565b838111156122eb576000848401525b50505050565b6000601f19601f8301169050919050565b600061230d826122a2565b61231781856122ad565b93506123278185602086016122be565b612330816122f1565b840191505092915050565b600060208201905081810360008301526123558184612302565b905092915050565b6000819050919050565b6123708161235d565b811461237b57600080fd5b50565b60008135905061238d81612367565b92915050565b6000602082840312156123a9576123a86120fb565b5b60006123b78482850161237e565b91505092915050565b6123c9816121e0565b82525050565b60006020820190506123e460008301846123c0565b92915050565b60008060408385031215612401576124006120fb565b5b600061240f85828601612209565b92505060206124208582860161237e565b9150509250929050565b600080600060608486031215612443576124426120fb565b5b600061245186828701612209565b935050602061246286828701612209565b92505060406124738682870161237e565b9150509250925092565b60008060408385031215612494576124936120fb565b5b60006124a28582860161237e565b92505060206124b38582860161237e565b9150509250929050565b6124c68161235d565b82525050565b60006040820190506124e160008301856123c0565b6124ee60208301846124bd565b9392505050565b60008060006060848603121561250e5761250d6120fb565b5b600061251c8682870161237e565b935050602061252d86828701612209565b925050604061253e8682870161224d565b9150509250925092565b60006020828403121561255e5761255d6120fb565b5b600061256c84828501612209565b91505092915050565b600060208201905061258a60008301846124bd565b92915050565b6125998161218a565b81146125a457600080fd5b50565b6000813590506125b681612590565b92915050565b600080604083850312156125d3576125d26120fb565b5b60006125e185828601612209565b92505060206125f2858286016125a7565b9150509250929050565b600080fd5b600080fd5b7f4e487b7100000000000000000000000000000000000000000000000000000000600052604160045260246000fd5b61263e826122f1565b810181811067ffffffffffffffff8211171561265d5761265c612606565b5b80604052505050565b60006126706120f1565b905061267c8282612635565b919050565b600067ffffffffffffffff82111561269c5761269b612606565b5b6126a5826122f1565b9050602081019050919050565b82818337600083830152505050565b60006126d46126cf84612681565b612666565b9050828152602081018484840111156126f0576126ef612601565b5b6126fb8482856126b2565b509392505050565b600082601f830112612718576127176125fc565b5b81356127288482602086016126c1565b91505092915050565b6000806000806080858703121561274b5761274a6120fb565b5b600061275987828801612209565b945050602061276a87828801612209565b935050604061277b8782880161237e565b925050606085013567ffffffffffffffff81111561279c5761279b612100565b5b6127a887828801612703565b91505092959194509250565b600080604083850312156127cb576127ca6120fb565b5b60006127d985828601612209565b92505060206127ea85828601612209565b9150509250929050565b7f4e487b7100000000000000000000000000000000000000000000000000000000600052602260045260246000fd5b6000600282049050600182168061283b57607f821691505b6020821081141561284f5761284e6127f4565b5b50919050565b7f4552433732313a20617070726f76616c20746f2063757272656e74206f776e6560008201527f7200000000000000000000000000000000000000000000000000000000000000602082015250565b60006128b16021836122ad565b91506128bc82612855565b604082019050919050565b600060208201905081810360008301526128e0816128a4565b9050919050565b7f4552433732313a20617070726f76652063616c6c6572206973206e6f7420746f60008201527f6b656e206f776e6572206f7220617070726f76656420666f7220616c6c000000602082015250565b6000612943603d836122ad565b915061294e826128e7565b604082019050919050565b6000602082019050818103600083015261297281612936565b9050919050565b7f4552433732313a2063616c6c6572206973206e6f7420746f6b656e206f776e6560008201527f72206f7220617070726f76656400000000000000000000000000000000000000602082015250565b60006129d5602d836122ad565b91506129e082612979565b604082019050919050565b60006020820190508181036000830152612a04816129c8565b9050919050565b7f4e487b7100000000000000000000000000000000000000000000000000000000600052601160045260246000fd5b6000612a458261235d565b9150612a508361235d565b9250817fffffffffffffffffffffffffffffffffffffffffffffffffffffffffffffffff0483118215151615612a8957612a88612a0b565b5b828202905092915050565b7f4e487b7100000000000000000000000000000000000000000000000000000000600052601260045260246000fd5b6000612ace8261235d565b9150612ad98361235d565b925082612ae957612ae8612a94565b5b828204905092915050565b7f4552433732313a20696e76616c696420746f6b656e2049440000000000000000600082015250565b6000612b2a6018836122ad565b9150612b3582612af4565b602082019050919050565b60006020820190508181036000830152612b5981612b1d565b9050919050565b7f4552433732313a2061646472657373207a65726f206973206e6f74206120766160008201527f6c6964206f776e65720000000000000000000000000000000000000000000000602082015250565b6000612bbc6029836122ad565b9150612bc782612b60565b604082019050919050565b60006020820190508181036000830152612beb81612baf565b9050919050565b600081905092915050565b6000612c08826122a2565b612c128185612bf2565b9350612c228185602086016122be565b80840191505092915050565b6000612c3a8285612bfd565b9150612c468284612bfd565b91508190509392505050565b7f455243323938313a20726f79616c7479206665652077696c6c2065786365656460008201527f2073616c65507269636500000000000000000000000000000000000000000000602082015250565b6000612cae602a836122ad565b9150612cb982612c52565b604082019050919050565b60006020820190508181036000830152612cdd81612ca1565b9050919050565b7f455243323938313a20696e76616c696420726563656976657200000000000000600082015250565b6000612d1a6019836122ad565b9150612d2582612ce4565b602082019050919050565b60006020820190508181036000830152612d4981612d0d565b9050919050565b7f4552433732313a207472616e736665722066726f6d20696e636f72726563742060008201527f6f776e6572000000000000000000000000000000000000000000000000000000602082015250565b6000612dac6025836122ad565b9150612db782612d50565b604082019050919050565b60006020820190508181036000830152612ddb81612d9f565b9050919050565b7f4552433732313a207472616e7366657220746f20746865207a65726f2061646460008201527f7265737300000000000000000000000000000000000000000000000000000000602082015250565b6000612e3e6024836122ad565b9150612e4982612de2565b604082019050919050565b60006020820190508181036000830152612e6d81612e31565b9050919050565b7f4552433732313a206d696e7420746f20746865207a65726f2061646472657373600082015250565b6000612eaa6020836122ad565b9150612eb582612e74565b602082019050919050565b60006020820190508181036000830152612ed981612e9d565b9050919050565b7f4552433732313a20746f6b656e20616c7265616479206d696e74656400000000600082015250565b6000612f16601c836122ad565b9150612f2182612ee0565b602082019050919050565b60006020820190508181036000830152612f4581612f09565b9050919050565b7f455243323938313a20496e76616c696420706172616d65746572730000000000600082015250565b6000612f82601b836122ad565b9150612f8d82612f4c565b602082019050919050565b60006020820190508181036000830152612fb181612f75565b9050919050565b7f4552433732313a20617070726f766520746f2063616c6c657200000000000000600082015250565b6000612fee6019836122ad565b9150612ff982612fb8565b602082019050919050565b6000602082019050818103600083015261301d81612fe1565b9050919050565b7f4552433732313a207472616e7366657220746f206e6f6e20455243373231526560008201527f63656976657220696d706c656d656e7465720000000000000000000000000000602082015250565b60006130806032836122ad565b915061308b82613024565b604082019050919050565b600060208201905081810360008301526130af81613073565b9050919050565b60006130c18261235d565b91506130cc8361235d565b9250828210156130df576130de612a0b565b5b828203905092915050565b60006130f58261235d565b91506131008361235d565b9250827fffffffffffffffffffffffffffffffffffffffffffffffffffffffffffffffff0382111561313557613134612a0b565b5b828201905092915050565b600081519050919050565b600082825260208201905092915050565b600061316782613140565b613171818561314b565b93506131818185602086016122be565b61318a816122f1565b840191505092915050565b60006080820190506131aa60008301876123c0565b6131b760208301866123c0565b6131c460408301856124bd565b81810360608301526131d6818461315c565b905095945050505050565b6000815190506131f081612131565b92915050565b60006020828403121561320c5761320b6120fb565b5b600061321a848285016131e1565b9150509291505056fea26469706673582212208f61c1457c66e85fe4ee60e6736c620d441c99b748d3f4f63401b92641c5a18464736f6c63430008090033",
  "linkReferences": {},
  "deployedLinkReferences": {}
}