{
  "_format": "hh-sol-artifact-1",
  "contractName": "Context",
  "sourceName": "contracts/utils/context/Context.sol",
  "abi": [
    {
      "inputs": [],
      "name": "_msgData",
      "outputs": [
        {
          "internalType": "bytes",
          "name": "",
          "type": "bytes"
        }
      ],
      "stateMutability": "view",
      "type": "function"
    },
    {
      "inputs": [],
      "name": "_msgSender",
      "outputs": [
        {
          "internalType": "address",
          "name": "",
          "type": "address"
        }
      ],
      "stateMutability": "view",
      "type": "function"
    },
    {
      "inputs": [],
      "name": "_txSender",
      "outputs": [
        {
          "internalType": "address",
          "name": "",
          "type": "address"
        }
      ],
      "stateMutability": "view",
      "type": "function"
    }
  ],
  "bytecode": "0x608060405234801561001057600080fd5b506101d2806100206000396000f3fe608060405234801561001057600080fd5b50600436106100415760003560e01c8063119df25f146100465780638b49d47e14610064578063c877097d14610083575b600080fd5b61004e6100a1565b60405161005b91906100ff565b60405180910390f35b61006c6100a9565b60405161007a929190610178565b60405180910390f35b61008b6100b6565b60405161009891906100ff565b60405180910390f35b600033905090565b3660008036915091509091565b600032905090565b600073ffffffffffffffffffffffffffffffffffffffff82169050919050565b60006100e9826100be565b9050919050565b6100f9816100de565b82525050565b600060208201905061011460008301846100f0565b92915050565b600082825260208201905092915050565b82818337600083830152505050565b6000601f19601f8301169050919050565b6000610157838561011a565b935061016483858461012b565b61016d8361013a565b840190509392505050565b6000602082019050818103600083015261019381848661014b565b9050939250505056fea2646970667358221220f0222391efced0e77e280d8097e0c55d5523b71236d5a8725b03cdde9fe245b464736f6c63430008090033",
  "linkReferences": {},
  "deployedLinkReferences": {}
}