{
  "_format": "hh-sol-artifact-1",
  "contractName": "ERC721URIStorageMock",
  "sourceName": "contracts/openzeppelin/mocks/ERC721URIStorageMock.sol",
  "abi": [
    {
      "inputs": [
        {
          "internalType": "string",
          "name": "name",
          "type": "string"
        },
        {
          "internalType": "string",
          "name": "symbol",
          "type": "string"
        }
      ],
      "stateMutability": "nonpayable",
      "type": "constructor"
    },
    {
      "anonymous": false,
      "inputs": [
        {
          "indexed": true,
          "internalType": "address",
          "name": "owner",
          "type": "address"
        },
        {
          "indexed": true,
          "internalType": "address",
          "name": "approved",
          "type": "address"
        },
        {
          "indexed": true,
          "internalType": "uint256",
          "name": "tokenId",
          "type": "uint256"
        }
      ],
      "name": "Approval",
      "type": "event"
    },
    {
      "anonymous": false,
      "inputs": [
        {
          "indexed": true,
          "internalType": "address",
          "name": "owner",
          "type": "address"
        },
        {
          "indexed": true,
          "internalType": "address",
          "name": "operator",
          "type": "address"
        },
        {
          "indexed": false,
          "internalType": "bool",
          "name": "approved",
          "type": "bool"
        }
      ],
      "name": "ApprovalForAll",
      "type": "event"
    },
    {
      "anonymous": false,
      "inputs": [
        {
          "indexed": true,
          "internalType": "address",
          "name": "from",
          "type": "address"
        },
        {
          "indexed": true,
          "internalType": "address",
          "name": "to",
          "type": "address"
        },
        {
          "indexed": true,
          "internalType": "uint256",
          "name": "tokenId",
          "type": "uint256"
        }
      ],
      "name": "Transfer",
      "type": "event"
    },
    {
      "inputs": [
        {
          "internalType": "address",
          "name": "to",
          "type": "address"
        },
        {
          "internalType": "uint256",
          "name": "tokenId",
          "type": "uint256"
        }
      ],
      "name": "approve",
      "outputs": [],
      "stateMutability": "nonpayable",
      "type": "function"
    },
    {
      "inputs": [
        {
          "internalType": "address",
          "name": "owner",
          "type": "address"
        }
      ],
      "name": "balanceOf",
      "outputs": [
        {
          "internalType": "uint256",
          "name": "",
          "type": "uint256"
        }
      ],
      "stateMutability": "view",
      "type": "function"
    },
    {
      "inputs": [],
      "name": "baseURI",
      "outputs": [
        {
          "internalType": "string",
          "name": "",
          "type": "string"
        }
      ],
      "stateMutability": "view",
      "type": "function"
    },
    {
      "inputs": [
        {
          "internalType": "uint256",
          "name": "tokenId",
          "type": "uint256"
        }
      ],
      "name": "burn",
      "outputs": [],
      "stateMutability": "nonpayable",
      "type": "function"
    },
    {
      "inputs": [
        {
          "internalType": "uint256",
          "name": "tokenId",
          "type": "uint256"
        }
      ],
      "name": "exists",
      "outputs": [
        {
          "internalType": "bool",
          "name": "",
          "type": "bool"
        }
      ],
      "stateMutability": "view",
      "type": "function"
    },
    {
      "inputs": [
        {
          "internalType": "uint256",
          "name": "tokenId",
          "type": "uint256"
        }
      ],
      "name": "getApproved",
      "outputs": [
        {
          "internalType": "address",
          "name": "",
          "type": "address"
        }
      ],
      "stateMutability": "view",
      "type": "function"
    },
    {
      "inputs": [
        {
          "internalType": "address",
          "name": "owner",
          "type": "address"
        },
        {
          "internalType": "address",
          "name": "operator",
          "type": "address"
        }
      ],
      "name": "isApprovedForAll",
      "outputs": [
        {
          "internalType": "bool",
          "name": "",
          "type": "bool"
        }
      ],
      "stateMutability": "view",
      "type": "function"
    },
    {
      "inputs": [
        {
          "internalType": "address",
          "name": "to",
          "type": "address"
        },
        {
          "internalType": "uint256",
          "name": "tokenId",
          "type": "uint256"
        }
      ],
      "name": "mint",
      "outputs": [],
      "stateMutability": "nonpayable",
      "type": "function"
    },
    {
      "inputs": [],
      "name": "name",
      "outputs": [
        {
          "internalType": "string",
          "name": "",
          "type": "string"
        }
      ],
      "stateMutability": "view",
      "type": "function"
    },
    {
      "inputs": [
        {
          "internalType": "uint256",
          "name": "tokenId",
          "type": "uint256"
        }
      ],
      "name": "ownerOf",
      "outputs": [
        {
          "internalType": "address",
          "name": "",
          "type": "address"
        }
      ],
      "stateMutability": "view",
      "type": "function"
    },
    {
      "inputs": [
        {
          "internalType": "address",
          "name": "to",
          "type": "address"
        },
        {
          "internalType": "uint256",
          "name": "tokenId",
          "type": "uint256"
        },
        {
          "internalType": "bytes",
          "name": "_data",
          "type": "bytes"
        }
      ],
      "name": "safeMint",
      "outputs": [],
      "stateMutability": "nonpayable",
      "type": "function"
    },
    {
      "inputs": [
        {
          "internalType": "address",
          "name": "to",
          "type": "address"
        },
        {
          "internalType": "uint256",
          "name": "tokenId",
          "type": "uint256"
        }
      ],
      "name": "safeMint",
      "outputs": [],
      "stateMutability": "nonpayable",
      "type": "function"
    },
    {
      "inputs": [
        {
          "internalType": "address",
          "name": "from",
          "type": "address"
        },
        {
          "internalType": "address",
          "name": "to",
          "type": "address"
        },
        {
          "internalType": "uint256",
          "name": "tokenId",
          "type": "uint256"
        }
      ],
      "name": "safeTransferFrom",
      "outputs": [],
      "stateMutability": "nonpayable",
      "type": "function"
    },
    {
      "inputs": [
        {
          "internalType": "address",
          "name": "from",
          "type": "address"
        },
        {
          "internalType": "address",
          "name": "to",
          "type": "address"
        },
        {
          "internalType": "uint256",
          "name": "tokenId",
          "type": "uint256"
        },
        {
          "internalType": "bytes",
          "name": "data",
          "type": "bytes"
        }
      ],
      "name": "safeTransferFrom",
      "outputs": [],
      "stateMutability": "nonpayable",
      "type": "function"
    },
    {
      "inputs": [
        {
          "internalType": "address",
          "name": "operator",
          "type": "address"
        },
        {
          "internalType": "bool",
          "name": "approved",
          "type": "bool"
        }
      ],
      "name": "setApprovalForAll",
      "outputs": [],
      "stateMutability": "nonpayable",
      "type": "function"
    },
    {
      "inputs": [
        {
          "internalType": "string",
          "name": "newBaseTokenURI",
          "type": "string"
        }
      ],
      "name": "setBaseURI",
      "outputs": [],
      "stateMutability": "nonpayable",
      "type": "function"
    },
    {
      "inputs": [
        {
          "internalType": "uint256",
          "name": "tokenId",
          "type": "uint256"
        },
        {
          "internalType": "string",
          "name": "_tokenURI",
          "type": "string"
        }
      ],
      "name": "setTokenURI",
      "outputs": [],
      "stateMutability": "nonpayable",
      "type": "function"
    },
    {
      "inputs": [
        {
          "internalType": "bytes4",
          "name": "interfaceId",
          "type": "bytes4"
        }
      ],
      "name": "supportsInterface",
      "outputs": [
        {
          "internalType": "bool",
          "name": "",
          "type": "bool"
        }
      ],
      "stateMutability": "view",
      "type": "function"
    },
    {
      "inputs": [],
      "name": "symbol",
      "outputs": [
        {
          "internalType": "string",
          "name": "",
          "type": "string"
        }
      ],
      "stateMutability": "view",
      "type": "function"
    },
    {
      "inputs": [
        {
          "internalType": "uint256",
          "name": "tokenId",
          "type": "uint256"
        }
      ],
      "name": "tokenURI",
      "outputs": [
        {
          "internalType": "string",
          "name": "",
          "type": "string"
        }
      ],
      "stateMutability": "view",
      "type": "function"
    },
    {
      "inputs": [
        {
          "internalType": "address",
          "name": "from",
          "type": "address"
        },
        {
          "internalType": "address",
          "name": "to",
          "type": "address"
        },
        {
          "internalType": "uint256",
          "name": "tokenId",
          "type": "uint256"
        }
      ],
      "name": "transferFrom",
      "outputs": [],
      "stateMutability": "nonpayable",
      "type": "function"
    }
  ],
  "bytecode": "0x60806040523480156200001157600080fd5b50604051620033df380380620033df8339818101604052810190620000379190620002c2565b818181600090805190602001906200005192919062000075565b5080600190805190602001906200006a92919062000075565b5050505050620003ac565b828054620000839062000376565b90600052602060002090601f016020900481019282620000a75760008555620000f3565b82601f10620000c257805160ff1916838001178555620000f3565b82800160010185558215620000f3579182015b82811115620000f2578251825591602001919060010190620000d5565b5b50905062000102919062000106565b5090565b5b808211156200012157600081600090555060010162000107565b5090565b6000604051905090565b600080fd5b600080fd5b600080fd5b600080fd5b6000601f19601f8301169050919050565b7f4e487b7100000000000000000000000000000000000000000000000000000000600052604160045260246000fd5b6200018e8262000143565b810181811067ffffffffffffffff82111715620001b057620001af62000154565b5b80604052505050565b6000620001c562000125565b9050620001d3828262000183565b919050565b600067ffffffffffffffff821115620001f657620001f562000154565b5b620002018262000143565b9050602081019050919050565b60005b838110156200022e57808201518184015260208101905062000211565b838111156200023e576000848401525b50505050565b60006200025b6200025584620001d8565b620001b9565b9050828152602081018484840111156200027a57620002796200013e565b5b620002878482856200020e565b509392505050565b600082601f830112620002a757620002a662000139565b5b8151620002b984826020860162000244565b91505092915050565b60008060408385031215620002dc57620002db6200012f565b5b600083015167ffffffffffffffff811115620002fd57620002fc62000134565b5b6200030b858286016200028f565b925050602083015167ffffffffffffffff8111156200032f576200032e62000134565b5b6200033d858286016200028f565b9150509250929050565b7f4e487b7100000000000000000000000000000000000000000000000000000000600052602260045260246000fd5b600060028204905060018216806200038f57607f821691505b60208210811415620003a657620003a562000347565b5b50919050565b61302380620003bc6000396000f3fe608060405234801561001057600080fd5b50600436106101375760003560e01c806355f804b3116100b857806395d89b411161007c57806395d89b4114610348578063a144819414610366578063a22cb46514610382578063b88d4fde1461039e578063c87b56dd146103ba578063e985e9c5146103ea57610137565b806355f804b3146102925780636352211e146102ae5780636c0360eb146102de57806370a08231146102fc5780638832e6e31461032c57610137565b806323b872dd116100ff57806323b872dd146101f257806340c10f191461020e57806342842e0e1461022a57806342966c68146102465780634f558e791461026257610137565b806301ffc9a71461013c57806306fdde031461016c578063081812fc1461018a578063095ea7b3146101ba578063162094c4146101d6575b600080fd5b61015660048036038101906101519190611fb1565b61041a565b6040516101639190611ff9565b60405180910390f35b6101746104fc565b60405161018191906120ad565b60405180910390f35b6101a4600480360381019061019f9190612105565b61058e565b6040516101b19190612173565b60405180910390f35b6101d460048036038101906101cf91906121ba565b6105d4565b005b6101f060048036038101906101eb919061232f565b6106ec565b005b61020c6004803603810190610207919061238b565b6106fa565b005b610228600480360381019061022391906121ba565b61075a565b005b610244600480360381019061023f919061238b565b610768565b005b610260600480360381019061025b9190612105565b610788565b005b61027c60048036038101906102779190612105565b610794565b6040516102899190611ff9565b60405180910390f35b6102ac60048036038101906102a7919061243e565b6107a6565b005b6102c860048036038101906102c39190612105565b6107bc565b6040516102d59190612173565b60405180910390f35b6102e6610843565b6040516102f391906120ad565b60405180910390f35b6103166004803603810190610311919061248b565b610852565b60405161032391906124c7565b60405180910390f35b61034660048036038101906103419190612583565b61090a565b005b61035061091a565b60405161035d91906120ad565b60405180910390f35b610380600480360381019061037b91906121ba565b6109ac565b005b61039c6004803603810190610397919061261e565b6109ba565b005b6103b860048036038101906103b3919061265e565b6109d0565b005b6103d460048036038101906103cf9190612105565b610a32565b6040516103e191906120ad565b60405180910390f35b61040460048036038101906103ff91906126e1565b610b45565b6040516104119190611ff9565b60405180910390f35b60007f80ac58cd000000000000000000000000000000000000000000000000000000007bffffffffffffffffffffffffffffffffffffffffffffffffffffffff1916827bffffffffffffffffffffffffffffffffffffffffffffffffffffffff191614806104e557507f5b5e139f000000000000000000000000000000000000000000000000000000007bffffffffffffffffffffffffffffffffffffffffffffffffffffffff1916827bffffffffffffffffffffffffffffffffffffffffffffffffffffffff1916145b806104f557506104f482610bd9565b5b9050919050565b60606000805461050b90612750565b80601f016020809104026020016040519081016040528092919081815260200182805461053790612750565b80156105845780601f1061055957610100808354040283529160200191610584565b820191906000526020600020905b81548152906001019060200180831161056757829003601f168201915b5050505050905090565b600061059982610c43565b6004600083815260200190815260200160002060009054906101000a900473ffffffffffffffffffffffffffffffffffffffff169050919050565b60006105df826107bc565b90508073ffffffffffffffffffffffffffffffffffffffff168373ffffffffffffffffffffffffffffffffffffffff161415610650576040517f08c379a0000000000000000000000000000000000000000000000000000000008152600401610647906127f4565b60405180910390fd5b8073ffffffffffffffffffffffffffffffffffffffff1661066f610c8e565b73ffffffffffffffffffffffffffffffffffffffff16148061069e575061069d81610698610c8e565b610b45565b5b6106dd576040517f08c379a00000000000000000000000000000000000000000000000000000000081526004016106d490612886565b60405180910390fd5b6106e78383610c96565b505050565b6106f68282610d4f565b5050565b61070b610705610c8e565b82610dc3565b61074a576040517f08c379a000000000000000000000000000000000000000000000000000000000815260040161074190612918565b60405180910390fd5b610755838383610e58565b505050565b6107648282611152565b5050565b610783838383604051806020016040528060008152506109d0565b505050565b61079181611370565b50565b600061079f826113c3565b9050919050565b8181600791906107b7929190611ddc565b505050565b6000806107c883611404565b9050600073ffffffffffffffffffffffffffffffffffffffff168173ffffffffffffffffffffffffffffffffffffffff16141561083a576040517f08c379a000000000000000000000000000000000000000000000000000000000815260040161083190612984565b60405180910390fd5b80915050919050565b606061084d611441565b905090565b60008073ffffffffffffffffffffffffffffffffffffffff168273ffffffffffffffffffffffffffffffffffffffff1614156108c3576040517f08c379a00000000000000000000000000000000000000000000000000000000081526004016108ba90612a16565b60405180910390fd5b600360008373ffffffffffffffffffffffffffffffffffffffff1673ffffffffffffffffffffffffffffffffffffffff168152602001908152602001600020549050919050565b6109158383836114d3565b505050565b60606001805461092990612750565b80601f016020809104026020016040519081016040528092919081815260200182805461095590612750565b80156109a25780601f10610977576101008083540402835291602001916109a2565b820191906000526020600020905b81548152906001019060200180831161098557829003601f168201915b5050505050905090565b6109b6828261152e565b5050565b6109cc6109c5610c8e565b838361154c565b5050565b6109e16109db610c8e565b83610dc3565b610a20576040517f08c379a0000000000000000000000000000000000000000000000000000000008152600401610a1790612918565b60405180910390fd5b610a2c848484846116b9565b50505050565b6060610a3d82610c43565b6000600660008481526020019081526020016000208054610a5d90612750565b80601f0160208091040260200160405190810160405280929190818152602001828054610a8990612750565b8015610ad65780601f10610aab57610100808354040283529160200191610ad6565b820191906000526020600020905b815481529060010190602001808311610ab957829003601f168201915b505050505090506000610ae7611441565b9050600081511415610afd578192505050610b40565b600082511115610b32578082604051602001610b1a929190612a72565b60405160208183030381529060405292505050610b40565b610b3b84611715565b925050505b919050565b6000600560008473ffffffffffffffffffffffffffffffffffffffff1673ffffffffffffffffffffffffffffffffffffffff16815260200190815260200160002060008373ffffffffffffffffffffffffffffffffffffffff1673ffffffffffffffffffffffffffffffffffffffff16815260200190815260200160002060009054906101000a900460ff16905092915050565b60007f01ffc9a7000000000000000000000000000000000000000000000000000000007bffffffffffffffffffffffffffffffffffffffffffffffffffffffff1916827bffffffffffffffffffffffffffffffffffffffffffffffffffffffff1916149050919050565b610c4c816113c3565b610c8b576040517f08c379a0000000000000000000000000000000000000000000000000000000008152600401610c8290612984565b60405180910390fd5b50565b600033905090565b816004600083815260200190815260200160002060006101000a81548173ffffffffffffffffffffffffffffffffffffffff021916908373ffffffffffffffffffffffffffffffffffffffff160217905550808273ffffffffffffffffffffffffffffffffffffffff16610d09836107bc565b73ffffffffffffffffffffffffffffffffffffffff167f8c5be1e5ebec7d5bd14f71427d1e84f3dd0314c0f7b2291e5b200ac8c7c3b92560405160405180910390a45050565b610d58826113c3565b610d97576040517f08c379a0000000000000000000000000000000000000000000000000000000008152600401610d8e90612b08565b60405180910390fd5b80600660008481526020019081526020016000209080519060200190610dbe929190611e62565b505050565b600080610dcf836107bc565b90508073ffffffffffffffffffffffffffffffffffffffff168473ffffffffffffffffffffffffffffffffffffffff161480610e115750610e108185610b45565b5b80610e4f57508373ffffffffffffffffffffffffffffffffffffffff16610e378461058e565b73ffffffffffffffffffffffffffffffffffffffff16145b91505092915050565b8273ffffffffffffffffffffffffffffffffffffffff16610e78826107bc565b73ffffffffffffffffffffffffffffffffffffffff1614610ece576040517f08c379a0000000000000000000000000000000000000000000000000000000008152600401610ec590612b9a565b60405180910390fd5b600073ffffffffffffffffffffffffffffffffffffffff168273ffffffffffffffffffffffffffffffffffffffff161415610f3e576040517f08c379a0000000000000000000000000000000000000000000000000000000008152600401610f3590612c2c565b60405180910390fd5b610f4b838383600161177d565b8273ffffffffffffffffffffffffffffffffffffffff16610f6b826107bc565b73ffffffffffffffffffffffffffffffffffffffff1614610fc1576040517f08c379a0000000000000000000000000000000000000000000000000000000008152600401610fb890612b9a565b60405180910390fd5b6004600082815260200190815260200160002060006101000a81549073ffffffffffffffffffffffffffffffffffffffff02191690556001600360008573ffffffffffffffffffffffffffffffffffffffff1673ffffffffffffffffffffffffffffffffffffffff168152602001908152602001600020600082825403925050819055506001600360008473ffffffffffffffffffffffffffffffffffffffff1673ffffffffffffffffffffffffffffffffffffffff16815260200190815260200160002060008282540192505081905550816002600083815260200190815260200160002060006101000a81548173ffffffffffffffffffffffffffffffffffffffff021916908373ffffffffffffffffffffffffffffffffffffffff160217905550808273ffffffffffffffffffffffffffffffffffffffff168473ffffffffffffffffffffffffffffffffffffffff167fddf252ad1be2c89b69c2b068fc378daa952ba7f163c4a11628f55a4df523b3ef60405160405180910390a461114d83838360016118a3565b505050565b600073ffffffffffffffffffffffffffffffffffffffff168273ffffffffffffffffffffffffffffffffffffffff1614156111c2576040517f08c379a00000000000000000000000000000000000000000000000000000000081526004016111b990612c98565b60405180910390fd5b6111cb816113c3565b1561120b576040517f08c379a000000000000000000000000000000000000000000000000000000000815260040161120290612d04565b60405180910390fd5b61121960008383600161177d565b611222816113c3565b15611262576040517f08c379a000000000000000000000000000000000000000000000000000000000815260040161125990612d04565b60405180910390fd5b6001600360008473ffffffffffffffffffffffffffffffffffffffff1673ffffffffffffffffffffffffffffffffffffffff16815260200190815260200160002060008282540192505081905550816002600083815260200190815260200160002060006101000a81548173ffffffffffffffffffffffffffffffffffffffff021916908373ffffffffffffffffffffffffffffffffffffffff160217905550808273ffffffffffffffffffffffffffffffffffffffff16600073ffffffffffffffffffffffffffffffffffffffff167fddf252ad1be2c89b69c2b068fc378daa952ba7f163c4a11628f55a4df523b3ef60405160405180910390a461136c6000838360016118a3565b5050565b611379816118a9565b600060066000838152602001908152602001600020805461139990612750565b9050146113c0576006600082815260200190815260200160002060006113bf9190611ee8565b5b50565b60008073ffffffffffffffffffffffffffffffffffffffff166113e583611404565b73ffffffffffffffffffffffffffffffffffffffff1614159050919050565b60006002600083815260200190815260200160002060009054906101000a900473ffffffffffffffffffffffffffffffffffffffff169050919050565b60606007805461145090612750565b80601f016020809104026020016040519081016040528092919081815260200182805461147c90612750565b80156114c95780601f1061149e576101008083540402835291602001916114c9565b820191906000526020600020905b8154815290600101906020018083116114ac57829003601f168201915b5050505050905090565b6114dd8383611152565b6114ea60008484846119f7565b611529576040517f08c379a000000000000000000000000000000000000000000000000000000000815260040161152090612d96565b60405180910390fd5b505050565b6115488282604051806020016040528060008152506114d3565b5050565b8173ffffffffffffffffffffffffffffffffffffffff168373ffffffffffffffffffffffffffffffffffffffff1614156115bb576040517f08c379a00000000000000000000000000000000000000000000000000000000081526004016115b290612e02565b60405180910390fd5b80600560008573ffffffffffffffffffffffffffffffffffffffff1673ffffffffffffffffffffffffffffffffffffffff16815260200190815260200160002060008473ffffffffffffffffffffffffffffffffffffffff1673ffffffffffffffffffffffffffffffffffffffff16815260200190815260200160002060006101000a81548160ff0219169083151502179055508173ffffffffffffffffffffffffffffffffffffffff168373ffffffffffffffffffffffffffffffffffffffff167f17307eab39ab6107e8899845ad3d59bd9653f200f220920489ca2b5937696c31836040516116ac9190611ff9565b60405180910390a3505050565b6116c4848484610e58565b6116d0848484846119f7565b61170f576040517f08c379a000000000000000000000000000000000000000000000000000000000815260040161170690612d96565b60405180910390fd5b50505050565b606061172082610c43565b600061172a611441565b9050600081511161174a5760405180602001604052806000815250611775565b8061175484611b8e565b604051602001611765929190612a72565b6040516020818303038152906040525b915050919050565b600181111561189d57600073ffffffffffffffffffffffffffffffffffffffff168473ffffffffffffffffffffffffffffffffffffffff16146118115780600360008673ffffffffffffffffffffffffffffffffffffffff1673ffffffffffffffffffffffffffffffffffffffff16815260200190815260200160002060008282546118099190612e51565b925050819055505b600073ffffffffffffffffffffffffffffffffffffffff168373ffffffffffffffffffffffffffffffffffffffff161461189c5780600360008573ffffffffffffffffffffffffffffffffffffffff1673ffffffffffffffffffffffffffffffffffffffff16815260200190815260200160002060008282546118949190612e85565b925050819055505b5b50505050565b50505050565b60006118b4826107bc565b90506118c481600084600161177d565b6118cd826107bc565b90506004600083815260200190815260200160002060006101000a81549073ffffffffffffffffffffffffffffffffffffffff02191690556001600360008373ffffffffffffffffffffffffffffffffffffffff1673ffffffffffffffffffffffffffffffffffffffff168152602001908152602001600020600082825403925050819055506002600083815260200190815260200160002060006101000a81549073ffffffffffffffffffffffffffffffffffffffff021916905581600073ffffffffffffffffffffffffffffffffffffffff168273ffffffffffffffffffffffffffffffffffffffff167fddf252ad1be2c89b69c2b068fc378daa952ba7f163c4a11628f55a4df523b3ef60405160405180910390a46119f38160008460016118a3565b5050565b6000611a188473ffffffffffffffffffffffffffffffffffffffff16611c66565b15611b81578373ffffffffffffffffffffffffffffffffffffffff1663150b7a02611a41610c8e565b8786866040518563ffffffff1660e01b8152600401611a639493929190612f30565b602060405180830381600087803b158015611a7d57600080fd5b505af1925050508015611aae57506040513d601f19601f82011682018060405250810190611aab9190612f91565b60015b611b31573d8060008114611ade576040519150601f19603f3d011682016040523d82523d6000602084013e611ae3565b606091505b50600081511415611b29576040517f08c379a0000000000000000000000000000000000000000000000000000000008152600401611b2090612d96565b60405180910390fd5b805181602001fd5b63150b7a0260e01b7bffffffffffffffffffffffffffffffffffffffffffffffffffffffff1916817bffffffffffffffffffffffffffffffffffffffffffffffffffffffff191614915050611b86565b600190505b949350505050565b606060006001611b9d84611c89565b01905060008167ffffffffffffffff811115611bbc57611bbb612204565b5b6040519080825280601f01601f191660200182016040528015611bee5781602001600182028036833780820191505090505b509050600082602001820190505b600115611c5b578080600190039150507f3031323334353637383961626364656600000000000000000000000000000000600a86061a8153600a8581611c4557611c44612fbe565b5b0494506000851415611c5657611c5b565b611bfc565b819350505050919050565b6000808273ffffffffffffffffffffffffffffffffffffffff163b119050919050565b600080600090507a184f03e93ff9f4daa797ed6e38ed64bf6a1f0100000000000000008310611ce7577a184f03e93ff9f4daa797ed6e38ed64bf6a1f0100000000000000008381611cdd57611cdc612fbe565b5b0492506040810190505b6d04ee2d6d415b85acef81000000008310611d24576d04ee2d6d415b85acef81000000008381611d1a57611d19612fbe565b5b0492506020810190505b662386f26fc100008310611d5357662386f26fc100008381611d4957611d48612fbe565b5b0492506010810190505b6305f5e1008310611d7c576305f5e1008381611d7257611d71612fbe565b5b0492506008810190505b6127108310611da1576127108381611d9757611d96612fbe565b5b0492506004810190505b60648310611dc45760648381611dba57611db9612fbe565b5b0492506002810190505b600a8310611dd3576001810190505b80915050919050565b828054611de890612750565b90600052602060002090601f016020900481019282611e0a5760008555611e51565b82601f10611e2357803560ff1916838001178555611e51565b82800160010185558215611e51579182015b82811115611e50578235825591602001919060010190611e35565b5b509050611e5e9190611f28565b5090565b828054611e6e90612750565b90600052602060002090601f016020900481019282611e905760008555611ed7565b82601f10611ea957805160ff1916838001178555611ed7565b82800160010185558215611ed7579182015b82811115611ed6578251825591602001919060010190611ebb565b5b509050611ee49190611f28565b5090565b508054611ef490612750565b6000825580601f10611f065750611f25565b601f016020900490600052602060002090810190611f249190611f28565b5b50565b5b80821115611f41576000816000905550600101611f29565b5090565b6000604051905090565b600080fd5b600080fd5b60007fffffffff0000000000000000000000000000000000000000000000000000000082169050919050565b611f8e81611f59565b8114611f9957600080fd5b50565b600081359050611fab81611f85565b92915050565b600060208284031215611fc757611fc6611f4f565b5b6000611fd584828501611f9c565b91505092915050565b60008115159050919050565b611ff381611fde565b82525050565b600060208201905061200e6000830184611fea565b92915050565b600081519050919050565b600082825260208201905092915050565b60005b8381101561204e578082015181840152602081019050612033565b8381111561205d576000848401525b50505050565b6000601f19601f8301169050919050565b600061207f82612014565b612089818561201f565b9350612099818560208601612030565b6120a281612063565b840191505092915050565b600060208201905081810360008301526120c78184612074565b905092915050565b6000819050919050565b6120e2816120cf565b81146120ed57600080fd5b50565b6000813590506120ff816120d9565b92915050565b60006020828403121561211b5761211a611f4f565b5b6000612129848285016120f0565b91505092915050565b600073ffffffffffffffffffffffffffffffffffffffff82169050919050565b600061215d82612132565b9050919050565b61216d81612152565b82525050565b60006020820190506121886000830184612164565b92915050565b61219781612152565b81146121a257600080fd5b50565b6000813590506121b48161218e565b92915050565b600080604083850312156121d1576121d0611f4f565b5b60006121df858286016121a5565b92505060206121f0858286016120f0565b9150509250929050565b600080fd5b600080fd5b7f4e487b7100000000000000000000000000000000000000000000000000000000600052604160045260246000fd5b61223c82612063565b810181811067ffffffffffffffff8211171561225b5761225a612204565b5b80604052505050565b600061226e611f45565b905061227a8282612233565b919050565b600067ffffffffffffffff82111561229a57612299612204565b5b6122a382612063565b9050602081019050919050565b82818337600083830152505050565b60006122d26122cd8461227f565b612264565b9050828152602081018484840111156122ee576122ed6121ff565b5b6122f98482856122b0565b509392505050565b600082601f830112612316576123156121fa565b5b81356123268482602086016122bf565b91505092915050565b6000806040838503121561234657612345611f4f565b5b6000612354858286016120f0565b925050602083013567ffffffffffffffff81111561237557612374611f54565b5b61238185828601612301565b9150509250929050565b6000806000606084860312156123a4576123a3611f4f565b5b60006123b2868287016121a5565b93505060206123c3868287016121a5565b92505060406123d4868287016120f0565b9150509250925092565b600080fd5b600080fd5b60008083601f8401126123fe576123fd6121fa565b5b8235905067ffffffffffffffff81111561241b5761241a6123de565b5b602083019150836001820283011115612437576124366123e3565b5b9250929050565b6000806020838503121561245557612454611f4f565b5b600083013567ffffffffffffffff81111561247357612472611f54565b5b61247f858286016123e8565b92509250509250929050565b6000602082840312156124a1576124a0611f4f565b5b60006124af848285016121a5565b91505092915050565b6124c1816120cf565b82525050565b60006020820190506124dc60008301846124b8565b92915050565b600067ffffffffffffffff8211156124fd576124fc612204565b5b61250682612063565b9050602081019050919050565b6000612526612521846124e2565b612264565b905082815260208101848484011115612542576125416121ff565b5b61254d8482856122b0565b509392505050565b600082601f83011261256a576125696121fa565b5b813561257a848260208601612513565b91505092915050565b60008060006060848603121561259c5761259b611f4f565b5b60006125aa868287016121a5565b93505060206125bb868287016120f0565b925050604084013567ffffffffffffffff8111156125dc576125db611f54565b5b6125e886828701612555565b9150509250925092565b6125fb81611fde565b811461260657600080fd5b50565b600081359050612618816125f2565b92915050565b6000806040838503121561263557612634611f4f565b5b6000612643858286016121a5565b925050602061265485828601612609565b9150509250929050565b6000806000806080858703121561267857612677611f4f565b5b6000612686878288016121a5565b9450506020612697878288016121a5565b93505060406126a8878288016120f0565b925050606085013567ffffffffffffffff8111156126c9576126c8611f54565b5b6126d587828801612555565b91505092959194509250565b600080604083850312156126f8576126f7611f4f565b5b6000612706858286016121a5565b9250506020612717858286016121a5565b9150509250929050565b7f4e487b7100000000000000000000000000000000000000000000000000000000600052602260045260246000fd5b6000600282049050600182168061276857607f821691505b6020821081141561277c5761277b612721565b5b50919050565b7f4552433732313a20617070726f76616c20746f2063757272656e74206f776e6560008201527f7200000000000000000000000000000000000000000000000000000000000000602082015250565b60006127de60218361201f565b91506127e982612782565b604082019050919050565b6000602082019050818103600083015261280d816127d1565b9050919050565b7f4552433732313a20617070726f76652063616c6c6572206973206e6f7420746f60008201527f6b656e206f776e6572206f7220617070726f76656420666f7220616c6c000000602082015250565b6000612870603d8361201f565b915061287b82612814565b604082019050919050565b6000602082019050818103600083015261289f81612863565b9050919050565b7f4552433732313a2063616c6c6572206973206e6f7420746f6b656e206f776e6560008201527f72206f7220617070726f76656400000000000000000000000000000000000000602082015250565b6000612902602d8361201f565b915061290d826128a6565b604082019050919050565b60006020820190508181036000830152612931816128f5565b9050919050565b7f4552433732313a20696e76616c696420746f6b656e2049440000000000000000600082015250565b600061296e60188361201f565b915061297982612938565b602082019050919050565b6000602082019050818103600083015261299d81612961565b9050919050565b7f4552433732313a2061646472657373207a65726f206973206e6f74206120766160008201527f6c6964206f776e65720000000000000000000000000000000000000000000000602082015250565b6000612a0060298361201f565b9150612a0b826129a4565b604082019050919050565b60006020820190508181036000830152612a2f816129f3565b9050919050565b600081905092915050565b6000612a4c82612014565b612a568185612a36565b9350612a66818560208601612030565b80840191505092915050565b6000612a7e8285612a41565b9150612a8a8284612a41565b91508190509392505050565b7f45524337323155524953746f726167653a2055524920736574206f66206e6f6e60008201527f6578697374656e7420746f6b656e000000000000000000000000000000000000602082015250565b6000612af2602e8361201f565b9150612afd82612a96565b604082019050919050565b60006020820190508181036000830152612b2181612ae5565b9050919050565b7f4552433732313a207472616e736665722066726f6d20696e636f72726563742060008201527f6f776e6572000000000000000000000000000000000000000000000000000000602082015250565b6000612b8460258361201f565b9150612b8f82612b28565b604082019050919050565b60006020820190508181036000830152612bb381612b77565b9050919050565b7f4552433732313a207472616e7366657220746f20746865207a65726f2061646460008201527f7265737300000000000000000000000000000000000000000000000000000000602082015250565b6000612c1660248361201f565b9150612c2182612bba565b604082019050919050565b60006020820190508181036000830152612c4581612c09565b9050919050565b7f4552433732313a206d696e7420746f20746865207a65726f2061646472657373600082015250565b6000612c8260208361201f565b9150612c8d82612c4c565b602082019050919050565b60006020820190508181036000830152612cb181612c75565b9050919050565b7f4552433732313a20746f6b656e20616c7265616479206d696e74656400000000600082015250565b6000612cee601c8361201f565b9150612cf982612cb8565b602082019050919050565b60006020820190508181036000830152612d1d81612ce1565b9050919050565b7f4552433732313a207472616e7366657220746f206e6f6e20455243373231526560008201527f63656976657220696d706c656d656e7465720000000000000000000000000000602082015250565b6000612d8060328361201f565b9150612d8b82612d24565b604082019050919050565b60006020820190508181036000830152612daf81612d73565b9050919050565b7f4552433732313a20617070726f766520746f2063616c6c657200000000000000600082015250565b6000612dec60198361201f565b9150612df782612db6565b602082019050919050565b60006020820190508181036000830152612e1b81612ddf565b9050919050565b7f4e487b7100000000000000000000000000000000000000000000000000000000600052601160045260246000fd5b6000612e5c826120cf565b9150612e67836120cf565b925082821015612e7a57612e79612e22565b5b828203905092915050565b6000612e90826120cf565b9150612e9b836120cf565b9250827fffffffffffffffffffffffffffffffffffffffffffffffffffffffffffffffff03821115612ed057612ecf612e22565b5b828201905092915050565b600081519050919050565b600082825260208201905092915050565b6000612f0282612edb565b612f0c8185612ee6565b9350612f1c818560208601612030565b612f2581612063565b840191505092915050565b6000608082019050612f456000830187612164565b612f526020830186612164565b612f5f60408301856124b8565b8181036060830152612f718184612ef7565b905095945050505050565b600081519050612f8b81611f85565b92915050565b600060208284031215612fa757612fa6611f4f565b5b6000612fb584828501612f7c565b91505092915050565b7f4e487b7100000000000000000000000000000000000000000000000000000000600052601260045260246000fdfea2646970667358221220f14f333761a5471952d55c078ab783991fb499041a785623c9f2818e24d1518064736f6c63430008090033",
  "linkReferences": {},
  "deployedLinkReferences": {}
}