{
  "_format": "hh-sol-artifact-1",
  "contractName": "ERC721BurnableMock",
  "sourceName": "contracts/openzeppelin/mocks/ERC721BurnableMock.sol",
  "abi": [
    {
      "inputs": [
        {
          "internalType": "string",
          "name": "name",
          "type": "string"
        },
        {
          "internalType": "string",
          "name": "symbol",
          "type": "string"
        }
      ],
      "stateMutability": "nonpayable",
      "type": "constructor"
    },
    {
      "anonymous": false,
      "inputs": [
        {
          "indexed": true,
          "internalType": "address",
          "name": "owner",
          "type": "address"
        },
        {
          "indexed": true,
          "internalType": "address",
          "name": "approved",
          "type": "address"
        },
        {
          "indexed": true,
          "internalType": "uint256",
          "name": "tokenId",
          "type": "uint256"
        }
      ],
      "name": "Approval",
      "type": "event"
    },
    {
      "anonymous": false,
      "inputs": [
        {
          "indexed": true,
          "internalType": "address",
          "name": "owner",
          "type": "address"
        },
        {
          "indexed": true,
          "internalType": "address",
          "name": "operator",
          "type": "address"
        },
        {
          "indexed": false,
          "internalType": "bool",
          "name": "approved",
          "type": "bool"
        }
      ],
      "name": "ApprovalForAll",
      "type": "event"
    },
    {
      "anonymous": false,
      "inputs": [
        {
          "indexed": true,
          "internalType": "address",
          "name": "from",
          "type": "address"
        },
        {
          "indexed": true,
          "internalType": "address",
          "name": "to",
          "type": "address"
        },
        {
          "indexed": true,
          "internalType": "uint256",
          "name": "tokenId",
          "type": "uint256"
        }
      ],
      "name": "Transfer",
      "type": "event"
    },
    {
      "inputs": [
        {
          "internalType": "address",
          "name": "to",
          "type": "address"
        },
        {
          "internalType": "uint256",
          "name": "tokenId",
          "type": "uint256"
        }
      ],
      "name": "approve",
      "outputs": [],
      "stateMutability": "nonpayable",
      "type": "function"
    },
    {
      "inputs": [
        {
          "internalType": "address",
          "name": "owner",
          "type": "address"
        }
      ],
      "name": "balanceOf",
      "outputs": [
        {
          "internalType": "uint256",
          "name": "",
          "type": "uint256"
        }
      ],
      "stateMutability": "view",
      "type": "function"
    },
    {
      "inputs": [
        {
          "internalType": "uint256",
          "name": "tokenId",
          "type": "uint256"
        }
      ],
      "name": "burn",
      "outputs": [],
      "stateMutability": "nonpayable",
      "type": "function"
    },
    {
      "inputs": [
        {
          "internalType": "uint256",
          "name": "tokenId",
          "type": "uint256"
        }
      ],
      "name": "exists",
      "outputs": [
        {
          "internalType": "bool",
          "name": "",
          "type": "bool"
        }
      ],
      "stateMutability": "view",
      "type": "function"
    },
    {
      "inputs": [
        {
          "internalType": "uint256",
          "name": "tokenId",
          "type": "uint256"
        }
      ],
      "name": "getApproved",
      "outputs": [
        {
          "internalType": "address",
          "name": "",
          "type": "address"
        }
      ],
      "stateMutability": "view",
      "type": "function"
    },
    {
      "inputs": [
        {
          "internalType": "address",
          "name": "owner",
          "type": "address"
        },
        {
          "internalType": "address",
          "name": "operator",
          "type": "address"
        }
      ],
      "name": "isApprovedForAll",
      "outputs": [
        {
          "internalType": "bool",
          "name": "",
          "type": "bool"
        }
      ],
      "stateMutability": "view",
      "type": "function"
    },
    {
      "inputs": [
        {
          "internalType": "address",
          "name": "to",
          "type": "address"
        },
        {
          "internalType": "uint256",
          "name": "tokenId",
          "type": "uint256"
        }
      ],
      "name": "mint",
      "outputs": [],
      "stateMutability": "nonpayable",
      "type": "function"
    },
    {
      "inputs": [],
      "name": "name",
      "outputs": [
        {
          "internalType": "string",
          "name": "",
          "type": "string"
        }
      ],
      "stateMutability": "view",
      "type": "function"
    },
    {
      "inputs": [
        {
          "internalType": "uint256",
          "name": "tokenId",
          "type": "uint256"
        }
      ],
      "name": "ownerOf",
      "outputs": [
        {
          "internalType": "address",
          "name": "",
          "type": "address"
        }
      ],
      "stateMutability": "view",
      "type": "function"
    },
    {
      "inputs": [
        {
          "internalType": "address",
          "name": "to",
          "type": "address"
        },
        {
          "internalType": "uint256",
          "name": "tokenId",
          "type": "uint256"
        },
        {
          "internalType": "bytes",
          "name": "_data",
          "type": "bytes"
        }
      ],
      "name": "safeMint",
      "outputs": [],
      "stateMutability": "nonpayable",
      "type": "function"
    },
    {
      "inputs": [
        {
          "internalType": "address",
          "name": "to",
          "type": "address"
        },
        {
          "internalType": "uint256",
          "name": "tokenId",
          "type": "uint256"
        }
      ],
      "name": "safeMint",
      "outputs": [],
      "stateMutability": "nonpayable",
      "type": "function"
    },
    {
      "inputs": [
        {
          "internalType": "address",
          "name": "from",
          "type": "address"
        },
        {
          "internalType": "address",
          "name": "to",
          "type": "address"
        },
        {
          "internalType": "uint256",
          "name": "tokenId",
          "type": "uint256"
        }
      ],
      "name": "safeTransferFrom",
      "outputs": [],
      "stateMutability": "nonpayable",
      "type": "function"
    },
    {
      "inputs": [
        {
          "internalType": "address",
          "name": "from",
          "type": "address"
        },
        {
          "internalType": "address",
          "name": "to",
          "type": "address"
        },
        {
          "internalType": "uint256",
          "name": "tokenId",
          "type": "uint256"
        },
        {
          "internalType": "bytes",
          "name": "data",
          "type": "bytes"
        }
      ],
      "name": "safeTransferFrom",
      "outputs": [],
      "stateMutability": "nonpayable",
      "type": "function"
    },
    {
      "inputs": [
        {
          "internalType": "address",
          "name": "operator",
          "type": "address"
        },
        {
          "internalType": "bool",
          "name": "approved",
          "type": "bool"
        }
      ],
      "name": "setApprovalForAll",
      "outputs": [],
      "stateMutability": "nonpayable",
      "type": "function"
    },
    {
      "inputs": [
        {
          "internalType": "bytes4",
          "name": "interfaceId",
          "type": "bytes4"
        }
      ],
      "name": "supportsInterface",
      "outputs": [
        {
          "internalType": "bool",
          "name": "",
          "type": "bool"
        }
      ],
      "stateMutability": "view",
      "type": "function"
    },
    {
      "inputs": [],
      "name": "symbol",
      "outputs": [
        {
          "internalType": "string",
          "name": "",
          "type": "string"
        }
      ],
      "stateMutability": "view",
      "type": "function"
    },
    {
      "inputs": [
        {
          "internalType": "uint256",
          "name": "tokenId",
          "type": "uint256"
        }
      ],
      "name": "tokenURI",
      "outputs": [
        {
          "internalType": "string",
          "name": "",
          "type": "string"
        }
      ],
      "stateMutability": "view",
      "type": "function"
    },
    {
      "inputs": [
        {
          "internalType": "address",
          "name": "from",
          "type": "address"
        },
        {
          "internalType": "address",
          "name": "to",
          "type": "address"
        },
        {
          "internalType": "uint256",
          "name": "tokenId",
          "type": "uint256"
        }
      ],
      "name": "transferFrom",
      "outputs": [],
      "stateMutability": "nonpayable",
      "type": "function"
    }
  ],
  "bytecode": "0x60806040523480156200001157600080fd5b5060405162002d8b38038062002d8b8339818101604052810190620000379190620002c2565b818181600090805190602001906200005192919062000075565b5080600190805190602001906200006a92919062000075565b5050505050620003ac565b828054620000839062000376565b90600052602060002090601f016020900481019282620000a75760008555620000f3565b82601f10620000c257805160ff1916838001178555620000f3565b82800160010185558215620000f3579182015b82811115620000f2578251825591602001919060010190620000d5565b5b50905062000102919062000106565b5090565b5b808211156200012157600081600090555060010162000107565b5090565b6000604051905090565b600080fd5b600080fd5b600080fd5b600080fd5b6000601f19601f8301169050919050565b7f4e487b7100000000000000000000000000000000000000000000000000000000600052604160045260246000fd5b6200018e8262000143565b810181811067ffffffffffffffff82111715620001b057620001af62000154565b5b80604052505050565b6000620001c562000125565b9050620001d3828262000183565b919050565b600067ffffffffffffffff821115620001f657620001f562000154565b5b620002018262000143565b9050602081019050919050565b60005b838110156200022e57808201518184015260208101905062000211565b838111156200023e576000848401525b50505050565b60006200025b6200025584620001d8565b620001b9565b9050828152602081018484840111156200027a57620002796200013e565b5b620002878482856200020e565b509392505050565b600082601f830112620002a757620002a662000139565b5b8151620002b984826020860162000244565b91505092915050565b60008060408385031215620002dc57620002db6200012f565b5b600083015167ffffffffffffffff811115620002fd57620002fc62000134565b5b6200030b858286016200028f565b925050602083015167ffffffffffffffff8111156200032f576200032e62000134565b5b6200033d858286016200028f565b9150509250929050565b7f4e487b7100000000000000000000000000000000000000000000000000000000600052602260045260246000fd5b600060028204905060018216806200038f57607f821691505b60208210811415620003a657620003a562000347565b5b50919050565b6129cf80620003bc6000396000f3fe608060405234801561001057600080fd5b50600436106101165760003560e01c80636352211e116100a2578063a144819411610071578063a1448194146102ef578063a22cb4651461030b578063b88d4fde14610327578063c87b56dd14610343578063e985e9c51461037357610116565b80636352211e1461025557806370a08231146102855780638832e6e3146102b557806395d89b41146102d157610116565b806323b872dd116100e957806323b872dd146101b557806340c10f19146101d157806342842e0e146101ed57806342966c68146102095780634f558e791461022557610116565b806301ffc9a71461011b57806306fdde031461014b578063081812fc14610169578063095ea7b314610199575b600080fd5b61013560048036038101906101309190611b99565b6103a3565b6040516101429190611be1565b60405180910390f35b610153610485565b6040516101609190611c95565b60405180910390f35b610183600480360381019061017e9190611ced565b610517565b6040516101909190611d5b565b60405180910390f35b6101b360048036038101906101ae9190611da2565b61055d565b005b6101cf60048036038101906101ca9190611de2565b610675565b005b6101eb60048036038101906101e69190611da2565b6106d5565b005b61020760048036038101906102029190611de2565b6106e3565b005b610223600480360381019061021e9190611ced565b610703565b005b61023f600480360381019061023a9190611ced565b61075f565b60405161024c9190611be1565b60405180910390f35b61026f600480360381019061026a9190611ced565b610771565b60405161027c9190611d5b565b60405180910390f35b61029f600480360381019061029a9190611e35565b6107f8565b6040516102ac9190611e71565b60405180910390f35b6102cf60048036038101906102ca9190611fc1565b6108b0565b005b6102d96108c0565b6040516102e69190611c95565b60405180910390f35b61030960048036038101906103049190611da2565b610952565b005b6103256004803603810190610320919061205c565b610960565b005b610341600480360381019061033c919061209c565b610976565b005b61035d60048036038101906103589190611ced565b6109d8565b60405161036a9190611c95565b60405180910390f35b61038d6004803603810190610388919061211f565b610a40565b60405161039a9190611be1565b60405180910390f35b60007f80ac58cd000000000000000000000000000000000000000000000000000000007bffffffffffffffffffffffffffffffffffffffffffffffffffffffff1916827bffffffffffffffffffffffffffffffffffffffffffffffffffffffff1916148061046e57507f5b5e139f000000000000000000000000000000000000000000000000000000007bffffffffffffffffffffffffffffffffffffffffffffffffffffffff1916827bffffffffffffffffffffffffffffffffffffffffffffffffffffffff1916145b8061047e575061047d82610ad4565b5b9050919050565b6060600080546104949061218e565b80601f01602080910402602001604051908101604052809291908181526020018280546104c09061218e565b801561050d5780601f106104e25761010080835404028352916020019161050d565b820191906000526020600020905b8154815290600101906020018083116104f057829003601f168201915b5050505050905090565b600061052282610b3e565b6004600083815260200190815260200160002060009054906101000a900473ffffffffffffffffffffffffffffffffffffffff169050919050565b600061056882610771565b90508073ffffffffffffffffffffffffffffffffffffffff168373ffffffffffffffffffffffffffffffffffffffff1614156105d9576040517f08c379a00000000000000000000000000000000000000000000000000000000081526004016105d090612232565b60405180910390fd5b8073ffffffffffffffffffffffffffffffffffffffff166105f8610b89565b73ffffffffffffffffffffffffffffffffffffffff161480610627575061062681610621610b89565b610a40565b5b610666576040517f08c379a000000000000000000000000000000000000000000000000000000000815260040161065d906122c4565b60405180910390fd5b6106708383610b91565b505050565b610686610680610b89565b82610c4a565b6106c5576040517f08c379a00000000000000000000000000000000000000000000000000000000081526004016106bc90612356565b60405180910390fd5b6106d0838383610cdf565b505050565b6106df8282610fd9565b5050565b6106fe83838360405180602001604052806000815250610976565b505050565b61071461070e610b89565b82610c4a565b610753576040517f08c379a000000000000000000000000000000000000000000000000000000000815260040161074a90612356565b60405180910390fd5b61075c816111f7565b50565b600061076a82611345565b9050919050565b60008061077d83611386565b9050600073ffffffffffffffffffffffffffffffffffffffff168173ffffffffffffffffffffffffffffffffffffffff1614156107ef576040517f08c379a00000000000000000000000000000000000000000000000000000000081526004016107e6906123c2565b60405180910390fd5b80915050919050565b60008073ffffffffffffffffffffffffffffffffffffffff168273ffffffffffffffffffffffffffffffffffffffff161415610869576040517f08c379a000000000000000000000000000000000000000000000000000000000815260040161086090612454565b60405180910390fd5b600360008373ffffffffffffffffffffffffffffffffffffffff1673ffffffffffffffffffffffffffffffffffffffff168152602001908152602001600020549050919050565b6108bb8383836113c3565b505050565b6060600180546108cf9061218e565b80601f01602080910402602001604051908101604052809291908181526020018280546108fb9061218e565b80156109485780601f1061091d57610100808354040283529160200191610948565b820191906000526020600020905b81548152906001019060200180831161092b57829003601f168201915b5050505050905090565b61095c828261141e565b5050565b61097261096b610b89565b838361143c565b5050565b610987610981610b89565b83610c4a565b6109c6576040517f08c379a00000000000000000000000000000000000000000000000000000000081526004016109bd90612356565b60405180910390fd5b6109d2848484846115a9565b50505050565b60606109e382610b3e565b60006109ed611605565b90506000815111610a0d5760405180602001604052806000815250610a38565b80610a178461161c565b604051602001610a289291906124b0565b6040516020818303038152906040525b915050919050565b6000600560008473ffffffffffffffffffffffffffffffffffffffff1673ffffffffffffffffffffffffffffffffffffffff16815260200190815260200160002060008373ffffffffffffffffffffffffffffffffffffffff1673ffffffffffffffffffffffffffffffffffffffff16815260200190815260200160002060009054906101000a900460ff16905092915050565b60007f01ffc9a7000000000000000000000000000000000000000000000000000000007bffffffffffffffffffffffffffffffffffffffffffffffffffffffff1916827bffffffffffffffffffffffffffffffffffffffffffffffffffffffff1916149050919050565b610b4781611345565b610b86576040517f08c379a0000000000000000000000000000000000000000000000000000000008152600401610b7d906123c2565b60405180910390fd5b50565b600033905090565b816004600083815260200190815260200160002060006101000a81548173ffffffffffffffffffffffffffffffffffffffff021916908373ffffffffffffffffffffffffffffffffffffffff160217905550808273ffffffffffffffffffffffffffffffffffffffff16610c0483610771565b73ffffffffffffffffffffffffffffffffffffffff167f8c5be1e5ebec7d5bd14f71427d1e84f3dd0314c0f7b2291e5b200ac8c7c3b92560405160405180910390a45050565b600080610c5683610771565b90508073ffffffffffffffffffffffffffffffffffffffff168473ffffffffffffffffffffffffffffffffffffffff161480610c985750610c978185610a40565b5b80610cd657508373ffffffffffffffffffffffffffffffffffffffff16610cbe84610517565b73ffffffffffffffffffffffffffffffffffffffff16145b91505092915050565b8273ffffffffffffffffffffffffffffffffffffffff16610cff82610771565b73ffffffffffffffffffffffffffffffffffffffff1614610d55576040517f08c379a0000000000000000000000000000000000000000000000000000000008152600401610d4c90612546565b60405180910390fd5b600073ffffffffffffffffffffffffffffffffffffffff168273ffffffffffffffffffffffffffffffffffffffff161415610dc5576040517f08c379a0000000000000000000000000000000000000000000000000000000008152600401610dbc906125d8565b60405180910390fd5b610dd283838360016116f4565b8273ffffffffffffffffffffffffffffffffffffffff16610df282610771565b73ffffffffffffffffffffffffffffffffffffffff1614610e48576040517f08c379a0000000000000000000000000000000000000000000000000000000008152600401610e3f90612546565b60405180910390fd5b6004600082815260200190815260200160002060006101000a81549073ffffffffffffffffffffffffffffffffffffffff02191690556001600360008573ffffffffffffffffffffffffffffffffffffffff1673ffffffffffffffffffffffffffffffffffffffff168152602001908152602001600020600082825403925050819055506001600360008473ffffffffffffffffffffffffffffffffffffffff1673ffffffffffffffffffffffffffffffffffffffff16815260200190815260200160002060008282540192505081905550816002600083815260200190815260200160002060006101000a81548173ffffffffffffffffffffffffffffffffffffffff021916908373ffffffffffffffffffffffffffffffffffffffff160217905550808273ffffffffffffffffffffffffffffffffffffffff168473ffffffffffffffffffffffffffffffffffffffff167fddf252ad1be2c89b69c2b068fc378daa952ba7f163c4a11628f55a4df523b3ef60405160405180910390a4610fd4838383600161181a565b505050565b600073ffffffffffffffffffffffffffffffffffffffff168273ffffffffffffffffffffffffffffffffffffffff161415611049576040517f08c379a000000000000000000000000000000000000000000000000000000000815260040161104090612644565b60405180910390fd5b61105281611345565b15611092576040517f08c379a0000000000000000000000000000000000000000000000000000000008152600401611089906126b0565b60405180910390fd5b6110a06000838360016116f4565b6110a981611345565b156110e9576040517f08c379a00000000000000000000000000000000000000000000000000000000081526004016110e0906126b0565b60405180910390fd5b6001600360008473ffffffffffffffffffffffffffffffffffffffff1673ffffffffffffffffffffffffffffffffffffffff16815260200190815260200160002060008282540192505081905550816002600083815260200190815260200160002060006101000a81548173ffffffffffffffffffffffffffffffffffffffff021916908373ffffffffffffffffffffffffffffffffffffffff160217905550808273ffffffffffffffffffffffffffffffffffffffff16600073ffffffffffffffffffffffffffffffffffffffff167fddf252ad1be2c89b69c2b068fc378daa952ba7f163c4a11628f55a4df523b3ef60405160405180910390a46111f360008383600161181a565b5050565b600061120282610771565b90506112128160008460016116f4565b61121b82610771565b90506004600083815260200190815260200160002060006101000a81549073ffffffffffffffffffffffffffffffffffffffff02191690556001600360008373ffffffffffffffffffffffffffffffffffffffff1673ffffffffffffffffffffffffffffffffffffffff168152602001908152602001600020600082825403925050819055506002600083815260200190815260200160002060006101000a81549073ffffffffffffffffffffffffffffffffffffffff021916905581600073ffffffffffffffffffffffffffffffffffffffff168273ffffffffffffffffffffffffffffffffffffffff167fddf252ad1be2c89b69c2b068fc378daa952ba7f163c4a11628f55a4df523b3ef60405160405180910390a461134181600084600161181a565b5050565b60008073ffffffffffffffffffffffffffffffffffffffff1661136783611386565b73ffffffffffffffffffffffffffffffffffffffff1614159050919050565b60006002600083815260200190815260200160002060009054906101000a900473ffffffffffffffffffffffffffffffffffffffff169050919050565b6113cd8383610fd9565b6113da6000848484611820565b611419576040517f08c379a000000000000000000000000000000000000000000000000000000000815260040161141090612742565b60405180910390fd5b505050565b6114388282604051806020016040528060008152506113c3565b5050565b8173ffffffffffffffffffffffffffffffffffffffff168373ffffffffffffffffffffffffffffffffffffffff1614156114ab576040517f08c379a00000000000000000000000000000000000000000000000000000000081526004016114a2906127ae565b60405180910390fd5b80600560008573ffffffffffffffffffffffffffffffffffffffff1673ffffffffffffffffffffffffffffffffffffffff16815260200190815260200160002060008473ffffffffffffffffffffffffffffffffffffffff1673ffffffffffffffffffffffffffffffffffffffff16815260200190815260200160002060006101000a81548160ff0219169083151502179055508173ffffffffffffffffffffffffffffffffffffffff168373ffffffffffffffffffffffffffffffffffffffff167f17307eab39ab6107e8899845ad3d59bd9653f200f220920489ca2b5937696c318360405161159c9190611be1565b60405180910390a3505050565b6115b4848484610cdf565b6115c084848484611820565b6115ff576040517f08c379a00000000000000000000000000000000000000000000000000000000081526004016115f690612742565b60405180910390fd5b50505050565b606060405180602001604052806000815250905090565b60606000600161162b846119b7565b01905060008167ffffffffffffffff81111561164a57611649611e96565b5b6040519080825280601f01601f19166020018201604052801561167c5781602001600182028036833780820191505090505b509050600082602001820190505b6001156116e9578080600190039150507f3031323334353637383961626364656600000000000000000000000000000000600a86061a8153600a85816116d3576116d26127ce565b5b04945060008514156116e4576116e9565b61168a565b819350505050919050565b600181111561181457600073ffffffffffffffffffffffffffffffffffffffff168473ffffffffffffffffffffffffffffffffffffffff16146117885780600360008673ffffffffffffffffffffffffffffffffffffffff1673ffffffffffffffffffffffffffffffffffffffff1681526020019081526020016000206000828254611780919061282c565b925050819055505b600073ffffffffffffffffffffffffffffffffffffffff168373ffffffffffffffffffffffffffffffffffffffff16146118135780600360008573ffffffffffffffffffffffffffffffffffffffff1673ffffffffffffffffffffffffffffffffffffffff168152602001908152602001600020600082825461180b9190612860565b925050819055505b5b50505050565b50505050565b60006118418473ffffffffffffffffffffffffffffffffffffffff16611b0a565b156119aa578373ffffffffffffffffffffffffffffffffffffffff1663150b7a0261186a610b89565b8786866040518563ffffffff1660e01b815260040161188c949392919061290b565b602060405180830381600087803b1580156118a657600080fd5b505af19250505080156118d757506040513d601f19601f820116820180604052508101906118d4919061296c565b60015b61195a573d8060008114611907576040519150601f19603f3d011682016040523d82523d6000602084013e61190c565b606091505b50600081511415611952576040517f08c379a000000000000000000000000000000000000000000000000000000000815260040161194990612742565b60405180910390fd5b805181602001fd5b63150b7a0260e01b7bffffffffffffffffffffffffffffffffffffffffffffffffffffffff1916817bffffffffffffffffffffffffffffffffffffffffffffffffffffffff1916149150506119af565b600190505b949350505050565b600080600090507a184f03e93ff9f4daa797ed6e38ed64bf6a1f0100000000000000008310611a15577a184f03e93ff9f4daa797ed6e38ed64bf6a1f0100000000000000008381611a0b57611a0a6127ce565b5b0492506040810190505b6d04ee2d6d415b85acef81000000008310611a52576d04ee2d6d415b85acef81000000008381611a4857611a476127ce565b5b0492506020810190505b662386f26fc100008310611a8157662386f26fc100008381611a7757611a766127ce565b5b0492506010810190505b6305f5e1008310611aaa576305f5e1008381611aa057611a9f6127ce565b5b0492506008810190505b6127108310611acf576127108381611ac557611ac46127ce565b5b0492506004810190505b60648310611af25760648381611ae857611ae76127ce565b5b0492506002810190505b600a8310611b01576001810190505b80915050919050565b6000808273ffffffffffffffffffffffffffffffffffffffff163b119050919050565b6000604051905090565b600080fd5b600080fd5b60007fffffffff0000000000000000000000000000000000000000000000000000000082169050919050565b611b7681611b41565b8114611b8157600080fd5b50565b600081359050611b9381611b6d565b92915050565b600060208284031215611baf57611bae611b37565b5b6000611bbd84828501611b84565b91505092915050565b60008115159050919050565b611bdb81611bc6565b82525050565b6000602082019050611bf66000830184611bd2565b92915050565b600081519050919050565b600082825260208201905092915050565b60005b83811015611c36578082015181840152602081019050611c1b565b83811115611c45576000848401525b50505050565b6000601f19601f8301169050919050565b6000611c6782611bfc565b611c718185611c07565b9350611c81818560208601611c18565b611c8a81611c4b565b840191505092915050565b60006020820190508181036000830152611caf8184611c5c565b905092915050565b6000819050919050565b611cca81611cb7565b8114611cd557600080fd5b50565b600081359050611ce781611cc1565b92915050565b600060208284031215611d0357611d02611b37565b5b6000611d1184828501611cd8565b91505092915050565b600073ffffffffffffffffffffffffffffffffffffffff82169050919050565b6000611d4582611d1a565b9050919050565b611d5581611d3a565b82525050565b6000602082019050611d706000830184611d4c565b92915050565b611d7f81611d3a565b8114611d8a57600080fd5b50565b600081359050611d9c81611d76565b92915050565b60008060408385031215611db957611db8611b37565b5b6000611dc785828601611d8d565b9250506020611dd885828601611cd8565b9150509250929050565b600080600060608486031215611dfb57611dfa611b37565b5b6000611e0986828701611d8d565b9350506020611e1a86828701611d8d565b9250506040611e2b86828701611cd8565b9150509250925092565b600060208284031215611e4b57611e4a611b37565b5b6000611e5984828501611d8d565b91505092915050565b611e6b81611cb7565b82525050565b6000602082019050611e866000830184611e62565b92915050565b600080fd5b600080fd5b7f4e487b7100000000000000000000000000000000000000000000000000000000600052604160045260246000fd5b611ece82611c4b565b810181811067ffffffffffffffff82111715611eed57611eec611e96565b5b80604052505050565b6000611f00611b2d565b9050611f0c8282611ec5565b919050565b600067ffffffffffffffff821115611f2c57611f2b611e96565b5b611f3582611c4b565b9050602081019050919050565b82818337600083830152505050565b6000611f64611f5f84611f11565b611ef6565b905082815260208101848484011115611f8057611f7f611e91565b5b611f8b848285611f42565b509392505050565b600082601f830112611fa857611fa7611e8c565b5b8135611fb8848260208601611f51565b91505092915050565b600080600060608486031215611fda57611fd9611b37565b5b6000611fe886828701611d8d565b9350506020611ff986828701611cd8565b925050604084013567ffffffffffffffff81111561201a57612019611b3c565b5b61202686828701611f93565b9150509250925092565b61203981611bc6565b811461204457600080fd5b50565b60008135905061205681612030565b92915050565b6000806040838503121561207357612072611b37565b5b600061208185828601611d8d565b925050602061209285828601612047565b9150509250929050565b600080600080608085870312156120b6576120b5611b37565b5b60006120c487828801611d8d565b94505060206120d587828801611d8d565b93505060406120e687828801611cd8565b925050606085013567ffffffffffffffff81111561210757612106611b3c565b5b61211387828801611f93565b91505092959194509250565b6000806040838503121561213657612135611b37565b5b600061214485828601611d8d565b925050602061215585828601611d8d565b9150509250929050565b7f4e487b7100000000000000000000000000000000000000000000000000000000600052602260045260246000fd5b600060028204905060018216806121a657607f821691505b602082108114156121ba576121b961215f565b5b50919050565b7f4552433732313a20617070726f76616c20746f2063757272656e74206f776e6560008201527f7200000000000000000000000000000000000000000000000000000000000000602082015250565b600061221c602183611c07565b9150612227826121c0565b604082019050919050565b6000602082019050818103600083015261224b8161220f565b9050919050565b7f4552433732313a20617070726f76652063616c6c6572206973206e6f7420746f60008201527f6b656e206f776e6572206f7220617070726f76656420666f7220616c6c000000602082015250565b60006122ae603d83611c07565b91506122b982612252565b604082019050919050565b600060208201905081810360008301526122dd816122a1565b9050919050565b7f4552433732313a2063616c6c6572206973206e6f7420746f6b656e206f776e6560008201527f72206f7220617070726f76656400000000000000000000000000000000000000602082015250565b6000612340602d83611c07565b915061234b826122e4565b604082019050919050565b6000602082019050818103600083015261236f81612333565b9050919050565b7f4552433732313a20696e76616c696420746f6b656e2049440000000000000000600082015250565b60006123ac601883611c07565b91506123b782612376565b602082019050919050565b600060208201905081810360008301526123db8161239f565b9050919050565b7f4552433732313a2061646472657373207a65726f206973206e6f74206120766160008201527f6c6964206f776e65720000000000000000000000000000000000000000000000602082015250565b600061243e602983611c07565b9150612449826123e2565b604082019050919050565b6000602082019050818103600083015261246d81612431565b9050919050565b600081905092915050565b600061248a82611bfc565b6124948185612474565b93506124a4818560208601611c18565b80840191505092915050565b60006124bc828561247f565b91506124c8828461247f565b91508190509392505050565b7f4552433732313a207472616e736665722066726f6d20696e636f72726563742060008201527f6f776e6572000000000000000000000000000000000000000000000000000000602082015250565b6000612530602583611c07565b915061253b826124d4565b604082019050919050565b6000602082019050818103600083015261255f81612523565b9050919050565b7f4552433732313a207472616e7366657220746f20746865207a65726f2061646460008201527f7265737300000000000000000000000000000000000000000000000000000000602082015250565b60006125c2602483611c07565b91506125cd82612566565b604082019050919050565b600060208201905081810360008301526125f1816125b5565b9050919050565b7f4552433732313a206d696e7420746f20746865207a65726f2061646472657373600082015250565b600061262e602083611c07565b9150612639826125f8565b602082019050919050565b6000602082019050818103600083015261265d81612621565b9050919050565b7f4552433732313a20746f6b656e20616c7265616479206d696e74656400000000600082015250565b600061269a601c83611c07565b91506126a582612664565b602082019050919050565b600060208201905081810360008301526126c98161268d565b9050919050565b7f4552433732313a207472616e7366657220746f206e6f6e20455243373231526560008201527f63656976657220696d706c656d656e7465720000000000000000000000000000602082015250565b600061272c603283611c07565b9150612737826126d0565b604082019050919050565b6000602082019050818103600083015261275b8161271f565b9050919050565b7f4552433732313a20617070726f766520746f2063616c6c657200000000000000600082015250565b6000612798601983611c07565b91506127a382612762565b602082019050919050565b600060208201905081810360008301526127c78161278b565b9050919050565b7f4e487b7100000000000000000000000000000000000000000000000000000000600052601260045260246000fd5b7f4e487b7100000000000000000000000000000000000000000000000000000000600052601160045260246000fd5b600061283782611cb7565b915061284283611cb7565b925082821015612855576128546127fd565b5b828203905092915050565b600061286b82611cb7565b915061287683611cb7565b9250827fffffffffffffffffffffffffffffffffffffffffffffffffffffffffffffffff038211156128ab576128aa6127fd565b5b828201905092915050565b600081519050919050565b600082825260208201905092915050565b60006128dd826128b6565b6128e781856128c1565b93506128f7818560208601611c18565b61290081611c4b565b840191505092915050565b60006080820190506129206000830187611d4c565b61292d6020830186611d4c565b61293a6040830185611e62565b818103606083015261294c81846128d2565b905095945050505050565b60008151905061296681611b6d565b92915050565b60006020828403121561298257612981611b37565b5b600061299084828501612957565b9150509291505056fea264697066735822122091bb2d22d84bf4dcf7d041b010a09ab383b63373004cb707ad84c053d3ec08e964736f6c63430008090033",
  "linkReferences": {},
  "deployedLinkReferences": {}
}