{
  "_format": "hh-sol-artifact-1",
  "contractName": "MathMock",
  "sourceName": "contracts/openzeppelin/mocks/MathMock.sol",
  "abi": [
    {
      "inputs": [
        {
          "internalType": "uint256",
          "name": "a",
          "type": "uint256"
        },
        {
          "internalType": "uint256",
          "name": "b",
          "type": "uint256"
        }
      ],
      "name": "average",
      "outputs": [
        {
          "internalType": "uint256",
          "name": "",
          "type": "uint256"
        }
      ],
      "stateMutability": "pure",
      "type": "function"
    },
    {
      "inputs": [
        {
          "internalType": "uint256",
          "name": "a",
          "type": "uint256"
        },
        {
          "internalType": "uint256",
          "name": "b",
          "type": "uint256"
        }
      ],
      "name": "ceilDiv",
      "outputs": [
        {
          "internalType": "uint256",
          "name": "",
          "type": "uint256"
        }
      ],
      "stateMutability": "pure",
      "type": "function"
    },
    {
      "inputs": [
        {
          "internalType": "uint256",
          "name": "a",
          "type": "uint256"
        },
        {
          "internalType": "enum Math.Rounding",
          "name": "direction",
          "type": "uint8"
        }
      ],
      "name": "log10",
      "outputs": [
        {
          "internalType": "uint256",
          "name": "",
          "type": "uint256"
        }
      ],
      "stateMutability": "pure",
      "type": "function"
    },
    {
      "inputs": [
        {
          "internalType": "uint256",
          "name": "a",
          "type": "uint256"
        },
        {
          "internalType": "enum Math.Rounding",
          "name": "direction",
          "type": "uint8"
        }
      ],
      "name": "log2",
      "outputs": [
        {
          "internalType": "uint256",
          "name": "",
          "type": "uint256"
        }
      ],
      "stateMutability": "pure",
      "type": "function"
    },
    {
      "inputs": [
        {
          "internalType": "uint256",
          "name": "a",
          "type": "uint256"
        },
        {
          "internalType": "enum Math.Rounding",
          "name": "direction",
          "type": "uint8"
        }
      ],
      "name": "log256",
      "outputs": [
        {
          "internalType": "uint256",
          "name": "",
          "type": "uint256"
        }
      ],
      "stateMutability": "pure",
      "type": "function"
    },
    {
      "inputs": [
        {
          "internalType": "uint256",
          "name": "a",
          "type": "uint256"
        },
        {
          "internalType": "uint256",
          "name": "b",
          "type": "uint256"
        }
      ],
      "name": "max",
      "outputs": [
        {
          "internalType": "uint256",
          "name": "",
          "type": "uint256"
        }
      ],
      "stateMutability": "pure",
      "type": "function"
    },
    {
      "inputs": [
        {
          "internalType": "uint256",
          "name": "a",
          "type": "uint256"
        },
        {
          "internalType": "uint256",
          "name": "b",
          "type": "uint256"
        }
      ],
      "name": "min",
      "outputs": [
        {
          "internalType": "uint256",
          "name": "",
          "type": "uint256"
        }
      ],
      "stateMutability": "pure",
      "type": "function"
    },
    {
      "inputs": [
        {
          "internalType": "uint256",
          "name": "a",
          "type": "uint256"
        },
        {
          "internalType": "uint256",
          "name": "b",
          "type": "uint256"
        },
        {
          "internalType": "uint256",
          "name": "denominator",
          "type": "uint256"
        },
        {
          "internalType": "enum Math.Rounding",
          "name": "direction",
          "type": "uint8"
        }
      ],
      "name": "mulDiv",
      "outputs": [
        {
          "internalType": "uint256",
          "name": "",
          "type": "uint256"
        }
      ],
      "stateMutability": "pure",
      "type": "function"
    },
    {
      "inputs": [
        {
          "internalType": "uint256",
          "name": "a",
          "type": "uint256"
        },
        {
          "internalType": "enum Math.Rounding",
          "name": "direction",
          "type": "uint8"
        }
      ],
      "name": "sqrt",
      "outputs": [
        {
          "internalType": "uint256",
          "name": "",
          "type": "uint256"
        }
      ],
      "stateMutability": "pure",
      "type": "function"
    }
  ],
  "bytecode": "0x608060405234801561001057600080fd5b50610d19806100206000396000f3fe608060405234801561001057600080fd5b50600436106100935760003560e01c80636d5433e6116100665780636d5433e6146101585780637ae2b5c7146101885780639cb35327146101b8578063ae2affdd146101e8578063efbb69311461021857610093565b80630b4e545d146100985780631a134248146100c85780632b7423ab146100f85780632bc5522214610128575b600080fd5b6100b260048036038101906100ad9190610a8a565b610248565b6040516100bf9190610ad9565b60405180910390f35b6100e260048036038101906100dd9190610af4565b61025c565b6040516100ef9190610ad9565b60405180910390f35b610112600480360381019061010d9190610b5b565b610274565b60405161011f9190610ad9565b60405180910390f35b610142600480360381019061013d9190610a8a565b610288565b60405161014f9190610ad9565b60405180910390f35b610172600480360381019061016d9190610b5b565b61029c565b60405161017f9190610ad9565b60405180910390f35b6101a2600480360381019061019d9190610b5b565b6102b0565b6040516101af9190610ad9565b60405180910390f35b6101d260048036038101906101cd9190610b5b565b6102c4565b6040516101df9190610ad9565b60405180910390f35b61020260048036038101906101fd9190610a8a565b6102d8565b60405161020f9190610ad9565b60405180910390f35b610232600480360381019061022d9190610a8a565b6102ec565b60405161023f9190610ad9565b60405180910390f35b60006102548383610300565b905092915050565b600061026a85858585610365565b9050949350505050565b600061028083836103db565b905092915050565b60006102948383610401565b905092915050565b60006102a88383610462565b905092915050565b60006102bc838361047b565b905092915050565b60006102d08383610494565b905092915050565b60006102e483836104d1565b905092915050565b60006102f88383610530565b905092915050565b60008061030c84610590565b90506001600281111561032257610321610b9b565b5b83600281111561033557610334610b9b565b5b148015610349575083600382901b6001901b105b610354576000610357565b60015b60ff16810191505092915050565b600080610373868686610620565b90506001600281111561038957610388610b9b565b5b83600281111561039c5761039b610b9b565b5b1480156103ba5750600084806103b5576103b4610bca565b5b868809115b156103cf576001816103cc9190610c28565b90505b80915050949350505050565b600060028284186103ec9190610c7e565b8284166103f99190610c28565b905092915050565b60008061040d846106fc565b90506001600281111561042357610422610b9b565b5b83600281111561043657610435610b9b565b5b148015610446575083816001901b105b610451576000610454565b60015b60ff16810191505092915050565b60008183116104715781610473565b825b905092915050565b600081831061048a578161048c565b825b905092915050565b60008083146104c6576001826001856104ad9190610caf565b6104b79190610c7e565b6104c19190610c28565b6104c9565b60005b905092915050565b6000806104dd846107dd565b9050600160028111156104f3576104f2610b9b565b5b83600281111561050657610505610b9b565b5b148015610514575083818202105b61051f576000610522565b60015b60ff16810191505092915050565b60008061053c846108d7565b90506001600281111561055257610551610b9b565b5b83600281111561056557610564610b9b565b5b14801561057457508381600a0a105b61057f576000610582565b60015b60ff16810191505092915050565b600080600090506000608084901c11156105b257608083901c92506010810190505b6000604084901c11156105cd57604083901c92506008810190505b6000602084901c11156105e857602083901c92506004810190505b6000601084901c111561060357601083901c92506002810190505b6000600884901c1115610617576001810190505b80915050919050565b60008060008019858709858702925082811083820303915050600081141561065c5783828161065257610651610bca565b5b04925050506106f5565b80841161066857600080fd5b60008486880990508281118203915080830392506000600186190186169050808604955080840493506001818260000304019050808302841793506000600287600302189050808702600203810290508087026002038102905080870260020381029050808702600203810290508087026002038102905080870260020381029050808502955050505050505b9392505050565b600080600090506000608084901c111561071e57608083901c92506080810190505b6000604084901c111561073957604083901c92506040810190505b6000602084901c111561075457602083901c92506020810190505b6000601084901c111561076f57601083901c92506010810190505b6000600884901c111561078a57600883901c92506008810190505b6000600484901c11156107a557600483901c92506004810190505b6000600284901c11156107c057600283901c92506002810190505b6000600184901c11156107d4576001810190505b80915050919050565b6000808214156107f057600090506108d2565b600060016107fd846106fc565b901c6001901b9050600181848161081757610816610bca565b5b048201901c905060018184816108305761082f610bca565b5b048201901c9050600181848161084957610848610bca565b5b048201901c9050600181848161086257610861610bca565b5b048201901c9050600181848161087b5761087a610bca565b5b048201901c9050600181848161089457610893610bca565b5b048201901c905060018184816108ad576108ac610bca565b5b048201901c90506108ce818285816108c8576108c7610bca565b5b0461047b565b9150505b919050565b600080600090507a184f03e93ff9f4daa797ed6e38ed64bf6a1f0100000000000000008310610935577a184f03e93ff9f4daa797ed6e38ed64bf6a1f010000000000000000838161092b5761092a610bca565b5b0492506040810190505b6d04ee2d6d415b85acef81000000008310610972576d04ee2d6d415b85acef8100000000838161096857610967610bca565b5b0492506020810190505b662386f26fc1000083106109a157662386f26fc10000838161099757610996610bca565b5b0492506010810190505b6305f5e10083106109ca576305f5e10083816109c0576109bf610bca565b5b0492506008810190505b61271083106109ef5761271083816109e5576109e4610bca565b5b0492506004810190505b60648310610a125760648381610a0857610a07610bca565b5b0492506002810190505b600a8310610a21576001810190505b80915050919050565b600080fd5b6000819050919050565b610a4281610a2f565b8114610a4d57600080fd5b50565b600081359050610a5f81610a39565b92915050565b60038110610a7257600080fd5b50565b600081359050610a8481610a65565b92915050565b60008060408385031215610aa157610aa0610a2a565b5b6000610aaf85828601610a50565b9250506020610ac085828601610a75565b9150509250929050565b610ad381610a2f565b82525050565b6000602082019050610aee6000830184610aca565b92915050565b60008060008060808587031215610b0e57610b0d610a2a565b5b6000610b1c87828801610a50565b9450506020610b2d87828801610a50565b9350506040610b3e87828801610a50565b9250506060610b4f87828801610a75565b91505092959194509250565b60008060408385031215610b7257610b71610a2a565b5b6000610b8085828601610a50565b9250506020610b9185828601610a50565b9150509250929050565b7f4e487b7100000000000000000000000000000000000000000000000000000000600052602160045260246000fd5b7f4e487b7100000000000000000000000000000000000000000000000000000000600052601260045260246000fd5b7f4e487b7100000000000000000000000000000000000000000000000000000000600052601160045260246000fd5b6000610c3382610a2f565b9150610c3e83610a2f565b9250827fffffffffffffffffffffffffffffffffffffffffffffffffffffffffffffffff03821115610c7357610c72610bf9565b5b828201905092915050565b6000610c8982610a2f565b9150610c9483610a2f565b925082610ca457610ca3610bca565b5b828204905092915050565b6000610cba82610a2f565b9150610cc583610a2f565b925082821015610cd857610cd7610bf9565b5b82820390509291505056fea2646970667358221220651699dd2ea4116938f1324290ee64fafdb4d07720c86966a58f9e53a1a9030b64736f6c63430008090033",
  "linkReferences": {},
  "deployedLinkReferences": {}
}