{
  "_format": "hh-sol-artifact-1",
  "contractName": "Bytes32ArraysMock",
  "sourceName": "contracts/openzeppelin/mocks/ArraysMock.sol",
  "abi": [
    {
      "inputs": [
        {
          "internalType": "bytes32[]",
          "name": "array",
          "type": "bytes32[]"
        }
      ],
      "stateMutability": "nonpayable",
      "type": "constructor"
    },
    {
      "inputs": [
        {
          "internalType": "uint256",
          "name": "pos",
          "type": "uint256"
        }
      ],
      "name": "unsafeAccess",
      "outputs": [
        {
          "internalType": "bytes32",
          "name": "",
          "type": "bytes32"
        }
      ],
      "stateMutability": "view",
      "type": "function"
    }
  ],
  "bytecode": "0x608060405234801561001057600080fd5b506040516104333803806104338339818101604052810190610032919061025c565b806000908051906020019061004892919061004f565b50506102a5565b82805482825590600052602060002090810192821561008b579160200282015b8281111561008a57825182559160200191906001019061006f565b5b509050610098919061009c565b5090565b5b808211156100b557600081600090555060010161009d565b5090565b6000604051905090565b600080fd5b600080fd5b600080fd5b6000601f19601f8301169050919050565b7f4e487b7100000000000000000000000000000000000000000000000000000000600052604160045260246000fd5b61011b826100d2565b810181811067ffffffffffffffff8211171561013a576101396100e3565b5b80604052505050565b600061014d6100b9565b90506101598282610112565b919050565b600067ffffffffffffffff821115610179576101786100e3565b5b602082029050602081019050919050565b600080fd5b6000819050919050565b6101a28161018f565b81146101ad57600080fd5b50565b6000815190506101bf81610199565b92915050565b60006101d86101d38461015e565b610143565b905080838252602082019050602084028301858111156101fb576101fa61018a565b5b835b81811015610224578061021088826101b0565b8452602084019350506020810190506101fd565b5050509392505050565b600082601f830112610243576102426100cd565b5b81516102538482602086016101c5565b91505092915050565b600060208284031215610272576102716100c3565b5b600082015167ffffffffffffffff8111156102905761028f6100c8565b5b61029c8482850161022e565b91505092915050565b61017f806102b46000396000f3fe608060405234801561001057600080fd5b506004361061002b5760003560e01c806340aa934d14610030575b600080fd5b61004a600480360381019061004591906100e8565b610060565b604051610057919061012e565b60405180910390f35b600061007682600061008190919063ffffffff16565b600001549050919050565b6000808360005282602060002001905061009a816100a3565b91505092915050565b6000819050919050565b600080fd5b6000819050919050565b6100c5816100b2565b81146100d057600080fd5b50565b6000813590506100e2816100bc565b92915050565b6000602082840312156100fe576100fd6100ad565b5b600061010c848285016100d3565b91505092915050565b6000819050919050565b61012881610115565b82525050565b6000602082019050610143600083018461011f565b9291505056fea264697066735822122007f908d9f5210189ab89b974014cd5e3bd96b748d1daf6a5ada3c56516311d6664736f6c63430008090033",
  "linkReferences": {},
  "deployedLinkReferences": {}
}