{
  "_format": "hh-sol-artifact-1",
  "contractName": "ERC721ConsecutiveMock",
  "sourceName": "contracts/openzeppelin/mocks/ERC721ConsecutiveMock.sol",
  "abi": [
    {
      "inputs": [
        {
          "internalType": "string",
          "name": "name",
          "type": "string"
        },
        {
          "internalType": "string",
          "name": "symbol",
          "type": "string"
        },
        {
          "internalType": "address[]",
          "name": "delegates",
          "type": "address[]"
        },
        {
          "internalType": "address[]",
          "name": "receivers",
          "type": "address[]"
        },
        {
          "internalType": "uint96[]",
          "name": "amounts",
          "type": "uint96[]"
        }
      ],
      "stateMutability": "nonpayable",
      "type": "constructor"
    },
    {
      "anonymous": false,
      "inputs": [
        {
          "indexed": true,
          "internalType": "address",
          "name": "owner",
          "type": "address"
        },
        {
          "indexed": true,
          "internalType": "address",
          "name": "approved",
          "type": "address"
        },
        {
          "indexed": true,
          "internalType": "uint256",
          "name": "tokenId",
          "type": "uint256"
        }
      ],
      "name": "Approval",
      "type": "event"
    },
    {
      "anonymous": false,
      "inputs": [
        {
          "indexed": true,
          "internalType": "address",
          "name": "owner",
          "type": "address"
        },
        {
          "indexed": true,
          "internalType": "address",
          "name": "operator",
          "type": "address"
        },
        {
          "indexed": false,
          "internalType": "bool",
          "name": "approved",
          "type": "bool"
        }
      ],
      "name": "ApprovalForAll",
      "type": "event"
    },
    {
      "anonymous": false,
      "inputs": [
        {
          "indexed": true,
          "internalType": "uint256",
          "name": "fromTokenId",
          "type": "uint256"
        },
        {
          "indexed": false,
          "internalType": "uint256",
          "name": "toTokenId",
          "type": "uint256"
        },
        {
          "indexed": true,
          "internalType": "address",
          "name": "fromAddress",
          "type": "address"
        },
        {
          "indexed": true,
          "internalType": "address",
          "name": "toAddress",
          "type": "address"
        }
      ],
      "name": "ConsecutiveTransfer",
      "type": "event"
    },
    {
      "anonymous": false,
      "inputs": [
        {
          "indexed": true,
          "internalType": "address",
          "name": "delegator",
          "type": "address"
        },
        {
          "indexed": true,
          "internalType": "address",
          "name": "fromDelegate",
          "type": "address"
        },
        {
          "indexed": true,
          "internalType": "address",
          "name": "toDelegate",
          "type": "address"
        }
      ],
      "name": "DelegateChanged",
      "type": "event"
    },
    {
      "anonymous": false,
      "inputs": [
        {
          "indexed": true,
          "internalType": "address",
          "name": "delegate",
          "type": "address"
        },
        {
          "indexed": false,
          "internalType": "uint256",
          "name": "previousBalance",
          "type": "uint256"
        },
        {
          "indexed": false,
          "internalType": "uint256",
          "name": "newBalance",
          "type": "uint256"
        }
      ],
      "name": "DelegateVotesChanged",
      "type": "event"
    },
    {
      "anonymous": false,
      "inputs": [
        {
          "indexed": false,
          "internalType": "address",
          "name": "account",
          "type": "address"
        }
      ],
      "name": "Paused",
      "type": "event"
    },
    {
      "anonymous": false,
      "inputs": [
        {
          "indexed": true,
          "internalType": "address",
          "name": "from",
          "type": "address"
        },
        {
          "indexed": true,
          "internalType": "address",
          "name": "to",
          "type": "address"
        },
        {
          "indexed": true,
          "internalType": "uint256",
          "name": "tokenId",
          "type": "uint256"
        }
      ],
      "name": "Transfer",
      "type": "event"
    },
    {
      "anonymous": false,
      "inputs": [
        {
          "indexed": false,
          "internalType": "address",
          "name": "account",
          "type": "address"
        }
      ],
      "name": "Unpaused",
      "type": "event"
    },
    {
      "inputs": [],
      "name": "DOMAIN_SEPARATOR",
      "outputs": [
        {
          "internalType": "bytes32",
          "name": "",
          "type": "bytes32"
        }
      ],
      "stateMutability": "view",
      "type": "function"
    },
    {
      "inputs": [
        {
          "internalType": "address",
          "name": "to",
          "type": "address"
        },
        {
          "internalType": "uint256",
          "name": "tokenId",
          "type": "uint256"
        }
      ],
      "name": "approve",
      "outputs": [],
      "stateMutability": "nonpayable",
      "type": "function"
    },
    {
      "inputs": [
        {
          "internalType": "address",
          "name": "owner",
          "type": "address"
        }
      ],
      "name": "balanceOf",
      "outputs": [
        {
          "internalType": "uint256",
          "name": "",
          "type": "uint256"
        }
      ],
      "stateMutability": "view",
      "type": "function"
    },
    {
      "inputs": [
        {
          "internalType": "uint256",
          "name": "tokenId",
          "type": "uint256"
        }
      ],
      "name": "burn",
      "outputs": [],
      "stateMutability": "nonpayable",
      "type": "function"
    },
    {
      "inputs": [
        {
          "internalType": "address",
          "name": "delegatee",
          "type": "address"
        }
      ],
      "name": "delegate",
      "outputs": [],
      "stateMutability": "nonpayable",
      "type": "function"
    },
    {
      "inputs": [
        {
          "internalType": "address",
          "name": "delegatee",
          "type": "address"
        },
        {
          "internalType": "uint256",
          "name": "nonce",
          "type": "uint256"
        },
        {
          "internalType": "uint256",
          "name": "expiry",
          "type": "uint256"
        },
        {
          "internalType": "uint8",
          "name": "v",
          "type": "uint8"
        },
        {
          "internalType": "bytes32",
          "name": "r",
          "type": "bytes32"
        },
        {
          "internalType": "bytes32",
          "name": "s",
          "type": "bytes32"
        }
      ],
      "name": "delegateBySig",
      "outputs": [],
      "stateMutability": "nonpayable",
      "type": "function"
    },
    {
      "inputs": [
        {
          "internalType": "address",
          "name": "account",
          "type": "address"
        }
      ],
      "name": "delegates",
      "outputs": [
        {
          "internalType": "address",
          "name": "",
          "type": "address"
        }
      ],
      "stateMutability": "view",
      "type": "function"
    },
    {
      "inputs": [
        {
          "internalType": "uint256",
          "name": "tokenId",
          "type": "uint256"
        }
      ],
      "name": "exists",
      "outputs": [
        {
          "internalType": "bool",
          "name": "",
          "type": "bool"
        }
      ],
      "stateMutability": "view",
      "type": "function"
    },
    {
      "inputs": [
        {
          "internalType": "uint256",
          "name": "tokenId",
          "type": "uint256"
        }
      ],
      "name": "getApproved",
      "outputs": [
        {
          "internalType": "address",
          "name": "",
          "type": "address"
        }
      ],
      "stateMutability": "view",
      "type": "function"
    },
    {
      "inputs": [
        {
          "internalType": "uint256",
          "name": "blockNumber",
          "type": "uint256"
        }
      ],
      "name": "getPastTotalSupply",
      "outputs": [
        {
          "internalType": "uint256",
          "name": "",
          "type": "uint256"
        }
      ],
      "stateMutability": "view",
      "type": "function"
    },
    {
      "inputs": [
        {
          "internalType": "address",
          "name": "account",
          "type": "address"
        },
        {
          "internalType": "uint256",
          "name": "blockNumber",
          "type": "uint256"
        }
      ],
      "name": "getPastVotes",
      "outputs": [
        {
          "internalType": "uint256",
          "name": "",
          "type": "uint256"
        }
      ],
      "stateMutability": "view",
      "type": "function"
    },
    {
      "inputs": [
        {
          "internalType": "address",
          "name": "account",
          "type": "address"
        }
      ],
      "name": "getVotes",
      "outputs": [
        {
          "internalType": "uint256",
          "name": "",
          "type": "uint256"
        }
      ],
      "stateMutability": "view",
      "type": "function"
    },
    {
      "inputs": [
        {
          "internalType": "address",
          "name": "owner",
          "type": "address"
        },
        {
          "internalType": "address",
          "name": "operator",
          "type": "address"
        }
      ],
      "name": "isApprovedForAll",
      "outputs": [
        {
          "internalType": "bool",
          "name": "",
          "type": "bool"
        }
      ],
      "stateMutability": "view",
      "type": "function"
    },
    {
      "inputs": [
        {
          "internalType": "address",
          "name": "to",
          "type": "address"
        },
        {
          "internalType": "uint256",
          "name": "tokenId",
          "type": "uint256"
        }
      ],
      "name": "mint",
      "outputs": [],
      "stateMutability": "nonpayable",
      "type": "function"
    },
    {
      "inputs": [
        {
          "internalType": "address",
          "name": "to",
          "type": "address"
        },
        {
          "internalType": "uint96",
          "name": "amount",
          "type": "uint96"
        }
      ],
      "name": "mintConsecutive",
      "outputs": [],
      "stateMutability": "nonpayable",
      "type": "function"
    },
    {
      "inputs": [],
      "name": "name",
      "outputs": [
        {
          "internalType": "string",
          "name": "",
          "type": "string"
        }
      ],
      "stateMutability": "view",
      "type": "function"
    },
    {
      "inputs": [
        {
          "internalType": "address",
          "name": "owner",
          "type": "address"
        }
      ],
      "name": "nonces",
      "outputs": [
        {
          "internalType": "uint256",
          "name": "",
          "type": "uint256"
        }
      ],
      "stateMutability": "view",
      "type": "function"
    },
    {
      "inputs": [
        {
          "internalType": "uint256",
          "name": "tokenId",
          "type": "uint256"
        }
      ],
      "name": "ownerOf",
      "outputs": [
        {
          "internalType": "address",
          "name": "",
          "type": "address"
        }
      ],
      "stateMutability": "view",
      "type": "function"
    },
    {
      "inputs": [],
      "name": "pause",
      "outputs": [],
      "stateMutability": "nonpayable",
      "type": "function"
    },
    {
      "inputs": [],
      "name": "paused",
      "outputs": [
        {
          "internalType": "bool",
          "name": "",
          "type": "bool"
        }
      ],
      "stateMutability": "view",
      "type": "function"
    },
    {
      "inputs": [
        {
          "internalType": "address",
          "name": "to",
          "type": "address"
        },
        {
          "internalType": "uint256",
          "name": "tokenId",
          "type": "uint256"
        }
      ],
      "name": "safeMint",
      "outputs": [],
      "stateMutability": "nonpayable",
      "type": "function"
    },
    {
      "inputs": [
        {
          "internalType": "address",
          "name": "from",
          "type": "address"
        },
        {
          "internalType": "address",
          "name": "to",
          "type": "address"
        },
        {
          "internalType": "uint256",
          "name": "tokenId",
          "type": "uint256"
        }
      ],
      "name": "safeTransferFrom",
      "outputs": [],
      "stateMutability": "nonpayable",
      "type": "function"
    },
    {
      "inputs": [
        {
          "internalType": "address",
          "name": "from",
          "type": "address"
        },
        {
          "internalType": "address",
          "name": "to",
          "type": "address"
        },
        {
          "internalType": "uint256",
          "name": "tokenId",
          "type": "uint256"
        },
        {
          "internalType": "bytes",
          "name": "data",
          "type": "bytes"
        }
      ],
      "name": "safeTransferFrom",
      "outputs": [],
      "stateMutability": "nonpayable",
      "type": "function"
    },
    {
      "inputs": [
        {
          "internalType": "address",
          "name": "operator",
          "type": "address"
        },
        {
          "internalType": "bool",
          "name": "approved",
          "type": "bool"
        }
      ],
      "name": "setApprovalForAll",
      "outputs": [],
      "stateMutability": "nonpayable",
      "type": "function"
    },
    {
      "inputs": [
        {
          "internalType": "bytes4",
          "name": "interfaceId",
          "type": "bytes4"
        }
      ],
      "name": "supportsInterface",
      "outputs": [
        {
          "internalType": "bool",
          "name": "",
          "type": "bool"
        }
      ],
      "stateMutability": "view",
      "type": "function"
    },
    {
      "inputs": [],
      "name": "symbol",
      "outputs": [
        {
          "internalType": "string",
          "name": "",
          "type": "string"
        }
      ],
      "stateMutability": "view",
      "type": "function"
    },
    {
      "inputs": [
        {
          "internalType": "uint256",
          "name": "tokenId",
          "type": "uint256"
        }
      ],
      "name": "tokenURI",
      "outputs": [
        {
          "internalType": "string",
          "name": "",
          "type": "string"
        }
      ],
      "stateMutability": "view",
      "type": "function"
    },
    {
      "inputs": [
        {
          "internalType": "address",
          "name": "from",
          "type": "address"
        },
        {
          "internalType": "address",
          "name": "to",
          "type": "address"
        },
        {
          "internalType": "uint256",
          "name": "tokenId",
          "type": "uint256"
        }
      ],
      "name": "transferFrom",
      "outputs": [],
      "stateMutability": "nonpayable",
      "type": "function"
    },
    {
      "inputs": [],
      "name": "unpause",
      "outputs": [],
      "stateMutability": "nonpayable",
      "type": "function"
    }
  ],
  "bytecode": "0x6101406040523480156200001257600080fd5b50604051620083c0380380620083c0833981810160405281019062000038919062001e8c565b846040518060400160405280600181526020017f31000000000000000000000000000000000000000000000000000000000000008152508686816000908051906020019062000089929190620019e0565b508060019080519060200190620000a2929190620019e0565b5050506000600860006101000a81548160ff02191690831515021790555060008280519060200120905060008280519060200120905060007f8b73c3c69bb8fe3d512ecc4cf759cc79239f7b179b0ffacaa9a75d522b39400f90508260e081815250508161010081815250504660a08181525050620001298184846200025a60201b60201c565b608081815250503073ffffffffffffffffffffffffffffffffffffffff1660c08173ffffffffffffffffffffffffffffffffffffffff1681525050806101208181525050505050505060005b8351811015620001df57620001cb84828151811062000199576200019862001faf565b5b6020026020010151858381518110620001b757620001b662001faf565b5b60200260200101516200029660201b60201c565b80620001d79062002017565b905062000175565b5060005b82518110156200024e576200023983828151811062000207576200020662001faf565b5b602002602001015183838151811062000225576200022462001faf565b5b6020026020010151620003c260201b60201c565b5080620002469062002017565b9050620001e3565b50505050505062002850565b6000838383463060405160200162000277959493929190620020a2565b6040516020818303038152906040528051906020012090509392505050565b6000620002a9836200065060201b60201c565b905081600960008573ffffffffffffffffffffffffffffffffffffffff1673ffffffffffffffffffffffffffffffffffffffff16815260200190815260200160002060006101000a81548173ffffffffffffffffffffffffffffffffffffffff021916908373ffffffffffffffffffffffffffffffffffffffff1602179055508173ffffffffffffffffffffffffffffffffffffffff168173ffffffffffffffffffffffffffffffffffffffff168473ffffffffffffffffffffffffffffffffffffffff167f3134e8a2e6d97e929a7e54011ea5485d7d196dd5f0ba4d4ef95803e8e3fc257f60405160405180910390a4620003bd8183620003b186620006b960201b60201c565b620006d360201b60201c565b505050565b600080620003d56200090860201b60201c565b90506000836bffffffffffffffffffffffff161115620006465762000405306200094e60201b6200103d1760201c565b1562000448576040517f08c379a00000000000000000000000000000000000000000000000000000000081526004016200043f9062002186565b60405180910390fd5b600073ffffffffffffffffffffffffffffffffffffffff168473ffffffffffffffffffffffffffffffffffffffff161415620004bb576040517f08c379a0000000000000000000000000000000000000000000000000000000008152600401620004b2906200221e565b60405180910390fd5b620004cb6200097160201b60201c565b6bffffffffffffffffffffffff16836bffffffffffffffffffffffff1611156200052c576040517f08c379a00000000000000000000000000000000000000000000000000000000081526004016200052390620022b6565b60405180910390fd5b6200055d600085836bffffffffffffffffffffffff16866bffffffffffffffffffffffff166200097b60201b60201c565b6000600184836200056f9190620022d8565b6200057b919062002321565b90506200059a818660066200099a60201b62001060179092919060201c565b50508473ffffffffffffffffffffffffffffffffffffffff16600073ffffffffffffffffffffffffffffffffffffffff16836bffffffffffffffffffffffff167fdeaa91b6123d068f5821d0fb0678463d1a8a6079fe8af5de3ce5e896dcf9133d846040516200060b91906200239f565b60405180910390a462000644600086846bffffffffffffffffffffffff16876bffffffffffffffffffffffff16620009bf60201b60201c565b505b8091505092915050565b6000600960008373ffffffffffffffffffffffffffffffffffffffff1673ffffffffffffffffffffffffffffffffffffffff16815260200190815260200160002060009054906101000a900473ffffffffffffffffffffffffffffffffffffffff169050919050565b6000620006cc82620009de60201b60201c565b9050919050565b8173ffffffffffffffffffffffffffffffffffffffff168373ffffffffffffffffffffffffffffffffffffffff1614158015620007105750600081115b156200090357600073ffffffffffffffffffffffffffffffffffffffff168373ffffffffffffffffffffffffffffffffffffffff16146200080c57600080620007b362000a9960201b6200107d1784600a60008973ffffffffffffffffffffffffffffffffffffffff1673ffffffffffffffffffffffffffffffffffffffff16815260200190815260200160002062000ab160201b62001093179092919060201c565b915091508473ffffffffffffffffffffffffffffffffffffffff167fdec2bacdd2f05b59de34da9b523dff8be42e5e38e818c82fdb0bae774387a724838360405162000801929190620023bc565b60405180910390a250505b600073ffffffffffffffffffffffffffffffffffffffff168273ffffffffffffffffffffffffffffffffffffffff16146200090257600080620008a962000b0b60201b620010df1784600a60008873ffffffffffffffffffffffffffffffffffffffff1673ffffffffffffffffffffffffffffffffffffffff16815260200190815260200160002062000ab160201b62001093179092919060201c565b915091508373ffffffffffffffffffffffffffffffffffffffff167fdec2bacdd2f05b59de34da9b523dff8be42e5e38e818c82fdb0bae774387a7248383604051620008f7929190620023bc565b60405180910390a250505b5b505050565b600080600062000924600662000b2360201b620010f51760201c565b5091509150816200093757600062000947565b600181620009469190620022d8565b5b9250505090565b6000808273ffffffffffffffffffffffffffffffffffffffff163b119050919050565b6000611388905090565b620009948484848462000c3160201b620011f71760201c565b50505050565b600080620009b385600001858562000ca360201b60201c565b91509150935093915050565b620009d8848484846200105560201b620012511760201c565b50505050565b60008073ffffffffffffffffffffffffffffffffffffffff168273ffffffffffffffffffffffffffffffffffffffff16141562000a52576040517f08c379a000000000000000000000000000000000000000000000000000000000815260040162000a49906200245f565b60405180910390fd5b600360008373ffffffffffffffffffffffffffffffffffffffff1673ffffffffffffffffffffffffffffffffffffffff168152602001908152602001600020549050919050565b6000818362000aa9919062002481565b905092915050565b60008062000aff8562000af362000ace886200108760201b60201c565b7bffffffffffffffffffffffffffffffffffffffffffffffffffffffff16868860201c565b620010fd60201b60201c565b91509150935093915050565b6000818362000b1b9190620024bc565b905092915050565b60008060008084600001805490509050600081141562000b4f5760008060009350935093505062000c2a565b600062000b748660000160018462000b68919062002481565b6200118d60201b60201c565b6040518060400160405290816000820160009054906101000a90046bffffffffffffffffffffffff166bffffffffffffffffffffffff166bffffffffffffffffffffffff16815260200160008201600c9054906101000a900473ffffffffffffffffffffffffffffffffffffffff1673ffffffffffffffffffffffffffffffffffffffff1673ffffffffffffffffffffffffffffffffffffffff1681525050905060018160000151826020015194509450945050505b9193909250565b62000c4a84848484620011a260201b6200126e1760201c565b62000c5a620012cf60201b60201c565b1562000c9d576040517f08c379a000000000000000000000000000000000000000000000000000000000815260040162000c94906200258f565b60405180910390fd5b50505050565b600080600085805490509050600081111562000f6557600062000cdb8760018462000ccf919062002481565b6200118d60201b60201c565b6040518060400160405290816000820160009054906101000a90046bffffffffffffffffffffffff166bffffffffffffffffffffffff166bffffffffffffffffffffffff16815260200160008201600c9054906101000a900473ffffffffffffffffffffffffffffffffffffffff1673ffffffffffffffffffffffffffffffffffffffff1673ffffffffffffffffffffffffffffffffffffffff16815250509050856bffffffffffffffffffffffff1681600001516bffffffffffffffffffffffff16111562000de2576040517f08c379a000000000000000000000000000000000000000000000000000000000815260040162000dd99062002601565b60405180910390fd5b856bffffffffffffffffffffffff1681600001516bffffffffffffffffffffffff16141562000e73578462000e2c8860018562000e20919062002481565b6200118d60201b60201c565b600001600c6101000a81548173ffffffffffffffffffffffffffffffffffffffff021916908373ffffffffffffffffffffffffffffffffffffffff16021790555062000f53565b866040518060400160405280886bffffffffffffffffffffffff1681526020018773ffffffffffffffffffffffffffffffffffffffff168152509080600181540180825580915050600190039060005260206000200160009091909190915060008201518160000160006101000a8154816bffffffffffffffffffffffff02191690836bffffffffffffffffffffffff160217905550602082015181600001600c6101000a81548173ffffffffffffffffffffffffffffffffffffffff021916908373ffffffffffffffffffffffffffffffffffffffff16021790555050505b8060200151859350935050506200104d565b856040518060400160405280876bffffffffffffffffffffffff1681526020018673ffffffffffffffffffffffffffffffffffffffff168152509080600181540180825580915050600190039060005260206000200160009091909190915060008201518160000160006101000a8154816bffffffffffffffffffffffff02191690836bffffffffffffffffffffffff160217905550602082015181600001600c6101000a81548173ffffffffffffffffffffffffffffffffffffffff021916908373ffffffffffffffffffffffffffffffffffffffff160217905550505060008492509250505b935093915050565b62001068848483620012e660201b60201c565b6200108184848484620013e060201b620013941760201c565b50505050565b6000808260000180549050905060008114620010f257620010c083600001600183620010b4919062002481565b620014e560201b60201c565b60000160049054906101000a90047bffffffffffffffffffffffffffffffffffffffffffffffffffffffff16620010f5565b60005b915050919050565b60008062001140846000016200111e43620014fa60201b620014701760201c565b62001134866200155060201b620014c31760201c565b620015be60201b60201c565b817bffffffffffffffffffffffffffffffffffffffffffffffffffffffff169150807bffffffffffffffffffffffffffffffffffffffffffffffffffffffff169050915091509250929050565b60008260005281602060002001905092915050565b6001811115620012c957600073ffffffffffffffffffffffffffffffffffffffff168473ffffffffffffffffffffffffffffffffffffffff16146200123a5780600360008673ffffffffffffffffffffffffffffffffffffffff1673ffffffffffffffffffffffffffffffffffffffff168152602001908152602001600020600082825462001232919062002481565b925050819055505b600073ffffffffffffffffffffffffffffffffffffffff168373ffffffffffffffffffffffffffffffffffffffff1614620012c85780600360008573ffffffffffffffffffffffffffffffffffffffff1673ffffffffffffffffffffffffffffffffffffffff1681526020019081526020016000206000828254620012c09190620024bc565b925050819055505b5b50505050565b6000600860009054906101000a900460ff16905090565b600073ffffffffffffffffffffffffffffffffffffffff168373ffffffffffffffffffffffffffffffffffffffff16141562001347576200134462000b0b60201b620010df1782600b62000ab160201b62001093179092919060201c565b50505b600073ffffffffffffffffffffffffffffffffffffffff168273ffffffffffffffffffffffffffffffffffffffff161415620013a857620013a562000a9960201b6200107d1782600b62000ab160201b62001093179092919060201c565b50505b620013db620013bd846200065060201b60201c565b620013ce846200065060201b60201c565b83620006d360201b60201c565b505050565b600073ffffffffffffffffffffffffffffffffffffffff168373ffffffffffffffffffffffffffffffffffffffff16148015620014395750620014286200090860201b60201c565b6bffffffffffffffffffffffff1682105b80156200145e57506200145c8260076200196060201b6200152e1790919060201c565b155b15620014c65760018114620014aa576040517f08c379a0000000000000000000000000000000000000000000000000000000008152600401620014a19062002699565b60405180910390fd5b620014c58260076200199c60201b6200156a1790919060201c565b5b620014df84848484620019da60201b620015a81760201c565b50505050565b60008260005281602060002001905092915050565b600063ffffffff801682111562001548576040517f08c379a00000000000000000000000000000000000000000000000000000000081526004016200153f9062002731565b60405180910390fd5b819050919050565b60007bffffffffffffffffffffffffffffffffffffffffffffffffffffffff8016821115620015b6576040517f08c379a0000000000000000000000000000000000000000000000000000000008152600401620015ad90620027c9565b60405180910390fd5b819050919050565b600080600085805490509050600081111562001870576000620015f687600184620015ea919062002481565b620014e560201b60201c565b6040518060400160405290816000820160009054906101000a900463ffffffff1663ffffffff1663ffffffff1681526020016000820160049054906101000a90047bffffffffffffffffffffffffffffffffffffffffffffffffffffffff167bffffffffffffffffffffffffffffffffffffffffffffffffffffffff167bffffffffffffffffffffffffffffffffffffffffffffffffffffffff168152505090508563ffffffff16816000015163ffffffff161115620016ed576040517f08c379a0000000000000000000000000000000000000000000000000000000008152600401620016e49062002601565b60405180910390fd5b8563ffffffff16816000015163ffffffff1614156200177e578462001727886001856200171b919062002481565b620014e560201b60201c565b60000160046101000a8154817bffffffffffffffffffffffffffffffffffffffffffffffffffffffff02191690837bffffffffffffffffffffffffffffffffffffffffffffffffffffffff1602179055506200185e565b8660405180604001604052808863ffffffff168152602001877bffffffffffffffffffffffffffffffffffffffffffffffffffffffff168152509080600181540180825580915050600190039060005260206000200160009091909190915060008201518160000160006101000a81548163ffffffff021916908363ffffffff16021790555060208201518160000160046101000a8154817bffffffffffffffffffffffffffffffffffffffffffffffffffffffff02191690837bffffffffffffffffffffffffffffffffffffffffffffffffffffffff16021790555050505b80602001518593509350505062001958565b8560405180604001604052808763ffffffff168152602001867bffffffffffffffffffffffffffffffffffffffffffffffffffffffff168152509080600181540180825580915050600190039060005260206000200160009091909190915060008201518160000160006101000a81548163ffffffff021916908363ffffffff16021790555060208201518160000160046101000a8154817bffffffffffffffffffffffffffffffffffffffffffffffffffffffff02191690837bffffffffffffffffffffffffffffffffffffffffffffffffffffffff160217905550505060008492509250505b935093915050565b600080600883901c9050600060ff84166001901b9050600081866000016000858152602001908152602001600020541614159250505092915050565b6000600882901c9050600060ff83166001901b9050808460000160008481526020019081526020016000206000828254179250508190555050505050565b50505050565b828054620019ee906200281a565b90600052602060002090601f01602090048101928262001a12576000855562001a5e565b82601f1062001a2d57805160ff191683800117855562001a5e565b8280016001018555821562001a5e579182015b8281111562001a5d57825182559160200191906001019062001a40565b5b50905062001a6d919062001a71565b5090565b5b8082111562001a8c57600081600090555060010162001a72565b5090565b6000604051905090565b600080fd5b600080fd5b600080fd5b600080fd5b6000601f19601f8301169050919050565b7f4e487b7100000000000000000000000000000000000000000000000000000000600052604160045260246000fd5b62001af98262001aae565b810181811067ffffffffffffffff8211171562001b1b5762001b1a62001abf565b5b80604052505050565b600062001b3062001a90565b905062001b3e828262001aee565b919050565b600067ffffffffffffffff82111562001b615762001b6062001abf565b5b62001b6c8262001aae565b9050602081019050919050565b60005b8381101562001b9957808201518184015260208101905062001b7c565b8381111562001ba9576000848401525b50505050565b600062001bc662001bc08462001b43565b62001b24565b90508281526020810184848401111562001be55762001be462001aa9565b5b62001bf284828562001b79565b509392505050565b600082601f83011262001c125762001c1162001aa4565b5b815162001c2484826020860162001baf565b91505092915050565b600067ffffffffffffffff82111562001c4b5762001c4a62001abf565b5b602082029050602081019050919050565b600080fd5b600073ffffffffffffffffffffffffffffffffffffffff82169050919050565b600062001c8e8262001c61565b9050919050565b62001ca08162001c81565b811462001cac57600080fd5b50565b60008151905062001cc08162001c95565b92915050565b600062001cdd62001cd78462001c2d565b62001b24565b9050808382526020820190506020840283018581111562001d035762001d0262001c5c565b5b835b8181101562001d30578062001d1b888262001caf565b84526020840193505060208101905062001d05565b5050509392505050565b600082601f83011262001d525762001d5162001aa4565b5b815162001d6484826020860162001cc6565b91505092915050565b600067ffffffffffffffff82111562001d8b5762001d8a62001abf565b5b602082029050602081019050919050565b60006bffffffffffffffffffffffff82169050919050565b62001dbf8162001d9c565b811462001dcb57600080fd5b50565b60008151905062001ddf8162001db4565b92915050565b600062001dfc62001df68462001d6d565b62001b24565b9050808382526020820190506020840283018581111562001e225762001e2162001c5c565b5b835b8181101562001e4f578062001e3a888262001dce565b84526020840193505060208101905062001e24565b5050509392505050565b600082601f83011262001e715762001e7062001aa4565b5b815162001e8384826020860162001de5565b91505092915050565b600080600080600060a0868803121562001eab5762001eaa62001a9a565b5b600086015167ffffffffffffffff81111562001ecc5762001ecb62001a9f565b5b62001eda8882890162001bfa565b955050602086015167ffffffffffffffff81111562001efe5762001efd62001a9f565b5b62001f0c8882890162001bfa565b945050604086015167ffffffffffffffff81111562001f305762001f2f62001a9f565b5b62001f3e8882890162001d3a565b935050606086015167ffffffffffffffff81111562001f625762001f6162001a9f565b5b62001f708882890162001d3a565b925050608086015167ffffffffffffffff81111562001f945762001f9362001a9f565b5b62001fa28882890162001e59565b9150509295509295909350565b7f4e487b7100000000000000000000000000000000000000000000000000000000600052603260045260246000fd5b7f4e487b7100000000000000000000000000000000000000000000000000000000600052601160045260246000fd5b6000819050919050565b600062002024826200200d565b91507fffffffffffffffffffffffffffffffffffffffffffffffffffffffffffffffff8214156200205a576200205962001fde565b5b600182019050919050565b6000819050919050565b6200207a8162002065565b82525050565b6200208b816200200d565b82525050565b6200209c8162001c81565b82525050565b600060a082019050620020b960008301886200206f565b620020c860208301876200206f565b620020d760408301866200206f565b620020e6606083018562002080565b620020f5608083018462002091565b9695505050505050565b600082825260208201905092915050565b7f455243373231436f6e73656375746976653a206261746368206d696e74696e6760008201527f207265737472696374656420746f20636f6e7374727563746f72000000000000602082015250565b60006200216e603a83620020ff565b91506200217b8262002110565b604082019050919050565b60006020820190508181036000830152620021a1816200215f565b9050919050565b7f455243373231436f6e73656375746976653a206d696e7420746f20746865207a60008201527f65726f2061646472657373000000000000000000000000000000000000000000602082015250565b600062002206602b83620020ff565b91506200221382620021a8565b604082019050919050565b600060208201905081810360008301526200223981620021f7565b9050919050565b7f455243373231436f6e73656375746976653a20626174636820746f6f206c617260008201527f6765000000000000000000000000000000000000000000000000000000000000602082015250565b60006200229e602283620020ff565b9150620022ab8262002240565b604082019050919050565b60006020820190508181036000830152620022d1816200228f565b9050919050565b6000620022e58262001d9c565b9150620022f28362001d9c565b9250826bffffffffffffffffffffffff0382111562002316576200231562001fde565b5b828201905092915050565b60006200232e8262001d9c565b91506200233b8362001d9c565b92508282101562002351576200235062001fde565b5b828203905092915050565b6000819050919050565b600062002387620023816200237b8462001d9c565b6200235c565b6200200d565b9050919050565b620023998162002366565b82525050565b6000602082019050620023b660008301846200238e565b92915050565b6000604082019050620023d3600083018562002080565b620023e2602083018462002080565b9392505050565b7f4552433732313a2061646472657373207a65726f206973206e6f74206120766160008201527f6c6964206f776e65720000000000000000000000000000000000000000000000602082015250565b600062002447602983620020ff565b91506200245482620023e9565b604082019050919050565b600060208201905081810360008301526200247a8162002438565b9050919050565b60006200248e826200200d565b91506200249b836200200d565b925082821015620024b157620024b062001fde565b5b828203905092915050565b6000620024c9826200200d565b9150620024d6836200200d565b9250827fffffffffffffffffffffffffffffffffffffffffffffffffffffffffffffffff038211156200250e576200250d62001fde565b5b828201905092915050565b7f4552433732315061757361626c653a20746f6b656e207472616e73666572207760008201527f68696c6520706175736564000000000000000000000000000000000000000000602082015250565b600062002577602b83620020ff565b9150620025848262002519565b604082019050919050565b60006020820190508181036000830152620025aa8162002568565b9050919050565b7f436865636b706f696e743a20696e76616c6964206b6579000000000000000000600082015250565b6000620025e9601783620020ff565b9150620025f682620025b1565b602082019050919050565b600060208201905081810360008301526200261c81620025da565b9050919050565b7f455243373231436f6e73656375746976653a206261746368206275726e206e6f60008201527f7420737570706f72746564000000000000000000000000000000000000000000602082015250565b600062002681602b83620020ff565b91506200268e8262002623565b604082019050919050565b60006020820190508181036000830152620026b48162002672565b9050919050565b7f53616665436173743a2076616c756520646f65736e27742066697420696e203360008201527f3220626974730000000000000000000000000000000000000000000000000000602082015250565b600062002719602683620020ff565b91506200272682620026bb565b604082019050919050565b600060208201905081810360008301526200274c816200270a565b9050919050565b7f53616665436173743a2076616c756520646f65736e27742066697420696e203260008201527f3234206269747300000000000000000000000000000000000000000000000000602082015250565b6000620027b1602783620020ff565b9150620027be8262002753565b604082019050919050565b60006020820190508181036000830152620027e481620027a2565b9050919050565b7f4e487b7100000000000000000000000000000000000000000000000000000000600052602260045260246000fd5b600060028204905060018216806200283357607f821691505b602082108114156200284a5762002849620027eb565b5b50919050565b60805160a05160c05160e0516101005161012051615b20620028a06000396000611b6101526000611ba301526000611b8201526000611ab701526000611b0d01526000611b360152615b206000f3fe608060405234801561001057600080fd5b50600436106101cf5760003560e01c80635c975abb1161010457806395d89b41116100a2578063b88d4fde11610071578063b88d4fde1461053c578063c3cda52014610558578063c87b56dd14610574578063e985e9c5146105a4576101cf565b806395d89b41146104b65780639ab24eb0146104d4578063a144819414610504578063a22cb46514610520576101cf565b806370a08231116100de57806370a082311461041c5780637ecebe001461044c5780638456cb591461047c5780638e539e8c14610486576101cf565b80635c975abb146103b25780635e391453146103d05780636352211e146103ec576101cf565b80633f4ba83a1161017157806342966c681161014b57806342966c681461031a5780634f558e7914610336578063587cde1e146103665780635c19a95c14610396576101cf565b80633f4ba83a146102d857806340c10f19146102e257806342842e0e146102fe576101cf565b8063095ea7b3116101ad578063095ea7b31461025257806323b872dd1461026e5780633644e5151461028a5780633a46b1a8146102a8576101cf565b806301ffc9a7146101d457806306fdde0314610204578063081812fc14610222575b600080fd5b6101ee60048036038101906101e99190613fdc565b6105d4565b6040516101fb9190614024565b60405180910390f35b61020c6106b6565b60405161021991906140d8565b60405180910390f35b61023c60048036038101906102379190614130565b610748565b604051610249919061419e565b60405180910390f35b61026c600480360381019061026791906141e5565b61078e565b005b61028860048036038101906102839190614225565b6108a6565b005b610292610906565b60405161029f9190614291565b60405180910390f35b6102c260048036038101906102bd91906141e5565b610915565b6040516102cf91906142bb565b60405180910390f35b6102e0610970565b005b6102fc60048036038101906102f791906141e5565b61097a565b005b61031860048036038101906103139190614225565b610988565b005b610334600480360381019061032f9190614130565b6109a8565b005b610350600480360381019061034b9190614130565b610a04565b60405161035d9190614024565b60405180910390f35b610380600480360381019061037b91906142d6565b610a16565b60405161038d919061419e565b60405180910390f35b6103b060048036038101906103ab91906142d6565b610a7f565b005b6103ba610a99565b6040516103c79190614024565b60405180910390f35b6103ea60048036038101906103e59190614347565b610ab0565b005b61040660048036038101906104019190614130565b610abf565b604051610413919061419e565b60405180910390f35b610436600480360381019061043191906142d6565b610b46565b60405161044391906142bb565b60405180910390f35b610466600480360381019061046191906142d6565b610bfe565b60405161047391906142bb565b60405180910390f35b610484610c4e565b005b6104a0600480360381019061049b9190614130565b610c58565b6040516104ad91906142bb565b60405180910390f35b6104be610cb7565b6040516104cb91906140d8565b60405180910390f35b6104ee60048036038101906104e991906142d6565b610d49565b6040516104fb91906142bb565b60405180910390f35b61051e600480360381019061051991906141e5565b610db7565b005b61053a600480360381019061053591906143b3565b610dc5565b005b61055660048036038101906105519190614528565b610ddb565b005b610572600480360381019061056d9190614610565b610e3d565b005b61058e60048036038101906105899190614130565b610f41565b60405161059b91906140d8565b60405180910390f35b6105be60048036038101906105b9919061469d565b610fa9565b6040516105cb9190614024565b60405180910390f35b60007f80ac58cd000000000000000000000000000000000000000000000000000000007bffffffffffffffffffffffffffffffffffffffffffffffffffffffff1916827bffffffffffffffffffffffffffffffffffffffffffffffffffffffff1916148061069f57507f5b5e139f000000000000000000000000000000000000000000000000000000007bffffffffffffffffffffffffffffffffffffffffffffffffffffffff1916827bffffffffffffffffffffffffffffffffffffffffffffffffffffffff1916145b806106af57506106ae826115ae565b5b9050919050565b6060600080546106c59061470c565b80601f01602080910402602001604051908101604052809291908181526020018280546106f19061470c565b801561073e5780601f106107135761010080835404028352916020019161073e565b820191906000526020600020905b81548152906001019060200180831161072157829003601f168201915b5050505050905090565b600061075382611618565b6004600083815260200190815260200160002060009054906101000a900473ffffffffffffffffffffffffffffffffffffffff169050919050565b600061079982610abf565b90508073ffffffffffffffffffffffffffffffffffffffff168373ffffffffffffffffffffffffffffffffffffffff16141561080a576040517f08c379a0000000000000000000000000000000000000000000000000000000008152600401610801906147b0565b60405180910390fd5b8073ffffffffffffffffffffffffffffffffffffffff16610829611663565b73ffffffffffffffffffffffffffffffffffffffff161480610858575061085781610852611663565b610fa9565b5b610897576040517f08c379a000000000000000000000000000000000000000000000000000000000815260040161088e90614842565b60405180910390fd5b6108a1838361166b565b505050565b6108b76108b1611663565b82611724565b6108f6576040517f08c379a00000000000000000000000000000000000000000000000000000000081526004016108ed906148d4565b60405180910390fd5b6109018383836117b9565b505050565b6000610910611ab3565b905090565b600061096882600a60008673ffffffffffffffffffffffffffffffffffffffff1673ffffffffffffffffffffffffffffffffffffffff168152602001908152602001600020611bcd90919063ffffffff16565b905092915050565b610978611d32565b565b6109848282611d95565b5050565b6109a383838360405180602001604052806000815250610ddb565b505050565b6109b96109b3611663565b82611724565b6109f8576040517f08c379a00000000000000000000000000000000000000000000000000000000081526004016109ef906148d4565b60405180910390fd5b610a0181611da3565b50565b6000610a0f82611ef1565b9050919050565b6000600960008373ffffffffffffffffffffffffffffffffffffffff1673ffffffffffffffffffffffffffffffffffffffff16815260200190815260200160002060009054906101000a900473ffffffffffffffffffffffffffffffffffffffff169050919050565b6000610a89611663565b9050610a958183611f32565b5050565b6000600860009054906101000a900460ff16905090565b610aba8282612046565b505050565b600080610acb83612290565b9050600073ffffffffffffffffffffffffffffffffffffffff168173ffffffffffffffffffffffffffffffffffffffff161415610b3d576040517f08c379a0000000000000000000000000000000000000000000000000000000008152600401610b3490614940565b60405180910390fd5b80915050919050565b60008073ffffffffffffffffffffffffffffffffffffffff168273ffffffffffffffffffffffffffffffffffffffff161415610bb7576040517f08c379a0000000000000000000000000000000000000000000000000000000008152600401610bae906149d2565b60405180910390fd5b600360008373ffffffffffffffffffffffffffffffffffffffff1673ffffffffffffffffffffffffffffffffffffffff168152602001908152602001600020549050919050565b6000610c47600c60008473ffffffffffffffffffffffffffffffffffffffff1673ffffffffffffffffffffffffffffffffffffffff1681526020019081526020016000206122a2565b9050919050565b610c566122b0565b565b6000438210610c9c576040517f08c379a0000000000000000000000000000000000000000000000000000000008152600401610c9390614a3e565b60405180910390fd5b610cb082600b611bcd90919063ffffffff16565b9050919050565b606060018054610cc69061470c565b80601f0160208091040260200160405190810160405280929190818152602001828054610cf29061470c565b8015610d3f5780601f10610d1457610100808354040283529160200191610d3f565b820191906000526020600020905b815481529060010190602001808311610d2257829003601f168201915b5050505050905090565b6000610d92600a60008473ffffffffffffffffffffffffffffffffffffffff1673ffffffffffffffffffffffffffffffffffffffff168152602001908152602001600020612313565b7bffffffffffffffffffffffffffffffffffffffffffffffffffffffff169050919050565b610dc1828261237d565b5050565b610dd7610dd0611663565b838361239b565b5050565b610dec610de6611663565b83611724565b610e2b576040517f08c379a0000000000000000000000000000000000000000000000000000000008152600401610e22906148d4565b60405180910390fd5b610e3784848484612508565b50505050565b83421115610e80576040517f08c379a0000000000000000000000000000000000000000000000000000000008152600401610e7790614aaa565b60405180910390fd5b6000610ee2610eda7fe48329057bfd03d55e49b547132e39cffd9c1820ad7b9d4c5307691425d15adf898989604051602001610ebf9493929190614aca565b60405160208183030381529060405280519060200120612564565b85858561257e565b9050610eed816125a9565b8614610f2e576040517f08c379a0000000000000000000000000000000000000000000000000000000008152600401610f2590614b5b565b60405180910390fd5b610f388188611f32565b50505050505050565b6060610f4c82611618565b6000610f56612607565b90506000815111610f765760405180602001604052806000815250610fa1565b80610f808461261e565b604051602001610f91929190614bb7565b6040516020818303038152906040525b915050919050565b6000600560008473ffffffffffffffffffffffffffffffffffffffff1673ffffffffffffffffffffffffffffffffffffffff16815260200190815260200160002060008373ffffffffffffffffffffffffffffffffffffffff1673ffffffffffffffffffffffffffffffffffffffff16815260200190815260200160002060009054906101000a900460ff16905092915050565b6000808273ffffffffffffffffffffffffffffffffffffffff163b119050919050565b6000806110718560000185856126f6565b91509150935093915050565b6000818361108b9190614c0a565b905092915050565b6000806110d3856110ce6110a688612313565b7bffffffffffffffffffffffffffffffffffffffffffffffffffffffff16868863ffffffff16565b612a8d565b91509150935093915050565b600081836110ed9190614c3e565b905092915050565b60008060008084600001805490509050600081141561111f576000806000935093509350506111f0565b600061113a866000016001846111359190614c0a565b612afb565b6040518060400160405290816000820160009054906101000a90046bffffffffffffffffffffffff166bffffffffffffffffffffffff166bffffffffffffffffffffffff16815260200160008201600c9054906101000a900473ffffffffffffffffffffffffffffffffffffffff1673ffffffffffffffffffffffffffffffffffffffff1673ffffffffffffffffffffffffffffffffffffffff1681525050905060018160000151826020015194509450945050505b9193909250565b6112038484848461126e565b61120b610a99565b1561124b576040517f08c379a000000000000000000000000000000000000000000000000000000000815260040161124290614d06565b60405180910390fd5b50505050565b61125c848483612b10565b61126884848484611394565b50505050565b600181111561138e57600073ffffffffffffffffffffffffffffffffffffffff168473ffffffffffffffffffffffffffffffffffffffff16146113025780600360008673ffffffffffffffffffffffffffffffffffffffff1673ffffffffffffffffffffffffffffffffffffffff16815260200190815260200160002060008282546112fa9190614c0a565b925050819055505b600073ffffffffffffffffffffffffffffffffffffffff168373ffffffffffffffffffffffffffffffffffffffff161461138d5780600360008573ffffffffffffffffffffffffffffffffffffffff1673ffffffffffffffffffffffffffffffffffffffff16815260200190815260200160002060008282546113859190614c3e565b925050819055505b5b50505050565b600073ffffffffffffffffffffffffffffffffffffffff168373ffffffffffffffffffffffffffffffffffffffff161480156113e457506113d3612bd0565b6bffffffffffffffffffffffff1682105b801561140157506113ff82600761152e90919063ffffffff16565b155b1561145e5760018114611449576040517f08c379a000000000000000000000000000000000000000000000000000000000815260040161144090614d98565b60405180910390fd5b61145d82600761156a90919063ffffffff16565b5b61146a848484846115a8565b50505050565b600063ffffffff80168211156114bb576040517f08c379a00000000000000000000000000000000000000000000000000000000081526004016114b290614e2a565b60405180910390fd5b819050919050565b60007bffffffffffffffffffffffffffffffffffffffffffffffffffffffff8016821115611526576040517f08c379a000000000000000000000000000000000000000000000000000000000815260040161151d90614ebc565b60405180910390fd5b819050919050565b600080600883901c9050600060ff84166001901b9050600081866000016000858152602001908152602001600020541614159250505092915050565b6000600882901c9050600060ff83166001901b9050808460000160008481526020019081526020016000206000828254179250508190555050505050565b50505050565b60007f01ffc9a7000000000000000000000000000000000000000000000000000000007bffffffffffffffffffffffffffffffffffffffffffffffffffffffff1916827bffffffffffffffffffffffffffffffffffffffffffffffffffffffff1916149050919050565b61162181611ef1565b611660576040517f08c379a000000000000000000000000000000000000000000000000000000000815260040161165790614940565b60405180910390fd5b50565b600033905090565b816004600083815260200190815260200160002060006101000a81548173ffffffffffffffffffffffffffffffffffffffff021916908373ffffffffffffffffffffffffffffffffffffffff160217905550808273ffffffffffffffffffffffffffffffffffffffff166116de83610abf565b73ffffffffffffffffffffffffffffffffffffffff167f8c5be1e5ebec7d5bd14f71427d1e84f3dd0314c0f7b2291e5b200ac8c7c3b92560405160405180910390a45050565b60008061173083610abf565b90508073ffffffffffffffffffffffffffffffffffffffff168473ffffffffffffffffffffffffffffffffffffffff16148061177257506117718185610fa9565b5b806117b057508373ffffffffffffffffffffffffffffffffffffffff1661179884610748565b73ffffffffffffffffffffffffffffffffffffffff16145b91505092915050565b8273ffffffffffffffffffffffffffffffffffffffff166117d982610abf565b73ffffffffffffffffffffffffffffffffffffffff161461182f576040517f08c379a000000000000000000000000000000000000000000000000000000000815260040161182690614f4e565b60405180910390fd5b600073ffffffffffffffffffffffffffffffffffffffff168273ffffffffffffffffffffffffffffffffffffffff16141561189f576040517f08c379a000000000000000000000000000000000000000000000000000000000815260040161189690614fe0565b60405180910390fd5b6118ac8383836001612c05565b8273ffffffffffffffffffffffffffffffffffffffff166118cc82610abf565b73ffffffffffffffffffffffffffffffffffffffff1614611922576040517f08c379a000000000000000000000000000000000000000000000000000000000815260040161191990614f4e565b60405180910390fd5b6004600082815260200190815260200160002060006101000a81549073ffffffffffffffffffffffffffffffffffffffff02191690556001600360008573ffffffffffffffffffffffffffffffffffffffff1673ffffffffffffffffffffffffffffffffffffffff168152602001908152602001600020600082825403925050819055506001600360008473ffffffffffffffffffffffffffffffffffffffff1673ffffffffffffffffffffffffffffffffffffffff16815260200190815260200160002060008282540192505081905550816002600083815260200190815260200160002060006101000a81548173ffffffffffffffffffffffffffffffffffffffff021916908373ffffffffffffffffffffffffffffffffffffffff160217905550808273ffffffffffffffffffffffffffffffffffffffff168473ffffffffffffffffffffffffffffffffffffffff167fddf252ad1be2c89b69c2b068fc378daa952ba7f163c4a11628f55a4df523b3ef60405160405180910390a4611aae8383836001612c17565b505050565b60007f000000000000000000000000000000000000000000000000000000000000000073ffffffffffffffffffffffffffffffffffffffff163073ffffffffffffffffffffffffffffffffffffffff16148015611b2f57507f000000000000000000000000000000000000000000000000000000000000000046145b15611b5c577f00000000000000000000000000000000000000000000000000000000000000009050611bca565b611bc77f00000000000000000000000000000000000000000000000000000000000000007f00000000000000000000000000000000000000000000000000000000000000007f0000000000000000000000000000000000000000000000000000000000000000612c29565b90505b90565b6000438210611c11576040517f08c379a0000000000000000000000000000000000000000000000000000000008152600401611c089061504c565b60405180910390fd5b6000611c1c83611470565b90506000846000018054905090506000808290506005831115611c9f576000611c4484612c63565b84611c4f9190614c0a565b9050611c5e8860000182612d5d565b60000160009054906101000a900463ffffffff1663ffffffff168563ffffffff161015611c8d57809150611c9d565b600181611c9a9190614c3e565b92505b505b6000611cb088600001868585612d72565b905060008114611d0457611cd388600001600183611cce9190614c0a565b612d5d565b60000160049054906101000a90047bffffffffffffffffffffffffffffffffffffffffffffffffffffffff16611d07565b60005b7bffffffffffffffffffffffffffffffffffffffffffffffffffffffff169550505050505092915050565b611d3a612de5565b6000600860006101000a81548160ff0219169083151502179055507f5db9ee0a495bf2e6ff9c91a7834c1ba4fdd244a5e8aa4e537bd38aeae4b073aa611d7e611663565b604051611d8b919061419e565b60405180910390a1565b611d9f8282612e2e565b5050565b6000611dae82610abf565b9050611dbe816000846001612c05565b611dc782610abf565b90506004600083815260200190815260200160002060006101000a81549073ffffffffffffffffffffffffffffffffffffffff02191690556001600360008373ffffffffffffffffffffffffffffffffffffffff1673ffffffffffffffffffffffffffffffffffffffff168152602001908152602001600020600082825403925050819055506002600083815260200190815260200160002060006101000a81549073ffffffffffffffffffffffffffffffffffffffff021916905581600073ffffffffffffffffffffffffffffffffffffffff168273ffffffffffffffffffffffffffffffffffffffff167fddf252ad1be2c89b69c2b068fc378daa952ba7f163c4a11628f55a4df523b3ef60405160405180910390a4611eed816000846001612c17565b5050565b60008073ffffffffffffffffffffffffffffffffffffffff16611f1383612290565b73ffffffffffffffffffffffffffffffffffffffff1614159050919050565b6000611f3d83610a16565b905081600960008573ffffffffffffffffffffffffffffffffffffffff1673ffffffffffffffffffffffffffffffffffffffff16815260200190815260200160002060006101000a81548173ffffffffffffffffffffffffffffffffffffffff021916908373ffffffffffffffffffffffffffffffffffffffff1602179055508173ffffffffffffffffffffffffffffffffffffffff168173ffffffffffffffffffffffffffffffffffffffff168473ffffffffffffffffffffffffffffffffffffffff167f3134e8a2e6d97e929a7e54011ea5485d7d196dd5f0ba4d4ef95803e8e3fc257f60405160405180910390a4612041818361203c86612e84565b612e96565b505050565b600080612051612bd0565b90506000836bffffffffffffffffffffffff161115612286576120733061103d565b156120b3576040517f08c379a00000000000000000000000000000000000000000000000000000000081526004016120aa906150de565b60405180910390fd5b600073ffffffffffffffffffffffffffffffffffffffff168473ffffffffffffffffffffffffffffffffffffffff161415612123576040517f08c379a000000000000000000000000000000000000000000000000000000000815260040161211a90615170565b60405180910390fd5b61212b6130a3565b6bffffffffffffffffffffffff16836bffffffffffffffffffffffff161115612189576040517f08c379a000000000000000000000000000000000000000000000000000000000815260040161218090615202565b60405180910390fd5b6121b2600085836bffffffffffffffffffffffff16866bffffffffffffffffffffffff16612c05565b6000600184836121c29190615222565b6121cc9190615264565b90506121e4818660066110609092919063ffffffff16565b50508473ffffffffffffffffffffffffffffffffffffffff16600073ffffffffffffffffffffffffffffffffffffffff16836bffffffffffffffffffffffff167fdeaa91b6123d068f5821d0fb0678463d1a8a6079fe8af5de3ce5e896dcf9133d8460405161225391906152d3565b60405180910390a4612284600086846bffffffffffffffffffffffff16876bffffffffffffffffffffffff16612c17565b505b8091505092915050565b600061229b826130ad565b9050919050565b600081600001549050919050565b6122b861314f565b6001600860006101000a81548160ff0219169083151502179055507f62e78cea01bee320cd4e420270b5ea74000d11b0c9f74754ebdbfc544b05a2586122fc611663565b604051612309919061419e565b60405180910390a1565b6000808260000180549050905060008114612372576123418360000160018361233c9190614c0a565b612d5d565b60000160049054906101000a90047bffffffffffffffffffffffffffffffffffffffffffffffffffffffff16612375565b60005b915050919050565b612397828260405180602001604052806000815250613199565b5050565b8173ffffffffffffffffffffffffffffffffffffffff168373ffffffffffffffffffffffffffffffffffffffff16141561240a576040517f08c379a00000000000000000000000000000000000000000000000000000000081526004016124019061533a565b60405180910390fd5b80600560008573ffffffffffffffffffffffffffffffffffffffff1673ffffffffffffffffffffffffffffffffffffffff16815260200190815260200160002060008473ffffffffffffffffffffffffffffffffffffffff1673ffffffffffffffffffffffffffffffffffffffff16815260200190815260200160002060006101000a81548160ff0219169083151502179055508173ffffffffffffffffffffffffffffffffffffffff168373ffffffffffffffffffffffffffffffffffffffff167f17307eab39ab6107e8899845ad3d59bd9653f200f220920489ca2b5937696c31836040516124fb9190614024565b60405180910390a3505050565b6125138484846117b9565b61251f848484846131f4565b61255e576040517f08c379a0000000000000000000000000000000000000000000000000000000008152600401612555906153cc565b60405180910390fd5b50505050565b6000612577612571611ab3565b8361338b565b9050919050565b600080600061258f878787876133be565b9150915061259c816134a1565b8192505050949350505050565b600080600c60008473ffffffffffffffffffffffffffffffffffffffff1673ffffffffffffffffffffffffffffffffffffffff16815260200190815260200160002090506125f6816122a2565b91506126018161360f565b50919050565b606060405180602001604052806000815250905090565b60606000600161262d84613625565b01905060008167ffffffffffffffff81111561264c5761264b6143fd565b5b6040519080825280601f01601f19166020018201604052801561267e5781602001600182028036833780820191505090505b509050600082602001820190505b6001156126eb578080600190039150507f3031323334353637383961626364656600000000000000000000000000000000600a86061a8153600a85816126d5576126d46153ec565b5b04945060008514156126e6576126eb565b61268c565b819350505050919050565b600080600085805490509050600081111561299d5760006127238760018461271e9190614c0a565b612afb565b6040518060400160405290816000820160009054906101000a90046bffffffffffffffffffffffff166bffffffffffffffffffffffff166bffffffffffffffffffffffff16815260200160008201600c9054906101000a900473ffffffffffffffffffffffffffffffffffffffff1673ffffffffffffffffffffffffffffffffffffffff1673ffffffffffffffffffffffffffffffffffffffff16815250509050856bffffffffffffffffffffffff1681600001516bffffffffffffffffffffffff161115612827576040517f08c379a000000000000000000000000000000000000000000000000000000000815260040161281e90615467565b60405180910390fd5b856bffffffffffffffffffffffff1681600001516bffffffffffffffffffffffff1614156128ac5784612866886001856128619190614c0a565b612afb565b600001600c6101000a81548173ffffffffffffffffffffffffffffffffffffffff021916908373ffffffffffffffffffffffffffffffffffffffff16021790555061298c565b866040518060400160405280886bffffffffffffffffffffffff1681526020018773ffffffffffffffffffffffffffffffffffffffff168152509080600181540180825580915050600190039060005260206000200160009091909190915060008201518160000160006101000a8154816bffffffffffffffffffffffff02191690836bffffffffffffffffffffffff160217905550602082015181600001600c6101000a81548173ffffffffffffffffffffffffffffffffffffffff021916908373ffffffffffffffffffffffffffffffffffffffff16021790555050505b806020015185935093505050612a85565b856040518060400160405280876bffffffffffffffffffffffff1681526020018673ffffffffffffffffffffffffffffffffffffffff168152509080600181540180825580915050600190039060005260206000200160009091909190915060008201518160000160006101000a8154816bffffffffffffffffffffffff02191690836bffffffffffffffffffffffff160217905550602082015181600001600c6101000a81548173ffffffffffffffffffffffffffffffffffffffff021916908373ffffffffffffffffffffffffffffffffffffffff160217905550505060008492509250505b935093915050565b600080612aae84600001612aa043611470565b612aa9866114c3565b613778565b817bffffffffffffffffffffffffffffffffffffffffffffffffffffffff169150807bffffffffffffffffffffffffffffffffffffffffffffffffffffffff169050915091509250929050565b60008260005281602060002001905092915050565b600073ffffffffffffffffffffffffffffffffffffffff168373ffffffffffffffffffffffffffffffffffffffff161415612b6057612b5d6110df82600b6110939092919063ffffffff16565b50505b600073ffffffffffffffffffffffffffffffffffffffff168273ffffffffffffffffffffffffffffffffffffffff161415612bb057612bad61107d82600b6110939092919063ffffffff16565b50505b612bcb612bbc84610a16565b612bc584610a16565b83612e96565b505050565b6000806000612bdf60066110f5565b509150915081612bf0576000612bfe565b600181612bfd9190615222565b5b9250505090565b612c11848484846111f7565b50505050565b612c2384848484611251565b50505050565b60008383834630604051602001612c44959493929190615487565b6040516020818303038152906040528051906020012090509392505050565b600080821415612c765760009050612d58565b60006001612c8384613aff565b901c6001901b90506001818481612c9d57612c9c6153ec565b5b048201901c90506001818481612cb657612cb56153ec565b5b048201901c90506001818481612ccf57612cce6153ec565b5b048201901c90506001818481612ce857612ce76153ec565b5b048201901c90506001818481612d0157612d006153ec565b5b048201901c90506001818481612d1a57612d196153ec565b5b048201901c90506001818481612d3357612d326153ec565b5b048201901c9050612d5481828581612d4e57612d4d6153ec565b5b04613be0565b9150505b919050565b60008260005281602060002001905092915050565b60005b81831015612dda576000612d898484613bf9565b90508463ffffffff16612d9c8783612d5d565b60000160009054906101000a900463ffffffff1663ffffffff161115612dc457809250612dd4565b600181612dd19190614c3e565b93505b50612d75565b819050949350505050565b612ded610a99565b612e2c576040517f08c379a0000000000000000000000000000000000000000000000000000000008152600401612e2390615526565b60405180910390fd5b565b612e373061103d565b612e76576040517f08c379a0000000000000000000000000000000000000000000000000000000008152600401612e6d906155b8565b60405180910390fd5b612e808282613c1f565b5050565b6000612e8f82610b46565b9050919050565b8173ffffffffffffffffffffffffffffffffffffffff168373ffffffffffffffffffffffffffffffffffffffff1614158015612ed25750600081115b1561309e57600073ffffffffffffffffffffffffffffffffffffffff168373ffffffffffffffffffffffffffffffffffffffff1614612fba57600080612f6361107d84600a60008973ffffffffffffffffffffffffffffffffffffffff1673ffffffffffffffffffffffffffffffffffffffff1681526020019081526020016000206110939092919063ffffffff16565b915091508473ffffffffffffffffffffffffffffffffffffffff167fdec2bacdd2f05b59de34da9b523dff8be42e5e38e818c82fdb0bae774387a7248383604051612faf9291906155d8565b60405180910390a250505b600073ffffffffffffffffffffffffffffffffffffffff168273ffffffffffffffffffffffffffffffffffffffff161461309d576000806130466110df84600a60008873ffffffffffffffffffffffffffffffffffffffff1673ffffffffffffffffffffffffffffffffffffffff1681526020019081526020016000206110939092919063ffffffff16565b915091508373ffffffffffffffffffffffffffffffffffffffff167fdec2bacdd2f05b59de34da9b523dff8be42e5e38e818c82fdb0bae774387a72483836040516130929291906155d8565b60405180910390a250505b5b505050565b6000611388905090565b6000806130b983613e3d565b9050600073ffffffffffffffffffffffffffffffffffffffff168173ffffffffffffffffffffffffffffffffffffffff1614158061310457506bffffffffffffffffffffffff801683115b15613112578091505061314a565b61312683600761152e90919063ffffffff16565b6131435761313e836006613e7a90919063ffffffff16565b613146565b60005b9150505b919050565b613157610a99565b15613197576040517f08c379a000000000000000000000000000000000000000000000000000000000815260040161318e9061564d565b60405180910390fd5b565b6131a38383611d95565b6131b060008484846131f4565b6131ef576040517f08c379a00000000000000000000000000000000000000000000000000000000081526004016131e6906153cc565b60405180910390fd5b505050565b60006132158473ffffffffffffffffffffffffffffffffffffffff1661103d565b1561337e578373ffffffffffffffffffffffffffffffffffffffff1663150b7a0261323e611663565b8786866040518563ffffffff1660e01b815260040161326094939291906156c2565b602060405180830381600087803b15801561327a57600080fd5b505af19250505080156132ab57506040513d601f19601f820116820180604052508101906132a89190615723565b60015b61332e573d80600081146132db576040519150601f19603f3d011682016040523d82523d6000602084013e6132e0565b606091505b50600081511415613326576040517f08c379a000000000000000000000000000000000000000000000000000000000815260040161331d906153cc565b60405180910390fd5b805181602001fd5b63150b7a0260e01b7bffffffffffffffffffffffffffffffffffffffffffffffffffffffff1916817bffffffffffffffffffffffffffffffffffffffffffffffffffffffff191614915050613383565b600190505b949350505050565b600082826040516020016133a09291906157bd565b60405160208183030381529060405280519060200120905092915050565b6000807f7fffffffffffffffffffffffffffffff5d576e7357a4501ddfe92f46681b20a08360001c11156133f9576000600391509150613498565b60006001878787876040516000815260200160405260405161341e9493929190615803565b6020604051602081039080840390855afa158015613440573d6000803e3d6000fd5b505050602060405103519050600073ffffffffffffffffffffffffffffffffffffffff168173ffffffffffffffffffffffffffffffffffffffff16141561348f57600060019250925050613498565b80600092509250505b94509492505050565b600060048111156134b5576134b4615848565b5b8160048111156134c8576134c7615848565b5b14156134d35761360c565b600160048111156134e7576134e6615848565b5b8160048111156134fa576134f9615848565b5b141561353b576040517f08c379a0000000000000000000000000000000000000000000000000000000008152600401613532906158c3565b60405180910390fd5b6002600481111561354f5761354e615848565b5b81600481111561356257613561615848565b5b14156135a3576040517f08c379a000000000000000000000000000000000000000000000000000000000815260040161359a9061592f565b60405180910390fd5b600360048111156135b7576135b6615848565b5b8160048111156135ca576135c9615848565b5b141561360b576040517f08c379a0000000000000000000000000000000000000000000000000000000008152600401613602906159c1565b60405180910390fd5b5b50565b6001816000016000828254019250508190555050565b600080600090507a184f03e93ff9f4daa797ed6e38ed64bf6a1f0100000000000000008310613683577a184f03e93ff9f4daa797ed6e38ed64bf6a1f0100000000000000008381613679576136786153ec565b5b0492506040810190505b6d04ee2d6d415b85acef810000000083106136c0576d04ee2d6d415b85acef810000000083816136b6576136b56153ec565b5b0492506020810190505b662386f26fc1000083106136ef57662386f26fc1000083816136e5576136e46153ec565b5b0492506010810190505b6305f5e1008310613718576305f5e100838161370e5761370d6153ec565b5b0492506008810190505b612710831061373d576127108381613733576137326153ec565b5b0492506004810190505b606483106137605760648381613756576137556153ec565b5b0492506002810190505b600a831061376f576001810190505b80915050919050565b6000806000858054905090506000811115613a0f5760006137a5876001846137a09190614c0a565b612d5d565b6040518060400160405290816000820160009054906101000a900463ffffffff1663ffffffff1663ffffffff1681526020016000820160049054906101000a90047bffffffffffffffffffffffffffffffffffffffffffffffffffffffff167bffffffffffffffffffffffffffffffffffffffffffffffffffffffff167bffffffffffffffffffffffffffffffffffffffffffffffffffffffff168152505090508563ffffffff16816000015163ffffffff161115613899576040517f08c379a000000000000000000000000000000000000000000000000000000000815260040161389090615467565b60405180910390fd5b8563ffffffff16816000015163ffffffff16141561391e57846138c8886001856138c39190614c0a565b612d5d565b60000160046101000a8154817bffffffffffffffffffffffffffffffffffffffffffffffffffffffff02191690837bffffffffffffffffffffffffffffffffffffffffffffffffffffffff1602179055506139fe565b8660405180604001604052808863ffffffff168152602001877bffffffffffffffffffffffffffffffffffffffffffffffffffffffff168152509080600181540180825580915050600190039060005260206000200160009091909190915060008201518160000160006101000a81548163ffffffff021916908363ffffffff16021790555060208201518160000160046101000a8154817bffffffffffffffffffffffffffffffffffffffffffffffffffffffff02191690837bffffffffffffffffffffffffffffffffffffffffffffffffffffffff16021790555050505b806020015185935093505050613af7565b8560405180604001604052808763ffffffff168152602001867bffffffffffffffffffffffffffffffffffffffffffffffffffffffff168152509080600181540180825580915050600190039060005260206000200160009091909190915060008201518160000160006101000a81548163ffffffff021916908363ffffffff16021790555060208201518160000160046101000a8154817bffffffffffffffffffffffffffffffffffffffffffffffffffffffff02191690837bffffffffffffffffffffffffffffffffffffffffffffffffffffffff160217905550505060008492509250505b935093915050565b600080600090506000608084901c1115613b2157608083901c92506080810190505b6000604084901c1115613b3c57604083901c92506040810190505b6000602084901c1115613b5757602083901c92506020810190505b6000601084901c1115613b7257601083901c92506010810190505b6000600884901c1115613b8d57600883901c92506008810190505b6000600484901c1115613ba857600483901c92506004810190505b6000600284901c1115613bc357600283901c92506002810190505b6000600184901c1115613bd7576001810190505b80915050919050565b6000818310613bef5781613bf1565b825b905092915050565b60006002828418613c0a91906159e1565b828416613c179190614c3e565b905092915050565b600073ffffffffffffffffffffffffffffffffffffffff168273ffffffffffffffffffffffffffffffffffffffff161415613c8f576040517f08c379a0000000000000000000000000000000000000000000000000000000008152600401613c8690615a5e565b60405180910390fd5b613c9881611ef1565b15613cd8576040517f08c379a0000000000000000000000000000000000000000000000000000000008152600401613ccf90615aca565b60405180910390fd5b613ce6600083836001612c05565b613cef81611ef1565b15613d2f576040517f08c379a0000000000000000000000000000000000000000000000000000000008152600401613d2690615aca565b60405180910390fd5b6001600360008473ffffffffffffffffffffffffffffffffffffffff1673ffffffffffffffffffffffffffffffffffffffff16815260200190815260200160002060008282540192505081905550816002600083815260200190815260200160002060006101000a81548173ffffffffffffffffffffffffffffffffffffffff021916908373ffffffffffffffffffffffffffffffffffffffff160217905550808273ffffffffffffffffffffffffffffffffffffffff16600073ffffffffffffffffffffffffffffffffffffffff167fddf252ad1be2c89b69c2b068fc378daa952ba7f163c4a11628f55a4df523b3ef60405160405180910390a4613e39600083836001612c17565b5050565b60006002600083815260200190815260200160002060009054906101000a900473ffffffffffffffffffffffffffffffffffffffff169050919050565b600080836000018054905090506000613e998560000185600085613ee5565b9050818114613ed857613eaf8560000182612afb565b600001600c9054906101000a900473ffffffffffffffffffffffffffffffffffffffff16613edb565b60005b9250505092915050565b60005b81831015613f65576000613efc8484613bf9565b9050846bffffffffffffffffffffffff16613f178783612afb565b60000160009054906101000a90046bffffffffffffffffffffffff166bffffffffffffffffffffffff161015613f5b57600181613f549190614c3e565b9350613f5f565b8092505b50613ee8565b819050949350505050565b6000604051905090565b600080fd5b600080fd5b60007fffffffff0000000000000000000000000000000000000000000000000000000082169050919050565b613fb981613f84565b8114613fc457600080fd5b50565b600081359050613fd681613fb0565b92915050565b600060208284031215613ff257613ff1613f7a565b5b600061400084828501613fc7565b91505092915050565b60008115159050919050565b61401e81614009565b82525050565b60006020820190506140396000830184614015565b92915050565b600081519050919050565b600082825260208201905092915050565b60005b8381101561407957808201518184015260208101905061405e565b83811115614088576000848401525b50505050565b6000601f19601f8301169050919050565b60006140aa8261403f565b6140b4818561404a565b93506140c481856020860161405b565b6140cd8161408e565b840191505092915050565b600060208201905081810360008301526140f2818461409f565b905092915050565b6000819050919050565b61410d816140fa565b811461411857600080fd5b50565b60008135905061412a81614104565b92915050565b60006020828403121561414657614145613f7a565b5b60006141548482850161411b565b91505092915050565b600073ffffffffffffffffffffffffffffffffffffffff82169050919050565b60006141888261415d565b9050919050565b6141988161417d565b82525050565b60006020820190506141b3600083018461418f565b92915050565b6141c28161417d565b81146141cd57600080fd5b50565b6000813590506141df816141b9565b92915050565b600080604083850312156141fc576141fb613f7a565b5b600061420a858286016141d0565b925050602061421b8582860161411b565b9150509250929050565b60008060006060848603121561423e5761423d613f7a565b5b600061424c868287016141d0565b935050602061425d868287016141d0565b925050604061426e8682870161411b565b9150509250925092565b6000819050919050565b61428b81614278565b82525050565b60006020820190506142a66000830184614282565b92915050565b6142b5816140fa565b82525050565b60006020820190506142d060008301846142ac565b92915050565b6000602082840312156142ec576142eb613f7a565b5b60006142fa848285016141d0565b91505092915050565b60006bffffffffffffffffffffffff82169050919050565b61432481614303565b811461432f57600080fd5b50565b6000813590506143418161431b565b92915050565b6000806040838503121561435e5761435d613f7a565b5b600061436c858286016141d0565b925050602061437d85828601614332565b9150509250929050565b61439081614009565b811461439b57600080fd5b50565b6000813590506143ad81614387565b92915050565b600080604083850312156143ca576143c9613f7a565b5b60006143d8858286016141d0565b92505060206143e98582860161439e565b9150509250929050565b600080fd5b600080fd5b7f4e487b7100000000000000000000000000000000000000000000000000000000600052604160045260246000fd5b6144358261408e565b810181811067ffffffffffffffff82111715614454576144536143fd565b5b80604052505050565b6000614467613f70565b9050614473828261442c565b919050565b600067ffffffffffffffff821115614493576144926143fd565b5b61449c8261408e565b9050602081019050919050565b82818337600083830152505050565b60006144cb6144c684614478565b61445d565b9050828152602081018484840111156144e7576144e66143f8565b5b6144f28482856144a9565b509392505050565b600082601f83011261450f5761450e6143f3565b5b813561451f8482602086016144b8565b91505092915050565b6000806000806080858703121561454257614541613f7a565b5b6000614550878288016141d0565b9450506020614561878288016141d0565b93505060406145728782880161411b565b925050606085013567ffffffffffffffff81111561459357614592613f7f565b5b61459f878288016144fa565b91505092959194509250565b600060ff82169050919050565b6145c1816145ab565b81146145cc57600080fd5b50565b6000813590506145de816145b8565b92915050565b6145ed81614278565b81146145f857600080fd5b50565b60008135905061460a816145e4565b92915050565b60008060008060008060c0878903121561462d5761462c613f7a565b5b600061463b89828a016141d0565b965050602061464c89828a0161411b565b955050604061465d89828a0161411b565b945050606061466e89828a016145cf565b935050608061467f89828a016145fb565b92505060a061469089828a016145fb565b9150509295509295509295565b600080604083850312156146b4576146b3613f7a565b5b60006146c2858286016141d0565b92505060206146d3858286016141d0565b9150509250929050565b7f4e487b7100000000000000000000000000000000000000000000000000000000600052602260045260246000fd5b6000600282049050600182168061472457607f821691505b60208210811415614738576147376146dd565b5b50919050565b7f4552433732313a20617070726f76616c20746f2063757272656e74206f776e6560008201527f7200000000000000000000000000000000000000000000000000000000000000602082015250565b600061479a60218361404a565b91506147a58261473e565b604082019050919050565b600060208201905081810360008301526147c98161478d565b9050919050565b7f4552433732313a20617070726f76652063616c6c6572206973206e6f7420746f60008201527f6b656e206f776e6572206f7220617070726f76656420666f7220616c6c000000602082015250565b600061482c603d8361404a565b9150614837826147d0565b604082019050919050565b6000602082019050818103600083015261485b8161481f565b9050919050565b7f4552433732313a2063616c6c6572206973206e6f7420746f6b656e206f776e6560008201527f72206f7220617070726f76656400000000000000000000000000000000000000602082015250565b60006148be602d8361404a565b91506148c982614862565b604082019050919050565b600060208201905081810360008301526148ed816148b1565b9050919050565b7f4552433732313a20696e76616c696420746f6b656e2049440000000000000000600082015250565b600061492a60188361404a565b9150614935826148f4565b602082019050919050565b600060208201905081810360008301526149598161491d565b9050919050565b7f4552433732313a2061646472657373207a65726f206973206e6f74206120766160008201527f6c6964206f776e65720000000000000000000000000000000000000000000000602082015250565b60006149bc60298361404a565b91506149c782614960565b604082019050919050565b600060208201905081810360008301526149eb816149af565b9050919050565b7f566f7465733a20626c6f636b206e6f7420796574206d696e6564000000000000600082015250565b6000614a28601a8361404a565b9150614a33826149f2565b602082019050919050565b60006020820190508181036000830152614a5781614a1b565b9050919050565b7f566f7465733a207369676e617475726520657870697265640000000000000000600082015250565b6000614a9460188361404a565b9150614a9f82614a5e565b602082019050919050565b60006020820190508181036000830152614ac381614a87565b9050919050565b6000608082019050614adf6000830187614282565b614aec602083018661418f565b614af960408301856142ac565b614b0660608301846142ac565b95945050505050565b7f566f7465733a20696e76616c6964206e6f6e6365000000000000000000000000600082015250565b6000614b4560148361404a565b9150614b5082614b0f565b602082019050919050565b60006020820190508181036000830152614b7481614b38565b9050919050565b600081905092915050565b6000614b918261403f565b614b9b8185614b7b565b9350614bab81856020860161405b565b80840191505092915050565b6000614bc38285614b86565b9150614bcf8284614b86565b91508190509392505050565b7f4e487b7100000000000000000000000000000000000000000000000000000000600052601160045260246000fd5b6000614c15826140fa565b9150614c20836140fa565b925082821015614c3357614c32614bdb565b5b828203905092915050565b6000614c49826140fa565b9150614c54836140fa565b9250827fffffffffffffffffffffffffffffffffffffffffffffffffffffffffffffffff03821115614c8957614c88614bdb565b5b828201905092915050565b7f4552433732315061757361626c653a20746f6b656e207472616e73666572207760008201527f68696c6520706175736564000000000000000000000000000000000000000000602082015250565b6000614cf0602b8361404a565b9150614cfb82614c94565b604082019050919050565b60006020820190508181036000830152614d1f81614ce3565b9050919050565b7f455243373231436f6e73656375746976653a206261746368206275726e206e6f60008201527f7420737570706f72746564000000000000000000000000000000000000000000602082015250565b6000614d82602b8361404a565b9150614d8d82614d26565b604082019050919050565b60006020820190508181036000830152614db181614d75565b9050919050565b7f53616665436173743a2076616c756520646f65736e27742066697420696e203360008201527f3220626974730000000000000000000000000000000000000000000000000000602082015250565b6000614e1460268361404a565b9150614e1f82614db8565b604082019050919050565b60006020820190508181036000830152614e4381614e07565b9050919050565b7f53616665436173743a2076616c756520646f65736e27742066697420696e203260008201527f3234206269747300000000000000000000000000000000000000000000000000602082015250565b6000614ea660278361404a565b9150614eb182614e4a565b604082019050919050565b60006020820190508181036000830152614ed581614e99565b9050919050565b7f4552433732313a207472616e736665722066726f6d20696e636f72726563742060008201527f6f776e6572000000000000000000000000000000000000000000000000000000602082015250565b6000614f3860258361404a565b9150614f4382614edc565b604082019050919050565b60006020820190508181036000830152614f6781614f2b565b9050919050565b7f4552433732313a207472616e7366657220746f20746865207a65726f2061646460008201527f7265737300000000000000000000000000000000000000000000000000000000602082015250565b6000614fca60248361404a565b9150614fd582614f6e565b604082019050919050565b60006020820190508181036000830152614ff981614fbd565b9050919050565b7f436865636b706f696e74733a20626c6f636b206e6f7420796574206d696e6564600082015250565b600061503660208361404a565b915061504182615000565b602082019050919050565b6000602082019050818103600083015261506581615029565b9050919050565b7f455243373231436f6e73656375746976653a206261746368206d696e74696e6760008201527f207265737472696374656420746f20636f6e7374727563746f72000000000000602082015250565b60006150c8603a8361404a565b91506150d38261506c565b604082019050919050565b600060208201905081810360008301526150f7816150bb565b9050919050565b7f455243373231436f6e73656375746976653a206d696e7420746f20746865207a60008201527f65726f2061646472657373000000000000000000000000000000000000000000602082015250565b600061515a602b8361404a565b9150615165826150fe565b604082019050919050565b600060208201905081810360008301526151898161514d565b9050919050565b7f455243373231436f6e73656375746976653a20626174636820746f6f206c617260008201527f6765000000000000000000000000000000000000000000000000000000000000602082015250565b60006151ec60228361404a565b91506151f782615190565b604082019050919050565b6000602082019050818103600083015261521b816151df565b9050919050565b600061522d82614303565b915061523883614303565b9250826bffffffffffffffffffffffff0382111561525957615258614bdb565b5b828201905092915050565b600061526f82614303565b915061527a83614303565b92508282101561528d5761528c614bdb565b5b828203905092915050565b6000819050919050565b60006152bd6152b86152b384614303565b615298565b6140fa565b9050919050565b6152cd816152a2565b82525050565b60006020820190506152e860008301846152c4565b92915050565b7f4552433732313a20617070726f766520746f2063616c6c657200000000000000600082015250565b600061532460198361404a565b915061532f826152ee565b602082019050919050565b6000602082019050818103600083015261535381615317565b9050919050565b7f4552433732313a207472616e7366657220746f206e6f6e20455243373231526560008201527f63656976657220696d706c656d656e7465720000000000000000000000000000602082015250565b60006153b660328361404a565b91506153c18261535a565b604082019050919050565b600060208201905081810360008301526153e5816153a9565b9050919050565b7f4e487b7100000000000000000000000000000000000000000000000000000000600052601260045260246000fd5b7f436865636b706f696e743a20696e76616c6964206b6579000000000000000000600082015250565b600061545160178361404a565b915061545c8261541b565b602082019050919050565b6000602082019050818103600083015261548081615444565b9050919050565b600060a08201905061549c6000830188614282565b6154a96020830187614282565b6154b66040830186614282565b6154c360608301856142ac565b6154d0608083018461418f565b9695505050505050565b7f5061757361626c653a206e6f7420706175736564000000000000000000000000600082015250565b600061551060148361404a565b915061551b826154da565b602082019050919050565b6000602082019050818103600083015261553f81615503565b9050919050565b7f455243373231436f6e73656375746976653a2063616e2774206d696e7420647560008201527f72696e6720636f6e737472756374696f6e000000000000000000000000000000602082015250565b60006155a260318361404a565b91506155ad82615546565b604082019050919050565b600060208201905081810360008301526155d181615595565b9050919050565b60006040820190506155ed60008301856142ac565b6155fa60208301846142ac565b9392505050565b7f5061757361626c653a2070617573656400000000000000000000000000000000600082015250565b600061563760108361404a565b915061564282615601565b602082019050919050565b600060208201905081810360008301526156668161562a565b9050919050565b600081519050919050565b600082825260208201905092915050565b60006156948261566d565b61569e8185615678565b93506156ae81856020860161405b565b6156b78161408e565b840191505092915050565b60006080820190506156d7600083018761418f565b6156e4602083018661418f565b6156f160408301856142ac565b81810360608301526157038184615689565b905095945050505050565b60008151905061571d81613fb0565b92915050565b60006020828403121561573957615738613f7a565b5b60006157478482850161570e565b91505092915050565b7f1901000000000000000000000000000000000000000000000000000000000000600082015250565b6000615786600283614b7b565b915061579182615750565b600282019050919050565b6000819050919050565b6157b76157b282614278565b61579c565b82525050565b60006157c882615779565b91506157d482856157a6565b6020820191506157e482846157a6565b6020820191508190509392505050565b6157fd816145ab565b82525050565b60006080820190506158186000830187614282565b61582560208301866157f4565b6158326040830185614282565b61583f6060830184614282565b95945050505050565b7f4e487b7100000000000000000000000000000000000000000000000000000000600052602160045260246000fd5b7f45434453413a20696e76616c6964207369676e61747572650000000000000000600082015250565b60006158ad60188361404a565b91506158b882615877565b602082019050919050565b600060208201905081810360008301526158dc816158a0565b9050919050565b7f45434453413a20696e76616c6964207369676e6174757265206c656e67746800600082015250565b6000615919601f8361404a565b9150615924826158e3565b602082019050919050565b600060208201905081810360008301526159488161590c565b9050919050565b7f45434453413a20696e76616c6964207369676e6174757265202773272076616c60008201527f7565000000000000000000000000000000000000000000000000000000000000602082015250565b60006159ab60228361404a565b91506159b68261594f565b604082019050919050565b600060208201905081810360008301526159da8161599e565b9050919050565b60006159ec826140fa565b91506159f7836140fa565b925082615a0757615a066153ec565b5b828204905092915050565b7f4552433732313a206d696e7420746f20746865207a65726f2061646472657373600082015250565b6000615a4860208361404a565b9150615a5382615a12565b602082019050919050565b60006020820190508181036000830152615a7781615a3b565b9050919050565b7f4552433732313a20746f6b656e20616c7265616479206d696e74656400000000600082015250565b6000615ab4601c8361404a565b9150615abf82615a7e565b602082019050919050565b60006020820190508181036000830152615ae381615aa7565b905091905056fea26469706673582212205c818148626c071df5f4a1868110bdccda1b7a7aaa9120a03bbd6416825695a764736f6c63430008090033",
  "linkReferences": {},
  "deployedLinkReferences": {}
}