{
  "_format": "hh-sol-artifact-1",
  "contractName": "MigratableMockV2",
  "sourceName": "contracts/openzeppelin/mocks/SingleInheritanceInitializableMocks.sol",
  "abi": [
    {
      "anonymous": false,
      "inputs": [
        {
          "indexed": false,
          "internalType": "uint8",
          "name": "version",
          "type": "uint8"
        }
      ],
      "name": "Initialized",
      "type": "event"
    },
    {
      "inputs": [
        {
          "internalType": "uint256",
          "name": "value",
          "type": "uint256"
        }
      ],
      "name": "initialize",
      "outputs": [],
      "stateMutability": "payable",
      "type": "function"
    },
    {
      "inputs": [
        {
          "internalType": "uint256",
          "name": "value",
          "type": "uint256"
        },
        {
          "internalType": "uint256",
          "name": "anotherValue",
          "type": "uint256"
        }
      ],
      "name": "migrate",
      "outputs": [],
      "stateMutability": "payable",
      "type": "function"
    },
    {
      "inputs": [],
      "name": "x",
      "outputs": [
        {
          "internalType": "uint256",
          "name": "",
          "type": "uint256"
        }
      ],
      "stateMutability": "view",
      "type": "function"
    },
    {
      "inputs": [],
      "name": "y",
      "outputs": [
        {
          "internalType": "uint256",
          "name": "",
          "type": "uint256"
        }
      ],
      "stateMutability": "view",
      "type": "function"
    }
  ],
  "bytecode": "0x608060405234801561001057600080fd5b5061049e806100206000396000f3fe60806040526004361061003f5760003560e01c80630c55699c146100445780633e54bacb1461006f578063a56dfe4a1461008b578063fe4b84df146100b6575b600080fd5b34801561005057600080fd5b506100596100d2565b604051610066919061029f565b60405180910390f35b610089600480360381019061008491906102eb565b6100d8565b005b34801561009757600080fd5b506100a061011f565b6040516100ad919061029f565b60405180910390f35b6100d060048036038101906100cb919061032b565b610125565b005b60015481565b600260009054906101000a900460ff16156100f257600080fd5b81600181905550806003819055506001600260006101000a81548160ff0219169083151502179055505050565b60035481565b60008060019054906101000a900460ff161590508080156101565750600160008054906101000a900460ff1660ff16105b80610183575061016530610263565b1580156101825750600160008054906101000a900460ff1660ff16145b5b6101c2576040517f08c379a00000000000000000000000000000000000000000000000000000000081526004016101b9906103db565b60405180910390fd5b60016000806101000a81548160ff021916908360ff16021790555080156101ff576001600060016101000a81548160ff0219169083151502179055505b81600181905550801561025f5760008060016101000a81548160ff0219169083151502179055507f7f26b83ff96e1f2b6a682f133852f6798a09c465da95921460cefb38474024986001604051610256919061044d565b60405180910390a15b5050565b6000808273ffffffffffffffffffffffffffffffffffffffff163b119050919050565b6000819050919050565b61029981610286565b82525050565b60006020820190506102b46000830184610290565b92915050565b600080fd5b6102c881610286565b81146102d357600080fd5b50565b6000813590506102e5816102bf565b92915050565b60008060408385031215610302576103016102ba565b5b6000610310858286016102d6565b9250506020610321858286016102d6565b9150509250929050565b600060208284031215610341576103406102ba565b5b600061034f848285016102d6565b91505092915050565b600082825260208201905092915050565b7f496e697469616c697a61626c653a20636f6e747261637420697320616c72656160008201527f647920696e697469616c697a6564000000000000000000000000000000000000602082015250565b60006103c5602e83610358565b91506103d082610369565b604082019050919050565b600060208201905081810360008301526103f4816103b8565b9050919050565b6000819050919050565b600060ff82169050919050565b6000819050919050565b600061043761043261042d846103fb565b610412565b610405565b9050919050565b6104478161041c565b82525050565b6000602082019050610462600083018461043e565b9291505056fea2646970667358221220c081dd4b9be7d564f9bb8acc787eb979a55cb41fe6b51e8d41fa9f237537f60a64736f6c63430008090033",
  "linkReferences": {},
  "deployedLinkReferences": {}
}