{
  "_format": "hh-sol-artifact-1",
  "contractName": "BridgePolygonChildMock",
  "sourceName": "contracts/openzeppelin/mocks/crosschain/bridges.sol",
  "abi": [
    {
      "inputs": [
        {
          "internalType": "address",
          "name": "sender",
          "type": "address"
        },
        {
          "internalType": "address",
          "name": "expected",
          "type": "address"
        }
      ],
      "name": "InvalidCrossChainSender",
      "type": "error"
    },
    {
      "inputs": [],
      "name": "NotCrossChainCall",
      "type": "error"
    },
    {
      "inputs": [
        {
          "internalType": "address",
          "name": "target",
          "type": "address"
        },
        {
          "internalType": "bytes",
          "name": "data",
          "type": "bytes"
        },
        {
          "internalType": "address",
          "name": "sender",
          "type": "address"
        }
      ],
      "name": "relayAs",
      "outputs": [],
      "stateMutability": "nonpayable",
      "type": "function"
    }
  ],
  "bytecode": "0x608060405234801561001057600080fd5b50610337806100206000396000f3fe608060405234801561001057600080fd5b506004361061002b5760003560e01c8063fb417a5b14610030575b600080fd5b61004a60048036038101906100459190610191565b61004c565b005b8373ffffffffffffffffffffffffffffffffffffffff16639a7c4b7160008386866040518563ffffffff1660e01b815260040161008c94939291906102c1565b600060405180830381600087803b1580156100a657600080fd5b505af11580156100ba573d6000803e3d6000fd5b5050505050505050565b600080fd5b600080fd5b600073ffffffffffffffffffffffffffffffffffffffff82169050919050565b60006100f9826100ce565b9050919050565b610109816100ee565b811461011457600080fd5b50565b60008135905061012681610100565b92915050565b600080fd5b600080fd5b600080fd5b60008083601f8401126101515761015061012c565b5b8235905067ffffffffffffffff81111561016e5761016d610131565b5b60208301915083600182028301111561018a57610189610136565b5b9250929050565b600080600080606085870312156101ab576101aa6100c4565b5b60006101b987828801610117565b945050602085013567ffffffffffffffff8111156101da576101d96100c9565b5b6101e68782880161013b565b935093505060406101f987828801610117565b91505092959194509250565b6000819050919050565b6000819050919050565b6000819050919050565b600061023e61023961023484610205565b610219565b61020f565b9050919050565b61024e81610223565b82525050565b61025d816100ee565b82525050565b600082825260208201905092915050565b82818337600083830152505050565b6000601f19601f8301169050919050565b60006102a08385610263565b93506102ad838584610274565b6102b683610283565b840190509392505050565b60006060820190506102d66000830187610245565b6102e36020830186610254565b81810360408301526102f6818486610294565b90509594505050505056fea264697066735822122036fbc3abac7cc9af5f71e6460f77a954fcb9c59ae7a69cd2aa340b5e5332145a64736f6c63430008090033",
  "linkReferences": {},
  "deployedLinkReferences": {}
}