{
  "_format": "hh-sol-artifact-1",
  "contractName": "BridgeArbitrumL2Mock",
  "sourceName": "contracts/openzeppelin/mocks/crosschain/bridges.sol",
  "abi": [
    {
      "inputs": [
        {
          "internalType": "address",
          "name": "sender",
          "type": "address"
        },
        {
          "internalType": "address",
          "name": "expected",
          "type": "address"
        }
      ],
      "name": "InvalidCrossChainSender",
      "type": "error"
    },
    {
      "inputs": [],
      "name": "NotCrossChainCall",
      "type": "error"
    },
    {
      "inputs": [],
      "name": "myCallersAddressWithoutAliasing",
      "outputs": [
        {
          "internalType": "address",
          "name": "",
          "type": "address"
        }
      ],
      "stateMutability": "view",
      "type": "function"
    },
    {
      "inputs": [
        {
          "internalType": "address",
          "name": "target",
          "type": "address"
        },
        {
          "internalType": "bytes",
          "name": "data",
          "type": "bytes"
        },
        {
          "internalType": "address",
          "name": "sender",
          "type": "address"
        }
      ],
      "name": "relayAs",
      "outputs": [],
      "stateMutability": "nonpayable",
      "type": "function"
    },
    {
      "inputs": [],
      "name": "wasMyCallersAddressAliased",
      "outputs": [
        {
          "internalType": "bool",
          "name": "",
          "type": "bool"
        }
      ],
      "stateMutability": "view",
      "type": "function"
    }
  ],
  "bytecode": "0x608060405234801561001057600080fd5b506106bf806100206000396000f3fe608060405234801561001057600080fd5b50600436106100415760003560e01c8063175a260b14610046578063d74523b314610064578063fb417a5b14610082575b600080fd5b61004e61009e565b60405161005b9190610384565b60405180910390f35b61006c6100f5565b60405161007991906103e0565b60405180910390f35b61009c60048036038101906100979190610496565b61011e565b005b60008073ffffffffffffffffffffffffffffffffffffffff1660008054906101000a900473ffffffffffffffffffffffffffffffffffffffff1673ffffffffffffffffffffffffffffffffffffffff161415905090565b60008060009054906101000a900473ffffffffffffffffffffffffffffffffffffffff16905090565b60008060009054906101000a900473ffffffffffffffffffffffffffffffffffffffff169050816000806101000a81548173ffffffffffffffffffffffffffffffffffffffff021916908373ffffffffffffffffffffffffffffffffffffffff1602179055506000808673ffffffffffffffffffffffffffffffffffffffff1686866040516101ae929190610549565b6000604051808303816000865af19150503d80600081146101eb576040519150601f19603f3d011682016040523d82523d6000602084013e6101f0565b606091505b50915091506102368783836040518060400160405280601781526020017f6c6f772d6c6576656c2063616c6c207265766572746564000000000000000000815250610280565b50826000806101000a81548173ffffffffffffffffffffffffffffffffffffffff021916908373ffffffffffffffffffffffffffffffffffffffff16021790555050505050505050565b606083156102e3576000835114156102db5761029b856102f6565b6102da576040517f08c379a00000000000000000000000000000000000000000000000000000000081526004016102d1906105bf565b60405180910390fd5b5b8290506102ee565b6102ed8383610319565b5b949350505050565b6000808273ffffffffffffffffffffffffffffffffffffffff163b119050919050565b60008251111561032c5781518083602001fd5b806040517f08c379a00000000000000000000000000000000000000000000000000000000081526004016103609190610667565b60405180910390fd5b60008115159050919050565b61037e81610369565b82525050565b60006020820190506103996000830184610375565b92915050565b600073ffffffffffffffffffffffffffffffffffffffff82169050919050565b60006103ca8261039f565b9050919050565b6103da816103bf565b82525050565b60006020820190506103f560008301846103d1565b92915050565b600080fd5b600080fd5b61040e816103bf565b811461041957600080fd5b50565b60008135905061042b81610405565b92915050565b600080fd5b600080fd5b600080fd5b60008083601f84011261045657610455610431565b5b8235905067ffffffffffffffff81111561047357610472610436565b5b60208301915083600182028301111561048f5761048e61043b565b5b9250929050565b600080600080606085870312156104b0576104af6103fb565b5b60006104be8782880161041c565b945050602085013567ffffffffffffffff8111156104df576104de610400565b5b6104eb87828801610440565b935093505060406104fe8782880161041c565b91505092959194509250565b600081905092915050565b82818337600083830152505050565b6000610530838561050a565b935061053d838584610515565b82840190509392505050565b6000610556828486610524565b91508190509392505050565b600082825260208201905092915050565b7f416464726573733a2063616c6c20746f206e6f6e2d636f6e7472616374000000600082015250565b60006105a9601d83610562565b91506105b482610573565b602082019050919050565b600060208201905081810360008301526105d88161059c565b9050919050565b600081519050919050565b60005b838110156106085780820151818401526020810190506105ed565b83811115610617576000848401525b50505050565b6000601f19601f8301169050919050565b6000610639826105df565b6106438185610562565b93506106538185602086016105ea565b61065c8161061d565b840191505092915050565b60006020820190508181036000830152610681818461062e565b90509291505056fea2646970667358221220e1e4646795924e442c9824a02941f0534612e953aa3bb8c3b4742e6c790bd11d64736f6c63430008090033",
  "linkReferences": {},
  "deployedLinkReferences": {}
}