{
  "_format": "hh-sol-artifact-1",
  "contractName": "ERC721",
  "sourceName": "contracts/token/ERC721/ERC721.sol",
  "abi": [
    {
      "inputs": [
        {
          "internalType": "string",
          "name": "name_",
          "type": "string"
        },
        {
          "internalType": "string",
          "name": "symbol_",
          "type": "string"
        }
      ],
      "stateMutability": "nonpayable",
      "type": "constructor"
    },
    {
      "anonymous": false,
      "inputs": [
        {
          "indexed": true,
          "internalType": "address",
          "name": "owner",
          "type": "address"
        },
        {
          "indexed": true,
          "internalType": "address",
          "name": "approved",
          "type": "address"
        },
        {
          "indexed": true,
          "internalType": "uint256",
          "name": "tokenId",
          "type": "uint256"
        }
      ],
      "name": "Approval",
      "type": "event"
    },
    {
      "anonymous": false,
      "inputs": [
        {
          "indexed": true,
          "internalType": "address",
          "name": "owner",
          "type": "address"
        },
        {
          "indexed": true,
          "internalType": "address",
          "name": "operator",
          "type": "address"
        },
        {
          "indexed": false,
          "internalType": "bool",
          "name": "approved",
          "type": "bool"
        }
      ],
      "name": "ApprovalForAll",
      "type": "event"
    },
    {
      "anonymous": false,
      "inputs": [
        {
          "indexed": true,
          "internalType": "address",
          "name": "from",
          "type": "address"
        },
        {
          "indexed": true,
          "internalType": "address",
          "name": "to",
          "type": "address"
        },
        {
          "indexed": true,
          "internalType": "uint256",
          "name": "tokenId",
          "type": "uint256"
        }
      ],
      "name": "Transfer",
      "type": "event"
    },
    {
      "inputs": [
        {
          "internalType": "address",
          "name": "to",
          "type": "address"
        },
        {
          "internalType": "uint256",
          "name": "tokenId",
          "type": "uint256"
        }
      ],
      "name": "approve",
      "outputs": [],
      "stateMutability": "nonpayable",
      "type": "function"
    },
    {
      "inputs": [
        {
          "internalType": "address",
          "name": "owner",
          "type": "address"
        }
      ],
      "name": "balanceOf",
      "outputs": [
        {
          "internalType": "uint256",
          "name": "",
          "type": "uint256"
        }
      ],
      "stateMutability": "view",
      "type": "function"
    },
    {
      "inputs": [
        {
          "internalType": "uint256",
          "name": "tokenId",
          "type": "uint256"
        }
      ],
      "name": "getApproved",
      "outputs": [
        {
          "internalType": "address",
          "name": "",
          "type": "address"
        }
      ],
      "stateMutability": "view",
      "type": "function"
    },
    {
      "inputs": [
        {
          "internalType": "address",
          "name": "owner",
          "type": "address"
        },
        {
          "internalType": "address",
          "name": "operator",
          "type": "address"
        }
      ],
      "name": "isApprovedForAll",
      "outputs": [
        {
          "internalType": "bool",
          "name": "",
          "type": "bool"
        }
      ],
      "stateMutability": "view",
      "type": "function"
    },
    {
      "inputs": [],
      "name": "name",
      "outputs": [
        {
          "internalType": "string",
          "name": "",
          "type": "string"
        }
      ],
      "stateMutability": "view",
      "type": "function"
    },
    {
      "inputs": [
        {
          "internalType": "uint256",
          "name": "tokenId",
          "type": "uint256"
        }
      ],
      "name": "ownerOf",
      "outputs": [
        {
          "internalType": "address",
          "name": "",
          "type": "address"
        }
      ],
      "stateMutability": "view",
      "type": "function"
    },
    {
      "inputs": [
        {
          "internalType": "address",
          "name": "from",
          "type": "address"
        },
        {
          "internalType": "address",
          "name": "to",
          "type": "address"
        },
        {
          "internalType": "uint256",
          "name": "tokenId",
          "type": "uint256"
        }
      ],
      "name": "safeTransferFrom",
      "outputs": [],
      "stateMutability": "nonpayable",
      "type": "function"
    },
    {
      "inputs": [
        {
          "internalType": "address",
          "name": "from",
          "type": "address"
        },
        {
          "internalType": "address",
          "name": "to",
          "type": "address"
        },
        {
          "internalType": "uint256",
          "name": "tokenId",
          "type": "uint256"
        },
        {
          "internalType": "bytes",
          "name": "_data",
          "type": "bytes"
        }
      ],
      "name": "safeTransferFrom",
      "outputs": [],
      "stateMutability": "nonpayable",
      "type": "function"
    },
    {
      "inputs": [
        {
          "internalType": "address",
          "name": "operator",
          "type": "address"
        },
        {
          "internalType": "bool",
          "name": "approved",
          "type": "bool"
        }
      ],
      "name": "setApprovalForAll",
      "outputs": [],
      "stateMutability": "nonpayable",
      "type": "function"
    },
    {
      "inputs": [
        {
          "internalType": "bytes4",
          "name": "interfaceId",
          "type": "bytes4"
        }
      ],
      "name": "supportsInterface",
      "outputs": [
        {
          "internalType": "bool",
          "name": "",
          "type": "bool"
        }
      ],
      "stateMutability": "view",
      "type": "function"
    },
    {
      "inputs": [],
      "name": "symbol",
      "outputs": [
        {
          "internalType": "string",
          "name": "",
          "type": "string"
        }
      ],
      "stateMutability": "view",
      "type": "function"
    },
    {
      "inputs": [
        {
          "internalType": "address",
          "name": "from",
          "type": "address"
        },
        {
          "internalType": "address",
          "name": "to",
          "type": "address"
        },
        {
          "internalType": "uint256",
          "name": "tokenId",
          "type": "uint256"
        }
      ],
      "name": "transferFrom",
      "outputs": [],
      "stateMutability": "nonpayable",
      "type": "function"
    }
  ],
  "bytecode": "0x60806040523480156200001157600080fd5b5060405162002331380380620023318339818101604052810190620000379190620002be565b81600090805190602001906200004f92919062000071565b5080600190805190602001906200006892919062000071565b505050620003a8565b8280546200007f9062000372565b90600052602060002090601f016020900481019282620000a35760008555620000ef565b82601f10620000be57805160ff1916838001178555620000ef565b82800160010185558215620000ef579182015b82811115620000ee578251825591602001919060010190620000d1565b5b509050620000fe919062000102565b5090565b5b808211156200011d57600081600090555060010162000103565b5090565b6000604051905090565b600080fd5b600080fd5b600080fd5b600080fd5b6000601f19601f8301169050919050565b7f4e487b7100000000000000000000000000000000000000000000000000000000600052604160045260246000fd5b6200018a826200013f565b810181811067ffffffffffffffff82111715620001ac57620001ab62000150565b5b80604052505050565b6000620001c162000121565b9050620001cf82826200017f565b919050565b600067ffffffffffffffff821115620001f257620001f162000150565b5b620001fd826200013f565b9050602081019050919050565b60005b838110156200022a5780820151818401526020810190506200020d565b838111156200023a576000848401525b50505050565b6000620002576200025184620001d4565b620001b5565b9050828152602081018484840111156200027657620002756200013a565b5b620002838482856200020a565b509392505050565b600082601f830112620002a357620002a262000135565b5b8151620002b584826020860162000240565b91505092915050565b60008060408385031215620002d857620002d76200012b565b5b600083015167ffffffffffffffff811115620002f957620002f862000130565b5b62000307858286016200028b565b925050602083015167ffffffffffffffff8111156200032b576200032a62000130565b5b62000339858286016200028b565b9150509250929050565b7f4e487b7100000000000000000000000000000000000000000000000000000000600052602260045260246000fd5b600060028204905060018216806200038b57607f821691505b60208210811415620003a257620003a162000343565b5b50919050565b611f7980620003b86000396000f3fe608060405234801561001057600080fd5b50600436106100b45760003560e01c80636352211e116100715780636352211e1461018b57806370a08231146101bb57806395d89b41146101eb578063a22cb46514610209578063b88d4fde14610225578063e985e9c514610241576100b4565b806301ffc9a7146100b957806306fdde03146100e9578063081812fc14610107578063095ea7b31461013757806323b872dd1461015357806342842e0e1461016f575b600080fd5b6100d360048036038101906100ce91906111cf565b610271565b6040516100e09190611217565b60405180910390f35b6100f1610353565b6040516100fe91906112cb565b60405180910390f35b610121600480360381019061011c9190611323565b6103e5565b60405161012e9190611391565b60405180910390f35b610151600480360381019061014c91906113d8565b61046a565b005b61016d60048036038101906101689190611418565b610582565b005b61018960048036038101906101849190611418565b6105e2565b005b6101a560048036038101906101a09190611323565b610602565b6040516101b29190611391565b60405180910390f35b6101d560048036038101906101d0919061146b565b6106b4565b6040516101e291906114a7565b60405180910390f35b6101f361076c565b60405161020091906112cb565b60405180910390f35b610223600480360381019061021e91906114ee565b6107fe565b005b61023f600480360381019061023a9190611663565b610814565b005b61025b600480360381019061025691906116e6565b610876565b6040516102689190611217565b60405180910390f35b60007f80ac58cd000000000000000000000000000000000000000000000000000000007bffffffffffffffffffffffffffffffffffffffffffffffffffffffff1916827bffffffffffffffffffffffffffffffffffffffffffffffffffffffff1916148061033c57507f5b5e139f000000000000000000000000000000000000000000000000000000007bffffffffffffffffffffffffffffffffffffffffffffffffffffffff1916827bffffffffffffffffffffffffffffffffffffffffffffffffffffffff1916145b8061034c575061034b8261090a565b5b9050919050565b60606000805461036290611755565b80601f016020809104026020016040519081016040528092919081815260200182805461038e90611755565b80156103db5780601f106103b0576101008083540402835291602001916103db565b820191906000526020600020905b8154815290600101906020018083116103be57829003601f168201915b5050505050905090565b60006103f082610974565b61042f576040517f08c379a0000000000000000000000000000000000000000000000000000000008152600401610426906117f9565b60405180910390fd5b6004600083815260200190815260200160002060009054906101000a900473ffffffffffffffffffffffffffffffffffffffff169050919050565b600061047582610602565b90508073ffffffffffffffffffffffffffffffffffffffff168373ffffffffffffffffffffffffffffffffffffffff1614156104e6576040517f08c379a00000000000000000000000000000000000000000000000000000000081526004016104dd9061188b565b60405180910390fd5b8073ffffffffffffffffffffffffffffffffffffffff166105056109e0565b73ffffffffffffffffffffffffffffffffffffffff16148061053457506105338161052e6109e0565b610876565b5b610573576040517f08c379a000000000000000000000000000000000000000000000000000000000815260040161056a9061191d565b60405180910390fd5b61057d83836109e8565b505050565b61059361058d6109e0565b82610aa1565b6105d2576040517f08c379a00000000000000000000000000000000000000000000000000000000081526004016105c9906119af565b60405180910390fd5b6105dd838383610b7f565b505050565b6105fd83838360405180602001604052806000815250610814565b505050565b6000806002600084815260200190815260200160002060009054906101000a900473ffffffffffffffffffffffffffffffffffffffff169050600073ffffffffffffffffffffffffffffffffffffffff168173ffffffffffffffffffffffffffffffffffffffff1614156106ab576040517f08c379a00000000000000000000000000000000000000000000000000000000081526004016106a290611a41565b60405180910390fd5b80915050919050565b60008073ffffffffffffffffffffffffffffffffffffffff168273ffffffffffffffffffffffffffffffffffffffff161415610725576040517f08c379a000000000000000000000000000000000000000000000000000000000815260040161071c90611ad3565b60405180910390fd5b600360008373ffffffffffffffffffffffffffffffffffffffff1673ffffffffffffffffffffffffffffffffffffffff168152602001908152602001600020549050919050565b60606001805461077b90611755565b80601f01602080910402602001604051908101604052809291908181526020018280546107a790611755565b80156107f45780601f106107c9576101008083540402835291602001916107f4565b820191906000526020600020905b8154815290600101906020018083116107d757829003601f168201915b5050505050905090565b6108106108096109e0565b8383610ddb565b5050565b61082561081f6109e0565b83610aa1565b610864576040517f08c379a000000000000000000000000000000000000000000000000000000000815260040161085b906119af565b60405180910390fd5b61087084848484610f48565b50505050565b6000600560008473ffffffffffffffffffffffffffffffffffffffff1673ffffffffffffffffffffffffffffffffffffffff16815260200190815260200160002060008373ffffffffffffffffffffffffffffffffffffffff1673ffffffffffffffffffffffffffffffffffffffff16815260200190815260200160002060009054906101000a900460ff16905092915050565b60007f01ffc9a7000000000000000000000000000000000000000000000000000000007bffffffffffffffffffffffffffffffffffffffffffffffffffffffff1916827bffffffffffffffffffffffffffffffffffffffffffffffffffffffff1916149050919050565b60008073ffffffffffffffffffffffffffffffffffffffff166002600084815260200190815260200160002060009054906101000a900473ffffffffffffffffffffffffffffffffffffffff1673ffffffffffffffffffffffffffffffffffffffff1614159050919050565b600033905090565b816004600083815260200190815260200160002060006101000a81548173ffffffffffffffffffffffffffffffffffffffff021916908373ffffffffffffffffffffffffffffffffffffffff160217905550808273ffffffffffffffffffffffffffffffffffffffff16610a5b83610602565b73ffffffffffffffffffffffffffffffffffffffff167f8c5be1e5ebec7d5bd14f71427d1e84f3dd0314c0f7b2291e5b200ac8c7c3b92560405160405180910390a45050565b6000610aac82610974565b610aeb576040517f08c379a0000000000000000000000000000000000000000000000000000000008152600401610ae290611b65565b60405180910390fd5b6000610af683610602565b90508073ffffffffffffffffffffffffffffffffffffffff168473ffffffffffffffffffffffffffffffffffffffff161480610b6557508373ffffffffffffffffffffffffffffffffffffffff16610b4d846103e5565b73ffffffffffffffffffffffffffffffffffffffff16145b80610b765750610b758185610876565b5b91505092915050565b8273ffffffffffffffffffffffffffffffffffffffff16610b9f82610602565b73ffffffffffffffffffffffffffffffffffffffff1614610bf5576040517f08c379a0000000000000000000000000000000000000000000000000000000008152600401610bec90611bf7565b60405180910390fd5b600073ffffffffffffffffffffffffffffffffffffffff168273ffffffffffffffffffffffffffffffffffffffff161415610c65576040517f08c379a0000000000000000000000000000000000000000000000000000000008152600401610c5c90611c89565b60405180910390fd5b610c70838383610fa4565b610c7b6000826109e8565b6001600360008573ffffffffffffffffffffffffffffffffffffffff1673ffffffffffffffffffffffffffffffffffffffff1681526020019081526020016000206000828254610ccb9190611cd8565b925050819055506001600360008473ffffffffffffffffffffffffffffffffffffffff1673ffffffffffffffffffffffffffffffffffffffff1681526020019081526020016000206000828254610d229190611d0c565b92505081905550816002600083815260200190815260200160002060006101000a81548173ffffffffffffffffffffffffffffffffffffffff021916908373ffffffffffffffffffffffffffffffffffffffff160217905550808273ffffffffffffffffffffffffffffffffffffffff168473ffffffffffffffffffffffffffffffffffffffff167fddf252ad1be2c89b69c2b068fc378daa952ba7f163c4a11628f55a4df523b3ef60405160405180910390a4505050565b8173ffffffffffffffffffffffffffffffffffffffff168373ffffffffffffffffffffffffffffffffffffffff161415610e4a576040517f08c379a0000000000000000000000000000000000000000000000000000000008152600401610e4190611dae565b60405180910390fd5b80600560008573ffffffffffffffffffffffffffffffffffffffff1673ffffffffffffffffffffffffffffffffffffffff16815260200190815260200160002060008473ffffffffffffffffffffffffffffffffffffffff1673ffffffffffffffffffffffffffffffffffffffff16815260200190815260200160002060006101000a81548160ff0219169083151502179055508173ffffffffffffffffffffffffffffffffffffffff168373ffffffffffffffffffffffffffffffffffffffff167f17307eab39ab6107e8899845ad3d59bd9653f200f220920489ca2b5937696c3183604051610f3b9190611217565b60405180910390a3505050565b610f53848484610b7f565b610f5f84848484610fa9565b610f9e576040517f08c379a0000000000000000000000000000000000000000000000000000000008152600401610f9590611e40565b60405180910390fd5b50505050565b505050565b6000610fca8473ffffffffffffffffffffffffffffffffffffffff16611140565b15611133578373ffffffffffffffffffffffffffffffffffffffff1663150b7a02610ff36109e0565b8786866040518563ffffffff1660e01b81526004016110159493929190611eb5565b602060405180830381600087803b15801561102f57600080fd5b505af192505050801561106057506040513d601f19601f8201168201806040525081019061105d9190611f16565b60015b6110e3573d8060008114611090576040519150601f19603f3d011682016040523d82523d6000602084013e611095565b606091505b506000815114156110db576040517f08c379a00000000000000000000000000000000000000000000000000000000081526004016110d290611e40565b60405180910390fd5b805181602001fd5b63150b7a0260e01b7bffffffffffffffffffffffffffffffffffffffffffffffffffffffff1916817bffffffffffffffffffffffffffffffffffffffffffffffffffffffff191614915050611138565b600190505b949350505050565b6000808273ffffffffffffffffffffffffffffffffffffffff163b119050919050565b6000604051905090565b600080fd5b600080fd5b60007fffffffff0000000000000000000000000000000000000000000000000000000082169050919050565b6111ac81611177565b81146111b757600080fd5b50565b6000813590506111c9816111a3565b92915050565b6000602082840312156111e5576111e461116d565b5b60006111f3848285016111ba565b91505092915050565b60008115159050919050565b611211816111fc565b82525050565b600060208201905061122c6000830184611208565b92915050565b600081519050919050565b600082825260208201905092915050565b60005b8381101561126c578082015181840152602081019050611251565b8381111561127b576000848401525b50505050565b6000601f19601f8301169050919050565b600061129d82611232565b6112a7818561123d565b93506112b781856020860161124e565b6112c081611281565b840191505092915050565b600060208201905081810360008301526112e58184611292565b905092915050565b6000819050919050565b611300816112ed565b811461130b57600080fd5b50565b60008135905061131d816112f7565b92915050565b6000602082840312156113395761133861116d565b5b60006113478482850161130e565b91505092915050565b600073ffffffffffffffffffffffffffffffffffffffff82169050919050565b600061137b82611350565b9050919050565b61138b81611370565b82525050565b60006020820190506113a66000830184611382565b92915050565b6113b581611370565b81146113c057600080fd5b50565b6000813590506113d2816113ac565b92915050565b600080604083850312156113ef576113ee61116d565b5b60006113fd858286016113c3565b925050602061140e8582860161130e565b9150509250929050565b6000806000606084860312156114315761143061116d565b5b600061143f868287016113c3565b9350506020611450868287016113c3565b92505060406114618682870161130e565b9150509250925092565b6000602082840312156114815761148061116d565b5b600061148f848285016113c3565b91505092915050565b6114a1816112ed565b82525050565b60006020820190506114bc6000830184611498565b92915050565b6114cb816111fc565b81146114d657600080fd5b50565b6000813590506114e8816114c2565b92915050565b600080604083850312156115055761150461116d565b5b6000611513858286016113c3565b9250506020611524858286016114d9565b9150509250929050565b600080fd5b600080fd5b7f4e487b7100000000000000000000000000000000000000000000000000000000600052604160045260246000fd5b61157082611281565b810181811067ffffffffffffffff8211171561158f5761158e611538565b5b80604052505050565b60006115a2611163565b90506115ae8282611567565b919050565b600067ffffffffffffffff8211156115ce576115cd611538565b5b6115d782611281565b9050602081019050919050565b82818337600083830152505050565b6000611606611601846115b3565b611598565b90508281526020810184848401111561162257611621611533565b5b61162d8482856115e4565b509392505050565b600082601f83011261164a5761164961152e565b5b813561165a8482602086016115f3565b91505092915050565b6000806000806080858703121561167d5761167c61116d565b5b600061168b878288016113c3565b945050602061169c878288016113c3565b93505060406116ad8782880161130e565b925050606085013567ffffffffffffffff8111156116ce576116cd611172565b5b6116da87828801611635565b91505092959194509250565b600080604083850312156116fd576116fc61116d565b5b600061170b858286016113c3565b925050602061171c858286016113c3565b9150509250929050565b7f4e487b7100000000000000000000000000000000000000000000000000000000600052602260045260246000fd5b6000600282049050600182168061176d57607f821691505b6020821081141561178157611780611726565b5b50919050565b7f4552433732313a20617070726f76656420717565727920666f72206e6f6e657860008201527f697374656e7420746f6b656e0000000000000000000000000000000000000000602082015250565b60006117e3602c8361123d565b91506117ee82611787565b604082019050919050565b60006020820190508181036000830152611812816117d6565b9050919050565b7f4552433732313a20617070726f76616c20746f2063757272656e74206f776e6560008201527f7200000000000000000000000000000000000000000000000000000000000000602082015250565b600061187560218361123d565b915061188082611819565b604082019050919050565b600060208201905081810360008301526118a481611868565b9050919050565b7f4552433732313a20617070726f76652063616c6c6572206973206e6f74206f7760008201527f6e6572206e6f7220617070726f76656420666f7220616c6c0000000000000000602082015250565b600061190760388361123d565b9150611912826118ab565b604082019050919050565b60006020820190508181036000830152611936816118fa565b9050919050565b7f4552433732313a207472616e736665722063616c6c6572206973206e6f74206f60008201527f776e6572206e6f7220617070726f766564000000000000000000000000000000602082015250565b600061199960318361123d565b91506119a48261193d565b604082019050919050565b600060208201905081810360008301526119c88161198c565b9050919050565b7f4552433732313a206f776e657220717565727920666f72206e6f6e657869737460008201527f656e7420746f6b656e0000000000000000000000000000000000000000000000602082015250565b6000611a2b60298361123d565b9150611a36826119cf565b604082019050919050565b60006020820190508181036000830152611a5a81611a1e565b9050919050565b7f4552433732313a2062616c616e636520717565727920666f7220746865207a6560008201527f726f206164647265737300000000000000000000000000000000000000000000602082015250565b6000611abd602a8361123d565b9150611ac882611a61565b604082019050919050565b60006020820190508181036000830152611aec81611ab0565b9050919050565b7f4552433732313a206f70657261746f7220717565727920666f72206e6f6e657860008201527f697374656e7420746f6b656e0000000000000000000000000000000000000000602082015250565b6000611b4f602c8361123d565b9150611b5a82611af3565b604082019050919050565b60006020820190508181036000830152611b7e81611b42565b9050919050565b7f4552433732313a207472616e73666572206f6620746f6b656e2074686174206960008201527f73206e6f74206f776e0000000000000000000000000000000000000000000000602082015250565b6000611be160298361123d565b9150611bec82611b85565b604082019050919050565b60006020820190508181036000830152611c1081611bd4565b9050919050565b7f4552433732313a207472616e7366657220746f20746865207a65726f2061646460008201527f7265737300000000000000000000000000000000000000000000000000000000602082015250565b6000611c7360248361123d565b9150611c7e82611c17565b604082019050919050565b60006020820190508181036000830152611ca281611c66565b9050919050565b7f4e487b7100000000000000000000000000000000000000000000000000000000600052601160045260246000fd5b6000611ce3826112ed565b9150611cee836112ed565b925082821015611d0157611d00611ca9565b5b828203905092915050565b6000611d17826112ed565b9150611d22836112ed565b9250827fffffffffffffffffffffffffffffffffffffffffffffffffffffffffffffffff03821115611d5757611d56611ca9565b5b828201905092915050565b7f4552433732313a20617070726f766520746f2063616c6c657200000000000000600082015250565b6000611d9860198361123d565b9150611da382611d62565b602082019050919050565b60006020820190508181036000830152611dc781611d8b565b9050919050565b7f4552433732313a207472616e7366657220746f206e6f6e20455243373231526560008201527f63656976657220696d706c656d656e7465720000000000000000000000000000602082015250565b6000611e2a60328361123d565b9150611e3582611dce565b604082019050919050565b60006020820190508181036000830152611e5981611e1d565b9050919050565b600081519050919050565b600082825260208201905092915050565b6000611e8782611e60565b611e918185611e6b565b9350611ea181856020860161124e565b611eaa81611281565b840191505092915050565b6000608082019050611eca6000830187611382565b611ed76020830186611382565b611ee46040830185611498565b8181036060830152611ef68184611e7c565b905095945050505050565b600081519050611f10816111a3565b92915050565b600060208284031215611f2c57611f2b61116d565b5b6000611f3a84828501611f01565b9150509291505056fea26469706673582212208f95c963e17dce593fe6d5de1f56c4d46dae1d02d94bbb2408cc58bdd9d90a0a64736f6c63430008090033",
  "linkReferences": {},
  "deployedLinkReferences": {}
}