{
  "_format": "hh-sol-artifact-1",
  "contractName": "GovernorCompatibilityBravoMock",
  "sourceName": "contracts/openzeppelin/mocks/GovernorCompatibilityBravoMock.sol",
  "abi": [
    {
      "inputs": [
        {
          "internalType": "string",
          "name": "name_",
          "type": "string"
        },
        {
          "internalType": "contract ERC20VotesComp",
          "name": "token_",
          "type": "address"
        },
        {
          "internalType": "uint256",
          "name": "votingDelay_",
          "type": "uint256"
        },
        {
          "internalType": "uint256",
          "name": "votingPeriod_",
          "type": "uint256"
        },
        {
          "internalType": "uint256",
          "name": "proposalThreshold_",
          "type": "uint256"
        },
        {
          "internalType": "contract ICompoundTimelock",
          "name": "timelock_",
          "type": "address"
        }
      ],
      "stateMutability": "nonpayable",
      "type": "constructor"
    },
    {
      "inputs": [],
      "name": "Empty",
      "type": "error"
    },
    {
      "anonymous": false,
      "inputs": [
        {
          "indexed": false,
          "internalType": "uint256",
          "name": "proposalId",
          "type": "uint256"
        }
      ],
      "name": "ProposalCanceled",
      "type": "event"
    },
    {
      "anonymous": false,
      "inputs": [
        {
          "indexed": false,
          "internalType": "uint256",
          "name": "proposalId",
          "type": "uint256"
        },
        {
          "indexed": false,
          "internalType": "address",
          "name": "proposer",
          "type": "address"
        },
        {
          "indexed": false,
          "internalType": "address[]",
          "name": "targets",
          "type": "address[]"
        },
        {
          "indexed": false,
          "internalType": "uint256[]",
          "name": "values",
          "type": "uint256[]"
        },
        {
          "indexed": false,
          "internalType": "string[]",
          "name": "signatures",
          "type": "string[]"
        },
        {
          "indexed": false,
          "internalType": "bytes[]",
          "name": "calldatas",
          "type": "bytes[]"
        },
        {
          "indexed": false,
          "internalType": "uint256",
          "name": "startBlock",
          "type": "uint256"
        },
        {
          "indexed": false,
          "internalType": "uint256",
          "name": "endBlock",
          "type": "uint256"
        },
        {
          "indexed": false,
          "internalType": "string",
          "name": "description",
          "type": "string"
        }
      ],
      "name": "ProposalCreated",
      "type": "event"
    },
    {
      "anonymous": false,
      "inputs": [
        {
          "indexed": false,
          "internalType": "uint256",
          "name": "proposalId",
          "type": "uint256"
        }
      ],
      "name": "ProposalExecuted",
      "type": "event"
    },
    {
      "anonymous": false,
      "inputs": [
        {
          "indexed": false,
          "internalType": "uint256",
          "name": "proposalId",
          "type": "uint256"
        },
        {
          "indexed": false,
          "internalType": "uint256",
          "name": "eta",
          "type": "uint256"
        }
      ],
      "name": "ProposalQueued",
      "type": "event"
    },
    {
      "anonymous": false,
      "inputs": [
        {
          "indexed": false,
          "internalType": "uint256",
          "name": "oldProposalThreshold",
          "type": "uint256"
        },
        {
          "indexed": false,
          "internalType": "uint256",
          "name": "newProposalThreshold",
          "type": "uint256"
        }
      ],
      "name": "ProposalThresholdSet",
      "type": "event"
    },
    {
      "anonymous": false,
      "inputs": [
        {
          "indexed": false,
          "internalType": "address",
          "name": "oldTimelock",
          "type": "address"
        },
        {
          "indexed": false,
          "internalType": "address",
          "name": "newTimelock",
          "type": "address"
        }
      ],
      "name": "TimelockChange",
      "type": "event"
    },
    {
      "anonymous": false,
      "inputs": [
        {
          "indexed": true,
          "internalType": "address",
          "name": "voter",
          "type": "address"
        },
        {
          "indexed": false,
          "internalType": "uint256",
          "name": "proposalId",
          "type": "uint256"
        },
        {
          "indexed": false,
          "internalType": "uint8",
          "name": "support",
          "type": "uint8"
        },
        {
          "indexed": false,
          "internalType": "uint256",
          "name": "weight",
          "type": "uint256"
        },
        {
          "indexed": false,
          "internalType": "string",
          "name": "reason",
          "type": "string"
        }
      ],
      "name": "VoteCast",
      "type": "event"
    },
    {
      "anonymous": false,
      "inputs": [
        {
          "indexed": true,
          "internalType": "address",
          "name": "voter",
          "type": "address"
        },
        {
          "indexed": false,
          "internalType": "uint256",
          "name": "proposalId",
          "type": "uint256"
        },
        {
          "indexed": false,
          "internalType": "uint8",
          "name": "support",
          "type": "uint8"
        },
        {
          "indexed": false,
          "internalType": "uint256",
          "name": "weight",
          "type": "uint256"
        },
        {
          "indexed": false,
          "internalType": "string",
          "name": "reason",
          "type": "string"
        },
        {
          "indexed": false,
          "internalType": "bytes",
          "name": "params",
          "type": "bytes"
        }
      ],
      "name": "VoteCastWithParams",
      "type": "event"
    },
    {
      "anonymous": false,
      "inputs": [
        {
          "indexed": false,
          "internalType": "uint256",
          "name": "oldVotingDelay",
          "type": "uint256"
        },
        {
          "indexed": false,
          "internalType": "uint256",
          "name": "newVotingDelay",
          "type": "uint256"
        }
      ],
      "name": "VotingDelaySet",
      "type": "event"
    },
    {
      "anonymous": false,
      "inputs": [
        {
          "indexed": false,
          "internalType": "uint256",
          "name": "oldVotingPeriod",
          "type": "uint256"
        },
        {
          "indexed": false,
          "internalType": "uint256",
          "name": "newVotingPeriod",
          "type": "uint256"
        }
      ],
      "name": "VotingPeriodSet",
      "type": "event"
    },
    {
      "inputs": [],
      "name": "BALLOT_TYPEHASH",
      "outputs": [
        {
          "internalType": "bytes32",
          "name": "",
          "type": "bytes32"
        }
      ],
      "stateMutability": "view",
      "type": "function"
    },
    {
      "inputs": [],
      "name": "COUNTING_MODE",
      "outputs": [
        {
          "internalType": "string",
          "name": "",
          "type": "string"
        }
      ],
      "stateMutability": "pure",
      "type": "function"
    },
    {
      "inputs": [],
      "name": "EXTENDED_BALLOT_TYPEHASH",
      "outputs": [
        {
          "internalType": "bytes32",
          "name": "",
          "type": "bytes32"
        }
      ],
      "stateMutability": "view",
      "type": "function"
    },
    {
      "inputs": [],
      "name": "__acceptAdmin",
      "outputs": [],
      "stateMutability": "nonpayable",
      "type": "function"
    },
    {
      "inputs": [
        {
          "internalType": "uint256",
          "name": "proposalId",
          "type": "uint256"
        }
      ],
      "name": "cancel",
      "outputs": [],
      "stateMutability": "nonpayable",
      "type": "function"
    },
    {
      "inputs": [
        {
          "internalType": "address[]",
          "name": "targets",
          "type": "address[]"
        },
        {
          "internalType": "uint256[]",
          "name": "values",
          "type": "uint256[]"
        },
        {
          "internalType": "bytes[]",
          "name": "calldatas",
          "type": "bytes[]"
        },
        {
          "internalType": "bytes32",
          "name": "salt",
          "type": "bytes32"
        }
      ],
      "name": "cancel",
      "outputs": [
        {
          "internalType": "uint256",
          "name": "proposalId",
          "type": "uint256"
        }
      ],
      "stateMutability": "nonpayable",
      "type": "function"
    },
    {
      "inputs": [
        {
          "internalType": "uint256",
          "name": "proposalId",
          "type": "uint256"
        },
        {
          "internalType": "uint8",
          "name": "support",
          "type": "uint8"
        }
      ],
      "name": "castVote",
      "outputs": [
        {
          "internalType": "uint256",
          "name": "",
          "type": "uint256"
        }
      ],
      "stateMutability": "nonpayable",
      "type": "function"
    },
    {
      "inputs": [
        {
          "internalType": "uint256",
          "name": "proposalId",
          "type": "uint256"
        },
        {
          "internalType": "uint8",
          "name": "support",
          "type": "uint8"
        },
        {
          "internalType": "uint8",
          "name": "v",
          "type": "uint8"
        },
        {
          "internalType": "bytes32",
          "name": "r",
          "type": "bytes32"
        },
        {
          "internalType": "bytes32",
          "name": "s",
          "type": "bytes32"
        }
      ],
      "name": "castVoteBySig",
      "outputs": [
        {
          "internalType": "uint256",
          "name": "",
          "type": "uint256"
        }
      ],
      "stateMutability": "nonpayable",
      "type": "function"
    },
    {
      "inputs": [
        {
          "internalType": "uint256",
          "name": "proposalId",
          "type": "uint256"
        },
        {
          "internalType": "uint8",
          "name": "support",
          "type": "uint8"
        },
        {
          "internalType": "string",
          "name": "reason",
          "type": "string"
        }
      ],
      "name": "castVoteWithReason",
      "outputs": [
        {
          "internalType": "uint256",
          "name": "",
          "type": "uint256"
        }
      ],
      "stateMutability": "nonpayable",
      "type": "function"
    },
    {
      "inputs": [
        {
          "internalType": "uint256",
          "name": "proposalId",
          "type": "uint256"
        },
        {
          "internalType": "uint8",
          "name": "support",
          "type": "uint8"
        },
        {
          "internalType": "string",
          "name": "reason",
          "type": "string"
        },
        {
          "internalType": "bytes",
          "name": "params",
          "type": "bytes"
        }
      ],
      "name": "castVoteWithReasonAndParams",
      "outputs": [
        {
          "internalType": "uint256",
          "name": "",
          "type": "uint256"
        }
      ],
      "stateMutability": "nonpayable",
      "type": "function"
    },
    {
      "inputs": [
        {
          "internalType": "uint256",
          "name": "proposalId",
          "type": "uint256"
        },
        {
          "internalType": "uint8",
          "name": "support",
          "type": "uint8"
        },
        {
          "internalType": "string",
          "name": "reason",
          "type": "string"
        },
        {
          "internalType": "bytes",
          "name": "params",
          "type": "bytes"
        },
        {
          "internalType": "uint8",
          "name": "v",
          "type": "uint8"
        },
        {
          "internalType": "bytes32",
          "name": "r",
          "type": "bytes32"
        },
        {
          "internalType": "bytes32",
          "name": "s",
          "type": "bytes32"
        }
      ],
      "name": "castVoteWithReasonAndParamsBySig",
      "outputs": [
        {
          "internalType": "uint256",
          "name": "",
          "type": "uint256"
        }
      ],
      "stateMutability": "nonpayable",
      "type": "function"
    },
    {
      "inputs": [
        {
          "internalType": "address[]",
          "name": "targets",
          "type": "address[]"
        },
        {
          "internalType": "uint256[]",
          "name": "values",
          "type": "uint256[]"
        },
        {
          "internalType": "bytes[]",
          "name": "calldatas",
          "type": "bytes[]"
        },
        {
          "internalType": "bytes32",
          "name": "salt",
          "type": "bytes32"
        }
      ],
      "name": "execute",
      "outputs": [
        {
          "internalType": "uint256",
          "name": "",
          "type": "uint256"
        }
      ],
      "stateMutability": "payable",
      "type": "function"
    },
    {
      "inputs": [
        {
          "internalType": "uint256",
          "name": "proposalId",
          "type": "uint256"
        }
      ],
      "name": "execute",
      "outputs": [],
      "stateMutability": "payable",
      "type": "function"
    },
    {
      "inputs": [
        {
          "internalType": "uint256",
          "name": "proposalId",
          "type": "uint256"
        }
      ],
      "name": "getActions",
      "outputs": [
        {
          "internalType": "address[]",
          "name": "targets",
          "type": "address[]"
        },
        {
          "internalType": "uint256[]",
          "name": "values",
          "type": "uint256[]"
        },
        {
          "internalType": "string[]",
          "name": "signatures",
          "type": "string[]"
        },
        {
          "internalType": "bytes[]",
          "name": "calldatas",
          "type": "bytes[]"
        }
      ],
      "stateMutability": "view",
      "type": "function"
    },
    {
      "inputs": [
        {
          "internalType": "uint256",
          "name": "proposalId",
          "type": "uint256"
        },
        {
          "internalType": "address",
          "name": "voter",
          "type": "address"
        }
      ],
      "name": "getReceipt",
      "outputs": [
        {
          "components": [
            {
              "internalType": "bool",
              "name": "hasVoted",
              "type": "bool"
            },
            {
              "internalType": "uint8",
              "name": "support",
              "type": "uint8"
            },
            {
              "internalType": "uint96",
              "name": "votes",
              "type": "uint96"
            }
          ],
          "internalType": "struct IGovernorCompatibilityBravo.Receipt",
          "name": "",
          "type": "tuple"
        }
      ],
      "stateMutability": "view",
      "type": "function"
    },
    {
      "inputs": [
        {
          "internalType": "address",
          "name": "account",
          "type": "address"
        },
        {
          "internalType": "uint256",
          "name": "blockNumber",
          "type": "uint256"
        }
      ],
      "name": "getVotes",
      "outputs": [
        {
          "internalType": "uint256",
          "name": "",
          "type": "uint256"
        }
      ],
      "stateMutability": "view",
      "type": "function"
    },
    {
      "inputs": [
        {
          "internalType": "address",
          "name": "account",
          "type": "address"
        },
        {
          "internalType": "uint256",
          "name": "blockNumber",
          "type": "uint256"
        },
        {
          "internalType": "bytes",
          "name": "params",
          "type": "bytes"
        }
      ],
      "name": "getVotesWithParams",
      "outputs": [
        {
          "internalType": "uint256",
          "name": "",
          "type": "uint256"
        }
      ],
      "stateMutability": "view",
      "type": "function"
    },
    {
      "inputs": [
        {
          "internalType": "uint256",
          "name": "proposalId",
          "type": "uint256"
        },
        {
          "internalType": "address",
          "name": "account",
          "type": "address"
        }
      ],
      "name": "hasVoted",
      "outputs": [
        {
          "internalType": "bool",
          "name": "",
          "type": "bool"
        }
      ],
      "stateMutability": "view",
      "type": "function"
    },
    {
      "inputs": [
        {
          "internalType": "address[]",
          "name": "targets",
          "type": "address[]"
        },
        {
          "internalType": "uint256[]",
          "name": "values",
          "type": "uint256[]"
        },
        {
          "internalType": "bytes[]",
          "name": "calldatas",
          "type": "bytes[]"
        },
        {
          "internalType": "bytes32",
          "name": "descriptionHash",
          "type": "bytes32"
        }
      ],
      "name": "hashProposal",
      "outputs": [
        {
          "internalType": "uint256",
          "name": "",
          "type": "uint256"
        }
      ],
      "stateMutability": "pure",
      "type": "function"
    },
    {
      "inputs": [],
      "name": "name",
      "outputs": [
        {
          "internalType": "string",
          "name": "",
          "type": "string"
        }
      ],
      "stateMutability": "view",
      "type": "function"
    },
    {
      "inputs": [
        {
          "internalType": "address",
          "name": "",
          "type": "address"
        },
        {
          "internalType": "address",
          "name": "",
          "type": "address"
        },
        {
          "internalType": "uint256[]",
          "name": "",
          "type": "uint256[]"
        },
        {
          "internalType": "uint256[]",
          "name": "",
          "type": "uint256[]"
        },
        {
          "internalType": "bytes",
          "name": "",
          "type": "bytes"
        }
      ],
      "name": "onERC1155BatchReceived",
      "outputs": [
        {
          "internalType": "bytes4",
          "name": "",
          "type": "bytes4"
        }
      ],
      "stateMutability": "nonpayable",
      "type": "function"
    },
    {
      "inputs": [
        {
          "internalType": "address",
          "name": "",
          "type": "address"
        },
        {
          "internalType": "address",
          "name": "",
          "type": "address"
        },
        {
          "internalType": "uint256",
          "name": "",
          "type": "uint256"
        },
        {
          "internalType": "uint256",
          "name": "",
          "type": "uint256"
        },
        {
          "internalType": "bytes",
          "name": "",
          "type": "bytes"
        }
      ],
      "name": "onERC1155Received",
      "outputs": [
        {
          "internalType": "bytes4",
          "name": "",
          "type": "bytes4"
        }
      ],
      "stateMutability": "nonpayable",
      "type": "function"
    },
    {
      "inputs": [
        {
          "internalType": "address",
          "name": "",
          "type": "address"
        },
        {
          "internalType": "address",
          "name": "",
          "type": "address"
        },
        {
          "internalType": "uint256",
          "name": "",
          "type": "uint256"
        },
        {
          "internalType": "bytes",
          "name": "",
          "type": "bytes"
        }
      ],
      "name": "onERC721Received",
      "outputs": [
        {
          "internalType": "bytes4",
          "name": "",
          "type": "bytes4"
        }
      ],
      "stateMutability": "nonpayable",
      "type": "function"
    },
    {
      "inputs": [
        {
          "internalType": "uint256",
          "name": "proposalId",
          "type": "uint256"
        }
      ],
      "name": "proposalDeadline",
      "outputs": [
        {
          "internalType": "uint256",
          "name": "",
          "type": "uint256"
        }
      ],
      "stateMutability": "view",
      "type": "function"
    },
    {
      "inputs": [
        {
          "internalType": "uint256",
          "name": "proposalId",
          "type": "uint256"
        }
      ],
      "name": "proposalEta",
      "outputs": [
        {
          "internalType": "uint256",
          "name": "",
          "type": "uint256"
        }
      ],
      "stateMutability": "view",
      "type": "function"
    },
    {
      "inputs": [
        {
          "internalType": "uint256",
          "name": "proposalId",
          "type": "uint256"
        }
      ],
      "name": "proposalSnapshot",
      "outputs": [
        {
          "internalType": "uint256",
          "name": "",
          "type": "uint256"
        }
      ],
      "stateMutability": "view",
      "type": "function"
    },
    {
      "inputs": [],
      "name": "proposalThreshold",
      "outputs": [
        {
          "internalType": "uint256",
          "name": "",
          "type": "uint256"
        }
      ],
      "stateMutability": "view",
      "type": "function"
    },
    {
      "inputs": [
        {
          "internalType": "uint256",
          "name": "proposalId",
          "type": "uint256"
        }
      ],
      "name": "proposals",
      "outputs": [
        {
          "internalType": "uint256",
          "name": "id",
          "type": "uint256"
        },
        {
          "internalType": "address",
          "name": "proposer",
          "type": "address"
        },
        {
          "internalType": "uint256",
          "name": "eta",
          "type": "uint256"
        },
        {
          "internalType": "uint256",
          "name": "startBlock",
          "type": "uint256"
        },
        {
          "internalType": "uint256",
          "name": "endBlock",
          "type": "uint256"
        },
        {
          "internalType": "uint256",
          "name": "forVotes",
          "type": "uint256"
        },
        {
          "internalType": "uint256",
          "name": "againstVotes",
          "type": "uint256"
        },
        {
          "internalType": "uint256",
          "name": "abstainVotes",
          "type": "uint256"
        },
        {
          "internalType": "bool",
          "name": "canceled",
          "type": "bool"
        },
        {
          "internalType": "bool",
          "name": "executed",
          "type": "bool"
        }
      ],
      "stateMutability": "view",
      "type": "function"
    },
    {
      "inputs": [
        {
          "internalType": "address[]",
          "name": "targets",
          "type": "address[]"
        },
        {
          "internalType": "uint256[]",
          "name": "values",
          "type": "uint256[]"
        },
        {
          "internalType": "bytes[]",
          "name": "calldatas",
          "type": "bytes[]"
        },
        {
          "internalType": "string",
          "name": "description",
          "type": "string"
        }
      ],
      "name": "propose",
      "outputs": [
        {
          "internalType": "uint256",
          "name": "",
          "type": "uint256"
        }
      ],
      "stateMutability": "nonpayable",
      "type": "function"
    },
    {
      "inputs": [
        {
          "internalType": "address[]",
          "name": "targets",
          "type": "address[]"
        },
        {
          "internalType": "uint256[]",
          "name": "values",
          "type": "uint256[]"
        },
        {
          "internalType": "string[]",
          "name": "signatures",
          "type": "string[]"
        },
        {
          "internalType": "bytes[]",
          "name": "calldatas",
          "type": "bytes[]"
        },
        {
          "internalType": "string",
          "name": "description",
          "type": "string"
        }
      ],
      "name": "propose",
      "outputs": [
        {
          "internalType": "uint256",
          "name": "",
          "type": "uint256"
        }
      ],
      "stateMutability": "nonpayable",
      "type": "function"
    },
    {
      "inputs": [
        {
          "internalType": "address[]",
          "name": "targets",
          "type": "address[]"
        },
        {
          "internalType": "uint256[]",
          "name": "values",
          "type": "uint256[]"
        },
        {
          "internalType": "bytes[]",
          "name": "calldatas",
          "type": "bytes[]"
        },
        {
          "internalType": "bytes32",
          "name": "salt",
          "type": "bytes32"
        }
      ],
      "name": "queue",
      "outputs": [
        {
          "internalType": "uint256",
          "name": "",
          "type": "uint256"
        }
      ],
      "stateMutability": "nonpayable",
      "type": "function"
    },
    {
      "inputs": [
        {
          "internalType": "uint256",
          "name": "proposalId",
          "type": "uint256"
        }
      ],
      "name": "queue",
      "outputs": [],
      "stateMutability": "nonpayable",
      "type": "function"
    },
    {
      "inputs": [
        {
          "internalType": "uint256",
          "name": "",
          "type": "uint256"
        }
      ],
      "name": "quorum",
      "outputs": [
        {
          "internalType": "uint256",
          "name": "",
          "type": "uint256"
        }
      ],
      "stateMutability": "pure",
      "type": "function"
    },
    {
      "inputs": [],
      "name": "quorumVotes",
      "outputs": [
        {
          "internalType": "uint256",
          "name": "",
          "type": "uint256"
        }
      ],
      "stateMutability": "view",
      "type": "function"
    },
    {
      "inputs": [
        {
          "internalType": "address",
          "name": "target",
          "type": "address"
        },
        {
          "internalType": "uint256",
          "name": "value",
          "type": "uint256"
        },
        {
          "internalType": "bytes",
          "name": "data",
          "type": "bytes"
        }
      ],
      "name": "relay",
      "outputs": [],
      "stateMutability": "payable",
      "type": "function"
    },
    {
      "inputs": [
        {
          "internalType": "uint256",
          "name": "newProposalThreshold",
          "type": "uint256"
        }
      ],
      "name": "setProposalThreshold",
      "outputs": [],
      "stateMutability": "nonpayable",
      "type": "function"
    },
    {
      "inputs": [
        {
          "internalType": "uint256",
          "name": "newVotingDelay",
          "type": "uint256"
        }
      ],
      "name": "setVotingDelay",
      "outputs": [],
      "stateMutability": "nonpayable",
      "type": "function"
    },
    {
      "inputs": [
        {
          "internalType": "uint256",
          "name": "newVotingPeriod",
          "type": "uint256"
        }
      ],
      "name": "setVotingPeriod",
      "outputs": [],
      "stateMutability": "nonpayable",
      "type": "function"
    },
    {
      "inputs": [
        {
          "internalType": "uint256",
          "name": "proposalId",
          "type": "uint256"
        }
      ],
      "name": "state",
      "outputs": [
        {
          "internalType": "enum IGovernor.ProposalState",
          "name": "",
          "type": "uint8"
        }
      ],
      "stateMutability": "view",
      "type": "function"
    },
    {
      "inputs": [
        {
          "internalType": "bytes4",
          "name": "interfaceId",
          "type": "bytes4"
        }
      ],
      "name": "supportsInterface",
      "outputs": [
        {
          "internalType": "bool",
          "name": "",
          "type": "bool"
        }
      ],
      "stateMutability": "view",
      "type": "function"
    },
    {
      "inputs": [],
      "name": "timelock",
      "outputs": [
        {
          "internalType": "address",
          "name": "",
          "type": "address"
        }
      ],
      "stateMutability": "view",
      "type": "function"
    },
    {
      "inputs": [],
      "name": "token",
      "outputs": [
        {
          "internalType": "contract ERC20VotesComp",
          "name": "",
          "type": "address"
        }
      ],
      "stateMutability": "view",
      "type": "function"
    },
    {
      "inputs": [
        {
          "internalType": "contract ICompoundTimelock",
          "name": "newTimelock",
          "type": "address"
        }
      ],
      "name": "updateTimelock",
      "outputs": [],
      "stateMutability": "nonpayable",
      "type": "function"
    },
    {
      "inputs": [],
      "name": "version",
      "outputs": [
        {
          "internalType": "string",
          "name": "",
          "type": "string"
        }
      ],
      "stateMutability": "view",
      "type": "function"
    },
    {
      "inputs": [],
      "name": "votingDelay",
      "outputs": [
        {
          "internalType": "uint256",
          "name": "",
          "type": "uint256"
        }
      ],
      "stateMutability": "view",
      "type": "function"
    },
    {
      "inputs": [],
      "name": "votingPeriod",
      "outputs": [
        {
          "internalType": "uint256",
          "name": "",
          "type": "uint256"
        }
      ],
      "stateMutability": "view",
      "type": "function"
    },
    {
      "stateMutability": "payable",
      "type": "receive"
    }
  ],
  "bytecode": "0x6101606040523480156200001257600080fd5b50604051620089a1380380620089a1833981810160405281019062000038919062000734565b84818585858a806200004f620001a560201b60201c565b60008280519060200120905060008280519060200120905060007f8b73c3c69bb8fe3d512ecc4cf759cc79239f7b179b0ffacaa9a75d522b39400f90508260e081815250508161010081815250504660a08181525050620000b8818484620001e260201b60201c565b608081815250503073ffffffffffffffffffffffffffffffffffffffff1660c08173ffffffffffffffffffffffffffffffffffffffff16815250508061012081815250505050505050806000908051906020019062000119929190620003da565b50506200012c836200021e60201b60201c565b6200013d826200026560201b60201c565b6200014e81620002f260201b60201c565b50505062000162816200033960201b60201c565b508073ffffffffffffffffffffffffffffffffffffffff166101408173ffffffffffffffffffffffffffffffffffffffff168152505050505050505050620009f1565b60606040518060400160405280600181526020017f3100000000000000000000000000000000000000000000000000000000000000815250905090565b60008383834630604051602001620001ff9594939291906200082c565b6040516020818303038152906040528051906020012090509392505050565b7fc565b045403dc03c2eea82b81a0465edad9e2e7fc4d97e11421c209da93d7a93600554826040516200025392919062000889565b60405180910390a18060058190555050565b60008111620002ab576040517f08c379a0000000000000000000000000000000000000000000000000000000008152600401620002a2906200093d565b60405180910390fd5b7f7e3f7f0708a84de9203036abaa450dccc85ad5ff52f78c170f3edb55cf5e882860065482604051620002e092919062000889565b60405180910390a18060068190555050565b7fccb45da8d5717e6c4544694297c4ba5cf151d455c9bb0ed4fc7a38411bc05461600754826040516200032792919062000889565b60405180910390a18060078190555050565b7f08f74ea46ef7894f65eabfb5e6e695de773a000b47c529ab559178069b226401600860009054906101000a900473ffffffffffffffffffffffffffffffffffffffff16826040516200038e9291906200095f565b60405180910390a180600860006101000a81548173ffffffffffffffffffffffffffffffffffffffff021916908373ffffffffffffffffffffffffffffffffffffffff16021790555050565b828054620003e890620009bb565b90600052602060002090601f0160209004810192826200040c576000855562000458565b82601f106200042757805160ff191683800117855562000458565b8280016001018555821562000458579182015b82811115620004575782518255916020019190600101906200043a565b5b5090506200046791906200046b565b5090565b5b80821115620004865760008160009055506001016200046c565b5090565b6000604051905090565b600080fd5b600080fd5b600080fd5b600080fd5b6000601f19601f8301169050919050565b7f4e487b7100000000000000000000000000000000000000000000000000000000600052604160045260246000fd5b620004f382620004a8565b810181811067ffffffffffffffff82111715620005155762000514620004b9565b5b80604052505050565b60006200052a6200048a565b9050620005388282620004e8565b919050565b600067ffffffffffffffff8211156200055b576200055a620004b9565b5b6200056682620004a8565b9050602081019050919050565b60005b838110156200059357808201518184015260208101905062000576565b83811115620005a3576000848401525b50505050565b6000620005c0620005ba846200053d565b6200051e565b905082815260208101848484011115620005df57620005de620004a3565b5b620005ec84828562000573565b509392505050565b600082601f8301126200060c576200060b6200049e565b5b81516200061e848260208601620005a9565b91505092915050565b600073ffffffffffffffffffffffffffffffffffffffff82169050919050565b6000620006548262000627565b9050919050565b6000620006688262000647565b9050919050565b6200067a816200065b565b81146200068657600080fd5b50565b6000815190506200069a816200066f565b92915050565b6000819050919050565b620006b581620006a0565b8114620006c157600080fd5b50565b600081519050620006d581620006aa565b92915050565b6000620006e88262000627565b9050919050565b6000620006fc82620006db565b9050919050565b6200070e81620006ef565b81146200071a57600080fd5b50565b6000815190506200072e8162000703565b92915050565b60008060008060008060c0878903121562000754576200075362000494565b5b600087015167ffffffffffffffff81111562000775576200077462000499565b5b6200078389828a01620005f4565b96505060206200079689828a0162000689565b9550506040620007a989828a01620006c4565b9450506060620007bc89828a01620006c4565b9350506080620007cf89828a01620006c4565b92505060a0620007e289828a016200071d565b9150509295509295509295565b6000819050919050565b6200080481620007ef565b82525050565b6200081581620006a0565b82525050565b620008268162000647565b82525050565b600060a082019050620008436000830188620007f9565b620008526020830187620007f9565b620008616040830186620007f9565b6200087060608301856200080a565b6200087f60808301846200081b565b9695505050505050565b6000604082019050620008a060008301856200080a565b620008af60208301846200080a565b9392505050565b600082825260208201905092915050565b7f476f7665726e6f7253657474696e67733a20766f74696e6720706572696f642060008201527f746f6f206c6f7700000000000000000000000000000000000000000000000000602082015250565b600062000925602783620008b6565b91506200093282620008c7565b604082019050919050565b60006020820190508181036000830152620009588162000916565b9050919050565b60006040820190506200097660008301856200081b565b6200098560208301846200081b565b9392505050565b7f4e487b7100000000000000000000000000000000000000000000000000000000600052602260045260246000fd5b60006002820490506001821680620009d457607f821691505b60208210811415620009eb57620009ea6200098c565b5b50919050565b60805160a05160c05160e051610100516101205161014051617f4e62000a536000396000818161240a0152613360015260006139570152600061399901526000613978015260006138ad015260006139030152600061392c0152617f4e6000f3fe6080604052600436106102815760003560e01c80637d5e81e21161014f578063da95691a116100c1578063eb9019d41161007a578063eb9019d414610af4578063ece40cc114610b31578063f23a6e6114610b5a578063f8ce560a14610b97578063fc0c546a14610bd4578063fe0d94c114610bff576102c7565b8063da95691a146109d2578063dd4e2ba514610a0f578063ddf0b00914610a3a578063deaaa7cc14610a63578063e23a9a5214610a8e578063ea0217cf14610acb576102c7565b8063b9a6196111610113578063b9a61961146108bd578063bc197c81146108d4578063c01f9e3714610911578063c28bc2fa1461094e578063c59057e41461096a578063d33219b4146109a7576102c7565b80637d5e81e2146107b25780639a802a6d146107ef578063a890c9101461082c578063ab58fb8e14610855578063b58131b014610892576102c7565b8063328dd982116101f3578063452115d6116101ac578063452115d61461066a57806354fd4d50146106a757806356781388146106d25780635f398a141461070f57806370b0f6601461074c5780637b3c71d314610775576102c7565b8063328dd9821461051f5780633932abb11461055f5780633bccf4fd1461058a5780633e4f49e6146105c757806340e58ee514610604578063438596321461062d576102c7565b8063150b7a0211610245578063150b7a02146103e2578063160cbed71461041f57806324bc1a641461045c5780632656227d146104875780632d63f693146104b75780632fe3e261146104f4576102c7565b8063013cf08b146102cc57806301ffc9a71461031257806302a251a31461034f578063034201811461037a57806306fdde03146103b7576102c7565b366102c7573073ffffffffffffffffffffffffffffffffffffffff166102a5610c1b565b73ffffffffffffffffffffffffffffffffffffffff16146102c557600080fd5b005b600080fd5b3480156102d857600080fd5b506102f360048036038101906102ee919061511f565b610c2a565b6040516103099a999897969594939291906151b7565b60405180910390f35b34801561031e57600080fd5b50610339600480360381019061033491906152ab565b610d1f565b60405161034691906152d8565b60405180910390f35b34801561035b57600080fd5b50610364610d31565b60405161037191906152f3565b60405180910390f35b34801561038657600080fd5b506103a1600480360381019061039c9190615523565b610d3b565b6040516103ae91906152f3565b60405180910390f35b3480156103c357600080fd5b506103cc610e20565b6040516103d99190615689565b60405180910390f35b3480156103ee57600080fd5b50610409600480360381019061040491906156d7565b610eb2565b6040516104169190615769565b60405180910390f35b34801561042b57600080fd5b50610446600480360381019061044191906159eb565b610ec6565b60405161045391906152f3565b60405180910390f35b34801561046857600080fd5b50610471610ede565b60405161047e91906152f3565b60405180910390f35b6104a1600480360381019061049c91906159eb565b610efa565b6040516104ae91906152f3565b60405180910390f35b3480156104c357600080fd5b506104de60048036038101906104d9919061511f565b610f12565b6040516104eb91906152f3565b60405180910390f35b34801561050057600080fd5b50610509610f80565b6040516105169190615ab5565b60405180910390f35b34801561052b57600080fd5b506105466004803603810190610541919061511f565b610fa4565b6040516105569493929190615e6f565b60405180910390f35b34801561056b57600080fd5b50610574611261565b60405161058191906152f3565b60405180910390f35b34801561059657600080fd5b506105b160048036038101906105ac9190615ed0565b61126b565b6040516105be91906152f3565b60405180910390f35b3480156105d357600080fd5b506105ee60048036038101906105e9919061511f565b6112f5565b6040516105fb9190615fc2565b60405180910390f35b34801561061057600080fd5b5061062b6004803603810190610626919061511f565b611307565b005b34801561063957600080fd5b50610654600480360381019061064f9190615fdd565b61169f565b60405161066191906152d8565b60405180910390f35b34801561067657600080fd5b50610691600480360381019061068c91906159eb565b61170d565b60405161069e91906152f3565b60405180910390f35b3480156106b357600080fd5b506106bc611725565b6040516106c99190615689565b60405180910390f35b3480156106de57600080fd5b506106f960048036038101906106f4919061601d565b611762565b60405161070691906152f3565b60405180910390f35b34801561071b57600080fd5b506107366004803603810190610731919061605d565b611793565b60405161074391906152f3565b60405180910390f35b34801561075857600080fd5b50610773600480360381019061076e919061511f565b6117fd565b005b34801561078157600080fd5b5061079c60048036038101906107979190616101565b6118f9565b6040516107a991906152f3565b60405180910390f35b3480156107be57600080fd5b506107d960048036038101906107d49190616216565b611961565b6040516107e691906152f3565b60405180910390f35b3480156107fb57600080fd5b50610816600480360381019061081191906162ed565b611979565b60405161082391906152f3565b60405180910390f35b34801561083857600080fd5b50610853600480360381019061084e91906163ac565b61198f565b005b34801561086157600080fd5b5061087c6004803603810190610877919061511f565b611a8b565b60405161088991906152f3565b60405180910390f35b34801561089e57600080fd5b506108a7611a9d565b6040516108b491906152f3565b60405180910390f35b3480156108c957600080fd5b506108d2611aac565b005b3480156108e057600080fd5b506108fb60048036038101906108f691906163d9565b611b30565b6040516109089190615769565b60405180910390f35b34801561091d57600080fd5b506109386004803603810190610933919061511f565b611b45565b60405161094591906152f3565b60405180910390f35b610968600480360381019061096391906164fe565b611bb3565b005b34801561097657600080fd5b50610991600480360381019061098c91906159eb565b611d41565b60405161099e91906152f3565b60405180910390f35b3480156109b357600080fd5b506109bc611d7d565b6040516109c99190616572565b60405180910390f35b3480156109de57600080fd5b506109f960048036038101906109f4919061666e565b611da7565b604051610a0691906152f3565b60405180910390f35b348015610a1b57600080fd5b50610a24611dde565b604051610a319190615689565b60405180910390f35b348015610a4657600080fd5b50610a616004803603810190610a5c919061511f565b611e1b565b005b348015610a6f57600080fd5b50610a786120d0565b604051610a859190615ab5565b60405180910390f35b348015610a9a57600080fd5b50610ab56004803603810190610ab09190615fdd565b6120f4565b604051610ac291906167fc565b60405180910390f35b348015610ad757600080fd5b50610af26004803603810190610aed919061511f565b6121d8565b005b348015610b0057600080fd5b50610b1b6004803603810190610b169190616817565b6122d4565b604051610b2891906152f3565b60405180910390f35b348015610b3d57600080fd5b50610b586004803603810190610b53919061511f565b6122f0565b005b348015610b6657600080fd5b50610b816004803603810190610b7c9190616857565b6123ec565b604051610b8e9190615769565b60405180910390f35b348015610ba357600080fd5b50610bbe6004803603810190610bb9919061511f565b612401565b604051610bcb91906152f3565b60405180910390f35b348015610be057600080fd5b50610be9612408565b604051610bf6919061694d565b60405180910390f35b610c196004803603810190610c14919061511f565b61242c565b005b6000610c256126e1565b905090565b6000806000806000806000806000808a9950610c458b611a8b565b9750610c508b610f12565b9650610c5b8b611b45565b95506000600460008d815260200190815260200160002090508060000160009054906101000a900473ffffffffffffffffffffffffffffffffffffffff1699508060050154955080600601549450806007015493506000610cbb8d6112f5565b905060026007811115610cd157610cd0615f4b565b5b816007811115610ce457610ce3615f4b565b5b149350600780811115610cfa57610cf9615f4b565b5b816007811115610d0d57610d0c615f4b565b5b14925050509193959799509193959799565b6000610d2a8261270b565b9050919050565b6000600654905090565b600080610dbe610db67fb3b3f3b703cd84ce352197dcff232b1b5d3cfb2025ce47cf04742d0651f1af888c8c8c8c604051610d77929190616998565b60405180910390208b80519060200120604051602001610d9b9594939291906169c0565b60405160208183030381529060405280519060200120612785565b86868661279f565b9050610e118a828b8b8b8080601f016020809104026020016040519081016040528093929190818152602001838380828437600081840152601f19601f820116905080830192505050505050508a6127ca565b91505098975050505050505050565b606060008054610e2f90616a42565b80601f0160208091040260200160405190810160405280929190818152602001828054610e5b90616a42565b8015610ea85780601f10610e7d57610100808354040283529160200191610ea8565b820191906000526020600020905b815481529060010190602001808311610e8b57829003601f168201915b5050505050905090565b600063150b7a0260e01b9050949350505050565b6000610ed485858585612987565b9050949350505050565b6000610ef5600143610ef09190616aa3565b612401565b905090565b6000610f0885858585612db1565b9050949350505050565b6000610f6f600160008481526020019081526020016000206000016040518060200160405290816000820160009054906101000a900467ffffffffffffffff1667ffffffffffffffff1667ffffffffffffffff1681525050612efe565b67ffffffffffffffff169050919050565b7fb3b3f3b703cd84ce352197dcff232b1b5d3cfb2025ce47cf04742d0651f1af8881565b6060806060806000600460008781526020019081526020016000209050806001018160020182600301836004018380548060200260200160405190810160405280929190818152602001828054801561105257602002820191906000526020600020905b8160009054906101000a900473ffffffffffffffffffffffffffffffffffffffff1673ffffffffffffffffffffffffffffffffffffffff1681526020019060010190808311611008575b50505050509350828054806020026020016040519081016040528092919081815260200182805480156110a457602002820191906000526020600020905b815481526020019060010190808311611090575b5050505050925081805480602002602001604051908101604052809291908181526020016000905b828210156111785783829060005260206000200180546110eb90616a42565b80601f016020809104026020016040519081016040528092919081815260200182805461111790616a42565b80156111645780601f1061113957610100808354040283529160200191611164565b820191906000526020600020905b81548152906001019060200180831161114757829003601f168201915b5050505050815260200190600101906110cc565b50505050915080805480602002602001604051908101604052809291908181526020016000905b8282101561124b5783829060005260206000200180546111be90616a42565b80601f01602080910402602001604051908101604052809291908181526020018280546111ea90616a42565b80156112375780601f1061120c57610100808354040283529160200191611237565b820191906000526020600020905b81548152906001019060200180831161121a57829003601f168201915b50505050508152602001906001019061119f565b5050505090509450945094509450509193509193565b6000600554905090565b6000806112cc6112c47f150214d74d59b7d1e90c73fc22ef3d991dd0a76b046543d4d80ab92d2a50328f89896040516020016112a993929190616ad7565b60405160208183030381529060405280519060200120612785565b86868661279f565b90506112e987828860405180602001604052806000815250612f0c565b91505095945050505050565b600061130082612f2c565b9050919050565b60006004600083815260200190815260200160002090508060000160009054906101000a900473ffffffffffffffffffffffffffffffffffffffff1673ffffffffffffffffffffffffffffffffffffffff16611361613057565b73ffffffffffffffffffffffffffffffffffffffff1614806113c25750611386611a9d565b6113c08260000160009054906101000a900473ffffffffffffffffffffffffffffffffffffffff166001436113bb9190616aa3565b6122d4565b105b611401576040517f08c379a00000000000000000000000000000000000000000000000000000000081526004016113f890616b80565b60405180910390fd5b61169a8160010180548060200260200160405190810160405280929190818152602001828054801561148857602002820191906000526020600020905b8160009054906101000a900473ffffffffffffffffffffffffffffffffffffffff1673ffffffffffffffffffffffffffffffffffffffff168152602001906001019080831161143e575b5050505050826002018054806020026020016040519081016040528092919081815260200182805480156114db57602002820191906000526020600020905b8154815260200190600101908083116114c7575b505050505061169084600301805480602002602001604051908101604052809291908181526020016000905b828210156115b357838290600052602060002001805461152690616a42565b80601f016020809104026020016040519081016040528092919081815260200182805461155290616a42565b801561159f5780601f106115745761010080835404028352916020019161159f565b820191906000526020600020905b81548152906001019060200180831161158257829003601f168201915b505050505081526020019060010190611507565b5050505085600401805480602002602001604051908101604052809291908181526020016000905b828210156116875783829060005260206000200180546115fa90616a42565b80601f016020809104026020016040519081016040528092919081815260200182805461162690616a42565b80156116735780601f1061164857610100808354040283529160200191611673565b820191906000526020600020905b81548152906001019060200180831161165657829003601f168201915b5050505050815260200190600101906115db565b5050505061305f565b846009015461319b565b505050565b60006004600084815260200190815260200160002060080160008373ffffffffffffffffffffffffffffffffffffffff1673ffffffffffffffffffffffffffffffffffffffff16815260200190815260200160002060000160009054906101000a900460ff16905092915050565b600061171b8585858561319b565b9050949350505050565b60606040518060400160405280600181526020017f3100000000000000000000000000000000000000000000000000000000000000815250905090565b60008061176d613057565b905061178a84828560405180602001604052806000815250612f0c565b91505092915050565b60008061179e613057565b90506117f187828888888080601f016020809104026020016040519081016040528093929190818152602001838380828437600081840152601f19601f82011690508083019250505050505050876127ca565b91505095945050505050565b611805610c1b565b73ffffffffffffffffffffffffffffffffffffffff16611823613057565b73ffffffffffffffffffffffffffffffffffffffff1614611879576040517f08c379a000000000000000000000000000000000000000000000000000000000815260040161187090616bec565b60405180910390fd5b3073ffffffffffffffffffffffffffffffffffffffff16611898610c1b565b73ffffffffffffffffffffffffffffffffffffffff16146118ed5760006118bd6131b3565b6040516118cb929190616998565b604051809103902090505b806118e160026131c0565b146118eb576118d6565b505b6118f68161329c565b50565b600080611904613057565b905061195686828787878080601f016020809104026020016040519081016040528093929190818152602001838380828437600081840152601f19601f82011690508083019250505050505050612f0c565b915050949350505050565b600061196f858585856132e1565b9050949350505050565b600061198684848461335c565b90509392505050565b611997610c1b565b73ffffffffffffffffffffffffffffffffffffffff166119b5613057565b73ffffffffffffffffffffffffffffffffffffffff1614611a0b576040517f08c379a0000000000000000000000000000000000000000000000000000000008152600401611a0290616bec565b60405180910390fd5b3073ffffffffffffffffffffffffffffffffffffffff16611a2a610c1b565b73ffffffffffffffffffffffffffffffffffffffff1614611a7f576000611a4f6131b3565b604051611a5d929190616998565b604051809103902090505b80611a7360026131c0565b14611a7d57611a68565b505b611a8881613420565b50565b6000611a96826134bf565b9050919050565b6000611aa761352d565b905090565b600860009054906101000a900473ffffffffffffffffffffffffffffffffffffffff1673ffffffffffffffffffffffffffffffffffffffff16630e18b6816040518163ffffffff1660e01b8152600401600060405180830381600087803b158015611b1657600080fd5b505af1158015611b2a573d6000803e3d6000fd5b50505050565b600063bc197c8160e01b905095945050505050565b6000611ba2600160008481526020019081526020016000206001016040518060200160405290816000820160009054906101000a900467ffffffffffffffff1667ffffffffffffffff1667ffffffffffffffff1681525050612efe565b67ffffffffffffffff169050919050565b611bbb610c1b565b73ffffffffffffffffffffffffffffffffffffffff16611bd9613057565b73ffffffffffffffffffffffffffffffffffffffff1614611c2f576040517f08c379a0000000000000000000000000000000000000000000000000000000008152600401611c2690616bec565b60405180910390fd5b3073ffffffffffffffffffffffffffffffffffffffff16611c4e610c1b565b73ffffffffffffffffffffffffffffffffffffffff1614611ca3576000611c736131b3565b604051611c81929190616998565b604051809103902090505b80611c9760026131c0565b14611ca157611c8c565b505b6000808573ffffffffffffffffffffffffffffffffffffffff16858585604051611cce929190616998565b60006040518083038185875af1925050503d8060008114611d0b576040519150601f19603f3d011682016040523d82523d6000602084013e611d10565b606091505b5091509150611d388282604051806060016040528060288152602001617ef160289139613537565b50505050505050565b600084848484604051602001611d5a9493929190616c0c565b6040516020818303038152906040528051906020012060001c9050949350505050565b6000600860009054906101000a900473ffffffffffffffffffffffffffffffffffffffff16905090565b6000611dbe611db4613057565b8787878787613559565b611dd38686611dcd878761305f565b85611961565b905095945050505050565b60606040518060400160405280601a81526020017f737570706f72743d627261766f2671756f72756d3d627261766f000000000000815250905090565b60006004600083815260200190815260200160002090506120cb81600101805480602002602001604051908101604052809291908181526020018280548015611eb957602002820191906000526020600020905b8160009054906101000a900473ffffffffffffffffffffffffffffffffffffffff1673ffffffffffffffffffffffffffffffffffffffff1681526020019060010190808311611e6f575b505050505082600201805480602002602001604051908101604052809291908181526020018280548015611f0c57602002820191906000526020600020905b815481526020019060010190808311611ef8575b50505050506120c184600301805480602002602001604051908101604052809291908181526020016000905b82821015611fe4578382906000526020600020018054611f5790616a42565b80601f0160208091040260200160405190810160405280929190818152602001828054611f8390616a42565b8015611fd05780601f10611fa557610100808354040283529160200191611fd0565b820191906000526020600020905b815481529060010190602001808311611fb357829003601f168201915b505050505081526020019060010190611f38565b5050505085600401805480602002602001604051908101604052809291908181526020016000905b828210156120b857838290600052602060002001805461202b90616a42565b80601f016020809104026020016040519081016040528092919081815260200182805461205790616a42565b80156120a45780601f10612079576101008083540402835291602001916120a4565b820191906000526020600020905b81548152906001019060200180831161208757829003601f168201915b50505050508152602001906001019061200c565b5050505061305f565b8460090154610ec6565b505050565b7f150214d74d59b7d1e90c73fc22ef3d991dd0a76b046543d4d80ab92d2a50328f81565b6120fc614d19565b6004600084815260200190815260200160002060080160008373ffffffffffffffffffffffffffffffffffffffff1673ffffffffffffffffffffffffffffffffffffffff1681526020019081526020016000206040518060600160405290816000820160009054906101000a900460ff161515151581526020016000820160019054906101000a900460ff1660ff1660ff1681526020016000820160029054906101000a90046bffffffffffffffffffffffff166bffffffffffffffffffffffff166bffffffffffffffffffffffff1681525050905092915050565b6121e0610c1b565b73ffffffffffffffffffffffffffffffffffffffff166121fe613057565b73ffffffffffffffffffffffffffffffffffffffff1614612254576040517f08c379a000000000000000000000000000000000000000000000000000000000815260040161224b90616bec565b60405180910390fd5b3073ffffffffffffffffffffffffffffffffffffffff16612273610c1b565b73ffffffffffffffffffffffffffffffffffffffff16146122c85760006122986131b3565b6040516122a6929190616998565b604051809103902090505b806122bc60026131c0565b146122c6576122b1565b505b6122d181613660565b50565b60006122e883836122e36136e8565b61335c565b905092915050565b6122f8610c1b565b73ffffffffffffffffffffffffffffffffffffffff16612316613057565b73ffffffffffffffffffffffffffffffffffffffff161461236c576040517f08c379a000000000000000000000000000000000000000000000000000000000815260040161236390616bec565b60405180910390fd5b3073ffffffffffffffffffffffffffffffffffffffff1661238b610c1b565b73ffffffffffffffffffffffffffffffffffffffff16146123e05760006123b06131b3565b6040516123be929190616998565b604051809103902090505b806123d460026131c0565b146123de576123c9565b505b6123e9816136ff565b50565b600063f23a6e6160e01b905095945050505050565b6000919050565b7f000000000000000000000000000000000000000000000000000000000000000081565b60006004600083815260200190815260200160002090506126dc816001018054806020026020016040519081016040528092919081815260200182805480156124ca57602002820191906000526020600020905b8160009054906101000a900473ffffffffffffffffffffffffffffffffffffffff1673ffffffffffffffffffffffffffffffffffffffff1681526020019060010190808311612480575b50505050508260020180548060200260200160405190810160405280929190818152602001828054801561251d57602002820191906000526020600020905b815481526020019060010190808311612509575b50505050506126d284600301805480602002602001604051908101604052809291908181526020016000905b828210156125f557838290600052602060002001805461256890616a42565b80601f016020809104026020016040519081016040528092919081815260200182805461259490616a42565b80156125e15780601f106125b6576101008083540402835291602001916125e1565b820191906000526020600020905b8154815290600101906020018083116125c457829003601f168201915b505050505081526020019060010190612549565b5050505085600401805480602002602001604051908101604052809291908181526020016000905b828210156126c957838290600052602060002001805461263c90616a42565b80601f016020809104026020016040519081016040528092919081815260200182805461266890616a42565b80156126b55780601f1061268a576101008083540402835291602001916126b5565b820191906000526020600020905b81548152906001019060200180831161269857829003601f168201915b50505050508152602001906001019061261d565b5050505061305f565b8460090154610efa565b505050565b6000600860009054906101000a900473ffffffffffffffffffffffffffffffffffffffff16905090565b60007f6e665ced000000000000000000000000000000000000000000000000000000007bffffffffffffffffffffffffffffffffffffffffffffffffffffffff1916827bffffffffffffffffffffffffffffffffffffffffffffffffffffffff1916148061277e575061277d82613744565b5b9050919050565b60006127986127926138a9565b836139c3565b9050919050565b60008060006127b0878787876139f6565b915091506127bd81613ad9565b8192505050949350505050565b600080600160008881526020019081526020016000209050600160078111156127f6576127f5615f4b565b5b6127ff886112f5565b600781111561281157612810615f4b565b5b14612851576040517f08c379a000000000000000000000000000000000000000000000000000000000815260040161284890616cd8565b60405180910390fd5b60006128b0876128a0846000016040518060200160405290816000820160009054906101000a900467ffffffffffffffff1667ffffffffffffffff1667ffffffffffffffff1681525050612efe565b67ffffffffffffffff168661335c565b90506128bf8888888488613c47565b600084511415612922578673ffffffffffffffffffffffffffffffffffffffff167fb8e138887d0aa13bab447e82de9d5c1777041ecd21ca36ba824ff1e6c07ddda4898884896040516129159493929190616cf8565b60405180910390a2612979565b8673ffffffffffffffffffffffffffffffffffffffff167fe2babfbac5889a709b63bb7f598b324e08bc5a4fb9ec647fb3cbc9ec07eb87128988848989604051612970959493929190616d8e565b60405180910390a25b809250505095945050505050565b60008061299686868686611d41565b9050600460078111156129ac576129ab615f4b565b5b6129b5826112f5565b60078111156129c7576129c6615f4b565b5b14612a07576040517f08c379a00000000000000000000000000000000000000000000000000000000081526004016129fe90616e61565b60405180910390fd5b6000600860009054906101000a900473ffffffffffffffffffffffffffffffffffffffff1673ffffffffffffffffffffffffffffffffffffffff16636a42b8f86040518163ffffffff1660e01b815260040160206040518083038186803b158015612a7157600080fd5b505afa158015612a85573d6000803e3d6000fd5b505050506040513d601f19601f82011682018060405250810190612aa99190616e96565b42612ab49190616ec3565b9050612ae6612ac282613e72565b60096000858152602001908152602001600020600001613ec990919063ffffffff16565b60005b8751811015612d6a57600860009054906101000a900473ffffffffffffffffffffffffffffffffffffffff1673ffffffffffffffffffffffffffffffffffffffff1663f2b06537898381518110612b4357612b42616f19565b5b6020026020010151898481518110612b5e57612b5d616f19565b5b6020026020010151898581518110612b7957612b78616f19565b5b602002602001015186604051602001612b959493929190616f6e565b604051602081830303815290604052805190602001206040518263ffffffff1660e01b8152600401612bc79190615ab5565b60206040518083038186803b158015612bdf57600080fd5b505afa158015612bf3573d6000803e3d6000fd5b505050506040513d601f19601f82011682018060405250810190612c179190616ff9565b15612c57576040517f08c379a0000000000000000000000000000000000000000000000000000000008152600401612c4e906170be565b60405180910390fd5b600860009054906101000a900473ffffffffffffffffffffffffffffffffffffffff1673ffffffffffffffffffffffffffffffffffffffff16633a66f901898381518110612ca857612ca7616f19565b5b6020026020010151898481518110612cc357612cc2616f19565b5b6020026020010151898581518110612cde57612cdd616f19565b5b6020026020010151866040518563ffffffff1660e01b8152600401612d069493929190616f6e565b602060405180830381600087803b158015612d2057600080fd5b505af1158015612d34573d6000803e3d6000fd5b505050506040513d601f19601f82011682018060405250810190612d5891906170f3565b5080612d6390617120565b9050612ae9565b507f9a2e42fd6722813d69113e7d0079d3d940171428df7373df9c7f7617cfda28928282604051612d9c929190617169565b60405180910390a18192505050949350505050565b600080612dc086868686611d41565b90506000612dcd826112f5565b905060046007811115612de357612de2615f4b565b5b816007811115612df657612df5615f4b565b5b1480612e26575060056007811115612e1157612e10615f4b565b5b816007811115612e2457612e23615f4b565b5b145b612e65576040517f08c379a0000000000000000000000000000000000000000000000000000000008152600401612e5c90616e61565b60405180910390fd5b600180600084815260200190815260200160002060020160006101000a81548160ff0219169083151502179055507f712ae1383f79ac853f8d882153778e0260ef8f03b504e2866e0593e04d2b291f82604051612ec291906152f3565b60405180910390a1612ed78288888888613ef8565b612ee48288888888613fdc565b612ef18288888888613ff0565b8192505050949350505050565b600081600001519050919050565b6000612f2285858585612f1d6136e8565b6127ca565b9050949350505050565b600080612f388361404b565b905060046007811115612f4e57612f4d615f4b565b5b816007811115612f6157612f60615f4b565b5b14612f6f5780915050613052565b6000612f7a84611a8b565b90506000811415612f8f578192505050613052565b600860009054906101000a900473ffffffffffffffffffffffffffffffffffffffff1673ffffffffffffffffffffffffffffffffffffffff1663c1a287e26040518163ffffffff1660e01b815260040160206040518083038186803b158015612ff757600080fd5b505afa15801561300b573d6000803e3d6000fd5b505050506040513d601f19601f8201168201806040525081019061302f9190616e96565b8161303a9190616ec3565b421061304b57600692505050613052565b6005925050505b919050565b600033905090565b60606000825167ffffffffffffffff81111561307e5761307d6153c2565b5b6040519080825280602002602001820160405280156130b157816020015b606081526020019060019003908161309c5790505b50905060005b84518110156131905760008582815181106130d5576130d4616f19565b5b60200260200101515114613145578481815181106130f6576130f5616f19565b5b60200260200101518051906020012084828151811061311857613117616f19565b5b60200260200101516040516020016131319291906171e4565b604051602081830303815290604052613161565b83818151811061315857613157616f19565b5b60200260200101515b82828151811061317457613173616f19565b5b60200260200101819052508061318990617120565b90506130b7565b508091505092915050565b60006131a985858585614160565b9050949350505050565b3660008036915091509091565b60006131cb826142b2565b15613202576040517f3db2a12a00000000000000000000000000000000000000000000000000000000815260040160405180910390fd5b60008260000160009054906101000a9004600f0b905082600101600082600f0b600f0b815260200190815260200160002054915082600101600082600f0b600f0b815260200190815260200160002060009055600181018360000160006101000a8154816fffffffffffffffffffffffffffffffff0219169083600f0b6fffffffffffffffffffffffffffffffff16021790555050919050565b7fc565b045403dc03c2eea82b81a0465edad9e2e7fc4d97e11421c209da93d7a93600554826040516132cf929190617169565b60405180910390a18060058190555050565b60006133466132ee613057565b8686865167ffffffffffffffff81111561330b5761330a6153c2565b5b60405190808252806020026020018201604052801561333e57816020015b60608152602001906001900390816133295790505b508787613559565b613352858585856142e7565b9050949350505050565b60007f000000000000000000000000000000000000000000000000000000000000000073ffffffffffffffffffffffffffffffffffffffff1663782d6fe185856040518363ffffffff1660e01b81526004016133b992919061720c565b60206040518083038186803b1580156133d157600080fd5b505afa1580156133e5573d6000803e3d6000fd5b505050506040513d601f19601f820116820180604052508101906134099190617261565b6bffffffffffffffffffffffff1690509392505050565b7f08f74ea46ef7894f65eabfb5e6e695de773a000b47c529ab559178069b226401600860009054906101000a900473ffffffffffffffffffffffffffffffffffffffff168260405161347392919061728e565b60405180910390a180600860006101000a81548173ffffffffffffffffffffffffffffffffffffffff021916908373ffffffffffffffffffffffffffffffffffffffff16021790555050565b600061351c600960008481526020019081526020016000206000016040518060200160405290816000820160009054906101000a900467ffffffffffffffff1667ffffffffffffffff1667ffffffffffffffff16815250506145ee565b67ffffffffffffffff169050919050565b6000600754905090565b6060831561354757829050613552565b61355183836145fc565b5b9392505050565b600081805190602001209050600061357c8787613576888861305f565b85611d41565b905060006004600083815260200190815260200160002090506000801b8160090154141561365557888160000160006101000a81548173ffffffffffffffffffffffffffffffffffffffff021916908373ffffffffffffffffffffffffffffffffffffffff160217905550878160010190805190602001906135ff929190614d4d565b5086816002019080519060200190613618929190614dd7565b5085816003019080519060200190613631929190614e24565b508481600401908051906020019061364a929190614e84565b508281600901819055505b505050505050505050565b600081116136a3576040517f08c379a000000000000000000000000000000000000000000000000000000000815260040161369a90617329565b60405180910390fd5b7f7e3f7f0708a84de9203036abaa450dccc85ad5ff52f78c170f3edb55cf5e8828600654826040516136d6929190617169565b60405180910390a18060068190555050565b606060405180602001604052806000815250905090565b7fccb45da8d5717e6c4544694297c4ba5cf151d455c9bb0ed4fc7a38411bc0546160075482604051613732929190617169565b60405180910390a18060078190555050565b6000639a802a6d60e01b630342018160e01b635f398a1460e01b7f79dd796f000000000000000000000000000000000000000000000000000000001818187bffffffffffffffffffffffffffffffffffffffffffffffffffffffff1916827bffffffffffffffffffffffffffffffffffffffffffffffffffffffff1916148061382a57507f79dd796f000000000000000000000000000000000000000000000000000000007bffffffffffffffffffffffffffffffffffffffffffffffffffffffff1916827bffffffffffffffffffffffffffffffffffffffffffffffffffffffff1916145b8061389257507f4e2312e0000000000000000000000000000000000000000000000000000000007bffffffffffffffffffffffffffffffffffffffffffffffffffffffff1916827bffffffffffffffffffffffffffffffffffffffffffffffffffffffff1916145b806138a257506138a18261464c565b5b9050919050565b60007f000000000000000000000000000000000000000000000000000000000000000073ffffffffffffffffffffffffffffffffffffffff163073ffffffffffffffffffffffffffffffffffffffff1614801561392557507f000000000000000000000000000000000000000000000000000000000000000046145b15613952577f000000000000000000000000000000000000000000000000000000000000000090506139c0565b6139bd7f00000000000000000000000000000000000000000000000000000000000000007f00000000000000000000000000000000000000000000000000000000000000007f00000000000000000000000000000000000000000000000000000000000000006146b6565b90505b90565b600082826040516020016139d89291906173c1565b60405160208183030381529060405280519060200120905092915050565b6000807f7fffffffffffffffffffffffffffffff5d576e7357a4501ddfe92f46681b20a08360001c1115613a31576000600391509150613ad0565b600060018787878760405160008152602001604052604051613a5694939291906173f8565b6020604051602081039080840390855afa158015613a78573d6000803e3d6000fd5b505050602060405103519050600073ffffffffffffffffffffffffffffffffffffffff168173ffffffffffffffffffffffffffffffffffffffff161415613ac757600060019250925050613ad0565b80600092509250505b94509492505050565b60006004811115613aed57613aec615f4b565b5b816004811115613b0057613aff615f4b565b5b1415613b0b57613c44565b60016004811115613b1f57613b1e615f4b565b5b816004811115613b3257613b31615f4b565b5b1415613b73576040517f08c379a0000000000000000000000000000000000000000000000000000000008152600401613b6a90617489565b60405180910390fd5b60026004811115613b8757613b86615f4b565b5b816004811115613b9a57613b99615f4b565b5b1415613bdb576040517f08c379a0000000000000000000000000000000000000000000000000000000008152600401613bd2906174f5565b60405180910390fd5b60036004811115613bef57613bee615f4b565b5b816004811115613c0257613c01615f4b565b5b1415613c43576040517f08c379a0000000000000000000000000000000000000000000000000000000008152600401613c3a90617587565b60405180910390fd5b5b50565b600060046000878152602001908152602001600020905060008160080160008773ffffffffffffffffffffffffffffffffffffffff1673ffffffffffffffffffffffffffffffffffffffff16815260200190815260200160002090508060000160009054906101000a900460ff1615613cf5576040517f08c379a0000000000000000000000000000000000000000000000000000000008152600401613cec90617619565b60405180910390fd5b60018160000160006101000a81548160ff021916908315150217905550848160000160016101000a81548160ff021916908360ff160217905550613d38846146f0565b8160000160026101000a8154816bffffffffffffffffffffffff02191690836bffffffffffffffffffffffff16021790555060006002811115613d7e57613d7d615f4b565b5b60ff168560ff161415613dab5783826006016000828254613d9f9190616ec3565b92505081905550613e69565b60016002811115613dbf57613dbe615f4b565b5b60ff168560ff161415613dec5783826005016000828254613de09190616ec3565b92505081905550613e68565b600280811115613dff57613dfe615f4b565b5b60ff168560ff161415613e2c5783826007016000828254613e209190616ec3565b92505081905550613e67565b6040517f08c379a0000000000000000000000000000000000000000000000000000000008152600401613e5e906176ab565b60405180910390fd5b5b5b50505050505050565b600067ffffffffffffffff8016821115613ec1576040517f08c379a0000000000000000000000000000000000000000000000000000000008152600401613eb89061773d565b60405180910390fd5b819050919050565b808260000160006101000a81548167ffffffffffffffff021916908367ffffffffffffffff1602179055505050565b3073ffffffffffffffffffffffffffffffffffffffff16613f17610c1b565b73ffffffffffffffffffffffffffffffffffffffff1614613fd55760005b8451811015613fd3573073ffffffffffffffffffffffffffffffffffffffff16858281518110613f6857613f67616f19565b5b602002602001015173ffffffffffffffffffffffffffffffffffffffff161415613fc257613fc1838281518110613fa257613fa1616f19565b5b602002602001015180519060200120600261474b90919063ffffffff16565b5b80613fcc90617120565b9050613f35565b505b5050505050565b613fe985858585856147c7565b5050505050565b3073ffffffffffffffffffffffffffffffffffffffff1661400f610c1b565b73ffffffffffffffffffffffffffffffffffffffff16146140445761403460026142b2565b614043576140426002614970565b5b5b5050505050565b6000806001600084815260200190815260200160002090508060020160009054906101000a900460ff161561408457600791505061415b565b8060020160019054906101000a900460ff16156140a557600291505061415b565b60006140b084610f12565b905060008114156140f6576040517f08c379a00000000000000000000000000000000000000000000000000000000081526004016140ed906177a9565b60405180910390fd5b4381106141085760009250505061415b565b600061411385611b45565b9050438110614128576001935050505061415b565b614131856149f1565b8015614142575061414185614a29565b5b15614153576004935050505061415b565b600393505050505b919050565b60008061416f86868686614a54565b9050600061417c82611a8b565b905060008111156142a55760005b875181101561428557600860009054906101000a900473ffffffffffffffffffffffffffffffffffffffff1673ffffffffffffffffffffffffffffffffffffffff1663591fcdfe8983815181106141e4576141e3616f19565b5b60200260200101518984815181106141ff576141fe616f19565b5b602002602001015189858151811061421a57614219616f19565b5b6020026020010151866040518563ffffffff1660e01b81526004016142429493929190616f6e565b600060405180830381600087803b15801561425c57600080fd5b505af1158015614270573d6000803e3d6000fd5b505050508061427e90617120565b905061418a565b506142a460096000848152602001908152602001600020600001614bad565b5b8192505050949350505050565b60008160000160009054906101000a9004600f0b600f0b8260000160109054906101000a9004600f0b600f0b13159050919050565b60006142f1611a9d565b61430e6142fc613057565b6001436143099190616aa3565b6122d4565b101561434f576040517f08c379a00000000000000000000000000000000000000000000000000000000081526004016143469061783b565b60405180910390fd5b60006143648686868680519060200120611d41565b905084518651146143aa576040517f08c379a00000000000000000000000000000000000000000000000000000000081526004016143a1906178cd565b60405180910390fd5b83518651146143ee576040517f08c379a00000000000000000000000000000000000000000000000000000000081526004016143e5906178cd565b60405180910390fd5b6000865111614432576040517f08c379a000000000000000000000000000000000000000000000000000000000815260040161442990617939565b60405180910390fd5b6000600160008381526020019081526020016000209050614492816000016040518060200160405290816000820160009054906101000a900467ffffffffffffffff1667ffffffffffffffff1667ffffffffffffffff1681525050614bdc565b6144d1576040517f08c379a00000000000000000000000000000000000000000000000000000000081526004016144c8906179cb565b60405180910390fd5b60006144e36144de611261565b613e72565b6144ec43613e72565b6144f691906179ff565b9050600061450a614505610d31565b613e72565b8261451591906179ff565b905061452d8284600001614bf690919063ffffffff16565b6145438184600101614bf690919063ffffffff16565b7f7d84a6263ae0d98d3329bd7b46bb4e8d6f98cd35a7adb45c274c8b7fd5ebd5e08461456d613057565b8b8b8d5167ffffffffffffffff81111561458a576145896153c2565b5b6040519080825280602002602001820160405280156145bd57816020015b60608152602001906001900390816145a85790505b508c88888e6040516145d799989796959493929190617a6e565b60405180910390a183945050505050949350505050565b600081600001519050919050565b60008251111561460f5781518083602001fd5b806040517f08c379a00000000000000000000000000000000000000000000000000000000081526004016146439190615689565b60405180910390fd5b60007f01ffc9a7000000000000000000000000000000000000000000000000000000007bffffffffffffffffffffffffffffffffffffffffffffffffffffffff1916827bffffffffffffffffffffffffffffffffffffffffffffffffffffffff1916149050919050565b600083838346306040516020016146d1959493929190617b1e565b6040516020818303038152906040528051906020012090509392505050565b60006bffffffffffffffffffffffff8016821115614743576040517f08c379a000000000000000000000000000000000000000000000000000000000815260040161473a90617be3565b60405180910390fd5b819050919050565b60008260000160109054906101000a9004600f0b90508183600101600083600f0b600f0b815260200190815260200160002081905550600181018360000160106101000a8154816fffffffffffffffffffffffffffffffff0219169083600f0b6fffffffffffffffffffffffffffffffff160217905550505050565b60006147d286611a8b565b905060008111614817576040517f08c379a000000000000000000000000000000000000000000000000000000000815260040161480e90617c75565b60405180910390fd5b614843600860009054906101000a900473ffffffffffffffffffffffffffffffffffffffff1634614c25565b60005b855181101561496757600860009054906101000a900473ffffffffffffffffffffffffffffffffffffffff1673ffffffffffffffffffffffffffffffffffffffff16630825f38f8783815181106148a05761489f616f19565b5b60200260200101518784815181106148bb576148ba616f19565b5b60200260200101518785815181106148d6576148d5616f19565b5b6020026020010151866040518563ffffffff1660e01b81526004016148fe9493929190616f6e565b600060405180830381600087803b15801561491857600080fd5b505af115801561492c573d6000803e3d6000fd5b505050506040513d6000823e3d601f19601f820116820180604052508101906149559190617d05565b508061496090617120565b9050614846565b50505050505050565b60008160000160006101000a8154816fffffffffffffffffffffffffffffffff0219169083600f0b6fffffffffffffffffffffffffffffffff16021790555060008160000160106101000a8154816fffffffffffffffffffffffffffffffff0219169083600f0b6fffffffffffffffffffffffffffffffff16021790555050565b6000806004600084815260200190815260200160002090508060050154614a1f614a1a85610f12565b612401565b1115915050919050565b6000806004600084815260200190815260200160002090508060060154816005015411915050919050565b600080614a6386868686611d41565b90506000614a70826112f5565b905060026007811115614a8657614a85615f4b565b5b816007811115614a9957614a98615f4b565b5b14158015614acc575060066007811115614ab657614ab5615f4b565b5b816007811115614ac957614ac8615f4b565b5b14155b8015614afc5750600780811115614ae657614ae5615f4b565b5b816007811115614af957614af8615f4b565b5b14155b614b3b576040517f08c379a0000000000000000000000000000000000000000000000000000000008152600401614b3290617d9a565b60405180910390fd5b600180600084815260200190815260200160002060020160016101000a81548160ff0219169083151502179055507f789cf55be980739dad1d0699b93b58e806b51c9d96619bfa8fe0a28abaa7b30c82604051614b9891906152f3565b60405180910390a18192505050949350505050565b60008160000160006101000a81548167ffffffffffffffff021916908367ffffffffffffffff16021790555050565b600080826000015167ffffffffffffffff16149050919050565b808260000160006101000a81548167ffffffffffffffff021916908367ffffffffffffffff1602179055505050565b80471015614c68576040517f08c379a0000000000000000000000000000000000000000000000000000000008152600401614c5f90617e06565b60405180910390fd5b60008273ffffffffffffffffffffffffffffffffffffffff1682604051614c8e90617e49565b60006040518083038185875af1925050503d8060008114614ccb576040519150601f19603f3d011682016040523d82523d6000602084013e614cd0565b606091505b5050905080614d14576040517f08c379a0000000000000000000000000000000000000000000000000000000008152600401614d0b90617ed0565b60405180910390fd5b505050565b6040518060600160405280600015158152602001600060ff16815260200160006bffffffffffffffffffffffff1681525090565b828054828255906000526020600020908101928215614dc6579160200282015b82811115614dc55782518260006101000a81548173ffffffffffffffffffffffffffffffffffffffff021916908373ffffffffffffffffffffffffffffffffffffffff16021790555091602001919060010190614d6d565b5b509050614dd39190614ee4565b5090565b828054828255906000526020600020908101928215614e13579160200282015b82811115614e12578251825591602001919060010190614df7565b5b509050614e209190614ee4565b5090565b828054828255906000526020600020908101928215614e73579160200282015b82811115614e72578251829080519060200190614e62929190614f01565b5091602001919060010190614e44565b5b509050614e809190614f87565b5090565b828054828255906000526020600020908101928215614ed3579160200282015b82811115614ed2578251829080519060200190614ec2929190614fab565b5091602001919060010190614ea4565b5b509050614ee09190615031565b5090565b5b80821115614efd576000816000905550600101614ee5565b5090565b828054614f0d90616a42565b90600052602060002090601f016020900481019282614f2f5760008555614f76565b82601f10614f4857805160ff1916838001178555614f76565b82800160010185558215614f76579182015b82811115614f75578251825591602001919060010190614f5a565b5b509050614f839190614ee4565b5090565b5b80821115614fa75760008181614f9e9190615055565b50600101614f88565b5090565b828054614fb790616a42565b90600052602060002090601f016020900481019282614fd95760008555615020565b82601f10614ff257805160ff1916838001178555615020565b82800160010185558215615020579182015b8281111561501f578251825591602001919060010190615004565b5b50905061502d9190614ee4565b5090565b5b8082111561505157600081816150489190615095565b50600101615032565b5090565b50805461506190616a42565b6000825580601f106150735750615092565b601f0160209004906000526020600020908101906150919190614ee4565b5b50565b5080546150a190616a42565b6000825580601f106150b357506150d2565b601f0160209004906000526020600020908101906150d19190614ee4565b5b50565b6000604051905090565b600080fd5b600080fd5b6000819050919050565b6150fc816150e9565b811461510757600080fd5b50565b600081359050615119816150f3565b92915050565b600060208284031215615135576151346150df565b5b60006151438482850161510a565b91505092915050565b615155816150e9565b82525050565b600073ffffffffffffffffffffffffffffffffffffffff82169050919050565b60006151868261515b565b9050919050565b6151968161517b565b82525050565b60008115159050919050565b6151b18161519c565b82525050565b6000610140820190506151cd600083018d61514c565b6151da602083018c61518d565b6151e7604083018b61514c565b6151f4606083018a61514c565b615201608083018961514c565b61520e60a083018861514c565b61521b60c083018761514c565b61522860e083018661514c565b6152366101008301856151a8565b6152446101208301846151a8565b9b9a5050505050505050505050565b60007fffffffff0000000000000000000000000000000000000000000000000000000082169050919050565b61528881615253565b811461529357600080fd5b50565b6000813590506152a58161527f565b92915050565b6000602082840312156152c1576152c06150df565b5b60006152cf84828501615296565b91505092915050565b60006020820190506152ed60008301846151a8565b92915050565b6000602082019050615308600083018461514c565b92915050565b600060ff82169050919050565b6153248161530e565b811461532f57600080fd5b50565b6000813590506153418161531b565b92915050565b600080fd5b600080fd5b600080fd5b60008083601f84011261536c5761536b615347565b5b8235905067ffffffffffffffff8111156153895761538861534c565b5b6020830191508360018202830111156153a5576153a4615351565b5b9250929050565b600080fd5b6000601f19601f8301169050919050565b7f4e487b7100000000000000000000000000000000000000000000000000000000600052604160045260246000fd5b6153fa826153b1565b810181811067ffffffffffffffff82111715615419576154186153c2565b5b80604052505050565b600061542c6150d5565b905061543882826153f1565b919050565b600067ffffffffffffffff821115615458576154576153c2565b5b615461826153b1565b9050602081019050919050565b82818337600083830152505050565b600061549061548b8461543d565b615422565b9050828152602081018484840111156154ac576154ab6153ac565b5b6154b784828561546e565b509392505050565b600082601f8301126154d4576154d3615347565b5b81356154e484826020860161547d565b91505092915050565b6000819050919050565b615500816154ed565b811461550b57600080fd5b50565b60008135905061551d816154f7565b92915050565b60008060008060008060008060e0898b031215615543576155426150df565b5b60006155518b828c0161510a565b98505060206155628b828c01615332565b975050604089013567ffffffffffffffff811115615583576155826150e4565b5b61558f8b828c01615356565b9650965050606089013567ffffffffffffffff8111156155b2576155b16150e4565b5b6155be8b828c016154bf565b94505060806155cf8b828c01615332565b93505060a06155e08b828c0161550e565b92505060c06155f18b828c0161550e565b9150509295985092959890939650565b600081519050919050565b600082825260208201905092915050565b60005b8381101561563b578082015181840152602081019050615620565b8381111561564a576000848401525b50505050565b600061565b82615601565b615665818561560c565b935061567581856020860161561d565b61567e816153b1565b840191505092915050565b600060208201905081810360008301526156a38184615650565b905092915050565b6156b48161517b565b81146156bf57600080fd5b50565b6000813590506156d1816156ab565b92915050565b600080600080608085870312156156f1576156f06150df565b5b60006156ff878288016156c2565b9450506020615710878288016156c2565b93505060406157218782880161510a565b925050606085013567ffffffffffffffff811115615742576157416150e4565b5b61574e878288016154bf565b91505092959194509250565b61576381615253565b82525050565b600060208201905061577e600083018461575a565b92915050565b600067ffffffffffffffff82111561579f5761579e6153c2565b5b602082029050602081019050919050565b60006157c36157be84615784565b615422565b905080838252602082019050602084028301858111156157e6576157e5615351565b5b835b8181101561580f57806157fb88826156c2565b8452602084019350506020810190506157e8565b5050509392505050565b600082601f83011261582e5761582d615347565b5b813561583e8482602086016157b0565b91505092915050565b600067ffffffffffffffff821115615862576158616153c2565b5b602082029050602081019050919050565b600061588661588184615847565b615422565b905080838252602082019050602084028301858111156158a9576158a8615351565b5b835b818110156158d257806158be888261510a565b8452602084019350506020810190506158ab565b5050509392505050565b600082601f8301126158f1576158f0615347565b5b8135615901848260208601615873565b91505092915050565b600067ffffffffffffffff821115615925576159246153c2565b5b602082029050602081019050919050565b60006159496159448461590a565b615422565b9050808382526020820190506020840283018581111561596c5761596b615351565b5b835b818110156159b357803567ffffffffffffffff81111561599157615990615347565b5b80860161599e89826154bf565b8552602085019450505060208101905061596e565b5050509392505050565b600082601f8301126159d2576159d1615347565b5b81356159e2848260208601615936565b91505092915050565b60008060008060808587031215615a0557615a046150df565b5b600085013567ffffffffffffffff811115615a2357615a226150e4565b5b615a2f87828801615819565b945050602085013567ffffffffffffffff811115615a5057615a4f6150e4565b5b615a5c878288016158dc565b935050604085013567ffffffffffffffff811115615a7d57615a7c6150e4565b5b615a89878288016159bd565b9250506060615a9a8782880161550e565b91505092959194509250565b615aaf816154ed565b82525050565b6000602082019050615aca6000830184615aa6565b92915050565b600081519050919050565b600082825260208201905092915050565b6000819050602082019050919050565b615b058161517b565b82525050565b6000615b178383615afc565b60208301905092915050565b6000602082019050919050565b6000615b3b82615ad0565b615b458185615adb565b9350615b5083615aec565b8060005b83811015615b81578151615b688882615b0b565b9750615b7383615b23565b925050600181019050615b54565b5085935050505092915050565b600081519050919050565b600082825260208201905092915050565b6000819050602082019050919050565b615bc3816150e9565b82525050565b6000615bd58383615bba565b60208301905092915050565b6000602082019050919050565b6000615bf982615b8e565b615c038185615b99565b9350615c0e83615baa565b8060005b83811015615c3f578151615c268882615bc9565b9750615c3183615be1565b925050600181019050615c12565b5085935050505092915050565b600081519050919050565b600082825260208201905092915050565b6000819050602082019050919050565b600082825260208201905092915050565b6000615c9482615601565b615c9e8185615c78565b9350615cae81856020860161561d565b615cb7816153b1565b840191505092915050565b6000615cce8383615c89565b905092915050565b6000602082019050919050565b6000615cee82615c4c565b615cf88185615c57565b935083602082028501615d0a85615c68565b8060005b85811015615d465784840389528151615d278582615cc2565b9450615d3283615cd6565b925060208a01995050600181019050615d0e565b50829750879550505050505092915050565b600081519050919050565b600082825260208201905092915050565b6000819050602082019050919050565b600081519050919050565b600082825260208201905092915050565b6000615dab82615d84565b615db58185615d8f565b9350615dc581856020860161561d565b615dce816153b1565b840191505092915050565b6000615de58383615da0565b905092915050565b6000602082019050919050565b6000615e0582615d58565b615e0f8185615d63565b935083602082028501615e2185615d74565b8060005b85811015615e5d5784840389528151615e3e8582615dd9565b9450615e4983615ded565b925060208a01995050600181019050615e25565b50829750879550505050505092915050565b60006080820190508181036000830152615e898187615b30565b90508181036020830152615e9d8186615bee565b90508181036040830152615eb18185615ce3565b90508181036060830152615ec58184615dfa565b905095945050505050565b600080600080600060a08688031215615eec57615eeb6150df565b5b6000615efa8882890161510a565b9550506020615f0b88828901615332565b9450506040615f1c88828901615332565b9350506060615f2d8882890161550e565b9250506080615f3e8882890161550e565b9150509295509295909350565b7f4e487b7100000000000000000000000000000000000000000000000000000000600052602160045260246000fd5b60088110615f8b57615f8a615f4b565b5b50565b6000819050615f9c82615f7a565b919050565b6000615fac82615f8e565b9050919050565b615fbc81615fa1565b82525050565b6000602082019050615fd76000830184615fb3565b92915050565b60008060408385031215615ff457615ff36150df565b5b60006160028582860161510a565b9250506020616013858286016156c2565b9150509250929050565b60008060408385031215616034576160336150df565b5b60006160428582860161510a565b925050602061605385828601615332565b9150509250929050565b600080600080600060808688031215616079576160786150df565b5b60006160878882890161510a565b955050602061609888828901615332565b945050604086013567ffffffffffffffff8111156160b9576160b86150e4565b5b6160c588828901615356565b9350935050606086013567ffffffffffffffff8111156160e8576160e76150e4565b5b6160f4888289016154bf565b9150509295509295909350565b6000806000806060858703121561611b5761611a6150df565b5b60006161298782880161510a565b945050602061613a87828801615332565b935050604085013567ffffffffffffffff81111561615b5761615a6150e4565b5b61616787828801615356565b925092505092959194509250565b600067ffffffffffffffff8211156161905761618f6153c2565b5b616199826153b1565b9050602081019050919050565b60006161b96161b484616175565b615422565b9050828152602081018484840111156161d5576161d46153ac565b5b6161e084828561546e565b509392505050565b600082601f8301126161fd576161fc615347565b5b813561620d8482602086016161a6565b91505092915050565b600080600080608085870312156162305761622f6150df565b5b600085013567ffffffffffffffff81111561624e5761624d6150e4565b5b61625a87828801615819565b945050602085013567ffffffffffffffff81111561627b5761627a6150e4565b5b616287878288016158dc565b935050604085013567ffffffffffffffff8111156162a8576162a76150e4565b5b6162b4878288016159bd565b925050606085013567ffffffffffffffff8111156162d5576162d46150e4565b5b6162e1878288016161e8565b91505092959194509250565b600080600060608486031215616306576163056150df565b5b6000616314868287016156c2565b93505060206163258682870161510a565b925050604084013567ffffffffffffffff811115616346576163456150e4565b5b616352868287016154bf565b9150509250925092565b60006163678261515b565b9050919050565b60006163798261635c565b9050919050565b6163898161636e565b811461639457600080fd5b50565b6000813590506163a681616380565b92915050565b6000602082840312156163c2576163c16150df565b5b60006163d084828501616397565b91505092915050565b600080600080600060a086880312156163f5576163f46150df565b5b6000616403888289016156c2565b9550506020616414888289016156c2565b945050604086013567ffffffffffffffff811115616435576164346150e4565b5b616441888289016158dc565b935050606086013567ffffffffffffffff811115616462576164616150e4565b5b61646e888289016158dc565b925050608086013567ffffffffffffffff81111561648f5761648e6150e4565b5b61649b888289016154bf565b9150509295509295909350565b60008083601f8401126164be576164bd615347565b5b8235905067ffffffffffffffff8111156164db576164da61534c565b5b6020830191508360018202830111156164f7576164f6615351565b5b9250929050565b60008060008060608587031215616518576165176150df565b5b6000616526878288016156c2565b94505060206165378782880161510a565b935050604085013567ffffffffffffffff811115616558576165576150e4565b5b616564878288016164a8565b925092505092959194509250565b6000602082019050616587600083018461518d565b92915050565b600067ffffffffffffffff8211156165a8576165a76153c2565b5b602082029050602081019050919050565b60006165cc6165c78461658d565b615422565b905080838252602082019050602084028301858111156165ef576165ee615351565b5b835b8181101561663657803567ffffffffffffffff81111561661457616613615347565b5b80860161662189826161e8565b855260208501945050506020810190506165f1565b5050509392505050565b600082601f83011261665557616654615347565b5b81356166658482602086016165b9565b91505092915050565b600080600080600060a0868803121561668a576166896150df565b5b600086013567ffffffffffffffff8111156166a8576166a76150e4565b5b6166b488828901615819565b955050602086013567ffffffffffffffff8111156166d5576166d46150e4565b5b6166e1888289016158dc565b945050604086013567ffffffffffffffff811115616702576167016150e4565b5b61670e88828901616640565b935050606086013567ffffffffffffffff81111561672f5761672e6150e4565b5b61673b888289016159bd565b925050608086013567ffffffffffffffff81111561675c5761675b6150e4565b5b616768888289016161e8565b9150509295509295909350565b61677e8161519c565b82525050565b61678d8161530e565b82525050565b60006bffffffffffffffffffffffff82169050919050565b6167b481616793565b82525050565b6060820160008201516167d06000850182616775565b5060208201516167e36020850182616784565b5060408201516167f660408501826167ab565b50505050565b600060608201905061681160008301846167ba565b92915050565b6000806040838503121561682e5761682d6150df565b5b600061683c858286016156c2565b925050602061684d8582860161510a565b9150509250929050565b600080600080600060a08688031215616873576168726150df565b5b6000616881888289016156c2565b9550506020616892888289016156c2565b94505060406168a38882890161510a565b93505060606168b48882890161510a565b925050608086013567ffffffffffffffff8111156168d5576168d46150e4565b5b6168e1888289016154bf565b9150509295509295909350565b6000819050919050565b600061691361690e6169098461515b565b6168ee565b61515b565b9050919050565b6000616925826168f8565b9050919050565b60006169378261691a565b9050919050565b6169478161692c565b82525050565b6000602082019050616962600083018461693e565b92915050565b600081905092915050565b600061697f8385616968565b935061698c83858461546e565b82840190509392505050565b60006169a5828486616973565b91508190509392505050565b6169ba8161530e565b82525050565b600060a0820190506169d56000830188615aa6565b6169e2602083018761514c565b6169ef60408301866169b1565b6169fc6060830185615aa6565b616a096080830184615aa6565b9695505050505050565b7f4e487b7100000000000000000000000000000000000000000000000000000000600052602260045260246000fd5b60006002820490506001821680616a5a57607f821691505b60208210811415616a6e57616a6d616a13565b5b50919050565b7f4e487b7100000000000000000000000000000000000000000000000000000000600052601160045260246000fd5b6000616aae826150e9565b9150616ab9836150e9565b925082821015616acc57616acb616a74565b5b828203905092915050565b6000606082019050616aec6000830186615aa6565b616af9602083018561514c565b616b0660408301846169b1565b949350505050565b7f476f7665726e6f72427261766f3a2070726f706f7365722061626f766520746860008201527f726573686f6c6400000000000000000000000000000000000000000000000000602082015250565b6000616b6a60278361560c565b9150616b7582616b0e565b604082019050919050565b60006020820190508181036000830152616b9981616b5d565b9050919050565b7f476f7665726e6f723a206f6e6c79476f7665726e616e63650000000000000000600082015250565b6000616bd660188361560c565b9150616be182616ba0565b602082019050919050565b60006020820190508181036000830152616c0581616bc9565b9050919050565b60006080820190508181036000830152616c268187615b30565b90508181036020830152616c3a8186615bee565b90508181036040830152616c4e8185615dfa565b9050616c5d6060830184615aa6565b95945050505050565b7f476f7665726e6f723a20766f7465206e6f742063757272656e746c792061637460008201527f6976650000000000000000000000000000000000000000000000000000000000602082015250565b6000616cc260238361560c565b9150616ccd82616c66565b604082019050919050565b60006020820190508181036000830152616cf181616cb5565b9050919050565b6000608082019050616d0d600083018761514c565b616d1a60208301866169b1565b616d27604083018561514c565b8181036060830152616d398184615650565b905095945050505050565b600082825260208201905092915050565b6000616d6082615d84565b616d6a8185616d44565b9350616d7a81856020860161561d565b616d83816153b1565b840191505092915050565b600060a082019050616da3600083018861514c565b616db060208301876169b1565b616dbd604083018661514c565b8181036060830152616dcf8185615650565b90508181036080830152616de38184616d55565b90509695505050505050565b7f476f7665726e6f723a2070726f706f73616c206e6f742073756363657373667560008201527f6c00000000000000000000000000000000000000000000000000000000000000602082015250565b6000616e4b60218361560c565b9150616e5682616def565b604082019050919050565b60006020820190508181036000830152616e7a81616e3e565b9050919050565b600081519050616e90816150f3565b92915050565b600060208284031215616eac57616eab6150df565b5b6000616eba84828501616e81565b91505092915050565b6000616ece826150e9565b9150616ed9836150e9565b9250827fffffffffffffffffffffffffffffffffffffffffffffffffffffffffffffffff03821115616f0e57616f0d616a74565b5b828201905092915050565b7f4e487b7100000000000000000000000000000000000000000000000000000000600052603260045260246000fd5b50565b6000616f5860008361560c565b9150616f6382616f48565b600082019050919050565b600060a082019050616f83600083018761518d565b616f90602083018661514c565b8181036040830152616fa181616f4b565b90508181036060830152616fb58185616d55565b9050616fc4608083018461514c565b95945050505050565b616fd68161519c565b8114616fe157600080fd5b50565b600081519050616ff381616fcd565b92915050565b60006020828403121561700f5761700e6150df565b5b600061701d84828501616fe4565b91505092915050565b7f476f7665726e6f7254696d656c6f636b436f6d706f756e643a206964656e746960008201527f63616c2070726f706f73616c20616374696f6e20616c7265616479207175657560208201527f6564000000000000000000000000000000000000000000000000000000000000604082015250565b60006170a860428361560c565b91506170b382617026565b606082019050919050565b600060208201905081810360008301526170d78161709b565b9050919050565b6000815190506170ed816154f7565b92915050565b600060208284031215617109576171086150df565b5b6000617117848285016170de565b91505092915050565b600061712b826150e9565b91507fffffffffffffffffffffffffffffffffffffffffffffffffffffffffffffffff82141561715e5761715d616a74565b5b600182019050919050565b600060408201905061717e600083018561514c565b61718b602083018461514c565b9392505050565b6000819050919050565b6171ad6171a882615253565b617192565b82525050565b60006171be82615d84565b6171c88185616968565b93506171d881856020860161561d565b80840191505092915050565b60006171f0828561719c565b60048201915061720082846171b3565b91508190509392505050565b6000604082019050617221600083018561518d565b61722e602083018461514c565b9392505050565b61723e81616793565b811461724957600080fd5b50565b60008151905061725b81617235565b92915050565b600060208284031215617277576172766150df565b5b60006172858482850161724c565b91505092915050565b60006040820190506172a3600083018561518d565b6172b0602083018461518d565b9392505050565b7f476f7665726e6f7253657474696e67733a20766f74696e6720706572696f642060008201527f746f6f206c6f7700000000000000000000000000000000000000000000000000602082015250565b600061731360278361560c565b915061731e826172b7565b604082019050919050565b6000602082019050818103600083015261734281617306565b9050919050565b600081905092915050565b7f1901000000000000000000000000000000000000000000000000000000000000600082015250565b600061738a600283617349565b915061739582617354565b600282019050919050565b6000819050919050565b6173bb6173b6826154ed565b6173a0565b82525050565b60006173cc8261737d565b91506173d882856173aa565b6020820191506173e882846173aa565b6020820191508190509392505050565b600060808201905061740d6000830187615aa6565b61741a60208301866169b1565b6174276040830185615aa6565b6174346060830184615aa6565b95945050505050565b7f45434453413a20696e76616c6964207369676e61747572650000000000000000600082015250565b600061747360188361560c565b915061747e8261743d565b602082019050919050565b600060208201905081810360008301526174a281617466565b9050919050565b7f45434453413a20696e76616c6964207369676e6174757265206c656e67746800600082015250565b60006174df601f8361560c565b91506174ea826174a9565b602082019050919050565b6000602082019050818103600083015261750e816174d2565b9050919050565b7f45434453413a20696e76616c6964207369676e6174757265202773272076616c60008201527f7565000000000000000000000000000000000000000000000000000000000000602082015250565b600061757160228361560c565b915061757c82617515565b604082019050919050565b600060208201905081810360008301526175a081617564565b9050919050565b7f476f7665726e6f72436f6d7061746962696c697479427261766f3a20766f746560008201527f20616c7265616479206361737400000000000000000000000000000000000000602082015250565b6000617603602d8361560c565b915061760e826175a7565b604082019050919050565b60006020820190508181036000830152617632816175f6565b9050919050565b7f476f7665726e6f72436f6d7061746962696c697479427261766f3a20696e766160008201527f6c696420766f7465207479706500000000000000000000000000000000000000602082015250565b6000617695602d8361560c565b91506176a082617639565b604082019050919050565b600060208201905081810360008301526176c481617688565b9050919050565b7f53616665436173743a2076616c756520646f65736e27742066697420696e203660008201527f3420626974730000000000000000000000000000000000000000000000000000602082015250565b600061772760268361560c565b9150617732826176cb565b604082019050919050565b600060208201905081810360008301526177568161771a565b9050919050565b7f476f7665726e6f723a20756e6b6e6f776e2070726f706f73616c206964000000600082015250565b6000617793601d8361560c565b915061779e8261775d565b602082019050919050565b600060208201905081810360008301526177c281617786565b9050919050565b7f476f7665726e6f723a2070726f706f73657220766f7465732062656c6f77207060008201527f726f706f73616c207468726573686f6c64000000000000000000000000000000602082015250565b600061782560318361560c565b9150617830826177c9565b604082019050919050565b6000602082019050818103600083015261785481617818565b9050919050565b7f476f7665726e6f723a20696e76616c69642070726f706f73616c206c656e677460008201527f6800000000000000000000000000000000000000000000000000000000000000602082015250565b60006178b760218361560c565b91506178c28261785b565b604082019050919050565b600060208201905081810360008301526178e6816178aa565b9050919050565b7f476f7665726e6f723a20656d7074792070726f706f73616c0000000000000000600082015250565b600061792360188361560c565b915061792e826178ed565b602082019050919050565b6000602082019050818103600083015261795281617916565b9050919050565b7f476f7665726e6f723a2070726f706f73616c20616c726561647920657869737460008201527f7300000000000000000000000000000000000000000000000000000000000000602082015250565b60006179b560218361560c565b91506179c082617959565b604082019050919050565b600060208201905081810360008301526179e4816179a8565b9050919050565b600067ffffffffffffffff82169050919050565b6000617a0a826179eb565b9150617a15836179eb565b92508267ffffffffffffffff03821115617a3257617a31616a74565b5b828201905092915050565b6000617a58617a53617a4e846179eb565b6168ee565b6150e9565b9050919050565b617a6881617a3d565b82525050565b600061012082019050617a84600083018c61514c565b617a91602083018b61518d565b8181036040830152617aa3818a615b30565b90508181036060830152617ab78189615bee565b90508181036080830152617acb8188615ce3565b905081810360a0830152617adf8187615dfa565b9050617aee60c0830186617a5f565b617afb60e0830185617a5f565b818103610100830152617b0e8184615650565b90509a9950505050505050505050565b600060a082019050617b336000830188615aa6565b617b406020830187615aa6565b617b4d6040830186615aa6565b617b5a606083018561514c565b617b67608083018461518d565b9695505050505050565b7f53616665436173743a2076616c756520646f65736e27742066697420696e203960008201527f3620626974730000000000000000000000000000000000000000000000000000602082015250565b6000617bcd60268361560c565b9150617bd882617b71565b604082019050919050565b60006020820190508181036000830152617bfc81617bc0565b9050919050565b7f476f7665726e6f7254696d656c6f636b436f6d706f756e643a2070726f706f7360008201527f616c206e6f742079657420717565756564000000000000000000000000000000602082015250565b6000617c5f60318361560c565b9150617c6a82617c03565b604082019050919050565b60006020820190508181036000830152617c8e81617c52565b9050919050565b6000617ca8617ca38461543d565b615422565b905082815260208101848484011115617cc457617cc36153ac565b5b617ccf84828561561d565b509392505050565b600082601f830112617cec57617ceb615347565b5b8151617cfc848260208601617c95565b91505092915050565b600060208284031215617d1b57617d1a6150df565b5b600082015167ffffffffffffffff811115617d3957617d386150e4565b5b617d4584828501617cd7565b91505092915050565b7f476f7665726e6f723a2070726f706f73616c206e6f7420616374697665000000600082015250565b6000617d84601d8361560c565b9150617d8f82617d4e565b602082019050919050565b60006020820190508181036000830152617db381617d77565b9050919050565b7f416464726573733a20696e73756666696369656e742062616c616e6365000000600082015250565b6000617df0601d8361560c565b9150617dfb82617dba565b602082019050919050565b60006020820190508181036000830152617e1f81617de3565b9050919050565b6000617e33600083616968565b9150617e3e82616f48565b600082019050919050565b6000617e5482617e26565b9150819050919050565b7f416464726573733a20756e61626c6520746f2073656e642076616c75652c207260008201527f6563697069656e74206d61792068617665207265766572746564000000000000602082015250565b6000617eba603a8361560c565b9150617ec582617e5e565b604082019050919050565b60006020820190508181036000830152617ee981617ead565b905091905056fe476f7665726e6f723a2072656c617920726576657274656420776974686f7574206d657373616765a264697066735822122019a5975e286bec72de86eb4fd1ba6e826482281f75a723197cea8ff8115ade2064736f6c63430008090033",
  "linkReferences": {},
  "deployedLinkReferences": {}
}