{
  "_format": "hh-sol-artifact-1",
  "contractName": "MigratableMockV3",
  "sourceName": "contracts/openzeppelin/mocks/SingleInheritanceInitializableMocks.sol",
  "abi": [
    {
      "anonymous": false,
      "inputs": [
        {
          "indexed": false,
          "internalType": "uint8",
          "name": "version",
          "type": "uint8"
        }
      ],
      "name": "Initialized",
      "type": "event"
    },
    {
      "inputs": [
        {
          "internalType": "uint256",
          "name": "value",
          "type": "uint256"
        }
      ],
      "name": "initialize",
      "outputs": [],
      "stateMutability": "payable",
      "type": "function"
    },
    {
      "inputs": [
        {
          "internalType": "uint256",
          "name": "value",
          "type": "uint256"
        },
        {
          "internalType": "uint256",
          "name": "anotherValue",
          "type": "uint256"
        }
      ],
      "name": "migrate",
      "outputs": [],
      "stateMutability": "payable",
      "type": "function"
    },
    {
      "inputs": [],
      "name": "migrate",
      "outputs": [],
      "stateMutability": "payable",
      "type": "function"
    },
    {
      "inputs": [],
      "name": "x",
      "outputs": [
        {
          "internalType": "uint256",
          "name": "",
          "type": "uint256"
        }
      ],
      "stateMutability": "view",
      "type": "function"
    },
    {
      "inputs": [],
      "name": "y",
      "outputs": [
        {
          "internalType": "uint256",
          "name": "",
          "type": "uint256"
        }
      ],
      "stateMutability": "view",
      "type": "function"
    }
  ],
  "bytecode": "0x608060405234801561001057600080fd5b50610502806100206000396000f3fe60806040526004361061004a5760003560e01c80630c55699c1461004f5780633e54bacb1461007a5780638fd3ab8014610096578063a56dfe4a146100a0578063fe4b84df146100cb575b600080fd5b34801561005b57600080fd5b506100646100e7565b6040516100719190610303565b60405180910390f35b610094600480360381019061008f919061034f565b6100ed565b005b61009e610134565b005b3480156100ac57600080fd5b506100b5610183565b6040516100c29190610303565b60405180910390f35b6100e560048036038101906100e0919061038f565b610189565b005b60015481565b600260009054906101000a900460ff161561010757600080fd5b81600181905550806003819055506001600260006101000a81548160ff0219169083151502179055505050565b600460009054906101000a900460ff161561014e57600080fd5b60006001549050600354600181905550806003819055506001600460006101000a81548160ff02191690831515021790555050565b60035481565b60008060019054906101000a900460ff161590508080156101ba5750600160008054906101000a900460ff1660ff16105b806101e757506101c9306102c7565b1580156101e65750600160008054906101000a900460ff1660ff16145b5b610226576040517f08c379a000000000000000000000000000000000000000000000000000000000815260040161021d9061043f565b60405180910390fd5b60016000806101000a81548160ff021916908360ff1602179055508015610263576001600060016101000a81548160ff0219169083151502179055505b8160018190555080156102c35760008060016101000a81548160ff0219169083151502179055507f7f26b83ff96e1f2b6a682f133852f6798a09c465da95921460cefb384740249860016040516102ba91906104b1565b60405180910390a15b5050565b6000808273ffffffffffffffffffffffffffffffffffffffff163b119050919050565b6000819050919050565b6102fd816102ea565b82525050565b600060208201905061031860008301846102f4565b92915050565b600080fd5b61032c816102ea565b811461033757600080fd5b50565b60008135905061034981610323565b92915050565b600080604083850312156103665761036561031e565b5b60006103748582860161033a565b92505060206103858582860161033a565b9150509250929050565b6000602082840312156103a5576103a461031e565b5b60006103b38482850161033a565b91505092915050565b600082825260208201905092915050565b7f496e697469616c697a61626c653a20636f6e747261637420697320616c72656160008201527f647920696e697469616c697a6564000000000000000000000000000000000000602082015250565b6000610429602e836103bc565b9150610434826103cd565b604082019050919050565b600060208201905081810360008301526104588161041c565b9050919050565b6000819050919050565b600060ff82169050919050565b6000819050919050565b600061049b6104966104918461045f565b610476565b610469565b9050919050565b6104ab81610480565b82525050565b60006020820190506104c660008301846104a2565b9291505056fea2646970667358221220bcfebb521eedaaa2cfdeaa93a30e8428f5b062310096c9ffa78ffedfffdbfbee64736f6c63430008090033",
  "linkReferences": {},
  "deployedLinkReferences": {}
}