{
  "_format": "hh-sol-artifact-1",
  "contractName": "ERC721PausableMock",
  "sourceName": "contracts/openzeppelin/mocks/ERC721PausableMock.sol",
  "abi": [
    {
      "inputs": [
        {
          "internalType": "string",
          "name": "name",
          "type": "string"
        },
        {
          "internalType": "string",
          "name": "symbol",
          "type": "string"
        }
      ],
      "stateMutability": "nonpayable",
      "type": "constructor"
    },
    {
      "anonymous": false,
      "inputs": [
        {
          "indexed": true,
          "internalType": "address",
          "name": "owner",
          "type": "address"
        },
        {
          "indexed": true,
          "internalType": "address",
          "name": "approved",
          "type": "address"
        },
        {
          "indexed": true,
          "internalType": "uint256",
          "name": "tokenId",
          "type": "uint256"
        }
      ],
      "name": "Approval",
      "type": "event"
    },
    {
      "anonymous": false,
      "inputs": [
        {
          "indexed": true,
          "internalType": "address",
          "name": "owner",
          "type": "address"
        },
        {
          "indexed": true,
          "internalType": "address",
          "name": "operator",
          "type": "address"
        },
        {
          "indexed": false,
          "internalType": "bool",
          "name": "approved",
          "type": "bool"
        }
      ],
      "name": "ApprovalForAll",
      "type": "event"
    },
    {
      "anonymous": false,
      "inputs": [
        {
          "indexed": false,
          "internalType": "address",
          "name": "account",
          "type": "address"
        }
      ],
      "name": "Paused",
      "type": "event"
    },
    {
      "anonymous": false,
      "inputs": [
        {
          "indexed": true,
          "internalType": "address",
          "name": "from",
          "type": "address"
        },
        {
          "indexed": true,
          "internalType": "address",
          "name": "to",
          "type": "address"
        },
        {
          "indexed": true,
          "internalType": "uint256",
          "name": "tokenId",
          "type": "uint256"
        }
      ],
      "name": "Transfer",
      "type": "event"
    },
    {
      "anonymous": false,
      "inputs": [
        {
          "indexed": false,
          "internalType": "address",
          "name": "account",
          "type": "address"
        }
      ],
      "name": "Unpaused",
      "type": "event"
    },
    {
      "inputs": [
        {
          "internalType": "address",
          "name": "to",
          "type": "address"
        },
        {
          "internalType": "uint256",
          "name": "tokenId",
          "type": "uint256"
        }
      ],
      "name": "approve",
      "outputs": [],
      "stateMutability": "nonpayable",
      "type": "function"
    },
    {
      "inputs": [
        {
          "internalType": "address",
          "name": "owner",
          "type": "address"
        }
      ],
      "name": "balanceOf",
      "outputs": [
        {
          "internalType": "uint256",
          "name": "",
          "type": "uint256"
        }
      ],
      "stateMutability": "view",
      "type": "function"
    },
    {
      "inputs": [
        {
          "internalType": "uint256",
          "name": "tokenId",
          "type": "uint256"
        }
      ],
      "name": "burn",
      "outputs": [],
      "stateMutability": "nonpayable",
      "type": "function"
    },
    {
      "inputs": [
        {
          "internalType": "uint256",
          "name": "tokenId",
          "type": "uint256"
        }
      ],
      "name": "exists",
      "outputs": [
        {
          "internalType": "bool",
          "name": "",
          "type": "bool"
        }
      ],
      "stateMutability": "view",
      "type": "function"
    },
    {
      "inputs": [
        {
          "internalType": "uint256",
          "name": "tokenId",
          "type": "uint256"
        }
      ],
      "name": "getApproved",
      "outputs": [
        {
          "internalType": "address",
          "name": "",
          "type": "address"
        }
      ],
      "stateMutability": "view",
      "type": "function"
    },
    {
      "inputs": [
        {
          "internalType": "address",
          "name": "owner",
          "type": "address"
        },
        {
          "internalType": "address",
          "name": "operator",
          "type": "address"
        }
      ],
      "name": "isApprovedForAll",
      "outputs": [
        {
          "internalType": "bool",
          "name": "",
          "type": "bool"
        }
      ],
      "stateMutability": "view",
      "type": "function"
    },
    {
      "inputs": [
        {
          "internalType": "address",
          "name": "to",
          "type": "address"
        },
        {
          "internalType": "uint256",
          "name": "tokenId",
          "type": "uint256"
        }
      ],
      "name": "mint",
      "outputs": [],
      "stateMutability": "nonpayable",
      "type": "function"
    },
    {
      "inputs": [],
      "name": "name",
      "outputs": [
        {
          "internalType": "string",
          "name": "",
          "type": "string"
        }
      ],
      "stateMutability": "view",
      "type": "function"
    },
    {
      "inputs": [
        {
          "internalType": "uint256",
          "name": "tokenId",
          "type": "uint256"
        }
      ],
      "name": "ownerOf",
      "outputs": [
        {
          "internalType": "address",
          "name": "",
          "type": "address"
        }
      ],
      "stateMutability": "view",
      "type": "function"
    },
    {
      "inputs": [],
      "name": "pause",
      "outputs": [],
      "stateMutability": "nonpayable",
      "type": "function"
    },
    {
      "inputs": [],
      "name": "paused",
      "outputs": [
        {
          "internalType": "bool",
          "name": "",
          "type": "bool"
        }
      ],
      "stateMutability": "view",
      "type": "function"
    },
    {
      "inputs": [
        {
          "internalType": "address",
          "name": "to",
          "type": "address"
        },
        {
          "internalType": "uint256",
          "name": "tokenId",
          "type": "uint256"
        },
        {
          "internalType": "bytes",
          "name": "_data",
          "type": "bytes"
        }
      ],
      "name": "safeMint",
      "outputs": [],
      "stateMutability": "nonpayable",
      "type": "function"
    },
    {
      "inputs": [
        {
          "internalType": "address",
          "name": "to",
          "type": "address"
        },
        {
          "internalType": "uint256",
          "name": "tokenId",
          "type": "uint256"
        }
      ],
      "name": "safeMint",
      "outputs": [],
      "stateMutability": "nonpayable",
      "type": "function"
    },
    {
      "inputs": [
        {
          "internalType": "address",
          "name": "from",
          "type": "address"
        },
        {
          "internalType": "address",
          "name": "to",
          "type": "address"
        },
        {
          "internalType": "uint256",
          "name": "tokenId",
          "type": "uint256"
        }
      ],
      "name": "safeTransferFrom",
      "outputs": [],
      "stateMutability": "nonpayable",
      "type": "function"
    },
    {
      "inputs": [
        {
          "internalType": "address",
          "name": "from",
          "type": "address"
        },
        {
          "internalType": "address",
          "name": "to",
          "type": "address"
        },
        {
          "internalType": "uint256",
          "name": "tokenId",
          "type": "uint256"
        },
        {
          "internalType": "bytes",
          "name": "data",
          "type": "bytes"
        }
      ],
      "name": "safeTransferFrom",
      "outputs": [],
      "stateMutability": "nonpayable",
      "type": "function"
    },
    {
      "inputs": [
        {
          "internalType": "address",
          "name": "operator",
          "type": "address"
        },
        {
          "internalType": "bool",
          "name": "approved",
          "type": "bool"
        }
      ],
      "name": "setApprovalForAll",
      "outputs": [],
      "stateMutability": "nonpayable",
      "type": "function"
    },
    {
      "inputs": [
        {
          "internalType": "bytes4",
          "name": "interfaceId",
          "type": "bytes4"
        }
      ],
      "name": "supportsInterface",
      "outputs": [
        {
          "internalType": "bool",
          "name": "",
          "type": "bool"
        }
      ],
      "stateMutability": "view",
      "type": "function"
    },
    {
      "inputs": [],
      "name": "symbol",
      "outputs": [
        {
          "internalType": "string",
          "name": "",
          "type": "string"
        }
      ],
      "stateMutability": "view",
      "type": "function"
    },
    {
      "inputs": [
        {
          "internalType": "uint256",
          "name": "tokenId",
          "type": "uint256"
        }
      ],
      "name": "tokenURI",
      "outputs": [
        {
          "internalType": "string",
          "name": "",
          "type": "string"
        }
      ],
      "stateMutability": "view",
      "type": "function"
    },
    {
      "inputs": [
        {
          "internalType": "address",
          "name": "from",
          "type": "address"
        },
        {
          "internalType": "address",
          "name": "to",
          "type": "address"
        },
        {
          "internalType": "uint256",
          "name": "tokenId",
          "type": "uint256"
        }
      ],
      "name": "transferFrom",
      "outputs": [],
      "stateMutability": "nonpayable",
      "type": "function"
    },
    {
      "inputs": [],
      "name": "unpause",
      "outputs": [],
      "stateMutability": "nonpayable",
      "type": "function"
    }
  ],
  "bytecode": "0x60806040523480156200001157600080fd5b50604051620030f1380380620030f18339818101604052810190620000379190620002dd565b818181600090805190602001906200005192919062000090565b5080600190805190602001906200006a92919062000090565b5050506000600660006101000a81548160ff0219169083151502179055505050620003c7565b8280546200009e9062000391565b90600052602060002090601f016020900481019282620000c257600085556200010e565b82601f10620000dd57805160ff19168380011785556200010e565b828001600101855582156200010e579182015b828111156200010d578251825591602001919060010190620000f0565b5b5090506200011d919062000121565b5090565b5b808211156200013c57600081600090555060010162000122565b5090565b6000604051905090565b600080fd5b600080fd5b600080fd5b600080fd5b6000601f19601f8301169050919050565b7f4e487b7100000000000000000000000000000000000000000000000000000000600052604160045260246000fd5b620001a9826200015e565b810181811067ffffffffffffffff82111715620001cb57620001ca6200016f565b5b80604052505050565b6000620001e062000140565b9050620001ee82826200019e565b919050565b600067ffffffffffffffff8211156200021157620002106200016f565b5b6200021c826200015e565b9050602081019050919050565b60005b83811015620002495780820151818401526020810190506200022c565b8381111562000259576000848401525b50505050565b6000620002766200027084620001f3565b620001d4565b90508281526020810184848401111562000295576200029462000159565b5b620002a284828562000229565b509392505050565b600082601f830112620002c257620002c162000154565b5b8151620002d48482602086016200025f565b91505092915050565b60008060408385031215620002f757620002f66200014a565b5b600083015167ffffffffffffffff8111156200031857620003176200014f565b5b6200032685828601620002aa565b925050602083015167ffffffffffffffff8111156200034a57620003496200014f565b5b6200035885828601620002aa565b9150509250929050565b7f4e487b7100000000000000000000000000000000000000000000000000000000600052602260045260246000fd5b60006002820490506001821680620003aa57607f821691505b60208210811415620003c157620003c062000362565b5b50919050565b612d1a80620003d76000396000f3fe608060405234801561001057600080fd5b50600436106101375760003560e01c80635c975abb116100b857806395d89b411161007c57806395d89b4114610324578063a144819414610342578063a22cb4651461035e578063b88d4fde1461037a578063c87b56dd14610396578063e985e9c5146103c657610137565b80635c975abb146102805780636352211e1461029e57806370a08231146102ce5780638456cb59146102fe5780638832e6e31461030857610137565b80633f4ba83a116100ff5780633f4ba83a146101f257806340c10f19146101fc57806342842e0e1461021857806342966c68146102345780634f558e791461025057610137565b806301ffc9a71461013c57806306fdde031461016c578063081812fc1461018a578063095ea7b3146101ba57806323b872dd146101d6575b600080fd5b61015660048036038101906101519190611d7a565b6103f6565b6040516101639190611dc2565b60405180910390f35b6101746104d8565b6040516101819190611e76565b60405180910390f35b6101a4600480360381019061019f9190611ece565b61056a565b6040516101b19190611f3c565b60405180910390f35b6101d460048036038101906101cf9190611f83565b6105b0565b005b6101f060048036038101906101eb9190611fc3565b6106c8565b005b6101fa610728565b005b61021660048036038101906102119190611f83565b610732565b005b610232600480360381019061022d9190611fc3565b610740565b005b61024e60048036038101906102499190611ece565b610760565b005b61026a60048036038101906102659190611ece565b61076c565b6040516102779190611dc2565b60405180910390f35b61028861077e565b6040516102959190611dc2565b60405180910390f35b6102b860048036038101906102b39190611ece565b610795565b6040516102c59190611f3c565b60405180910390f35b6102e860048036038101906102e39190612016565b61081c565b6040516102f59190612052565b60405180910390f35b6103066108d4565b005b610322600480360381019061031d91906121a2565b6108de565b005b61032c6108ee565b6040516103399190611e76565b60405180910390f35b61035c60048036038101906103579190611f83565b610980565b005b6103786004803603810190610373919061223d565b61098e565b005b610394600480360381019061038f919061227d565b6109a4565b005b6103b060048036038101906103ab9190611ece565b610a06565b6040516103bd9190611e76565b60405180910390f35b6103e060048036038101906103db9190612300565b610a6e565b6040516103ed9190611dc2565b60405180910390f35b60007f80ac58cd000000000000000000000000000000000000000000000000000000007bffffffffffffffffffffffffffffffffffffffffffffffffffffffff1916827bffffffffffffffffffffffffffffffffffffffffffffffffffffffff191614806104c157507f5b5e139f000000000000000000000000000000000000000000000000000000007bffffffffffffffffffffffffffffffffffffffffffffffffffffffff1916827bffffffffffffffffffffffffffffffffffffffffffffffffffffffff1916145b806104d157506104d082610b02565b5b9050919050565b6060600080546104e79061236f565b80601f01602080910402602001604051908101604052809291908181526020018280546105139061236f565b80156105605780601f1061053557610100808354040283529160200191610560565b820191906000526020600020905b81548152906001019060200180831161054357829003601f168201915b5050505050905090565b600061057582610b6c565b6004600083815260200190815260200160002060009054906101000a900473ffffffffffffffffffffffffffffffffffffffff169050919050565b60006105bb82610795565b90508073ffffffffffffffffffffffffffffffffffffffff168373ffffffffffffffffffffffffffffffffffffffff16141561062c576040517f08c379a000000000000000000000000000000000000000000000000000000000815260040161062390612413565b60405180910390fd5b8073ffffffffffffffffffffffffffffffffffffffff1661064b610bb7565b73ffffffffffffffffffffffffffffffffffffffff16148061067a575061067981610674610bb7565b610a6e565b5b6106b9576040517f08c379a00000000000000000000000000000000000000000000000000000000081526004016106b0906124a5565b60405180910390fd5b6106c38383610bbf565b505050565b6106d96106d3610bb7565b82610c78565b610718576040517f08c379a000000000000000000000000000000000000000000000000000000000815260040161070f90612537565b60405180910390fd5b610723838383610d0d565b505050565b610730611007565b565b61073c828261106a565b5050565b61075b838383604051806020016040528060008152506109a4565b505050565b61076981611288565b50565b6000610777826113d6565b9050919050565b6000600660009054906101000a900460ff16905090565b6000806107a183611417565b9050600073ffffffffffffffffffffffffffffffffffffffff168173ffffffffffffffffffffffffffffffffffffffff161415610813576040517f08c379a000000000000000000000000000000000000000000000000000000000815260040161080a906125a3565b60405180910390fd5b80915050919050565b60008073ffffffffffffffffffffffffffffffffffffffff168273ffffffffffffffffffffffffffffffffffffffff16141561088d576040517f08c379a000000000000000000000000000000000000000000000000000000000815260040161088490612635565b60405180910390fd5b600360008373ffffffffffffffffffffffffffffffffffffffff1673ffffffffffffffffffffffffffffffffffffffff168152602001908152602001600020549050919050565b6108dc611454565b565b6108e98383836114b7565b505050565b6060600180546108fd9061236f565b80601f01602080910402602001604051908101604052809291908181526020018280546109299061236f565b80156109765780601f1061094b57610100808354040283529160200191610976565b820191906000526020600020905b81548152906001019060200180831161095957829003601f168201915b5050505050905090565b61098a8282611512565b5050565b6109a0610999610bb7565b8383611530565b5050565b6109b56109af610bb7565b83610c78565b6109f4576040517f08c379a00000000000000000000000000000000000000000000000000000000081526004016109eb90612537565b60405180910390fd5b610a008484848461169d565b50505050565b6060610a1182610b6c565b6000610a1b6116f9565b90506000815111610a3b5760405180602001604052806000815250610a66565b80610a4584611710565b604051602001610a56929190612691565b6040516020818303038152906040525b915050919050565b6000600560008473ffffffffffffffffffffffffffffffffffffffff1673ffffffffffffffffffffffffffffffffffffffff16815260200190815260200160002060008373ffffffffffffffffffffffffffffffffffffffff1673ffffffffffffffffffffffffffffffffffffffff16815260200190815260200160002060009054906101000a900460ff16905092915050565b60007f01ffc9a7000000000000000000000000000000000000000000000000000000007bffffffffffffffffffffffffffffffffffffffffffffffffffffffff1916827bffffffffffffffffffffffffffffffffffffffffffffffffffffffff1916149050919050565b610b75816113d6565b610bb4576040517f08c379a0000000000000000000000000000000000000000000000000000000008152600401610bab906125a3565b60405180910390fd5b50565b600033905090565b816004600083815260200190815260200160002060006101000a81548173ffffffffffffffffffffffffffffffffffffffff021916908373ffffffffffffffffffffffffffffffffffffffff160217905550808273ffffffffffffffffffffffffffffffffffffffff16610c3283610795565b73ffffffffffffffffffffffffffffffffffffffff167f8c5be1e5ebec7d5bd14f71427d1e84f3dd0314c0f7b2291e5b200ac8c7c3b92560405160405180910390a45050565b600080610c8483610795565b90508073ffffffffffffffffffffffffffffffffffffffff168473ffffffffffffffffffffffffffffffffffffffff161480610cc65750610cc58185610a6e565b5b80610d0457508373ffffffffffffffffffffffffffffffffffffffff16610cec8461056a565b73ffffffffffffffffffffffffffffffffffffffff16145b91505092915050565b8273ffffffffffffffffffffffffffffffffffffffff16610d2d82610795565b73ffffffffffffffffffffffffffffffffffffffff1614610d83576040517f08c379a0000000000000000000000000000000000000000000000000000000008152600401610d7a90612727565b60405180910390fd5b600073ffffffffffffffffffffffffffffffffffffffff168273ffffffffffffffffffffffffffffffffffffffff161415610df3576040517f08c379a0000000000000000000000000000000000000000000000000000000008152600401610dea906127b9565b60405180910390fd5b610e0083838360016117e8565b8273ffffffffffffffffffffffffffffffffffffffff16610e2082610795565b73ffffffffffffffffffffffffffffffffffffffff1614610e76576040517f08c379a0000000000000000000000000000000000000000000000000000000008152600401610e6d90612727565b60405180910390fd5b6004600082815260200190815260200160002060006101000a81549073ffffffffffffffffffffffffffffffffffffffff02191690556001600360008573ffffffffffffffffffffffffffffffffffffffff1673ffffffffffffffffffffffffffffffffffffffff168152602001908152602001600020600082825403925050819055506001600360008473ffffffffffffffffffffffffffffffffffffffff1673ffffffffffffffffffffffffffffffffffffffff16815260200190815260200160002060008282540192505081905550816002600083815260200190815260200160002060006101000a81548173ffffffffffffffffffffffffffffffffffffffff021916908373ffffffffffffffffffffffffffffffffffffffff160217905550808273ffffffffffffffffffffffffffffffffffffffff168473ffffffffffffffffffffffffffffffffffffffff167fddf252ad1be2c89b69c2b068fc378daa952ba7f163c4a11628f55a4df523b3ef60405160405180910390a46110028383836001611842565b505050565b61100f611848565b6000600660006101000a81548160ff0219169083151502179055507f5db9ee0a495bf2e6ff9c91a7834c1ba4fdd244a5e8aa4e537bd38aeae4b073aa611053610bb7565b6040516110609190611f3c565b60405180910390a1565b600073ffffffffffffffffffffffffffffffffffffffff168273ffffffffffffffffffffffffffffffffffffffff1614156110da576040517f08c379a00000000000000000000000000000000000000000000000000000000081526004016110d190612825565b60405180910390fd5b6110e3816113d6565b15611123576040517f08c379a000000000000000000000000000000000000000000000000000000000815260040161111a90612891565b60405180910390fd5b6111316000838360016117e8565b61113a816113d6565b1561117a576040517f08c379a000000000000000000000000000000000000000000000000000000000815260040161117190612891565b60405180910390fd5b6001600360008473ffffffffffffffffffffffffffffffffffffffff1673ffffffffffffffffffffffffffffffffffffffff16815260200190815260200160002060008282540192505081905550816002600083815260200190815260200160002060006101000a81548173ffffffffffffffffffffffffffffffffffffffff021916908373ffffffffffffffffffffffffffffffffffffffff160217905550808273ffffffffffffffffffffffffffffffffffffffff16600073ffffffffffffffffffffffffffffffffffffffff167fddf252ad1be2c89b69c2b068fc378daa952ba7f163c4a11628f55a4df523b3ef60405160405180910390a4611284600083836001611842565b5050565b600061129382610795565b90506112a38160008460016117e8565b6112ac82610795565b90506004600083815260200190815260200160002060006101000a81549073ffffffffffffffffffffffffffffffffffffffff02191690556001600360008373ffffffffffffffffffffffffffffffffffffffff1673ffffffffffffffffffffffffffffffffffffffff168152602001908152602001600020600082825403925050819055506002600083815260200190815260200160002060006101000a81549073ffffffffffffffffffffffffffffffffffffffff021916905581600073ffffffffffffffffffffffffffffffffffffffff168273ffffffffffffffffffffffffffffffffffffffff167fddf252ad1be2c89b69c2b068fc378daa952ba7f163c4a11628f55a4df523b3ef60405160405180910390a46113d2816000846001611842565b5050565b60008073ffffffffffffffffffffffffffffffffffffffff166113f883611417565b73ffffffffffffffffffffffffffffffffffffffff1614159050919050565b60006002600083815260200190815260200160002060009054906101000a900473ffffffffffffffffffffffffffffffffffffffff169050919050565b61145c611891565b6001600660006101000a81548160ff0219169083151502179055507f62e78cea01bee320cd4e420270b5ea74000d11b0c9f74754ebdbfc544b05a2586114a0610bb7565b6040516114ad9190611f3c565b60405180910390a1565b6114c1838361106a565b6114ce60008484846118db565b61150d576040517f08c379a000000000000000000000000000000000000000000000000000000000815260040161150490612923565b60405180910390fd5b505050565b61152c8282604051806020016040528060008152506114b7565b5050565b8173ffffffffffffffffffffffffffffffffffffffff168373ffffffffffffffffffffffffffffffffffffffff16141561159f576040517f08c379a00000000000000000000000000000000000000000000000000000000081526004016115969061298f565b60405180910390fd5b80600560008573ffffffffffffffffffffffffffffffffffffffff1673ffffffffffffffffffffffffffffffffffffffff16815260200190815260200160002060008473ffffffffffffffffffffffffffffffffffffffff1673ffffffffffffffffffffffffffffffffffffffff16815260200190815260200160002060006101000a81548160ff0219169083151502179055508173ffffffffffffffffffffffffffffffffffffffff168373ffffffffffffffffffffffffffffffffffffffff167f17307eab39ab6107e8899845ad3d59bd9653f200f220920489ca2b5937696c31836040516116909190611dc2565b60405180910390a3505050565b6116a8848484610d0d565b6116b4848484846118db565b6116f3576040517f08c379a00000000000000000000000000000000000000000000000000000000081526004016116ea90612923565b60405180910390fd5b50505050565b606060405180602001604052806000815250905090565b60606000600161171f84611a72565b01905060008167ffffffffffffffff81111561173e5761173d612077565b5b6040519080825280601f01601f1916602001820160405280156117705781602001600182028036833780820191505090505b509050600082602001820190505b6001156117dd578080600190039150507f3031323334353637383961626364656600000000000000000000000000000000600a86061a8153600a85816117c7576117c66129af565b5b04945060008514156117d8576117dd565b61177e565b819350505050919050565b6117f484848484611bc5565b6117fc61077e565b1561183c576040517f08c379a000000000000000000000000000000000000000000000000000000000815260040161183390612a50565b60405180910390fd5b50505050565b50505050565b61185061077e565b61188f576040517f08c379a000000000000000000000000000000000000000000000000000000000815260040161188690612abc565b60405180910390fd5b565b61189961077e565b156118d9576040517f08c379a00000000000000000000000000000000000000000000000000000000081526004016118d090612b28565b60405180910390fd5b565b60006118fc8473ffffffffffffffffffffffffffffffffffffffff16611ceb565b15611a65578373ffffffffffffffffffffffffffffffffffffffff1663150b7a02611925610bb7565b8786866040518563ffffffff1660e01b81526004016119479493929190612b9d565b602060405180830381600087803b15801561196157600080fd5b505af192505050801561199257506040513d601f19601f8201168201806040525081019061198f9190612bfe565b60015b611a15573d80600081146119c2576040519150601f19603f3d011682016040523d82523d6000602084013e6119c7565b606091505b50600081511415611a0d576040517f08c379a0000000000000000000000000000000000000000000000000000000008152600401611a0490612923565b60405180910390fd5b805181602001fd5b63150b7a0260e01b7bffffffffffffffffffffffffffffffffffffffffffffffffffffffff1916817bffffffffffffffffffffffffffffffffffffffffffffffffffffffff191614915050611a6a565b600190505b949350505050565b600080600090507a184f03e93ff9f4daa797ed6e38ed64bf6a1f0100000000000000008310611ad0577a184f03e93ff9f4daa797ed6e38ed64bf6a1f0100000000000000008381611ac657611ac56129af565b5b0492506040810190505b6d04ee2d6d415b85acef81000000008310611b0d576d04ee2d6d415b85acef81000000008381611b0357611b026129af565b5b0492506020810190505b662386f26fc100008310611b3c57662386f26fc100008381611b3257611b316129af565b5b0492506010810190505b6305f5e1008310611b65576305f5e1008381611b5b57611b5a6129af565b5b0492506008810190505b6127108310611b8a576127108381611b8057611b7f6129af565b5b0492506004810190505b60648310611bad5760648381611ba357611ba26129af565b5b0492506002810190505b600a8310611bbc576001810190505b80915050919050565b6001811115611ce557600073ffffffffffffffffffffffffffffffffffffffff168473ffffffffffffffffffffffffffffffffffffffff1614611c595780600360008673ffffffffffffffffffffffffffffffffffffffff1673ffffffffffffffffffffffffffffffffffffffff1681526020019081526020016000206000828254611c519190612c5a565b925050819055505b600073ffffffffffffffffffffffffffffffffffffffff168373ffffffffffffffffffffffffffffffffffffffff1614611ce45780600360008573ffffffffffffffffffffffffffffffffffffffff1673ffffffffffffffffffffffffffffffffffffffff1681526020019081526020016000206000828254611cdc9190612c8e565b925050819055505b5b50505050565b6000808273ffffffffffffffffffffffffffffffffffffffff163b119050919050565b6000604051905090565b600080fd5b600080fd5b60007fffffffff0000000000000000000000000000000000000000000000000000000082169050919050565b611d5781611d22565b8114611d6257600080fd5b50565b600081359050611d7481611d4e565b92915050565b600060208284031215611d9057611d8f611d18565b5b6000611d9e84828501611d65565b91505092915050565b60008115159050919050565b611dbc81611da7565b82525050565b6000602082019050611dd76000830184611db3565b92915050565b600081519050919050565b600082825260208201905092915050565b60005b83811015611e17578082015181840152602081019050611dfc565b83811115611e26576000848401525b50505050565b6000601f19601f8301169050919050565b6000611e4882611ddd565b611e528185611de8565b9350611e62818560208601611df9565b611e6b81611e2c565b840191505092915050565b60006020820190508181036000830152611e908184611e3d565b905092915050565b6000819050919050565b611eab81611e98565b8114611eb657600080fd5b50565b600081359050611ec881611ea2565b92915050565b600060208284031215611ee457611ee3611d18565b5b6000611ef284828501611eb9565b91505092915050565b600073ffffffffffffffffffffffffffffffffffffffff82169050919050565b6000611f2682611efb565b9050919050565b611f3681611f1b565b82525050565b6000602082019050611f516000830184611f2d565b92915050565b611f6081611f1b565b8114611f6b57600080fd5b50565b600081359050611f7d81611f57565b92915050565b60008060408385031215611f9a57611f99611d18565b5b6000611fa885828601611f6e565b9250506020611fb985828601611eb9565b9150509250929050565b600080600060608486031215611fdc57611fdb611d18565b5b6000611fea86828701611f6e565b9350506020611ffb86828701611f6e565b925050604061200c86828701611eb9565b9150509250925092565b60006020828403121561202c5761202b611d18565b5b600061203a84828501611f6e565b91505092915050565b61204c81611e98565b82525050565b60006020820190506120676000830184612043565b92915050565b600080fd5b600080fd5b7f4e487b7100000000000000000000000000000000000000000000000000000000600052604160045260246000fd5b6120af82611e2c565b810181811067ffffffffffffffff821117156120ce576120cd612077565b5b80604052505050565b60006120e1611d0e565b90506120ed82826120a6565b919050565b600067ffffffffffffffff82111561210d5761210c612077565b5b61211682611e2c565b9050602081019050919050565b82818337600083830152505050565b6000612145612140846120f2565b6120d7565b90508281526020810184848401111561216157612160612072565b5b61216c848285612123565b509392505050565b600082601f8301126121895761218861206d565b5b8135612199848260208601612132565b91505092915050565b6000806000606084860312156121bb576121ba611d18565b5b60006121c986828701611f6e565b93505060206121da86828701611eb9565b925050604084013567ffffffffffffffff8111156121fb576121fa611d1d565b5b61220786828701612174565b9150509250925092565b61221a81611da7565b811461222557600080fd5b50565b60008135905061223781612211565b92915050565b6000806040838503121561225457612253611d18565b5b600061226285828601611f6e565b925050602061227385828601612228565b9150509250929050565b6000806000806080858703121561229757612296611d18565b5b60006122a587828801611f6e565b94505060206122b687828801611f6e565b93505060406122c787828801611eb9565b925050606085013567ffffffffffffffff8111156122e8576122e7611d1d565b5b6122f487828801612174565b91505092959194509250565b6000806040838503121561231757612316611d18565b5b600061232585828601611f6e565b925050602061233685828601611f6e565b9150509250929050565b7f4e487b7100000000000000000000000000000000000000000000000000000000600052602260045260246000fd5b6000600282049050600182168061238757607f821691505b6020821081141561239b5761239a612340565b5b50919050565b7f4552433732313a20617070726f76616c20746f2063757272656e74206f776e6560008201527f7200000000000000000000000000000000000000000000000000000000000000602082015250565b60006123fd602183611de8565b9150612408826123a1565b604082019050919050565b6000602082019050818103600083015261242c816123f0565b9050919050565b7f4552433732313a20617070726f76652063616c6c6572206973206e6f7420746f60008201527f6b656e206f776e6572206f7220617070726f76656420666f7220616c6c000000602082015250565b600061248f603d83611de8565b915061249a82612433565b604082019050919050565b600060208201905081810360008301526124be81612482565b9050919050565b7f4552433732313a2063616c6c6572206973206e6f7420746f6b656e206f776e6560008201527f72206f7220617070726f76656400000000000000000000000000000000000000602082015250565b6000612521602d83611de8565b915061252c826124c5565b604082019050919050565b6000602082019050818103600083015261255081612514565b9050919050565b7f4552433732313a20696e76616c696420746f6b656e2049440000000000000000600082015250565b600061258d601883611de8565b915061259882612557565b602082019050919050565b600060208201905081810360008301526125bc81612580565b9050919050565b7f4552433732313a2061646472657373207a65726f206973206e6f74206120766160008201527f6c6964206f776e65720000000000000000000000000000000000000000000000602082015250565b600061261f602983611de8565b915061262a826125c3565b604082019050919050565b6000602082019050818103600083015261264e81612612565b9050919050565b600081905092915050565b600061266b82611ddd565b6126758185612655565b9350612685818560208601611df9565b80840191505092915050565b600061269d8285612660565b91506126a98284612660565b91508190509392505050565b7f4552433732313a207472616e736665722066726f6d20696e636f72726563742060008201527f6f776e6572000000000000000000000000000000000000000000000000000000602082015250565b6000612711602583611de8565b915061271c826126b5565b604082019050919050565b6000602082019050818103600083015261274081612704565b9050919050565b7f4552433732313a207472616e7366657220746f20746865207a65726f2061646460008201527f7265737300000000000000000000000000000000000000000000000000000000602082015250565b60006127a3602483611de8565b91506127ae82612747565b604082019050919050565b600060208201905081810360008301526127d281612796565b9050919050565b7f4552433732313a206d696e7420746f20746865207a65726f2061646472657373600082015250565b600061280f602083611de8565b915061281a826127d9565b602082019050919050565b6000602082019050818103600083015261283e81612802565b9050919050565b7f4552433732313a20746f6b656e20616c7265616479206d696e74656400000000600082015250565b600061287b601c83611de8565b915061288682612845565b602082019050919050565b600060208201905081810360008301526128aa8161286e565b9050919050565b7f4552433732313a207472616e7366657220746f206e6f6e20455243373231526560008201527f63656976657220696d706c656d656e7465720000000000000000000000000000602082015250565b600061290d603283611de8565b9150612918826128b1565b604082019050919050565b6000602082019050818103600083015261293c81612900565b9050919050565b7f4552433732313a20617070726f766520746f2063616c6c657200000000000000600082015250565b6000612979601983611de8565b915061298482612943565b602082019050919050565b600060208201905081810360008301526129a88161296c565b9050919050565b7f4e487b7100000000000000000000000000000000000000000000000000000000600052601260045260246000fd5b7f4552433732315061757361626c653a20746f6b656e207472616e73666572207760008201527f68696c6520706175736564000000000000000000000000000000000000000000602082015250565b6000612a3a602b83611de8565b9150612a45826129de565b604082019050919050565b60006020820190508181036000830152612a6981612a2d565b9050919050565b7f5061757361626c653a206e6f7420706175736564000000000000000000000000600082015250565b6000612aa6601483611de8565b9150612ab182612a70565b602082019050919050565b60006020820190508181036000830152612ad581612a99565b9050919050565b7f5061757361626c653a2070617573656400000000000000000000000000000000600082015250565b6000612b12601083611de8565b9150612b1d82612adc565b602082019050919050565b60006020820190508181036000830152612b4181612b05565b9050919050565b600081519050919050565b600082825260208201905092915050565b6000612b6f82612b48565b612b798185612b53565b9350612b89818560208601611df9565b612b9281611e2c565b840191505092915050565b6000608082019050612bb26000830187611f2d565b612bbf6020830186611f2d565b612bcc6040830185612043565b8181036060830152612bde8184612b64565b905095945050505050565b600081519050612bf881611d4e565b92915050565b600060208284031215612c1457612c13611d18565b5b6000612c2284828501612be9565b91505092915050565b7f4e487b7100000000000000000000000000000000000000000000000000000000600052601160045260246000fd5b6000612c6582611e98565b9150612c7083611e98565b925082821015612c8357612c82612c2b565b5b828203905092915050565b6000612c9982611e98565b9150612ca483611e98565b9250827fffffffffffffffffffffffffffffffffffffffffffffffffffffffffffffffff03821115612cd957612cd8612c2b565b5b82820190509291505056fea26469706673582212202edbc619f4a448625e44b2d0c2c414b837ba3f42638859e717ce95af2da5f3e964736f6c63430008090033",
  "linkReferences": {},
  "deployedLinkReferences": {}
}