{
  "_format": "hh-sol-artifact-1",
  "contractName": "ERC4626Mock",
  "sourceName": "contracts/openzeppelin/mocks/ERC4626Mock.sol",
  "abi": [
    {
      "inputs": [
        {
          "internalType": "contract IERC20Metadata",
          "name": "asset",
          "type": "address"
        },
        {
          "internalType": "string",
          "name": "name",
          "type": "string"
        },
        {
          "internalType": "string",
          "name": "symbol",
          "type": "string"
        }
      ],
      "stateMutability": "nonpayable",
      "type": "constructor"
    },
    {
      "anonymous": false,
      "inputs": [
        {
          "indexed": true,
          "internalType": "address",
          "name": "owner",
          "type": "address"
        },
        {
          "indexed": true,
          "internalType": "address",
          "name": "spender",
          "type": "address"
        },
        {
          "indexed": false,
          "internalType": "uint256",
          "name": "value",
          "type": "uint256"
        }
      ],
      "name": "Approval",
      "type": "event"
    },
    {
      "anonymous": false,
      "inputs": [
        {
          "indexed": true,
          "internalType": "address",
          "name": "sender",
          "type": "address"
        },
        {
          "indexed": true,
          "internalType": "address",
          "name": "owner",
          "type": "address"
        },
        {
          "indexed": false,
          "internalType": "uint256",
          "name": "assets",
          "type": "uint256"
        },
        {
          "indexed": false,
          "internalType": "uint256",
          "name": "shares",
          "type": "uint256"
        }
      ],
      "name": "Deposit",
      "type": "event"
    },
    {
      "anonymous": false,
      "inputs": [
        {
          "indexed": true,
          "internalType": "address",
          "name": "from",
          "type": "address"
        },
        {
          "indexed": true,
          "internalType": "address",
          "name": "to",
          "type": "address"
        },
        {
          "indexed": false,
          "internalType": "uint256",
          "name": "value",
          "type": "uint256"
        }
      ],
      "name": "Transfer",
      "type": "event"
    },
    {
      "anonymous": false,
      "inputs": [
        {
          "indexed": true,
          "internalType": "address",
          "name": "sender",
          "type": "address"
        },
        {
          "indexed": true,
          "internalType": "address",
          "name": "receiver",
          "type": "address"
        },
        {
          "indexed": true,
          "internalType": "address",
          "name": "owner",
          "type": "address"
        },
        {
          "indexed": false,
          "internalType": "uint256",
          "name": "assets",
          "type": "uint256"
        },
        {
          "indexed": false,
          "internalType": "uint256",
          "name": "shares",
          "type": "uint256"
        }
      ],
      "name": "Withdraw",
      "type": "event"
    },
    {
      "inputs": [
        {
          "internalType": "address",
          "name": "owner",
          "type": "address"
        },
        {
          "internalType": "address",
          "name": "spender",
          "type": "address"
        }
      ],
      "name": "allowance",
      "outputs": [
        {
          "internalType": "uint256",
          "name": "",
          "type": "uint256"
        }
      ],
      "stateMutability": "view",
      "type": "function"
    },
    {
      "inputs": [
        {
          "internalType": "address",
          "name": "spender",
          "type": "address"
        },
        {
          "internalType": "uint256",
          "name": "amount",
          "type": "uint256"
        }
      ],
      "name": "approve",
      "outputs": [
        {
          "internalType": "bool",
          "name": "",
          "type": "bool"
        }
      ],
      "stateMutability": "nonpayable",
      "type": "function"
    },
    {
      "inputs": [],
      "name": "asset",
      "outputs": [
        {
          "internalType": "address",
          "name": "",
          "type": "address"
        }
      ],
      "stateMutability": "view",
      "type": "function"
    },
    {
      "inputs": [
        {
          "internalType": "address",
          "name": "account",
          "type": "address"
        }
      ],
      "name": "balanceOf",
      "outputs": [
        {
          "internalType": "uint256",
          "name": "",
          "type": "uint256"
        }
      ],
      "stateMutability": "view",
      "type": "function"
    },
    {
      "inputs": [
        {
          "internalType": "uint256",
          "name": "shares",
          "type": "uint256"
        }
      ],
      "name": "convertToAssets",
      "outputs": [
        {
          "internalType": "uint256",
          "name": "",
          "type": "uint256"
        }
      ],
      "stateMutability": "view",
      "type": "function"
    },
    {
      "inputs": [
        {
          "internalType": "uint256",
          "name": "assets",
          "type": "uint256"
        }
      ],
      "name": "convertToShares",
      "outputs": [
        {
          "internalType": "uint256",
          "name": "",
          "type": "uint256"
        }
      ],
      "stateMutability": "view",
      "type": "function"
    },
    {
      "inputs": [],
      "name": "decimals",
      "outputs": [
        {
          "internalType": "uint8",
          "name": "",
          "type": "uint8"
        }
      ],
      "stateMutability": "view",
      "type": "function"
    },
    {
      "inputs": [
        {
          "internalType": "address",
          "name": "spender",
          "type": "address"
        },
        {
          "internalType": "uint256",
          "name": "subtractedValue",
          "type": "uint256"
        }
      ],
      "name": "decreaseAllowance",
      "outputs": [
        {
          "internalType": "bool",
          "name": "",
          "type": "bool"
        }
      ],
      "stateMutability": "nonpayable",
      "type": "function"
    },
    {
      "inputs": [
        {
          "internalType": "uint256",
          "name": "assets",
          "type": "uint256"
        },
        {
          "internalType": "address",
          "name": "receiver",
          "type": "address"
        }
      ],
      "name": "deposit",
      "outputs": [
        {
          "internalType": "uint256",
          "name": "",
          "type": "uint256"
        }
      ],
      "stateMutability": "nonpayable",
      "type": "function"
    },
    {
      "inputs": [
        {
          "internalType": "address",
          "name": "spender",
          "type": "address"
        },
        {
          "internalType": "uint256",
          "name": "addedValue",
          "type": "uint256"
        }
      ],
      "name": "increaseAllowance",
      "outputs": [
        {
          "internalType": "bool",
          "name": "",
          "type": "bool"
        }
      ],
      "stateMutability": "nonpayable",
      "type": "function"
    },
    {
      "inputs": [
        {
          "internalType": "address",
          "name": "",
          "type": "address"
        }
      ],
      "name": "maxDeposit",
      "outputs": [
        {
          "internalType": "uint256",
          "name": "",
          "type": "uint256"
        }
      ],
      "stateMutability": "view",
      "type": "function"
    },
    {
      "inputs": [
        {
          "internalType": "address",
          "name": "",
          "type": "address"
        }
      ],
      "name": "maxMint",
      "outputs": [
        {
          "internalType": "uint256",
          "name": "",
          "type": "uint256"
        }
      ],
      "stateMutability": "view",
      "type": "function"
    },
    {
      "inputs": [
        {
          "internalType": "address",
          "name": "owner",
          "type": "address"
        }
      ],
      "name": "maxRedeem",
      "outputs": [
        {
          "internalType": "uint256",
          "name": "",
          "type": "uint256"
        }
      ],
      "stateMutability": "view",
      "type": "function"
    },
    {
      "inputs": [
        {
          "internalType": "address",
          "name": "owner",
          "type": "address"
        }
      ],
      "name": "maxWithdraw",
      "outputs": [
        {
          "internalType": "uint256",
          "name": "",
          "type": "uint256"
        }
      ],
      "stateMutability": "view",
      "type": "function"
    },
    {
      "inputs": [
        {
          "internalType": "uint256",
          "name": "shares",
          "type": "uint256"
        },
        {
          "internalType": "address",
          "name": "receiver",
          "type": "address"
        }
      ],
      "name": "mint",
      "outputs": [
        {
          "internalType": "uint256",
          "name": "",
          "type": "uint256"
        }
      ],
      "stateMutability": "nonpayable",
      "type": "function"
    },
    {
      "inputs": [
        {
          "internalType": "address",
          "name": "account",
          "type": "address"
        },
        {
          "internalType": "uint256",
          "name": "amount",
          "type": "uint256"
        }
      ],
      "name": "mockBurn",
      "outputs": [],
      "stateMutability": "nonpayable",
      "type": "function"
    },
    {
      "inputs": [
        {
          "internalType": "address",
          "name": "account",
          "type": "address"
        },
        {
          "internalType": "uint256",
          "name": "amount",
          "type": "uint256"
        }
      ],
      "name": "mockMint",
      "outputs": [],
      "stateMutability": "nonpayable",
      "type": "function"
    },
    {
      "inputs": [],
      "name": "name",
      "outputs": [
        {
          "internalType": "string",
          "name": "",
          "type": "string"
        }
      ],
      "stateMutability": "view",
      "type": "function"
    },
    {
      "inputs": [
        {
          "internalType": "uint256",
          "name": "assets",
          "type": "uint256"
        }
      ],
      "name": "previewDeposit",
      "outputs": [
        {
          "internalType": "uint256",
          "name": "",
          "type": "uint256"
        }
      ],
      "stateMutability": "view",
      "type": "function"
    },
    {
      "inputs": [
        {
          "internalType": "uint256",
          "name": "shares",
          "type": "uint256"
        }
      ],
      "name": "previewMint",
      "outputs": [
        {
          "internalType": "uint256",
          "name": "",
          "type": "uint256"
        }
      ],
      "stateMutability": "view",
      "type": "function"
    },
    {
      "inputs": [
        {
          "internalType": "uint256",
          "name": "shares",
          "type": "uint256"
        }
      ],
      "name": "previewRedeem",
      "outputs": [
        {
          "internalType": "uint256",
          "name": "",
          "type": "uint256"
        }
      ],
      "stateMutability": "view",
      "type": "function"
    },
    {
      "inputs": [
        {
          "internalType": "uint256",
          "name": "assets",
          "type": "uint256"
        }
      ],
      "name": "previewWithdraw",
      "outputs": [
        {
          "internalType": "uint256",
          "name": "",
          "type": "uint256"
        }
      ],
      "stateMutability": "view",
      "type": "function"
    },
    {
      "inputs": [
        {
          "internalType": "uint256",
          "name": "shares",
          "type": "uint256"
        },
        {
          "internalType": "address",
          "name": "receiver",
          "type": "address"
        },
        {
          "internalType": "address",
          "name": "owner",
          "type": "address"
        }
      ],
      "name": "redeem",
      "outputs": [
        {
          "internalType": "uint256",
          "name": "",
          "type": "uint256"
        }
      ],
      "stateMutability": "nonpayable",
      "type": "function"
    },
    {
      "inputs": [],
      "name": "symbol",
      "outputs": [
        {
          "internalType": "string",
          "name": "",
          "type": "string"
        }
      ],
      "stateMutability": "view",
      "type": "function"
    },
    {
      "inputs": [],
      "name": "totalAssets",
      "outputs": [
        {
          "internalType": "uint256",
          "name": "",
          "type": "uint256"
        }
      ],
      "stateMutability": "view",
      "type": "function"
    },
    {
      "inputs": [],
      "name": "totalSupply",
      "outputs": [
        {
          "internalType": "uint256",
          "name": "",
          "type": "uint256"
        }
      ],
      "stateMutability": "view",
      "type": "function"
    },
    {
      "inputs": [
        {
          "internalType": "address",
          "name": "to",
          "type": "address"
        },
        {
          "internalType": "uint256",
          "name": "amount",
          "type": "uint256"
        }
      ],
      "name": "transfer",
      "outputs": [
        {
          "internalType": "bool",
          "name": "",
          "type": "bool"
        }
      ],
      "stateMutability": "nonpayable",
      "type": "function"
    },
    {
      "inputs": [
        {
          "internalType": "address",
          "name": "from",
          "type": "address"
        },
        {
          "internalType": "address",
          "name": "to",
          "type": "address"
        },
        {
          "internalType": "uint256",
          "name": "amount",
          "type": "uint256"
        }
      ],
      "name": "transferFrom",
      "outputs": [
        {
          "internalType": "bool",
          "name": "",
          "type": "bool"
        }
      ],
      "stateMutability": "nonpayable",
      "type": "function"
    },
    {
      "inputs": [
        {
          "internalType": "uint256",
          "name": "assets",
          "type": "uint256"
        },
        {
          "internalType": "address",
          "name": "receiver",
          "type": "address"
        },
        {
          "internalType": "address",
          "name": "owner",
          "type": "address"
        }
      ],
      "name": "withdraw",
      "outputs": [
        {
          "internalType": "uint256",
          "name": "",
          "type": "uint256"
        }
      ],
      "stateMutability": "nonpayable",
      "type": "function"
    }
  ],
  "bytecode": "0x60c06040523480156200001157600080fd5b50604051620033de380380620033de833981810160405281019062000037919062000501565b8282828160039080519060200190620000529291906200023b565b5080600490805190602001906200006b9291906200023b565b5050506000806200008283620000f660201b60201c565b9150915081620000a757620000a16200023260201b62000dda1760201c565b620000a9565b805b60ff1660a08160ff16815250508273ffffffffffffffffffffffffffffffffffffffff1660808173ffffffffffffffffffffffffffffffffffffffff1681525050505050505050620006d3565b6000806000808473ffffffffffffffffffffffffffffffffffffffff1663313ce56760e01b604051602401604051602081830303815290604052907bffffffffffffffffffffffffffffffffffffffffffffffffffffffff19166020820180517bffffffffffffffffffffffffffffffffffffffffffffffffffffffff83818316178352505050506040516200018d9190620005e8565b6000604051808303816000865af19150503d8060008114620001cc576040519150601f19603f3d011682016040523d82523d6000602084013e620001d1565b606091505b5091509150818015620001e657506020815110155b1562000223576000818060200190518101906200020491906200063c565b905060ff801681116200022157600181945094505050506200022d565b505b6000809350935050505b915091565b60006012905090565b82805462000249906200069d565b90600052602060002090601f0160209004810192826200026d5760008555620002b9565b82601f106200028857805160ff1916838001178555620002b9565b82800160010185558215620002b9579182015b82811115620002b85782518255916020019190600101906200029b565b5b509050620002c89190620002cc565b5090565b5b80821115620002e7576000816000905550600101620002cd565b5090565b6000604051905090565b600080fd5b600080fd5b600073ffffffffffffffffffffffffffffffffffffffff82169050919050565b60006200032c82620002ff565b9050919050565b600062000340826200031f565b9050919050565b620003528162000333565b81146200035e57600080fd5b50565b600081519050620003728162000347565b92915050565b600080fd5b600080fd5b6000601f19601f8301169050919050565b7f4e487b7100000000000000000000000000000000000000000000000000000000600052604160045260246000fd5b620003cd8262000382565b810181811067ffffffffffffffff82111715620003ef57620003ee62000393565b5b80604052505050565b600062000404620002eb565b9050620004128282620003c2565b919050565b600067ffffffffffffffff82111562000435576200043462000393565b5b620004408262000382565b9050602081019050919050565b60005b838110156200046d57808201518184015260208101905062000450565b838111156200047d576000848401525b50505050565b60006200049a620004948462000417565b620003f8565b905082815260208101848484011115620004b957620004b86200037d565b5b620004c68482856200044d565b509392505050565b600082601f830112620004e657620004e562000378565b5b8151620004f884826020860162000483565b91505092915050565b6000806000606084860312156200051d576200051c620002f5565b5b60006200052d8682870162000361565b935050602084015167ffffffffffffffff811115620005515762000550620002fa565b5b6200055f86828701620004ce565b925050604084015167ffffffffffffffff811115620005835762000582620002fa565b5b6200059186828701620004ce565b9150509250925092565b600081519050919050565b600081905092915050565b6000620005be826200059b565b620005ca8185620005a6565b9350620005dc8185602086016200044d565b80840191505092915050565b6000620005f68284620005b1565b915081905092915050565b6000819050919050565b620006168162000601565b81146200062257600080fd5b50565b60008151905062000636816200060b565b92915050565b600060208284031215620006555762000654620002f5565b5b6000620006658482850162000625565b91505092915050565b7f4e487b7100000000000000000000000000000000000000000000000000000000600052602260045260246000fd5b60006002820490506001821680620006b657607f821691505b60208210811415620006cd57620006cc6200066e565b5b50919050565b60805160a051612cd06200070e600039600061087a0152600081816106b4015281816108b0015281816116aa01526117960152612cd06000f3fe608060405234801561001057600080fd5b50600436106101cf5760003560e01c80636e553f6511610104578063b460af94116100a2578063ce96cb7711610071578063ce96cb77146105f0578063d905777e14610620578063dd62ed3e14610650578063ef8b30f714610680576101cf565b8063b460af9414610530578063ba08765214610560578063c63d75b614610590578063c6e6f592146105c0576101cf565b806395d89b41116100de57806395d89b4114610482578063a457c2d7146104a0578063a9059cbb146104d0578063b3d7f6b914610500576101cf565b80636e553f65146103f257806370a082311461042257806394bf804d14610452576101cf565b8063313ce56711610171578063395093511161014b5780633950935114610346578063402d267d14610376578063492dc938146103a65780634cdad506146103c2576101cf565b8063313ce567146102ee578063378934b41461030c57806338d52e0f14610328576101cf565b8063095ea7b3116101ad578063095ea7b3146102405780630a28a4771461027057806318160ddd146102a057806323b872dd146102be576101cf565b806301e1d114146101d457806306fdde03146101f257806307a2d13a14610210575b600080fd5b6101dc6106b0565b6040516101e99190611d70565b60405180910390f35b6101fa610760565b6040516102079190611e24565b60405180910390f35b61022a60048036038101906102259190611e77565b6107f2565b6040516102379190611d70565b60405180910390f35b61025a60048036038101906102559190611f02565b610806565b6040516102679190611f5d565b60405180910390f35b61028a60048036038101906102859190611e77565b610829565b6040516102979190611d70565b60405180910390f35b6102a861083d565b6040516102b59190611d70565b60405180910390f35b6102d860048036038101906102d39190611f78565b610847565b6040516102e59190611f5d565b60405180910390f35b6102f6610876565b6040516103039190611fe7565b60405180910390f35b61032660048036038101906103219190611f02565b61089e565b005b6103306108ac565b60405161033d9190612011565b60405180910390f35b610360600480360381019061035b9190611f02565b6108d4565b60405161036d9190611f5d565b60405180910390f35b610390600480360381019061038b919061202c565b61090b565b60405161039d9190611d70565b60405180910390f35b6103c060048036038101906103bb9190611f02565b610949565b005b6103dc60048036038101906103d79190611e77565b610957565b6040516103e99190611d70565b60405180910390f35b61040c60048036038101906104079190612059565b61096b565b6040516104199190611d70565b60405180910390f35b61043c6004803603810190610437919061202c565b6109e2565b6040516104499190611d70565b60405180910390f35b61046c60048036038101906104679190612059565b610a2a565b6040516104799190611d70565b60405180910390f35b61048a610aa1565b6040516104979190611e24565b60405180910390f35b6104ba60048036038101906104b59190611f02565b610b33565b6040516104c79190611f5d565b60405180910390f35b6104ea60048036038101906104e59190611f02565b610baa565b6040516104f79190611f5d565b60405180910390f35b61051a60048036038101906105159190611e77565b610bcd565b6040516105279190611d70565b60405180910390f35b61054a60048036038101906105459190612099565b610be1565b6040516105579190611d70565b60405180910390f35b61057a60048036038101906105759190612099565b610c5a565b6040516105879190611d70565b60405180910390f35b6105aa60048036038101906105a5919061202c565b610cd3565b6040516105b79190611d70565b60405180910390f35b6105da60048036038101906105d59190611e77565b610cfd565b6040516105e79190611d70565b60405180910390f35b61060a6004803603810190610605919061202c565b610d11565b6040516106179190611d70565b60405180910390f35b61063a6004803603810190610635919061202c565b610d2d565b6040516106479190611d70565b60405180910390f35b61066a600480360381019061066591906120ec565b610d3f565b6040516106779190611d70565b60405180910390f35b61069a60048036038101906106959190611e77565b610dc6565b6040516106a79190611d70565b60405180910390f35b60007f000000000000000000000000000000000000000000000000000000000000000073ffffffffffffffffffffffffffffffffffffffff166370a08231306040518263ffffffff1660e01b815260040161070b9190612011565b60206040518083038186803b15801561072357600080fd5b505afa158015610737573d6000803e3d6000fd5b505050506040513d601f19601f8201168201806040525081019061075b9190612141565b905090565b60606003805461076f9061219d565b80601f016020809104026020016040519081016040528092919081815260200182805461079b9061219d565b80156107e85780601f106107bd576101008083540402835291602001916107e8565b820191906000526020600020905b8154815290600101906020018083116107cb57829003601f168201915b5050505050905090565b60006107ff826000610de3565b9050919050565b600080610811610e2f565b905061081e818585610e37565b600191505092915050565b6000610836826001611002565b9050919050565b6000600254905090565b600080610852610e2f565b905061085f858285611059565b61086a8585856110e5565b60019150509392505050565b60007f0000000000000000000000000000000000000000000000000000000000000000905090565b6108a8828261135d565b5050565b60007f0000000000000000000000000000000000000000000000000000000000000000905090565b6000806108df610e2f565b90506109008185856108f18589610d3f565b6108fb91906121fe565b610e37565b600191505092915050565b60006109156114b4565b610920576000610942565b7fffffffffffffffffffffffffffffffffffffffffffffffffffffffffffffffff5b9050919050565b61095382826114d7565b5050565b6000610964826000610de3565b9050919050565b60006109768261090b565b8311156109b8576040517f08c379a00000000000000000000000000000000000000000000000000000000081526004016109af906122a0565b60405180910390fd5b60006109c384610dc6565b90506109d86109d0610e2f565b8486846116a5565b8091505092915050565b60008060008373ffffffffffffffffffffffffffffffffffffffff1673ffffffffffffffffffffffffffffffffffffffff168152602001908152602001600020549050919050565b6000610a3582610cd3565b831115610a77576040517f08c379a0000000000000000000000000000000000000000000000000000000008152600401610a6e9061230c565b60405180910390fd5b6000610a8284610bcd565b9050610a97610a8f610e2f565b8483876116a5565b8091505092915050565b606060048054610ab09061219d565b80601f0160208091040260200160405190810160405280929190818152602001828054610adc9061219d565b8015610b295780601f10610afe57610100808354040283529160200191610b29565b820191906000526020600020905b815481529060010190602001808311610b0c57829003601f168201915b5050505050905090565b600080610b3e610e2f565b90506000610b4c8286610d3f565b905083811015610b91576040517f08c379a0000000000000000000000000000000000000000000000000000000008152600401610b889061239e565b60405180910390fd5b610b9e8286868403610e37565b60019250505092915050565b600080610bb5610e2f565b9050610bc28185856110e5565b600191505092915050565b6000610bda826001610de3565b9050919050565b6000610bec82610d11565b841115610c2e576040517f08c379a0000000000000000000000000000000000000000000000000000000008152600401610c259061240a565b60405180910390fd5b6000610c3985610829565b9050610c4f610c46610e2f565b85858885611748565b809150509392505050565b6000610c6582610d2d565b841115610ca7576040517f08c379a0000000000000000000000000000000000000000000000000000000008152600401610c9e90612476565b60405180910390fd5b6000610cb285610957565b9050610cc8610cbf610e2f565b85858489611748565b809150509392505050565b60007fffffffffffffffffffffffffffffffffffffffffffffffffffffffffffffffff9050919050565b6000610d0a826000611002565b9050919050565b6000610d26610d1f836109e2565b6000610de3565b9050919050565b6000610d38826109e2565b9050919050565b6000600160008473ffffffffffffffffffffffffffffffffffffffff1673ffffffffffffffffffffffffffffffffffffffff16815260200190815260200160002060008373ffffffffffffffffffffffffffffffffffffffff1673ffffffffffffffffffffffffffffffffffffffff16815260200190815260200160002054905092915050565b6000610dd3826000611002565b9050919050565b60006012905090565b600080610dee61083d565b905060008114610e1b57610e16610e036106b0565b828587611841909392919063ffffffff16565b610e26565b610e2584846118b7565b5b91505092915050565b600033905090565b600073ffffffffffffffffffffffffffffffffffffffff168373ffffffffffffffffffffffffffffffffffffffff161415610ea7576040517f08c379a0000000000000000000000000000000000000000000000000000000008152600401610e9e90612508565b60405180910390fd5b600073ffffffffffffffffffffffffffffffffffffffff168273ffffffffffffffffffffffffffffffffffffffff161415610f17576040517f08c379a0000000000000000000000000000000000000000000000000000000008152600401610f0e9061259a565b60405180910390fd5b80600160008573ffffffffffffffffffffffffffffffffffffffff1673ffffffffffffffffffffffffffffffffffffffff16815260200190815260200160002060008473ffffffffffffffffffffffffffffffffffffffff1673ffffffffffffffffffffffffffffffffffffffff168152602001908152602001600020819055508173ffffffffffffffffffffffffffffffffffffffff168373ffffffffffffffffffffffffffffffffffffffff167f8c5be1e5ebec7d5bd14f71427d1e84f3dd0314c0f7b2291e5b200ac8c7c3b92583604051610ff59190611d70565b60405180910390a3505050565b60008061100d61083d565b9050600084148061101e5750600081145b611045576110408161102e6106b0565b8587611841909392919063ffffffff16565b611050565b61104f84846118c2565b5b91505092915050565b60006110658484610d3f565b90507fffffffffffffffffffffffffffffffffffffffffffffffffffffffffffffffff81146110df57818110156110d1576040517f08c379a00000000000000000000000000000000000000000000000000000000081526004016110c890612606565b60405180910390fd5b6110de8484848403610e37565b5b50505050565b600073ffffffffffffffffffffffffffffffffffffffff168373ffffffffffffffffffffffffffffffffffffffff161415611155576040517f08c379a000000000000000000000000000000000000000000000000000000000815260040161114c90612698565b60405180910390fd5b600073ffffffffffffffffffffffffffffffffffffffff168273ffffffffffffffffffffffffffffffffffffffff1614156111c5576040517f08c379a00000000000000000000000000000000000000000000000000000000081526004016111bc9061272a565b60405180910390fd5b6111d08383836118cd565b60008060008573ffffffffffffffffffffffffffffffffffffffff1673ffffffffffffffffffffffffffffffffffffffff16815260200190815260200160002054905081811015611256576040517f08c379a000000000000000000000000000000000000000000000000000000000815260040161124d906127bc565b60405180910390fd5b8181036000808673ffffffffffffffffffffffffffffffffffffffff1673ffffffffffffffffffffffffffffffffffffffff16815260200190815260200160002081905550816000808573ffffffffffffffffffffffffffffffffffffffff1673ffffffffffffffffffffffffffffffffffffffff168152602001908152602001600020600082825401925050819055508273ffffffffffffffffffffffffffffffffffffffff168473ffffffffffffffffffffffffffffffffffffffff167fddf252ad1be2c89b69c2b068fc378daa952ba7f163c4a11628f55a4df523b3ef846040516113449190611d70565b60405180910390a36113578484846118d2565b50505050565b600073ffffffffffffffffffffffffffffffffffffffff168273ffffffffffffffffffffffffffffffffffffffff1614156113cd576040517f08c379a00000000000000000000000000000000000000000000000000000000081526004016113c490612828565b60405180910390fd5b6113d9600083836118cd565b80600260008282546113eb91906121fe565b92505081905550806000808473ffffffffffffffffffffffffffffffffffffffff1673ffffffffffffffffffffffffffffffffffffffff168152602001908152602001600020600082825401925050819055508173ffffffffffffffffffffffffffffffffffffffff16600073ffffffffffffffffffffffffffffffffffffffff167fddf252ad1be2c89b69c2b068fc378daa952ba7f163c4a11628f55a4df523b3ef8360405161149c9190611d70565b60405180910390a36114b0600083836118d2565b5050565b6000806114bf6106b0565b11806114d2575060006114d061083d565b145b905090565b600073ffffffffffffffffffffffffffffffffffffffff168273ffffffffffffffffffffffffffffffffffffffff161415611547576040517f08c379a000000000000000000000000000000000000000000000000000000000815260040161153e906128ba565b60405180910390fd5b611553826000836118cd565b60008060008473ffffffffffffffffffffffffffffffffffffffff1673ffffffffffffffffffffffffffffffffffffffff168152602001908152602001600020549050818110156115d9576040517f08c379a00000000000000000000000000000000000000000000000000000000081526004016115d09061294c565b60405180910390fd5b8181036000808573ffffffffffffffffffffffffffffffffffffffff1673ffffffffffffffffffffffffffffffffffffffff1681526020019081526020016000208190555081600260008282540392505081905550600073ffffffffffffffffffffffffffffffffffffffff168373ffffffffffffffffffffffffffffffffffffffff167fddf252ad1be2c89b69c2b068fc378daa952ba7f163c4a11628f55a4df523b3ef8460405161168c9190611d70565b60405180910390a36116a0836000846118d2565b505050565b6116d17f00000000000000000000000000000000000000000000000000000000000000008530856118d7565b6116db838261135d565b8273ffffffffffffffffffffffffffffffffffffffff168473ffffffffffffffffffffffffffffffffffffffff167fdcbc1c05240f31ff3ad067ef1ee35ce4997762752e3a095284754544f4c709d7848460405161173a92919061296c565b60405180910390a350505050565b8273ffffffffffffffffffffffffffffffffffffffff168573ffffffffffffffffffffffffffffffffffffffff161461178757611786838683611059565b5b61179183826114d7565b6117bc7f00000000000000000000000000000000000000000000000000000000000000008584611960565b8273ffffffffffffffffffffffffffffffffffffffff168473ffffffffffffffffffffffffffffffffffffffff168673ffffffffffffffffffffffffffffffffffffffff167ffbde797d201c681b91056529119e0b02407c7bb96a4a2c75c01fc9667232c8db858560405161183292919061296c565b60405180910390a45050505050565b60008061184f8686866119e6565b90506001600281111561186557611864612995565b5b83600281111561187857611877612995565b5b148015611896575060008480611891576118906129c4565b5b868809115b156118ab576001816118a891906121fe565b90505b80915050949350505050565b600082905092915050565b600082905092915050565b505050565b505050565b61195a846323b872dd60e01b8585856040516024016118f8939291906129f3565b604051602081830303815290604052907bffffffffffffffffffffffffffffffffffffffffffffffffffffffff19166020820180517bffffffffffffffffffffffffffffffffffffffffffffffffffffffff8381831617835250505050611ac2565b50505050565b6119e18363a9059cbb60e01b848460405160240161197f929190612a2a565b604051602081830303815290604052907bffffffffffffffffffffffffffffffffffffffffffffffffffffffff19166020820180517bffffffffffffffffffffffffffffffffffffffffffffffffffffffff8381831617835250505050611ac2565b505050565b600080600080198587098587029250828110838203039150506000811415611a2257838281611a1857611a176129c4565b5b0492505050611abb565b808411611a2e57600080fd5b60008486880990508281118203915080830392506000600186190186169050808604955080840493506001818260000304019050808302841793506000600287600302189050808702600203810290508087026002038102905080870260020381029050808702600203810290508087026002038102905080870260020381029050808502955050505050505b9392505050565b6000611b24826040518060400160405280602081526020017f5361666545524332303a206c6f772d6c6576656c2063616c6c206661696c65648152508573ffffffffffffffffffffffffffffffffffffffff16611b899092919063ffffffff16565b9050600081511115611b845780806020019051810190611b449190612a7f565b611b83576040517f08c379a0000000000000000000000000000000000000000000000000000000008152600401611b7a90612b1e565b60405180910390fd5b5b505050565b6060611b988484600085611ba1565b90509392505050565b606082471015611be6576040517f08c379a0000000000000000000000000000000000000000000000000000000008152600401611bdd90612bb0565b60405180910390fd5b6000808673ffffffffffffffffffffffffffffffffffffffff168587604051611c0f9190612c17565b60006040518083038185875af1925050503d8060008114611c4c576040519150601f19603f3d011682016040523d82523d6000602084013e611c51565b606091505b5091509150611c6287838387611c6e565b92505050949350505050565b60608315611cd157600083511415611cc957611c8985611ce4565b611cc8576040517f08c379a0000000000000000000000000000000000000000000000000000000008152600401611cbf90612c7a565b60405180910390fd5b5b829050611cdc565b611cdb8383611d07565b5b949350505050565b6000808273ffffffffffffffffffffffffffffffffffffffff163b119050919050565b600082511115611d1a5781518083602001fd5b806040517f08c379a0000000000000000000000000000000000000000000000000000000008152600401611d4e9190611e24565b60405180910390fd5b6000819050919050565b611d6a81611d57565b82525050565b6000602082019050611d856000830184611d61565b92915050565b600081519050919050565b600082825260208201905092915050565b60005b83811015611dc5578082015181840152602081019050611daa565b83811115611dd4576000848401525b50505050565b6000601f19601f8301169050919050565b6000611df682611d8b565b611e008185611d96565b9350611e10818560208601611da7565b611e1981611dda565b840191505092915050565b60006020820190508181036000830152611e3e8184611deb565b905092915050565b600080fd5b611e5481611d57565b8114611e5f57600080fd5b50565b600081359050611e7181611e4b565b92915050565b600060208284031215611e8d57611e8c611e46565b5b6000611e9b84828501611e62565b91505092915050565b600073ffffffffffffffffffffffffffffffffffffffff82169050919050565b6000611ecf82611ea4565b9050919050565b611edf81611ec4565b8114611eea57600080fd5b50565b600081359050611efc81611ed6565b92915050565b60008060408385031215611f1957611f18611e46565b5b6000611f2785828601611eed565b9250506020611f3885828601611e62565b9150509250929050565b60008115159050919050565b611f5781611f42565b82525050565b6000602082019050611f726000830184611f4e565b92915050565b600080600060608486031215611f9157611f90611e46565b5b6000611f9f86828701611eed565b9350506020611fb086828701611eed565b9250506040611fc186828701611e62565b9150509250925092565b600060ff82169050919050565b611fe181611fcb565b82525050565b6000602082019050611ffc6000830184611fd8565b92915050565b61200b81611ec4565b82525050565b60006020820190506120266000830184612002565b92915050565b60006020828403121561204257612041611e46565b5b600061205084828501611eed565b91505092915050565b600080604083850312156120705761206f611e46565b5b600061207e85828601611e62565b925050602061208f85828601611eed565b9150509250929050565b6000806000606084860312156120b2576120b1611e46565b5b60006120c086828701611e62565b93505060206120d186828701611eed565b92505060406120e286828701611eed565b9150509250925092565b6000806040838503121561210357612102611e46565b5b600061211185828601611eed565b925050602061212285828601611eed565b9150509250929050565b60008151905061213b81611e4b565b92915050565b60006020828403121561215757612156611e46565b5b60006121658482850161212c565b91505092915050565b7f4e487b7100000000000000000000000000000000000000000000000000000000600052602260045260246000fd5b600060028204905060018216806121b557607f821691505b602082108114156121c9576121c861216e565b5b50919050565b7f4e487b7100000000000000000000000000000000000000000000000000000000600052601160045260246000fd5b600061220982611d57565b915061221483611d57565b9250827fffffffffffffffffffffffffffffffffffffffffffffffffffffffffffffffff03821115612249576122486121cf565b5b828201905092915050565b7f455243343632363a206465706f736974206d6f7265207468616e206d61780000600082015250565b600061228a601e83611d96565b915061229582612254565b602082019050919050565b600060208201905081810360008301526122b98161227d565b9050919050565b7f455243343632363a206d696e74206d6f7265207468616e206d61780000000000600082015250565b60006122f6601b83611d96565b9150612301826122c0565b602082019050919050565b60006020820190508181036000830152612325816122e9565b9050919050565b7f45524332303a2064656372656173656420616c6c6f77616e63652062656c6f7760008201527f207a65726f000000000000000000000000000000000000000000000000000000602082015250565b6000612388602583611d96565b91506123938261232c565b604082019050919050565b600060208201905081810360008301526123b78161237b565b9050919050565b7f455243343632363a207769746864726177206d6f7265207468616e206d617800600082015250565b60006123f4601f83611d96565b91506123ff826123be565b602082019050919050565b60006020820190508181036000830152612423816123e7565b9050919050565b7f455243343632363a2072656465656d206d6f7265207468616e206d6178000000600082015250565b6000612460601d83611d96565b915061246b8261242a565b602082019050919050565b6000602082019050818103600083015261248f81612453565b9050919050565b7f45524332303a20617070726f76652066726f6d20746865207a65726f2061646460008201527f7265737300000000000000000000000000000000000000000000000000000000602082015250565b60006124f2602483611d96565b91506124fd82612496565b604082019050919050565b60006020820190508181036000830152612521816124e5565b9050919050565b7f45524332303a20617070726f766520746f20746865207a65726f20616464726560008201527f7373000000000000000000000000000000000000000000000000000000000000602082015250565b6000612584602283611d96565b915061258f82612528565b604082019050919050565b600060208201905081810360008301526125b381612577565b9050919050565b7f45524332303a20696e73756666696369656e7420616c6c6f77616e6365000000600082015250565b60006125f0601d83611d96565b91506125fb826125ba565b602082019050919050565b6000602082019050818103600083015261261f816125e3565b9050919050565b7f45524332303a207472616e736665722066726f6d20746865207a65726f20616460008201527f6472657373000000000000000000000000000000000000000000000000000000602082015250565b6000612682602583611d96565b915061268d82612626565b604082019050919050565b600060208201905081810360008301526126b181612675565b9050919050565b7f45524332303a207472616e7366657220746f20746865207a65726f206164647260008201527f6573730000000000000000000000000000000000000000000000000000000000602082015250565b6000612714602383611d96565b915061271f826126b8565b604082019050919050565b6000602082019050818103600083015261274381612707565b9050919050565b7f45524332303a207472616e7366657220616d6f756e742065786365656473206260008201527f616c616e63650000000000000000000000000000000000000000000000000000602082015250565b60006127a6602683611d96565b91506127b18261274a565b604082019050919050565b600060208201905081810360008301526127d581612799565b9050919050565b7f45524332303a206d696e7420746f20746865207a65726f206164647265737300600082015250565b6000612812601f83611d96565b915061281d826127dc565b602082019050919050565b6000602082019050818103600083015261284181612805565b9050919050565b7f45524332303a206275726e2066726f6d20746865207a65726f2061646472657360008201527f7300000000000000000000000000000000000000000000000000000000000000602082015250565b60006128a4602183611d96565b91506128af82612848565b604082019050919050565b600060208201905081810360008301526128d381612897565b9050919050565b7f45524332303a206275726e20616d6f756e7420657863656564732062616c616e60008201527f6365000000000000000000000000000000000000000000000000000000000000602082015250565b6000612936602283611d96565b9150612941826128da565b604082019050919050565b6000602082019050818103600083015261296581612929565b9050919050565b60006040820190506129816000830185611d61565b61298e6020830184611d61565b9392505050565b7f4e487b7100000000000000000000000000000000000000000000000000000000600052602160045260246000fd5b7f4e487b7100000000000000000000000000000000000000000000000000000000600052601260045260246000fd5b6000606082019050612a086000830186612002565b612a156020830185612002565b612a226040830184611d61565b949350505050565b6000604082019050612a3f6000830185612002565b612a4c6020830184611d61565b9392505050565b612a5c81611f42565b8114612a6757600080fd5b50565b600081519050612a7981612a53565b92915050565b600060208284031215612a9557612a94611e46565b5b6000612aa384828501612a6a565b91505092915050565b7f5361666545524332303a204552433230206f7065726174696f6e20646964206e60008201527f6f74207375636365656400000000000000000000000000000000000000000000602082015250565b6000612b08602a83611d96565b9150612b1382612aac565b604082019050919050565b60006020820190508181036000830152612b3781612afb565b9050919050565b7f416464726573733a20696e73756666696369656e742062616c616e636520666f60008201527f722063616c6c0000000000000000000000000000000000000000000000000000602082015250565b6000612b9a602683611d96565b9150612ba582612b3e565b604082019050919050565b60006020820190508181036000830152612bc981612b8d565b9050919050565b600081519050919050565b600081905092915050565b6000612bf182612bd0565b612bfb8185612bdb565b9350612c0b818560208601611da7565b80840191505092915050565b6000612c238284612be6565b915081905092915050565b7f416464726573733a2063616c6c20746f206e6f6e2d636f6e7472616374000000600082015250565b6000612c64601d83611d96565b9150612c6f82612c2e565b602082019050919050565b60006020820190508181036000830152612c9381612c57565b905091905056fea26469706673582212206d518501b1c84a37e5405d8776ec370a3ae70ae451c590be461769dc498aca4f64736f6c63430008090033",
  "linkReferences": {},
  "deployedLinkReferences": {}
}