{
  "_format": "hh-sol-artifact-1",
  "contractName": "MyGovernor2",
  "sourceName": "contracts/openzeppelin/mocks/wizard/MyGovernor2.sol",
  "abi": [
    {
      "inputs": [
        {
          "internalType": "contract IVotes",
          "name": "_token",
          "type": "address"
        },
        {
          "internalType": "contract TimelockController",
          "name": "_timelock",
          "type": "address"
        }
      ],
      "stateMutability": "nonpayable",
      "type": "constructor"
    },
    {
      "inputs": [],
      "name": "Empty",
      "type": "error"
    },
    {
      "anonymous": false,
      "inputs": [
        {
          "indexed": false,
          "internalType": "uint256",
          "name": "proposalId",
          "type": "uint256"
        }
      ],
      "name": "ProposalCanceled",
      "type": "event"
    },
    {
      "anonymous": false,
      "inputs": [
        {
          "indexed": false,
          "internalType": "uint256",
          "name": "proposalId",
          "type": "uint256"
        },
        {
          "indexed": false,
          "internalType": "address",
          "name": "proposer",
          "type": "address"
        },
        {
          "indexed": false,
          "internalType": "address[]",
          "name": "targets",
          "type": "address[]"
        },
        {
          "indexed": false,
          "internalType": "uint256[]",
          "name": "values",
          "type": "uint256[]"
        },
        {
          "indexed": false,
          "internalType": "string[]",
          "name": "signatures",
          "type": "string[]"
        },
        {
          "indexed": false,
          "internalType": "bytes[]",
          "name": "calldatas",
          "type": "bytes[]"
        },
        {
          "indexed": false,
          "internalType": "uint256",
          "name": "startBlock",
          "type": "uint256"
        },
        {
          "indexed": false,
          "internalType": "uint256",
          "name": "endBlock",
          "type": "uint256"
        },
        {
          "indexed": false,
          "internalType": "string",
          "name": "description",
          "type": "string"
        }
      ],
      "name": "ProposalCreated",
      "type": "event"
    },
    {
      "anonymous": false,
      "inputs": [
        {
          "indexed": false,
          "internalType": "uint256",
          "name": "proposalId",
          "type": "uint256"
        }
      ],
      "name": "ProposalExecuted",
      "type": "event"
    },
    {
      "anonymous": false,
      "inputs": [
        {
          "indexed": false,
          "internalType": "uint256",
          "name": "proposalId",
          "type": "uint256"
        },
        {
          "indexed": false,
          "internalType": "uint256",
          "name": "eta",
          "type": "uint256"
        }
      ],
      "name": "ProposalQueued",
      "type": "event"
    },
    {
      "anonymous": false,
      "inputs": [
        {
          "indexed": false,
          "internalType": "uint256",
          "name": "oldQuorumNumerator",
          "type": "uint256"
        },
        {
          "indexed": false,
          "internalType": "uint256",
          "name": "newQuorumNumerator",
          "type": "uint256"
        }
      ],
      "name": "QuorumNumeratorUpdated",
      "type": "event"
    },
    {
      "anonymous": false,
      "inputs": [
        {
          "indexed": false,
          "internalType": "address",
          "name": "oldTimelock",
          "type": "address"
        },
        {
          "indexed": false,
          "internalType": "address",
          "name": "newTimelock",
          "type": "address"
        }
      ],
      "name": "TimelockChange",
      "type": "event"
    },
    {
      "anonymous": false,
      "inputs": [
        {
          "indexed": true,
          "internalType": "address",
          "name": "voter",
          "type": "address"
        },
        {
          "indexed": false,
          "internalType": "uint256",
          "name": "proposalId",
          "type": "uint256"
        },
        {
          "indexed": false,
          "internalType": "uint8",
          "name": "support",
          "type": "uint8"
        },
        {
          "indexed": false,
          "internalType": "uint256",
          "name": "weight",
          "type": "uint256"
        },
        {
          "indexed": false,
          "internalType": "string",
          "name": "reason",
          "type": "string"
        }
      ],
      "name": "VoteCast",
      "type": "event"
    },
    {
      "anonymous": false,
      "inputs": [
        {
          "indexed": true,
          "internalType": "address",
          "name": "voter",
          "type": "address"
        },
        {
          "indexed": false,
          "internalType": "uint256",
          "name": "proposalId",
          "type": "uint256"
        },
        {
          "indexed": false,
          "internalType": "uint8",
          "name": "support",
          "type": "uint8"
        },
        {
          "indexed": false,
          "internalType": "uint256",
          "name": "weight",
          "type": "uint256"
        },
        {
          "indexed": false,
          "internalType": "string",
          "name": "reason",
          "type": "string"
        },
        {
          "indexed": false,
          "internalType": "bytes",
          "name": "params",
          "type": "bytes"
        }
      ],
      "name": "VoteCastWithParams",
      "type": "event"
    },
    {
      "inputs": [],
      "name": "BALLOT_TYPEHASH",
      "outputs": [
        {
          "internalType": "bytes32",
          "name": "",
          "type": "bytes32"
        }
      ],
      "stateMutability": "view",
      "type": "function"
    },
    {
      "inputs": [],
      "name": "COUNTING_MODE",
      "outputs": [
        {
          "internalType": "string",
          "name": "",
          "type": "string"
        }
      ],
      "stateMutability": "pure",
      "type": "function"
    },
    {
      "inputs": [],
      "name": "EXTENDED_BALLOT_TYPEHASH",
      "outputs": [
        {
          "internalType": "bytes32",
          "name": "",
          "type": "bytes32"
        }
      ],
      "stateMutability": "view",
      "type": "function"
    },
    {
      "inputs": [
        {
          "internalType": "uint256",
          "name": "proposalId",
          "type": "uint256"
        },
        {
          "internalType": "uint8",
          "name": "support",
          "type": "uint8"
        }
      ],
      "name": "castVote",
      "outputs": [
        {
          "internalType": "uint256",
          "name": "",
          "type": "uint256"
        }
      ],
      "stateMutability": "nonpayable",
      "type": "function"
    },
    {
      "inputs": [
        {
          "internalType": "uint256",
          "name": "proposalId",
          "type": "uint256"
        },
        {
          "internalType": "uint8",
          "name": "support",
          "type": "uint8"
        },
        {
          "internalType": "uint8",
          "name": "v",
          "type": "uint8"
        },
        {
          "internalType": "bytes32",
          "name": "r",
          "type": "bytes32"
        },
        {
          "internalType": "bytes32",
          "name": "s",
          "type": "bytes32"
        }
      ],
      "name": "castVoteBySig",
      "outputs": [
        {
          "internalType": "uint256",
          "name": "",
          "type": "uint256"
        }
      ],
      "stateMutability": "nonpayable",
      "type": "function"
    },
    {
      "inputs": [
        {
          "internalType": "uint256",
          "name": "proposalId",
          "type": "uint256"
        },
        {
          "internalType": "uint8",
          "name": "support",
          "type": "uint8"
        },
        {
          "internalType": "string",
          "name": "reason",
          "type": "string"
        }
      ],
      "name": "castVoteWithReason",
      "outputs": [
        {
          "internalType": "uint256",
          "name": "",
          "type": "uint256"
        }
      ],
      "stateMutability": "nonpayable",
      "type": "function"
    },
    {
      "inputs": [
        {
          "internalType": "uint256",
          "name": "proposalId",
          "type": "uint256"
        },
        {
          "internalType": "uint8",
          "name": "support",
          "type": "uint8"
        },
        {
          "internalType": "string",
          "name": "reason",
          "type": "string"
        },
        {
          "internalType": "bytes",
          "name": "params",
          "type": "bytes"
        }
      ],
      "name": "castVoteWithReasonAndParams",
      "outputs": [
        {
          "internalType": "uint256",
          "name": "",
          "type": "uint256"
        }
      ],
      "stateMutability": "nonpayable",
      "type": "function"
    },
    {
      "inputs": [
        {
          "internalType": "uint256",
          "name": "proposalId",
          "type": "uint256"
        },
        {
          "internalType": "uint8",
          "name": "support",
          "type": "uint8"
        },
        {
          "internalType": "string",
          "name": "reason",
          "type": "string"
        },
        {
          "internalType": "bytes",
          "name": "params",
          "type": "bytes"
        },
        {
          "internalType": "uint8",
          "name": "v",
          "type": "uint8"
        },
        {
          "internalType": "bytes32",
          "name": "r",
          "type": "bytes32"
        },
        {
          "internalType": "bytes32",
          "name": "s",
          "type": "bytes32"
        }
      ],
      "name": "castVoteWithReasonAndParamsBySig",
      "outputs": [
        {
          "internalType": "uint256",
          "name": "",
          "type": "uint256"
        }
      ],
      "stateMutability": "nonpayable",
      "type": "function"
    },
    {
      "inputs": [
        {
          "internalType": "address[]",
          "name": "targets",
          "type": "address[]"
        },
        {
          "internalType": "uint256[]",
          "name": "values",
          "type": "uint256[]"
        },
        {
          "internalType": "bytes[]",
          "name": "calldatas",
          "type": "bytes[]"
        },
        {
          "internalType": "bytes32",
          "name": "descriptionHash",
          "type": "bytes32"
        }
      ],
      "name": "execute",
      "outputs": [
        {
          "internalType": "uint256",
          "name": "",
          "type": "uint256"
        }
      ],
      "stateMutability": "payable",
      "type": "function"
    },
    {
      "inputs": [
        {
          "internalType": "address",
          "name": "account",
          "type": "address"
        },
        {
          "internalType": "uint256",
          "name": "blockNumber",
          "type": "uint256"
        }
      ],
      "name": "getVotes",
      "outputs": [
        {
          "internalType": "uint256",
          "name": "",
          "type": "uint256"
        }
      ],
      "stateMutability": "view",
      "type": "function"
    },
    {
      "inputs": [
        {
          "internalType": "address",
          "name": "account",
          "type": "address"
        },
        {
          "internalType": "uint256",
          "name": "blockNumber",
          "type": "uint256"
        },
        {
          "internalType": "bytes",
          "name": "params",
          "type": "bytes"
        }
      ],
      "name": "getVotesWithParams",
      "outputs": [
        {
          "internalType": "uint256",
          "name": "",
          "type": "uint256"
        }
      ],
      "stateMutability": "view",
      "type": "function"
    },
    {
      "inputs": [
        {
          "internalType": "uint256",
          "name": "proposalId",
          "type": "uint256"
        },
        {
          "internalType": "address",
          "name": "account",
          "type": "address"
        }
      ],
      "name": "hasVoted",
      "outputs": [
        {
          "internalType": "bool",
          "name": "",
          "type": "bool"
        }
      ],
      "stateMutability": "view",
      "type": "function"
    },
    {
      "inputs": [
        {
          "internalType": "address[]",
          "name": "targets",
          "type": "address[]"
        },
        {
          "internalType": "uint256[]",
          "name": "values",
          "type": "uint256[]"
        },
        {
          "internalType": "bytes[]",
          "name": "calldatas",
          "type": "bytes[]"
        },
        {
          "internalType": "bytes32",
          "name": "descriptionHash",
          "type": "bytes32"
        }
      ],
      "name": "hashProposal",
      "outputs": [
        {
          "internalType": "uint256",
          "name": "",
          "type": "uint256"
        }
      ],
      "stateMutability": "pure",
      "type": "function"
    },
    {
      "inputs": [],
      "name": "name",
      "outputs": [
        {
          "internalType": "string",
          "name": "",
          "type": "string"
        }
      ],
      "stateMutability": "view",
      "type": "function"
    },
    {
      "inputs": [
        {
          "internalType": "address",
          "name": "",
          "type": "address"
        },
        {
          "internalType": "address",
          "name": "",
          "type": "address"
        },
        {
          "internalType": "uint256[]",
          "name": "",
          "type": "uint256[]"
        },
        {
          "internalType": "uint256[]",
          "name": "",
          "type": "uint256[]"
        },
        {
          "internalType": "bytes",
          "name": "",
          "type": "bytes"
        }
      ],
      "name": "onERC1155BatchReceived",
      "outputs": [
        {
          "internalType": "bytes4",
          "name": "",
          "type": "bytes4"
        }
      ],
      "stateMutability": "nonpayable",
      "type": "function"
    },
    {
      "inputs": [
        {
          "internalType": "address",
          "name": "",
          "type": "address"
        },
        {
          "internalType": "address",
          "name": "",
          "type": "address"
        },
        {
          "internalType": "uint256",
          "name": "",
          "type": "uint256"
        },
        {
          "internalType": "uint256",
          "name": "",
          "type": "uint256"
        },
        {
          "internalType": "bytes",
          "name": "",
          "type": "bytes"
        }
      ],
      "name": "onERC1155Received",
      "outputs": [
        {
          "internalType": "bytes4",
          "name": "",
          "type": "bytes4"
        }
      ],
      "stateMutability": "nonpayable",
      "type": "function"
    },
    {
      "inputs": [
        {
          "internalType": "address",
          "name": "",
          "type": "address"
        },
        {
          "internalType": "address",
          "name": "",
          "type": "address"
        },
        {
          "internalType": "uint256",
          "name": "",
          "type": "uint256"
        },
        {
          "internalType": "bytes",
          "name": "",
          "type": "bytes"
        }
      ],
      "name": "onERC721Received",
      "outputs": [
        {
          "internalType": "bytes4",
          "name": "",
          "type": "bytes4"
        }
      ],
      "stateMutability": "nonpayable",
      "type": "function"
    },
    {
      "inputs": [
        {
          "internalType": "uint256",
          "name": "proposalId",
          "type": "uint256"
        }
      ],
      "name": "proposalDeadline",
      "outputs": [
        {
          "internalType": "uint256",
          "name": "",
          "type": "uint256"
        }
      ],
      "stateMutability": "view",
      "type": "function"
    },
    {
      "inputs": [
        {
          "internalType": "uint256",
          "name": "proposalId",
          "type": "uint256"
        }
      ],
      "name": "proposalEta",
      "outputs": [
        {
          "internalType": "uint256",
          "name": "",
          "type": "uint256"
        }
      ],
      "stateMutability": "view",
      "type": "function"
    },
    {
      "inputs": [
        {
          "internalType": "uint256",
          "name": "proposalId",
          "type": "uint256"
        }
      ],
      "name": "proposalSnapshot",
      "outputs": [
        {
          "internalType": "uint256",
          "name": "",
          "type": "uint256"
        }
      ],
      "stateMutability": "view",
      "type": "function"
    },
    {
      "inputs": [],
      "name": "proposalThreshold",
      "outputs": [
        {
          "internalType": "uint256",
          "name": "",
          "type": "uint256"
        }
      ],
      "stateMutability": "pure",
      "type": "function"
    },
    {
      "inputs": [
        {
          "internalType": "uint256",
          "name": "proposalId",
          "type": "uint256"
        }
      ],
      "name": "proposalVotes",
      "outputs": [
        {
          "internalType": "uint256",
          "name": "againstVotes",
          "type": "uint256"
        },
        {
          "internalType": "uint256",
          "name": "forVotes",
          "type": "uint256"
        },
        {
          "internalType": "uint256",
          "name": "abstainVotes",
          "type": "uint256"
        }
      ],
      "stateMutability": "view",
      "type": "function"
    },
    {
      "inputs": [
        {
          "internalType": "address[]",
          "name": "targets",
          "type": "address[]"
        },
        {
          "internalType": "uint256[]",
          "name": "values",
          "type": "uint256[]"
        },
        {
          "internalType": "bytes[]",
          "name": "calldatas",
          "type": "bytes[]"
        },
        {
          "internalType": "string",
          "name": "description",
          "type": "string"
        }
      ],
      "name": "propose",
      "outputs": [
        {
          "internalType": "uint256",
          "name": "",
          "type": "uint256"
        }
      ],
      "stateMutability": "nonpayable",
      "type": "function"
    },
    {
      "inputs": [
        {
          "internalType": "address[]",
          "name": "targets",
          "type": "address[]"
        },
        {
          "internalType": "uint256[]",
          "name": "values",
          "type": "uint256[]"
        },
        {
          "internalType": "bytes[]",
          "name": "calldatas",
          "type": "bytes[]"
        },
        {
          "internalType": "bytes32",
          "name": "descriptionHash",
          "type": "bytes32"
        }
      ],
      "name": "queue",
      "outputs": [
        {
          "internalType": "uint256",
          "name": "",
          "type": "uint256"
        }
      ],
      "stateMutability": "nonpayable",
      "type": "function"
    },
    {
      "inputs": [
        {
          "internalType": "uint256",
          "name": "blockNumber",
          "type": "uint256"
        }
      ],
      "name": "quorum",
      "outputs": [
        {
          "internalType": "uint256",
          "name": "",
          "type": "uint256"
        }
      ],
      "stateMutability": "view",
      "type": "function"
    },
    {
      "inputs": [],
      "name": "quorumDenominator",
      "outputs": [
        {
          "internalType": "uint256",
          "name": "",
          "type": "uint256"
        }
      ],
      "stateMutability": "view",
      "type": "function"
    },
    {
      "inputs": [
        {
          "internalType": "uint256",
          "name": "blockNumber",
          "type": "uint256"
        }
      ],
      "name": "quorumNumerator",
      "outputs": [
        {
          "internalType": "uint256",
          "name": "",
          "type": "uint256"
        }
      ],
      "stateMutability": "view",
      "type": "function"
    },
    {
      "inputs": [],
      "name": "quorumNumerator",
      "outputs": [
        {
          "internalType": "uint256",
          "name": "",
          "type": "uint256"
        }
      ],
      "stateMutability": "view",
      "type": "function"
    },
    {
      "inputs": [
        {
          "internalType": "address",
          "name": "target",
          "type": "address"
        },
        {
          "internalType": "uint256",
          "name": "value",
          "type": "uint256"
        },
        {
          "internalType": "bytes",
          "name": "data",
          "type": "bytes"
        }
      ],
      "name": "relay",
      "outputs": [],
      "stateMutability": "payable",
      "type": "function"
    },
    {
      "inputs": [
        {
          "internalType": "uint256",
          "name": "proposalId",
          "type": "uint256"
        }
      ],
      "name": "state",
      "outputs": [
        {
          "internalType": "enum IGovernor.ProposalState",
          "name": "",
          "type": "uint8"
        }
      ],
      "stateMutability": "view",
      "type": "function"
    },
    {
      "inputs": [
        {
          "internalType": "bytes4",
          "name": "interfaceId",
          "type": "bytes4"
        }
      ],
      "name": "supportsInterface",
      "outputs": [
        {
          "internalType": "bool",
          "name": "",
          "type": "bool"
        }
      ],
      "stateMutability": "view",
      "type": "function"
    },
    {
      "inputs": [],
      "name": "timelock",
      "outputs": [
        {
          "internalType": "address",
          "name": "",
          "type": "address"
        }
      ],
      "stateMutability": "view",
      "type": "function"
    },
    {
      "inputs": [],
      "name": "token",
      "outputs": [
        {
          "internalType": "contract IVotes",
          "name": "",
          "type": "address"
        }
      ],
      "stateMutability": "view",
      "type": "function"
    },
    {
      "inputs": [
        {
          "internalType": "uint256",
          "name": "newQuorumNumerator",
          "type": "uint256"
        }
      ],
      "name": "updateQuorumNumerator",
      "outputs": [],
      "stateMutability": "nonpayable",
      "type": "function"
    },
    {
      "inputs": [
        {
          "internalType": "contract TimelockController",
          "name": "newTimelock",
          "type": "address"
        }
      ],
      "name": "updateTimelock",
      "outputs": [],
      "stateMutability": "nonpayable",
      "type": "function"
    },
    {
      "inputs": [],
      "name": "version",
      "outputs": [
        {
          "internalType": "string",
          "name": "",
          "type": "string"
        }
      ],
      "stateMutability": "view",
      "type": "function"
    },
    {
      "inputs": [],
      "name": "votingDelay",
      "outputs": [
        {
          "internalType": "uint256",
          "name": "",
          "type": "uint256"
        }
      ],
      "stateMutability": "pure",
      "type": "function"
    },
    {
      "inputs": [],
      "name": "votingPeriod",
      "outputs": [
        {
          "internalType": "uint256",
          "name": "",
          "type": "uint256"
        }
      ],
      "stateMutability": "pure",
      "type": "function"
    },
    {
      "stateMutability": "payable",
      "type": "receive"
    }
  ],
  "bytecode": "0x6101606040523480156200001257600080fd5b506040516200763438038062007634833981810160405281019062000038919062000c11565b600482826040518060400160405280600a81526020017f4d79476f7665726e6f72000000000000000000000000000000000000000000008152508062000083620001b160201b60201c565b60008280519060200120905060008280519060200120905060007f8b73c3c69bb8fe3d512ecc4cf759cc79239f7b179b0ffacaa9a75d522b39400f90508260e081815250508161010081815250504660a08181525050620000ec818484620001ee60201b60201c565b608081815250503073ffffffffffffffffffffffffffffffffffffffff1660c08173ffffffffffffffffffffffffffffffffffffffff1681525050806101208181525050505050505080600090805190602001906200014d92919062000a8a565b505062000160816200022a60201b60201c565b508073ffffffffffffffffffffffffffffffffffffffff166101408173ffffffffffffffffffffffffffffffffffffffff168152505050620001a881620002cb60201b60201c565b50505062001096565b60606040518060400160405280600181526020017f3100000000000000000000000000000000000000000000000000000000000000815250905090565b600083838346306040516020016200020b95949392919062000c9f565b6040516020818303038152906040528051906020012090509392505050565b7f08f74ea46ef7894f65eabfb5e6e695de773a000b47c529ab559178069b226401600460009054906101000a900473ffffffffffffffffffffffffffffffffffffffff16826040516200027f92919062000cfc565b60405180910390a180600460006101000a81548173ffffffffffffffffffffffffffffffffffffffff021916908373ffffffffffffffffffffffffffffffffffffffff16021790555050565b620002db620004aa60201b60201c565b81111562000320576040517f08c379a0000000000000000000000000000000000000000000000000000000008152600401620003179062000dd6565b60405180910390fd5b600062000332620004b360201b60201c565b9050600081141580156200034e57506000600760000180549050145b156200044e5760076000016040518060400160405280600063ffffffff16815260200162000387846200050960201b62001b3a1760201c565b7bffffffffffffffffffffffffffffffffffffffffffffffffffffffff168152509080600181540180825580915050600190039060005260206000200160009091909190915060008201518160000160006101000a81548163ffffffff021916908363ffffffff16021790555060208201518160000160046101000a8154817bffffffffffffffffffffffffffffffffffffffffffffffffffffffff02191690837bffffffffffffffffffffffffffffffffffffffffffffffffffffffff16021790555050505b620004698260076200057760201b62001ba51790919060201c565b50507f0553476bf02ef2726e8ce5ced78d63e26e602e4a2257b1f559418e24b463399781836040516200049e92919062000df8565b60405180910390a15050565b60006064905090565b600080600760000180549050146200050057620004dc60076200060760201b62001c131760201c565b7bffffffffffffffffffffffffffffffffffffffffffffffffffffffff1662000504565b6006545b905090565b60007bffffffffffffffffffffffffffffffffffffffffffffffffffffffff80168211156200056f576040517f08c379a0000000000000000000000000000000000000000000000000000000008152600401620005669062000e9b565b60405180910390fd5b819050919050565b600080620005ba8460000162000598436200067d60201b62001c7d1760201c565b620005ae866200050960201b62001b3a1760201c565b620006d360201b60201c565b817bffffffffffffffffffffffffffffffffffffffffffffffffffffffff169150807bffffffffffffffffffffffffffffffffffffffffffffffffffffffff169050915091509250929050565b60008082600001805490509050600081146200067257620006408360000160018362000634919062000eec565b62000a7560201b60201c565b60000160049054906101000a90047bffffffffffffffffffffffffffffffffffffffffffffffffffffffff1662000675565b60005b915050919050565b600063ffffffff8016821115620006cb576040517f08c379a0000000000000000000000000000000000000000000000000000000008152600401620006c29062000f9d565b60405180910390fd5b819050919050565b6000806000858054905090506000811115620009855760006200070b87600184620006ff919062000eec565b62000a7560201b60201c565b6040518060400160405290816000820160009054906101000a900463ffffffff1663ffffffff1663ffffffff1681526020016000820160049054906101000a90047bffffffffffffffffffffffffffffffffffffffffffffffffffffffff167bffffffffffffffffffffffffffffffffffffffffffffffffffffffff167bffffffffffffffffffffffffffffffffffffffffffffffffffffffff168152505090508563ffffffff16816000015163ffffffff16111562000802576040517f08c379a0000000000000000000000000000000000000000000000000000000008152600401620007f9906200100f565b60405180910390fd5b8563ffffffff16816000015163ffffffff1614156200089357846200083c8860018562000830919062000eec565b62000a7560201b60201c565b60000160046101000a8154817bffffffffffffffffffffffffffffffffffffffffffffffffffffffff02191690837bffffffffffffffffffffffffffffffffffffffffffffffffffffffff16021790555062000973565b8660405180604001604052808863ffffffff168152602001877bffffffffffffffffffffffffffffffffffffffffffffffffffffffff168152509080600181540180825580915050600190039060005260206000200160009091909190915060008201518160000160006101000a81548163ffffffff021916908363ffffffff16021790555060208201518160000160046101000a8154817bffffffffffffffffffffffffffffffffffffffffffffffffffffffff02191690837bffffffffffffffffffffffffffffffffffffffffffffffffffffffff16021790555050505b80602001518593509350505062000a6d565b8560405180604001604052808763ffffffff168152602001867bffffffffffffffffffffffffffffffffffffffffffffffffffffffff168152509080600181540180825580915050600190039060005260206000200160009091909190915060008201518160000160006101000a81548163ffffffff021916908363ffffffff16021790555060208201518160000160046101000a8154817bffffffffffffffffffffffffffffffffffffffffffffffffffffffff02191690837bffffffffffffffffffffffffffffffffffffffffffffffffffffffff160217905550505060008492509250505b935093915050565b60008260005281602060002001905092915050565b82805462000a989062001060565b90600052602060002090601f01602090048101928262000abc576000855562000b08565b82601f1062000ad757805160ff191683800117855562000b08565b8280016001018555821562000b08579182015b8281111562000b0757825182559160200191906001019062000aea565b5b50905062000b17919062000b1b565b5090565b5b8082111562000b3657600081600090555060010162000b1c565b5090565b600080fd5b600073ffffffffffffffffffffffffffffffffffffffff82169050919050565b600062000b6c8262000b3f565b9050919050565b600062000b808262000b5f565b9050919050565b62000b928162000b73565b811462000b9e57600080fd5b50565b60008151905062000bb28162000b87565b92915050565b600062000bc58262000b3f565b9050919050565b600062000bd98262000bb8565b9050919050565b62000beb8162000bcc565b811462000bf757600080fd5b50565b60008151905062000c0b8162000be0565b92915050565b6000806040838503121562000c2b5762000c2a62000b3a565b5b600062000c3b8582860162000ba1565b925050602062000c4e8582860162000bfa565b9150509250929050565b6000819050919050565b62000c6d8162000c58565b82525050565b6000819050919050565b62000c888162000c73565b82525050565b62000c998162000b5f565b82525050565b600060a08201905062000cb6600083018862000c62565b62000cc5602083018762000c62565b62000cd4604083018662000c62565b62000ce3606083018562000c7d565b62000cf2608083018462000c8e565b9695505050505050565b600060408201905062000d13600083018562000c8e565b62000d22602083018462000c8e565b9392505050565b600082825260208201905092915050565b7f476f7665726e6f72566f74657351756f72756d4672616374696f6e3a2071756f60008201527f72756d4e756d657261746f72206f7665722071756f72756d44656e6f6d696e6160208201527f746f720000000000000000000000000000000000000000000000000000000000604082015250565b600062000dbe60438362000d29565b915062000dcb8262000d3a565b606082019050919050565b6000602082019050818103600083015262000df18162000daf565b9050919050565b600060408201905062000e0f600083018562000c7d565b62000e1e602083018462000c7d565b9392505050565b7f53616665436173743a2076616c756520646f65736e27742066697420696e203260008201527f3234206269747300000000000000000000000000000000000000000000000000602082015250565b600062000e8360278362000d29565b915062000e908262000e25565b604082019050919050565b6000602082019050818103600083015262000eb68162000e74565b9050919050565b7f4e487b7100000000000000000000000000000000000000000000000000000000600052601160045260246000fd5b600062000ef98262000c73565b915062000f068362000c73565b92508282101562000f1c5762000f1b62000ebd565b5b828203905092915050565b7f53616665436173743a2076616c756520646f65736e27742066697420696e203360008201527f3220626974730000000000000000000000000000000000000000000000000000602082015250565b600062000f8560268362000d29565b915062000f928262000f27565b604082019050919050565b6000602082019050818103600083015262000fb88162000f76565b9050919050565b7f436865636b706f696e743a20696e76616c6964206b6579000000000000000000600082015250565b600062000ff760178362000d29565b9150620010048262000fbf565b602082019050919050565b600060208201905081810360008301526200102a8162000fe8565b9050919050565b7f4e487b7100000000000000000000000000000000000000000000000000000000600052602260045260246000fd5b600060028204905060018216806200107957607f821691505b6020821081141562001090576200108f62001031565b5b50919050565b60805160a05160c05160e051610100516101205161014051616535620010ff60003960008181611b1801528181612699015261283801526000612ea901526000612eeb01526000612eca01526000612dff01526000612e5501526000612e7e01526165356000f3fe6080604052600436106102295760003560e01c80637b3c71d311610123578063c01f9e37116100ab578063deaaa7cc1161006f578063deaaa7cc14610949578063eb9019d414610974578063f23a6e61146109b1578063f8ce560a146109ee578063fc0c546a14610a2b5761026f565b8063c01f9e371461085d578063c28bc2fa1461089a578063c59057e4146108b6578063d33219b4146108f3578063dd4e2ba51461091e5761026f565b8063a7713a70116100f2578063a7713a7014610764578063a890c9101461078f578063ab58fb8e146107b8578063b58131b0146107f5578063bc197c81146108205761026f565b80637b3c71d3146106825780637d5e81e2146106bf57806397c3d334146106fc5780639a802a6d146107275761026f565b80632fe3e261116101b1578063544ffc9c11610175578063544ffc9c1461056157806354fd4d50146105a057806356781388146105cb5780635f398a141461060857806360c4247f146106455761026f565b80632fe3e261146104545780633932abb11461047f5780633bccf4fd146104aa5780633e4f49e6146104e757806343859632146105245761026f565b806306fdde03116101f857806306fdde0314610342578063150b7a021461036d578063160cbed7146103aa5780632656227d146103e75780632d63f693146104175761026f565b806301ffc9a71461027457806302a251a3146102b157806303420181146102dc57806306f3f9e6146103195761026f565b3661026f573073ffffffffffffffffffffffffffffffffffffffff1661024d610a56565b73ffffffffffffffffffffffffffffffffffffffff161461026d57600080fd5b005b600080fd5b34801561028057600080fd5b5061029b60048036038101906102969190613c97565b610a65565b6040516102a89190613cdf565b60405180910390f35b3480156102bd57600080fd5b506102c6610a77565b6040516102d39190613d13565b60405180910390f35b3480156102e857600080fd5b5061030360048036038101906102fe9190613f6f565b610a81565b6040516103109190613d13565b60405180910390f35b34801561032557600080fd5b50610340600480360381019061033b919061404d565b610b66565b005b34801561034e57600080fd5b50610357610c62565b6040516103649190614102565b60405180910390f35b34801561037957600080fd5b50610394600480360381019061038f9190614182565b610cf4565b6040516103a19190614214565b60405180910390f35b3480156103b657600080fd5b506103d160048036038101906103cc9190614496565b610d08565b6040516103de9190613d13565b60405180910390f35b61040160048036038101906103fc9190614496565b610fe0565b60405161040e9190613d13565b60405180910390f35b34801561042357600080fd5b5061043e6004803603810190610439919061404d565b61112d565b60405161044b9190613d13565b60405180910390f35b34801561046057600080fd5b5061046961119b565b6040516104769190614560565b60405180910390f35b34801561048b57600080fd5b506104946111bf565b6040516104a19190613d13565b60405180910390f35b3480156104b657600080fd5b506104d160048036038101906104cc919061457b565b6111c8565b6040516104de9190613d13565b60405180910390f35b3480156104f357600080fd5b5061050e6004803603810190610509919061404d565b611252565b60405161051b919061466d565b60405180910390f35b34801561053057600080fd5b5061054b60048036038101906105469190614688565b611264565b6040516105589190613cdf565b60405180910390f35b34801561056d57600080fd5b506105886004803603810190610583919061404d565b6112cf565b604051610597939291906146c8565b60405180910390f35b3480156105ac57600080fd5b506105b5611307565b6040516105c29190614102565b60405180910390f35b3480156105d757600080fd5b506105f260048036038101906105ed91906146ff565b611344565b6040516105ff9190613d13565b60405180910390f35b34801561061457600080fd5b5061062f600480360381019061062a919061473f565b611375565b60405161063c9190613d13565b60405180910390f35b34801561065157600080fd5b5061066c6004803603810190610667919061404d565b6113df565b6040516106799190613d13565b60405180910390f35b34801561068e57600080fd5b506106a960048036038101906106a491906147e3565b61152c565b6040516106b69190613d13565b60405180910390f35b3480156106cb57600080fd5b506106e660048036038101906106e191906148f8565b611594565b6040516106f39190613d13565b60405180910390f35b34801561070857600080fd5b506107116115ac565b60405161071e9190613d13565b60405180910390f35b34801561073357600080fd5b5061074e600480360381019061074991906149cf565b6115b5565b60405161075b9190613d13565b60405180910390f35b34801561077057600080fd5b506107796115cb565b6040516107869190613d13565b60405180910390f35b34801561079b57600080fd5b506107b660048036038101906107b19190614a8e565b611612565b005b3480156107c457600080fd5b506107df60048036038101906107da919061404d565b61170e565b6040516107ec9190613d13565b60405180910390f35b34801561080157600080fd5b5061080a6117ea565b6040516108179190613d13565b60405180910390f35b34801561082c57600080fd5b5061084760048036038101906108429190614abb565b6117fb565b6040516108549190614214565b60405180910390f35b34801561086957600080fd5b50610884600480360381019061087f919061404d565b611810565b6040516108919190613d13565b60405180910390f35b6108b460048036038101906108af9190614be0565b61187e565b005b3480156108c257600080fd5b506108dd60048036038101906108d89190614496565b611a0c565b6040516108ea9190613d13565b60405180910390f35b3480156108ff57600080fd5b50610908611a48565b6040516109159190614c63565b60405180910390f35b34801561092a57600080fd5b50610933611a72565b6040516109409190614102565b60405180910390f35b34801561095557600080fd5b5061095e611aaf565b60405161096b9190614560565b60405180910390f35b34801561098057600080fd5b5061099b60048036038101906109969190614c7e565b611ad3565b6040516109a89190613d13565b60405180910390f35b3480156109bd57600080fd5b506109d860048036038101906109d39190614cbe565b611aef565b6040516109e59190614214565b60405180910390f35b3480156109fa57600080fd5b50610a156004803603810190610a10919061404d565b611b04565b604051610a229190613d13565b60405180910390f35b348015610a3757600080fd5b50610a40611b16565b604051610a4d9190614db4565b60405180910390f35b6000610a60611cd0565b905090565b6000610a7082611cfa565b9050919050565b600061b2fa905090565b600080610b04610afc7fb3b3f3b703cd84ce352197dcff232b1b5d3cfb2025ce47cf04742d0651f1af888c8c8c8c604051610abd929190614dff565b60405180910390208b80519060200120604051602001610ae1959493929190614e27565b60405160208183030381529060405280519060200120611d74565b868686611d8e565b9050610b578a828b8b8b8080601f016020809104026020016040519081016040528093929190818152602001838380828437600081840152601f19601f820116905080830192505050505050508a611db9565b91505098975050505050505050565b610b6e610a56565b73ffffffffffffffffffffffffffffffffffffffff16610b8c611f76565b73ffffffffffffffffffffffffffffffffffffffff1614610be2576040517f08c379a0000000000000000000000000000000000000000000000000000000008152600401610bd990614ec6565b60405180910390fd5b3073ffffffffffffffffffffffffffffffffffffffff16610c01610a56565b73ffffffffffffffffffffffffffffffffffffffff1614610c56576000610c26611f7e565b604051610c34929190614dff565b604051809103902090505b80610c4a6002611f8b565b14610c5457610c3f565b505b610c5f81612067565b50565b606060008054610c7190614f15565b80601f0160208091040260200160405190810160405280929190818152602001828054610c9d90614f15565b8015610cea5780601f10610cbf57610100808354040283529160200191610cea565b820191906000526020600020905b815481529060010190602001808311610ccd57829003601f168201915b5050505050905090565b600063150b7a0260e01b9050949350505050565b600080610d1786868686611a0c565b905060046007811115610d2d57610d2c6145f6565b5b610d3682611252565b6007811115610d4857610d476145f6565b5b14610d88576040517f08c379a0000000000000000000000000000000000000000000000000000000008152600401610d7f90614fb9565b60405180910390fd5b6000600460009054906101000a900473ffffffffffffffffffffffffffffffffffffffff1673ffffffffffffffffffffffffffffffffffffffff1663f27a0c926040518163ffffffff1660e01b815260040160206040518083038186803b158015610df257600080fd5b505afa158015610e06573d6000803e3d6000fd5b505050506040513d601f19601f82011682018060405250810190610e2a9190614fee565b9050600460009054906101000a900473ffffffffffffffffffffffffffffffffffffffff1673ffffffffffffffffffffffffffffffffffffffff1663b1c5f4278888886000896040518663ffffffff1660e01b8152600401610e909594939291906152f6565b60206040518083038186803b158015610ea857600080fd5b505afa158015610ebc573d6000803e3d6000fd5b505050506040513d601f19601f82011682018060405250810190610ee09190615373565b6005600084815260200190815260200160002081905550600460009054906101000a900473ffffffffffffffffffffffffffffffffffffffff1673ffffffffffffffffffffffffffffffffffffffff16638f2a0bb0888888600089876040518763ffffffff1660e01b8152600401610f5d969594939291906153a0565b600060405180830381600087803b158015610f7757600080fd5b505af1158015610f8b573d6000803e3d6000fd5b505050507f9a2e42fd6722813d69113e7d0079d3d940171428df7373df9c7f7617cfda2892828242610fbd9190615445565b604051610fcb92919061549b565b60405180910390a18192505050949350505050565b600080610fef86868686611a0c565b90506000610ffc82611252565b905060046007811115611012576110116145f6565b5b816007811115611025576110246145f6565b5b14806110555750600560078111156110405761103f6145f6565b5b816007811115611053576110526145f6565b5b145b611094576040517f08c379a000000000000000000000000000000000000000000000000000000000815260040161108b90614fb9565b60405180910390fd5b600180600084815260200190815260200160002060020160006101000a81548160ff0219169083151502179055507f712ae1383f79ac853f8d882153778e0260ef8f03b504e2866e0593e04d2b291f826040516110f19190613d13565b60405180910390a1611106828888888861221b565b61111382888888886122ff565b6111208288888888612313565b8192505050949350505050565b600061118a600160008481526020019081526020016000206000016040518060200160405290816000820160009054906101000a900467ffffffffffffffff1667ffffffffffffffff1667ffffffffffffffff168152505061236e565b67ffffffffffffffff169050919050565b7fb3b3f3b703cd84ce352197dcff232b1b5d3cfb2025ce47cf04742d0651f1af8881565b60006001905090565b6000806112296112217f150214d74d59b7d1e90c73fc22ef3d991dd0a76b046543d4d80ab92d2a50328f8989604051602001611206939291906154c4565b60405160208183030381529060405280519060200120611d74565b868686611d8e565b90506112468782886040518060200160405280600081525061237c565b91505095945050505050565b600061125d8261239c565b9050919050565b60006008600084815260200190815260200160002060030160008373ffffffffffffffffffffffffffffffffffffffff1673ffffffffffffffffffffffffffffffffffffffff16815260200190815260200160002060009054906101000a900460ff16905092915050565b600080600080600860008681526020019081526020016000209050806000015481600101548260020154935093509350509193909250565b60606040518060400160405280600181526020017f3100000000000000000000000000000000000000000000000000000000000000815250905090565b60008061134f611f76565b905061136c8482856040518060200160405280600081525061237c565b91505092915050565b600080611380611f76565b90506113d387828888888080601f016020809104026020016040519081016040528093929190818152602001838380828437600081840152601f19601f8201169050808301925050505050505087611db9565b91505095945050505050565b6000806007600001805490509050600081141561140157600654915050611527565b6000600760000160018361141591906154fb565b815481106114265761142561552f565b5b906000526020600020016040518060400160405290816000820160009054906101000a900463ffffffff1663ffffffff1663ffffffff1681526020016000820160049054906101000a90047bffffffffffffffffffffffffffffffffffffffffffffffffffffffff167bffffffffffffffffffffffffffffffffffffffffffffffffffffffff167bffffffffffffffffffffffffffffffffffffffffffffffffffffffff1681525050905083816000015163ffffffff161161150e5780602001517bffffffffffffffffffffffffffffffffffffffffffffffffffffffff1692505050611527565b61152284600761258e90919063ffffffff16565b925050505b919050565b600080611537611f76565b905061158986828787878080601f016020809104026020016040519081016040528093929190818152602001838380828437600081840152601f19601f8201169050808301925050505050505061237c565b915050949350505050565b60006115a28585858561267d565b9050949350505050565b60006064905090565b60006115c2848484612695565b90509392505050565b60008060076000018054905014611609576115e66007611c13565b7bffffffffffffffffffffffffffffffffffffffffffffffffffffffff1661160d565b6006545b905090565b61161a610a56565b73ffffffffffffffffffffffffffffffffffffffff16611638611f76565b73ffffffffffffffffffffffffffffffffffffffff161461168e576040517f08c379a000000000000000000000000000000000000000000000000000000000815260040161168590614ec6565b60405180910390fd5b3073ffffffffffffffffffffffffffffffffffffffff166116ad610a56565b73ffffffffffffffffffffffffffffffffffffffff16146117025760006116d2611f7e565b6040516116e0929190614dff565b604051809103902090505b806116f66002611f8b565b14611700576116eb565b505b61170b8161274b565b50565b600080600460009054906101000a900473ffffffffffffffffffffffffffffffffffffffff1673ffffffffffffffffffffffffffffffffffffffff1663d45c443560056000868152602001908152602001600020546040518263ffffffff1660e01b815260040161177f9190614560565b60206040518083038186803b15801561179757600080fd5b505afa1580156117ab573d6000803e3d6000fd5b505050506040513d601f19601f820116820180604052508101906117cf9190614fee565b9050600181146117df57806117e2565b60005b915050919050565b6000683635c9adc5dea00000905090565b600063bc197c8160e01b905095945050505050565b600061186d600160008481526020019081526020016000206001016040518060200160405290816000820160009054906101000a900467ffffffffffffffff1667ffffffffffffffff1667ffffffffffffffff168152505061236e565b67ffffffffffffffff169050919050565b611886610a56565b73ffffffffffffffffffffffffffffffffffffffff166118a4611f76565b73ffffffffffffffffffffffffffffffffffffffff16146118fa576040517f08c379a00000000000000000000000000000000000000000000000000000000081526004016118f190614ec6565b60405180910390fd5b3073ffffffffffffffffffffffffffffffffffffffff16611919610a56565b73ffffffffffffffffffffffffffffffffffffffff161461196e57600061193e611f7e565b60405161194c929190614dff565b604051809103902090505b806119626002611f8b565b1461196c57611957565b505b6000808573ffffffffffffffffffffffffffffffffffffffff16858585604051611999929190614dff565b60006040518083038185875af1925050503d80600081146119d6576040519150601f19603f3d011682016040523d82523d6000602084013e6119db565b606091505b5091509150611a0382826040518060600160405280602881526020016164d8602891396127ea565b50505050505050565b600084848484604051602001611a25949392919061555e565b6040516020818303038152906040528051906020012060001c9050949350505050565b6000600460009054906101000a900473ffffffffffffffffffffffffffffffffffffffff16905090565b60606040518060400160405280602081526020017f737570706f72743d627261766f2671756f72756d3d666f722c6162737461696e815250905090565b7f150214d74d59b7d1e90c73fc22ef3d991dd0a76b046543d4d80ab92d2a50328f81565b6000611ae78383611ae261280c565b612695565b905092915050565b600063f23a6e6160e01b905095945050505050565b6000611b0f82612823565b9050919050565b7f000000000000000000000000000000000000000000000000000000000000000081565b60007bffffffffffffffffffffffffffffffffffffffffffffffffffffffff8016821115611b9d576040517f08c379a0000000000000000000000000000000000000000000000000000000008152600401611b949061562a565b60405180910390fd5b819050919050565b600080611bc684600001611bb843611c7d565b611bc186611b3a565b6128fa565b817bffffffffffffffffffffffffffffffffffffffffffffffffffffffff169150807bffffffffffffffffffffffffffffffffffffffffffffffffffffffff169050915091509250929050565b6000808260000180549050905060008114611c7257611c4183600001600183611c3c91906154fb565b612c81565b60000160049054906101000a90047bffffffffffffffffffffffffffffffffffffffffffffffffffffffff16611c75565b60005b915050919050565b600063ffffffff8016821115611cc8576040517f08c379a0000000000000000000000000000000000000000000000000000000008152600401611cbf906156bc565b60405180910390fd5b819050919050565b6000600460009054906101000a900473ffffffffffffffffffffffffffffffffffffffff16905090565b60007f6e665ced000000000000000000000000000000000000000000000000000000007bffffffffffffffffffffffffffffffffffffffffffffffffffffffff1916827bffffffffffffffffffffffffffffffffffffffffffffffffffffffff19161480611d6d5750611d6c82612c96565b5b9050919050565b6000611d87611d81612dfb565b83612f15565b9050919050565b6000806000611d9f87878787612f48565b91509150611dac8161302b565b8192505050949350505050565b60008060016000888152602001908152602001600020905060016007811115611de557611de46145f6565b5b611dee88611252565b6007811115611e0057611dff6145f6565b5b14611e40576040517f08c379a0000000000000000000000000000000000000000000000000000000008152600401611e379061574e565b60405180910390fd5b6000611e9f87611e8f846000016040518060200160405290816000820160009054906101000a900467ffffffffffffffff1667ffffffffffffffff1667ffffffffffffffff168152505061236e565b67ffffffffffffffff1686612695565b9050611eae8888888488613199565b600084511415611f11578673ffffffffffffffffffffffffffffffffffffffff167fb8e138887d0aa13bab447e82de9d5c1777041ecd21ca36ba824ff1e6c07ddda489888489604051611f04949392919061576e565b60405180910390a2611f68565b8673ffffffffffffffffffffffffffffffffffffffff167fe2babfbac5889a709b63bb7f598b324e08bc5a4fb9ec647fb3cbc9ec07eb87128988848989604051611f5f959493929190615804565b60405180910390a25b809250505095945050505050565b600033905090565b3660008036915091509091565b6000611f96826133a0565b15611fcd576040517f3db2a12a00000000000000000000000000000000000000000000000000000000815260040160405180910390fd5b60008260000160009054906101000a9004600f0b905082600101600082600f0b600f0b815260200190815260200160002054915082600101600082600f0b600f0b815260200190815260200160002060009055600181018360000160006101000a8154816fffffffffffffffffffffffffffffffff0219169083600f0b6fffffffffffffffffffffffffffffffff16021790555050919050565b61206f6115ac565b8111156120b1576040517f08c379a00000000000000000000000000000000000000000000000000000000081526004016120a8906158fd565b60405180910390fd5b60006120bb6115cb565b9050600081141580156120d657506000600760000180549050145b156121c85760076000016040518060400160405280600063ffffffff16815260200161210184611b3a565b7bffffffffffffffffffffffffffffffffffffffffffffffffffffffff168152509080600181540180825580915050600190039060005260206000200160009091909190915060008201518160000160006101000a81548163ffffffff021916908363ffffffff16021790555060208201518160000160046101000a8154817bffffffffffffffffffffffffffffffffffffffffffffffffffffffff02191690837bffffffffffffffffffffffffffffffffffffffffffffffffffffffff16021790555050505b6121dc826007611ba590919063ffffffff16565b50507f0553476bf02ef2726e8ce5ced78d63e26e602e4a2257b1f559418e24b4633997818360405161220f92919061549b565b60405180910390a15050565b3073ffffffffffffffffffffffffffffffffffffffff1661223a610a56565b73ffffffffffffffffffffffffffffffffffffffff16146122f85760005b84518110156122f6573073ffffffffffffffffffffffffffffffffffffffff1685828151811061228b5761228a61552f565b5b602002602001015173ffffffffffffffffffffffffffffffffffffffff1614156122e5576122e48382815181106122c5576122c461552f565b5b60200260200101518051906020012060026133d590919063ffffffff16565b5b806122ef9061591d565b9050612258565b505b5050505050565b61230c8585858585613451565b5050505050565b3073ffffffffffffffffffffffffffffffffffffffff16612332610a56565b73ffffffffffffffffffffffffffffffffffffffff16146123675761235760026133a0565b6123665761236560026134ef565b5b5b5050505050565b600081600001519050919050565b60006123928585858561238d61280c565b611db9565b9050949350505050565b6000806123a883613570565b9050600460078111156123be576123bd6145f6565b5b8160078111156123d1576123d06145f6565b5b146123df5780915050612589565b6000600560008581526020019081526020016000205490506000801b81141561240c578192505050612589565b600460009054906101000a900473ffffffffffffffffffffffffffffffffffffffff1673ffffffffffffffffffffffffffffffffffffffff16632ab0f529826040518263ffffffff1660e01b81526004016124679190614560565b60206040518083038186803b15801561247f57600080fd5b505afa158015612493573d6000803e3d6000fd5b505050506040513d601f19601f820116820180604052508101906124b79190615992565b156124c757600792505050612589565b600460009054906101000a900473ffffffffffffffffffffffffffffffffffffffff1673ffffffffffffffffffffffffffffffffffffffff1663584b153e826040518263ffffffff1660e01b81526004016125229190614560565b60206040518083038186803b15801561253a57600080fd5b505afa15801561254e573d6000803e3d6000fd5b505050506040513d601f19601f820116820180604052508101906125729190615992565b1561258257600592505050612589565b6002925050505b919050565b60004382106125d2576040517f08c379a00000000000000000000000000000000000000000000000000000000081526004016125c990615a0b565b60405180910390fd5b60006125dd83611c7d565b905060008460000180549050905060006125fd8660000184600085613685565b905060008114612651576126208660000160018361261b91906154fb565b612c81565b60000160049054906101000a90047bffffffffffffffffffffffffffffffffffffffffffffffffffffffff16612654565b60005b7bffffffffffffffffffffffffffffffffffffffffffffffffffffffff16935050505092915050565b600061268b858585856136f8565b9050949350505050565b60007f000000000000000000000000000000000000000000000000000000000000000073ffffffffffffffffffffffffffffffffffffffff16633a46b1a885856040518363ffffffff1660e01b81526004016126f2929190615a2b565b60206040518083038186803b15801561270a57600080fd5b505afa15801561271e573d6000803e3d6000fd5b505050506040513d601f19601f820116820180604052508101906127429190614fee565b90509392505050565b7f08f74ea46ef7894f65eabfb5e6e695de773a000b47c529ab559178069b226401600460009054906101000a900473ffffffffffffffffffffffffffffffffffffffff168260405161279e929190615a54565b60405180910390a180600460006101000a81548173ffffffffffffffffffffffffffffffffffffffff021916908373ffffffffffffffffffffffffffffffffffffffff16021790555050565b606083156127fa57829050612805565b61280483836139ff565b5b9392505050565b606060405180602001604052806000815250905090565b600061282d6115ac565b612836836113df565b7f000000000000000000000000000000000000000000000000000000000000000073ffffffffffffffffffffffffffffffffffffffff16638e539e8c856040518263ffffffff1660e01b815260040161288f9190613d13565b60206040518083038186803b1580156128a757600080fd5b505afa1580156128bb573d6000803e3d6000fd5b505050506040513d601f19601f820116820180604052508101906128df9190614fee565b6128e99190615a7d565b6128f39190615b06565b9050919050565b6000806000858054905090506000811115612b915760006129278760018461292291906154fb565b612c81565b6040518060400160405290816000820160009054906101000a900463ffffffff1663ffffffff1663ffffffff1681526020016000820160049054906101000a90047bffffffffffffffffffffffffffffffffffffffffffffffffffffffff167bffffffffffffffffffffffffffffffffffffffffffffffffffffffff167bffffffffffffffffffffffffffffffffffffffffffffffffffffffff168152505090508563ffffffff16816000015163ffffffff161115612a1b576040517f08c379a0000000000000000000000000000000000000000000000000000000008152600401612a1290615b83565b60405180910390fd5b8563ffffffff16816000015163ffffffff161415612aa05784612a4a88600185612a4591906154fb565b612c81565b60000160046101000a8154817bffffffffffffffffffffffffffffffffffffffffffffffffffffffff02191690837bffffffffffffffffffffffffffffffffffffffffffffffffffffffff160217905550612b80565b8660405180604001604052808863ffffffff168152602001877bffffffffffffffffffffffffffffffffffffffffffffffffffffffff168152509080600181540180825580915050600190039060005260206000200160009091909190915060008201518160000160006101000a81548163ffffffff021916908363ffffffff16021790555060208201518160000160046101000a8154817bffffffffffffffffffffffffffffffffffffffffffffffffffffffff02191690837bffffffffffffffffffffffffffffffffffffffffffffffffffffffff16021790555050505b806020015185935093505050612c79565b8560405180604001604052808763ffffffff168152602001867bffffffffffffffffffffffffffffffffffffffffffffffffffffffff168152509080600181540180825580915050600190039060005260206000200160009091909190915060008201518160000160006101000a81548163ffffffff021916908363ffffffff16021790555060208201518160000160046101000a8154817bffffffffffffffffffffffffffffffffffffffffffffffffffffffff02191690837bffffffffffffffffffffffffffffffffffffffffffffffffffffffff160217905550505060008492509250505b935093915050565b60008260005281602060002001905092915050565b6000639a802a6d60e01b630342018160e01b635f398a1460e01b7f79dd796f000000000000000000000000000000000000000000000000000000001818187bffffffffffffffffffffffffffffffffffffffffffffffffffffffff1916827bffffffffffffffffffffffffffffffffffffffffffffffffffffffff19161480612d7c57507f79dd796f000000000000000000000000000000000000000000000000000000007bffffffffffffffffffffffffffffffffffffffffffffffffffffffff1916827bffffffffffffffffffffffffffffffffffffffffffffffffffffffff1916145b80612de457507f4e2312e0000000000000000000000000000000000000000000000000000000007bffffffffffffffffffffffffffffffffffffffffffffffffffffffff1916827bffffffffffffffffffffffffffffffffffffffffffffffffffffffff1916145b80612df45750612df382613a4f565b5b9050919050565b60007f000000000000000000000000000000000000000000000000000000000000000073ffffffffffffffffffffffffffffffffffffffff163073ffffffffffffffffffffffffffffffffffffffff16148015612e7757507f000000000000000000000000000000000000000000000000000000000000000046145b15612ea4577f00000000000000000000000000000000000000000000000000000000000000009050612f12565b612f0f7f00000000000000000000000000000000000000000000000000000000000000007f00000000000000000000000000000000000000000000000000000000000000007f0000000000000000000000000000000000000000000000000000000000000000613ab9565b90505b90565b60008282604051602001612f2a929190615c1b565b60405160208183030381529060405280519060200120905092915050565b6000807f7fffffffffffffffffffffffffffffff5d576e7357a4501ddfe92f46681b20a08360001c1115612f83576000600391509150613022565b600060018787878760405160008152602001604052604051612fa89493929190615c52565b6020604051602081039080840390855afa158015612fca573d6000803e3d6000fd5b505050602060405103519050600073ffffffffffffffffffffffffffffffffffffffff168173ffffffffffffffffffffffffffffffffffffffff16141561301957600060019250925050613022565b80600092509250505b94509492505050565b6000600481111561303f5761303e6145f6565b5b816004811115613052576130516145f6565b5b141561305d57613196565b60016004811115613071576130706145f6565b5b816004811115613084576130836145f6565b5b14156130c5576040517f08c379a00000000000000000000000000000000000000000000000000000000081526004016130bc90615ce3565b60405180910390fd5b600260048111156130d9576130d86145f6565b5b8160048111156130ec576130eb6145f6565b5b141561312d576040517f08c379a000000000000000000000000000000000000000000000000000000000815260040161312490615d4f565b60405180910390fd5b60036004811115613141576131406145f6565b5b816004811115613154576131536145f6565b5b1415613195576040517f08c379a000000000000000000000000000000000000000000000000000000000815260040161318c90615de1565b60405180910390fd5b5b50565b60006008600087815260200190815260200160002090508060030160008673ffffffffffffffffffffffffffffffffffffffff1673ffffffffffffffffffffffffffffffffffffffff16815260200190815260200160002060009054906101000a900460ff161561323f576040517f08c379a000000000000000000000000000000000000000000000000000000000815260040161323690615e73565b60405180910390fd5b60018160030160008773ffffffffffffffffffffffffffffffffffffffff1673ffffffffffffffffffffffffffffffffffffffff16815260200190815260200160002060006101000a81548160ff021916908315150217905550600060028111156132ad576132ac6145f6565b5b60ff168460ff1614156132da57828160000160008282546132ce9190615445565b92505081905550613398565b600160028111156132ee576132ed6145f6565b5b60ff168460ff16141561331b578281600101600082825461330f9190615445565b92505081905550613397565b60028081111561332e5761332d6145f6565b5b60ff168460ff16141561335b578281600201600082825461334f9190615445565b92505081905550613396565b6040517f08c379a000000000000000000000000000000000000000000000000000000000815260040161338d90615f05565b60405180910390fd5b5b5b505050505050565b60008160000160009054906101000a9004600f0b600f0b8260000160109054906101000a9004600f0b600f0b13159050919050565b60008260000160109054906101000a9004600f0b90508183600101600083600f0b600f0b815260200190815260200160002081905550600181018360000160106101000a8154816fffffffffffffffffffffffffffffffff0219169083600f0b6fffffffffffffffffffffffffffffffff160217905550505050565b600460009054906101000a900473ffffffffffffffffffffffffffffffffffffffff1673ffffffffffffffffffffffffffffffffffffffff1663e38335e5348686866000876040518763ffffffff1660e01b81526004016134b69594939291906152f6565b6000604051808303818588803b1580156134cf57600080fd5b505af11580156134e3573d6000803e3d6000fd5b50505050505050505050565b60008160000160006101000a8154816fffffffffffffffffffffffffffffffff0219169083600f0b6fffffffffffffffffffffffffffffffff16021790555060008160000160106101000a8154816fffffffffffffffffffffffffffffffff0219169083600f0b6fffffffffffffffffffffffffffffffff16021790555050565b6000806001600084815260200190815260200160002090508060020160009054906101000a900460ff16156135a9576007915050613680565b8060020160019054906101000a900460ff16156135ca576002915050613680565b60006135d58461112d565b9050600081141561361b576040517f08c379a000000000000000000000000000000000000000000000000000000000815260040161361290615f71565b60405180910390fd5b43811061362d57600092505050613680565b600061363885611810565b905043811061364d5760019350505050613680565b61365685613af3565b8015613667575061366685613b3a565b5b156136785760049350505050613680565b600393505050505b919050565b60005b818310156136ed57600061369c8484613b65565b90508463ffffffff166136af8783612c81565b60000160009054906101000a900463ffffffff1663ffffffff1611156136d7578092506136e7565b6001816136e49190615445565b93505b50613688565b819050949350505050565b60006137026117ea565b61371f61370d611f76565b60014361371a91906154fb565b611ad3565b1015613760576040517f08c379a000000000000000000000000000000000000000000000000000000000815260040161375790616003565b60405180910390fd5b60006137758686868680519060200120611a0c565b905084518651146137bb576040517f08c379a00000000000000000000000000000000000000000000000000000000081526004016137b290616095565b60405180910390fd5b83518651146137ff576040517f08c379a00000000000000000000000000000000000000000000000000000000081526004016137f690616095565b60405180910390fd5b6000865111613843576040517f08c379a000000000000000000000000000000000000000000000000000000000815260040161383a90616101565b60405180910390fd5b60006001600083815260200190815260200160002090506138a3816000016040518060200160405290816000820160009054906101000a900467ffffffffffffffff1667ffffffffffffffff1667ffffffffffffffff1681525050613b8b565b6138e2576040517f08c379a00000000000000000000000000000000000000000000000000000000081526004016138d990616193565b60405180910390fd5b60006138f46138ef6111bf565b613ba5565b6138fd43613ba5565b61390791906161c7565b9050600061391b613916610a77565b613ba5565b8261392691906161c7565b905061393e8284600001613bfc90919063ffffffff16565b6139548184600101613bfc90919063ffffffff16565b7f7d84a6263ae0d98d3329bd7b46bb4e8d6f98cd35a7adb45c274c8b7fd5ebd5e08461397e611f76565b8b8b8d5167ffffffffffffffff81111561399b5761399a613e0e565b5b6040519080825280602002602001820160405280156139ce57816020015b60608152602001906001900390816139b95790505b508c88888e6040516139e899989796959493929190616342565b60405180910390a183945050505050949350505050565b600082511115613a125781518083602001fd5b806040517f08c379a0000000000000000000000000000000000000000000000000000000008152600401613a469190614102565b60405180910390fd5b60007f01ffc9a7000000000000000000000000000000000000000000000000000000007bffffffffffffffffffffffffffffffffffffffffffffffffffffffff1916827bffffffffffffffffffffffffffffffffffffffffffffffffffffffff1916149050919050565b60008383834630604051602001613ad49594939291906163f2565b6040516020818303038152906040528051906020012090509392505050565b60008060086000848152602001908152602001600020905080600201548160010154613b1f9190615445565b613b30613b2b8561112d565b611b04565b1115915050919050565b6000806008600084815260200190815260200160002090508060000154816001015411915050919050565b60006002828418613b769190615b06565b828416613b839190615445565b905092915050565b600080826000015167ffffffffffffffff16149050919050565b600067ffffffffffffffff8016821115613bf4576040517f08c379a0000000000000000000000000000000000000000000000000000000008152600401613beb906164b7565b60405180910390fd5b819050919050565b808260000160006101000a81548167ffffffffffffffff021916908367ffffffffffffffff1602179055505050565b6000604051905090565b600080fd5b600080fd5b60007fffffffff0000000000000000000000000000000000000000000000000000000082169050919050565b613c7481613c3f565b8114613c7f57600080fd5b50565b600081359050613c9181613c6b565b92915050565b600060208284031215613cad57613cac613c35565b5b6000613cbb84828501613c82565b91505092915050565b60008115159050919050565b613cd981613cc4565b82525050565b6000602082019050613cf46000830184613cd0565b92915050565b6000819050919050565b613d0d81613cfa565b82525050565b6000602082019050613d286000830184613d04565b92915050565b613d3781613cfa565b8114613d4257600080fd5b50565b600081359050613d5481613d2e565b92915050565b600060ff82169050919050565b613d7081613d5a565b8114613d7b57600080fd5b50565b600081359050613d8d81613d67565b92915050565b600080fd5b600080fd5b600080fd5b60008083601f840112613db857613db7613d93565b5b8235905067ffffffffffffffff811115613dd557613dd4613d98565b5b602083019150836001820283011115613df157613df0613d9d565b5b9250929050565b600080fd5b6000601f19601f8301169050919050565b7f4e487b7100000000000000000000000000000000000000000000000000000000600052604160045260246000fd5b613e4682613dfd565b810181811067ffffffffffffffff82111715613e6557613e64613e0e565b5b80604052505050565b6000613e78613c2b565b9050613e848282613e3d565b919050565b600067ffffffffffffffff821115613ea457613ea3613e0e565b5b613ead82613dfd565b9050602081019050919050565b82818337600083830152505050565b6000613edc613ed784613e89565b613e6e565b905082815260208101848484011115613ef857613ef7613df8565b5b613f03848285613eba565b509392505050565b600082601f830112613f2057613f1f613d93565b5b8135613f30848260208601613ec9565b91505092915050565b6000819050919050565b613f4c81613f39565b8114613f5757600080fd5b50565b600081359050613f6981613f43565b92915050565b60008060008060008060008060e0898b031215613f8f57613f8e613c35565b5b6000613f9d8b828c01613d45565b9850506020613fae8b828c01613d7e565b975050604089013567ffffffffffffffff811115613fcf57613fce613c3a565b5b613fdb8b828c01613da2565b9650965050606089013567ffffffffffffffff811115613ffe57613ffd613c3a565b5b61400a8b828c01613f0b565b945050608061401b8b828c01613d7e565b93505060a061402c8b828c01613f5a565b92505060c061403d8b828c01613f5a565b9150509295985092959890939650565b60006020828403121561406357614062613c35565b5b600061407184828501613d45565b91505092915050565b600081519050919050565b600082825260208201905092915050565b60005b838110156140b4578082015181840152602081019050614099565b838111156140c3576000848401525b50505050565b60006140d48261407a565b6140de8185614085565b93506140ee818560208601614096565b6140f781613dfd565b840191505092915050565b6000602082019050818103600083015261411c81846140c9565b905092915050565b600073ffffffffffffffffffffffffffffffffffffffff82169050919050565b600061414f82614124565b9050919050565b61415f81614144565b811461416a57600080fd5b50565b60008135905061417c81614156565b92915050565b6000806000806080858703121561419c5761419b613c35565b5b60006141aa8782880161416d565b94505060206141bb8782880161416d565b93505060406141cc87828801613d45565b925050606085013567ffffffffffffffff8111156141ed576141ec613c3a565b5b6141f987828801613f0b565b91505092959194509250565b61420e81613c3f565b82525050565b60006020820190506142296000830184614205565b92915050565b600067ffffffffffffffff82111561424a57614249613e0e565b5b602082029050602081019050919050565b600061426e6142698461422f565b613e6e565b9050808382526020820190506020840283018581111561429157614290613d9d565b5b835b818110156142ba57806142a6888261416d565b845260208401935050602081019050614293565b5050509392505050565b600082601f8301126142d9576142d8613d93565b5b81356142e984826020860161425b565b91505092915050565b600067ffffffffffffffff82111561430d5761430c613e0e565b5b602082029050602081019050919050565b600061433161432c846142f2565b613e6e565b9050808382526020820190506020840283018581111561435457614353613d9d565b5b835b8181101561437d57806143698882613d45565b845260208401935050602081019050614356565b5050509392505050565b600082601f83011261439c5761439b613d93565b5b81356143ac84826020860161431e565b91505092915050565b600067ffffffffffffffff8211156143d0576143cf613e0e565b5b602082029050602081019050919050565b60006143f46143ef846143b5565b613e6e565b9050808382526020820190506020840283018581111561441757614416613d9d565b5b835b8181101561445e57803567ffffffffffffffff81111561443c5761443b613d93565b5b8086016144498982613f0b565b85526020850194505050602081019050614419565b5050509392505050565b600082601f83011261447d5761447c613d93565b5b813561448d8482602086016143e1565b91505092915050565b600080600080608085870312156144b0576144af613c35565b5b600085013567ffffffffffffffff8111156144ce576144cd613c3a565b5b6144da878288016142c4565b945050602085013567ffffffffffffffff8111156144fb576144fa613c3a565b5b61450787828801614387565b935050604085013567ffffffffffffffff81111561452857614527613c3a565b5b61453487828801614468565b925050606061454587828801613f5a565b91505092959194509250565b61455a81613f39565b82525050565b60006020820190506145756000830184614551565b92915050565b600080600080600060a0868803121561459757614596613c35565b5b60006145a588828901613d45565b95505060206145b688828901613d7e565b94505060406145c788828901613d7e565b93505060606145d888828901613f5a565b92505060806145e988828901613f5a565b9150509295509295909350565b7f4e487b7100000000000000000000000000000000000000000000000000000000600052602160045260246000fd5b60088110614636576146356145f6565b5b50565b600081905061464782614625565b919050565b600061465782614639565b9050919050565b6146678161464c565b82525050565b6000602082019050614682600083018461465e565b92915050565b6000806040838503121561469f5761469e613c35565b5b60006146ad85828601613d45565b92505060206146be8582860161416d565b9150509250929050565b60006060820190506146dd6000830186613d04565b6146ea6020830185613d04565b6146f76040830184613d04565b949350505050565b6000806040838503121561471657614715613c35565b5b600061472485828601613d45565b925050602061473585828601613d7e565b9150509250929050565b60008060008060006080868803121561475b5761475a613c35565b5b600061476988828901613d45565b955050602061477a88828901613d7e565b945050604086013567ffffffffffffffff81111561479b5761479a613c3a565b5b6147a788828901613da2565b9350935050606086013567ffffffffffffffff8111156147ca576147c9613c3a565b5b6147d688828901613f0b565b9150509295509295909350565b600080600080606085870312156147fd576147fc613c35565b5b600061480b87828801613d45565b945050602061481c87828801613d7e565b935050604085013567ffffffffffffffff81111561483d5761483c613c3a565b5b61484987828801613da2565b925092505092959194509250565b600067ffffffffffffffff82111561487257614871613e0e565b5b61487b82613dfd565b9050602081019050919050565b600061489b61489684614857565b613e6e565b9050828152602081018484840111156148b7576148b6613df8565b5b6148c2848285613eba565b509392505050565b600082601f8301126148df576148de613d93565b5b81356148ef848260208601614888565b91505092915050565b6000806000806080858703121561491257614911613c35565b5b600085013567ffffffffffffffff8111156149305761492f613c3a565b5b61493c878288016142c4565b945050602085013567ffffffffffffffff81111561495d5761495c613c3a565b5b61496987828801614387565b935050604085013567ffffffffffffffff81111561498a57614989613c3a565b5b61499687828801614468565b925050606085013567ffffffffffffffff8111156149b7576149b6613c3a565b5b6149c3878288016148ca565b91505092959194509250565b6000806000606084860312156149e8576149e7613c35565b5b60006149f68682870161416d565b9350506020614a0786828701613d45565b925050604084013567ffffffffffffffff811115614a2857614a27613c3a565b5b614a3486828701613f0b565b9150509250925092565b6000614a4982614124565b9050919050565b6000614a5b82614a3e565b9050919050565b614a6b81614a50565b8114614a7657600080fd5b50565b600081359050614a8881614a62565b92915050565b600060208284031215614aa457614aa3613c35565b5b6000614ab284828501614a79565b91505092915050565b600080600080600060a08688031215614ad757614ad6613c35565b5b6000614ae58882890161416d565b9550506020614af68882890161416d565b945050604086013567ffffffffffffffff811115614b1757614b16613c3a565b5b614b2388828901614387565b935050606086013567ffffffffffffffff811115614b4457614b43613c3a565b5b614b5088828901614387565b925050608086013567ffffffffffffffff811115614b7157614b70613c3a565b5b614b7d88828901613f0b565b9150509295509295909350565b60008083601f840112614ba057614b9f613d93565b5b8235905067ffffffffffffffff811115614bbd57614bbc613d98565b5b602083019150836001820283011115614bd957614bd8613d9d565b5b9250929050565b60008060008060608587031215614bfa57614bf9613c35565b5b6000614c088782880161416d565b9450506020614c1987828801613d45565b935050604085013567ffffffffffffffff811115614c3a57614c39613c3a565b5b614c4687828801614b8a565b925092505092959194509250565b614c5d81614144565b82525050565b6000602082019050614c786000830184614c54565b92915050565b60008060408385031215614c9557614c94613c35565b5b6000614ca38582860161416d565b9250506020614cb485828601613d45565b9150509250929050565b600080600080600060a08688031215614cda57614cd9613c35565b5b6000614ce88882890161416d565b9550506020614cf98882890161416d565b9450506040614d0a88828901613d45565b9350506060614d1b88828901613d45565b925050608086013567ffffffffffffffff811115614d3c57614d3b613c3a565b5b614d4888828901613f0b565b9150509295509295909350565b6000819050919050565b6000614d7a614d75614d7084614124565b614d55565b614124565b9050919050565b6000614d8c82614d5f565b9050919050565b6000614d9e82614d81565b9050919050565b614dae81614d93565b82525050565b6000602082019050614dc96000830184614da5565b92915050565b600081905092915050565b6000614de68385614dcf565b9350614df3838584613eba565b82840190509392505050565b6000614e0c828486614dda565b91508190509392505050565b614e2181613d5a565b82525050565b600060a082019050614e3c6000830188614551565b614e496020830187613d04565b614e566040830186614e18565b614e636060830185614551565b614e706080830184614551565b9695505050505050565b7f476f7665726e6f723a206f6e6c79476f7665726e616e63650000000000000000600082015250565b6000614eb0601883614085565b9150614ebb82614e7a565b602082019050919050565b60006020820190508181036000830152614edf81614ea3565b9050919050565b7f4e487b7100000000000000000000000000000000000000000000000000000000600052602260045260246000fd5b60006002820490506001821680614f2d57607f821691505b60208210811415614f4157614f40614ee6565b5b50919050565b7f476f7665726e6f723a2070726f706f73616c206e6f742073756363657373667560008201527f6c00000000000000000000000000000000000000000000000000000000000000602082015250565b6000614fa3602183614085565b9150614fae82614f47565b604082019050919050565b60006020820190508181036000830152614fd281614f96565b9050919050565b600081519050614fe881613d2e565b92915050565b60006020828403121561500457615003613c35565b5b600061501284828501614fd9565b91505092915050565b600081519050919050565b600082825260208201905092915050565b6000819050602082019050919050565b61505081614144565b82525050565b60006150628383615047565b60208301905092915050565b6000602082019050919050565b60006150868261501b565b6150908185615026565b935061509b83615037565b8060005b838110156150cc5781516150b38882615056565b97506150be8361506e565b92505060018101905061509f565b5085935050505092915050565b600081519050919050565b600082825260208201905092915050565b6000819050602082019050919050565b61510e81613cfa565b82525050565b60006151208383615105565b60208301905092915050565b6000602082019050919050565b6000615144826150d9565b61514e81856150e4565b9350615159836150f5565b8060005b8381101561518a5781516151718882615114565b975061517c8361512c565b92505060018101905061515d565b5085935050505092915050565b600081519050919050565b600082825260208201905092915050565b6000819050602082019050919050565b600081519050919050565b600082825260208201905092915050565b60006151ea826151c3565b6151f481856151ce565b9350615204818560208601614096565b61520d81613dfd565b840191505092915050565b600061522483836151df565b905092915050565b6000602082019050919050565b600061524482615197565b61524e81856151a2565b935083602082028501615260856151b3565b8060005b8581101561529c578484038952815161527d8582615218565b94506152888361522c565b925060208a01995050600181019050615264565b50829750879550505050505092915050565b6000819050919050565b60008160001b9050919050565b60006152e06152db6152d6846152ae565b6152b8565b613f39565b9050919050565b6152f0816152c5565b82525050565b600060a0820190508181036000830152615310818861507b565b905081810360208301526153248187615139565b905081810360408301526153388186615239565b905061534760608301856152e7565b6153546080830184614551565b9695505050505050565b60008151905061536d81613f43565b92915050565b60006020828403121561538957615388613c35565b5b60006153978482850161535e565b91505092915050565b600060c08201905081810360008301526153ba818961507b565b905081810360208301526153ce8188615139565b905081810360408301526153e28187615239565b90506153f160608301866152e7565b6153fe6080830185614551565b61540b60a0830184613d04565b979650505050505050565b7f4e487b7100000000000000000000000000000000000000000000000000000000600052601160045260246000fd5b600061545082613cfa565b915061545b83613cfa565b9250827fffffffffffffffffffffffffffffffffffffffffffffffffffffffffffffffff038211156154905761548f615416565b5b828201905092915050565b60006040820190506154b06000830185613d04565b6154bd6020830184613d04565b9392505050565b60006060820190506154d96000830186614551565b6154e66020830185613d04565b6154f36040830184614e18565b949350505050565b600061550682613cfa565b915061551183613cfa565b92508282101561552457615523615416565b5b828203905092915050565b7f4e487b7100000000000000000000000000000000000000000000000000000000600052603260045260246000fd5b60006080820190508181036000830152615578818761507b565b9050818103602083015261558c8186615139565b905081810360408301526155a08185615239565b90506155af6060830184614551565b95945050505050565b7f53616665436173743a2076616c756520646f65736e27742066697420696e203260008201527f3234206269747300000000000000000000000000000000000000000000000000602082015250565b6000615614602783614085565b915061561f826155b8565b604082019050919050565b6000602082019050818103600083015261564381615607565b9050919050565b7f53616665436173743a2076616c756520646f65736e27742066697420696e203360008201527f3220626974730000000000000000000000000000000000000000000000000000602082015250565b60006156a6602683614085565b91506156b18261564a565b604082019050919050565b600060208201905081810360008301526156d581615699565b9050919050565b7f476f7665726e6f723a20766f7465206e6f742063757272656e746c792061637460008201527f6976650000000000000000000000000000000000000000000000000000000000602082015250565b6000615738602383614085565b9150615743826156dc565b604082019050919050565b600060208201905081810360008301526157678161572b565b9050919050565b60006080820190506157836000830187613d04565b6157906020830186614e18565b61579d6040830185613d04565b81810360608301526157af81846140c9565b905095945050505050565b600082825260208201905092915050565b60006157d6826151c3565b6157e081856157ba565b93506157f0818560208601614096565b6157f981613dfd565b840191505092915050565b600060a0820190506158196000830188613d04565b6158266020830187614e18565b6158336040830186613d04565b818103606083015261584581856140c9565b9050818103608083015261585981846157cb565b90509695505050505050565b7f476f7665726e6f72566f74657351756f72756d4672616374696f6e3a2071756f60008201527f72756d4e756d657261746f72206f7665722071756f72756d44656e6f6d696e6160208201527f746f720000000000000000000000000000000000000000000000000000000000604082015250565b60006158e7604383614085565b91506158f282615865565b606082019050919050565b60006020820190508181036000830152615916816158da565b9050919050565b600061592882613cfa565b91507fffffffffffffffffffffffffffffffffffffffffffffffffffffffffffffffff82141561595b5761595a615416565b5b600182019050919050565b61596f81613cc4565b811461597a57600080fd5b50565b60008151905061598c81615966565b92915050565b6000602082840312156159a8576159a7613c35565b5b60006159b68482850161597d565b91505092915050565b7f436865636b706f696e74733a20626c6f636b206e6f7420796574206d696e6564600082015250565b60006159f5602083614085565b9150615a00826159bf565b602082019050919050565b60006020820190508181036000830152615a24816159e8565b9050919050565b6000604082019050615a406000830185614c54565b615a4d6020830184613d04565b9392505050565b6000604082019050615a696000830185614c54565b615a766020830184614c54565b9392505050565b6000615a8882613cfa565b9150615a9383613cfa565b9250817fffffffffffffffffffffffffffffffffffffffffffffffffffffffffffffffff0483118215151615615acc57615acb615416565b5b828202905092915050565b7f4e487b7100000000000000000000000000000000000000000000000000000000600052601260045260246000fd5b6000615b1182613cfa565b9150615b1c83613cfa565b925082615b2c57615b2b615ad7565b5b828204905092915050565b7f436865636b706f696e743a20696e76616c6964206b6579000000000000000000600082015250565b6000615b6d601783614085565b9150615b7882615b37565b602082019050919050565b60006020820190508181036000830152615b9c81615b60565b9050919050565b600081905092915050565b7f1901000000000000000000000000000000000000000000000000000000000000600082015250565b6000615be4600283615ba3565b9150615bef82615bae565b600282019050919050565b6000819050919050565b615c15615c1082613f39565b615bfa565b82525050565b6000615c2682615bd7565b9150615c328285615c04565b602082019150615c428284615c04565b6020820191508190509392505050565b6000608082019050615c676000830187614551565b615c746020830186614e18565b615c816040830185614551565b615c8e6060830184614551565b95945050505050565b7f45434453413a20696e76616c6964207369676e61747572650000000000000000600082015250565b6000615ccd601883614085565b9150615cd882615c97565b602082019050919050565b60006020820190508181036000830152615cfc81615cc0565b9050919050565b7f45434453413a20696e76616c6964207369676e6174757265206c656e67746800600082015250565b6000615d39601f83614085565b9150615d4482615d03565b602082019050919050565b60006020820190508181036000830152615d6881615d2c565b9050919050565b7f45434453413a20696e76616c6964207369676e6174757265202773272076616c60008201527f7565000000000000000000000000000000000000000000000000000000000000602082015250565b6000615dcb602283614085565b9150615dd682615d6f565b604082019050919050565b60006020820190508181036000830152615dfa81615dbe565b9050919050565b7f476f7665726e6f72566f74696e6753696d706c653a20766f746520616c72656160008201527f6479206361737400000000000000000000000000000000000000000000000000602082015250565b6000615e5d602783614085565b9150615e6882615e01565b604082019050919050565b60006020820190508181036000830152615e8c81615e50565b9050919050565b7f476f7665726e6f72566f74696e6753696d706c653a20696e76616c696420766160008201527f6c756520666f7220656e756d20566f7465547970650000000000000000000000602082015250565b6000615eef603583614085565b9150615efa82615e93565b604082019050919050565b60006020820190508181036000830152615f1e81615ee2565b9050919050565b7f476f7665726e6f723a20756e6b6e6f776e2070726f706f73616c206964000000600082015250565b6000615f5b601d83614085565b9150615f6682615f25565b602082019050919050565b60006020820190508181036000830152615f8a81615f4e565b9050919050565b7f476f7665726e6f723a2070726f706f73657220766f7465732062656c6f77207060008201527f726f706f73616c207468726573686f6c64000000000000000000000000000000602082015250565b6000615fed603183614085565b9150615ff882615f91565b604082019050919050565b6000602082019050818103600083015261601c81615fe0565b9050919050565b7f476f7665726e6f723a20696e76616c69642070726f706f73616c206c656e677460008201527f6800000000000000000000000000000000000000000000000000000000000000602082015250565b600061607f602183614085565b915061608a82616023565b604082019050919050565b600060208201905081810360008301526160ae81616072565b9050919050565b7f476f7665726e6f723a20656d7074792070726f706f73616c0000000000000000600082015250565b60006160eb601883614085565b91506160f6826160b5565b602082019050919050565b6000602082019050818103600083015261611a816160de565b9050919050565b7f476f7665726e6f723a2070726f706f73616c20616c726561647920657869737460008201527f7300000000000000000000000000000000000000000000000000000000000000602082015250565b600061617d602183614085565b915061618882616121565b604082019050919050565b600060208201905081810360008301526161ac81616170565b9050919050565b600067ffffffffffffffff82169050919050565b60006161d2826161b3565b91506161dd836161b3565b92508267ffffffffffffffff038211156161fa576161f9615416565b5b828201905092915050565b600081519050919050565b600082825260208201905092915050565b6000819050602082019050919050565b600082825260208201905092915050565b600061624d8261407a565b6162578185616231565b9350616267818560208601614096565b61627081613dfd565b840191505092915050565b60006162878383616242565b905092915050565b6000602082019050919050565b60006162a782616205565b6162b18185616210565b9350836020820285016162c385616221565b8060005b858110156162ff57848403895281516162e0858261627b565b94506162eb8361628f565b925060208a019950506001810190506162c7565b50829750879550505050505092915050565b600061632c616327616322846161b3565b614d55565b613cfa565b9050919050565b61633c81616311565b82525050565b600061012082019050616358600083018c613d04565b616365602083018b614c54565b8181036040830152616377818a61507b565b9050818103606083015261638b8189615139565b9050818103608083015261639f818861629c565b905081810360a08301526163b38187615239565b90506163c260c0830186616333565b6163cf60e0830185616333565b8181036101008301526163e281846140c9565b90509a9950505050505050505050565b600060a0820190506164076000830188614551565b6164146020830187614551565b6164216040830186614551565b61642e6060830185613d04565b61643b6080830184614c54565b9695505050505050565b7f53616665436173743a2076616c756520646f65736e27742066697420696e203660008201527f3420626974730000000000000000000000000000000000000000000000000000602082015250565b60006164a1602683614085565b91506164ac82616445565b604082019050919050565b600060208201905081810360008301526164d081616494565b905091905056fe476f7665726e6f723a2072656c617920726576657274656420776974686f7574206d657373616765a2646970667358221220303b057d9ef6d45fc3aeaf2c9881f7e407feb95b1474315a834be9ed96f0312764736f6c63430008090033",
  "linkReferences": {},
  "deployedLinkReferences": {}
}