{
  "_format": "hh-sol-artifact-1",
  "contractName": "CheckpointsMock",
  "sourceName": "contracts/openzeppelin/mocks/CheckpointsMock.sol",
  "abi": [
    {
      "inputs": [
        {
          "internalType": "uint256",
          "name": "blockNumber",
          "type": "uint256"
        }
      ],
      "name": "getAtBlock",
      "outputs": [
        {
          "internalType": "uint256",
          "name": "",
          "type": "uint256"
        }
      ],
      "stateMutability": "view",
      "type": "function"
    },
    {
      "inputs": [
        {
          "internalType": "uint256",
          "name": "blockNumber",
          "type": "uint256"
        }
      ],
      "name": "getAtProbablyRecentBlock",
      "outputs": [
        {
          "internalType": "uint256",
          "name": "",
          "type": "uint256"
        }
      ],
      "stateMutability": "view",
      "type": "function"
    },
    {
      "inputs": [],
      "name": "latest",
      "outputs": [
        {
          "internalType": "uint256",
          "name": "",
          "type": "uint256"
        }
      ],
      "stateMutability": "view",
      "type": "function"
    },
    {
      "inputs": [],
      "name": "latestCheckpoint",
      "outputs": [
        {
          "internalType": "bool",
          "name": "",
          "type": "bool"
        },
        {
          "internalType": "uint256",
          "name": "",
          "type": "uint256"
        },
        {
          "internalType": "uint256",
          "name": "",
          "type": "uint256"
        }
      ],
      "stateMutability": "view",
      "type": "function"
    },
    {
      "inputs": [],
      "name": "length",
      "outputs": [
        {
          "internalType": "uint256",
          "name": "",
          "type": "uint256"
        }
      ],
      "stateMutability": "view",
      "type": "function"
    },
    {
      "inputs": [
        {
          "internalType": "uint256",
          "name": "value",
          "type": "uint256"
        }
      ],
      "name": "push",
      "outputs": [
        {
          "internalType": "uint256",
          "name": "",
          "type": "uint256"
        },
        {
          "internalType": "uint256",
          "name": "",
          "type": "uint256"
        }
      ],
      "stateMutability": "nonpayable",
      "type": "function"
    }
  ],
  "bytecode": "0x608060405234801561001057600080fd5b506111c1806100206000396000f3fe608060405234801561001057600080fd5b50600436106100625760003560e01c80630a289305146100675780631f7b6d321461009757806352bfe789146100b5578063907c0f92146100d3578063959ac484146100f3578063ee1bc75114610124575b600080fd5b610081600480360381019061007c9190610d93565b610154565b60405161008e9190610dcf565b60405180910390f35b61009f610171565b6040516100ac9190610dcf565b60405180910390f35b6100bd610182565b6040516100ca9190610dcf565b60405180910390f35b6100db6101b1565b6040516100ea93929190610e05565b60405180910390f35b61010d60048036038101906101089190610d93565b6101f5565b60405161011b929190610e3c565b60405180910390f35b61013e60048036038101906101399190610d93565b610215565b60405161014b9190610dcf565b60405180910390f35b600061016a82600061023290919063ffffffff16565b9050919050565b600061017d6000610397565b905090565b600061018e60006103a8565b7bffffffffffffffffffffffffffffffffffffffffffffffffffffffff16905090565b60008060006101c06000610412565b8163ffffffff169150807bffffffffffffffffffffffffffffffffffffffffffffffffffffffff169050925092509250909192565b60008061020c83600061051490919063ffffffff16565b91509150915091565b600061022b82600061058290919063ffffffff16565b9050919050565b6000438210610276576040517f08c379a000000000000000000000000000000000000000000000000000000000815260040161026d90610ec2565b60405180910390fd5b600061028183610671565b905060008460000180549050905060008082905060058311156103045760006102a9846106c4565b846102b49190610f11565b90506102c388600001826107be565b60000160009054906101000a900463ffffffff1663ffffffff168563ffffffff1610156102f257809150610302565b6001816102ff9190610f45565b92505b505b6000610315886000018685856107d3565b90506000811461036957610338886000016001836103339190610f11565b6107be565b60000160049054906101000a90047bffffffffffffffffffffffffffffffffffffffffffffffffffffffff1661036c565b60005b7bffffffffffffffffffffffffffffffffffffffffffffffffffffffff169550505050505092915050565b600081600001805490509050919050565b6000808260000180549050905060008114610407576103d6836000016001836103d19190610f11565b6107be565b60000160049054906101000a90047bffffffffffffffffffffffffffffffffffffffffffffffffffffffff1661040a565b60005b915050919050565b60008060008084600001805490509050600081141561043c5760008060009350935093505061050d565b6000610457866000016001846104529190610f11565b6107be565b6040518060400160405290816000820160009054906101000a900463ffffffff1663ffffffff1663ffffffff1681526020016000820160049054906101000a90047bffffffffffffffffffffffffffffffffffffffffffffffffffffffff167bffffffffffffffffffffffffffffffffffffffffffffffffffffffff167bffffffffffffffffffffffffffffffffffffffffffffffffffffffff1681525050905060018160000151826020015194509450945050505b9193909250565b6000806105358460000161052743610671565b61053086610846565b6108b1565b817bffffffffffffffffffffffffffffffffffffffffffffffffffffffff169150807bffffffffffffffffffffffffffffffffffffffffffffffffffffffff169050915091509250929050565b60004382106105c6576040517f08c379a00000000000000000000000000000000000000000000000000000000081526004016105bd90610ec2565b60405180910390fd5b60006105d183610671565b905060008460000180549050905060006105f186600001846000856107d3565b905060008114610645576106148660000160018361060f9190610f11565b6107be565b60000160049054906101000a90047bffffffffffffffffffffffffffffffffffffffffffffffffffffffff16610648565b60005b7bffffffffffffffffffffffffffffffffffffffffffffffffffffffff16935050505092915050565b600063ffffffff80168211156106bc576040517f08c379a00000000000000000000000000000000000000000000000000000000081526004016106b39061100d565b60405180910390fd5b819050919050565b6000808214156106d757600090506107b9565b600060016106e484610c38565b901c6001901b905060018184816106fe576106fd61102d565b5b048201901c905060018184816107175761071661102d565b5b048201901c905060018184816107305761072f61102d565b5b048201901c905060018184816107495761074861102d565b5b048201901c905060018184816107625761076161102d565b5b048201901c9050600181848161077b5761077a61102d565b5b048201901c905060018184816107945761079361102d565b5b048201901c90506107b5818285816107af576107ae61102d565b5b04610d19565b9150505b919050565b60008260005281602060002001905092915050565b60005b8183101561083b5760006107ea8484610d32565b90508463ffffffff166107fd87836107be565b60000160009054906101000a900463ffffffff1663ffffffff16111561082557809250610835565b6001816108329190610f45565b93505b506107d6565b819050949350505050565b60007bffffffffffffffffffffffffffffffffffffffffffffffffffffffff80168211156108a9576040517f08c379a00000000000000000000000000000000000000000000000000000000081526004016108a0906110ce565b60405180910390fd5b819050919050565b6000806000858054905090506000811115610b485760006108de876001846108d99190610f11565b6107be565b6040518060400160405290816000820160009054906101000a900463ffffffff1663ffffffff1663ffffffff1681526020016000820160049054906101000a90047bffffffffffffffffffffffffffffffffffffffffffffffffffffffff167bffffffffffffffffffffffffffffffffffffffffffffffffffffffff167bffffffffffffffffffffffffffffffffffffffffffffffffffffffff168152505090508563ffffffff16816000015163ffffffff1611156109d2576040517f08c379a00000000000000000000000000000000000000000000000000000000081526004016109c99061113a565b60405180910390fd5b8563ffffffff16816000015163ffffffff161415610a575784610a01886001856109fc9190610f11565b6107be565b60000160046101000a8154817bffffffffffffffffffffffffffffffffffffffffffffffffffffffff02191690837bffffffffffffffffffffffffffffffffffffffffffffffffffffffff160217905550610b37565b8660405180604001604052808863ffffffff168152602001877bffffffffffffffffffffffffffffffffffffffffffffffffffffffff168152509080600181540180825580915050600190039060005260206000200160009091909190915060008201518160000160006101000a81548163ffffffff021916908363ffffffff16021790555060208201518160000160046101000a8154817bffffffffffffffffffffffffffffffffffffffffffffffffffffffff02191690837bffffffffffffffffffffffffffffffffffffffffffffffffffffffff16021790555050505b806020015185935093505050610c30565b8560405180604001604052808763ffffffff168152602001867bffffffffffffffffffffffffffffffffffffffffffffffffffffffff168152509080600181540180825580915050600190039060005260206000200160009091909190915060008201518160000160006101000a81548163ffffffff021916908363ffffffff16021790555060208201518160000160046101000a8154817bffffffffffffffffffffffffffffffffffffffffffffffffffffffff02191690837bffffffffffffffffffffffffffffffffffffffffffffffffffffffff160217905550505060008492509250505b935093915050565b600080600090506000608084901c1115610c5a57608083901c92506080810190505b6000604084901c1115610c7557604083901c92506040810190505b6000602084901c1115610c9057602083901c92506020810190505b6000601084901c1115610cab57601083901c92506010810190505b6000600884901c1115610cc657600883901c92506008810190505b6000600484901c1115610ce157600483901c92506004810190505b6000600284901c1115610cfc57600283901c92506002810190505b6000600184901c1115610d10576001810190505b80915050919050565b6000818310610d285781610d2a565b825b905092915050565b60006002828418610d43919061115a565b828416610d509190610f45565b905092915050565b600080fd5b6000819050919050565b610d7081610d5d565b8114610d7b57600080fd5b50565b600081359050610d8d81610d67565b92915050565b600060208284031215610da957610da8610d58565b5b6000610db784828501610d7e565b91505092915050565b610dc981610d5d565b82525050565b6000602082019050610de46000830184610dc0565b92915050565b60008115159050919050565b610dff81610dea565b82525050565b6000606082019050610e1a6000830186610df6565b610e276020830185610dc0565b610e346040830184610dc0565b949350505050565b6000604082019050610e516000830185610dc0565b610e5e6020830184610dc0565b9392505050565b600082825260208201905092915050565b7f436865636b706f696e74733a20626c6f636b206e6f7420796574206d696e6564600082015250565b6000610eac602083610e65565b9150610eb782610e76565b602082019050919050565b60006020820190508181036000830152610edb81610e9f565b9050919050565b7f4e487b7100000000000000000000000000000000000000000000000000000000600052601160045260246000fd5b6000610f1c82610d5d565b9150610f2783610d5d565b925082821015610f3a57610f39610ee2565b5b828203905092915050565b6000610f5082610d5d565b9150610f5b83610d5d565b9250827fffffffffffffffffffffffffffffffffffffffffffffffffffffffffffffffff03821115610f9057610f8f610ee2565b5b828201905092915050565b7f53616665436173743a2076616c756520646f65736e27742066697420696e203360008201527f3220626974730000000000000000000000000000000000000000000000000000602082015250565b6000610ff7602683610e65565b915061100282610f9b565b604082019050919050565b6000602082019050818103600083015261102681610fea565b9050919050565b7f4e487b7100000000000000000000000000000000000000000000000000000000600052601260045260246000fd5b7f53616665436173743a2076616c756520646f65736e27742066697420696e203260008201527f3234206269747300000000000000000000000000000000000000000000000000602082015250565b60006110b8602783610e65565b91506110c38261105c565b604082019050919050565b600060208201905081810360008301526110e7816110ab565b9050919050565b7f436865636b706f696e743a20696e76616c6964206b6579000000000000000000600082015250565b6000611124601783610e65565b915061112f826110ee565b602082019050919050565b6000602082019050818103600083015261115381611117565b9050919050565b600061116582610d5d565b915061117083610d5d565b9250826111805761117f61102d565b5b82820490509291505056fea26469706673582212204d4b73a6acf621b08f1b4128fab5d4a8289397ecf9574c22d045ab99e85a64da64736f6c63430008090033",
  "linkReferences": {},
  "deployedLinkReferences": {}
}