{
  "_format": "hh-sol-artifact-1",
  "contractName": "Checkpoints160Mock",
  "sourceName": "contracts/openzeppelin/mocks/CheckpointsMock.sol",
  "abi": [
    {
      "inputs": [],
      "name": "latest",
      "outputs": [
        {
          "internalType": "uint160",
          "name": "",
          "type": "uint160"
        }
      ],
      "stateMutability": "view",
      "type": "function"
    },
    {
      "inputs": [],
      "name": "latestCheckpoint",
      "outputs": [
        {
          "internalType": "bool",
          "name": "",
          "type": "bool"
        },
        {
          "internalType": "uint96",
          "name": "",
          "type": "uint96"
        },
        {
          "internalType": "uint160",
          "name": "",
          "type": "uint160"
        }
      ],
      "stateMutability": "view",
      "type": "function"
    },
    {
      "inputs": [],
      "name": "length",
      "outputs": [
        {
          "internalType": "uint256",
          "name": "",
          "type": "uint256"
        }
      ],
      "stateMutability": "view",
      "type": "function"
    },
    {
      "inputs": [
        {
          "internalType": "uint96",
          "name": "key",
          "type": "uint96"
        }
      ],
      "name": "lowerLookup",
      "outputs": [
        {
          "internalType": "uint160",
          "name": "",
          "type": "uint160"
        }
      ],
      "stateMutability": "view",
      "type": "function"
    },
    {
      "inputs": [
        {
          "internalType": "uint96",
          "name": "key",
          "type": "uint96"
        },
        {
          "internalType": "uint160",
          "name": "value",
          "type": "uint160"
        }
      ],
      "name": "push",
      "outputs": [
        {
          "internalType": "uint160",
          "name": "",
          "type": "uint160"
        },
        {
          "internalType": "uint160",
          "name": "",
          "type": "uint160"
        }
      ],
      "stateMutability": "nonpayable",
      "type": "function"
    },
    {
      "inputs": [
        {
          "internalType": "uint96",
          "name": "key",
          "type": "uint96"
        }
      ],
      "name": "upperLookup",
      "outputs": [
        {
          "internalType": "uint160",
          "name": "",
          "type": "uint160"
        }
      ],
      "stateMutability": "view",
      "type": "function"
    }
  ],
  "bytecode": "0x608060405234801561001057600080fd5b50610d01806100206000396000f3fe608060405234801561001057600080fd5b50600436106100625760003560e01c80631f7b6d32146100675780634455fc091461008557806352bfe789146100b5578063907c0f92146100d357806394c2e537146100f3578063fa61770414610123575b600080fd5b61006f610154565b60405161007c9190610964565b60405180910390f35b61009f600480360381019061009a91906109c8565b610165565b6040516100ac9190610a24565b60405180910390f35b6100bd610182565b6040516100ca9190610a24565b60405180910390f35b6100db610193565b6040516100ea93929190610a69565b60405180910390f35b61010d600480360381019061010891906109c8565b6101ad565b60405161011a9190610a24565b60405180910390f35b61013d60048036038101906101389190610acc565b6101ca565b60405161014b929190610b0c565b60405180910390f35b600061016060006101ee565b905090565b600061017b8260006101ff90919063ffffffff16565b9050919050565b600061018e6000610277565b905090565b60008060006101a260006102d9565b925092509250909192565b60006101c38260006103db90919063ffffffff16565b9050919050565b6000806101e3848460006104469092919063ffffffff16565b915091509250929050565b600081600001805490509050919050565b60008083600001805490509050600061021e8560000185600085610463565b90506000811461026a576102418560000160018361023c9190610b64565b6104ee565b600001600c9054906101000a900473ffffffffffffffffffffffffffffffffffffffff1661026d565b60005b9250505092915050565b60008082600001805490509050600081146102ce576102a5836000016001836102a09190610b64565b6104ee565b600001600c9054906101000a900473ffffffffffffffffffffffffffffffffffffffff166102d1565b60005b915050919050565b600080600080846000018054905090506000811415610303576000806000935093509350506103d4565b600061031e866000016001846103199190610b64565b6104ee565b6040518060400160405290816000820160009054906101000a90046bffffffffffffffffffffffff166bffffffffffffffffffffffff166bffffffffffffffffffffffff16815260200160008201600c9054906101000a900473ffffffffffffffffffffffffffffffffffffffff1673ffffffffffffffffffffffffffffffffffffffff1673ffffffffffffffffffffffffffffffffffffffff1681525050905060018160000151826020015194509450945050505b9193909250565b6000808360000180549050905060006103fa8560000185600085610503565b90508181146104395761041085600001826104ee565b600001600c9054906101000a900473ffffffffffffffffffffffffffffffffffffffff1661043c565b60005b9250505092915050565b60008061045785600001858561058e565b91509150935093915050565b60005b818310156104e357600061047a8484610925565b9050846bffffffffffffffffffffffff1661049587836104ee565b60000160009054906101000a90046bffffffffffffffffffffffff166bffffffffffffffffffffffff1611156104cd578092506104dd565b6001816104da9190610b98565b93505b50610466565b819050949350505050565b60008260005281602060002001905092915050565b60005b8183101561058357600061051a8484610925565b9050846bffffffffffffffffffffffff1661053587836104ee565b60000160009054906101000a90046bffffffffffffffffffffffff166bffffffffffffffffffffffff161015610579576001816105729190610b98565b935061057d565b8092505b50610506565b819050949350505050565b60008060008580549050905060008111156108355760006105bb876001846105b69190610b64565b6104ee565b6040518060400160405290816000820160009054906101000a90046bffffffffffffffffffffffff166bffffffffffffffffffffffff166bffffffffffffffffffffffff16815260200160008201600c9054906101000a900473ffffffffffffffffffffffffffffffffffffffff1673ffffffffffffffffffffffffffffffffffffffff1673ffffffffffffffffffffffffffffffffffffffff16815250509050856bffffffffffffffffffffffff1681600001516bffffffffffffffffffffffff1611156106bf576040517f08c379a00000000000000000000000000000000000000000000000000000000081526004016106b690610c4b565b60405180910390fd5b856bffffffffffffffffffffffff1681600001516bffffffffffffffffffffffff16141561074457846106fe886001856106f99190610b64565b6104ee565b600001600c6101000a81548173ffffffffffffffffffffffffffffffffffffffff021916908373ffffffffffffffffffffffffffffffffffffffff160217905550610824565b866040518060400160405280886bffffffffffffffffffffffff1681526020018773ffffffffffffffffffffffffffffffffffffffff168152509080600181540180825580915050600190039060005260206000200160009091909190915060008201518160000160006101000a8154816bffffffffffffffffffffffff02191690836bffffffffffffffffffffffff160217905550602082015181600001600c6101000a81548173ffffffffffffffffffffffffffffffffffffffff021916908373ffffffffffffffffffffffffffffffffffffffff16021790555050505b80602001518593509350505061091d565b856040518060400160405280876bffffffffffffffffffffffff1681526020018673ffffffffffffffffffffffffffffffffffffffff168152509080600181540180825580915050600190039060005260206000200160009091909190915060008201518160000160006101000a8154816bffffffffffffffffffffffff02191690836bffffffffffffffffffffffff160217905550602082015181600001600c6101000a81548173ffffffffffffffffffffffffffffffffffffffff021916908373ffffffffffffffffffffffffffffffffffffffff160217905550505060008492509250505b935093915050565b600060028284186109369190610c9a565b8284166109439190610b98565b905092915050565b6000819050919050565b61095e8161094b565b82525050565b60006020820190506109796000830184610955565b92915050565b600080fd5b60006bffffffffffffffffffffffff82169050919050565b6109a581610984565b81146109b057600080fd5b50565b6000813590506109c28161099c565b92915050565b6000602082840312156109de576109dd61097f565b5b60006109ec848285016109b3565b91505092915050565b600073ffffffffffffffffffffffffffffffffffffffff82169050919050565b610a1e816109f5565b82525050565b6000602082019050610a396000830184610a15565b92915050565b60008115159050919050565b610a5481610a3f565b82525050565b610a6381610984565b82525050565b6000606082019050610a7e6000830186610a4b565b610a8b6020830185610a5a565b610a986040830184610a15565b949350505050565b610aa9816109f5565b8114610ab457600080fd5b50565b600081359050610ac681610aa0565b92915050565b60008060408385031215610ae357610ae261097f565b5b6000610af1858286016109b3565b9250506020610b0285828601610ab7565b9150509250929050565b6000604082019050610b216000830185610a15565b610b2e6020830184610a15565b9392505050565b7f4e487b7100000000000000000000000000000000000000000000000000000000600052601160045260246000fd5b6000610b6f8261094b565b9150610b7a8361094b565b925082821015610b8d57610b8c610b35565b5b828203905092915050565b6000610ba38261094b565b9150610bae8361094b565b9250827fffffffffffffffffffffffffffffffffffffffffffffffffffffffffffffffff03821115610be357610be2610b35565b5b828201905092915050565b600082825260208201905092915050565b7f436865636b706f696e743a20696e76616c6964206b6579000000000000000000600082015250565b6000610c35601783610bee565b9150610c4082610bff565b602082019050919050565b60006020820190508181036000830152610c6481610c28565b9050919050565b7f4e487b7100000000000000000000000000000000000000000000000000000000600052601260045260246000fd5b6000610ca58261094b565b9150610cb08361094b565b925082610cc057610cbf610c6b565b5b82820490509291505056fea2646970667358221220d8a3b1f2e6f0635f446e8bfc37d784b67fc36e54b7d35849b2f599b65e5e3f1764736f6c63430008090033",
  "linkReferences": {},
  "deployedLinkReferences": {}
}