{
  "_format": "hh-sol-artifact-1",
  "contractName": "ChildConstructorInitializableMock",
  "sourceName": "contracts/openzeppelin/mocks/InitializableMock.sol",
  "abi": [
    {
      "inputs": [],
      "stateMutability": "nonpayable",
      "type": "constructor"
    },
    {
      "anonymous": false,
      "inputs": [
        {
          "indexed": false,
          "internalType": "uint8",
          "name": "version",
          "type": "uint8"
        }
      ],
      "name": "Initialized",
      "type": "event"
    },
    {
      "inputs": [],
      "name": "childInitialize",
      "outputs": [],
      "stateMutability": "nonpayable",
      "type": "function"
    },
    {
      "inputs": [],
      "name": "childInitializerRan",
      "outputs": [
        {
          "internalType": "bool",
          "name": "",
          "type": "bool"
        }
      ],
      "stateMutability": "view",
      "type": "function"
    },
    {
      "inputs": [],
      "name": "initialize",
      "outputs": [],
      "stateMutability": "nonpayable",
      "type": "function"
    },
    {
      "inputs": [],
      "name": "initializeOnlyInitializing",
      "outputs": [],
      "stateMutability": "nonpayable",
      "type": "function"
    },
    {
      "inputs": [],
      "name": "initializerRan",
      "outputs": [
        {
          "internalType": "bool",
          "name": "",
          "type": "bool"
        }
      ],
      "stateMutability": "view",
      "type": "function"
    },
    {
      "inputs": [],
      "name": "onlyInitializingRan",
      "outputs": [
        {
          "internalType": "bool",
          "name": "",
          "type": "bool"
        }
      ],
      "stateMutability": "view",
      "type": "function"
    }
  ],
  "bytecode": "0x60806040523480156200001157600080fd5b5060008060019054906101000a900460ff16159050808015620000445750600160008054906101000a900460ff1660ff16105b806200008057506200006130620002de60201b620004261760201c565b1580156200007f5750600160008054906101000a900460ff1660ff16145b5b620000c2576040517f08c379a0000000000000000000000000000000000000000000000000000000008152600401620000b990620006c7565b60405180910390fd5b60016000806101000a81548160ff021916908360ff160217905550801562000100576001600060016101000a81548160ff0219169083151502179055505b620001106200030160201b60201c565b620001206200046960201b60201c565b80156200017c5760008060016101000a81548160ff0219169083151502179055507f7f26b83ff96e1f2b6a682f133852f6798a09c465da95921460cefb3847402498600160405162000173919062000743565b60405180910390a15b5060008060019054906101000a900460ff16159050808015620001af5750600160008054906101000a900460ff1660ff16105b80620001eb5750620001cc30620002de60201b620004261760201c565b158015620001ea5750600160008054906101000a900460ff1660ff16145b5b6200022d576040517f08c379a00000000000000000000000000000000000000000000000000000000081526004016200022490620006c7565b60405180910390fd5b60016000806101000a81548160ff021916908360ff16021790555080156200026b576001600060016101000a81548160ff0219169083151502179055505b6200027b620004d860201b60201c565b8015620002d75760008060016101000a81548160ff0219169083151502179055507f7f26b83ff96e1f2b6a682f133852f6798a09c465da95921460cefb38474024986001604051620002ce919062000743565b60405180910390a15b50620007f8565b6000808273ffffffffffffffffffffffffffffffffffffffff163b119050919050565b60008060019054906101000a900460ff16159050808015620003335750600160008054906101000a900460ff1660ff16105b806200036f57506200035030620002de60201b620004261760201c565b1580156200036e5750600160008054906101000a900460ff1660ff16145b5b620003b1576040517f08c379a0000000000000000000000000000000000000000000000000000000008152600401620003a890620006c7565b60405180910390fd5b60016000806101000a81548160ff021916908360ff1602179055508015620003ef576001600060016101000a81548160ff0219169083151502179055505b6001600060026101000a81548160ff0219169083151502179055508015620004665760008060016101000a81548160ff0219169083151502179055507f7f26b83ff96e1f2b6a682f133852f6798a09c465da95921460cefb384740249860016040516200045d919062000743565b60405180910390a15b50565b600060019054906101000a900460ff16620004bb576040517f08c379a0000000000000000000000000000000000000000000000000000000008152600401620004b290620007d6565b60405180910390fd5b6001600060036101000a81548160ff021916908315150217905550565b60008060019054906101000a900460ff161590508080156200050a5750600160008054906101000a900460ff1660ff16105b806200054657506200052730620002de60201b620004261760201c565b158015620005455750600160008054906101000a900460ff1660ff16145b5b62000588576040517f08c379a00000000000000000000000000000000000000000000000000000000081526004016200057f90620006c7565b60405180910390fd5b60016000806101000a81548160ff021916908360ff1602179055508015620005c6576001600060016101000a81548160ff0219169083151502179055505b6001600060046101000a81548160ff02191690831515021790555080156200063d5760008060016101000a81548160ff0219169083151502179055507f7f26b83ff96e1f2b6a682f133852f6798a09c465da95921460cefb3847402498600160405162000634919062000743565b60405180910390a15b50565b600082825260208201905092915050565b7f496e697469616c697a61626c653a20636f6e747261637420697320616c72656160008201527f647920696e697469616c697a6564000000000000000000000000000000000000602082015250565b6000620006af602e8362000640565b9150620006bc8262000651565b604082019050919050565b60006020820190508181036000830152620006e281620006a0565b9050919050565b6000819050919050565b600060ff82169050919050565b6000819050919050565b60006200072b620007256200071f84620006e9565b62000700565b620006f3565b9050919050565b6200073d816200070a565b82525050565b60006020820190506200075a600083018462000732565b92915050565b7f496e697469616c697a61626c653a20636f6e7472616374206973206e6f74206960008201527f6e697469616c697a696e67000000000000000000000000000000000000000000602082015250565b6000620007be602b8362000640565b9150620007cb8262000760565b604082019050919050565b60006020820190508181036000830152620007f181620007af565b9050919050565b61065780620008086000396000f3fe608060405234801561001057600080fd5b50600436106100625760003560e01c806310065ed2146100675780637cffe97a146100715780638129fc1c1461008f578063b23d810b14610099578063c3b8ef2a146100b7578063de74c703146100d5575b600080fd5b61006f6100df565b005b61007961014b565b6040516100869190610464565b60405180910390f35b61009761015e565b005b6100a16102af565b6040516100ae9190610464565b60405180910390f35b6100bf6102c2565b6040516100cc9190610464565b60405180910390f35b6100dd6102d5565b005b600060019054906101000a900460ff1661012e576040517f08c379a000000000000000000000000000000000000000000000000000000000815260040161012590610502565b60405180910390fd5b6001600060036101000a81548160ff021916908315150217905550565b600060039054906101000a900460ff1681565b60008060019054906101000a900460ff1615905080801561018f5750600160008054906101000a900460ff1660ff16105b806101bc575061019e30610426565b1580156101bb5750600160008054906101000a900460ff1660ff16145b5b6101fb576040517f08c379a00000000000000000000000000000000000000000000000000000000081526004016101f290610594565b60405180910390fd5b60016000806101000a81548160ff021916908360ff1602179055508015610238576001600060016101000a81548160ff0219169083151502179055505b6001600060026101000a81548160ff02191690831515021790555080156102ac5760008060016101000a81548160ff0219169083151502179055507f7f26b83ff96e1f2b6a682f133852f6798a09c465da95921460cefb384740249860016040516102a39190610606565b60405180910390a15b50565b600060049054906101000a900460ff1681565b600060029054906101000a900460ff1681565b60008060019054906101000a900460ff161590508080156103065750600160008054906101000a900460ff1660ff16105b80610333575061031530610426565b1580156103325750600160008054906101000a900460ff1660ff16145b5b610372576040517f08c379a000000000000000000000000000000000000000000000000000000000815260040161036990610594565b60405180910390fd5b60016000806101000a81548160ff021916908360ff16021790555080156103af576001600060016101000a81548160ff0219169083151502179055505b6001600060046101000a81548160ff02191690831515021790555080156104235760008060016101000a81548160ff0219169083151502179055507f7f26b83ff96e1f2b6a682f133852f6798a09c465da95921460cefb3847402498600160405161041a9190610606565b60405180910390a15b50565b6000808273ffffffffffffffffffffffffffffffffffffffff163b119050919050565b60008115159050919050565b61045e81610449565b82525050565b60006020820190506104796000830184610455565b92915050565b600082825260208201905092915050565b7f496e697469616c697a61626c653a20636f6e7472616374206973206e6f74206960008201527f6e697469616c697a696e67000000000000000000000000000000000000000000602082015250565b60006104ec602b8361047f565b91506104f782610490565b604082019050919050565b6000602082019050818103600083015261051b816104df565b9050919050565b7f496e697469616c697a61626c653a20636f6e747261637420697320616c72656160008201527f647920696e697469616c697a6564000000000000000000000000000000000000602082015250565b600061057e602e8361047f565b915061058982610522565b604082019050919050565b600060208201905081810360008301526105ad81610571565b9050919050565b6000819050919050565b600060ff82169050919050565b6000819050919050565b60006105f06105eb6105e6846105b4565b6105cb565b6105be565b9050919050565b610600816105d5565b82525050565b600060208201905061061b60008301846105f7565b9291505056fea2646970667358221220507d2f2173e1aa7526d94ab3791414b34eb027269c223d4874b64b01737a587e64736f6c63430008090033",
  "linkReferences": {},
  "deployedLinkReferences": {}
}