{
  "_format": "hh-sol-artifact-1",
  "contractName": "ConstructorInitializableMock",
  "sourceName": "contracts/openzeppelin/mocks/InitializableMock.sol",
  "abi": [
    {
      "inputs": [],
      "stateMutability": "nonpayable",
      "type": "constructor"
    },
    {
      "anonymous": false,
      "inputs": [
        {
          "indexed": false,
          "internalType": "uint8",
          "name": "version",
          "type": "uint8"
        }
      ],
      "name": "Initialized",
      "type": "event"
    },
    {
      "inputs": [],
      "name": "initialize",
      "outputs": [],
      "stateMutability": "nonpayable",
      "type": "function"
    },
    {
      "inputs": [],
      "name": "initializeOnlyInitializing",
      "outputs": [],
      "stateMutability": "nonpayable",
      "type": "function"
    },
    {
      "inputs": [],
      "name": "initializerRan",
      "outputs": [
        {
          "internalType": "bool",
          "name": "",
          "type": "bool"
        }
      ],
      "stateMutability": "view",
      "type": "function"
    },
    {
      "inputs": [],
      "name": "onlyInitializingRan",
      "outputs": [
        {
          "internalType": "bool",
          "name": "",
          "type": "bool"
        }
      ],
      "stateMutability": "view",
      "type": "function"
    }
  ],
  "bytecode": "0x60806040523480156200001157600080fd5b5060008060019054906101000a900460ff16159050808015620000445750600160008054906101000a900460ff1660ff16105b8062000080575062000061306200018360201b620002841760201c565b1580156200007f5750600160008054906101000a900460ff1660ff16145b5b620000c2576040517f08c379a0000000000000000000000000000000000000000000000000000000008152600401620000b99062000404565b60405180910390fd5b60016000806101000a81548160ff021916908360ff160217905550801562000100576001600060016101000a81548160ff0219169083151502179055505b62000110620001a660201b60201c565b620001206200030e60201b60201c565b80156200017c5760008060016101000a81548160ff0219169083151502179055507f7f26b83ff96e1f2b6a682f133852f6798a09c465da95921460cefb3847402498600160405162000173919062000480565b60405180910390a15b5062000535565b6000808273ffffffffffffffffffffffffffffffffffffffff163b119050919050565b60008060019054906101000a900460ff16159050808015620001d85750600160008054906101000a900460ff1660ff16105b80620002145750620001f5306200018360201b620002841760201c565b158015620002135750600160008054906101000a900460ff1660ff16145b5b62000256576040517f08c379a00000000000000000000000000000000000000000000000000000000081526004016200024d9062000404565b60405180910390fd5b60016000806101000a81548160ff021916908360ff160217905550801562000294576001600060016101000a81548160ff0219169083151502179055505b6001600060026101000a81548160ff02191690831515021790555080156200030b5760008060016101000a81548160ff0219169083151502179055507f7f26b83ff96e1f2b6a682f133852f6798a09c465da95921460cefb3847402498600160405162000302919062000480565b60405180910390a15b50565b600060019054906101000a900460ff1662000360576040517f08c379a0000000000000000000000000000000000000000000000000000000008152600401620003579062000513565b60405180910390fd5b6001600060036101000a81548160ff021916908315150217905550565b600082825260208201905092915050565b7f496e697469616c697a61626c653a20636f6e747261637420697320616c72656160008201527f647920696e697469616c697a6564000000000000000000000000000000000000602082015250565b6000620003ec602e836200037d565b9150620003f9826200038e565b604082019050919050565b600060208201905081810360008301526200041f81620003dd565b9050919050565b6000819050919050565b600060ff82169050919050565b6000819050919050565b600062000468620004626200045c8462000426565b6200043d565b62000430565b9050919050565b6200047a8162000447565b82525050565b60006020820190506200049760008301846200046f565b92915050565b7f496e697469616c697a61626c653a20636f6e7472616374206973206e6f74206960008201527f6e697469616c697a696e67000000000000000000000000000000000000000000602082015250565b6000620004fb602b836200037d565b915062000508826200049d565b604082019050919050565b600060208201905081810360008301526200052e81620004ec565b9050919050565b6104b580620005456000396000f3fe608060405234801561001057600080fd5b506004361061004c5760003560e01c806310065ed2146100515780637cffe97a1461005b5780638129fc1c14610079578063c3b8ef2a14610083575b600080fd5b6100596100a1565b005b61006361010d565b60405161007091906102c2565b60405180910390f35b610081610120565b005b61008b610271565b60405161009891906102c2565b60405180910390f35b600060019054906101000a900460ff166100f0576040517f08c379a00000000000000000000000000000000000000000000000000000000081526004016100e790610360565b60405180910390fd5b6001600060036101000a81548160ff021916908315150217905550565b600060039054906101000a900460ff1681565b60008060019054906101000a900460ff161590508080156101515750600160008054906101000a900460ff1660ff16105b8061017e575061016030610284565b15801561017d5750600160008054906101000a900460ff1660ff16145b5b6101bd576040517f08c379a00000000000000000000000000000000000000000000000000000000081526004016101b4906103f2565b60405180910390fd5b60016000806101000a81548160ff021916908360ff16021790555080156101fa576001600060016101000a81548160ff0219169083151502179055505b6001600060026101000a81548160ff021916908315150217905550801561026e5760008060016101000a81548160ff0219169083151502179055507f7f26b83ff96e1f2b6a682f133852f6798a09c465da95921460cefb384740249860016040516102659190610464565b60405180910390a15b50565b600060029054906101000a900460ff1681565b6000808273ffffffffffffffffffffffffffffffffffffffff163b119050919050565b60008115159050919050565b6102bc816102a7565b82525050565b60006020820190506102d760008301846102b3565b92915050565b600082825260208201905092915050565b7f496e697469616c697a61626c653a20636f6e7472616374206973206e6f74206960008201527f6e697469616c697a696e67000000000000000000000000000000000000000000602082015250565b600061034a602b836102dd565b9150610355826102ee565b604082019050919050565b600060208201905081810360008301526103798161033d565b9050919050565b7f496e697469616c697a61626c653a20636f6e747261637420697320616c72656160008201527f647920696e697469616c697a6564000000000000000000000000000000000000602082015250565b60006103dc602e836102dd565b91506103e782610380565b604082019050919050565b6000602082019050818103600083015261040b816103cf565b9050919050565b6000819050919050565b600060ff82169050919050565b6000819050919050565b600061044e61044961044484610412565b610429565b61041c565b9050919050565b61045e81610433565b82525050565b60006020820190506104796000830184610455565b9291505056fea26469706673582212208796f958575ee1ca65bd2cdfbb83940615f03c31a2c3b6807ab4dae4e856fb0a64736f6c63430008090033",
  "linkReferences": {},
  "deployedLinkReferences": {}
}