{
  "_format": "hh-sol-artifact-1",
  "contractName": "ERC20PermitNoRevertMock",
  "sourceName": "contracts/openzeppelin/mocks/SafeERC20Helper.sol",
  "abi": [
    {
      "anonymous": false,
      "inputs": [
        {
          "indexed": true,
          "internalType": "address",
          "name": "owner",
          "type": "address"
        },
        {
          "indexed": true,
          "internalType": "address",
          "name": "spender",
          "type": "address"
        },
        {
          "indexed": false,
          "internalType": "uint256",
          "name": "value",
          "type": "uint256"
        }
      ],
      "name": "Approval",
      "type": "event"
    },
    {
      "anonymous": false,
      "inputs": [
        {
          "indexed": true,
          "internalType": "address",
          "name": "from",
          "type": "address"
        },
        {
          "indexed": true,
          "internalType": "address",
          "name": "to",
          "type": "address"
        },
        {
          "indexed": false,
          "internalType": "uint256",
          "name": "value",
          "type": "uint256"
        }
      ],
      "name": "Transfer",
      "type": "event"
    },
    {
      "inputs": [],
      "name": "DOMAIN_SEPARATOR",
      "outputs": [
        {
          "internalType": "bytes32",
          "name": "",
          "type": "bytes32"
        }
      ],
      "stateMutability": "view",
      "type": "function"
    },
    {
      "inputs": [
        {
          "internalType": "address",
          "name": "owner",
          "type": "address"
        },
        {
          "internalType": "address",
          "name": "spender",
          "type": "address"
        }
      ],
      "name": "allowance",
      "outputs": [
        {
          "internalType": "uint256",
          "name": "",
          "type": "uint256"
        }
      ],
      "stateMutability": "view",
      "type": "function"
    },
    {
      "inputs": [
        {
          "internalType": "address",
          "name": "spender",
          "type": "address"
        },
        {
          "internalType": "uint256",
          "name": "amount",
          "type": "uint256"
        }
      ],
      "name": "approve",
      "outputs": [
        {
          "internalType": "bool",
          "name": "",
          "type": "bool"
        }
      ],
      "stateMutability": "nonpayable",
      "type": "function"
    },
    {
      "inputs": [
        {
          "internalType": "address",
          "name": "account",
          "type": "address"
        }
      ],
      "name": "balanceOf",
      "outputs": [
        {
          "internalType": "uint256",
          "name": "",
          "type": "uint256"
        }
      ],
      "stateMutability": "view",
      "type": "function"
    },
    {
      "inputs": [],
      "name": "decimals",
      "outputs": [
        {
          "internalType": "uint8",
          "name": "",
          "type": "uint8"
        }
      ],
      "stateMutability": "view",
      "type": "function"
    },
    {
      "inputs": [
        {
          "internalType": "address",
          "name": "spender",
          "type": "address"
        },
        {
          "internalType": "uint256",
          "name": "subtractedValue",
          "type": "uint256"
        }
      ],
      "name": "decreaseAllowance",
      "outputs": [
        {
          "internalType": "bool",
          "name": "",
          "type": "bool"
        }
      ],
      "stateMutability": "nonpayable",
      "type": "function"
    },
    {
      "inputs": [],
      "name": "getChainId",
      "outputs": [
        {
          "internalType": "uint256",
          "name": "",
          "type": "uint256"
        }
      ],
      "stateMutability": "view",
      "type": "function"
    },
    {
      "inputs": [
        {
          "internalType": "address",
          "name": "spender",
          "type": "address"
        },
        {
          "internalType": "uint256",
          "name": "addedValue",
          "type": "uint256"
        }
      ],
      "name": "increaseAllowance",
      "outputs": [
        {
          "internalType": "bool",
          "name": "",
          "type": "bool"
        }
      ],
      "stateMutability": "nonpayable",
      "type": "function"
    },
    {
      "inputs": [],
      "name": "name",
      "outputs": [
        {
          "internalType": "string",
          "name": "",
          "type": "string"
        }
      ],
      "stateMutability": "view",
      "type": "function"
    },
    {
      "inputs": [
        {
          "internalType": "address",
          "name": "owner",
          "type": "address"
        }
      ],
      "name": "nonces",
      "outputs": [
        {
          "internalType": "uint256",
          "name": "",
          "type": "uint256"
        }
      ],
      "stateMutability": "view",
      "type": "function"
    },
    {
      "inputs": [
        {
          "internalType": "address",
          "name": "owner",
          "type": "address"
        },
        {
          "internalType": "address",
          "name": "spender",
          "type": "address"
        },
        {
          "internalType": "uint256",
          "name": "value",
          "type": "uint256"
        },
        {
          "internalType": "uint256",
          "name": "deadline",
          "type": "uint256"
        },
        {
          "internalType": "uint8",
          "name": "v",
          "type": "uint8"
        },
        {
          "internalType": "bytes32",
          "name": "r",
          "type": "bytes32"
        },
        {
          "internalType": "bytes32",
          "name": "s",
          "type": "bytes32"
        }
      ],
      "name": "permit",
      "outputs": [],
      "stateMutability": "nonpayable",
      "type": "function"
    },
    {
      "inputs": [
        {
          "internalType": "address",
          "name": "owner",
          "type": "address"
        },
        {
          "internalType": "address",
          "name": "spender",
          "type": "address"
        },
        {
          "internalType": "uint256",
          "name": "value",
          "type": "uint256"
        },
        {
          "internalType": "uint256",
          "name": "deadline",
          "type": "uint256"
        },
        {
          "internalType": "uint8",
          "name": "v",
          "type": "uint8"
        },
        {
          "internalType": "bytes32",
          "name": "r",
          "type": "bytes32"
        },
        {
          "internalType": "bytes32",
          "name": "s",
          "type": "bytes32"
        }
      ],
      "name": "permitThatMayRevert",
      "outputs": [],
      "stateMutability": "nonpayable",
      "type": "function"
    },
    {
      "inputs": [],
      "name": "symbol",
      "outputs": [
        {
          "internalType": "string",
          "name": "",
          "type": "string"
        }
      ],
      "stateMutability": "view",
      "type": "function"
    },
    {
      "inputs": [],
      "name": "totalSupply",
      "outputs": [
        {
          "internalType": "uint256",
          "name": "",
          "type": "uint256"
        }
      ],
      "stateMutability": "view",
      "type": "function"
    },
    {
      "inputs": [
        {
          "internalType": "address",
          "name": "to",
          "type": "address"
        },
        {
          "internalType": "uint256",
          "name": "amount",
          "type": "uint256"
        }
      ],
      "name": "transfer",
      "outputs": [
        {
          "internalType": "bool",
          "name": "",
          "type": "bool"
        }
      ],
      "stateMutability": "nonpayable",
      "type": "function"
    },
    {
      "inputs": [
        {
          "internalType": "address",
          "name": "from",
          "type": "address"
        },
        {
          "internalType": "address",
          "name": "to",
          "type": "address"
        },
        {
          "internalType": "uint256",
          "name": "amount",
          "type": "uint256"
        }
      ],
      "name": "transferFrom",
      "outputs": [
        {
          "internalType": "bool",
          "name": "",
          "type": "bool"
        }
      ],
      "stateMutability": "nonpayable",
      "type": "function"
    }
  ],
  "bytecode": "0x6101406040523480156200001257600080fd5b506040518060400160405280601781526020017f45524332305065726d69744e6f5265766572744d6f636b000000000000000000815250806040518060400160405280600181526020017f31000000000000000000000000000000000000000000000000000000000000008152506040518060400160405280601781526020017f45524332305065726d69744e6f5265766572744d6f636b0000000000000000008152506040518060400160405280601781526020017f45524332305065726d69744e6f5265766572744d6f636b00000000000000000081525081600390805190602001906200010492919062000215565b5080600490805190602001906200011d92919062000215565b50505060008280519060200120905060008280519060200120905060007f8b73c3c69bb8fe3d512ecc4cf759cc79239f7b179b0ffacaa9a75d522b39400f90508260e081815250508161010081815250504660a0818152505062000189818484620001d960201b60201c565b608081815250503073ffffffffffffffffffffffffffffffffffffffff1660c08173ffffffffffffffffffffffffffffffffffffffff168152505080610120818152505050505050505062000402565b60008383834630604051602001620001f695949392919062000340565b6040516020818303038152906040528051906020012090509392505050565b8280546200022390620003cc565b90600052602060002090601f01602090048101928262000247576000855562000293565b82601f106200026257805160ff191683800117855562000293565b8280016001018555821562000293579182015b828111156200029257825182559160200191906001019062000275565b5b509050620002a29190620002a6565b5090565b5b80821115620002c1576000816000905550600101620002a7565b5090565b6000819050919050565b620002da81620002c5565b82525050565b6000819050919050565b620002f581620002e0565b82525050565b600073ffffffffffffffffffffffffffffffffffffffff82169050919050565b60006200032882620002fb565b9050919050565b6200033a816200031b565b82525050565b600060a082019050620003576000830188620002cf565b620003666020830187620002cf565b620003756040830186620002cf565b620003846060830185620002ea565b6200039360808301846200032f565b9695505050505050565b7f4e487b7100000000000000000000000000000000000000000000000000000000600052602260045260246000fd5b60006002820490506001821680620003e557607f821691505b60208210811415620003fc57620003fb6200039d565b5b50919050565b60805160a05160c05160e0516101005161012051612002620004526000396000610d2101526000610d6301526000610d4201526000610c7701526000610ccd01526000610cf601526120026000f3fe608060405234801561001057600080fd5b50600436106101005760003560e01c806370a0823111610097578063a457c2d711610066578063a457c2d7146102c5578063a9059cbb146102f5578063d505accf14610325578063dd62ed3e1461034157610100565b806370a082311461022b5780637ecebe001461025b57806395d89b411461028b57806396a9fc31146102a957610100565b8063313ce567116100d3578063313ce567146101a15780633408e470146101bf5780633644e515146101dd57806339509351146101fb57610100565b806306fdde0314610105578063095ea7b31461012357806318160ddd1461015357806323b872dd14610171575b600080fd5b61010d610371565b60405161011a91906112f7565b60405180910390f35b61013d600480360381019061013891906113b2565b610403565b60405161014a919061140d565b60405180910390f35b61015b610426565b6040516101689190611437565b60405180910390f35b61018b60048036038101906101869190611452565b610430565b604051610198919061140d565b60405180910390f35b6101a961045f565b6040516101b691906114c1565b60405180910390f35b6101c7610468565b6040516101d49190611437565b60405180910390f35b6101e5610470565b6040516101f291906114f5565b60405180910390f35b610215600480360381019061021091906113b2565b61047f565b604051610222919061140d565b60405180910390f35b61024560048036038101906102409190611510565b6104b6565b6040516102529190611437565b60405180910390f35b61027560048036038101906102709190611510565b6104fe565b6040516102829190611437565b60405180910390f35b61029361054e565b6040516102a091906112f7565b60405180910390f35b6102c360048036038101906102be9190611595565b6105e0565b005b6102df60048036038101906102da91906113b2565b6105f8565b6040516102ec919061140d565b60405180910390f35b61030f600480360381019061030a91906113b2565b61066f565b60405161031c919061140d565b60405180910390f35b61033f600480360381019061033a9190611595565b610692565b005b61035b60048036038101906103569190611637565b610715565b6040516103689190611437565b60405180910390f35b606060038054610380906116a6565b80601f01602080910402602001604051908101604052809291908181526020018280546103ac906116a6565b80156103f95780601f106103ce576101008083540402835291602001916103f9565b820191906000526020600020905b8154815290600101906020018083116103dc57829003601f168201915b5050505050905090565b60008061040e61079c565b905061041b8185856107a4565b600191505092915050565b6000600254905090565b60008061043b61079c565b905061044885828561096f565b6104538585856109fb565b60019150509392505050565b60006012905090565b600046905090565b600061047a610c73565b905090565b60008061048a61079c565b90506104ab81858561049c8589610715565b6104a69190611707565b6107a4565b600191505092915050565b60008060008373ffffffffffffffffffffffffffffffffffffffff1673ffffffffffffffffffffffffffffffffffffffff168152602001908152602001600020549050919050565b6000610547600560008473ffffffffffffffffffffffffffffffffffffffff1673ffffffffffffffffffffffffffffffffffffffff168152602001908152602001600020610d8d565b9050919050565b60606004805461055d906116a6565b80601f0160208091040260200160405190810160405280929190818152602001828054610589906116a6565b80156105d65780601f106105ab576101008083540402835291602001916105d6565b820191906000526020600020905b8154815290600101906020018083116105b957829003601f168201915b5050505050905090565b6105ef87878787878787610d9b565b50505050505050565b60008061060361079c565b905060006106118286610715565b905083811015610656576040517f08c379a000000000000000000000000000000000000000000000000000000000815260040161064d906117cf565b60405180910390fd5b61066382868684036107a4565b60019250505092915050565b60008061067a61079c565b90506106878185856109fb565b600191505092915050565b3073ffffffffffffffffffffffffffffffffffffffff166396a9fc31888888888888886040518863ffffffff1660e01b81526004016106d797969594939291906117fe565b600060405180830381600087803b1580156106f157600080fd5b505af1925050508015610702575060015b61070b5761070c565b5b50505050505050565b6000600160008473ffffffffffffffffffffffffffffffffffffffff1673ffffffffffffffffffffffffffffffffffffffff16815260200190815260200160002060008373ffffffffffffffffffffffffffffffffffffffff1673ffffffffffffffffffffffffffffffffffffffff16815260200190815260200160002054905092915050565b600033905090565b600073ffffffffffffffffffffffffffffffffffffffff168373ffffffffffffffffffffffffffffffffffffffff161415610814576040517f08c379a000000000000000000000000000000000000000000000000000000000815260040161080b906118df565b60405180910390fd5b600073ffffffffffffffffffffffffffffffffffffffff168273ffffffffffffffffffffffffffffffffffffffff161415610884576040517f08c379a000000000000000000000000000000000000000000000000000000000815260040161087b90611971565b60405180910390fd5b80600160008573ffffffffffffffffffffffffffffffffffffffff1673ffffffffffffffffffffffffffffffffffffffff16815260200190815260200160002060008473ffffffffffffffffffffffffffffffffffffffff1673ffffffffffffffffffffffffffffffffffffffff168152602001908152602001600020819055508173ffffffffffffffffffffffffffffffffffffffff168373ffffffffffffffffffffffffffffffffffffffff167f8c5be1e5ebec7d5bd14f71427d1e84f3dd0314c0f7b2291e5b200ac8c7c3b925836040516109629190611437565b60405180910390a3505050565b600061097b8484610715565b90507fffffffffffffffffffffffffffffffffffffffffffffffffffffffffffffffff81146109f557818110156109e7576040517f08c379a00000000000000000000000000000000000000000000000000000000081526004016109de906119dd565b60405180910390fd5b6109f484848484036107a4565b5b50505050565b600073ffffffffffffffffffffffffffffffffffffffff168373ffffffffffffffffffffffffffffffffffffffff161415610a6b576040517f08c379a0000000000000000000000000000000000000000000000000000000008152600401610a6290611a6f565b60405180910390fd5b600073ffffffffffffffffffffffffffffffffffffffff168273ffffffffffffffffffffffffffffffffffffffff161415610adb576040517f08c379a0000000000000000000000000000000000000000000000000000000008152600401610ad290611b01565b60405180910390fd5b610ae6838383610edd565b60008060008573ffffffffffffffffffffffffffffffffffffffff1673ffffffffffffffffffffffffffffffffffffffff16815260200190815260200160002054905081811015610b6c576040517f08c379a0000000000000000000000000000000000000000000000000000000008152600401610b6390611b93565b60405180910390fd5b8181036000808673ffffffffffffffffffffffffffffffffffffffff1673ffffffffffffffffffffffffffffffffffffffff16815260200190815260200160002081905550816000808573ffffffffffffffffffffffffffffffffffffffff1673ffffffffffffffffffffffffffffffffffffffff168152602001908152602001600020600082825401925050819055508273ffffffffffffffffffffffffffffffffffffffff168473ffffffffffffffffffffffffffffffffffffffff167fddf252ad1be2c89b69c2b068fc378daa952ba7f163c4a11628f55a4df523b3ef84604051610c5a9190611437565b60405180910390a3610c6d848484610ee2565b50505050565b60007f000000000000000000000000000000000000000000000000000000000000000073ffffffffffffffffffffffffffffffffffffffff163073ffffffffffffffffffffffffffffffffffffffff16148015610cef57507f000000000000000000000000000000000000000000000000000000000000000046145b15610d1c577f00000000000000000000000000000000000000000000000000000000000000009050610d8a565b610d877f00000000000000000000000000000000000000000000000000000000000000007f00000000000000000000000000000000000000000000000000000000000000007f0000000000000000000000000000000000000000000000000000000000000000610ee7565b90505b90565b600081600001549050919050565b83421115610dde576040517f08c379a0000000000000000000000000000000000000000000000000000000008152600401610dd590611bff565b60405180910390fd5b60007f6e71edae12b1b97f4d1f60370fef10105fa2faae0126114a169c64845d6126c9888888610e0d8c610f21565b89604051602001610e2396959493929190611c1f565b6040516020818303038152906040528051906020012090506000610e4682610f7f565b90506000610e5682878787610f99565b90508973ffffffffffffffffffffffffffffffffffffffff168173ffffffffffffffffffffffffffffffffffffffff1614610ec6576040517f08c379a0000000000000000000000000000000000000000000000000000000008152600401610ebd90611ccc565b60405180910390fd5b610ed18a8a8a6107a4565b50505050505050505050565b505050565b505050565b60008383834630604051602001610f02959493929190611cec565b6040516020818303038152906040528051906020012090509392505050565b600080600560008473ffffffffffffffffffffffffffffffffffffffff1673ffffffffffffffffffffffffffffffffffffffff1681526020019081526020016000209050610f6e81610d8d565b9150610f7981610fc4565b50919050565b6000610f92610f8c610c73565b83610fda565b9050919050565b6000806000610faa8787878761100d565b91509150610fb7816110f0565b8192505050949350505050565b6001816000016000828254019250508190555050565b60008282604051602001610fef929190611db7565b60405160208183030381529060405280519060200120905092915050565b6000807f7fffffffffffffffffffffffffffffff5d576e7357a4501ddfe92f46681b20a08360001c11156110485760006003915091506110e7565b60006001878787876040516000815260200160405260405161106d9493929190611dee565b6020604051602081039080840390855afa15801561108f573d6000803e3d6000fd5b505050602060405103519050600073ffffffffffffffffffffffffffffffffffffffff168173ffffffffffffffffffffffffffffffffffffffff1614156110de576000600192509250506110e7565b80600092509250505b94509492505050565b6000600481111561110457611103611e33565b5b81600481111561111757611116611e33565b5b14156111225761125b565b6001600481111561113657611135611e33565b5b81600481111561114957611148611e33565b5b141561118a576040517f08c379a000000000000000000000000000000000000000000000000000000000815260040161118190611eae565b60405180910390fd5b6002600481111561119e5761119d611e33565b5b8160048111156111b1576111b0611e33565b5b14156111f2576040517f08c379a00000000000000000000000000000000000000000000000000000000081526004016111e990611f1a565b60405180910390fd5b6003600481111561120657611205611e33565b5b81600481111561121957611218611e33565b5b141561125a576040517f08c379a000000000000000000000000000000000000000000000000000000000815260040161125190611fac565b60405180910390fd5b5b50565b600081519050919050565b600082825260208201905092915050565b60005b8381101561129857808201518184015260208101905061127d565b838111156112a7576000848401525b50505050565b6000601f19601f8301169050919050565b60006112c98261125e565b6112d38185611269565b93506112e381856020860161127a565b6112ec816112ad565b840191505092915050565b6000602082019050818103600083015261131181846112be565b905092915050565b600080fd5b600073ffffffffffffffffffffffffffffffffffffffff82169050919050565b60006113498261131e565b9050919050565b6113598161133e565b811461136457600080fd5b50565b60008135905061137681611350565b92915050565b6000819050919050565b61138f8161137c565b811461139a57600080fd5b50565b6000813590506113ac81611386565b92915050565b600080604083850312156113c9576113c8611319565b5b60006113d785828601611367565b92505060206113e88582860161139d565b9150509250929050565b60008115159050919050565b611407816113f2565b82525050565b600060208201905061142260008301846113fe565b92915050565b6114318161137c565b82525050565b600060208201905061144c6000830184611428565b92915050565b60008060006060848603121561146b5761146a611319565b5b600061147986828701611367565b935050602061148a86828701611367565b925050604061149b8682870161139d565b9150509250925092565b600060ff82169050919050565b6114bb816114a5565b82525050565b60006020820190506114d660008301846114b2565b92915050565b6000819050919050565b6114ef816114dc565b82525050565b600060208201905061150a60008301846114e6565b92915050565b60006020828403121561152657611525611319565b5b600061153484828501611367565b91505092915050565b611546816114a5565b811461155157600080fd5b50565b6000813590506115638161153d565b92915050565b611572816114dc565b811461157d57600080fd5b50565b60008135905061158f81611569565b92915050565b600080600080600080600060e0888a0312156115b4576115b3611319565b5b60006115c28a828b01611367565b97505060206115d38a828b01611367565b96505060406115e48a828b0161139d565b95505060606115f58a828b0161139d565b94505060806116068a828b01611554565b93505060a06116178a828b01611580565b92505060c06116288a828b01611580565b91505092959891949750929550565b6000806040838503121561164e5761164d611319565b5b600061165c85828601611367565b925050602061166d85828601611367565b9150509250929050565b7f4e487b7100000000000000000000000000000000000000000000000000000000600052602260045260246000fd5b600060028204905060018216806116be57607f821691505b602082108114156116d2576116d1611677565b5b50919050565b7f4e487b7100000000000000000000000000000000000000000000000000000000600052601160045260246000fd5b60006117128261137c565b915061171d8361137c565b9250827fffffffffffffffffffffffffffffffffffffffffffffffffffffffffffffffff03821115611752576117516116d8565b5b828201905092915050565b7f45524332303a2064656372656173656420616c6c6f77616e63652062656c6f7760008201527f207a65726f000000000000000000000000000000000000000000000000000000602082015250565b60006117b9602583611269565b91506117c48261175d565b604082019050919050565b600060208201905081810360008301526117e8816117ac565b9050919050565b6117f88161133e565b82525050565b600060e082019050611813600083018a6117ef565b61182060208301896117ef565b61182d6040830188611428565b61183a6060830187611428565b61184760808301866114b2565b61185460a08301856114e6565b61186160c08301846114e6565b98975050505050505050565b7f45524332303a20617070726f76652066726f6d20746865207a65726f2061646460008201527f7265737300000000000000000000000000000000000000000000000000000000602082015250565b60006118c9602483611269565b91506118d48261186d565b604082019050919050565b600060208201905081810360008301526118f8816118bc565b9050919050565b7f45524332303a20617070726f766520746f20746865207a65726f20616464726560008201527f7373000000000000000000000000000000000000000000000000000000000000602082015250565b600061195b602283611269565b9150611966826118ff565b604082019050919050565b6000602082019050818103600083015261198a8161194e565b9050919050565b7f45524332303a20696e73756666696369656e7420616c6c6f77616e6365000000600082015250565b60006119c7601d83611269565b91506119d282611991565b602082019050919050565b600060208201905081810360008301526119f6816119ba565b9050919050565b7f45524332303a207472616e736665722066726f6d20746865207a65726f20616460008201527f6472657373000000000000000000000000000000000000000000000000000000602082015250565b6000611a59602583611269565b9150611a64826119fd565b604082019050919050565b60006020820190508181036000830152611a8881611a4c565b9050919050565b7f45524332303a207472616e7366657220746f20746865207a65726f206164647260008201527f6573730000000000000000000000000000000000000000000000000000000000602082015250565b6000611aeb602383611269565b9150611af682611a8f565b604082019050919050565b60006020820190508181036000830152611b1a81611ade565b9050919050565b7f45524332303a207472616e7366657220616d6f756e742065786365656473206260008201527f616c616e63650000000000000000000000000000000000000000000000000000602082015250565b6000611b7d602683611269565b9150611b8882611b21565b604082019050919050565b60006020820190508181036000830152611bac81611b70565b9050919050565b7f45524332305065726d69743a206578706972656420646561646c696e65000000600082015250565b6000611be9601d83611269565b9150611bf482611bb3565b602082019050919050565b60006020820190508181036000830152611c1881611bdc565b9050919050565b600060c082019050611c3460008301896114e6565b611c4160208301886117ef565b611c4e60408301876117ef565b611c5b6060830186611428565b611c686080830185611428565b611c7560a0830184611428565b979650505050505050565b7f45524332305065726d69743a20696e76616c6964207369676e61747572650000600082015250565b6000611cb6601e83611269565b9150611cc182611c80565b602082019050919050565b60006020820190508181036000830152611ce581611ca9565b9050919050565b600060a082019050611d0160008301886114e6565b611d0e60208301876114e6565b611d1b60408301866114e6565b611d286060830185611428565b611d3560808301846117ef565b9695505050505050565b600081905092915050565b7f1901000000000000000000000000000000000000000000000000000000000000600082015250565b6000611d80600283611d3f565b9150611d8b82611d4a565b600282019050919050565b6000819050919050565b611db1611dac826114dc565b611d96565b82525050565b6000611dc282611d73565b9150611dce8285611da0565b602082019150611dde8284611da0565b6020820191508190509392505050565b6000608082019050611e0360008301876114e6565b611e1060208301866114b2565b611e1d60408301856114e6565b611e2a60608301846114e6565b95945050505050565b7f4e487b7100000000000000000000000000000000000000000000000000000000600052602160045260246000fd5b7f45434453413a20696e76616c6964207369676e61747572650000000000000000600082015250565b6000611e98601883611269565b9150611ea382611e62565b602082019050919050565b60006020820190508181036000830152611ec781611e8b565b9050919050565b7f45434453413a20696e76616c6964207369676e6174757265206c656e67746800600082015250565b6000611f04601f83611269565b9150611f0f82611ece565b602082019050919050565b60006020820190508181036000830152611f3381611ef7565b9050919050565b7f45434453413a20696e76616c6964207369676e6174757265202773272076616c60008201527f7565000000000000000000000000000000000000000000000000000000000000602082015250565b6000611f96602283611269565b9150611fa182611f3a565b604082019050919050565b60006020820190508181036000830152611fc581611f89565b905091905056fea2646970667358221220bf028f0b618237d8d4bb18d5669fd32ac6ad09fe0a9fa640f53d8aaabacf9b5664736f6c63430008090033",
  "linkReferences": {},
  "deployedLinkReferences": {}
}