{
  "_format": "hh-sol-artifact-1",
  "contractName": "GovernorMock",
  "sourceName": "contracts/openzeppelin/mocks/GovernorMock.sol",
  "abi": [
    {
      "inputs": [
        {
          "internalType": "string",
          "name": "name_",
          "type": "string"
        },
        {
          "internalType": "contract IVotes",
          "name": "token_",
          "type": "address"
        },
        {
          "internalType": "uint256",
          "name": "votingDelay_",
          "type": "uint256"
        },
        {
          "internalType": "uint256",
          "name": "votingPeriod_",
          "type": "uint256"
        },
        {
          "internalType": "uint256",
          "name": "quorumNumerator_",
          "type": "uint256"
        }
      ],
      "stateMutability": "nonpayable",
      "type": "constructor"
    },
    {
      "inputs": [],
      "name": "Empty",
      "type": "error"
    },
    {
      "anonymous": false,
      "inputs": [
        {
          "indexed": false,
          "internalType": "uint256",
          "name": "proposalId",
          "type": "uint256"
        }
      ],
      "name": "ProposalCanceled",
      "type": "event"
    },
    {
      "anonymous": false,
      "inputs": [
        {
          "indexed": false,
          "internalType": "uint256",
          "name": "proposalId",
          "type": "uint256"
        },
        {
          "indexed": false,
          "internalType": "address",
          "name": "proposer",
          "type": "address"
        },
        {
          "indexed": false,
          "internalType": "address[]",
          "name": "targets",
          "type": "address[]"
        },
        {
          "indexed": false,
          "internalType": "uint256[]",
          "name": "values",
          "type": "uint256[]"
        },
        {
          "indexed": false,
          "internalType": "string[]",
          "name": "signatures",
          "type": "string[]"
        },
        {
          "indexed": false,
          "internalType": "bytes[]",
          "name": "calldatas",
          "type": "bytes[]"
        },
        {
          "indexed": false,
          "internalType": "uint256",
          "name": "startBlock",
          "type": "uint256"
        },
        {
          "indexed": false,
          "internalType": "uint256",
          "name": "endBlock",
          "type": "uint256"
        },
        {
          "indexed": false,
          "internalType": "string",
          "name": "description",
          "type": "string"
        }
      ],
      "name": "ProposalCreated",
      "type": "event"
    },
    {
      "anonymous": false,
      "inputs": [
        {
          "indexed": false,
          "internalType": "uint256",
          "name": "proposalId",
          "type": "uint256"
        }
      ],
      "name": "ProposalExecuted",
      "type": "event"
    },
    {
      "anonymous": false,
      "inputs": [
        {
          "indexed": false,
          "internalType": "uint256",
          "name": "oldProposalThreshold",
          "type": "uint256"
        },
        {
          "indexed": false,
          "internalType": "uint256",
          "name": "newProposalThreshold",
          "type": "uint256"
        }
      ],
      "name": "ProposalThresholdSet",
      "type": "event"
    },
    {
      "anonymous": false,
      "inputs": [
        {
          "indexed": false,
          "internalType": "uint256",
          "name": "oldQuorumNumerator",
          "type": "uint256"
        },
        {
          "indexed": false,
          "internalType": "uint256",
          "name": "newQuorumNumerator",
          "type": "uint256"
        }
      ],
      "name": "QuorumNumeratorUpdated",
      "type": "event"
    },
    {
      "anonymous": false,
      "inputs": [
        {
          "indexed": true,
          "internalType": "address",
          "name": "voter",
          "type": "address"
        },
        {
          "indexed": false,
          "internalType": "uint256",
          "name": "proposalId",
          "type": "uint256"
        },
        {
          "indexed": false,
          "internalType": "uint8",
          "name": "support",
          "type": "uint8"
        },
        {
          "indexed": false,
          "internalType": "uint256",
          "name": "weight",
          "type": "uint256"
        },
        {
          "indexed": false,
          "internalType": "string",
          "name": "reason",
          "type": "string"
        }
      ],
      "name": "VoteCast",
      "type": "event"
    },
    {
      "anonymous": false,
      "inputs": [
        {
          "indexed": true,
          "internalType": "address",
          "name": "voter",
          "type": "address"
        },
        {
          "indexed": false,
          "internalType": "uint256",
          "name": "proposalId",
          "type": "uint256"
        },
        {
          "indexed": false,
          "internalType": "uint8",
          "name": "support",
          "type": "uint8"
        },
        {
          "indexed": false,
          "internalType": "uint256",
          "name": "weight",
          "type": "uint256"
        },
        {
          "indexed": false,
          "internalType": "string",
          "name": "reason",
          "type": "string"
        },
        {
          "indexed": false,
          "internalType": "bytes",
          "name": "params",
          "type": "bytes"
        }
      ],
      "name": "VoteCastWithParams",
      "type": "event"
    },
    {
      "anonymous": false,
      "inputs": [
        {
          "indexed": false,
          "internalType": "uint256",
          "name": "oldVotingDelay",
          "type": "uint256"
        },
        {
          "indexed": false,
          "internalType": "uint256",
          "name": "newVotingDelay",
          "type": "uint256"
        }
      ],
      "name": "VotingDelaySet",
      "type": "event"
    },
    {
      "anonymous": false,
      "inputs": [
        {
          "indexed": false,
          "internalType": "uint256",
          "name": "oldVotingPeriod",
          "type": "uint256"
        },
        {
          "indexed": false,
          "internalType": "uint256",
          "name": "newVotingPeriod",
          "type": "uint256"
        }
      ],
      "name": "VotingPeriodSet",
      "type": "event"
    },
    {
      "inputs": [],
      "name": "BALLOT_TYPEHASH",
      "outputs": [
        {
          "internalType": "bytes32",
          "name": "",
          "type": "bytes32"
        }
      ],
      "stateMutability": "view",
      "type": "function"
    },
    {
      "inputs": [],
      "name": "COUNTING_MODE",
      "outputs": [
        {
          "internalType": "string",
          "name": "",
          "type": "string"
        }
      ],
      "stateMutability": "pure",
      "type": "function"
    },
    {
      "inputs": [],
      "name": "EXTENDED_BALLOT_TYPEHASH",
      "outputs": [
        {
          "internalType": "bytes32",
          "name": "",
          "type": "bytes32"
        }
      ],
      "stateMutability": "view",
      "type": "function"
    },
    {
      "inputs": [
        {
          "internalType": "address[]",
          "name": "targets",
          "type": "address[]"
        },
        {
          "internalType": "uint256[]",
          "name": "values",
          "type": "uint256[]"
        },
        {
          "internalType": "bytes[]",
          "name": "calldatas",
          "type": "bytes[]"
        },
        {
          "internalType": "bytes32",
          "name": "salt",
          "type": "bytes32"
        }
      ],
      "name": "cancel",
      "outputs": [
        {
          "internalType": "uint256",
          "name": "proposalId",
          "type": "uint256"
        }
      ],
      "stateMutability": "nonpayable",
      "type": "function"
    },
    {
      "inputs": [
        {
          "internalType": "uint256",
          "name": "proposalId",
          "type": "uint256"
        },
        {
          "internalType": "uint8",
          "name": "support",
          "type": "uint8"
        }
      ],
      "name": "castVote",
      "outputs": [
        {
          "internalType": "uint256",
          "name": "",
          "type": "uint256"
        }
      ],
      "stateMutability": "nonpayable",
      "type": "function"
    },
    {
      "inputs": [
        {
          "internalType": "uint256",
          "name": "proposalId",
          "type": "uint256"
        },
        {
          "internalType": "uint8",
          "name": "support",
          "type": "uint8"
        },
        {
          "internalType": "uint8",
          "name": "v",
          "type": "uint8"
        },
        {
          "internalType": "bytes32",
          "name": "r",
          "type": "bytes32"
        },
        {
          "internalType": "bytes32",
          "name": "s",
          "type": "bytes32"
        }
      ],
      "name": "castVoteBySig",
      "outputs": [
        {
          "internalType": "uint256",
          "name": "",
          "type": "uint256"
        }
      ],
      "stateMutability": "nonpayable",
      "type": "function"
    },
    {
      "inputs": [
        {
          "internalType": "uint256",
          "name": "proposalId",
          "type": "uint256"
        },
        {
          "internalType": "uint8",
          "name": "support",
          "type": "uint8"
        },
        {
          "internalType": "string",
          "name": "reason",
          "type": "string"
        }
      ],
      "name": "castVoteWithReason",
      "outputs": [
        {
          "internalType": "uint256",
          "name": "",
          "type": "uint256"
        }
      ],
      "stateMutability": "nonpayable",
      "type": "function"
    },
    {
      "inputs": [
        {
          "internalType": "uint256",
          "name": "proposalId",
          "type": "uint256"
        },
        {
          "internalType": "uint8",
          "name": "support",
          "type": "uint8"
        },
        {
          "internalType": "string",
          "name": "reason",
          "type": "string"
        },
        {
          "internalType": "bytes",
          "name": "params",
          "type": "bytes"
        }
      ],
      "name": "castVoteWithReasonAndParams",
      "outputs": [
        {
          "internalType": "uint256",
          "name": "",
          "type": "uint256"
        }
      ],
      "stateMutability": "nonpayable",
      "type": "function"
    },
    {
      "inputs": [
        {
          "internalType": "uint256",
          "name": "proposalId",
          "type": "uint256"
        },
        {
          "internalType": "uint8",
          "name": "support",
          "type": "uint8"
        },
        {
          "internalType": "string",
          "name": "reason",
          "type": "string"
        },
        {
          "internalType": "bytes",
          "name": "params",
          "type": "bytes"
        },
        {
          "internalType": "uint8",
          "name": "v",
          "type": "uint8"
        },
        {
          "internalType": "bytes32",
          "name": "r",
          "type": "bytes32"
        },
        {
          "internalType": "bytes32",
          "name": "s",
          "type": "bytes32"
        }
      ],
      "name": "castVoteWithReasonAndParamsBySig",
      "outputs": [
        {
          "internalType": "uint256",
          "name": "",
          "type": "uint256"
        }
      ],
      "stateMutability": "nonpayable",
      "type": "function"
    },
    {
      "inputs": [
        {
          "internalType": "address[]",
          "name": "targets",
          "type": "address[]"
        },
        {
          "internalType": "uint256[]",
          "name": "values",
          "type": "uint256[]"
        },
        {
          "internalType": "bytes[]",
          "name": "calldatas",
          "type": "bytes[]"
        },
        {
          "internalType": "bytes32",
          "name": "descriptionHash",
          "type": "bytes32"
        }
      ],
      "name": "execute",
      "outputs": [
        {
          "internalType": "uint256",
          "name": "",
          "type": "uint256"
        }
      ],
      "stateMutability": "payable",
      "type": "function"
    },
    {
      "inputs": [
        {
          "internalType": "address",
          "name": "account",
          "type": "address"
        },
        {
          "internalType": "uint256",
          "name": "blockNumber",
          "type": "uint256"
        }
      ],
      "name": "getVotes",
      "outputs": [
        {
          "internalType": "uint256",
          "name": "",
          "type": "uint256"
        }
      ],
      "stateMutability": "view",
      "type": "function"
    },
    {
      "inputs": [
        {
          "internalType": "address",
          "name": "account",
          "type": "address"
        },
        {
          "internalType": "uint256",
          "name": "blockNumber",
          "type": "uint256"
        },
        {
          "internalType": "bytes",
          "name": "params",
          "type": "bytes"
        }
      ],
      "name": "getVotesWithParams",
      "outputs": [
        {
          "internalType": "uint256",
          "name": "",
          "type": "uint256"
        }
      ],
      "stateMutability": "view",
      "type": "function"
    },
    {
      "inputs": [
        {
          "internalType": "uint256",
          "name": "proposalId",
          "type": "uint256"
        },
        {
          "internalType": "address",
          "name": "account",
          "type": "address"
        }
      ],
      "name": "hasVoted",
      "outputs": [
        {
          "internalType": "bool",
          "name": "",
          "type": "bool"
        }
      ],
      "stateMutability": "view",
      "type": "function"
    },
    {
      "inputs": [
        {
          "internalType": "address[]",
          "name": "targets",
          "type": "address[]"
        },
        {
          "internalType": "uint256[]",
          "name": "values",
          "type": "uint256[]"
        },
        {
          "internalType": "bytes[]",
          "name": "calldatas",
          "type": "bytes[]"
        },
        {
          "internalType": "bytes32",
          "name": "descriptionHash",
          "type": "bytes32"
        }
      ],
      "name": "hashProposal",
      "outputs": [
        {
          "internalType": "uint256",
          "name": "",
          "type": "uint256"
        }
      ],
      "stateMutability": "pure",
      "type": "function"
    },
    {
      "inputs": [],
      "name": "name",
      "outputs": [
        {
          "internalType": "string",
          "name": "",
          "type": "string"
        }
      ],
      "stateMutability": "view",
      "type": "function"
    },
    {
      "inputs": [
        {
          "internalType": "address",
          "name": "",
          "type": "address"
        },
        {
          "internalType": "address",
          "name": "",
          "type": "address"
        },
        {
          "internalType": "uint256[]",
          "name": "",
          "type": "uint256[]"
        },
        {
          "internalType": "uint256[]",
          "name": "",
          "type": "uint256[]"
        },
        {
          "internalType": "bytes",
          "name": "",
          "type": "bytes"
        }
      ],
      "name": "onERC1155BatchReceived",
      "outputs": [
        {
          "internalType": "bytes4",
          "name": "",
          "type": "bytes4"
        }
      ],
      "stateMutability": "nonpayable",
      "type": "function"
    },
    {
      "inputs": [
        {
          "internalType": "address",
          "name": "",
          "type": "address"
        },
        {
          "internalType": "address",
          "name": "",
          "type": "address"
        },
        {
          "internalType": "uint256",
          "name": "",
          "type": "uint256"
        },
        {
          "internalType": "uint256",
          "name": "",
          "type": "uint256"
        },
        {
          "internalType": "bytes",
          "name": "",
          "type": "bytes"
        }
      ],
      "name": "onERC1155Received",
      "outputs": [
        {
          "internalType": "bytes4",
          "name": "",
          "type": "bytes4"
        }
      ],
      "stateMutability": "nonpayable",
      "type": "function"
    },
    {
      "inputs": [
        {
          "internalType": "address",
          "name": "",
          "type": "address"
        },
        {
          "internalType": "address",
          "name": "",
          "type": "address"
        },
        {
          "internalType": "uint256",
          "name": "",
          "type": "uint256"
        },
        {
          "internalType": "bytes",
          "name": "",
          "type": "bytes"
        }
      ],
      "name": "onERC721Received",
      "outputs": [
        {
          "internalType": "bytes4",
          "name": "",
          "type": "bytes4"
        }
      ],
      "stateMutability": "nonpayable",
      "type": "function"
    },
    {
      "inputs": [
        {
          "internalType": "uint256",
          "name": "proposalId",
          "type": "uint256"
        }
      ],
      "name": "proposalDeadline",
      "outputs": [
        {
          "internalType": "uint256",
          "name": "",
          "type": "uint256"
        }
      ],
      "stateMutability": "view",
      "type": "function"
    },
    {
      "inputs": [
        {
          "internalType": "uint256",
          "name": "proposalId",
          "type": "uint256"
        }
      ],
      "name": "proposalSnapshot",
      "outputs": [
        {
          "internalType": "uint256",
          "name": "",
          "type": "uint256"
        }
      ],
      "stateMutability": "view",
      "type": "function"
    },
    {
      "inputs": [],
      "name": "proposalThreshold",
      "outputs": [
        {
          "internalType": "uint256",
          "name": "",
          "type": "uint256"
        }
      ],
      "stateMutability": "view",
      "type": "function"
    },
    {
      "inputs": [
        {
          "internalType": "uint256",
          "name": "proposalId",
          "type": "uint256"
        }
      ],
      "name": "proposalVotes",
      "outputs": [
        {
          "internalType": "uint256",
          "name": "againstVotes",
          "type": "uint256"
        },
        {
          "internalType": "uint256",
          "name": "forVotes",
          "type": "uint256"
        },
        {
          "internalType": "uint256",
          "name": "abstainVotes",
          "type": "uint256"
        }
      ],
      "stateMutability": "view",
      "type": "function"
    },
    {
      "inputs": [
        {
          "internalType": "address[]",
          "name": "targets",
          "type": "address[]"
        },
        {
          "internalType": "uint256[]",
          "name": "values",
          "type": "uint256[]"
        },
        {
          "internalType": "bytes[]",
          "name": "calldatas",
          "type": "bytes[]"
        },
        {
          "internalType": "string",
          "name": "description",
          "type": "string"
        }
      ],
      "name": "propose",
      "outputs": [
        {
          "internalType": "uint256",
          "name": "",
          "type": "uint256"
        }
      ],
      "stateMutability": "nonpayable",
      "type": "function"
    },
    {
      "inputs": [
        {
          "internalType": "uint256",
          "name": "blockNumber",
          "type": "uint256"
        }
      ],
      "name": "quorum",
      "outputs": [
        {
          "internalType": "uint256",
          "name": "",
          "type": "uint256"
        }
      ],
      "stateMutability": "view",
      "type": "function"
    },
    {
      "inputs": [],
      "name": "quorumDenominator",
      "outputs": [
        {
          "internalType": "uint256",
          "name": "",
          "type": "uint256"
        }
      ],
      "stateMutability": "view",
      "type": "function"
    },
    {
      "inputs": [
        {
          "internalType": "uint256",
          "name": "blockNumber",
          "type": "uint256"
        }
      ],
      "name": "quorumNumerator",
      "outputs": [
        {
          "internalType": "uint256",
          "name": "",
          "type": "uint256"
        }
      ],
      "stateMutability": "view",
      "type": "function"
    },
    {
      "inputs": [],
      "name": "quorumNumerator",
      "outputs": [
        {
          "internalType": "uint256",
          "name": "",
          "type": "uint256"
        }
      ],
      "stateMutability": "view",
      "type": "function"
    },
    {
      "inputs": [
        {
          "internalType": "address",
          "name": "target",
          "type": "address"
        },
        {
          "internalType": "uint256",
          "name": "value",
          "type": "uint256"
        },
        {
          "internalType": "bytes",
          "name": "data",
          "type": "bytes"
        }
      ],
      "name": "relay",
      "outputs": [],
      "stateMutability": "payable",
      "type": "function"
    },
    {
      "inputs": [
        {
          "internalType": "uint256",
          "name": "newProposalThreshold",
          "type": "uint256"
        }
      ],
      "name": "setProposalThreshold",
      "outputs": [],
      "stateMutability": "nonpayable",
      "type": "function"
    },
    {
      "inputs": [
        {
          "internalType": "uint256",
          "name": "newVotingDelay",
          "type": "uint256"
        }
      ],
      "name": "setVotingDelay",
      "outputs": [],
      "stateMutability": "nonpayable",
      "type": "function"
    },
    {
      "inputs": [
        {
          "internalType": "uint256",
          "name": "newVotingPeriod",
          "type": "uint256"
        }
      ],
      "name": "setVotingPeriod",
      "outputs": [],
      "stateMutability": "nonpayable",
      "type": "function"
    },
    {
      "inputs": [
        {
          "internalType": "uint256",
          "name": "proposalId",
          "type": "uint256"
        }
      ],
      "name": "state",
      "outputs": [
        {
          "internalType": "enum IGovernor.ProposalState",
          "name": "",
          "type": "uint8"
        }
      ],
      "stateMutability": "view",
      "type": "function"
    },
    {
      "inputs": [
        {
          "internalType": "bytes4",
          "name": "interfaceId",
          "type": "bytes4"
        }
      ],
      "name": "supportsInterface",
      "outputs": [
        {
          "internalType": "bool",
          "name": "",
          "type": "bool"
        }
      ],
      "stateMutability": "view",
      "type": "function"
    },
    {
      "inputs": [],
      "name": "token",
      "outputs": [
        {
          "internalType": "contract IVotes",
          "name": "",
          "type": "address"
        }
      ],
      "stateMutability": "view",
      "type": "function"
    },
    {
      "inputs": [
        {
          "internalType": "uint256",
          "name": "newQuorumNumerator",
          "type": "uint256"
        }
      ],
      "name": "updateQuorumNumerator",
      "outputs": [],
      "stateMutability": "nonpayable",
      "type": "function"
    },
    {
      "inputs": [],
      "name": "version",
      "outputs": [
        {
          "internalType": "string",
          "name": "",
          "type": "string"
        }
      ],
      "stateMutability": "view",
      "type": "function"
    },
    {
      "inputs": [],
      "name": "votingDelay",
      "outputs": [
        {
          "internalType": "uint256",
          "name": "",
          "type": "uint256"
        }
      ],
      "stateMutability": "view",
      "type": "function"
    },
    {
      "inputs": [],
      "name": "votingPeriod",
      "outputs": [
        {
          "internalType": "uint256",
          "name": "",
          "type": "uint256"
        }
      ],
      "stateMutability": "view",
      "type": "function"
    },
    {
      "stateMutability": "payable",
      "type": "receive"
    }
  ],
  "bytecode": "0x6101606040523480156200001257600080fd5b506040516200754338038062007543833981810160405281019062000038919062000df9565b808484846000898062000050620001a560201b60201c565b60008280519060200120905060008280519060200120905060007f8b73c3c69bb8fe3d512ecc4cf759cc79239f7b179b0ffacaa9a75d522b39400f90508260e081815250508161010081815250504660a08181525050620000b9818484620001e260201b60201c565b608081815250503073ffffffffffffffffffffffffffffffffffffffff1660c08173ffffffffffffffffffffffffffffffffffffffff1681525050806101208181525050505050505080600090805190602001906200011a92919062000af8565b50506200012d836200021e60201b60201c565b6200013e826200026560201b60201c565b6200014f81620002f260201b60201c565b5050508073ffffffffffffffffffffffffffffffffffffffff166101408173ffffffffffffffffffffffffffffffffffffffff16815250505062000199816200033960201b60201c565b5050505050506200133f565b60606040518060400160405280600181526020017f3100000000000000000000000000000000000000000000000000000000000000815250905090565b60008383834630604051602001620001ff95949392919062000edd565b6040516020818303038152906040528051906020012090509392505050565b7fc565b045403dc03c2eea82b81a0465edad9e2e7fc4d97e11421c209da93d7a93600454826040516200025392919062000f3a565b60405180910390a18060048190555050565b60008111620002ab576040517f08c379a0000000000000000000000000000000000000000000000000000000008152600401620002a29062000fee565b60405180910390fd5b7f7e3f7f0708a84de9203036abaa450dccc85ad5ff52f78c170f3edb55cf5e882860055482604051620002e092919062000f3a565b60405180910390a18060058190555050565b7fccb45da8d5717e6c4544694297c4ba5cf151d455c9bb0ed4fc7a38411bc05461600654826040516200032792919062000f3a565b60405180910390a18060068190555050565b620003496200051860201b60201c565b8111156200038e576040517f08c379a00000000000000000000000000000000000000000000000000000000081526004016200038590620010ac565b60405180910390fd5b6000620003a06200052160201b60201c565b905060008114158015620003bc57506000600860000180549050145b15620004bc5760086000016040518060400160405280600063ffffffff168152602001620003f5846200057760201b62001c691760201c565b7bffffffffffffffffffffffffffffffffffffffffffffffffffffffff168152509080600181540180825580915050600190039060005260206000200160009091909190915060008201518160000160006101000a81548163ffffffff021916908363ffffffff16021790555060208201518160000160046101000a8154817bffffffffffffffffffffffffffffffffffffffffffffffffffffffff02191690837bffffffffffffffffffffffffffffffffffffffffffffffffffffffff16021790555050505b620004d7826008620005e560201b62001cd41790919060201c565b50507f0553476bf02ef2726e8ce5ced78d63e26e602e4a2257b1f559418e24b463399781836040516200050c92919062000f3a565b60405180910390a15050565b60006064905090565b600080600860000180549050146200056e576200054a60086200067560201b62001d421760201c565b7bffffffffffffffffffffffffffffffffffffffffffffffffffffffff1662000572565b6007545b905090565b60007bffffffffffffffffffffffffffffffffffffffffffffffffffffffff8016821115620005dd576040517f08c379a0000000000000000000000000000000000000000000000000000000008152600401620005d49062001144565b60405180910390fd5b819050919050565b60008062000628846000016200060643620006eb60201b62001dac1760201c565b6200061c866200057760201b62001c691760201c565b6200074160201b60201c565b817bffffffffffffffffffffffffffffffffffffffffffffffffffffffff169150807bffffffffffffffffffffffffffffffffffffffffffffffffffffffff169050915091509250929050565b6000808260000180549050905060008114620006e057620006ae83600001600183620006a2919062001195565b62000ae360201b60201c565b60000160049054906101000a90047bffffffffffffffffffffffffffffffffffffffffffffffffffffffff16620006e3565b60005b915050919050565b600063ffffffff801682111562000739576040517f08c379a0000000000000000000000000000000000000000000000000000000008152600401620007309062001246565b60405180910390fd5b819050919050565b6000806000858054905090506000811115620009f357600062000779876001846200076d919062001195565b62000ae360201b60201c565b6040518060400160405290816000820160009054906101000a900463ffffffff1663ffffffff1663ffffffff1681526020016000820160049054906101000a90047bffffffffffffffffffffffffffffffffffffffffffffffffffffffff167bffffffffffffffffffffffffffffffffffffffffffffffffffffffff167bffffffffffffffffffffffffffffffffffffffffffffffffffffffff168152505090508563ffffffff16816000015163ffffffff16111562000870576040517f08c379a00000000000000000000000000000000000000000000000000000000081526004016200086790620012b8565b60405180910390fd5b8563ffffffff16816000015163ffffffff161415620009015784620008aa886001856200089e919062001195565b62000ae360201b60201c565b60000160046101000a8154817bffffffffffffffffffffffffffffffffffffffffffffffffffffffff02191690837bffffffffffffffffffffffffffffffffffffffffffffffffffffffff160217905550620009e1565b8660405180604001604052808863ffffffff168152602001877bffffffffffffffffffffffffffffffffffffffffffffffffffffffff168152509080600181540180825580915050600190039060005260206000200160009091909190915060008201518160000160006101000a81548163ffffffff021916908363ffffffff16021790555060208201518160000160046101000a8154817bffffffffffffffffffffffffffffffffffffffffffffffffffffffff02191690837bffffffffffffffffffffffffffffffffffffffffffffffffffffffff16021790555050505b80602001518593509350505062000adb565b8560405180604001604052808763ffffffff168152602001867bffffffffffffffffffffffffffffffffffffffffffffffffffffffff168152509080600181540180825580915050600190039060005260206000200160009091909190915060008201518160000160006101000a81548163ffffffff021916908363ffffffff16021790555060208201518160000160046101000a8154817bffffffffffffffffffffffffffffffffffffffffffffffffffffffff02191690837bffffffffffffffffffffffffffffffffffffffffffffffffffffffff160217905550505060008492509250505b935093915050565b60008260005281602060002001905092915050565b82805462000b069062001309565b90600052602060002090601f01602090048101928262000b2a576000855562000b76565b82601f1062000b4557805160ff191683800117855562000b76565b8280016001018555821562000b76579182015b8281111562000b7557825182559160200191906001019062000b58565b5b50905062000b85919062000b89565b5090565b5b8082111562000ba457600081600090555060010162000b8a565b5090565b6000604051905090565b600080fd5b600080fd5b600080fd5b600080fd5b6000601f19601f8301169050919050565b7f4e487b7100000000000000000000000000000000000000000000000000000000600052604160045260246000fd5b62000c118262000bc6565b810181811067ffffffffffffffff8211171562000c335762000c3262000bd7565b5b80604052505050565b600062000c4862000ba8565b905062000c56828262000c06565b919050565b600067ffffffffffffffff82111562000c795762000c7862000bd7565b5b62000c848262000bc6565b9050602081019050919050565b60005b8381101562000cb157808201518184015260208101905062000c94565b8381111562000cc1576000848401525b50505050565b600062000cde62000cd88462000c5b565b62000c3c565b90508281526020810184848401111562000cfd5762000cfc62000bc1565b5b62000d0a84828562000c91565b509392505050565b600082601f83011262000d2a5762000d2962000bbc565b5b815162000d3c84826020860162000cc7565b91505092915050565b600073ffffffffffffffffffffffffffffffffffffffff82169050919050565b600062000d728262000d45565b9050919050565b600062000d868262000d65565b9050919050565b62000d988162000d79565b811462000da457600080fd5b50565b60008151905062000db88162000d8d565b92915050565b6000819050919050565b62000dd38162000dbe565b811462000ddf57600080fd5b50565b60008151905062000df38162000dc8565b92915050565b600080600080600060a0868803121562000e185762000e1762000bb2565b5b600086015167ffffffffffffffff81111562000e395762000e3862000bb7565b5b62000e478882890162000d12565b955050602062000e5a8882890162000da7565b945050604062000e6d8882890162000de2565b935050606062000e808882890162000de2565b925050608062000e938882890162000de2565b9150509295509295909350565b6000819050919050565b62000eb58162000ea0565b82525050565b62000ec68162000dbe565b82525050565b62000ed78162000d65565b82525050565b600060a08201905062000ef4600083018862000eaa565b62000f03602083018762000eaa565b62000f12604083018662000eaa565b62000f21606083018562000ebb565b62000f30608083018462000ecc565b9695505050505050565b600060408201905062000f51600083018562000ebb565b62000f60602083018462000ebb565b9392505050565b600082825260208201905092915050565b7f476f7665726e6f7253657474696e67733a20766f74696e6720706572696f642060008201527f746f6f206c6f7700000000000000000000000000000000000000000000000000602082015250565b600062000fd660278362000f67565b915062000fe38262000f78565b604082019050919050565b60006020820190508181036000830152620010098162000fc7565b9050919050565b7f476f7665726e6f72566f74657351756f72756d4672616374696f6e3a2071756f60008201527f72756d4e756d657261746f72206f7665722071756f72756d44656e6f6d696e6160208201527f746f720000000000000000000000000000000000000000000000000000000000604082015250565b60006200109460438362000f67565b9150620010a18262001010565b606082019050919050565b60006020820190508181036000830152620010c78162001085565b9050919050565b7f53616665436173743a2076616c756520646f65736e27742066697420696e203260008201527f3234206269747300000000000000000000000000000000000000000000000000602082015250565b60006200112c60278362000f67565b91506200113982620010ce565b604082019050919050565b600060208201905081810360008301526200115f816200111d565b9050919050565b7f4e487b7100000000000000000000000000000000000000000000000000000000600052601160045260246000fd5b6000620011a28262000dbe565b9150620011af8362000dbe565b925082821015620011c557620011c462001166565b5b828203905092915050565b7f53616665436173743a2076616c756520646f65736e27742066697420696e203360008201527f3220626974730000000000000000000000000000000000000000000000000000602082015250565b60006200122e60268362000f67565b91506200123b82620011d0565b604082019050919050565b6000602082019050818103600083015262001261816200121f565b9050919050565b7f436865636b706f696e743a20696e76616c6964206b6579000000000000000000600082015250565b6000620012a060178362000f67565b9150620012ad8262001268565b602082019050919050565b60006020820190508181036000830152620012d38162001291565b9050919050565b7f4e487b7100000000000000000000000000000000000000000000000000000000600052602260045260246000fd5b600060028204905060018216806200132257607f821691505b60208210811415620013395762001338620012da565b5b50919050565b60805160a05160c05160e05161010051610120516101405161619b620013a860003960008181611b8301528181611c4701526128a701526000612eb301526000612ef501526000612ed401526000612e0901526000612e5f01526000612e88015261619b6000f3fe6080604052600436106102295760003560e01c806370b0f66011610123578063c28bc2fa116100ab578063eb9019d41161006f578063eb9019d414610935578063ece40cc114610972578063f23a6e611461099b578063f8ce560a146109d8578063fc0c546a14610a155761026f565b8063c28bc2fa1461085d578063c59057e414610879578063dd4e2ba5146108b6578063deaaa7cc146108e1578063ea0217cf1461090c5761026f565b80639a802a6d116100f25780639a802a6d14610750578063a7713a701461078d578063b58131b0146107b8578063bc197c81146107e3578063c01f9e37146108205761026f565b806370b0f660146106825780637b3c71d3146106ab5780637d5e81e2146106e857806397c3d334146107255761026f565b80633932abb1116101b1578063544ffc9c11610175578063544ffc9c1461056157806354fd4d50146105a057806356781388146105cb5780635f398a141461060857806360c4247f146106455761026f565b80633932abb1146104425780633bccf4fd1461046d5780633e4f49e6146104aa57806343859632146104e7578063452115d6146105245761026f565b806306fdde03116101f857806306fdde0314610342578063150b7a021461036d5780632656227d146103aa5780632d63f693146103da5780632fe3e261146104175761026f565b806301ffc9a71461027457806302a251a3146102b157806303420181146102dc57806306f3f9e6146103195761026f565b3661026f573073ffffffffffffffffffffffffffffffffffffffff1661024d610a40565b73ffffffffffffffffffffffffffffffffffffffff161461026d57600080fd5b005b600080fd5b34801561028057600080fd5b5061029b60048036038101906102969190613a12565b610a48565b6040516102a89190613a5a565b60405180910390f35b3480156102bd57600080fd5b506102c6610bad565b6040516102d39190613a8e565b60405180910390f35b3480156102e857600080fd5b5061030360048036038101906102fe9190613cea565b610bb7565b6040516103109190613a8e565b60405180910390f35b34801561032557600080fd5b50610340600480360381019061033b9190613dc8565b610c9c565b005b34801561034e57600080fd5b50610357610d98565b6040516103649190613e7d565b60405180910390f35b34801561037957600080fd5b50610394600480360381019061038f9190613efd565b610e2a565b6040516103a19190613f8f565b60405180910390f35b6103c460048036038101906103bf9190614211565b610e3e565b6040516103d19190613a8e565b60405180910390f35b3480156103e657600080fd5b5061040160048036038101906103fc9190613dc8565b610f8b565b60405161040e9190613a8e565b60405180910390f35b34801561042357600080fd5b5061042c610ff9565b60405161043991906142db565b60405180910390f35b34801561044e57600080fd5b5061045761101d565b6040516104649190613a8e565b60405180910390f35b34801561047957600080fd5b50610494600480360381019061048f91906142f6565b611027565b6040516104a19190613a8e565b60405180910390f35b3480156104b657600080fd5b506104d160048036038101906104cc9190613dc8565b6110b1565b6040516104de91906143e8565b60405180910390f35b3480156104f357600080fd5b5061050e60048036038101906105099190614403565b6111c6565b60405161051b9190613a5a565b60405180910390f35b34801561053057600080fd5b5061054b60048036038101906105469190614211565b611231565b6040516105589190613a8e565b60405180910390f35b34801561056d57600080fd5b5061058860048036038101906105839190613dc8565b611249565b60405161059793929190614443565b60405180910390f35b3480156105ac57600080fd5b506105b5611281565b6040516105c29190613e7d565b60405180910390f35b3480156105d757600080fd5b506105f260048036038101906105ed919061447a565b6112be565b6040516105ff9190613a8e565b60405180910390f35b34801561061457600080fd5b5061062f600480360381019061062a91906144ba565b6112ef565b60405161063c9190613a8e565b60405180910390f35b34801561065157600080fd5b5061066c60048036038101906106679190613dc8565b611359565b6040516106799190613a8e565b60405180910390f35b34801561068e57600080fd5b506106a960048036038101906106a49190613dc8565b6114a6565b005b3480156106b757600080fd5b506106d260048036038101906106cd919061455e565b6115a2565b6040516106df9190613a8e565b60405180910390f35b3480156106f457600080fd5b5061070f600480360381019061070a9190614673565b61160a565b60405161071c9190613a8e565b60405180910390f35b34801561073157600080fd5b5061073a611622565b6040516107479190613a8e565b60405180910390f35b34801561075c57600080fd5b506107776004803603810190610772919061474a565b61162b565b6040516107849190613a8e565b60405180910390f35b34801561079957600080fd5b506107a2611641565b6040516107af9190613a8e565b60405180910390f35b3480156107c457600080fd5b506107cd611688565b6040516107da9190613a8e565b60405180910390f35b3480156107ef57600080fd5b5061080a600480360381019061080591906147b9565b611697565b6040516108179190613f8f565b60405180910390f35b34801561082c57600080fd5b5061084760048036038101906108429190613dc8565b6116ac565b6040516108549190613a8e565b60405180910390f35b610877600480360381019061087291906148de565b61171a565b005b34801561088557600080fd5b506108a0600480360381019061089b9190614211565b6118a8565b6040516108ad9190613a8e565b60405180910390f35b3480156108c257600080fd5b506108cb6118e4565b6040516108d89190613e7d565b60405180910390f35b3480156108ed57600080fd5b506108f6611921565b60405161090391906142db565b60405180910390f35b34801561091857600080fd5b50610933600480360381019061092e9190613dc8565b611945565b005b34801561094157600080fd5b5061095c60048036038101906109579190614952565b611a41565b6040516109699190613a8e565b60405180910390f35b34801561097e57600080fd5b5061099960048036038101906109949190613dc8565b611a5d565b005b3480156109a757600080fd5b506109c260048036038101906109bd9190614992565b611b59565b6040516109cf9190613f8f565b60405180910390f35b3480156109e457600080fd5b506109ff60048036038101906109fa9190613dc8565b611b6e565b604051610a0c9190613a8e565b60405180910390f35b348015610a2157600080fd5b50610a2a611c45565b604051610a379190614a88565b60405180910390f35b600030905090565b6000639a802a6d60e01b630342018160e01b635f398a1460e01b7f79dd796f000000000000000000000000000000000000000000000000000000001818187bffffffffffffffffffffffffffffffffffffffffffffffffffffffff1916827bffffffffffffffffffffffffffffffffffffffffffffffffffffffff19161480610b2e57507f79dd796f000000000000000000000000000000000000000000000000000000007bffffffffffffffffffffffffffffffffffffffffffffffffffffffff1916827bffffffffffffffffffffffffffffffffffffffffffffffffffffffff1916145b80610b9657507f4e2312e0000000000000000000000000000000000000000000000000000000007bffffffffffffffffffffffffffffffffffffffffffffffffffffffff1916827bffffffffffffffffffffffffffffffffffffffffffffffffffffffff1916145b80610ba65750610ba582611dff565b5b9050919050565b6000600554905090565b600080610c3a610c327fb3b3f3b703cd84ce352197dcff232b1b5d3cfb2025ce47cf04742d0651f1af888c8c8c8c604051610bf3929190614ad3565b60405180910390208b80519060200120604051602001610c17959493929190614afb565b60405160208183030381529060405280519060200120611e69565b868686611e83565b9050610c8d8a828b8b8b8080601f016020809104026020016040519081016040528093929190818152602001838380828437600081840152601f19601f820116905080830192505050505050508a611eae565b91505098975050505050505050565b610ca4610a40565b73ffffffffffffffffffffffffffffffffffffffff16610cc261206b565b73ffffffffffffffffffffffffffffffffffffffff1614610d18576040517f08c379a0000000000000000000000000000000000000000000000000000000008152600401610d0f90614b9a565b60405180910390fd5b3073ffffffffffffffffffffffffffffffffffffffff16610d37610a40565b73ffffffffffffffffffffffffffffffffffffffff1614610d8c576000610d5c612073565b604051610d6a929190614ad3565b604051809103902090505b80610d806002612080565b14610d8a57610d75565b505b610d958161215c565b50565b606060008054610da790614be9565b80601f0160208091040260200160405190810160405280929190818152602001828054610dd390614be9565b8015610e205780601f10610df557610100808354040283529160200191610e20565b820191906000526020600020905b815481529060010190602001808311610e0357829003601f168201915b5050505050905090565b600063150b7a0260e01b9050949350505050565b600080610e4d868686866118a8565b90506000610e5a826110b1565b905060046007811115610e7057610e6f614371565b5b816007811115610e8357610e82614371565b5b1480610eb3575060056007811115610e9e57610e9d614371565b5b816007811115610eb157610eb0614371565b5b145b610ef2576040517f08c379a0000000000000000000000000000000000000000000000000000000008152600401610ee990614c8d565b60405180910390fd5b600180600084815260200190815260200160002060020160006101000a81548160ff0219169083151502179055507f712ae1383f79ac853f8d882153778e0260ef8f03b504e2866e0593e04d2b291f82604051610f4f9190613a8e565b60405180910390a1610f648288888888612310565b610f7182888888886123f4565b610f7e8288888888612503565b8192505050949350505050565b6000610fe8600160008481526020019081526020016000206000016040518060200160405290816000820160009054906101000a900467ffffffffffffffff1667ffffffffffffffff1667ffffffffffffffff168152505061255e565b67ffffffffffffffff169050919050565b7fb3b3f3b703cd84ce352197dcff232b1b5d3cfb2025ce47cf04742d0651f1af8881565b6000600454905090565b6000806110886110807f150214d74d59b7d1e90c73fc22ef3d991dd0a76b046543d4d80ab92d2a50328f898960405160200161106593929190614cad565b60405160208183030381529060405280519060200120611e69565b868686611e83565b90506110a58782886040518060200160405280600081525061256c565b91505095945050505050565b6000806001600084815260200190815260200160002090508060020160009054906101000a900460ff16156110ea5760079150506111c1565b8060020160019054906101000a900460ff161561110b5760029150506111c1565b600061111684610f8b565b9050600081141561115c576040517f08c379a000000000000000000000000000000000000000000000000000000000815260040161115390614d30565b60405180910390fd5b43811061116e576000925050506111c1565b6000611179856116ac565b905043811061118e57600193505050506111c1565b6111978561258c565b80156111a857506111a7856125d3565b5b156111b957600493505050506111c1565b600393505050505b919050565b60006009600084815260200190815260200160002060030160008373ffffffffffffffffffffffffffffffffffffffff1673ffffffffffffffffffffffffffffffffffffffff16815260200190815260200160002060009054906101000a900460ff16905092915050565b600061123f858585856125fe565b9050949350505050565b600080600080600960008681526020019081526020016000209050806000015481600101548260020154935093509350509193909250565b60606040518060400160405280600181526020017f3100000000000000000000000000000000000000000000000000000000000000815250905090565b6000806112c961206b565b90506112e68482856040518060200160405280600081525061256c565b91505092915050565b6000806112fa61206b565b905061134d87828888888080601f016020809104026020016040519081016040528093929190818152602001838380828437600081840152601f19601f8201169050808301925050505050505087611eae565b91505095945050505050565b6000806008600001805490509050600081141561137b576007549150506114a1565b6000600860000160018361138f9190614d7f565b815481106113a05761139f614db3565b5b906000526020600020016040518060400160405290816000820160009054906101000a900463ffffffff1663ffffffff1663ffffffff1681526020016000820160049054906101000a90047bffffffffffffffffffffffffffffffffffffffffffffffffffffffff167bffffffffffffffffffffffffffffffffffffffffffffffffffffffff167bffffffffffffffffffffffffffffffffffffffffffffffffffffffff1681525050905083816000015163ffffffff16116114885780602001517bffffffffffffffffffffffffffffffffffffffffffffffffffffffff16925050506114a1565b61149c84600861275790919063ffffffff16565b925050505b919050565b6114ae610a40565b73ffffffffffffffffffffffffffffffffffffffff166114cc61206b565b73ffffffffffffffffffffffffffffffffffffffff1614611522576040517f08c379a000000000000000000000000000000000000000000000000000000000815260040161151990614b9a565b60405180910390fd5b3073ffffffffffffffffffffffffffffffffffffffff16611541610a40565b73ffffffffffffffffffffffffffffffffffffffff1614611596576000611566612073565b604051611574929190614ad3565b604051809103902090505b8061158a6002612080565b146115945761157f565b505b61159f81612846565b50565b6000806115ad61206b565b90506115ff86828787878080601f016020809104026020016040519081016040528093929190818152602001838380828437600081840152601f19601f8201169050808301925050505050505061256c565b915050949350505050565b60006116188585858561288b565b9050949350505050565b60006064905090565b60006116388484846128a3565b90509392505050565b6000806008600001805490501461167f5761165c6008611d42565b7bffffffffffffffffffffffffffffffffffffffffffffffffffffffff16611683565b6007545b905090565b6000611692612959565b905090565b600063bc197c8160e01b905095945050505050565b6000611709600160008481526020019081526020016000206001016040518060200160405290816000820160009054906101000a900467ffffffffffffffff1667ffffffffffffffff1667ffffffffffffffff168152505061255e565b67ffffffffffffffff169050919050565b611722610a40565b73ffffffffffffffffffffffffffffffffffffffff1661174061206b565b73ffffffffffffffffffffffffffffffffffffffff1614611796576040517f08c379a000000000000000000000000000000000000000000000000000000000815260040161178d90614b9a565b60405180910390fd5b3073ffffffffffffffffffffffffffffffffffffffff166117b5610a40565b73ffffffffffffffffffffffffffffffffffffffff161461180a5760006117da612073565b6040516117e8929190614ad3565b604051809103902090505b806117fe6002612080565b14611808576117f3565b505b6000808573ffffffffffffffffffffffffffffffffffffffff16858585604051611835929190614ad3565b60006040518083038185875af1925050503d8060008114611872576040519150601f19603f3d011682016040523d82523d6000602084013e611877565b606091505b509150915061189f828260405180606001604052806028815260200161611760289139612963565b50505050505050565b6000848484846040516020016118c19493929190615075565b6040516020818303038152906040528051906020012060001c9050949350505050565b60606040518060400160405280602081526020017f737570706f72743d627261766f2671756f72756d3d666f722c6162737461696e815250905090565b7f150214d74d59b7d1e90c73fc22ef3d991dd0a76b046543d4d80ab92d2a50328f81565b61194d610a40565b73ffffffffffffffffffffffffffffffffffffffff1661196b61206b565b73ffffffffffffffffffffffffffffffffffffffff16146119c1576040517f08c379a00000000000000000000000000000000000000000000000000000000081526004016119b890614b9a565b60405180910390fd5b3073ffffffffffffffffffffffffffffffffffffffff166119e0610a40565b73ffffffffffffffffffffffffffffffffffffffff1614611a35576000611a05612073565b604051611a13929190614ad3565b604051809103902090505b80611a296002612080565b14611a3357611a1e565b505b611a3e81612985565b50565b6000611a558383611a50612a0d565b6128a3565b905092915050565b611a65610a40565b73ffffffffffffffffffffffffffffffffffffffff16611a8361206b565b73ffffffffffffffffffffffffffffffffffffffff1614611ad9576040517f08c379a0000000000000000000000000000000000000000000000000000000008152600401611ad090614b9a565b60405180910390fd5b3073ffffffffffffffffffffffffffffffffffffffff16611af8610a40565b73ffffffffffffffffffffffffffffffffffffffff1614611b4d576000611b1d612073565b604051611b2b929190614ad3565b604051809103902090505b80611b416002612080565b14611b4b57611b36565b505b611b5681612a24565b50565b600063f23a6e6160e01b905095945050505050565b6000611b78611622565b611b8183611359565b7f000000000000000000000000000000000000000000000000000000000000000073ffffffffffffffffffffffffffffffffffffffff16638e539e8c856040518263ffffffff1660e01b8152600401611bda9190613a8e565b60206040518083038186803b158015611bf257600080fd5b505afa158015611c06573d6000803e3d6000fd5b505050506040513d601f19601f82011682018060405250810190611c2a91906150e4565b611c349190615111565b611c3e919061519a565b9050919050565b7f000000000000000000000000000000000000000000000000000000000000000081565b60007bffffffffffffffffffffffffffffffffffffffffffffffffffffffff8016821115611ccc576040517f08c379a0000000000000000000000000000000000000000000000000000000008152600401611cc39061523d565b60405180910390fd5b819050919050565b600080611cf584600001611ce743611dac565b611cf086611c69565b612a69565b817bffffffffffffffffffffffffffffffffffffffffffffffffffffffff169150807bffffffffffffffffffffffffffffffffffffffffffffffffffffffff169050915091509250929050565b6000808260000180549050905060008114611da157611d7083600001600183611d6b9190614d7f565b612df0565b60000160049054906101000a90047bffffffffffffffffffffffffffffffffffffffffffffffffffffffff16611da4565b60005b915050919050565b600063ffffffff8016821115611df7576040517f08c379a0000000000000000000000000000000000000000000000000000000008152600401611dee906152cf565b60405180910390fd5b819050919050565b60007f01ffc9a7000000000000000000000000000000000000000000000000000000007bffffffffffffffffffffffffffffffffffffffffffffffffffffffff1916827bffffffffffffffffffffffffffffffffffffffffffffffffffffffff1916149050919050565b6000611e7c611e76612e05565b83612f1f565b9050919050565b6000806000611e9487878787612f52565b91509150611ea181613035565b8192505050949350505050565b60008060016000888152602001908152602001600020905060016007811115611eda57611ed9614371565b5b611ee3886110b1565b6007811115611ef557611ef4614371565b5b14611f35576040517f08c379a0000000000000000000000000000000000000000000000000000000008152600401611f2c90615361565b60405180910390fd5b6000611f9487611f84846000016040518060200160405290816000820160009054906101000a900467ffffffffffffffff1667ffffffffffffffff1667ffffffffffffffff168152505061255e565b67ffffffffffffffff16866128a3565b9050611fa388888884886131a3565b600084511415612006578673ffffffffffffffffffffffffffffffffffffffff167fb8e138887d0aa13bab447e82de9d5c1777041ecd21ca36ba824ff1e6c07ddda489888489604051611ff99493929190615381565b60405180910390a261205d565b8673ffffffffffffffffffffffffffffffffffffffff167fe2babfbac5889a709b63bb7f598b324e08bc5a4fb9ec647fb3cbc9ec07eb87128988848989604051612054959493929190615417565b60405180910390a25b809250505095945050505050565b600033905090565b3660008036915091509091565b600061208b826133aa565b156120c2576040517f3db2a12a00000000000000000000000000000000000000000000000000000000815260040160405180910390fd5b60008260000160009054906101000a9004600f0b905082600101600082600f0b600f0b815260200190815260200160002054915082600101600082600f0b600f0b815260200190815260200160002060009055600181018360000160006101000a8154816fffffffffffffffffffffffffffffffff0219169083600f0b6fffffffffffffffffffffffffffffffff16021790555050919050565b612164611622565b8111156121a6576040517f08c379a000000000000000000000000000000000000000000000000000000000815260040161219d90615510565b60405180910390fd5b60006121b0611641565b9050600081141580156121cb57506000600860000180549050145b156122bd5760086000016040518060400160405280600063ffffffff1681526020016121f684611c69565b7bffffffffffffffffffffffffffffffffffffffffffffffffffffffff168152509080600181540180825580915050600190039060005260206000200160009091909190915060008201518160000160006101000a81548163ffffffff021916908363ffffffff16021790555060208201518160000160046101000a8154817bffffffffffffffffffffffffffffffffffffffffffffffffffffffff02191690837bffffffffffffffffffffffffffffffffffffffffffffffffffffffff16021790555050505b6122d1826008611cd490919063ffffffff16565b50507f0553476bf02ef2726e8ce5ced78d63e26e602e4a2257b1f559418e24b46339978183604051612304929190615530565b60405180910390a15050565b3073ffffffffffffffffffffffffffffffffffffffff1661232f610a40565b73ffffffffffffffffffffffffffffffffffffffff16146123ed5760005b84518110156123eb573073ffffffffffffffffffffffffffffffffffffffff168582815181106123805761237f614db3565b5b602002602001015173ffffffffffffffffffffffffffffffffffffffff1614156123da576123d98382815181106123ba576123b9614db3565b5b60200260200101518051906020012060026133df90919063ffffffff16565b5b806123e490615559565b905061234d565b505b5050505050565b600060405180606001604052806027815260200161613f60279139905060005b85518110156124fa5760008087838151811061243357612432614db3565b5b602002602001015173ffffffffffffffffffffffffffffffffffffffff1687848151811061246457612463614db3565b5b602002602001015187858151811061247f5761247e614db3565b5b602002602001015160405161249491906155d3565b60006040518083038185875af1925050503d80600081146124d1576040519150601f19603f3d011682016040523d82523d6000602084013e6124d6565b606091505b50915091506124e6828286612963565b505050806124f390615559565b9050612414565b50505050505050565b3073ffffffffffffffffffffffffffffffffffffffff16612522610a40565b73ffffffffffffffffffffffffffffffffffffffff16146125575761254760026133aa565b61255657612555600261345b565b5b5b5050505050565b600081600001519050919050565b60006125828585858561257d612a0d565b611eae565b9050949350505050565b600080600960008481526020019081526020016000209050806002015481600101546125b891906155ea565b6125c96125c485610f8b565b611b6e565b1115915050919050565b6000806009600084815260200190815260200160002090508060000154816001015411915050919050565b60008061260d868686866118a8565b9050600061261a826110b1565b9050600260078111156126305761262f614371565b5b81600781111561264357612642614371565b5b141580156126765750600660078111156126605761265f614371565b5b81600781111561267357612672614371565b5b14155b80156126a657506007808111156126905761268f614371565b5b8160078111156126a3576126a2614371565b5b14155b6126e5576040517f08c379a00000000000000000000000000000000000000000000000000000000081526004016126dc9061568c565b60405180910390fd5b600180600084815260200190815260200160002060020160016101000a81548160ff0219169083151502179055507f789cf55be980739dad1d0699b93b58e806b51c9d96619bfa8fe0a28abaa7b30c826040516127429190613a8e565b60405180910390a18192505050949350505050565b600043821061279b576040517f08c379a0000000000000000000000000000000000000000000000000000000008152600401612792906156f8565b60405180910390fd5b60006127a683611dac565b905060008460000180549050905060006127c686600001846000856134dc565b90506000811461281a576127e9866000016001836127e49190614d7f565b612df0565b60000160049054906101000a90047bffffffffffffffffffffffffffffffffffffffffffffffffffffffff1661281d565b60005b7bffffffffffffffffffffffffffffffffffffffffffffffffffffffff16935050505092915050565b7fc565b045403dc03c2eea82b81a0465edad9e2e7fc4d97e11421c209da93d7a9360045482604051612879929190615530565b60405180910390a18060048190555050565b60006128998585858561354f565b9050949350505050565b60007f000000000000000000000000000000000000000000000000000000000000000073ffffffffffffffffffffffffffffffffffffffff16633a46b1a885856040518363ffffffff1660e01b8152600401612900929190615727565b60206040518083038186803b15801561291857600080fd5b505afa15801561292c573d6000803e3d6000fd5b505050506040513d601f19601f8201168201806040525081019061295091906150e4565b90509392505050565b6000600654905090565b606083156129735782905061297e565b61297d8383613856565b5b9392505050565b600081116129c8576040517f08c379a00000000000000000000000000000000000000000000000000000000081526004016129bf906157c2565b60405180910390fd5b7f7e3f7f0708a84de9203036abaa450dccc85ad5ff52f78c170f3edb55cf5e8828600554826040516129fb929190615530565b60405180910390a18060058190555050565b606060405180602001604052806000815250905090565b7fccb45da8d5717e6c4544694297c4ba5cf151d455c9bb0ed4fc7a38411bc0546160065482604051612a57929190615530565b60405180910390a18060068190555050565b6000806000858054905090506000811115612d00576000612a9687600184612a919190614d7f565b612df0565b6040518060400160405290816000820160009054906101000a900463ffffffff1663ffffffff1663ffffffff1681526020016000820160049054906101000a90047bffffffffffffffffffffffffffffffffffffffffffffffffffffffff167bffffffffffffffffffffffffffffffffffffffffffffffffffffffff167bffffffffffffffffffffffffffffffffffffffffffffffffffffffff168152505090508563ffffffff16816000015163ffffffff161115612b8a576040517f08c379a0000000000000000000000000000000000000000000000000000000008152600401612b819061582e565b60405180910390fd5b8563ffffffff16816000015163ffffffff161415612c0f5784612bb988600185612bb49190614d7f565b612df0565b60000160046101000a8154817bffffffffffffffffffffffffffffffffffffffffffffffffffffffff02191690837bffffffffffffffffffffffffffffffffffffffffffffffffffffffff160217905550612cef565b8660405180604001604052808863ffffffff168152602001877bffffffffffffffffffffffffffffffffffffffffffffffffffffffff168152509080600181540180825580915050600190039060005260206000200160009091909190915060008201518160000160006101000a81548163ffffffff021916908363ffffffff16021790555060208201518160000160046101000a8154817bffffffffffffffffffffffffffffffffffffffffffffffffffffffff02191690837bffffffffffffffffffffffffffffffffffffffffffffffffffffffff16021790555050505b806020015185935093505050612de8565b8560405180604001604052808763ffffffff168152602001867bffffffffffffffffffffffffffffffffffffffffffffffffffffffff168152509080600181540180825580915050600190039060005260206000200160009091909190915060008201518160000160006101000a81548163ffffffff021916908363ffffffff16021790555060208201518160000160046101000a8154817bffffffffffffffffffffffffffffffffffffffffffffffffffffffff02191690837bffffffffffffffffffffffffffffffffffffffffffffffffffffffff160217905550505060008492509250505b935093915050565b60008260005281602060002001905092915050565b60007f000000000000000000000000000000000000000000000000000000000000000073ffffffffffffffffffffffffffffffffffffffff163073ffffffffffffffffffffffffffffffffffffffff16148015612e8157507f000000000000000000000000000000000000000000000000000000000000000046145b15612eae577f00000000000000000000000000000000000000000000000000000000000000009050612f1c565b612f197f00000000000000000000000000000000000000000000000000000000000000007f00000000000000000000000000000000000000000000000000000000000000007f00000000000000000000000000000000000000000000000000000000000000006138a6565b90505b90565b60008282604051602001612f349291906158c6565b60405160208183030381529060405280519060200120905092915050565b6000807f7fffffffffffffffffffffffffffffff5d576e7357a4501ddfe92f46681b20a08360001c1115612f8d57600060039150915061302c565b600060018787878760405160008152602001604052604051612fb294939291906158fd565b6020604051602081039080840390855afa158015612fd4573d6000803e3d6000fd5b505050602060405103519050600073ffffffffffffffffffffffffffffffffffffffff168173ffffffffffffffffffffffffffffffffffffffff1614156130235760006001925092505061302c565b80600092509250505b94509492505050565b6000600481111561304957613048614371565b5b81600481111561305c5761305b614371565b5b1415613067576131a0565b6001600481111561307b5761307a614371565b5b81600481111561308e5761308d614371565b5b14156130cf576040517f08c379a00000000000000000000000000000000000000000000000000000000081526004016130c69061598e565b60405180910390fd5b600260048111156130e3576130e2614371565b5b8160048111156130f6576130f5614371565b5b1415613137576040517f08c379a000000000000000000000000000000000000000000000000000000000815260040161312e906159fa565b60405180910390fd5b6003600481111561314b5761314a614371565b5b81600481111561315e5761315d614371565b5b141561319f576040517f08c379a000000000000000000000000000000000000000000000000000000000815260040161319690615a8c565b60405180910390fd5b5b50565b60006009600087815260200190815260200160002090508060030160008673ffffffffffffffffffffffffffffffffffffffff1673ffffffffffffffffffffffffffffffffffffffff16815260200190815260200160002060009054906101000a900460ff1615613249576040517f08c379a000000000000000000000000000000000000000000000000000000000815260040161324090615b1e565b60405180910390fd5b60018160030160008773ffffffffffffffffffffffffffffffffffffffff1673ffffffffffffffffffffffffffffffffffffffff16815260200190815260200160002060006101000a81548160ff021916908315150217905550600060028111156132b7576132b6614371565b5b60ff168460ff1614156132e457828160000160008282546132d891906155ea565b925050819055506133a2565b600160028111156132f8576132f7614371565b5b60ff168460ff161415613325578281600101600082825461331991906155ea565b925050819055506133a1565b60028081111561333857613337614371565b5b60ff168460ff161415613365578281600201600082825461335991906155ea565b925050819055506133a0565b6040517f08c379a000000000000000000000000000000000000000000000000000000000815260040161339790615bb0565b60405180910390fd5b5b5b505050505050565b60008160000160009054906101000a9004600f0b600f0b8260000160109054906101000a9004600f0b600f0b13159050919050565b60008260000160109054906101000a9004600f0b90508183600101600083600f0b600f0b815260200190815260200160002081905550600181018360000160106101000a8154816fffffffffffffffffffffffffffffffff0219169083600f0b6fffffffffffffffffffffffffffffffff160217905550505050565b60008160000160006101000a8154816fffffffffffffffffffffffffffffffff0219169083600f0b6fffffffffffffffffffffffffffffffff16021790555060008160000160106101000a8154816fffffffffffffffffffffffffffffffff0219169083600f0b6fffffffffffffffffffffffffffffffff16021790555050565b60005b818310156135445760006134f384846138e0565b90508463ffffffff166135068783612df0565b60000160009054906101000a900463ffffffff1663ffffffff16111561352e5780925061353e565b60018161353b91906155ea565b93505b506134df565b819050949350505050565b6000613559611688565b61357661356461206b565b6001436135719190614d7f565b611a41565b10156135b7576040517f08c379a00000000000000000000000000000000000000000000000000000000081526004016135ae90615c42565b60405180910390fd5b60006135cc86868686805190602001206118a8565b90508451865114613612576040517f08c379a000000000000000000000000000000000000000000000000000000000815260040161360990615cd4565b60405180910390fd5b8351865114613656576040517f08c379a000000000000000000000000000000000000000000000000000000000815260040161364d90615cd4565b60405180910390fd5b600086511161369a576040517f08c379a000000000000000000000000000000000000000000000000000000000815260040161369190615d40565b60405180910390fd5b60006001600083815260200190815260200160002090506136fa816000016040518060200160405290816000820160009054906101000a900467ffffffffffffffff1667ffffffffffffffff1667ffffffffffffffff1681525050613906565b613739576040517f08c379a000000000000000000000000000000000000000000000000000000000815260040161373090615dd2565b60405180910390fd5b600061374b61374661101d565b613920565b61375443613920565b61375e9190615e06565b9050600061377261376d610bad565b613920565b8261377d9190615e06565b9050613795828460000161397790919063ffffffff16565b6137ab818460010161397790919063ffffffff16565b7f7d84a6263ae0d98d3329bd7b46bb4e8d6f98cd35a7adb45c274c8b7fd5ebd5e0846137d561206b565b8b8b8d5167ffffffffffffffff8111156137f2576137f1613b89565b5b60405190808252806020026020018201604052801561382557816020015b60608152602001906001900390816138105790505b508c88888e60405161383f99989796959493929190615f81565b60405180910390a183945050505050949350505050565b6000825111156138695781518083602001fd5b806040517f08c379a000000000000000000000000000000000000000000000000000000000815260040161389d9190613e7d565b60405180910390fd5b600083838346306040516020016138c1959493929190616031565b6040516020818303038152906040528051906020012090509392505050565b600060028284186138f1919061519a565b8284166138fe91906155ea565b905092915050565b600080826000015167ffffffffffffffff16149050919050565b600067ffffffffffffffff801682111561396f576040517f08c379a0000000000000000000000000000000000000000000000000000000008152600401613966906160f6565b60405180910390fd5b819050919050565b808260000160006101000a81548167ffffffffffffffff021916908367ffffffffffffffff1602179055505050565b6000604051905090565b600080fd5b600080fd5b60007fffffffff0000000000000000000000000000000000000000000000000000000082169050919050565b6139ef816139ba565b81146139fa57600080fd5b50565b600081359050613a0c816139e6565b92915050565b600060208284031215613a2857613a276139b0565b5b6000613a36848285016139fd565b91505092915050565b60008115159050919050565b613a5481613a3f565b82525050565b6000602082019050613a6f6000830184613a4b565b92915050565b6000819050919050565b613a8881613a75565b82525050565b6000602082019050613aa36000830184613a7f565b92915050565b613ab281613a75565b8114613abd57600080fd5b50565b600081359050613acf81613aa9565b92915050565b600060ff82169050919050565b613aeb81613ad5565b8114613af657600080fd5b50565b600081359050613b0881613ae2565b92915050565b600080fd5b600080fd5b600080fd5b60008083601f840112613b3357613b32613b0e565b5b8235905067ffffffffffffffff811115613b5057613b4f613b13565b5b602083019150836001820283011115613b6c57613b6b613b18565b5b9250929050565b600080fd5b6000601f19601f8301169050919050565b7f4e487b7100000000000000000000000000000000000000000000000000000000600052604160045260246000fd5b613bc182613b78565b810181811067ffffffffffffffff82111715613be057613bdf613b89565b5b80604052505050565b6000613bf36139a6565b9050613bff8282613bb8565b919050565b600067ffffffffffffffff821115613c1f57613c1e613b89565b5b613c2882613b78565b9050602081019050919050565b82818337600083830152505050565b6000613c57613c5284613c04565b613be9565b905082815260208101848484011115613c7357613c72613b73565b5b613c7e848285613c35565b509392505050565b600082601f830112613c9b57613c9a613b0e565b5b8135613cab848260208601613c44565b91505092915050565b6000819050919050565b613cc781613cb4565b8114613cd257600080fd5b50565b600081359050613ce481613cbe565b92915050565b60008060008060008060008060e0898b031215613d0a57613d096139b0565b5b6000613d188b828c01613ac0565b9850506020613d298b828c01613af9565b975050604089013567ffffffffffffffff811115613d4a57613d496139b5565b5b613d568b828c01613b1d565b9650965050606089013567ffffffffffffffff811115613d7957613d786139b5565b5b613d858b828c01613c86565b9450506080613d968b828c01613af9565b93505060a0613da78b828c01613cd5565b92505060c0613db88b828c01613cd5565b9150509295985092959890939650565b600060208284031215613dde57613ddd6139b0565b5b6000613dec84828501613ac0565b91505092915050565b600081519050919050565b600082825260208201905092915050565b60005b83811015613e2f578082015181840152602081019050613e14565b83811115613e3e576000848401525b50505050565b6000613e4f82613df5565b613e598185613e00565b9350613e69818560208601613e11565b613e7281613b78565b840191505092915050565b60006020820190508181036000830152613e978184613e44565b905092915050565b600073ffffffffffffffffffffffffffffffffffffffff82169050919050565b6000613eca82613e9f565b9050919050565b613eda81613ebf565b8114613ee557600080fd5b50565b600081359050613ef781613ed1565b92915050565b60008060008060808587031215613f1757613f166139b0565b5b6000613f2587828801613ee8565b9450506020613f3687828801613ee8565b9350506040613f4787828801613ac0565b925050606085013567ffffffffffffffff811115613f6857613f676139b5565b5b613f7487828801613c86565b91505092959194509250565b613f89816139ba565b82525050565b6000602082019050613fa46000830184613f80565b92915050565b600067ffffffffffffffff821115613fc557613fc4613b89565b5b602082029050602081019050919050565b6000613fe9613fe484613faa565b613be9565b9050808382526020820190506020840283018581111561400c5761400b613b18565b5b835b8181101561403557806140218882613ee8565b84526020840193505060208101905061400e565b5050509392505050565b600082601f83011261405457614053613b0e565b5b8135614064848260208601613fd6565b91505092915050565b600067ffffffffffffffff82111561408857614087613b89565b5b602082029050602081019050919050565b60006140ac6140a78461406d565b613be9565b905080838252602082019050602084028301858111156140cf576140ce613b18565b5b835b818110156140f857806140e48882613ac0565b8452602084019350506020810190506140d1565b5050509392505050565b600082601f83011261411757614116613b0e565b5b8135614127848260208601614099565b91505092915050565b600067ffffffffffffffff82111561414b5761414a613b89565b5b602082029050602081019050919050565b600061416f61416a84614130565b613be9565b9050808382526020820190506020840283018581111561419257614191613b18565b5b835b818110156141d957803567ffffffffffffffff8111156141b7576141b6613b0e565b5b8086016141c48982613c86565b85526020850194505050602081019050614194565b5050509392505050565b600082601f8301126141f8576141f7613b0e565b5b813561420884826020860161415c565b91505092915050565b6000806000806080858703121561422b5761422a6139b0565b5b600085013567ffffffffffffffff811115614249576142486139b5565b5b6142558782880161403f565b945050602085013567ffffffffffffffff811115614276576142756139b5565b5b61428287828801614102565b935050604085013567ffffffffffffffff8111156142a3576142a26139b5565b5b6142af878288016141e3565b92505060606142c087828801613cd5565b91505092959194509250565b6142d581613cb4565b82525050565b60006020820190506142f060008301846142cc565b92915050565b600080600080600060a08688031215614312576143116139b0565b5b600061432088828901613ac0565b955050602061433188828901613af9565b945050604061434288828901613af9565b935050606061435388828901613cd5565b925050608061436488828901613cd5565b9150509295509295909350565b7f4e487b7100000000000000000000000000000000000000000000000000000000600052602160045260246000fd5b600881106143b1576143b0614371565b5b50565b60008190506143c2826143a0565b919050565b60006143d2826143b4565b9050919050565b6143e2816143c7565b82525050565b60006020820190506143fd60008301846143d9565b92915050565b6000806040838503121561441a576144196139b0565b5b600061442885828601613ac0565b925050602061443985828601613ee8565b9150509250929050565b60006060820190506144586000830186613a7f565b6144656020830185613a7f565b6144726040830184613a7f565b949350505050565b60008060408385031215614491576144906139b0565b5b600061449f85828601613ac0565b92505060206144b085828601613af9565b9150509250929050565b6000806000806000608086880312156144d6576144d56139b0565b5b60006144e488828901613ac0565b95505060206144f588828901613af9565b945050604086013567ffffffffffffffff811115614516576145156139b5565b5b61452288828901613b1d565b9350935050606086013567ffffffffffffffff811115614545576145446139b5565b5b61455188828901613c86565b9150509295509295909350565b60008060008060608587031215614578576145776139b0565b5b600061458687828801613ac0565b945050602061459787828801613af9565b935050604085013567ffffffffffffffff8111156145b8576145b76139b5565b5b6145c487828801613b1d565b925092505092959194509250565b600067ffffffffffffffff8211156145ed576145ec613b89565b5b6145f682613b78565b9050602081019050919050565b6000614616614611846145d2565b613be9565b90508281526020810184848401111561463257614631613b73565b5b61463d848285613c35565b509392505050565b600082601f83011261465a57614659613b0e565b5b813561466a848260208601614603565b91505092915050565b6000806000806080858703121561468d5761468c6139b0565b5b600085013567ffffffffffffffff8111156146ab576146aa6139b5565b5b6146b78782880161403f565b945050602085013567ffffffffffffffff8111156146d8576146d76139b5565b5b6146e487828801614102565b935050604085013567ffffffffffffffff811115614705576147046139b5565b5b614711878288016141e3565b925050606085013567ffffffffffffffff811115614732576147316139b5565b5b61473e87828801614645565b91505092959194509250565b600080600060608486031215614763576147626139b0565b5b600061477186828701613ee8565b935050602061478286828701613ac0565b925050604084013567ffffffffffffffff8111156147a3576147a26139b5565b5b6147af86828701613c86565b9150509250925092565b600080600080600060a086880312156147d5576147d46139b0565b5b60006147e388828901613ee8565b95505060206147f488828901613ee8565b945050604086013567ffffffffffffffff811115614815576148146139b5565b5b61482188828901614102565b935050606086013567ffffffffffffffff811115614842576148416139b5565b5b61484e88828901614102565b925050608086013567ffffffffffffffff81111561486f5761486e6139b5565b5b61487b88828901613c86565b9150509295509295909350565b60008083601f84011261489e5761489d613b0e565b5b8235905067ffffffffffffffff8111156148bb576148ba613b13565b5b6020830191508360018202830111156148d7576148d6613b18565b5b9250929050565b600080600080606085870312156148f8576148f76139b0565b5b600061490687828801613ee8565b945050602061491787828801613ac0565b935050604085013567ffffffffffffffff811115614938576149376139b5565b5b61494487828801614888565b925092505092959194509250565b60008060408385031215614969576149686139b0565b5b600061497785828601613ee8565b925050602061498885828601613ac0565b9150509250929050565b600080600080600060a086880312156149ae576149ad6139b0565b5b60006149bc88828901613ee8565b95505060206149cd88828901613ee8565b94505060406149de88828901613ac0565b93505060606149ef88828901613ac0565b925050608086013567ffffffffffffffff811115614a1057614a0f6139b5565b5b614a1c88828901613c86565b9150509295509295909350565b6000819050919050565b6000614a4e614a49614a4484613e9f565b614a29565b613e9f565b9050919050565b6000614a6082614a33565b9050919050565b6000614a7282614a55565b9050919050565b614a8281614a67565b82525050565b6000602082019050614a9d6000830184614a79565b92915050565b600081905092915050565b6000614aba8385614aa3565b9350614ac7838584613c35565b82840190509392505050565b6000614ae0828486614aae565b91508190509392505050565b614af581613ad5565b82525050565b600060a082019050614b1060008301886142cc565b614b1d6020830187613a7f565b614b2a6040830186614aec565b614b3760608301856142cc565b614b4460808301846142cc565b9695505050505050565b7f476f7665726e6f723a206f6e6c79476f7665726e616e63650000000000000000600082015250565b6000614b84601883613e00565b9150614b8f82614b4e565b602082019050919050565b60006020820190508181036000830152614bb381614b77565b9050919050565b7f4e487b7100000000000000000000000000000000000000000000000000000000600052602260045260246000fd5b60006002820490506001821680614c0157607f821691505b60208210811415614c1557614c14614bba565b5b50919050565b7f476f7665726e6f723a2070726f706f73616c206e6f742073756363657373667560008201527f6c00000000000000000000000000000000000000000000000000000000000000602082015250565b6000614c77602183613e00565b9150614c8282614c1b565b604082019050919050565b60006020820190508181036000830152614ca681614c6a565b9050919050565b6000606082019050614cc260008301866142cc565b614ccf6020830185613a7f565b614cdc6040830184614aec565b949350505050565b7f476f7665726e6f723a20756e6b6e6f776e2070726f706f73616c206964000000600082015250565b6000614d1a601d83613e00565b9150614d2582614ce4565b602082019050919050565b60006020820190508181036000830152614d4981614d0d565b9050919050565b7f4e487b7100000000000000000000000000000000000000000000000000000000600052601160045260246000fd5b6000614d8a82613a75565b9150614d9583613a75565b925082821015614da857614da7614d50565b5b828203905092915050565b7f4e487b7100000000000000000000000000000000000000000000000000000000600052603260045260246000fd5b600081519050919050565b600082825260208201905092915050565b6000819050602082019050919050565b614e1781613ebf565b82525050565b6000614e298383614e0e565b60208301905092915050565b6000602082019050919050565b6000614e4d82614de2565b614e578185614ded565b9350614e6283614dfe565b8060005b83811015614e93578151614e7a8882614e1d565b9750614e8583614e35565b925050600181019050614e66565b5085935050505092915050565b600081519050919050565b600082825260208201905092915050565b6000819050602082019050919050565b614ed581613a75565b82525050565b6000614ee78383614ecc565b60208301905092915050565b6000602082019050919050565b6000614f0b82614ea0565b614f158185614eab565b9350614f2083614ebc565b8060005b83811015614f51578151614f388882614edb565b9750614f4383614ef3565b925050600181019050614f24565b5085935050505092915050565b600081519050919050565b600082825260208201905092915050565b6000819050602082019050919050565b600081519050919050565b600082825260208201905092915050565b6000614fb182614f8a565b614fbb8185614f95565b9350614fcb818560208601613e11565b614fd481613b78565b840191505092915050565b6000614feb8383614fa6565b905092915050565b6000602082019050919050565b600061500b82614f5e565b6150158185614f69565b93508360208202850161502785614f7a565b8060005b8581101561506357848403895281516150448582614fdf565b945061504f83614ff3565b925060208a0199505060018101905061502b565b50829750879550505050505092915050565b6000608082019050818103600083015261508f8187614e42565b905081810360208301526150a38186614f00565b905081810360408301526150b78185615000565b90506150c660608301846142cc565b95945050505050565b6000815190506150de81613aa9565b92915050565b6000602082840312156150fa576150f96139b0565b5b6000615108848285016150cf565b91505092915050565b600061511c82613a75565b915061512783613a75565b9250817fffffffffffffffffffffffffffffffffffffffffffffffffffffffffffffffff04831182151516156151605761515f614d50565b5b828202905092915050565b7f4e487b7100000000000000000000000000000000000000000000000000000000600052601260045260246000fd5b60006151a582613a75565b91506151b083613a75565b9250826151c0576151bf61516b565b5b828204905092915050565b7f53616665436173743a2076616c756520646f65736e27742066697420696e203260008201527f3234206269747300000000000000000000000000000000000000000000000000602082015250565b6000615227602783613e00565b9150615232826151cb565b604082019050919050565b600060208201905081810360008301526152568161521a565b9050919050565b7f53616665436173743a2076616c756520646f65736e27742066697420696e203360008201527f3220626974730000000000000000000000000000000000000000000000000000602082015250565b60006152b9602683613e00565b91506152c48261525d565b604082019050919050565b600060208201905081810360008301526152e8816152ac565b9050919050565b7f476f7665726e6f723a20766f7465206e6f742063757272656e746c792061637460008201527f6976650000000000000000000000000000000000000000000000000000000000602082015250565b600061534b602383613e00565b9150615356826152ef565b604082019050919050565b6000602082019050818103600083015261537a8161533e565b9050919050565b60006080820190506153966000830187613a7f565b6153a36020830186614aec565b6153b06040830185613a7f565b81810360608301526153c28184613e44565b905095945050505050565b600082825260208201905092915050565b60006153e982614f8a565b6153f381856153cd565b9350615403818560208601613e11565b61540c81613b78565b840191505092915050565b600060a08201905061542c6000830188613a7f565b6154396020830187614aec565b6154466040830186613a7f565b81810360608301526154588185613e44565b9050818103608083015261546c81846153de565b90509695505050505050565b7f476f7665726e6f72566f74657351756f72756d4672616374696f6e3a2071756f60008201527f72756d4e756d657261746f72206f7665722071756f72756d44656e6f6d696e6160208201527f746f720000000000000000000000000000000000000000000000000000000000604082015250565b60006154fa604383613e00565b915061550582615478565b606082019050919050565b60006020820190508181036000830152615529816154ed565b9050919050565b60006040820190506155456000830185613a7f565b6155526020830184613a7f565b9392505050565b600061556482613a75565b91507fffffffffffffffffffffffffffffffffffffffffffffffffffffffffffffffff82141561559757615596614d50565b5b600182019050919050565b60006155ad82614f8a565b6155b78185614aa3565b93506155c7818560208601613e11565b80840191505092915050565b60006155df82846155a2565b915081905092915050565b60006155f582613a75565b915061560083613a75565b9250827fffffffffffffffffffffffffffffffffffffffffffffffffffffffffffffffff0382111561563557615634614d50565b5b828201905092915050565b7f476f7665726e6f723a2070726f706f73616c206e6f7420616374697665000000600082015250565b6000615676601d83613e00565b915061568182615640565b602082019050919050565b600060208201905081810360008301526156a581615669565b9050919050565b7f436865636b706f696e74733a20626c6f636b206e6f7420796574206d696e6564600082015250565b60006156e2602083613e00565b91506156ed826156ac565b602082019050919050565b60006020820190508181036000830152615711816156d5565b9050919050565b61572181613ebf565b82525050565b600060408201905061573c6000830185615718565b6157496020830184613a7f565b9392505050565b7f476f7665726e6f7253657474696e67733a20766f74696e6720706572696f642060008201527f746f6f206c6f7700000000000000000000000000000000000000000000000000602082015250565b60006157ac602783613e00565b91506157b782615750565b604082019050919050565b600060208201905081810360008301526157db8161579f565b9050919050565b7f436865636b706f696e743a20696e76616c6964206b6579000000000000000000600082015250565b6000615818601783613e00565b9150615823826157e2565b602082019050919050565b600060208201905081810360008301526158478161580b565b9050919050565b600081905092915050565b7f1901000000000000000000000000000000000000000000000000000000000000600082015250565b600061588f60028361584e565b915061589a82615859565b600282019050919050565b6000819050919050565b6158c06158bb82613cb4565b6158a5565b82525050565b60006158d182615882565b91506158dd82856158af565b6020820191506158ed82846158af565b6020820191508190509392505050565b600060808201905061591260008301876142cc565b61591f6020830186614aec565b61592c60408301856142cc565b61593960608301846142cc565b95945050505050565b7f45434453413a20696e76616c6964207369676e61747572650000000000000000600082015250565b6000615978601883613e00565b915061598382615942565b602082019050919050565b600060208201905081810360008301526159a78161596b565b9050919050565b7f45434453413a20696e76616c6964207369676e6174757265206c656e67746800600082015250565b60006159e4601f83613e00565b91506159ef826159ae565b602082019050919050565b60006020820190508181036000830152615a13816159d7565b9050919050565b7f45434453413a20696e76616c6964207369676e6174757265202773272076616c60008201527f7565000000000000000000000000000000000000000000000000000000000000602082015250565b6000615a76602283613e00565b9150615a8182615a1a565b604082019050919050565b60006020820190508181036000830152615aa581615a69565b9050919050565b7f476f7665726e6f72566f74696e6753696d706c653a20766f746520616c72656160008201527f6479206361737400000000000000000000000000000000000000000000000000602082015250565b6000615b08602783613e00565b9150615b1382615aac565b604082019050919050565b60006020820190508181036000830152615b3781615afb565b9050919050565b7f476f7665726e6f72566f74696e6753696d706c653a20696e76616c696420766160008201527f6c756520666f7220656e756d20566f7465547970650000000000000000000000602082015250565b6000615b9a603583613e00565b9150615ba582615b3e565b604082019050919050565b60006020820190508181036000830152615bc981615b8d565b9050919050565b7f476f7665726e6f723a2070726f706f73657220766f7465732062656c6f77207060008201527f726f706f73616c207468726573686f6c64000000000000000000000000000000602082015250565b6000615c2c603183613e00565b9150615c3782615bd0565b604082019050919050565b60006020820190508181036000830152615c5b81615c1f565b9050919050565b7f476f7665726e6f723a20696e76616c69642070726f706f73616c206c656e677460008201527f6800000000000000000000000000000000000000000000000000000000000000602082015250565b6000615cbe602183613e00565b9150615cc982615c62565b604082019050919050565b60006020820190508181036000830152615ced81615cb1565b9050919050565b7f476f7665726e6f723a20656d7074792070726f706f73616c0000000000000000600082015250565b6000615d2a601883613e00565b9150615d3582615cf4565b602082019050919050565b60006020820190508181036000830152615d5981615d1d565b9050919050565b7f476f7665726e6f723a2070726f706f73616c20616c726561647920657869737460008201527f7300000000000000000000000000000000000000000000000000000000000000602082015250565b6000615dbc602183613e00565b9150615dc782615d60565b604082019050919050565b60006020820190508181036000830152615deb81615daf565b9050919050565b600067ffffffffffffffff82169050919050565b6000615e1182615df2565b9150615e1c83615df2565b92508267ffffffffffffffff03821115615e3957615e38614d50565b5b828201905092915050565b600081519050919050565b600082825260208201905092915050565b6000819050602082019050919050565b600082825260208201905092915050565b6000615e8c82613df5565b615e968185615e70565b9350615ea6818560208601613e11565b615eaf81613b78565b840191505092915050565b6000615ec68383615e81565b905092915050565b6000602082019050919050565b6000615ee682615e44565b615ef08185615e4f565b935083602082028501615f0285615e60565b8060005b85811015615f3e5784840389528151615f1f8582615eba565b9450615f2a83615ece565b925060208a01995050600181019050615f06565b50829750879550505050505092915050565b6000615f6b615f66615f6184615df2565b614a29565b613a75565b9050919050565b615f7b81615f50565b82525050565b600061012082019050615f97600083018c613a7f565b615fa4602083018b615718565b8181036040830152615fb6818a614e42565b90508181036060830152615fca8189614f00565b90508181036080830152615fde8188615edb565b905081810360a0830152615ff28187615000565b905061600160c0830186615f72565b61600e60e0830185615f72565b8181036101008301526160218184613e44565b90509a9950505050505050505050565b600060a08201905061604660008301886142cc565b61605360208301876142cc565b61606060408301866142cc565b61606d6060830185613a7f565b61607a6080830184615718565b9695505050505050565b7f53616665436173743a2076616c756520646f65736e27742066697420696e203660008201527f3420626974730000000000000000000000000000000000000000000000000000602082015250565b60006160e0602683613e00565b91506160eb82616084565b604082019050919050565b6000602082019050818103600083015261610f816160d3565b905091905056fe476f7665726e6f723a2072656c617920726576657274656420776974686f7574206d657373616765476f7665726e6f723a2063616c6c20726576657274656420776974686f7574206d657373616765a2646970667358221220a34cbadf4fb652a149f5964a3fe6b9a17c17ca5e24b1700e3cad93b3390e1cb764736f6c63430008090033",
  "linkReferences": {},
  "deployedLinkReferences": {}
}