{
  "_format": "hh-sol-artifact-1",
  "contractName": "ERC1155BurnableMock",
  "sourceName": "contracts/openzeppelin/mocks/ERC1155BurnableMock.sol",
  "abi": [
    {
      "inputs": [
        {
          "internalType": "string",
          "name": "uri",
          "type": "string"
        }
      ],
      "stateMutability": "nonpayable",
      "type": "constructor"
    },
    {
      "anonymous": false,
      "inputs": [
        {
          "indexed": true,
          "internalType": "address",
          "name": "account",
          "type": "address"
        },
        {
          "indexed": true,
          "internalType": "address",
          "name": "operator",
          "type": "address"
        },
        {
          "indexed": false,
          "internalType": "bool",
          "name": "approved",
          "type": "bool"
        }
      ],
      "name": "ApprovalForAll",
      "type": "event"
    },
    {
      "anonymous": false,
      "inputs": [
        {
          "indexed": true,
          "internalType": "address",
          "name": "operator",
          "type": "address"
        },
        {
          "indexed": true,
          "internalType": "address",
          "name": "from",
          "type": "address"
        },
        {
          "indexed": true,
          "internalType": "address",
          "name": "to",
          "type": "address"
        },
        {
          "indexed": false,
          "internalType": "uint256[]",
          "name": "ids",
          "type": "uint256[]"
        },
        {
          "indexed": false,
          "internalType": "uint256[]",
          "name": "values",
          "type": "uint256[]"
        }
      ],
      "name": "TransferBatch",
      "type": "event"
    },
    {
      "anonymous": false,
      "inputs": [
        {
          "indexed": true,
          "internalType": "address",
          "name": "operator",
          "type": "address"
        },
        {
          "indexed": true,
          "internalType": "address",
          "name": "from",
          "type": "address"
        },
        {
          "indexed": true,
          "internalType": "address",
          "name": "to",
          "type": "address"
        },
        {
          "indexed": false,
          "internalType": "uint256",
          "name": "id",
          "type": "uint256"
        },
        {
          "indexed": false,
          "internalType": "uint256",
          "name": "value",
          "type": "uint256"
        }
      ],
      "name": "TransferSingle",
      "type": "event"
    },
    {
      "anonymous": false,
      "inputs": [
        {
          "indexed": false,
          "internalType": "string",
          "name": "value",
          "type": "string"
        },
        {
          "indexed": true,
          "internalType": "uint256",
          "name": "id",
          "type": "uint256"
        }
      ],
      "name": "URI",
      "type": "event"
    },
    {
      "inputs": [
        {
          "internalType": "address",
          "name": "account",
          "type": "address"
        },
        {
          "internalType": "uint256",
          "name": "id",
          "type": "uint256"
        }
      ],
      "name": "balanceOf",
      "outputs": [
        {
          "internalType": "uint256",
          "name": "",
          "type": "uint256"
        }
      ],
      "stateMutability": "view",
      "type": "function"
    },
    {
      "inputs": [
        {
          "internalType": "address[]",
          "name": "accounts",
          "type": "address[]"
        },
        {
          "internalType": "uint256[]",
          "name": "ids",
          "type": "uint256[]"
        }
      ],
      "name": "balanceOfBatch",
      "outputs": [
        {
          "internalType": "uint256[]",
          "name": "",
          "type": "uint256[]"
        }
      ],
      "stateMutability": "view",
      "type": "function"
    },
    {
      "inputs": [
        {
          "internalType": "address",
          "name": "account",
          "type": "address"
        },
        {
          "internalType": "uint256",
          "name": "id",
          "type": "uint256"
        },
        {
          "internalType": "uint256",
          "name": "value",
          "type": "uint256"
        }
      ],
      "name": "burn",
      "outputs": [],
      "stateMutability": "nonpayable",
      "type": "function"
    },
    {
      "inputs": [
        {
          "internalType": "address",
          "name": "account",
          "type": "address"
        },
        {
          "internalType": "uint256[]",
          "name": "ids",
          "type": "uint256[]"
        },
        {
          "internalType": "uint256[]",
          "name": "values",
          "type": "uint256[]"
        }
      ],
      "name": "burnBatch",
      "outputs": [],
      "stateMutability": "nonpayable",
      "type": "function"
    },
    {
      "inputs": [
        {
          "internalType": "address",
          "name": "account",
          "type": "address"
        },
        {
          "internalType": "address",
          "name": "operator",
          "type": "address"
        }
      ],
      "name": "isApprovedForAll",
      "outputs": [
        {
          "internalType": "bool",
          "name": "",
          "type": "bool"
        }
      ],
      "stateMutability": "view",
      "type": "function"
    },
    {
      "inputs": [
        {
          "internalType": "address",
          "name": "to",
          "type": "address"
        },
        {
          "internalType": "uint256",
          "name": "id",
          "type": "uint256"
        },
        {
          "internalType": "uint256",
          "name": "value",
          "type": "uint256"
        },
        {
          "internalType": "bytes",
          "name": "data",
          "type": "bytes"
        }
      ],
      "name": "mint",
      "outputs": [],
      "stateMutability": "nonpayable",
      "type": "function"
    },
    {
      "inputs": [
        {
          "internalType": "address",
          "name": "from",
          "type": "address"
        },
        {
          "internalType": "address",
          "name": "to",
          "type": "address"
        },
        {
          "internalType": "uint256[]",
          "name": "ids",
          "type": "uint256[]"
        },
        {
          "internalType": "uint256[]",
          "name": "amounts",
          "type": "uint256[]"
        },
        {
          "internalType": "bytes",
          "name": "data",
          "type": "bytes"
        }
      ],
      "name": "safeBatchTransferFrom",
      "outputs": [],
      "stateMutability": "nonpayable",
      "type": "function"
    },
    {
      "inputs": [
        {
          "internalType": "address",
          "name": "from",
          "type": "address"
        },
        {
          "internalType": "address",
          "name": "to",
          "type": "address"
        },
        {
          "internalType": "uint256",
          "name": "id",
          "type": "uint256"
        },
        {
          "internalType": "uint256",
          "name": "amount",
          "type": "uint256"
        },
        {
          "internalType": "bytes",
          "name": "data",
          "type": "bytes"
        }
      ],
      "name": "safeTransferFrom",
      "outputs": [],
      "stateMutability": "nonpayable",
      "type": "function"
    },
    {
      "inputs": [
        {
          "internalType": "address",
          "name": "operator",
          "type": "address"
        },
        {
          "internalType": "bool",
          "name": "approved",
          "type": "bool"
        }
      ],
      "name": "setApprovalForAll",
      "outputs": [],
      "stateMutability": "nonpayable",
      "type": "function"
    },
    {
      "inputs": [
        {
          "internalType": "bytes4",
          "name": "interfaceId",
          "type": "bytes4"
        }
      ],
      "name": "supportsInterface",
      "outputs": [
        {
          "internalType": "bool",
          "name": "",
          "type": "bool"
        }
      ],
      "stateMutability": "view",
      "type": "function"
    },
    {
      "inputs": [
        {
          "internalType": "uint256",
          "name": "",
          "type": "uint256"
        }
      ],
      "name": "uri",
      "outputs": [
        {
          "internalType": "string",
          "name": "",
          "type": "string"
        }
      ],
      "stateMutability": "view",
      "type": "function"
    }
  ],
  "bytecode": "0x60806040523480156200001157600080fd5b506040516200346d3803806200346d8339818101604052810190620000379190620002ba565b8062000049816200005160201b60201c565b505062000370565b8060029080519060200190620000699291906200006d565b5050565b8280546200007b906200033a565b90600052602060002090601f0160209004810192826200009f5760008555620000eb565b82601f10620000ba57805160ff1916838001178555620000eb565b82800160010185558215620000eb579182015b82811115620000ea578251825591602001919060010190620000cd565b5b509050620000fa9190620000fe565b5090565b5b8082111562000119576000816000905550600101620000ff565b5090565b6000604051905090565b600080fd5b600080fd5b600080fd5b600080fd5b6000601f19601f8301169050919050565b7f4e487b7100000000000000000000000000000000000000000000000000000000600052604160045260246000fd5b62000186826200013b565b810181811067ffffffffffffffff82111715620001a857620001a76200014c565b5b80604052505050565b6000620001bd6200011d565b9050620001cb82826200017b565b919050565b600067ffffffffffffffff821115620001ee57620001ed6200014c565b5b620001f9826200013b565b9050602081019050919050565b60005b838110156200022657808201518184015260208101905062000209565b8381111562000236576000848401525b50505050565b6000620002536200024d84620001d0565b620001b1565b90508281526020810184848401111562000272576200027162000136565b5b6200027f84828562000206565b509392505050565b600082601f8301126200029f576200029e62000131565b5b8151620002b18482602086016200023c565b91505092915050565b600060208284031215620002d357620002d262000127565b5b600082015167ffffffffffffffff811115620002f457620002f36200012c565b5b620003028482850162000287565b91505092915050565b7f4e487b7100000000000000000000000000000000000000000000000000000000600052602260045260246000fd5b600060028204905060018216806200035357607f821691505b602082108114156200036a57620003696200030b565b5b50919050565b6130ed80620003806000396000f3fe608060405234801561001057600080fd5b50600436106100a85760003560e01c80636b20c454116100715780636b20c45414610189578063731133e9146101a5578063a22cb465146101c1578063e985e9c5146101dd578063f242432a1461020d578063f5298aca14610229576100a8565b8062fdd58e146100ad57806301ffc9a7146100dd5780630e89341c1461010d5780632eb2c2d61461013d5780634e1273f414610159575b600080fd5b6100c760048036038101906100c29190611c5c565b610245565b6040516100d49190611cab565b60405180910390f35b6100f760048036038101906100f29190611d1e565b61030e565b6040516101049190611d66565b60405180910390f35b61012760048036038101906101229190611d81565b6103f0565b6040516101349190611e47565b60405180910390f35b61015760048036038101906101529190612066565b610484565b005b610173600480360381019061016e91906121f8565b610525565b604051610180919061232e565b60405180910390f35b6101a3600480360381019061019e9190612350565b61063e565b005b6101bf60048036038101906101ba91906123db565b6106db565b005b6101db60048036038101906101d6919061248a565b6106ed565b005b6101f760048036038101906101f291906124ca565b610703565b6040516102049190611d66565b60405180910390f35b6102276004803603810190610222919061250a565b610797565b005b610243600480360381019061023e91906125a1565b610838565b005b60008073ffffffffffffffffffffffffffffffffffffffff168373ffffffffffffffffffffffffffffffffffffffff1614156102b6576040517f08c379a00000000000000000000000000000000000000000000000000000000081526004016102ad90612666565b60405180910390fd5b60008083815260200190815260200160002060008473ffffffffffffffffffffffffffffffffffffffff1673ffffffffffffffffffffffffffffffffffffffff16815260200190815260200160002054905092915050565b60007fd9b67a26000000000000000000000000000000000000000000000000000000007bffffffffffffffffffffffffffffffffffffffffffffffffffffffff1916827bffffffffffffffffffffffffffffffffffffffffffffffffffffffff191614806103d957507f0e89341c000000000000000000000000000000000000000000000000000000007bffffffffffffffffffffffffffffffffffffffffffffffffffffffff1916827bffffffffffffffffffffffffffffffffffffffffffffffffffffffff1916145b806103e957506103e8826108d5565b5b9050919050565b6060600280546103ff906126b5565b80601f016020809104026020016040519081016040528092919081815260200182805461042b906126b5565b80156104785780601f1061044d57610100808354040283529160200191610478565b820191906000526020600020905b81548152906001019060200180831161045b57829003601f168201915b50505050509050919050565b61048c61093f565b73ffffffffffffffffffffffffffffffffffffffff168573ffffffffffffffffffffffffffffffffffffffff1614806104d257506104d1856104cc61093f565b610703565b5b610511576040517f08c379a000000000000000000000000000000000000000000000000000000000815260040161050890612759565b60405180910390fd5b61051e8585858585610947565b5050505050565b6060815183511461056b576040517f08c379a0000000000000000000000000000000000000000000000000000000008152600401610562906127eb565b60405180910390fd5b6000835167ffffffffffffffff81111561058857610587611e6e565b5b6040519080825280602002602001820160405280156105b65781602001602082028036833780820191505090505b50905060005b8451811015610633576106038582815181106105db576105da61280b565b5b60200260200101518583815181106105f6576105f561280b565b5b6020026020010151610245565b8282815181106106165761061561280b565b5b6020026020010181815250508061062c90612869565b90506105bc565b508091505092915050565b61064661093f565b73ffffffffffffffffffffffffffffffffffffffff168373ffffffffffffffffffffffffffffffffffffffff16148061068c575061068b8361068661093f565b610703565b5b6106cb576040517f08c379a00000000000000000000000000000000000000000000000000000000081526004016106c290612759565b60405180910390fd5b6106d6838383610c69565b505050565b6106e784848484610f38565b50505050565b6106ff6106f861093f565b83836110e9565b5050565b6000600160008473ffffffffffffffffffffffffffffffffffffffff1673ffffffffffffffffffffffffffffffffffffffff16815260200190815260200160002060008373ffffffffffffffffffffffffffffffffffffffff1673ffffffffffffffffffffffffffffffffffffffff16815260200190815260200160002060009054906101000a900460ff16905092915050565b61079f61093f565b73ffffffffffffffffffffffffffffffffffffffff168573ffffffffffffffffffffffffffffffffffffffff1614806107e557506107e4856107df61093f565b610703565b5b610824576040517f08c379a000000000000000000000000000000000000000000000000000000000815260040161081b90612759565b60405180910390fd5b6108318585858585611256565b5050505050565b61084061093f565b73ffffffffffffffffffffffffffffffffffffffff168373ffffffffffffffffffffffffffffffffffffffff16148061088657506108858361088061093f565b610703565b5b6108c5576040517f08c379a00000000000000000000000000000000000000000000000000000000081526004016108bc90612759565b60405180910390fd5b6108d08383836114f2565b505050565b60007f01ffc9a7000000000000000000000000000000000000000000000000000000007bffffffffffffffffffffffffffffffffffffffffffffffffffffffff1916827bffffffffffffffffffffffffffffffffffffffffffffffffffffffff1916149050919050565b600033905090565b815183511461098b576040517f08c379a000000000000000000000000000000000000000000000000000000000815260040161098290612924565b60405180910390fd5b600073ffffffffffffffffffffffffffffffffffffffff168473ffffffffffffffffffffffffffffffffffffffff1614156109fb576040517f08c379a00000000000000000000000000000000000000000000000000000000081526004016109f2906129b6565b60405180910390fd5b6000610a0561093f565b9050610a15818787878787611739565b60005b8451811015610bc6576000858281518110610a3657610a3561280b565b5b602002602001015190506000858381518110610a5557610a5461280b565b5b60200260200101519050600080600084815260200190815260200160002060008b73ffffffffffffffffffffffffffffffffffffffff1673ffffffffffffffffffffffffffffffffffffffff16815260200190815260200160002054905081811015610af6576040517f08c379a0000000000000000000000000000000000000000000000000000000008152600401610aed90612a48565b60405180910390fd5b81810360008085815260200190815260200160002060008c73ffffffffffffffffffffffffffffffffffffffff1673ffffffffffffffffffffffffffffffffffffffff168152602001908152602001600020819055508160008085815260200190815260200160002060008b73ffffffffffffffffffffffffffffffffffffffff1673ffffffffffffffffffffffffffffffffffffffff1681526020019081526020016000206000828254610bab9190612a68565b9250508190555050505080610bbf90612869565b9050610a18565b508473ffffffffffffffffffffffffffffffffffffffff168673ffffffffffffffffffffffffffffffffffffffff168273ffffffffffffffffffffffffffffffffffffffff167f4a39dc06d4c0dbc64b70af90fd698a233a518aa5d07e595d983b8c0526c8f7fb8787604051610c3d929190612abe565b60405180910390a4610c53818787878787611741565b610c61818787878787611749565b505050505050565b600073ffffffffffffffffffffffffffffffffffffffff168373ffffffffffffffffffffffffffffffffffffffff161415610cd9576040517f08c379a0000000000000000000000000000000000000000000000000000000008152600401610cd090612b67565b60405180910390fd5b8051825114610d1d576040517f08c379a0000000000000000000000000000000000000000000000000000000008152600401610d1490612924565b60405180910390fd5b6000610d2761093f565b9050610d4781856000868660405180602001604052806000815250611739565b60005b8351811015610e94576000848281518110610d6857610d6761280b565b5b602002602001015190506000848381518110610d8757610d8661280b565b5b60200260200101519050600080600084815260200190815260200160002060008973ffffffffffffffffffffffffffffffffffffffff1673ffffffffffffffffffffffffffffffffffffffff16815260200190815260200160002054905081811015610e28576040517f08c379a0000000000000000000000000000000000000000000000000000000008152600401610e1f90612bf9565b60405180910390fd5b81810360008085815260200190815260200160002060008a73ffffffffffffffffffffffffffffffffffffffff1673ffffffffffffffffffffffffffffffffffffffff168152602001908152602001600020819055505050508080610e8c90612869565b915050610d4a565b50600073ffffffffffffffffffffffffffffffffffffffff168473ffffffffffffffffffffffffffffffffffffffff168273ffffffffffffffffffffffffffffffffffffffff167f4a39dc06d4c0dbc64b70af90fd698a233a518aa5d07e595d983b8c0526c8f7fb8686604051610f0c929190612abe565b60405180910390a4610f3281856000868660405180602001604052806000815250611741565b50505050565b600073ffffffffffffffffffffffffffffffffffffffff168473ffffffffffffffffffffffffffffffffffffffff161415610fa8576040517f08c379a0000000000000000000000000000000000000000000000000000000008152600401610f9f90612c8b565b60405180910390fd5b6000610fb261093f565b90506000610fbf85611930565b90506000610fcc85611930565b9050610fdd83600089858589611739565b8460008088815260200190815260200160002060008973ffffffffffffffffffffffffffffffffffffffff1673ffffffffffffffffffffffffffffffffffffffff168152602001908152602001600020600082825461103c9190612a68565b925050819055508673ffffffffffffffffffffffffffffffffffffffff16600073ffffffffffffffffffffffffffffffffffffffff168473ffffffffffffffffffffffffffffffffffffffff167fc3d58168c5ae7397731d063d5bbf3d657854427343f4c083240f7aacaa2d0f6289896040516110ba929190612cab565b60405180910390a46110d183600089858589611741565b6110e0836000898989896119aa565b50505050505050565b8173ffffffffffffffffffffffffffffffffffffffff168373ffffffffffffffffffffffffffffffffffffffff161415611158576040517f08c379a000000000000000000000000000000000000000000000000000000000815260040161114f90612d46565b60405180910390fd5b80600160008573ffffffffffffffffffffffffffffffffffffffff1673ffffffffffffffffffffffffffffffffffffffff16815260200190815260200160002060008473ffffffffffffffffffffffffffffffffffffffff1673ffffffffffffffffffffffffffffffffffffffff16815260200190815260200160002060006101000a81548160ff0219169083151502179055508173ffffffffffffffffffffffffffffffffffffffff168373ffffffffffffffffffffffffffffffffffffffff167f17307eab39ab6107e8899845ad3d59bd9653f200f220920489ca2b5937696c31836040516112499190611d66565b60405180910390a3505050565b600073ffffffffffffffffffffffffffffffffffffffff168473ffffffffffffffffffffffffffffffffffffffff1614156112c6576040517f08c379a00000000000000000000000000000000000000000000000000000000081526004016112bd906129b6565b60405180910390fd5b60006112d061093f565b905060006112dd85611930565b905060006112ea85611930565b90506112fa838989858589611739565b600080600088815260200190815260200160002060008a73ffffffffffffffffffffffffffffffffffffffff1673ffffffffffffffffffffffffffffffffffffffff16815260200190815260200160002054905085811015611391576040517f08c379a000000000000000000000000000000000000000000000000000000000815260040161138890612a48565b60405180910390fd5b85810360008089815260200190815260200160002060008b73ffffffffffffffffffffffffffffffffffffffff1673ffffffffffffffffffffffffffffffffffffffff168152602001908152602001600020819055508560008089815260200190815260200160002060008a73ffffffffffffffffffffffffffffffffffffffff1673ffffffffffffffffffffffffffffffffffffffff16815260200190815260200160002060008282546114469190612a68565b925050819055508773ffffffffffffffffffffffffffffffffffffffff168973ffffffffffffffffffffffffffffffffffffffff168573ffffffffffffffffffffffffffffffffffffffff167fc3d58168c5ae7397731d063d5bbf3d657854427343f4c083240f7aacaa2d0f628a8a6040516114c3929190612cab565b60405180910390a46114d9848a8a86868a611741565b6114e7848a8a8a8a8a6119aa565b505050505050505050565b600073ffffffffffffffffffffffffffffffffffffffff168373ffffffffffffffffffffffffffffffffffffffff161415611562576040517f08c379a000000000000000000000000000000000000000000000000000000000815260040161155990612b67565b60405180910390fd5b600061156c61093f565b9050600061157984611930565b9050600061158684611930565b90506115a683876000858560405180602001604052806000815250611739565b600080600087815260200190815260200160002060008873ffffffffffffffffffffffffffffffffffffffff1673ffffffffffffffffffffffffffffffffffffffff1681526020019081526020016000205490508481101561163d576040517f08c379a000000000000000000000000000000000000000000000000000000000815260040161163490612bf9565b60405180910390fd5b84810360008088815260200190815260200160002060008973ffffffffffffffffffffffffffffffffffffffff1673ffffffffffffffffffffffffffffffffffffffff16815260200190815260200160002081905550600073ffffffffffffffffffffffffffffffffffffffff168773ffffffffffffffffffffffffffffffffffffffff168573ffffffffffffffffffffffffffffffffffffffff167fc3d58168c5ae7397731d063d5bbf3d657854427343f4c083240f7aacaa2d0f62898960405161170a929190612cab565b60405180910390a461173084886000868660405180602001604052806000815250611741565b50505050505050565b505050505050565b505050505050565b6117688473ffffffffffffffffffffffffffffffffffffffff16611b91565b15611928578373ffffffffffffffffffffffffffffffffffffffff1663bc197c8187878686866040518663ffffffff1660e01b81526004016117ae959493929190612dca565b602060405180830381600087803b1580156117c857600080fd5b505af19250505080156117f957506040513d601f19601f820116820180604052508101906117f69190612e47565b60015b61189f57611805612e81565b806308c379a01415611862575061181a612ea3565b806118255750611864565b806040517f08c379a00000000000000000000000000000000000000000000000000000000081526004016118599190611e47565b60405180910390fd5b505b6040517f08c379a000000000000000000000000000000000000000000000000000000000815260040161189690612fab565b60405180910390fd5b63bc197c8160e01b7bffffffffffffffffffffffffffffffffffffffffffffffffffffffff1916817bffffffffffffffffffffffffffffffffffffffffffffffffffffffff191614611926576040517f08c379a000000000000000000000000000000000000000000000000000000000815260040161191d9061303d565b60405180910390fd5b505b505050505050565b60606000600167ffffffffffffffff81111561194f5761194e611e6e565b5b60405190808252806020026020018201604052801561197d5781602001602082028036833780820191505090505b50905082816000815181106119955761199461280b565b5b60200260200101818152505080915050919050565b6119c98473ffffffffffffffffffffffffffffffffffffffff16611b91565b15611b89578373ffffffffffffffffffffffffffffffffffffffff1663f23a6e6187878686866040518663ffffffff1660e01b8152600401611a0f95949392919061305d565b602060405180830381600087803b158015611a2957600080fd5b505af1925050508015611a5a57506040513d601f19601f82011682018060405250810190611a579190612e47565b60015b611b0057611a66612e81565b806308c379a01415611ac35750611a7b612ea3565b80611a865750611ac5565b806040517f08c379a0000000000000000000000000000000000000000000000000000000008152600401611aba9190611e47565b60405180910390fd5b505b6040517f08c379a0000000000000000000000000000000000000000000000000000000008152600401611af790612fab565b60405180910390fd5b63f23a6e6160e01b7bffffffffffffffffffffffffffffffffffffffffffffffffffffffff1916817bffffffffffffffffffffffffffffffffffffffffffffffffffffffff191614611b87576040517f08c379a0000000000000000000000000000000000000000000000000000000008152600401611b7e9061303d565b60405180910390fd5b505b505050505050565b6000808273ffffffffffffffffffffffffffffffffffffffff163b119050919050565b6000604051905090565b600080fd5b600080fd5b600073ffffffffffffffffffffffffffffffffffffffff82169050919050565b6000611bf382611bc8565b9050919050565b611c0381611be8565b8114611c0e57600080fd5b50565b600081359050611c2081611bfa565b92915050565b6000819050919050565b611c3981611c26565b8114611c4457600080fd5b50565b600081359050611c5681611c30565b92915050565b60008060408385031215611c7357611c72611bbe565b5b6000611c8185828601611c11565b9250506020611c9285828601611c47565b9150509250929050565b611ca581611c26565b82525050565b6000602082019050611cc06000830184611c9c565b92915050565b60007fffffffff0000000000000000000000000000000000000000000000000000000082169050919050565b611cfb81611cc6565b8114611d0657600080fd5b50565b600081359050611d1881611cf2565b92915050565b600060208284031215611d3457611d33611bbe565b5b6000611d4284828501611d09565b91505092915050565b60008115159050919050565b611d6081611d4b565b82525050565b6000602082019050611d7b6000830184611d57565b92915050565b600060208284031215611d9757611d96611bbe565b5b6000611da584828501611c47565b91505092915050565b600081519050919050565b600082825260208201905092915050565b60005b83811015611de8578082015181840152602081019050611dcd565b83811115611df7576000848401525b50505050565b6000601f19601f8301169050919050565b6000611e1982611dae565b611e238185611db9565b9350611e33818560208601611dca565b611e3c81611dfd565b840191505092915050565b60006020820190508181036000830152611e618184611e0e565b905092915050565b600080fd5b7f4e487b7100000000000000000000000000000000000000000000000000000000600052604160045260246000fd5b611ea682611dfd565b810181811067ffffffffffffffff82111715611ec557611ec4611e6e565b5b80604052505050565b6000611ed8611bb4565b9050611ee48282611e9d565b919050565b600067ffffffffffffffff821115611f0457611f03611e6e565b5b602082029050602081019050919050565b600080fd5b6000611f2d611f2884611ee9565b611ece565b90508083825260208201905060208402830185811115611f5057611f4f611f15565b5b835b81811015611f795780611f658882611c47565b845260208401935050602081019050611f52565b5050509392505050565b600082601f830112611f9857611f97611e69565b5b8135611fa8848260208601611f1a565b91505092915050565b600080fd5b600067ffffffffffffffff821115611fd157611fd0611e6e565b5b611fda82611dfd565b9050602081019050919050565b82818337600083830152505050565b600061200961200484611fb6565b611ece565b90508281526020810184848401111561202557612024611fb1565b5b612030848285611fe7565b509392505050565b600082601f83011261204d5761204c611e69565b5b813561205d848260208601611ff6565b91505092915050565b600080600080600060a0868803121561208257612081611bbe565b5b600061209088828901611c11565b95505060206120a188828901611c11565b945050604086013567ffffffffffffffff8111156120c2576120c1611bc3565b5b6120ce88828901611f83565b935050606086013567ffffffffffffffff8111156120ef576120ee611bc3565b5b6120fb88828901611f83565b925050608086013567ffffffffffffffff81111561211c5761211b611bc3565b5b61212888828901612038565b9150509295509295909350565b600067ffffffffffffffff8211156121505761214f611e6e565b5b602082029050602081019050919050565b600061217461216f84612135565b611ece565b9050808382526020820190506020840283018581111561219757612196611f15565b5b835b818110156121c057806121ac8882611c11565b845260208401935050602081019050612199565b5050509392505050565b600082601f8301126121df576121de611e69565b5b81356121ef848260208601612161565b91505092915050565b6000806040838503121561220f5761220e611bbe565b5b600083013567ffffffffffffffff81111561222d5761222c611bc3565b5b612239858286016121ca565b925050602083013567ffffffffffffffff81111561225a57612259611bc3565b5b61226685828601611f83565b9150509250929050565b600081519050919050565b600082825260208201905092915050565b6000819050602082019050919050565b6122a581611c26565b82525050565b60006122b7838361229c565b60208301905092915050565b6000602082019050919050565b60006122db82612270565b6122e5818561227b565b93506122f08361228c565b8060005b8381101561232157815161230888826122ab565b9750612313836122c3565b9250506001810190506122f4565b5085935050505092915050565b6000602082019050818103600083015261234881846122d0565b905092915050565b60008060006060848603121561236957612368611bbe565b5b600061237786828701611c11565b935050602084013567ffffffffffffffff81111561239857612397611bc3565b5b6123a486828701611f83565b925050604084013567ffffffffffffffff8111156123c5576123c4611bc3565b5b6123d186828701611f83565b9150509250925092565b600080600080608085870312156123f5576123f4611bbe565b5b600061240387828801611c11565b945050602061241487828801611c47565b935050604061242587828801611c47565b925050606085013567ffffffffffffffff81111561244657612445611bc3565b5b61245287828801612038565b91505092959194509250565b61246781611d4b565b811461247257600080fd5b50565b6000813590506124848161245e565b92915050565b600080604083850312156124a1576124a0611bbe565b5b60006124af85828601611c11565b92505060206124c085828601612475565b9150509250929050565b600080604083850312156124e1576124e0611bbe565b5b60006124ef85828601611c11565b925050602061250085828601611c11565b9150509250929050565b600080600080600060a0868803121561252657612525611bbe565b5b600061253488828901611c11565b955050602061254588828901611c11565b945050604061255688828901611c47565b935050606061256788828901611c47565b925050608086013567ffffffffffffffff81111561258857612587611bc3565b5b61259488828901612038565b9150509295509295909350565b6000806000606084860312156125ba576125b9611bbe565b5b60006125c886828701611c11565b93505060206125d986828701611c47565b92505060406125ea86828701611c47565b9150509250925092565b7f455243313135353a2061646472657373207a65726f206973206e6f742061207660008201527f616c6964206f776e657200000000000000000000000000000000000000000000602082015250565b6000612650602a83611db9565b915061265b826125f4565b604082019050919050565b6000602082019050818103600083015261267f81612643565b9050919050565b7f4e487b7100000000000000000000000000000000000000000000000000000000600052602260045260246000fd5b600060028204905060018216806126cd57607f821691505b602082108114156126e1576126e0612686565b5b50919050565b7f455243313135353a2063616c6c6572206973206e6f7420746f6b656e206f776e60008201527f6572206f7220617070726f766564000000000000000000000000000000000000602082015250565b6000612743602e83611db9565b915061274e826126e7565b604082019050919050565b6000602082019050818103600083015261277281612736565b9050919050565b7f455243313135353a206163636f756e747320616e6420696473206c656e67746860008201527f206d69736d617463680000000000000000000000000000000000000000000000602082015250565b60006127d5602983611db9565b91506127e082612779565b604082019050919050565b60006020820190508181036000830152612804816127c8565b9050919050565b7f4e487b7100000000000000000000000000000000000000000000000000000000600052603260045260246000fd5b7f4e487b7100000000000000000000000000000000000000000000000000000000600052601160045260246000fd5b600061287482611c26565b91507fffffffffffffffffffffffffffffffffffffffffffffffffffffffffffffffff8214156128a7576128a661283a565b5b600182019050919050565b7f455243313135353a2069647320616e6420616d6f756e7473206c656e6774682060008201527f6d69736d61746368000000000000000000000000000000000000000000000000602082015250565b600061290e602883611db9565b9150612919826128b2565b604082019050919050565b6000602082019050818103600083015261293d81612901565b9050919050565b7f455243313135353a207472616e7366657220746f20746865207a65726f20616460008201527f6472657373000000000000000000000000000000000000000000000000000000602082015250565b60006129a0602583611db9565b91506129ab82612944565b604082019050919050565b600060208201905081810360008301526129cf81612993565b9050919050565b7f455243313135353a20696e73756666696369656e742062616c616e636520666f60008201527f72207472616e7366657200000000000000000000000000000000000000000000602082015250565b6000612a32602a83611db9565b9150612a3d826129d6565b604082019050919050565b60006020820190508181036000830152612a6181612a25565b9050919050565b6000612a7382611c26565b9150612a7e83611c26565b9250827fffffffffffffffffffffffffffffffffffffffffffffffffffffffffffffffff03821115612ab357612ab261283a565b5b828201905092915050565b60006040820190508181036000830152612ad881856122d0565b90508181036020830152612aec81846122d0565b90509392505050565b7f455243313135353a206275726e2066726f6d20746865207a65726f206164647260008201527f6573730000000000000000000000000000000000000000000000000000000000602082015250565b6000612b51602383611db9565b9150612b5c82612af5565b604082019050919050565b60006020820190508181036000830152612b8081612b44565b9050919050565b7f455243313135353a206275726e20616d6f756e7420657863656564732062616c60008201527f616e636500000000000000000000000000000000000000000000000000000000602082015250565b6000612be3602483611db9565b9150612bee82612b87565b604082019050919050565b60006020820190508181036000830152612c1281612bd6565b9050919050565b7f455243313135353a206d696e7420746f20746865207a65726f2061646472657360008201527f7300000000000000000000000000000000000000000000000000000000000000602082015250565b6000612c75602183611db9565b9150612c8082612c19565b604082019050919050565b60006020820190508181036000830152612ca481612c68565b9050919050565b6000604082019050612cc06000830185611c9c565b612ccd6020830184611c9c565b9392505050565b7f455243313135353a2073657474696e6720617070726f76616c2073746174757360008201527f20666f722073656c660000000000000000000000000000000000000000000000602082015250565b6000612d30602983611db9565b9150612d3b82612cd4565b604082019050919050565b60006020820190508181036000830152612d5f81612d23565b9050919050565b612d6f81611be8565b82525050565b600081519050919050565b600082825260208201905092915050565b6000612d9c82612d75565b612da68185612d80565b9350612db6818560208601611dca565b612dbf81611dfd565b840191505092915050565b600060a082019050612ddf6000830188612d66565b612dec6020830187612d66565b8181036040830152612dfe81866122d0565b90508181036060830152612e1281856122d0565b90508181036080830152612e268184612d91565b90509695505050505050565b600081519050612e4181611cf2565b92915050565b600060208284031215612e5d57612e5c611bbe565b5b6000612e6b84828501612e32565b91505092915050565b60008160e01c9050919050565b600060033d1115612ea05760046000803e612e9d600051612e74565b90505b90565b600060443d1015612eb357612f36565b612ebb611bb4565b60043d036004823e80513d602482011167ffffffffffffffff82111715612ee3575050612f36565b808201805167ffffffffffffffff811115612f015750505050612f36565b80602083010160043d038501811115612f1e575050505050612f36565b612f2d82602001850186611e9d565b82955050505050505b90565b7f455243313135353a207472616e7366657220746f206e6f6e2d4552433131353560008201527f526563656976657220696d706c656d656e746572000000000000000000000000602082015250565b6000612f95603483611db9565b9150612fa082612f39565b604082019050919050565b60006020820190508181036000830152612fc481612f88565b9050919050565b7f455243313135353a204552433131353552656365697665722072656a6563746560008201527f6420746f6b656e73000000000000000000000000000000000000000000000000602082015250565b6000613027602883611db9565b915061303282612fcb565b604082019050919050565b600060208201905081810360008301526130568161301a565b9050919050565b600060a0820190506130726000830188612d66565b61307f6020830187612d66565b61308c6040830186611c9c565b6130996060830185611c9c565b81810360808301526130ab8184612d91565b9050969550505050505056fea264697066735822122068cd091933cf26f6bcf899fc365e6ff6d18c86daed0b188785a6a87242eaf93764736f6c63430008090033",
  "linkReferences": {},
  "deployedLinkReferences": {}
}