{
  "_format": "hh-sol-artifact-1",
  "contractName": "ERC20WrapperMock",
  "sourceName": "contracts/openzeppelin/mocks/ERC20WrapperMock.sol",
  "abi": [
    {
      "inputs": [
        {
          "internalType": "contract IERC20",
          "name": "_underlyingToken",
          "type": "address"
        },
        {
          "internalType": "string",
          "name": "name",
          "type": "string"
        },
        {
          "internalType": "string",
          "name": "symbol",
          "type": "string"
        }
      ],
      "stateMutability": "nonpayable",
      "type": "constructor"
    },
    {
      "anonymous": false,
      "inputs": [
        {
          "indexed": true,
          "internalType": "address",
          "name": "owner",
          "type": "address"
        },
        {
          "indexed": true,
          "internalType": "address",
          "name": "spender",
          "type": "address"
        },
        {
          "indexed": false,
          "internalType": "uint256",
          "name": "value",
          "type": "uint256"
        }
      ],
      "name": "Approval",
      "type": "event"
    },
    {
      "anonymous": false,
      "inputs": [
        {
          "indexed": true,
          "internalType": "address",
          "name": "from",
          "type": "address"
        },
        {
          "indexed": true,
          "internalType": "address",
          "name": "to",
          "type": "address"
        },
        {
          "indexed": false,
          "internalType": "uint256",
          "name": "value",
          "type": "uint256"
        }
      ],
      "name": "Transfer",
      "type": "event"
    },
    {
      "inputs": [
        {
          "internalType": "address",
          "name": "owner",
          "type": "address"
        },
        {
          "internalType": "address",
          "name": "spender",
          "type": "address"
        }
      ],
      "name": "allowance",
      "outputs": [
        {
          "internalType": "uint256",
          "name": "",
          "type": "uint256"
        }
      ],
      "stateMutability": "view",
      "type": "function"
    },
    {
      "inputs": [
        {
          "internalType": "address",
          "name": "spender",
          "type": "address"
        },
        {
          "internalType": "uint256",
          "name": "amount",
          "type": "uint256"
        }
      ],
      "name": "approve",
      "outputs": [
        {
          "internalType": "bool",
          "name": "",
          "type": "bool"
        }
      ],
      "stateMutability": "nonpayable",
      "type": "function"
    },
    {
      "inputs": [
        {
          "internalType": "address",
          "name": "account",
          "type": "address"
        }
      ],
      "name": "balanceOf",
      "outputs": [
        {
          "internalType": "uint256",
          "name": "",
          "type": "uint256"
        }
      ],
      "stateMutability": "view",
      "type": "function"
    },
    {
      "inputs": [],
      "name": "decimals",
      "outputs": [
        {
          "internalType": "uint8",
          "name": "",
          "type": "uint8"
        }
      ],
      "stateMutability": "view",
      "type": "function"
    },
    {
      "inputs": [
        {
          "internalType": "address",
          "name": "spender",
          "type": "address"
        },
        {
          "internalType": "uint256",
          "name": "subtractedValue",
          "type": "uint256"
        }
      ],
      "name": "decreaseAllowance",
      "outputs": [
        {
          "internalType": "bool",
          "name": "",
          "type": "bool"
        }
      ],
      "stateMutability": "nonpayable",
      "type": "function"
    },
    {
      "inputs": [
        {
          "internalType": "address",
          "name": "account",
          "type": "address"
        },
        {
          "internalType": "uint256",
          "name": "amount",
          "type": "uint256"
        }
      ],
      "name": "depositFor",
      "outputs": [
        {
          "internalType": "bool",
          "name": "",
          "type": "bool"
        }
      ],
      "stateMutability": "nonpayable",
      "type": "function"
    },
    {
      "inputs": [
        {
          "internalType": "address",
          "name": "spender",
          "type": "address"
        },
        {
          "internalType": "uint256",
          "name": "addedValue",
          "type": "uint256"
        }
      ],
      "name": "increaseAllowance",
      "outputs": [
        {
          "internalType": "bool",
          "name": "",
          "type": "bool"
        }
      ],
      "stateMutability": "nonpayable",
      "type": "function"
    },
    {
      "inputs": [],
      "name": "name",
      "outputs": [
        {
          "internalType": "string",
          "name": "",
          "type": "string"
        }
      ],
      "stateMutability": "view",
      "type": "function"
    },
    {
      "inputs": [
        {
          "internalType": "address",
          "name": "account",
          "type": "address"
        }
      ],
      "name": "recover",
      "outputs": [
        {
          "internalType": "uint256",
          "name": "",
          "type": "uint256"
        }
      ],
      "stateMutability": "nonpayable",
      "type": "function"
    },
    {
      "inputs": [],
      "name": "symbol",
      "outputs": [
        {
          "internalType": "string",
          "name": "",
          "type": "string"
        }
      ],
      "stateMutability": "view",
      "type": "function"
    },
    {
      "inputs": [],
      "name": "totalSupply",
      "outputs": [
        {
          "internalType": "uint256",
          "name": "",
          "type": "uint256"
        }
      ],
      "stateMutability": "view",
      "type": "function"
    },
    {
      "inputs": [
        {
          "internalType": "address",
          "name": "to",
          "type": "address"
        },
        {
          "internalType": "uint256",
          "name": "amount",
          "type": "uint256"
        }
      ],
      "name": "transfer",
      "outputs": [
        {
          "internalType": "bool",
          "name": "",
          "type": "bool"
        }
      ],
      "stateMutability": "nonpayable",
      "type": "function"
    },
    {
      "inputs": [
        {
          "internalType": "address",
          "name": "from",
          "type": "address"
        },
        {
          "internalType": "address",
          "name": "to",
          "type": "address"
        },
        {
          "internalType": "uint256",
          "name": "amount",
          "type": "uint256"
        }
      ],
      "name": "transferFrom",
      "outputs": [
        {
          "internalType": "bool",
          "name": "",
          "type": "bool"
        }
      ],
      "stateMutability": "nonpayable",
      "type": "function"
    },
    {
      "inputs": [],
      "name": "underlying",
      "outputs": [
        {
          "internalType": "contract IERC20",
          "name": "",
          "type": "address"
        }
      ],
      "stateMutability": "view",
      "type": "function"
    },
    {
      "inputs": [
        {
          "internalType": "address",
          "name": "account",
          "type": "address"
        },
        {
          "internalType": "uint256",
          "name": "amount",
          "type": "uint256"
        }
      ],
      "name": "withdrawTo",
      "outputs": [
        {
          "internalType": "bool",
          "name": "",
          "type": "bool"
        }
      ],
      "stateMutability": "nonpayable",
      "type": "function"
    }
  ],
  "bytecode": "0x60a06040523480156200001157600080fd5b50604051620026c3380380620026c3833981810160405281019062000037919062000372565b828282816003908051906020019062000052929190620000ac565b5080600490805190602001906200006b929190620000ac565b5050508073ffffffffffffffffffffffffffffffffffffffff1660808173ffffffffffffffffffffffffffffffffffffffff16815250505050505062000471565b828054620000ba906200043b565b90600052602060002090601f016020900481019282620000de57600085556200012a565b82601f10620000f957805160ff19168380011785556200012a565b828001600101855582156200012a579182015b82811115620001295782518255916020019190600101906200010c565b5b5090506200013991906200013d565b5090565b5b80821115620001585760008160009055506001016200013e565b5090565b6000604051905090565b600080fd5b600080fd5b600073ffffffffffffffffffffffffffffffffffffffff82169050919050565b60006200019d8262000170565b9050919050565b6000620001b18262000190565b9050919050565b620001c381620001a4565b8114620001cf57600080fd5b50565b600081519050620001e381620001b8565b92915050565b600080fd5b600080fd5b6000601f19601f8301169050919050565b7f4e487b7100000000000000000000000000000000000000000000000000000000600052604160045260246000fd5b6200023e82620001f3565b810181811067ffffffffffffffff8211171562000260576200025f62000204565b5b80604052505050565b6000620002756200015c565b905062000283828262000233565b919050565b600067ffffffffffffffff821115620002a657620002a562000204565b5b620002b182620001f3565b9050602081019050919050565b60005b83811015620002de578082015181840152602081019050620002c1565b83811115620002ee576000848401525b50505050565b60006200030b620003058462000288565b62000269565b9050828152602081018484840111156200032a5762000329620001ee565b5b62000337848285620002be565b509392505050565b600082601f830112620003575762000356620001e9565b5b815162000369848260208601620002f4565b91505092915050565b6000806000606084860312156200038e576200038d62000166565b5b60006200039e86828701620001d2565b935050602084015167ffffffffffffffff811115620003c257620003c16200016b565b5b620003d0868287016200033f565b925050604084015167ffffffffffffffff811115620003f457620003f36200016b565b5b62000402868287016200033f565b9150509250925092565b7f4e487b7100000000000000000000000000000000000000000000000000000000600052602260045260246000fd5b600060028204905060018216806200045457607f821691505b602082108114156200046b576200046a6200040c565b5b50919050565b60805161221a620004a960003960008181610459015281816104bf01528181610505015281816105ee01526109eb015261221a6000f3fe608060405234801561001057600080fd5b50600436106100f55760003560e01c8063313ce5671161009757806395d89b411161006657806395d89b41146102c2578063a457c2d7146102e0578063a9059cbb14610310578063dd62ed3e14610340576100f5565b8063313ce5671461022657806339509351146102445780636f307dc31461027457806370a0823114610292576100f5565b806318160ddd116100d357806318160ddd14610178578063205c28781461019657806323b872dd146101c65780632f4f21e2146101f6576100f5565b806306fdde03146100fa578063095ea7b3146101185780630cd865ec14610148575b600080fd5b610102610370565b60405161010f919061152a565b60405180910390f35b610132600480360381019061012d91906115e5565b610402565b60405161013f9190611640565b60405180910390f35b610162600480360381019061015d919061165b565b610425565b60405161016f9190611697565b60405180910390f35b610180610437565b60405161018d9190611697565b60405180910390f35b6101b060048036038101906101ab91906115e5565b610441565b6040516101bd9190611640565b60405180910390f35b6101e060048036038101906101db91906116b2565b610489565b6040516101ed9190611640565b60405180910390f35b610210600480360381019061020b91906115e5565b6104b8565b60405161021d9190611640565b60405180910390f35b61022e610501565b60405161023b9190611721565b60405180910390f35b61025e600480360381019061025991906115e5565b6105b5565b60405161026b9190611640565b60405180910390f35b61027c6105ec565b604051610289919061179b565b60405180910390f35b6102ac60048036038101906102a7919061165b565b610610565b6040516102b99190611697565b60405180910390f35b6102ca610658565b6040516102d7919061152a565b60405180910390f35b6102fa60048036038101906102f591906115e5565b6106ea565b6040516103079190611640565b60405180910390f35b61032a600480360381019061032591906115e5565b610761565b6040516103379190611640565b60405180910390f35b61035a600480360381019061035591906117b6565b610784565b6040516103679190611697565b60405180910390f35b60606003805461037f90611825565b80601f01602080910402602001604051908101604052809291908181526020018280546103ab90611825565b80156103f85780601f106103cd576101008083540402835291602001916103f8565b820191906000526020600020905b8154815290600101906020018083116103db57829003601f168201915b5050505050905090565b60008061040d61080b565b905061041a818585610813565b600191505092915050565b6000610430826109de565b9050919050565b6000600254905090565b600061045461044e61080b565b83610ab1565b61047f7f00000000000000000000000000000000000000000000000000000000000000008484610c7f565b6001905092915050565b60008061049461080b565b90506104a1858285610d05565b6104ac858585610d91565b60019150509392505050565b60006104ed7f00000000000000000000000000000000000000000000000000000000000000006104e661080b565b3085611009565b6104f78383611092565b6001905092915050565b60007f000000000000000000000000000000000000000000000000000000000000000073ffffffffffffffffffffffffffffffffffffffff1663313ce5676040518163ffffffff1660e01b815260040160206040518083038186803b15801561056957600080fd5b505afa92505050801561059a57506040513d601f19601f820116820180604052508101906105979190611883565b60015b6105ad576105a66111e9565b90506105b2565b809150505b90565b6000806105c061080b565b90506105e18185856105d28589610784565b6105dc91906118df565b610813565b600191505092915050565b7f000000000000000000000000000000000000000000000000000000000000000081565b60008060008373ffffffffffffffffffffffffffffffffffffffff1673ffffffffffffffffffffffffffffffffffffffff168152602001908152602001600020549050919050565b60606004805461066790611825565b80601f016020809104026020016040519081016040528092919081815260200182805461069390611825565b80156106e05780601f106106b5576101008083540402835291602001916106e0565b820191906000526020600020905b8154815290600101906020018083116106c357829003601f168201915b5050505050905090565b6000806106f561080b565b905060006107038286610784565b905083811015610748576040517f08c379a000000000000000000000000000000000000000000000000000000000815260040161073f906119a7565b60405180910390fd5b6107558286868403610813565b60019250505092915050565b60008061076c61080b565b9050610779818585610d91565b600191505092915050565b6000600160008473ffffffffffffffffffffffffffffffffffffffff1673ffffffffffffffffffffffffffffffffffffffff16815260200190815260200160002060008373ffffffffffffffffffffffffffffffffffffffff1673ffffffffffffffffffffffffffffffffffffffff16815260200190815260200160002054905092915050565b600033905090565b600073ffffffffffffffffffffffffffffffffffffffff168373ffffffffffffffffffffffffffffffffffffffff161415610883576040517f08c379a000000000000000000000000000000000000000000000000000000000815260040161087a90611a39565b60405180910390fd5b600073ffffffffffffffffffffffffffffffffffffffff168273ffffffffffffffffffffffffffffffffffffffff1614156108f3576040517f08c379a00000000000000000000000000000000000000000000000000000000081526004016108ea90611acb565b60405180910390fd5b80600160008573ffffffffffffffffffffffffffffffffffffffff1673ffffffffffffffffffffffffffffffffffffffff16815260200190815260200160002060008473ffffffffffffffffffffffffffffffffffffffff1673ffffffffffffffffffffffffffffffffffffffff168152602001908152602001600020819055508173ffffffffffffffffffffffffffffffffffffffff168373ffffffffffffffffffffffffffffffffffffffff167f8c5be1e5ebec7d5bd14f71427d1e84f3dd0314c0f7b2291e5b200ac8c7c3b925836040516109d19190611697565b60405180910390a3505050565b6000806109e9610437565b7f000000000000000000000000000000000000000000000000000000000000000073ffffffffffffffffffffffffffffffffffffffff166370a08231306040518263ffffffff1660e01b8152600401610a429190611afa565b60206040518083038186803b158015610a5a57600080fd5b505afa158015610a6e573d6000803e3d6000fd5b505050506040513d601f19601f82011682018060405250810190610a929190611b2a565b610a9c9190611b57565b9050610aa88382611092565b80915050919050565b600073ffffffffffffffffffffffffffffffffffffffff168273ffffffffffffffffffffffffffffffffffffffff161415610b21576040517f08c379a0000000000000000000000000000000000000000000000000000000008152600401610b1890611bfd565b60405180910390fd5b610b2d826000836111f2565b60008060008473ffffffffffffffffffffffffffffffffffffffff1673ffffffffffffffffffffffffffffffffffffffff16815260200190815260200160002054905081811015610bb3576040517f08c379a0000000000000000000000000000000000000000000000000000000008152600401610baa90611c8f565b60405180910390fd5b8181036000808573ffffffffffffffffffffffffffffffffffffffff1673ffffffffffffffffffffffffffffffffffffffff1681526020019081526020016000208190555081600260008282540392505081905550600073ffffffffffffffffffffffffffffffffffffffff168373ffffffffffffffffffffffffffffffffffffffff167fddf252ad1be2c89b69c2b068fc378daa952ba7f163c4a11628f55a4df523b3ef84604051610c669190611697565b60405180910390a3610c7a836000846111f7565b505050565b610d008363a9059cbb60e01b8484604051602401610c9e929190611caf565b604051602081830303815290604052907bffffffffffffffffffffffffffffffffffffffffffffffffffffffff19166020820180517bffffffffffffffffffffffffffffffffffffffffffffffffffffffff83818316178352505050506111fc565b505050565b6000610d118484610784565b90507fffffffffffffffffffffffffffffffffffffffffffffffffffffffffffffffff8114610d8b5781811015610d7d576040517f08c379a0000000000000000000000000000000000000000000000000000000008152600401610d7490611d24565b60405180910390fd5b610d8a8484848403610813565b5b50505050565b600073ffffffffffffffffffffffffffffffffffffffff168373ffffffffffffffffffffffffffffffffffffffff161415610e01576040517f08c379a0000000000000000000000000000000000000000000000000000000008152600401610df890611db6565b60405180910390fd5b600073ffffffffffffffffffffffffffffffffffffffff168273ffffffffffffffffffffffffffffffffffffffff161415610e71576040517f08c379a0000000000000000000000000000000000000000000000000000000008152600401610e6890611e48565b60405180910390fd5b610e7c8383836111f2565b60008060008573ffffffffffffffffffffffffffffffffffffffff1673ffffffffffffffffffffffffffffffffffffffff16815260200190815260200160002054905081811015610f02576040517f08c379a0000000000000000000000000000000000000000000000000000000008152600401610ef990611eda565b60405180910390fd5b8181036000808673ffffffffffffffffffffffffffffffffffffffff1673ffffffffffffffffffffffffffffffffffffffff16815260200190815260200160002081905550816000808573ffffffffffffffffffffffffffffffffffffffff1673ffffffffffffffffffffffffffffffffffffffff168152602001908152602001600020600082825401925050819055508273ffffffffffffffffffffffffffffffffffffffff168473ffffffffffffffffffffffffffffffffffffffff167fddf252ad1be2c89b69c2b068fc378daa952ba7f163c4a11628f55a4df523b3ef84604051610ff09190611697565b60405180910390a36110038484846111f7565b50505050565b61108c846323b872dd60e01b85858560405160240161102a93929190611efa565b604051602081830303815290604052907bffffffffffffffffffffffffffffffffffffffffffffffffffffffff19166020820180517bffffffffffffffffffffffffffffffffffffffffffffffffffffffff83818316178352505050506111fc565b50505050565b600073ffffffffffffffffffffffffffffffffffffffff168273ffffffffffffffffffffffffffffffffffffffff161415611102576040517f08c379a00000000000000000000000000000000000000000000000000000000081526004016110f990611f7d565b60405180910390fd5b61110e600083836111f2565b806002600082825461112091906118df565b92505081905550806000808473ffffffffffffffffffffffffffffffffffffffff1673ffffffffffffffffffffffffffffffffffffffff168152602001908152602001600020600082825401925050819055508173ffffffffffffffffffffffffffffffffffffffff16600073ffffffffffffffffffffffffffffffffffffffff167fddf252ad1be2c89b69c2b068fc378daa952ba7f163c4a11628f55a4df523b3ef836040516111d19190611697565b60405180910390a36111e5600083836111f7565b5050565b60006012905090565b505050565b505050565b600061125e826040518060400160405280602081526020017f5361666545524332303a206c6f772d6c6576656c2063616c6c206661696c65648152508573ffffffffffffffffffffffffffffffffffffffff166112c39092919063ffffffff16565b90506000815111156112be578080602001905181019061127e9190611fc9565b6112bd576040517f08c379a00000000000000000000000000000000000000000000000000000000081526004016112b490612068565b60405180910390fd5b5b505050565b60606112d284846000856112db565b90509392505050565b606082471015611320576040517f08c379a0000000000000000000000000000000000000000000000000000000008152600401611317906120fa565b60405180910390fd5b6000808673ffffffffffffffffffffffffffffffffffffffff1685876040516113499190612161565b60006040518083038185875af1925050503d8060008114611386576040519150601f19603f3d011682016040523d82523d6000602084013e61138b565b606091505b509150915061139c878383876113a8565b92505050949350505050565b6060831561140b57600083511415611403576113c38561141e565b611402576040517f08c379a00000000000000000000000000000000000000000000000000000000081526004016113f9906121c4565b60405180910390fd5b5b829050611416565b6114158383611441565b5b949350505050565b6000808273ffffffffffffffffffffffffffffffffffffffff163b119050919050565b6000825111156114545781518083602001fd5b806040517f08c379a0000000000000000000000000000000000000000000000000000000008152600401611488919061152a565b60405180910390fd5b600081519050919050565b600082825260208201905092915050565b60005b838110156114cb5780820151818401526020810190506114b0565b838111156114da576000848401525b50505050565b6000601f19601f8301169050919050565b60006114fc82611491565b611506818561149c565b93506115168185602086016114ad565b61151f816114e0565b840191505092915050565b6000602082019050818103600083015261154481846114f1565b905092915050565b600080fd5b600073ffffffffffffffffffffffffffffffffffffffff82169050919050565b600061157c82611551565b9050919050565b61158c81611571565b811461159757600080fd5b50565b6000813590506115a981611583565b92915050565b6000819050919050565b6115c2816115af565b81146115cd57600080fd5b50565b6000813590506115df816115b9565b92915050565b600080604083850312156115fc576115fb61154c565b5b600061160a8582860161159a565b925050602061161b858286016115d0565b9150509250929050565b60008115159050919050565b61163a81611625565b82525050565b60006020820190506116556000830184611631565b92915050565b6000602082840312156116715761167061154c565b5b600061167f8482850161159a565b91505092915050565b611691816115af565b82525050565b60006020820190506116ac6000830184611688565b92915050565b6000806000606084860312156116cb576116ca61154c565b5b60006116d98682870161159a565b93505060206116ea8682870161159a565b92505060406116fb868287016115d0565b9150509250925092565b600060ff82169050919050565b61171b81611705565b82525050565b60006020820190506117366000830184611712565b92915050565b6000819050919050565b600061176161175c61175784611551565b61173c565b611551565b9050919050565b600061177382611746565b9050919050565b600061178582611768565b9050919050565b6117958161177a565b82525050565b60006020820190506117b0600083018461178c565b92915050565b600080604083850312156117cd576117cc61154c565b5b60006117db8582860161159a565b92505060206117ec8582860161159a565b9150509250929050565b7f4e487b7100000000000000000000000000000000000000000000000000000000600052602260045260246000fd5b6000600282049050600182168061183d57607f821691505b60208210811415611851576118506117f6565b5b50919050565b61186081611705565b811461186b57600080fd5b50565b60008151905061187d81611857565b92915050565b6000602082840312156118995761189861154c565b5b60006118a78482850161186e565b91505092915050565b7f4e487b7100000000000000000000000000000000000000000000000000000000600052601160045260246000fd5b60006118ea826115af565b91506118f5836115af565b9250827fffffffffffffffffffffffffffffffffffffffffffffffffffffffffffffffff0382111561192a576119296118b0565b5b828201905092915050565b7f45524332303a2064656372656173656420616c6c6f77616e63652062656c6f7760008201527f207a65726f000000000000000000000000000000000000000000000000000000602082015250565b600061199160258361149c565b915061199c82611935565b604082019050919050565b600060208201905081810360008301526119c081611984565b9050919050565b7f45524332303a20617070726f76652066726f6d20746865207a65726f2061646460008201527f7265737300000000000000000000000000000000000000000000000000000000602082015250565b6000611a2360248361149c565b9150611a2e826119c7565b604082019050919050565b60006020820190508181036000830152611a5281611a16565b9050919050565b7f45524332303a20617070726f766520746f20746865207a65726f20616464726560008201527f7373000000000000000000000000000000000000000000000000000000000000602082015250565b6000611ab560228361149c565b9150611ac082611a59565b604082019050919050565b60006020820190508181036000830152611ae481611aa8565b9050919050565b611af481611571565b82525050565b6000602082019050611b0f6000830184611aeb565b92915050565b600081519050611b24816115b9565b92915050565b600060208284031215611b4057611b3f61154c565b5b6000611b4e84828501611b15565b91505092915050565b6000611b62826115af565b9150611b6d836115af565b925082821015611b8057611b7f6118b0565b5b828203905092915050565b7f45524332303a206275726e2066726f6d20746865207a65726f2061646472657360008201527f7300000000000000000000000000000000000000000000000000000000000000602082015250565b6000611be760218361149c565b9150611bf282611b8b565b604082019050919050565b60006020820190508181036000830152611c1681611bda565b9050919050565b7f45524332303a206275726e20616d6f756e7420657863656564732062616c616e60008201527f6365000000000000000000000000000000000000000000000000000000000000602082015250565b6000611c7960228361149c565b9150611c8482611c1d565b604082019050919050565b60006020820190508181036000830152611ca881611c6c565b9050919050565b6000604082019050611cc46000830185611aeb565b611cd16020830184611688565b9392505050565b7f45524332303a20696e73756666696369656e7420616c6c6f77616e6365000000600082015250565b6000611d0e601d8361149c565b9150611d1982611cd8565b602082019050919050565b60006020820190508181036000830152611d3d81611d01565b9050919050565b7f45524332303a207472616e736665722066726f6d20746865207a65726f20616460008201527f6472657373000000000000000000000000000000000000000000000000000000602082015250565b6000611da060258361149c565b9150611dab82611d44565b604082019050919050565b60006020820190508181036000830152611dcf81611d93565b9050919050565b7f45524332303a207472616e7366657220746f20746865207a65726f206164647260008201527f6573730000000000000000000000000000000000000000000000000000000000602082015250565b6000611e3260238361149c565b9150611e3d82611dd6565b604082019050919050565b60006020820190508181036000830152611e6181611e25565b9050919050565b7f45524332303a207472616e7366657220616d6f756e742065786365656473206260008201527f616c616e63650000000000000000000000000000000000000000000000000000602082015250565b6000611ec460268361149c565b9150611ecf82611e68565b604082019050919050565b60006020820190508181036000830152611ef381611eb7565b9050919050565b6000606082019050611f0f6000830186611aeb565b611f1c6020830185611aeb565b611f296040830184611688565b949350505050565b7f45524332303a206d696e7420746f20746865207a65726f206164647265737300600082015250565b6000611f67601f8361149c565b9150611f7282611f31565b602082019050919050565b60006020820190508181036000830152611f9681611f5a565b9050919050565b611fa681611625565b8114611fb157600080fd5b50565b600081519050611fc381611f9d565b92915050565b600060208284031215611fdf57611fde61154c565b5b6000611fed84828501611fb4565b91505092915050565b7f5361666545524332303a204552433230206f7065726174696f6e20646964206e60008201527f6f74207375636365656400000000000000000000000000000000000000000000602082015250565b6000612052602a8361149c565b915061205d82611ff6565b604082019050919050565b6000602082019050818103600083015261208181612045565b9050919050565b7f416464726573733a20696e73756666696369656e742062616c616e636520666f60008201527f722063616c6c0000000000000000000000000000000000000000000000000000602082015250565b60006120e460268361149c565b91506120ef82612088565b604082019050919050565b60006020820190508181036000830152612113816120d7565b9050919050565b600081519050919050565b600081905092915050565b600061213b8261211a565b6121458185612125565b93506121558185602086016114ad565b80840191505092915050565b600061216d8284612130565b915081905092915050565b7f416464726573733a2063616c6c20746f206e6f6e2d636f6e7472616374000000600082015250565b60006121ae601d8361149c565b91506121b982612178565b602082019050919050565b600060208201905081810360008301526121dd816121a1565b905091905056fea26469706673582212200720f663492da5bbf0d8240735a53b40a5eef10406634cdcbce46209348918fe64736f6c63430008090033",
  "linkReferences": {},
  "deployedLinkReferences": {}
}