{
  "_format": "hh-sol-artifact-1",
  "contractName": "SafeCastMock",
  "sourceName": "contracts/openzeppelin/mocks/SafeCastMock.sol",
  "abi": [
    {
      "inputs": [
        {
          "internalType": "int256",
          "name": "a",
          "type": "int256"
        }
      ],
      "name": "toInt104",
      "outputs": [
        {
          "internalType": "int104",
          "name": "",
          "type": "int104"
        }
      ],
      "stateMutability": "pure",
      "type": "function"
    },
    {
      "inputs": [
        {
          "internalType": "int256",
          "name": "a",
          "type": "int256"
        }
      ],
      "name": "toInt112",
      "outputs": [
        {
          "internalType": "int112",
          "name": "",
          "type": "int112"
        }
      ],
      "stateMutability": "pure",
      "type": "function"
    },
    {
      "inputs": [
        {
          "internalType": "int256",
          "name": "a",
          "type": "int256"
        }
      ],
      "name": "toInt120",
      "outputs": [
        {
          "internalType": "int120",
          "name": "",
          "type": "int120"
        }
      ],
      "stateMutability": "pure",
      "type": "function"
    },
    {
      "inputs": [
        {
          "internalType": "int256",
          "name": "a",
          "type": "int256"
        }
      ],
      "name": "toInt128",
      "outputs": [
        {
          "internalType": "int128",
          "name": "",
          "type": "int128"
        }
      ],
      "stateMutability": "pure",
      "type": "function"
    },
    {
      "inputs": [
        {
          "internalType": "int256",
          "name": "a",
          "type": "int256"
        }
      ],
      "name": "toInt136",
      "outputs": [
        {
          "internalType": "int136",
          "name": "",
          "type": "int136"
        }
      ],
      "stateMutability": "pure",
      "type": "function"
    },
    {
      "inputs": [
        {
          "internalType": "int256",
          "name": "a",
          "type": "int256"
        }
      ],
      "name": "toInt144",
      "outputs": [
        {
          "internalType": "int144",
          "name": "",
          "type": "int144"
        }
      ],
      "stateMutability": "pure",
      "type": "function"
    },
    {
      "inputs": [
        {
          "internalType": "int256",
          "name": "a",
          "type": "int256"
        }
      ],
      "name": "toInt152",
      "outputs": [
        {
          "internalType": "int152",
          "name": "",
          "type": "int152"
        }
      ],
      "stateMutability": "pure",
      "type": "function"
    },
    {
      "inputs": [
        {
          "internalType": "int256",
          "name": "a",
          "type": "int256"
        }
      ],
      "name": "toInt16",
      "outputs": [
        {
          "internalType": "int16",
          "name": "",
          "type": "int16"
        }
      ],
      "stateMutability": "pure",
      "type": "function"
    },
    {
      "inputs": [
        {
          "internalType": "int256",
          "name": "a",
          "type": "int256"
        }
      ],
      "name": "toInt160",
      "outputs": [
        {
          "internalType": "int160",
          "name": "",
          "type": "int160"
        }
      ],
      "stateMutability": "pure",
      "type": "function"
    },
    {
      "inputs": [
        {
          "internalType": "int256",
          "name": "a",
          "type": "int256"
        }
      ],
      "name": "toInt168",
      "outputs": [
        {
          "internalType": "int168",
          "name": "",
          "type": "int168"
        }
      ],
      "stateMutability": "pure",
      "type": "function"
    },
    {
      "inputs": [
        {
          "internalType": "int256",
          "name": "a",
          "type": "int256"
        }
      ],
      "name": "toInt176",
      "outputs": [
        {
          "internalType": "int176",
          "name": "",
          "type": "int176"
        }
      ],
      "stateMutability": "pure",
      "type": "function"
    },
    {
      "inputs": [
        {
          "internalType": "int256",
          "name": "a",
          "type": "int256"
        }
      ],
      "name": "toInt184",
      "outputs": [
        {
          "internalType": "int184",
          "name": "",
          "type": "int184"
        }
      ],
      "stateMutability": "pure",
      "type": "function"
    },
    {
      "inputs": [
        {
          "internalType": "int256",
          "name": "a",
          "type": "int256"
        }
      ],
      "name": "toInt192",
      "outputs": [
        {
          "internalType": "int192",
          "name": "",
          "type": "int192"
        }
      ],
      "stateMutability": "pure",
      "type": "function"
    },
    {
      "inputs": [
        {
          "internalType": "int256",
          "name": "a",
          "type": "int256"
        }
      ],
      "name": "toInt200",
      "outputs": [
        {
          "internalType": "int200",
          "name": "",
          "type": "int200"
        }
      ],
      "stateMutability": "pure",
      "type": "function"
    },
    {
      "inputs": [
        {
          "internalType": "int256",
          "name": "a",
          "type": "int256"
        }
      ],
      "name": "toInt208",
      "outputs": [
        {
          "internalType": "int208",
          "name": "",
          "type": "int208"
        }
      ],
      "stateMutability": "pure",
      "type": "function"
    },
    {
      "inputs": [
        {
          "internalType": "int256",
          "name": "a",
          "type": "int256"
        }
      ],
      "name": "toInt216",
      "outputs": [
        {
          "internalType": "int216",
          "name": "",
          "type": "int216"
        }
      ],
      "stateMutability": "pure",
      "type": "function"
    },
    {
      "inputs": [
        {
          "internalType": "int256",
          "name": "a",
          "type": "int256"
        }
      ],
      "name": "toInt224",
      "outputs": [
        {
          "internalType": "int224",
          "name": "",
          "type": "int224"
        }
      ],
      "stateMutability": "pure",
      "type": "function"
    },
    {
      "inputs": [
        {
          "internalType": "int256",
          "name": "a",
          "type": "int256"
        }
      ],
      "name": "toInt232",
      "outputs": [
        {
          "internalType": "int232",
          "name": "",
          "type": "int232"
        }
      ],
      "stateMutability": "pure",
      "type": "function"
    },
    {
      "inputs": [
        {
          "internalType": "int256",
          "name": "a",
          "type": "int256"
        }
      ],
      "name": "toInt24",
      "outputs": [
        {
          "internalType": "int24",
          "name": "",
          "type": "int24"
        }
      ],
      "stateMutability": "pure",
      "type": "function"
    },
    {
      "inputs": [
        {
          "internalType": "int256",
          "name": "a",
          "type": "int256"
        }
      ],
      "name": "toInt240",
      "outputs": [
        {
          "internalType": "int240",
          "name": "",
          "type": "int240"
        }
      ],
      "stateMutability": "pure",
      "type": "function"
    },
    {
      "inputs": [
        {
          "internalType": "int256",
          "name": "a",
          "type": "int256"
        }
      ],
      "name": "toInt248",
      "outputs": [
        {
          "internalType": "int248",
          "name": "",
          "type": "int248"
        }
      ],
      "stateMutability": "pure",
      "type": "function"
    },
    {
      "inputs": [
        {
          "internalType": "uint256",
          "name": "a",
          "type": "uint256"
        }
      ],
      "name": "toInt256",
      "outputs": [
        {
          "internalType": "int256",
          "name": "",
          "type": "int256"
        }
      ],
      "stateMutability": "pure",
      "type": "function"
    },
    {
      "inputs": [
        {
          "internalType": "int256",
          "name": "a",
          "type": "int256"
        }
      ],
      "name": "toInt32",
      "outputs": [
        {
          "internalType": "int32",
          "name": "",
          "type": "int32"
        }
      ],
      "stateMutability": "pure",
      "type": "function"
    },
    {
      "inputs": [
        {
          "internalType": "int256",
          "name": "a",
          "type": "int256"
        }
      ],
      "name": "toInt40",
      "outputs": [
        {
          "internalType": "int40",
          "name": "",
          "type": "int40"
        }
      ],
      "stateMutability": "pure",
      "type": "function"
    },
    {
      "inputs": [
        {
          "internalType": "int256",
          "name": "a",
          "type": "int256"
        }
      ],
      "name": "toInt48",
      "outputs": [
        {
          "internalType": "int48",
          "name": "",
          "type": "int48"
        }
      ],
      "stateMutability": "pure",
      "type": "function"
    },
    {
      "inputs": [
        {
          "internalType": "int256",
          "name": "a",
          "type": "int256"
        }
      ],
      "name": "toInt56",
      "outputs": [
        {
          "internalType": "int56",
          "name": "",
          "type": "int56"
        }
      ],
      "stateMutability": "pure",
      "type": "function"
    },
    {
      "inputs": [
        {
          "internalType": "int256",
          "name": "a",
          "type": "int256"
        }
      ],
      "name": "toInt64",
      "outputs": [
        {
          "internalType": "int64",
          "name": "",
          "type": "int64"
        }
      ],
      "stateMutability": "pure",
      "type": "function"
    },
    {
      "inputs": [
        {
          "internalType": "int256",
          "name": "a",
          "type": "int256"
        }
      ],
      "name": "toInt72",
      "outputs": [
        {
          "internalType": "int72",
          "name": "",
          "type": "int72"
        }
      ],
      "stateMutability": "pure",
      "type": "function"
    },
    {
      "inputs": [
        {
          "internalType": "int256",
          "name": "a",
          "type": "int256"
        }
      ],
      "name": "toInt8",
      "outputs": [
        {
          "internalType": "int8",
          "name": "",
          "type": "int8"
        }
      ],
      "stateMutability": "pure",
      "type": "function"
    },
    {
      "inputs": [
        {
          "internalType": "int256",
          "name": "a",
          "type": "int256"
        }
      ],
      "name": "toInt80",
      "outputs": [
        {
          "internalType": "int80",
          "name": "",
          "type": "int80"
        }
      ],
      "stateMutability": "pure",
      "type": "function"
    },
    {
      "inputs": [
        {
          "internalType": "int256",
          "name": "a",
          "type": "int256"
        }
      ],
      "name": "toInt88",
      "outputs": [
        {
          "internalType": "int88",
          "name": "",
          "type": "int88"
        }
      ],
      "stateMutability": "pure",
      "type": "function"
    },
    {
      "inputs": [
        {
          "internalType": "int256",
          "name": "a",
          "type": "int256"
        }
      ],
      "name": "toInt96",
      "outputs": [
        {
          "internalType": "int96",
          "name": "",
          "type": "int96"
        }
      ],
      "stateMutability": "pure",
      "type": "function"
    },
    {
      "inputs": [
        {
          "internalType": "uint256",
          "name": "a",
          "type": "uint256"
        }
      ],
      "name": "toUint104",
      "outputs": [
        {
          "internalType": "uint104",
          "name": "",
          "type": "uint104"
        }
      ],
      "stateMutability": "pure",
      "type": "function"
    },
    {
      "inputs": [
        {
          "internalType": "uint256",
          "name": "a",
          "type": "uint256"
        }
      ],
      "name": "toUint112",
      "outputs": [
        {
          "internalType": "uint112",
          "name": "",
          "type": "uint112"
        }
      ],
      "stateMutability": "pure",
      "type": "function"
    },
    {
      "inputs": [
        {
          "internalType": "uint256",
          "name": "a",
          "type": "uint256"
        }
      ],
      "name": "toUint120",
      "outputs": [
        {
          "internalType": "uint120",
          "name": "",
          "type": "uint120"
        }
      ],
      "stateMutability": "pure",
      "type": "function"
    },
    {
      "inputs": [
        {
          "internalType": "uint256",
          "name": "a",
          "type": "uint256"
        }
      ],
      "name": "toUint128",
      "outputs": [
        {
          "internalType": "uint128",
          "name": "",
          "type": "uint128"
        }
      ],
      "stateMutability": "pure",
      "type": "function"
    },
    {
      "inputs": [
        {
          "internalType": "uint256",
          "name": "a",
          "type": "uint256"
        }
      ],
      "name": "toUint136",
      "outputs": [
        {
          "internalType": "uint136",
          "name": "",
          "type": "uint136"
        }
      ],
      "stateMutability": "pure",
      "type": "function"
    },
    {
      "inputs": [
        {
          "internalType": "uint256",
          "name": "a",
          "type": "uint256"
        }
      ],
      "name": "toUint144",
      "outputs": [
        {
          "internalType": "uint144",
          "name": "",
          "type": "uint144"
        }
      ],
      "stateMutability": "pure",
      "type": "function"
    },
    {
      "inputs": [
        {
          "internalType": "uint256",
          "name": "a",
          "type": "uint256"
        }
      ],
      "name": "toUint152",
      "outputs": [
        {
          "internalType": "uint152",
          "name": "",
          "type": "uint152"
        }
      ],
      "stateMutability": "pure",
      "type": "function"
    },
    {
      "inputs": [
        {
          "internalType": "uint256",
          "name": "a",
          "type": "uint256"
        }
      ],
      "name": "toUint16",
      "outputs": [
        {
          "internalType": "uint16",
          "name": "",
          "type": "uint16"
        }
      ],
      "stateMutability": "pure",
      "type": "function"
    },
    {
      "inputs": [
        {
          "internalType": "uint256",
          "name": "a",
          "type": "uint256"
        }
      ],
      "name": "toUint160",
      "outputs": [
        {
          "internalType": "uint160",
          "name": "",
          "type": "uint160"
        }
      ],
      "stateMutability": "pure",
      "type": "function"
    },
    {
      "inputs": [
        {
          "internalType": "uint256",
          "name": "a",
          "type": "uint256"
        }
      ],
      "name": "toUint168",
      "outputs": [
        {
          "internalType": "uint168",
          "name": "",
          "type": "uint168"
        }
      ],
      "stateMutability": "pure",
      "type": "function"
    },
    {
      "inputs": [
        {
          "internalType": "uint256",
          "name": "a",
          "type": "uint256"
        }
      ],
      "name": "toUint176",
      "outputs": [
        {
          "internalType": "uint176",
          "name": "",
          "type": "uint176"
        }
      ],
      "stateMutability": "pure",
      "type": "function"
    },
    {
      "inputs": [
        {
          "internalType": "uint256",
          "name": "a",
          "type": "uint256"
        }
      ],
      "name": "toUint184",
      "outputs": [
        {
          "internalType": "uint184",
          "name": "",
          "type": "uint184"
        }
      ],
      "stateMutability": "pure",
      "type": "function"
    },
    {
      "inputs": [
        {
          "internalType": "uint256",
          "name": "a",
          "type": "uint256"
        }
      ],
      "name": "toUint192",
      "outputs": [
        {
          "internalType": "uint192",
          "name": "",
          "type": "uint192"
        }
      ],
      "stateMutability": "pure",
      "type": "function"
    },
    {
      "inputs": [
        {
          "internalType": "uint256",
          "name": "a",
          "type": "uint256"
        }
      ],
      "name": "toUint200",
      "outputs": [
        {
          "internalType": "uint200",
          "name": "",
          "type": "uint200"
        }
      ],
      "stateMutability": "pure",
      "type": "function"
    },
    {
      "inputs": [
        {
          "internalType": "uint256",
          "name": "a",
          "type": "uint256"
        }
      ],
      "name": "toUint208",
      "outputs": [
        {
          "internalType": "uint208",
          "name": "",
          "type": "uint208"
        }
      ],
      "stateMutability": "pure",
      "type": "function"
    },
    {
      "inputs": [
        {
          "internalType": "uint256",
          "name": "a",
          "type": "uint256"
        }
      ],
      "name": "toUint216",
      "outputs": [
        {
          "internalType": "uint216",
          "name": "",
          "type": "uint216"
        }
      ],
      "stateMutability": "pure",
      "type": "function"
    },
    {
      "inputs": [
        {
          "internalType": "uint256",
          "name": "a",
          "type": "uint256"
        }
      ],
      "name": "toUint224",
      "outputs": [
        {
          "internalType": "uint224",
          "name": "",
          "type": "uint224"
        }
      ],
      "stateMutability": "pure",
      "type": "function"
    },
    {
      "inputs": [
        {
          "internalType": "uint256",
          "name": "a",
          "type": "uint256"
        }
      ],
      "name": "toUint232",
      "outputs": [
        {
          "internalType": "uint232",
          "name": "",
          "type": "uint232"
        }
      ],
      "stateMutability": "pure",
      "type": "function"
    },
    {
      "inputs": [
        {
          "internalType": "uint256",
          "name": "a",
          "type": "uint256"
        }
      ],
      "name": "toUint24",
      "outputs": [
        {
          "internalType": "uint24",
          "name": "",
          "type": "uint24"
        }
      ],
      "stateMutability": "pure",
      "type": "function"
    },
    {
      "inputs": [
        {
          "internalType": "uint256",
          "name": "a",
          "type": "uint256"
        }
      ],
      "name": "toUint240",
      "outputs": [
        {
          "internalType": "uint240",
          "name": "",
          "type": "uint240"
        }
      ],
      "stateMutability": "pure",
      "type": "function"
    },
    {
      "inputs": [
        {
          "internalType": "uint256",
          "name": "a",
          "type": "uint256"
        }
      ],
      "name": "toUint248",
      "outputs": [
        {
          "internalType": "uint248",
          "name": "",
          "type": "uint248"
        }
      ],
      "stateMutability": "pure",
      "type": "function"
    },
    {
      "inputs": [
        {
          "internalType": "int256",
          "name": "a",
          "type": "int256"
        }
      ],
      "name": "toUint256",
      "outputs": [
        {
          "internalType": "uint256",
          "name": "",
          "type": "uint256"
        }
      ],
      "stateMutability": "pure",
      "type": "function"
    },
    {
      "inputs": [
        {
          "internalType": "uint256",
          "name": "a",
          "type": "uint256"
        }
      ],
      "name": "toUint32",
      "outputs": [
        {
          "internalType": "uint32",
          "name": "",
          "type": "uint32"
        }
      ],
      "stateMutability": "pure",
      "type": "function"
    },
    {
      "inputs": [
        {
          "internalType": "uint256",
          "name": "a",
          "type": "uint256"
        }
      ],
      "name": "toUint40",
      "outputs": [
        {
          "internalType": "uint40",
          "name": "",
          "type": "uint40"
        }
      ],
      "stateMutability": "pure",
      "type": "function"
    },
    {
      "inputs": [
        {
          "internalType": "uint256",
          "name": "a",
          "type": "uint256"
        }
      ],
      "name": "toUint48",
      "outputs": [
        {
          "internalType": "uint48",
          "name": "",
          "type": "uint48"
        }
      ],
      "stateMutability": "pure",
      "type": "function"
    },
    {
      "inputs": [
        {
          "internalType": "uint256",
          "name": "a",
          "type": "uint256"
        }
      ],
      "name": "toUint56",
      "outputs": [
        {
          "internalType": "uint56",
          "name": "",
          "type": "uint56"
        }
      ],
      "stateMutability": "pure",
      "type": "function"
    },
    {
      "inputs": [
        {
          "internalType": "uint256",
          "name": "a",
          "type": "uint256"
        }
      ],
      "name": "toUint64",
      "outputs": [
        {
          "internalType": "uint64",
          "name": "",
          "type": "uint64"
        }
      ],
      "stateMutability": "pure",
      "type": "function"
    },
    {
      "inputs": [
        {
          "internalType": "uint256",
          "name": "a",
          "type": "uint256"
        }
      ],
      "name": "toUint72",
      "outputs": [
        {
          "internalType": "uint72",
          "name": "",
          "type": "uint72"
        }
      ],
      "stateMutability": "pure",
      "type": "function"
    },
    {
      "inputs": [
        {
          "internalType": "uint256",
          "name": "a",
          "type": "uint256"
        }
      ],
      "name": "toUint8",
      "outputs": [
        {
          "internalType": "uint8",
          "name": "",
          "type": "uint8"
        }
      ],
      "stateMutability": "pure",
      "type": "function"
    },
    {
      "inputs": [
        {
          "internalType": "uint256",
          "name": "a",
          "type": "uint256"
        }
      ],
      "name": "toUint80",
      "outputs": [
        {
          "internalType": "uint80",
          "name": "",
          "type": "uint80"
        }
      ],
      "stateMutability": "pure",
      "type": "function"
    },
    {
      "inputs": [
        {
          "internalType": "uint256",
          "name": "a",
          "type": "uint256"
        }
      ],
      "name": "toUint88",
      "outputs": [
        {
          "internalType": "uint88",
          "name": "",
          "type": "uint88"
        }
      ],
      "stateMutability": "pure",
      "type": "function"
    },
    {
      "inputs": [
        {
          "internalType": "uint256",
          "name": "a",
          "type": "uint256"
        }
      ],
      "name": "toUint96",
      "outputs": [
        {
          "internalType": "uint96",
          "name": "",
          "type": "uint96"
        }
      ],
      "stateMutability": "pure",
      "type": "function"
    }
  ],
  "bytecode": "0x608060405234801561001057600080fd5b50614d56806100206000396000f3fe608060405234801561001057600080fd5b50600436106103d05760003560e01c8063809fdd33116101ff578063c81932551161011a578063e5feca77116100ad578063eaeff4e51161007c578063eaeff4e514610f15578063f136dc0214610f45578063fb7f3c7914610f75578063fdcf791b14610fa5576103d0565b8063e5feca7714610e55578063e6a6f6f814610e85578063e87167c314610eb5578063ea4b667414610ee5576103d0565b8063dd2a0316116100e9578063dd2a031614610d95578063dfbe873b14610dc5578063dfef6beb14610df5578063e46ea12014610e25576103d0565b8063c819325514610cd5578063cbff595f14610d05578063cf65b4d314610d35578063d6bd32aa14610d65576103d0565b80639c6f59be11610192578063b936bfb311610161578063b936bfb314610c15578063bb33fe0814610c45578063c3cd16b514610c75578063c4b4298c14610ca5576103d0565b80639c6f59be14610b55578063ad4b458a14610b85578063b012db6f14610bb5578063b0a9408714610be5576103d0565b80638c48fc22116101ce5780638c48fc2214610a955780639374068f14610ac557806395cb3ec614610af5578063971bcc2214610b25576103d0565b8063809fdd33146109d5578063821bedfa14610a055780638398383814610a3557806385bb6ae114610a65576103d0565b80633b703090116102ef5780635badd405116102825780636d6d9e4b116102515780636d6d9e4b14610915578063720ad67414610945578063785de9bf146109755780637ef90ce0146109a5576103d0565b80635badd405146108555780635bb798601461088557806368048346146108b55780636c504853146108e5576103d0565b806353b916f1116102be57806353b916f11461079557806354c23feb146107c5578063564121c7146107f557806358d421eb14610825576103d0565b80633b703090146106d55780633fd726721461070557806341d2aa641461073557806343710f4614610765576103d0565b80631cf887fc116103675780632665fad0116103365780632665fad0146106155780632c81868d14610645578063316fcbbd1461067557806338d8e45a146106a5576103d0565b80631cf887fc146105555780631d1131e2146105855780631e07d036146105b55780631e4e4bad146105e5576103d0565b80630cc4681e116103a35780630cc4681e146104955780630d4a7bdb146104c557806311e867ff146104f557806318a359ec14610525576103d0565b806301b49217146103d557806305752e511461040557806305b131011461043557806307f841be14610465575b600080fd5b6103ef60048036038101906103ea9190612a5c565b610fd5565b6040516103fc9190612aa5565b60405180910390f35b61041f600480360381019061041a9190612a5c565b610fe7565b60405161042c9190612adc565b60405180910390f35b61044f600480360381019061044a9190612b2d565b610ff9565b60405161045c9190612b8b565b60405180910390f35b61047f600480360381019061047a9190612a5c565b61100b565b60405161048c9190612bc2565b60405180910390f35b6104af60048036038101906104aa9190612b2d565b61101d565b6040516104bc9190612bf9565b60405180910390f35b6104df60048036038101906104da9190612b2d565b61102f565b6040516104ec9190612c4c565b60405180910390f35b61050f600480360381019061050a9190612a5c565b611041565b60405161051c9190612c83565b60405180910390f35b61053f600480360381019061053a9190612a5c565b611053565b60405161054c9190612cba565b60405180910390f35b61056f600480360381019061056a9190612b2d565b611065565b60405161057c9190612cfc565b60405180910390f35b61059f600480360381019061059a9190612a5c565b611077565b6040516105ac9190612d33565b60405180910390f35b6105cf60048036038101906105ca9190612a5c565b611089565b6040516105dc9190612d6a565b60405180910390f35b6105ff60048036038101906105fa9190612b2d565b61109b565b60405161060c9190612daf565b60405180910390f35b61062f600480360381019061062a9190612b2d565b6110ad565b60405161063c9190612ded565b60405180910390f35b61065f600480360381019061065a9190612a5c565b6110bf565b60405161066c9190612e24565b60405180910390f35b61068f600480360381019061068a9190612b2d565b6110d1565b60405161069c9190612e63565b60405180910390f35b6106bf60048036038101906106ba9190612a5c565b6110e3565b6040516106cc9190612e9a565b60405180910390f35b6106ef60048036038101906106ea9190612b2d565b6110f5565b6040516106fc9190612eee565b60405180910390f35b61071f600480360381019061071a9190612b2d565b611107565b60405161072c9190612f43565b60405180910390f35b61074f600480360381019061074a9190612b2d565b611119565b60405161075c9190612f87565b60405180910390f35b61077f600480360381019061077a9190612a5c565b61112b565b60405161078c9190612fbe565b60405180910390f35b6107af60048036038101906107aa9190612a5c565b61113d565b6040516107bc9190612ff5565b60405180910390f35b6107df60048036038101906107da9190612b2d565b61114f565b6040516107ec9190613040565b60405180910390f35b61080f600480360381019061080a9190612b2d565b611161565b60405161081c919061308d565b60405180910390f35b61083f600480360381019061083a9190612a5c565b611173565b60405161084c91906130c4565b60405180910390f35b61086f600480360381019061086a9190612a5c565b611185565b60405161087c91906130fb565b60405180910390f35b61089f600480360381019061089a9190612b2d565b611197565b6040516108ac919061314d565b60405180910390f35b6108cf60048036038101906108ca9190612a5c565b6111a9565b6040516108dc9190613184565b60405180910390f35b6108ff60048036038101906108fa9190612a5c565b6111bb565b60405161090c91906131bb565b60405180910390f35b61092f600480360381019061092a9190612a5c565b6111cd565b60405161093c91906131f2565b60405180910390f35b61095f600480360381019061095a9190612b2d565b6111df565b60405161096c9190613241565b60405180910390f35b61098f600480360381019061098a9190612b2d565b6111f1565b60405161099c919061328f565b60405180910390f35b6109bf60048036038101906109ba9190612b2d565b611203565b6040516109cc91906132d0565b60405180910390f35b6109ef60048036038101906109ea9190612b2d565b611215565b6040516109fc9190613316565b60405180910390f35b610a1f6004803603810190610a1a9190612a5c565b611227565b604051610a2c919061334d565b60405180910390f35b610a4f6004803603810190610a4a9190612b2d565b611239565b604051610a5c9190613390565b60405180910390f35b610a7f6004803603810190610a7a9190612b2d565b61124b565b604051610a8c91906133e1565b60405180910390f35b610aaf6004803603810190610aaa9190612b2d565b61125d565b604051610abc919061342a565b60405180910390f35b610adf6004803603810190610ada9190612b2d565b61126f565b604051610aec9190613462565b60405180910390f35b610b0f6004803603810190610b0a9190612b2d565b611281565b604051610b1c919061349b565b60405180910390f35b610b3f6004803603810190610b3a9190612a5c565b611293565b604051610b4c91906134d2565b60405180910390f35b610b6f6004803603810190610b6a9190612a5c565b6112a5565b604051610b7c9190613509565b60405180910390f35b610b9f6004803603810190610b9a9190612b2d565b6112b7565b604051610bac9190613550565b60405180910390f35b610bcf6004803603810190610bca9190612b2d565b6112c9565b604051610bdc919061358c565b60405180910390f35b610bff6004803603810190610bfa9190612a5c565b6112db565b604051610c0c91906135c3565b60405180910390f35b610c2f6004803603810190610c2a9190612b2d565b6112ed565b604051610c3c919061360b565b60405180910390f35b610c5f6004803603810190610c5a9190612b2d565b6112ff565b604051610c6c919061365b565b60405180910390f35b610c8f6004803603810190610c8a9190612a5c565b611311565b604051610c9c9190613692565b60405180910390f35b610cbf6004803603810190610cba9190612b2d565b611323565b604051610ccc91906136cf565b60405180910390f35b610cef6004803603810190610cea9190612b2d565b611335565b604051610cfc9190613709565b60405180910390f35b610d1f6004803603810190610d1a9190612b2d565b611347565b604051610d2c9190613749565b60405180910390f35b610d4f6004803603810190610d4a9190612a5c565b611359565b604051610d5c9190613780565b60405180910390f35b610d7f6004803603810190610d7a9190612a5c565b61136b565b604051610d8c91906137b7565b60405180910390f35b610daf6004803603810190610daa9190612a5c565b61137d565b604051610dbc91906137ee565b60405180910390f35b610ddf6004803603810190610dda9190612b2d565b61138f565b604051610dec9190613818565b60405180910390f35b610e0f6004803603810190610e0a9190612b2d565b6113a1565b604051610e1c9190613862565b60405180910390f35b610e3f6004803603810190610e3a9190612a5c565b6113b3565b604051610e4c9190613899565b60405180910390f35b610e6f6004803603810190610e6a9190612a5c565b6113c5565b604051610e7c91906138d0565b60405180910390f35b610e9f6004803603810190610e9a9190612a5c565b6113d7565b604051610eac9190613907565b60405180910390f35b610ecf6004803603810190610eca9190612a5c565b6113e9565b604051610edc919061393e565b60405180910390f35b610eff6004803603810190610efa9190612a5c565b6113fb565b604051610f0c9190613975565b60405180910390f35b610f2f6004803603810190610f2a9190612a5c565b61140d565b604051610f3c91906139ac565b60405180910390f35b610f5f6004803603810190610f5a9190612a5c565b61141f565b604051610f6c91906139e3565b60405180910390f35b610f8f6004803603810190610f8a9190612b2d565b611431565b604051610f9c9190613a1e565b60405180910390f35b610fbf6004803603810190610fba9190612a5c565b611443565b604051610fcc9190613a48565b60405180910390f35b6000610fe082611455565b9050919050565b6000610ff2826114a4565b9050919050565b6000611004826114f3565b9050919050565b600061101682611558565b9050919050565b6000611028826115a7565b9050919050565b600061103a826115f7565b9050919050565b600061104c82611663565b9050919050565b600061105e826116b2565b9050919050565b600061107082611701565b9050919050565b60006110828261175c565b9050919050565b6000611094826117ab565b9050919050565b60006110a6826117fa565b9050919050565b60006110b882611858565b9050919050565b60006110ca826118af565b9050919050565b60006110dc826118fe565b9050919050565b60006110ee82611956565b9050919050565b6000611100826119a5565b9050919050565b600061111282611a12565b9050919050565b600061112482611a80565b9050919050565b600061113682611add565b9050919050565b600061114882611b2c565b9050919050565b600061115a82611b7b565b9050919050565b600061116c82611bdf565b9050919050565b600061117e82611c45565b9050919050565b600061119082611c94565b9050919050565b60006111a282611ce3565b9050919050565b60006111b482611d4e565b9050919050565b60006111c682611d9d565b9050919050565b60006111d882611dec565b9050919050565b60006111ea82611e3b565b9050919050565b60006111fc82611ea3565b9050919050565b600061120e82611f0a565b9050919050565b600061122082611f64565b9050919050565b600061123282611fc3565b9050919050565b600061124482612012565b9050919050565b60006112568261206e565b9050919050565b6000611268826120d8565b9050919050565b600061127a8261213a565b9050919050565b600061128c8261218b565b9050919050565b600061129e826121dd565b9050919050565b60006112b08261222c565b9050919050565b60006112c28261227b565b9050919050565b60006112d4826122db565b9050919050565b60006112e682612330565b9050919050565b60006112f88261237f565b9050919050565b600061130a826123e0565b9050919050565b600061131c82612449565b9050919050565b600061132e82612498565b9050919050565b6000611340826124ee565b9050919050565b600061135282612541565b9050919050565b60006113648261259a565b9050919050565b6000611376826125e9565b9050919050565b600061138882612638565b9050919050565b600061139a82612687565b9050919050565b60006113ac826126f4565b9050919050565b60006113be82612757565b9050919050565b60006113d0826127a6565b9050919050565b60006113e2826127f5565b9050919050565b60006113f482612844565b9050919050565b600061140682612893565b9050919050565b6000611418826128e2565b9050919050565b600061142a82612931565b9050919050565b600061143c82612980565b9050919050565b600061144e826129d4565b9050919050565b60008190508181601e0b1461149f576040517f08c379a000000000000000000000000000000000000000000000000000000000815260040161149690613ae6565b60405180910390fd5b919050565b60008190508181601c0b146114ee576040517f08c379a00000000000000000000000000000000000000000000000000000000081526004016114e590613b78565b60405180910390fd5b919050565b600075ffffffffffffffffffffffffffffffffffffffffffff8016821115611550576040517f08c379a000000000000000000000000000000000000000000000000000000000815260040161154790613c0a565b60405180910390fd5b819050919050565b6000819050818160170b146115a2576040517f08c379a000000000000000000000000000000000000000000000000000000000815260040161159990613c9c565b60405180910390fd5b919050565b600060ff80168211156115ef576040517f08c379a00000000000000000000000000000000000000000000000000000000081526004016115e690613d2e565b60405180910390fd5b819050919050565b60007cffffffffffffffffffffffffffffffffffffffffffffffffffffffffff801682111561165b576040517f08c379a000000000000000000000000000000000000000000000000000000000815260040161165290613b78565b60405180910390fd5b819050919050565b6000819050818160180b146116ad576040517f08c379a00000000000000000000000000000000000000000000000000000000081526004016116a490613dc0565b60405180910390fd5b919050565b6000819050818160050b146116fc576040517f08c379a00000000000000000000000000000000000000000000000000000000081526004016116f390613e52565b60405180910390fd5b919050565b60006bffffffffffffffffffffffff8016821115611754576040517f08c379a000000000000000000000000000000000000000000000000000000000815260040161174b90613ee4565b60405180910390fd5b819050919050565b60008190508181600b0b146117a6576040517f08c379a000000000000000000000000000000000000000000000000000000000815260040161179d90613ee4565b60405180910390fd5b919050565b60008190508181600c0b146117f5576040517f08c379a00000000000000000000000000000000000000000000000000000000081526004016117ec90613f76565b60405180910390fd5b919050565b60006effffffffffffffffffffffffffffff8016821115611850576040517f08c379a000000000000000000000000000000000000000000000000000000000815260040161184790614008565b60405180910390fd5b819050919050565b600067ffffffffffffffff80168211156118a7576040517f08c379a000000000000000000000000000000000000000000000000000000000815260040161189e9061409a565b60405180910390fd5b819050919050565b6000819050818160090b146118f9576040517f08c379a00000000000000000000000000000000000000000000000000000000081526004016118f09061412c565b60405180910390fd5b919050565b600068ffffffffffffffffff801682111561194e576040517f08c379a0000000000000000000000000000000000000000000000000000000008152600401611945906141be565b60405180910390fd5b819050919050565b60008190508181601b0b146119a0576040517f08c379a000000000000000000000000000000000000000000000000000000000815260040161199790614250565b60405180910390fd5b919050565b60007dffffffffffffffffffffffffffffffffffffffffffffffffffffffffffff8016821115611a0a576040517f08c379a0000000000000000000000000000000000000000000000000000000008152600401611a01906142e2565b60405180910390fd5b819050919050565b60007effffffffffffffffffffffffffffffffffffffffffffffffffffffffffffff8016821115611a78576040517f08c379a0000000000000000000000000000000000000000000000000000000008152600401611a6f90613ae6565b60405180910390fd5b819050919050565b60006dffffffffffffffffffffffffffff8016821115611ad5576040517f08c379a0000000000000000000000000000000000000000000000000000000008152600401611acc90614374565b60405180910390fd5b819050919050565b6000819050818160060b14611b27576040517f08c379a0000000000000000000000000000000000000000000000000000000008152600401611b1e90614406565b60405180910390fd5b919050565b60008190508181601d0b14611b76576040517f08c379a0000000000000000000000000000000000000000000000000000000008152600401611b6d906142e2565b60405180910390fd5b919050565b600074ffffffffffffffffffffffffffffffffffffffffff8016821115611bd7576040517f08c379a0000000000000000000000000000000000000000000000000000000008152600401611bce90614498565b60405180910390fd5b819050919050565b600076ffffffffffffffffffffffffffffffffffffffffffffff8016821115611c3d576040517f08c379a0000000000000000000000000000000000000000000000000000000008152600401611c349061452a565b60405180910390fd5b819050919050565b60008190508181600d0b14611c8f576040517f08c379a0000000000000000000000000000000000000000000000000000000008152600401611c8690614374565b60405180910390fd5b919050565b6000819050818160120b14611cde576040517f08c379a0000000000000000000000000000000000000000000000000000000008152600401611cd5906145bc565b60405180910390fd5b919050565b60007bffffffffffffffffffffffffffffffffffffffffffffffffffffffff8016821115611d46576040517f08c379a0000000000000000000000000000000000000000000000000000000008152600401611d3d90614250565b60405180910390fd5b819050919050565b6000819050818160130b14611d98576040517f08c379a0000000000000000000000000000000000000000000000000000000008152600401611d8f9061464e565b60405180910390fd5b919050565b6000819050818160160b14611de7576040517f08c379a0000000000000000000000000000000000000000000000000000000008152600401611dde9061452a565b60405180910390fd5b919050565b6000819050818160110b14611e36576040517f08c379a0000000000000000000000000000000000000000000000000000000008152600401611e2d906146e0565b60405180910390fd5b919050565b600078ffffffffffffffffffffffffffffffffffffffffffffffffff8016821115611e9b576040517f08c379a0000000000000000000000000000000000000000000000000000000008152600401611e9290613dc0565b60405180910390fd5b819050919050565b600077ffffffffffffffffffffffffffffffffffffffffffffffff8016821115611f02576040517f08c379a0000000000000000000000000000000000000000000000000000000008152600401611ef990613c9c565b60405180910390fd5b819050919050565b60006affffffffffffffffffffff8016821115611f5c576040517f08c379a0000000000000000000000000000000000000000000000000000000008152600401611f5390614772565b60405180910390fd5b819050919050565b60006fffffffffffffffffffffffffffffffff8016821115611fbb576040517f08c379a0000000000000000000000000000000000000000000000000000000008152600401611fb290614804565b60405180910390fd5b819050919050565b6000819050818160150b1461200d576040517f08c379a000000000000000000000000000000000000000000000000000000000815260040161200490613c0a565b60405180910390fd5b919050565b60006cffffffffffffffffffffffffff8016821115612066576040517f08c379a000000000000000000000000000000000000000000000000000000000815260040161205d90613f76565b60405180910390fd5b819050919050565b60007affffffffffffffffffffffffffffffffffffffffffffffffffffff80168211156120d0576040517f08c379a00000000000000000000000000000000000000000000000000000000081526004016120c790614896565b60405180910390fd5b819050919050565b600072ffffffffffffffffffffffffffffffffffffff8016821115612132576040517f08c379a0000000000000000000000000000000000000000000000000000000008152600401612129906145bc565b60405180910390fd5b819050919050565b600061ffff8016821115612183576040517f08c379a000000000000000000000000000000000000000000000000000000000815260040161217a90614928565b60405180910390fd5b819050919050565b600062ffffff80168211156121d5576040517f08c379a00000000000000000000000000000000000000000000000000000000081526004016121cc906149ba565b60405180910390fd5b819050919050565b60008190508181600a0b14612227576040517f08c379a000000000000000000000000000000000000000000000000000000000815260040161221e90614772565b60405180910390fd5b919050565b6000819050818160030b14612276576040517f08c379a000000000000000000000000000000000000000000000000000000000815260040161226d90614a4c565b60405180910390fd5b919050565b600070ffffffffffffffffffffffffffffffffff80168211156122d3576040517f08c379a00000000000000000000000000000000000000000000000000000000081526004016122ca90614ade565b60405180910390fd5b819050919050565b600065ffffffffffff8016821115612328576040517f08c379a000000000000000000000000000000000000000000000000000000000815260040161231f90613e52565b60405180910390fd5b819050919050565b6000819050818160100b1461237a576040517f08c379a000000000000000000000000000000000000000000000000000000000815260040161237190614ade565b60405180910390fd5b919050565b600071ffffffffffffffffffffffffffffffffffff80168211156123d8576040517f08c379a00000000000000000000000000000000000000000000000000000000081526004016123cf906146e0565b60405180910390fd5b819050919050565b600079ffffffffffffffffffffffffffffffffffffffffffffffffffff8016821115612441576040517f08c379a000000000000000000000000000000000000000000000000000000000815260040161243890614b70565b60405180910390fd5b819050919050565b6000819050818160040b14612493576040517f08c379a000000000000000000000000000000000000000000000000000000000815260040161248a90614c02565b60405180910390fd5b919050565b600066ffffffffffffff80168211156124e6576040517f08c379a00000000000000000000000000000000000000000000000000000000081526004016124dd90614406565b60405180910390fd5b819050919050565b600063ffffffff8016821115612539576040517f08c379a000000000000000000000000000000000000000000000000000000000815260040161253090614a4c565b60405180910390fd5b819050919050565b600069ffffffffffffffffffff8016821115612592576040517f08c379a00000000000000000000000000000000000000000000000000000000081526004016125899061412c565b60405180910390fd5b819050919050565b6000819050818160010b146125e4576040517f08c379a00000000000000000000000000000000000000000000000000000000081526004016125db90614928565b60405180910390fd5b919050565b6000819050818160070b14612633576040517f08c379a000000000000000000000000000000000000000000000000000000000815260040161262a9061409a565b60405180910390fd5b919050565b60008190508181600f0b14612682576040517f08c379a000000000000000000000000000000000000000000000000000000000815260040161267990614804565b60405180910390fd5b919050565b60007f7fffffffffffffffffffffffffffffffffffffffffffffffffffffffffffffff8211156126ec576040517f08c379a00000000000000000000000000000000000000000000000000000000081526004016126e390614c94565b60405180910390fd5b819050919050565b600073ffffffffffffffffffffffffffffffffffffffff801682111561274f576040517f08c379a00000000000000000000000000000000000000000000000000000000081526004016127469061464e565b60405180910390fd5b819050919050565b6000819050818160080b146127a1576040517f08c379a0000000000000000000000000000000000000000000000000000000008152600401612798906141be565b60405180910390fd5b919050565b6000819050818160020b146127f0576040517f08c379a00000000000000000000000000000000000000000000000000000000081526004016127e7906149ba565b60405180910390fd5b919050565b6000819050818160140b1461283f576040517f08c379a000000000000000000000000000000000000000000000000000000000815260040161283690614498565b60405180910390fd5b919050565b60008190508181601a0b1461288e576040517f08c379a000000000000000000000000000000000000000000000000000000000815260040161288590614896565b60405180910390fd5b919050565b60008190508181600e0b146128dd576040517f08c379a00000000000000000000000000000000000000000000000000000000081526004016128d490614008565b60405180910390fd5b919050565b6000819050818160190b1461292c576040517f08c379a000000000000000000000000000000000000000000000000000000000815260040161292390614b70565b60405180910390fd5b919050565b6000819050818160000b1461297b576040517f08c379a000000000000000000000000000000000000000000000000000000000815260040161297290613d2e565b60405180910390fd5b919050565b600064ffffffffff80168211156129cc576040517f08c379a00000000000000000000000000000000000000000000000000000000081526004016129c390614c02565b60405180910390fd5b819050919050565b600080821215612a19576040517f08c379a0000000000000000000000000000000000000000000000000000000008152600401612a1090614d00565b60405180910390fd5b819050919050565b600080fd5b6000819050919050565b612a3981612a26565b8114612a4457600080fd5b50565b600081359050612a5681612a30565b92915050565b600060208284031215612a7257612a71612a21565b5b6000612a8084828501612a47565b91505092915050565b600081601e0b9050919050565b612a9f81612a89565b82525050565b6000602082019050612aba6000830184612a96565b92915050565b600081601c0b9050919050565b612ad681612ac0565b82525050565b6000602082019050612af16000830184612acd565b92915050565b6000819050919050565b612b0a81612af7565b8114612b1557600080fd5b50565b600081359050612b2781612b01565b92915050565b600060208284031215612b4357612b42612a21565b5b6000612b5184828501612b18565b91505092915050565b600075ffffffffffffffffffffffffffffffffffffffffffff82169050919050565b612b8581612b5a565b82525050565b6000602082019050612ba06000830184612b7c565b92915050565b60008160170b9050919050565b612bbc81612ba6565b82525050565b6000602082019050612bd76000830184612bb3565b92915050565b600060ff82169050919050565b612bf381612bdd565b82525050565b6000602082019050612c0e6000830184612bea565b92915050565b60007cffffffffffffffffffffffffffffffffffffffffffffffffffffffffff82169050919050565b612c4681612c14565b82525050565b6000602082019050612c616000830184612c3d565b92915050565b60008160180b9050919050565b612c7d81612c67565b82525050565b6000602082019050612c986000830184612c74565b92915050565b60008160050b9050919050565b612cb481612c9e565b82525050565b6000602082019050612ccf6000830184612cab565b92915050565b60006bffffffffffffffffffffffff82169050919050565b612cf681612cd5565b82525050565b6000602082019050612d116000830184612ced565b92915050565b600081600b0b9050919050565b612d2d81612d17565b82525050565b6000602082019050612d486000830184612d24565b92915050565b600081600c0b9050919050565b612d6481612d4e565b82525050565b6000602082019050612d7f6000830184612d5b565b92915050565b60006effffffffffffffffffffffffffffff82169050919050565b612da981612d85565b82525050565b6000602082019050612dc46000830184612da0565b92915050565b600067ffffffffffffffff82169050919050565b612de781612dca565b82525050565b6000602082019050612e026000830184612dde565b92915050565b60008160090b9050919050565b612e1e81612e08565b82525050565b6000602082019050612e396000830184612e15565b92915050565b600068ffffffffffffffffff82169050919050565b612e5d81612e3f565b82525050565b6000602082019050612e786000830184612e54565b92915050565b600081601b0b9050919050565b612e9481612e7e565b82525050565b6000602082019050612eaf6000830184612e8b565b92915050565b60007dffffffffffffffffffffffffffffffffffffffffffffffffffffffffffff82169050919050565b612ee881612eb5565b82525050565b6000602082019050612f036000830184612edf565b92915050565b60007effffffffffffffffffffffffffffffffffffffffffffffffffffffffffffff82169050919050565b612f3d81612f09565b82525050565b6000602082019050612f586000830184612f34565b92915050565b60006dffffffffffffffffffffffffffff82169050919050565b612f8181612f5e565b82525050565b6000602082019050612f9c6000830184612f78565b92915050565b60008160060b9050919050565b612fb881612fa2565b82525050565b6000602082019050612fd36000830184612faf565b92915050565b600081601d0b9050919050565b612fef81612fd9565b82525050565b600060208201905061300a6000830184612fe6565b92915050565b600074ffffffffffffffffffffffffffffffffffffffffff82169050919050565b61303a81613010565b82525050565b60006020820190506130556000830184613031565b92915050565b600076ffffffffffffffffffffffffffffffffffffffffffffff82169050919050565b6130878161305b565b82525050565b60006020820190506130a2600083018461307e565b92915050565b600081600d0b9050919050565b6130be816130a8565b82525050565b60006020820190506130d960008301846130b5565b92915050565b60008160120b9050919050565b6130f5816130df565b82525050565b600060208201905061311060008301846130ec565b92915050565b60007bffffffffffffffffffffffffffffffffffffffffffffffffffffffff82169050919050565b61314781613116565b82525050565b6000602082019050613162600083018461313e565b92915050565b60008160130b9050919050565b61317e81613168565b82525050565b60006020820190506131996000830184613175565b92915050565b60008160160b9050919050565b6131b58161319f565b82525050565b60006020820190506131d060008301846131ac565b92915050565b60008160110b9050919050565b6131ec816131d6565b82525050565b600060208201905061320760008301846131e3565b92915050565b600078ffffffffffffffffffffffffffffffffffffffffffffffffff82169050919050565b61323b8161320d565b82525050565b60006020820190506132566000830184613232565b92915050565b600077ffffffffffffffffffffffffffffffffffffffffffffffff82169050919050565b6132898161325c565b82525050565b60006020820190506132a46000830184613280565b92915050565b60006affffffffffffffffffffff82169050919050565b6132ca816132aa565b82525050565b60006020820190506132e560008301846132c1565b92915050565b60006fffffffffffffffffffffffffffffffff82169050919050565b613310816132eb565b82525050565b600060208201905061332b6000830184613307565b92915050565b60008160150b9050919050565b61334781613331565b82525050565b6000602082019050613362600083018461333e565b92915050565b60006cffffffffffffffffffffffffff82169050919050565b61338a81613368565b82525050565b60006020820190506133a56000830184613381565b92915050565b60007affffffffffffffffffffffffffffffffffffffffffffffffffffff82169050919050565b6133db816133ab565b82525050565b60006020820190506133f660008301846133d2565b92915050565b600072ffffffffffffffffffffffffffffffffffffff82169050919050565b613424816133fc565b82525050565b600060208201905061343f600083018461341b565b92915050565b600061ffff82169050919050565b61345c81613445565b82525050565b60006020820190506134776000830184613453565b92915050565b600062ffffff82169050919050565b6134958161347d565b82525050565b60006020820190506134b0600083018461348c565b92915050565b600081600a0b9050919050565b6134cc816134b6565b82525050565b60006020820190506134e760008301846134c3565b92915050565b60008160030b9050919050565b613503816134ed565b82525050565b600060208201905061351e60008301846134fa565b92915050565b600070ffffffffffffffffffffffffffffffffff82169050919050565b61354a81613524565b82525050565b60006020820190506135656000830184613541565b92915050565b600065ffffffffffff82169050919050565b6135868161356b565b82525050565b60006020820190506135a1600083018461357d565b92915050565b60008160100b9050919050565b6135bd816135a7565b82525050565b60006020820190506135d860008301846135b4565b92915050565b600071ffffffffffffffffffffffffffffffffffff82169050919050565b613605816135de565b82525050565b600060208201905061362060008301846135fc565b92915050565b600079ffffffffffffffffffffffffffffffffffffffffffffffffffff82169050919050565b61365581613626565b82525050565b6000602082019050613670600083018461364c565b92915050565b60008160040b9050919050565b61368c81613676565b82525050565b60006020820190506136a76000830184613683565b92915050565b600066ffffffffffffff82169050919050565b6136c9816136ad565b82525050565b60006020820190506136e460008301846136c0565b92915050565b600063ffffffff82169050919050565b613703816136ea565b82525050565b600060208201905061371e60008301846136fa565b92915050565b600069ffffffffffffffffffff82169050919050565b61374381613724565b82525050565b600060208201905061375e600083018461373a565b92915050565b60008160010b9050919050565b61377a81613764565b82525050565b60006020820190506137956000830184613771565b92915050565b60008160070b9050919050565b6137b18161379b565b82525050565b60006020820190506137cc60008301846137a8565b92915050565b600081600f0b9050919050565b6137e8816137d2565b82525050565b600060208201905061380360008301846137df565b92915050565b61381281612a26565b82525050565b600060208201905061382d6000830184613809565b92915050565b600073ffffffffffffffffffffffffffffffffffffffff82169050919050565b61385c81613833565b82525050565b60006020820190506138776000830184613853565b92915050565b60008160080b9050919050565b6138938161387d565b82525050565b60006020820190506138ae600083018461388a565b92915050565b60008160020b9050919050565b6138ca816138b4565b82525050565b60006020820190506138e560008301846138c1565b92915050565b60008160140b9050919050565b613901816138eb565b82525050565b600060208201905061391c60008301846138f8565b92915050565b600081601a0b9050919050565b61393881613922565b82525050565b6000602082019050613953600083018461392f565b92915050565b600081600e0b9050919050565b61396f81613959565b82525050565b600060208201905061398a6000830184613966565b92915050565b60008160190b9050919050565b6139a681613990565b82525050565b60006020820190506139c1600083018461399d565b92915050565b60008160000b9050919050565b6139dd816139c7565b82525050565b60006020820190506139f860008301846139d4565b92915050565b600064ffffffffff82169050919050565b613a18816139fe565b82525050565b6000602082019050613a336000830184613a0f565b92915050565b613a4281612af7565b82525050565b6000602082019050613a5d6000830184613a39565b92915050565b600082825260208201905092915050565b7f53616665436173743a2076616c756520646f65736e27742066697420696e203260008201527f3438206269747300000000000000000000000000000000000000000000000000602082015250565b6000613ad0602783613a63565b9150613adb82613a74565b604082019050919050565b60006020820190508181036000830152613aff81613ac3565b9050919050565b7f53616665436173743a2076616c756520646f65736e27742066697420696e203260008201527f3332206269747300000000000000000000000000000000000000000000000000602082015250565b6000613b62602783613a63565b9150613b6d82613b06565b604082019050919050565b60006020820190508181036000830152613b9181613b55565b9050919050565b7f53616665436173743a2076616c756520646f65736e27742066697420696e203160008201527f3736206269747300000000000000000000000000000000000000000000000000602082015250565b6000613bf4602783613a63565b9150613bff82613b98565b604082019050919050565b60006020820190508181036000830152613c2381613be7565b9050919050565b7f53616665436173743a2076616c756520646f65736e27742066697420696e203160008201527f3932206269747300000000000000000000000000000000000000000000000000602082015250565b6000613c86602783613a63565b9150613c9182613c2a565b604082019050919050565b60006020820190508181036000830152613cb581613c79565b9050919050565b7f53616665436173743a2076616c756520646f65736e27742066697420696e203860008201527f2062697473000000000000000000000000000000000000000000000000000000602082015250565b6000613d18602583613a63565b9150613d2382613cbc565b604082019050919050565b60006020820190508181036000830152613d4781613d0b565b9050919050565b7f53616665436173743a2076616c756520646f65736e27742066697420696e203260008201527f3030206269747300000000000000000000000000000000000000000000000000602082015250565b6000613daa602783613a63565b9150613db582613d4e565b604082019050919050565b60006020820190508181036000830152613dd981613d9d565b9050919050565b7f53616665436173743a2076616c756520646f65736e27742066697420696e203460008201527f3820626974730000000000000000000000000000000000000000000000000000602082015250565b6000613e3c602683613a63565b9150613e4782613de0565b604082019050919050565b60006020820190508181036000830152613e6b81613e2f565b9050919050565b7f53616665436173743a2076616c756520646f65736e27742066697420696e203960008201527f3620626974730000000000000000000000000000000000000000000000000000602082015250565b6000613ece602683613a63565b9150613ed982613e72565b604082019050919050565b60006020820190508181036000830152613efd81613ec1565b9050919050565b7f53616665436173743a2076616c756520646f65736e27742066697420696e203160008201527f3034206269747300000000000000000000000000000000000000000000000000602082015250565b6000613f60602783613a63565b9150613f6b82613f04565b604082019050919050565b60006020820190508181036000830152613f8f81613f53565b9050919050565b7f53616665436173743a2076616c756520646f65736e27742066697420696e203160008201527f3230206269747300000000000000000000000000000000000000000000000000602082015250565b6000613ff2602783613a63565b9150613ffd82613f96565b604082019050919050565b6000602082019050818103600083015261402181613fe5565b9050919050565b7f53616665436173743a2076616c756520646f65736e27742066697420696e203660008201527f3420626974730000000000000000000000000000000000000000000000000000602082015250565b6000614084602683613a63565b915061408f82614028565b604082019050919050565b600060208201905081810360008301526140b381614077565b9050919050565b7f53616665436173743a2076616c756520646f65736e27742066697420696e203860008201527f3020626974730000000000000000000000000000000000000000000000000000602082015250565b6000614116602683613a63565b9150614121826140ba565b604082019050919050565b6000602082019050818103600083015261414581614109565b9050919050565b7f53616665436173743a2076616c756520646f65736e27742066697420696e203760008201527f3220626974730000000000000000000000000000000000000000000000000000602082015250565b60006141a8602683613a63565b91506141b38261414c565b604082019050919050565b600060208201905081810360008301526141d78161419b565b9050919050565b7f53616665436173743a2076616c756520646f65736e27742066697420696e203260008201527f3234206269747300000000000000000000000000000000000000000000000000602082015250565b600061423a602783613a63565b9150614245826141de565b604082019050919050565b600060208201905081810360008301526142698161422d565b9050919050565b7f53616665436173743a2076616c756520646f65736e27742066697420696e203260008201527f3430206269747300000000000000000000000000000000000000000000000000602082015250565b60006142cc602783613a63565b91506142d782614270565b604082019050919050565b600060208201905081810360008301526142fb816142bf565b9050919050565b7f53616665436173743a2076616c756520646f65736e27742066697420696e203160008201527f3132206269747300000000000000000000000000000000000000000000000000602082015250565b600061435e602783613a63565b915061436982614302565b604082019050919050565b6000602082019050818103600083015261438d81614351565b9050919050565b7f53616665436173743a2076616c756520646f65736e27742066697420696e203560008201527f3620626974730000000000000000000000000000000000000000000000000000602082015250565b60006143f0602683613a63565b91506143fb82614394565b604082019050919050565b6000602082019050818103600083015261441f816143e3565b9050919050565b7f53616665436173743a2076616c756520646f65736e27742066697420696e203160008201527f3638206269747300000000000000000000000000000000000000000000000000602082015250565b6000614482602783613a63565b915061448d82614426565b604082019050919050565b600060208201905081810360008301526144b181614475565b9050919050565b7f53616665436173743a2076616c756520646f65736e27742066697420696e203160008201527f3834206269747300000000000000000000000000000000000000000000000000602082015250565b6000614514602783613a63565b915061451f826144b8565b604082019050919050565b6000602082019050818103600083015261454381614507565b9050919050565b7f53616665436173743a2076616c756520646f65736e27742066697420696e203160008201527f3532206269747300000000000000000000000000000000000000000000000000602082015250565b60006145a6602783613a63565b91506145b18261454a565b604082019050919050565b600060208201905081810360008301526145d581614599565b9050919050565b7f53616665436173743a2076616c756520646f65736e27742066697420696e203160008201527f3630206269747300000000000000000000000000000000000000000000000000602082015250565b6000614638602783613a63565b9150614643826145dc565b604082019050919050565b600060208201905081810360008301526146678161462b565b9050919050565b7f53616665436173743a2076616c756520646f65736e27742066697420696e203160008201527f3434206269747300000000000000000000000000000000000000000000000000602082015250565b60006146ca602783613a63565b91506146d58261466e565b604082019050919050565b600060208201905081810360008301526146f9816146bd565b9050919050565b7f53616665436173743a2076616c756520646f65736e27742066697420696e203860008201527f3820626974730000000000000000000000000000000000000000000000000000602082015250565b600061475c602683613a63565b915061476782614700565b604082019050919050565b6000602082019050818103600083015261478b8161474f565b9050919050565b7f53616665436173743a2076616c756520646f65736e27742066697420696e203160008201527f3238206269747300000000000000000000000000000000000000000000000000602082015250565b60006147ee602783613a63565b91506147f982614792565b604082019050919050565b6000602082019050818103600083015261481d816147e1565b9050919050565b7f53616665436173743a2076616c756520646f65736e27742066697420696e203260008201527f3136206269747300000000000000000000000000000000000000000000000000602082015250565b6000614880602783613a63565b915061488b82614824565b604082019050919050565b600060208201905081810360008301526148af81614873565b9050919050565b7f53616665436173743a2076616c756520646f65736e27742066697420696e203160008201527f3620626974730000000000000000000000000000000000000000000000000000602082015250565b6000614912602683613a63565b915061491d826148b6565b604082019050919050565b6000602082019050818103600083015261494181614905565b9050919050565b7f53616665436173743a2076616c756520646f65736e27742066697420696e203260008201527f3420626974730000000000000000000000000000000000000000000000000000602082015250565b60006149a4602683613a63565b91506149af82614948565b604082019050919050565b600060208201905081810360008301526149d381614997565b9050919050565b7f53616665436173743a2076616c756520646f65736e27742066697420696e203360008201527f3220626974730000000000000000000000000000000000000000000000000000602082015250565b6000614a36602683613a63565b9150614a41826149da565b604082019050919050565b60006020820190508181036000830152614a6581614a29565b9050919050565b7f53616665436173743a2076616c756520646f65736e27742066697420696e203160008201527f3336206269747300000000000000000000000000000000000000000000000000602082015250565b6000614ac8602783613a63565b9150614ad382614a6c565b604082019050919050565b60006020820190508181036000830152614af781614abb565b9050919050565b7f53616665436173743a2076616c756520646f65736e27742066697420696e203260008201527f3038206269747300000000000000000000000000000000000000000000000000602082015250565b6000614b5a602783613a63565b9150614b6582614afe565b604082019050919050565b60006020820190508181036000830152614b8981614b4d565b9050919050565b7f53616665436173743a2076616c756520646f65736e27742066697420696e203460008201527f3020626974730000000000000000000000000000000000000000000000000000602082015250565b6000614bec602683613a63565b9150614bf782614b90565b604082019050919050565b60006020820190508181036000830152614c1b81614bdf565b9050919050565b7f53616665436173743a2076616c756520646f65736e27742066697420696e206160008201527f6e20696e74323536000000000000000000000000000000000000000000000000602082015250565b6000614c7e602883613a63565b9150614c8982614c22565b604082019050919050565b60006020820190508181036000830152614cad81614c71565b9050919050565b7f53616665436173743a2076616c7565206d75737420626520706f736974697665600082015250565b6000614cea602083613a63565b9150614cf582614cb4565b602082019050919050565b60006020820190508181036000830152614d1981614cdd565b905091905056fea264697066735822122044eefb4178ed72784c35a7f0380147d08f81df3980d336eba38ed4e1dbc57bf164736f6c63430008090033",
  "linkReferences": {},
  "deployedLinkReferences": {}
}