{
  "_format": "hh-sol-artifact-1",
  "contractName": "AccessControlEnumerableMock",
  "sourceName": "contracts/openzeppelin/mocks/AccessControlEnumerableMock.sol",
  "abi": [
    {
      "inputs": [],
      "stateMutability": "nonpayable",
      "type": "constructor"
    },
    {
      "anonymous": false,
      "inputs": [
        {
          "indexed": true,
          "internalType": "bytes32",
          "name": "role",
          "type": "bytes32"
        },
        {
          "indexed": true,
          "internalType": "bytes32",
          "name": "previousAdminRole",
          "type": "bytes32"
        },
        {
          "indexed": true,
          "internalType": "bytes32",
          "name": "newAdminRole",
          "type": "bytes32"
        }
      ],
      "name": "RoleAdminChanged",
      "type": "event"
    },
    {
      "anonymous": false,
      "inputs": [
        {
          "indexed": true,
          "internalType": "bytes32",
          "name": "role",
          "type": "bytes32"
        },
        {
          "indexed": true,
          "internalType": "address",
          "name": "account",
          "type": "address"
        },
        {
          "indexed": true,
          "internalType": "address",
          "name": "sender",
          "type": "address"
        }
      ],
      "name": "RoleGranted",
      "type": "event"
    },
    {
      "anonymous": false,
      "inputs": [
        {
          "indexed": true,
          "internalType": "bytes32",
          "name": "role",
          "type": "bytes32"
        },
        {
          "indexed": true,
          "internalType": "address",
          "name": "account",
          "type": "address"
        },
        {
          "indexed": true,
          "internalType": "address",
          "name": "sender",
          "type": "address"
        }
      ],
      "name": "RoleRevoked",
      "type": "event"
    },
    {
      "inputs": [],
      "name": "DEFAULT_ADMIN_ROLE",
      "outputs": [
        {
          "internalType": "bytes32",
          "name": "",
          "type": "bytes32"
        }
      ],
      "stateMutability": "view",
      "type": "function"
    },
    {
      "inputs": [
        {
          "internalType": "bytes32",
          "name": "role",
          "type": "bytes32"
        }
      ],
      "name": "getRoleAdmin",
      "outputs": [
        {
          "internalType": "bytes32",
          "name": "",
          "type": "bytes32"
        }
      ],
      "stateMutability": "view",
      "type": "function"
    },
    {
      "inputs": [
        {
          "internalType": "bytes32",
          "name": "role",
          "type": "bytes32"
        },
        {
          "internalType": "uint256",
          "name": "index",
          "type": "uint256"
        }
      ],
      "name": "getRoleMember",
      "outputs": [
        {
          "internalType": "address",
          "name": "",
          "type": "address"
        }
      ],
      "stateMutability": "view",
      "type": "function"
    },
    {
      "inputs": [
        {
          "internalType": "bytes32",
          "name": "role",
          "type": "bytes32"
        }
      ],
      "name": "getRoleMemberCount",
      "outputs": [
        {
          "internalType": "uint256",
          "name": "",
          "type": "uint256"
        }
      ],
      "stateMutability": "view",
      "type": "function"
    },
    {
      "inputs": [
        {
          "internalType": "bytes32",
          "name": "role",
          "type": "bytes32"
        },
        {
          "internalType": "address",
          "name": "account",
          "type": "address"
        }
      ],
      "name": "grantRole",
      "outputs": [],
      "stateMutability": "nonpayable",
      "type": "function"
    },
    {
      "inputs": [
        {
          "internalType": "bytes32",
          "name": "role",
          "type": "bytes32"
        },
        {
          "internalType": "address",
          "name": "account",
          "type": "address"
        }
      ],
      "name": "hasRole",
      "outputs": [
        {
          "internalType": "bool",
          "name": "",
          "type": "bool"
        }
      ],
      "stateMutability": "view",
      "type": "function"
    },
    {
      "inputs": [
        {
          "internalType": "bytes32",
          "name": "role",
          "type": "bytes32"
        },
        {
          "internalType": "address",
          "name": "account",
          "type": "address"
        }
      ],
      "name": "renounceRole",
      "outputs": [],
      "stateMutability": "nonpayable",
      "type": "function"
    },
    {
      "inputs": [
        {
          "internalType": "bytes32",
          "name": "role",
          "type": "bytes32"
        },
        {
          "internalType": "address",
          "name": "account",
          "type": "address"
        }
      ],
      "name": "revokeRole",
      "outputs": [],
      "stateMutability": "nonpayable",
      "type": "function"
    },
    {
      "inputs": [
        {
          "internalType": "bytes32",
          "name": "roleId",
          "type": "bytes32"
        }
      ],
      "name": "senderProtected",
      "outputs": [],
      "stateMutability": "nonpayable",
      "type": "function"
    },
    {
      "inputs": [
        {
          "internalType": "bytes32",
          "name": "roleId",
          "type": "bytes32"
        },
        {
          "internalType": "bytes32",
          "name": "adminRoleId",
          "type": "bytes32"
        }
      ],
      "name": "setRoleAdmin",
      "outputs": [],
      "stateMutability": "nonpayable",
      "type": "function"
    },
    {
      "inputs": [
        {
          "internalType": "bytes4",
          "name": "interfaceId",
          "type": "bytes4"
        }
      ],
      "name": "supportsInterface",
      "outputs": [
        {
          "internalType": "bool",
          "name": "",
          "type": "bool"
        }
      ],
      "stateMutability": "view",
      "type": "function"
    }
  ],
  "bytecode": "0x60806040523480156200001157600080fd5b50620000366000801b6200002a6200003c60201b60201c565b6200004460201b60201c565b620002d2565b600033905090565b6200005682826200005a60201b60201c565b5050565b620000718282620000a260201b620004861760201c565b6200009d81600160008581526020019081526020016000206200019360201b620005661790919060201c565b505050565b620000b48282620001cb60201b60201c565b6200018f57600160008084815260200190815260200160002060000160008373ffffffffffffffffffffffffffffffffffffffff1673ffffffffffffffffffffffffffffffffffffffff16815260200190815260200160002060006101000a81548160ff021916908315150217905550620001346200003c60201b60201c565b73ffffffffffffffffffffffffffffffffffffffff168173ffffffffffffffffffffffffffffffffffffffff16837f2f8788117e7eff1d82e926ec794901d17c78024a50270940304540a733656f0d60405160405180910390a45b5050565b6000620001c3836000018373ffffffffffffffffffffffffffffffffffffffff1660001b6200023560201b60201c565b905092915050565b600080600084815260200190815260200160002060000160008373ffffffffffffffffffffffffffffffffffffffff1673ffffffffffffffffffffffffffffffffffffffff16815260200190815260200160002060009054906101000a900460ff16905092915050565b6000620002498383620002af60201b60201c565b620002a4578260000182908060018154018082558091505060019003906000526020600020016000909190919091505582600001805490508360010160008481526020019081526020016000208190555060019050620002a9565b600090505b92915050565b600080836001016000848152602001908152602001600020541415905092915050565b61152680620002e26000396000f3fe608060405234801561001057600080fd5b50600436106100a95760003560e01c80634b9304a4116100715780634b9304a4146101625780639010d07c1461017e57806391d14854146101ae578063a217fddf146101de578063ca15c873146101fc578063d547741f1461022c576100a9565b806301ffc9a7146100ae5780631e4e0091146100de578063248a9ca3146100fa5780632f2ff15d1461012a57806336568abe14610146575b600080fd5b6100c860048036038101906100c39190610dc7565b610248565b6040516100d59190610e0f565b60405180910390f35b6100f860048036038101906100f39190610e60565b6102c2565b005b610114600480360381019061010f9190610ea0565b6102d0565b6040516101219190610edc565b60405180910390f35b610144600480360381019061013f9190610f55565b6102ef565b005b610160600480360381019061015b9190610f55565b610310565b005b61017c60048036038101906101779190610ea0565b610393565b005b61019860048036038101906101939190610fcb565b6103a1565b6040516101a5919061101a565b60405180910390f35b6101c860048036038101906101c39190610f55565b6103d0565b6040516101d59190610e0f565b60405180910390f35b6101e661043a565b6040516101f39190610edc565b60405180910390f35b61021660048036038101906102119190610ea0565b610441565b6040516102239190611044565b60405180910390f35b61024660048036038101906102419190610f55565b610465565b005b60007f5a05180f000000000000000000000000000000000000000000000000000000007bffffffffffffffffffffffffffffffffffffffffffffffffffffffff1916827bffffffffffffffffffffffffffffffffffffffffffffffffffffffff191614806102bb57506102ba82610596565b5b9050919050565b6102cc8282610610565b5050565b6000806000838152602001908152602001600020600101549050919050565b6102f8826102d0565b6103018161066b565b61030b838361067f565b505050565b6103186106b3565b73ffffffffffffffffffffffffffffffffffffffff168173ffffffffffffffffffffffffffffffffffffffff1614610385576040517f08c379a000000000000000000000000000000000000000000000000000000000815260040161037c906110e2565b60405180910390fd5b61038f82826106bb565b5050565b8061039d8161066b565b5050565b60006103c882600160008681526020019081526020016000206106ef90919063ffffffff16565b905092915050565b600080600084815260200190815260200160002060000160008373ffffffffffffffffffffffffffffffffffffffff1673ffffffffffffffffffffffffffffffffffffffff16815260200190815260200160002060009054906101000a900460ff16905092915050565b6000801b81565b600061045e60016000848152602001908152602001600020610709565b9050919050565b61046e826102d0565b6104778161066b565b61048183836106bb565b505050565b61049082826103d0565b61056257600160008084815260200190815260200160002060000160008373ffffffffffffffffffffffffffffffffffffffff1673ffffffffffffffffffffffffffffffffffffffff16815260200190815260200160002060006101000a81548160ff0219169083151502179055506105076106b3565b73ffffffffffffffffffffffffffffffffffffffff168173ffffffffffffffffffffffffffffffffffffffff16837f2f8788117e7eff1d82e926ec794901d17c78024a50270940304540a733656f0d60405160405180910390a45b5050565b600061058e836000018373ffffffffffffffffffffffffffffffffffffffff1660001b61071e565b905092915050565b60007f7965db0b000000000000000000000000000000000000000000000000000000007bffffffffffffffffffffffffffffffffffffffffffffffffffffffff1916827bffffffffffffffffffffffffffffffffffffffffffffffffffffffff1916148061060957506106088261078e565b5b9050919050565b600061061b836102d0565b905081600080858152602001908152602001600020600101819055508181847fbd79b86ffe0ab8e8776151514217cd7cacd52c909f66475c3af44e129f0b00ff60405160405180910390a4505050565b61067c816106776106b3565b6107f8565b50565b6106898282610486565b6106ae816001600085815260200190815260200160002061056690919063ffffffff16565b505050565b600033905090565b6106c5828261087d565b6106ea816001600085815260200190815260200160002061095e90919063ffffffff16565b505050565b60006106fe836000018361098e565b60001c905092915050565b6000610717826000016109b9565b9050919050565b600061072a83836109ca565b610783578260000182908060018154018082558091505060019003906000526020600020016000909190919091505582600001805490508360010160008481526020019081526020016000208190555060019050610788565b600090505b92915050565b60007f01ffc9a7000000000000000000000000000000000000000000000000000000007bffffffffffffffffffffffffffffffffffffffffffffffffffffffff1916827bffffffffffffffffffffffffffffffffffffffffffffffffffffffff1916149050919050565b61080282826103d0565b6108795761080f816109ed565b61081d8360001c6020610a1a565b60405160200161082e929190611214565b6040516020818303038152906040526040517f08c379a00000000000000000000000000000000000000000000000000000000081526004016108709190611298565b60405180910390fd5b5050565b61088782826103d0565b1561095a57600080600084815260200190815260200160002060000160008373ffffffffffffffffffffffffffffffffffffffff1673ffffffffffffffffffffffffffffffffffffffff16815260200190815260200160002060006101000a81548160ff0219169083151502179055506108ff6106b3565b73ffffffffffffffffffffffffffffffffffffffff168173ffffffffffffffffffffffffffffffffffffffff16837ff6391f5c32d9c69d2a47ea670b442974b53935d1edc7fd64eb21e047a839171b60405160405180910390a45b5050565b6000610986836000018373ffffffffffffffffffffffffffffffffffffffff1660001b610c56565b905092915050565b60008260000182815481106109a6576109a56112ba565b5b9060005260206000200154905092915050565b600081600001805490509050919050565b600080836001016000848152602001908152602001600020541415905092915050565b6060610a138273ffffffffffffffffffffffffffffffffffffffff16601460ff16610a1a565b9050919050565b606060006002836002610a2d9190611318565b610a379190611372565b67ffffffffffffffff811115610a5057610a4f6113c8565b5b6040519080825280601f01601f191660200182016040528015610a825781602001600182028036833780820191505090505b5090507f300000000000000000000000000000000000000000000000000000000000000081600081518110610aba57610ab96112ba565b5b60200101907effffffffffffffffffffffffffffffffffffffffffffffffffffffffffffff1916908160001a9053507f780000000000000000000000000000000000000000000000000000000000000081600181518110610b1e57610b1d6112ba565b5b60200101907effffffffffffffffffffffffffffffffffffffffffffffffffffffffffffff1916908160001a90535060006001846002610b5e9190611318565b610b689190611372565b90505b6001811115610c08577f3031323334353637383961626364656600000000000000000000000000000000600f861660108110610baa57610ba96112ba565b5b1a60f81b828281518110610bc157610bc06112ba565b5b60200101907effffffffffffffffffffffffffffffffffffffffffffffffffffffffffffff1916908160001a905350600485901c945080610c01906113f7565b9050610b6b565b5060008414610c4c576040517f08c379a0000000000000000000000000000000000000000000000000000000008152600401610c439061146d565b60405180910390fd5b8091505092915050565b60008083600101600084815260200190815260200160002054905060008114610d5e576000600182610c88919061148d565b9050600060018660000180549050610ca0919061148d565b9050818114610d0f576000866000018281548110610cc157610cc06112ba565b5b9060005260206000200154905080876000018481548110610ce557610ce46112ba565b5b90600052602060002001819055508387600101600083815260200190815260200160002081905550505b85600001805480610d2357610d226114c1565b5b600190038181906000526020600020016000905590558560010160008681526020019081526020016000206000905560019350505050610d64565b60009150505b92915050565b600080fd5b60007fffffffff0000000000000000000000000000000000000000000000000000000082169050919050565b610da481610d6f565b8114610daf57600080fd5b50565b600081359050610dc181610d9b565b92915050565b600060208284031215610ddd57610ddc610d6a565b5b6000610deb84828501610db2565b91505092915050565b60008115159050919050565b610e0981610df4565b82525050565b6000602082019050610e246000830184610e00565b92915050565b6000819050919050565b610e3d81610e2a565b8114610e4857600080fd5b50565b600081359050610e5a81610e34565b92915050565b60008060408385031215610e7757610e76610d6a565b5b6000610e8585828601610e4b565b9250506020610e9685828601610e4b565b9150509250929050565b600060208284031215610eb657610eb5610d6a565b5b6000610ec484828501610e4b565b91505092915050565b610ed681610e2a565b82525050565b6000602082019050610ef16000830184610ecd565b92915050565b600073ffffffffffffffffffffffffffffffffffffffff82169050919050565b6000610f2282610ef7565b9050919050565b610f3281610f17565b8114610f3d57600080fd5b50565b600081359050610f4f81610f29565b92915050565b60008060408385031215610f6c57610f6b610d6a565b5b6000610f7a85828601610e4b565b9250506020610f8b85828601610f40565b9150509250929050565b6000819050919050565b610fa881610f95565b8114610fb357600080fd5b50565b600081359050610fc581610f9f565b92915050565b60008060408385031215610fe257610fe1610d6a565b5b6000610ff085828601610e4b565b925050602061100185828601610fb6565b9150509250929050565b61101481610f17565b82525050565b600060208201905061102f600083018461100b565b92915050565b61103e81610f95565b82525050565b60006020820190506110596000830184611035565b92915050565b600082825260208201905092915050565b7f416363657373436f6e74726f6c3a2063616e206f6e6c792072656e6f756e636560008201527f20726f6c657320666f722073656c660000000000000000000000000000000000602082015250565b60006110cc602f8361105f565b91506110d782611070565b604082019050919050565b600060208201905081810360008301526110fb816110bf565b9050919050565b600081905092915050565b7f416363657373436f6e74726f6c3a206163636f756e7420000000000000000000600082015250565b6000611143601783611102565b915061114e8261110d565b601782019050919050565b600081519050919050565b60005b83811015611182578082015181840152602081019050611167565b83811115611191576000848401525b50505050565b60006111a282611159565b6111ac8185611102565b93506111bc818560208601611164565b80840191505092915050565b7f206973206d697373696e6720726f6c6520000000000000000000000000000000600082015250565b60006111fe601183611102565b9150611209826111c8565b601182019050919050565b600061121f82611136565b915061122b8285611197565b9150611236826111f1565b91506112428284611197565b91508190509392505050565b6000601f19601f8301169050919050565b600061126a82611159565b611274818561105f565b9350611284818560208601611164565b61128d8161124e565b840191505092915050565b600060208201905081810360008301526112b2818461125f565b905092915050565b7f4e487b7100000000000000000000000000000000000000000000000000000000600052603260045260246000fd5b7f4e487b7100000000000000000000000000000000000000000000000000000000600052601160045260246000fd5b600061132382610f95565b915061132e83610f95565b9250817fffffffffffffffffffffffffffffffffffffffffffffffffffffffffffffffff0483118215151615611367576113666112e9565b5b828202905092915050565b600061137d82610f95565b915061138883610f95565b9250827fffffffffffffffffffffffffffffffffffffffffffffffffffffffffffffffff038211156113bd576113bc6112e9565b5b828201905092915050565b7f4e487b7100000000000000000000000000000000000000000000000000000000600052604160045260246000fd5b600061140282610f95565b91506000821415611416576114156112e9565b5b600182039050919050565b7f537472696e67733a20686578206c656e67746820696e73756666696369656e74600082015250565b600061145760208361105f565b915061146282611421565b602082019050919050565b600060208201905081810360008301526114868161144a565b9050919050565b600061149882610f95565b91506114a383610f95565b9250828210156114b6576114b56112e9565b5b828203905092915050565b7f4e487b7100000000000000000000000000000000000000000000000000000000600052603160045260246000fdfea26469706673582212200edea8248ab3118dce00634f0a944fe90b2abdcc052a1cba085a53c2a41e13a164736f6c63430008090033",
  "linkReferences": {},
  "deployedLinkReferences": {}
}