{
  "_format": "hh-sol-artifact-1",
  "contractName": "ClonesMock",
  "sourceName": "contracts/openzeppelin/mocks/ClonesMock.sol",
  "abi": [
    {
      "anonymous": false,
      "inputs": [
        {
          "indexed": false,
          "internalType": "address",
          "name": "instance",
          "type": "address"
        }
      ],
      "name": "NewInstance",
      "type": "event"
    },
    {
      "inputs": [
        {
          "internalType": "address",
          "name": "implementation",
          "type": "address"
        },
        {
          "internalType": "bytes",
          "name": "initdata",
          "type": "bytes"
        }
      ],
      "name": "clone",
      "outputs": [],
      "stateMutability": "payable",
      "type": "function"
    },
    {
      "inputs": [
        {
          "internalType": "address",
          "name": "implementation",
          "type": "address"
        },
        {
          "internalType": "bytes32",
          "name": "salt",
          "type": "bytes32"
        },
        {
          "internalType": "bytes",
          "name": "initdata",
          "type": "bytes"
        }
      ],
      "name": "cloneDeterministic",
      "outputs": [],
      "stateMutability": "payable",
      "type": "function"
    },
    {
      "inputs": [
        {
          "internalType": "address",
          "name": "implementation",
          "type": "address"
        },
        {
          "internalType": "bytes32",
          "name": "salt",
          "type": "bytes32"
        }
      ],
      "name": "predictDeterministicAddress",
      "outputs": [
        {
          "internalType": "address",
          "name": "predicted",
          "type": "address"
        }
      ],
      "stateMutability": "view",
      "type": "function"
    }
  ],
  "bytecode": "0x608060405234801561001057600080fd5b50610ba2806100206000396000f3fe6080604052600436106100345760003560e01c80630fbe133c14610039578063360d0fad146100555780636e9ebc8114610092575b600080fd5b610053600480360381019061004e91906106e0565b6100ae565b005b34801561006157600080fd5b5061007c60048036038101906100779190610776565b61011f565b60405161008991906107c5565b60405180910390f35b6100ac60048036038101906100a791906107e0565b610152565b005b61011a6100d08473ffffffffffffffffffffffffffffffffffffffff166101ce565b83838080601f016020809104026020016040519081016040528093929190818152602001838380828437600081840152601f19601f82011690508083019250505050505050610289565b505050565b600061014a828473ffffffffffffffffffffffffffffffffffffffff166102fb90919063ffffffff16565b905092915050565b6101c861017e848673ffffffffffffffffffffffffffffffffffffffff1661031090919063ffffffff16565b83838080601f016020809104026020016040519081016040528093929190818152602001838380828437600081840152601f19601f82011690508083019250505050505050610289565b50505050565b6000763d602d80600a3d3981f3363d3d373d3d3d363d730000008260601b60e81c176000526e5af43d82803e903d91602b57fd5bf38260781b17602052603760096000f09050600073ffffffffffffffffffffffffffffffffffffffff168173ffffffffffffffffffffffffffffffffffffffff161415610284576040517f08c379a000000000000000000000000000000000000000000000000000000000815260040161027b906108b1565b60405180910390fd5b919050565b6000815111156102c0576102be81348473ffffffffffffffffffffffffffffffffffffffff166103cd9092919063ffffffff16565b505b7f39a773f10839d86923d91d5ce7d6642f2f63a95d850495abb1f162e38aa04ea5826040516102ef91906107c5565b60405180910390a15050565b60006103088383306103fc565b905092915050565b6000763d602d80600a3d3981f3363d3d373d3d3d363d730000008360601b60e81c176000526e5af43d82803e903d91602b57fd5bf38360781b1760205281603760096000f59050600073ffffffffffffffffffffffffffffffffffffffff168173ffffffffffffffffffffffffffffffffffffffff1614156103c7576040517f08c379a00000000000000000000000000000000000000000000000000000000081526004016103be9061091d565b60405180910390fd5b92915050565b60606103f3848484604051806060016040528060298152602001610b446029913961045d565b90509392505050565b60006040518260388201526f5af43d82803e903d91602b57fd5bf3ff6024820152846014820152733d602d80600a3d3981f3363d3d373d3d3d363d7381528360588201526037600c8201206078820152605560438201209150509392505050565b6060824710156104a2576040517f08c379a0000000000000000000000000000000000000000000000000000000008152600401610499906109af565b60405180910390fd5b6000808673ffffffffffffffffffffffffffffffffffffffff1685876040516104cb9190610a49565b60006040518083038185875af1925050503d8060008114610508576040519150601f19603f3d011682016040523d82523d6000602084013e61050d565b606091505b509150915061051e8783838761052a565b92505050949350505050565b6060831561058d5760008351141561058557610545856105a0565b610584576040517f08c379a000000000000000000000000000000000000000000000000000000000815260040161057b90610aac565b60405180910390fd5b5b829050610598565b61059783836105c3565b5b949350505050565b6000808273ffffffffffffffffffffffffffffffffffffffff163b119050919050565b6000825111156105d65781518083602001fd5b806040517f08c379a000000000000000000000000000000000000000000000000000000000815260040161060a9190610b21565b60405180910390fd5b600080fd5b600080fd5b600073ffffffffffffffffffffffffffffffffffffffff82169050919050565b60006106488261061d565b9050919050565b6106588161063d565b811461066357600080fd5b50565b6000813590506106758161064f565b92915050565b600080fd5b600080fd5b600080fd5b60008083601f8401126106a05761069f61067b565b5b8235905067ffffffffffffffff8111156106bd576106bc610680565b5b6020830191508360018202830111156106d9576106d8610685565b5b9250929050565b6000806000604084860312156106f9576106f8610613565b5b600061070786828701610666565b935050602084013567ffffffffffffffff81111561072857610727610618565b5b6107348682870161068a565b92509250509250925092565b6000819050919050565b61075381610740565b811461075e57600080fd5b50565b6000813590506107708161074a565b92915050565b6000806040838503121561078d5761078c610613565b5b600061079b85828601610666565b92505060206107ac85828601610761565b9150509250929050565b6107bf8161063d565b82525050565b60006020820190506107da60008301846107b6565b92915050565b600080600080606085870312156107fa576107f9610613565b5b600061080887828801610666565b945050602061081987828801610761565b935050604085013567ffffffffffffffff81111561083a57610839610618565b5b6108468782880161068a565b925092505092959194509250565b600082825260208201905092915050565b7f455243313136373a20637265617465206661696c656400000000000000000000600082015250565b600061089b601683610854565b91506108a682610865565b602082019050919050565b600060208201905081810360008301526108ca8161088e565b9050919050565b7f455243313136373a2063726561746532206661696c6564000000000000000000600082015250565b6000610907601783610854565b9150610912826108d1565b602082019050919050565b60006020820190508181036000830152610936816108fa565b9050919050565b7f416464726573733a20696e73756666696369656e742062616c616e636520666f60008201527f722063616c6c0000000000000000000000000000000000000000000000000000602082015250565b6000610999602683610854565b91506109a48261093d565b604082019050919050565b600060208201905081810360008301526109c88161098c565b9050919050565b600081519050919050565b600081905092915050565b60005b83811015610a035780820151818401526020810190506109e8565b83811115610a12576000848401525b50505050565b6000610a23826109cf565b610a2d81856109da565b9350610a3d8185602086016109e5565b80840191505092915050565b6000610a558284610a18565b915081905092915050565b7f416464726573733a2063616c6c20746f206e6f6e2d636f6e7472616374000000600082015250565b6000610a96601d83610854565b9150610aa182610a60565b602082019050919050565b60006020820190508181036000830152610ac581610a89565b9050919050565b600081519050919050565b6000601f19601f8301169050919050565b6000610af382610acc565b610afd8185610854565b9350610b0d8185602086016109e5565b610b1681610ad7565b840191505092915050565b60006020820190508181036000830152610b3b8184610ae8565b90509291505056fe416464726573733a206c6f772d6c6576656c2063616c6c20776974682076616c7565206661696c6564a2646970667358221220c93ca87a9883fd28505d30264f44882f1b804074283717075df6fb3bc95199ba64736f6c63430008090033",
  "linkReferences": {},
  "deployedLinkReferences": {}
}