{
  "_format": "hh-sol-artifact-1",
  "contractName": "ERC2771ContextMock",
  "sourceName": "contracts/openzeppelin/mocks/ERC2771ContextMock.sol",
  "abi": [
    {
      "inputs": [
        {
          "internalType": "address",
          "name": "trustedForwarder",
          "type": "address"
        }
      ],
      "stateMutability": "nonpayable",
      "type": "constructor"
    },
    {
      "anonymous": false,
      "inputs": [
        {
          "indexed": false,
          "internalType": "bytes",
          "name": "data",
          "type": "bytes"
        },
        {
          "indexed": false,
          "internalType": "uint256",
          "name": "integerValue",
          "type": "uint256"
        },
        {
          "indexed": false,
          "internalType": "string",
          "name": "stringValue",
          "type": "string"
        }
      ],
      "name": "Data",
      "type": "event"
    },
    {
      "anonymous": false,
      "inputs": [
        {
          "indexed": false,
          "internalType": "address",
          "name": "sender",
          "type": "address"
        }
      ],
      "name": "Sender",
      "type": "event"
    },
    {
      "inputs": [
        {
          "internalType": "address",
          "name": "forwarder",
          "type": "address"
        }
      ],
      "name": "isTrustedForwarder",
      "outputs": [
        {
          "internalType": "bool",
          "name": "",
          "type": "bool"
        }
      ],
      "stateMutability": "view",
      "type": "function"
    },
    {
      "inputs": [
        {
          "internalType": "uint256",
          "name": "integerValue",
          "type": "uint256"
        },
        {
          "internalType": "string",
          "name": "stringValue",
          "type": "string"
        }
      ],
      "name": "msgData",
      "outputs": [],
      "stateMutability": "nonpayable",
      "type": "function"
    },
    {
      "inputs": [],
      "name": "msgSender",
      "outputs": [],
      "stateMutability": "nonpayable",
      "type": "function"
    }
  ],
  "bytecode": "0x60a060405234801561001057600080fd5b50604051610927380380610927833981810160405281019061003291906101b2565b808073ffffffffffffffffffffffffffffffffffffffff1660808173ffffffffffffffffffffffffffffffffffffffff1681525050507fd6558c3ed910d959271054471fd1c326679d9fece99c5091b00ed89627cf2bfc6100976100b260201b60201c565b6040516100a491906101ee565b60405180910390a150610209565b60006100c66100cb60201b61017b1760201c565b905090565b60006100dc3361010d60201b60201c565b156100f057601436033560601c9050610109565b61010261014760201b6101ad1760201c565b905061010a565b5b90565b600060805173ffffffffffffffffffffffffffffffffffffffff168273ffffffffffffffffffffffffffffffffffffffff16149050919050565b600033905090565b600080fd5b600073ffffffffffffffffffffffffffffffffffffffff82169050919050565b600061017f82610154565b9050919050565b61018f81610174565b811461019a57600080fd5b50565b6000815190506101ac81610186565b92915050565b6000602082840312156101c8576101c761014f565b5b60006101d68482850161019d565b91505092915050565b6101e881610174565b82525050565b600060208201905061020360008301846101df565b92915050565b608051610704610223600039600060e701526107046000f3fe608060405234801561001057600080fd5b50600436106100415760003560e01c8063376bf26214610046578063572b6c0514610062578063d737d0c714610092575b600080fd5b610060600480360381019061005b91906103c3565b61009c565b005b61007c6004803603810190610077919061047d565b6100e3565b60405161008991906104c5565b60405180910390f35b61009a61013b565b005b7faf235354a0a47c91ee171961326335cb2d1a8e55b8a89859b0e61eb049e50ea06100c56101b5565b84846040516100d794939291906105b5565b60405180910390a15050565b60007f000000000000000000000000000000000000000000000000000000000000000073ffffffffffffffffffffffffffffffffffffffff168273ffffffffffffffffffffffffffffffffffffffff16149050919050565b7fd6558c3ed910d959271054471fd1c326679d9fece99c5091b00ed89627cf2bfc6101646101c8565b604051610171919061060b565b60405180910390a1565b6000610186336100e3565b1561019a57601436033560601c90506101a9565b6101a26101ad565b90506101aa565b5b90565b600033905090565b3660006101c06101d7565b915091509091565b60006101d261017b565b905090565b3660006101e3336100e3565b1561021557600036600090601460003690506101ff9190610655565b9261020c93929190610693565b91509150610222565b61021d610226565b915091505b9091565b3660008036915091509091565b6000604051905090565b600080fd5b600080fd5b6000819050919050565b61025a81610247565b811461026557600080fd5b50565b60008135905061027781610251565b92915050565b600080fd5b600080fd5b6000601f19601f8301169050919050565b7f4e487b7100000000000000000000000000000000000000000000000000000000600052604160045260246000fd5b6102d082610287565b810181811067ffffffffffffffff821117156102ef576102ee610298565b5b80604052505050565b6000610302610233565b905061030e82826102c7565b919050565b600067ffffffffffffffff82111561032e5761032d610298565b5b61033782610287565b9050602081019050919050565b82818337600083830152505050565b600061036661036184610313565b6102f8565b90508281526020810184848401111561038257610381610282565b5b61038d848285610344565b509392505050565b600082601f8301126103aa576103a961027d565b5b81356103ba848260208601610353565b91505092915050565b600080604083850312156103da576103d961023d565b5b60006103e885828601610268565b925050602083013567ffffffffffffffff81111561040957610408610242565b5b61041585828601610395565b9150509250929050565b600073ffffffffffffffffffffffffffffffffffffffff82169050919050565b600061044a8261041f565b9050919050565b61045a8161043f565b811461046557600080fd5b50565b60008135905061047781610451565b92915050565b6000602082840312156104935761049261023d565b5b60006104a184828501610468565b91505092915050565b60008115159050919050565b6104bf816104aa565b82525050565b60006020820190506104da60008301846104b6565b92915050565b600082825260208201905092915050565b60006104fd83856104e0565b935061050a838584610344565b61051383610287565b840190509392505050565b61052781610247565b82525050565b600081519050919050565b600082825260208201905092915050565b60005b8381101561056757808201518184015260208101905061054c565b83811115610576576000848401525b50505050565b60006105878261052d565b6105918185610538565b93506105a1818560208601610549565b6105aa81610287565b840191505092915050565b600060608201905081810360008301526105d08186886104f1565b90506105df602083018561051e565b81810360408301526105f1818461057c565b905095945050505050565b6106058161043f565b82525050565b600060208201905061062060008301846105fc565b92915050565b7f4e487b7100000000000000000000000000000000000000000000000000000000600052601160045260246000fd5b600061066082610247565b915061066b83610247565b92508282101561067e5761067d610626565b5b828203905092915050565b600080fd5b600080fd5b600080858511156106a7576106a6610689565b5b838611156106b8576106b761068e565b5b600185028301915084860390509450949250505056fea26469706673582212200661ae3906cf835cb7526fba12f2daff698067b7f5df5243b0f319469a32766b64736f6c63430008090033",
  "linkReferences": {},
  "deployedLinkReferences": {}
}