{
  "_format": "hh-sol-artifact-1",
  "contractName": "MyGovernor1",
  "sourceName": "contracts/openzeppelin/mocks/wizard/MyGovernor1.sol",
  "abi": [
    {
      "inputs": [
        {
          "internalType": "contract IVotes",
          "name": "_token",
          "type": "address"
        },
        {
          "internalType": "contract TimelockController",
          "name": "_timelock",
          "type": "address"
        }
      ],
      "stateMutability": "nonpayable",
      "type": "constructor"
    },
    {
      "inputs": [],
      "name": "Empty",
      "type": "error"
    },
    {
      "anonymous": false,
      "inputs": [
        {
          "indexed": false,
          "internalType": "uint256",
          "name": "proposalId",
          "type": "uint256"
        }
      ],
      "name": "ProposalCanceled",
      "type": "event"
    },
    {
      "anonymous": false,
      "inputs": [
        {
          "indexed": false,
          "internalType": "uint256",
          "name": "proposalId",
          "type": "uint256"
        },
        {
          "indexed": false,
          "internalType": "address",
          "name": "proposer",
          "type": "address"
        },
        {
          "indexed": false,
          "internalType": "address[]",
          "name": "targets",
          "type": "address[]"
        },
        {
          "indexed": false,
          "internalType": "uint256[]",
          "name": "values",
          "type": "uint256[]"
        },
        {
          "indexed": false,
          "internalType": "string[]",
          "name": "signatures",
          "type": "string[]"
        },
        {
          "indexed": false,
          "internalType": "bytes[]",
          "name": "calldatas",
          "type": "bytes[]"
        },
        {
          "indexed": false,
          "internalType": "uint256",
          "name": "startBlock",
          "type": "uint256"
        },
        {
          "indexed": false,
          "internalType": "uint256",
          "name": "endBlock",
          "type": "uint256"
        },
        {
          "indexed": false,
          "internalType": "string",
          "name": "description",
          "type": "string"
        }
      ],
      "name": "ProposalCreated",
      "type": "event"
    },
    {
      "anonymous": false,
      "inputs": [
        {
          "indexed": false,
          "internalType": "uint256",
          "name": "proposalId",
          "type": "uint256"
        }
      ],
      "name": "ProposalExecuted",
      "type": "event"
    },
    {
      "anonymous": false,
      "inputs": [
        {
          "indexed": false,
          "internalType": "uint256",
          "name": "proposalId",
          "type": "uint256"
        },
        {
          "indexed": false,
          "internalType": "uint256",
          "name": "eta",
          "type": "uint256"
        }
      ],
      "name": "ProposalQueued",
      "type": "event"
    },
    {
      "anonymous": false,
      "inputs": [
        {
          "indexed": false,
          "internalType": "uint256",
          "name": "oldQuorumNumerator",
          "type": "uint256"
        },
        {
          "indexed": false,
          "internalType": "uint256",
          "name": "newQuorumNumerator",
          "type": "uint256"
        }
      ],
      "name": "QuorumNumeratorUpdated",
      "type": "event"
    },
    {
      "anonymous": false,
      "inputs": [
        {
          "indexed": false,
          "internalType": "address",
          "name": "oldTimelock",
          "type": "address"
        },
        {
          "indexed": false,
          "internalType": "address",
          "name": "newTimelock",
          "type": "address"
        }
      ],
      "name": "TimelockChange",
      "type": "event"
    },
    {
      "anonymous": false,
      "inputs": [
        {
          "indexed": true,
          "internalType": "address",
          "name": "voter",
          "type": "address"
        },
        {
          "indexed": false,
          "internalType": "uint256",
          "name": "proposalId",
          "type": "uint256"
        },
        {
          "indexed": false,
          "internalType": "uint8",
          "name": "support",
          "type": "uint8"
        },
        {
          "indexed": false,
          "internalType": "uint256",
          "name": "weight",
          "type": "uint256"
        },
        {
          "indexed": false,
          "internalType": "string",
          "name": "reason",
          "type": "string"
        }
      ],
      "name": "VoteCast",
      "type": "event"
    },
    {
      "anonymous": false,
      "inputs": [
        {
          "indexed": true,
          "internalType": "address",
          "name": "voter",
          "type": "address"
        },
        {
          "indexed": false,
          "internalType": "uint256",
          "name": "proposalId",
          "type": "uint256"
        },
        {
          "indexed": false,
          "internalType": "uint8",
          "name": "support",
          "type": "uint8"
        },
        {
          "indexed": false,
          "internalType": "uint256",
          "name": "weight",
          "type": "uint256"
        },
        {
          "indexed": false,
          "internalType": "string",
          "name": "reason",
          "type": "string"
        },
        {
          "indexed": false,
          "internalType": "bytes",
          "name": "params",
          "type": "bytes"
        }
      ],
      "name": "VoteCastWithParams",
      "type": "event"
    },
    {
      "inputs": [],
      "name": "BALLOT_TYPEHASH",
      "outputs": [
        {
          "internalType": "bytes32",
          "name": "",
          "type": "bytes32"
        }
      ],
      "stateMutability": "view",
      "type": "function"
    },
    {
      "inputs": [],
      "name": "COUNTING_MODE",
      "outputs": [
        {
          "internalType": "string",
          "name": "",
          "type": "string"
        }
      ],
      "stateMutability": "pure",
      "type": "function"
    },
    {
      "inputs": [],
      "name": "EXTENDED_BALLOT_TYPEHASH",
      "outputs": [
        {
          "internalType": "bytes32",
          "name": "",
          "type": "bytes32"
        }
      ],
      "stateMutability": "view",
      "type": "function"
    },
    {
      "inputs": [
        {
          "internalType": "uint256",
          "name": "proposalId",
          "type": "uint256"
        },
        {
          "internalType": "uint8",
          "name": "support",
          "type": "uint8"
        }
      ],
      "name": "castVote",
      "outputs": [
        {
          "internalType": "uint256",
          "name": "",
          "type": "uint256"
        }
      ],
      "stateMutability": "nonpayable",
      "type": "function"
    },
    {
      "inputs": [
        {
          "internalType": "uint256",
          "name": "proposalId",
          "type": "uint256"
        },
        {
          "internalType": "uint8",
          "name": "support",
          "type": "uint8"
        },
        {
          "internalType": "uint8",
          "name": "v",
          "type": "uint8"
        },
        {
          "internalType": "bytes32",
          "name": "r",
          "type": "bytes32"
        },
        {
          "internalType": "bytes32",
          "name": "s",
          "type": "bytes32"
        }
      ],
      "name": "castVoteBySig",
      "outputs": [
        {
          "internalType": "uint256",
          "name": "",
          "type": "uint256"
        }
      ],
      "stateMutability": "nonpayable",
      "type": "function"
    },
    {
      "inputs": [
        {
          "internalType": "uint256",
          "name": "proposalId",
          "type": "uint256"
        },
        {
          "internalType": "uint8",
          "name": "support",
          "type": "uint8"
        },
        {
          "internalType": "string",
          "name": "reason",
          "type": "string"
        }
      ],
      "name": "castVoteWithReason",
      "outputs": [
        {
          "internalType": "uint256",
          "name": "",
          "type": "uint256"
        }
      ],
      "stateMutability": "nonpayable",
      "type": "function"
    },
    {
      "inputs": [
        {
          "internalType": "uint256",
          "name": "proposalId",
          "type": "uint256"
        },
        {
          "internalType": "uint8",
          "name": "support",
          "type": "uint8"
        },
        {
          "internalType": "string",
          "name": "reason",
          "type": "string"
        },
        {
          "internalType": "bytes",
          "name": "params",
          "type": "bytes"
        }
      ],
      "name": "castVoteWithReasonAndParams",
      "outputs": [
        {
          "internalType": "uint256",
          "name": "",
          "type": "uint256"
        }
      ],
      "stateMutability": "nonpayable",
      "type": "function"
    },
    {
      "inputs": [
        {
          "internalType": "uint256",
          "name": "proposalId",
          "type": "uint256"
        },
        {
          "internalType": "uint8",
          "name": "support",
          "type": "uint8"
        },
        {
          "internalType": "string",
          "name": "reason",
          "type": "string"
        },
        {
          "internalType": "bytes",
          "name": "params",
          "type": "bytes"
        },
        {
          "internalType": "uint8",
          "name": "v",
          "type": "uint8"
        },
        {
          "internalType": "bytes32",
          "name": "r",
          "type": "bytes32"
        },
        {
          "internalType": "bytes32",
          "name": "s",
          "type": "bytes32"
        }
      ],
      "name": "castVoteWithReasonAndParamsBySig",
      "outputs": [
        {
          "internalType": "uint256",
          "name": "",
          "type": "uint256"
        }
      ],
      "stateMutability": "nonpayable",
      "type": "function"
    },
    {
      "inputs": [
        {
          "internalType": "address[]",
          "name": "targets",
          "type": "address[]"
        },
        {
          "internalType": "uint256[]",
          "name": "values",
          "type": "uint256[]"
        },
        {
          "internalType": "bytes[]",
          "name": "calldatas",
          "type": "bytes[]"
        },
        {
          "internalType": "bytes32",
          "name": "descriptionHash",
          "type": "bytes32"
        }
      ],
      "name": "execute",
      "outputs": [
        {
          "internalType": "uint256",
          "name": "",
          "type": "uint256"
        }
      ],
      "stateMutability": "payable",
      "type": "function"
    },
    {
      "inputs": [
        {
          "internalType": "address",
          "name": "account",
          "type": "address"
        },
        {
          "internalType": "uint256",
          "name": "blockNumber",
          "type": "uint256"
        }
      ],
      "name": "getVotes",
      "outputs": [
        {
          "internalType": "uint256",
          "name": "",
          "type": "uint256"
        }
      ],
      "stateMutability": "view",
      "type": "function"
    },
    {
      "inputs": [
        {
          "internalType": "address",
          "name": "account",
          "type": "address"
        },
        {
          "internalType": "uint256",
          "name": "blockNumber",
          "type": "uint256"
        },
        {
          "internalType": "bytes",
          "name": "params",
          "type": "bytes"
        }
      ],
      "name": "getVotesWithParams",
      "outputs": [
        {
          "internalType": "uint256",
          "name": "",
          "type": "uint256"
        }
      ],
      "stateMutability": "view",
      "type": "function"
    },
    {
      "inputs": [
        {
          "internalType": "uint256",
          "name": "proposalId",
          "type": "uint256"
        },
        {
          "internalType": "address",
          "name": "account",
          "type": "address"
        }
      ],
      "name": "hasVoted",
      "outputs": [
        {
          "internalType": "bool",
          "name": "",
          "type": "bool"
        }
      ],
      "stateMutability": "view",
      "type": "function"
    },
    {
      "inputs": [
        {
          "internalType": "address[]",
          "name": "targets",
          "type": "address[]"
        },
        {
          "internalType": "uint256[]",
          "name": "values",
          "type": "uint256[]"
        },
        {
          "internalType": "bytes[]",
          "name": "calldatas",
          "type": "bytes[]"
        },
        {
          "internalType": "bytes32",
          "name": "descriptionHash",
          "type": "bytes32"
        }
      ],
      "name": "hashProposal",
      "outputs": [
        {
          "internalType": "uint256",
          "name": "",
          "type": "uint256"
        }
      ],
      "stateMutability": "pure",
      "type": "function"
    },
    {
      "inputs": [],
      "name": "name",
      "outputs": [
        {
          "internalType": "string",
          "name": "",
          "type": "string"
        }
      ],
      "stateMutability": "view",
      "type": "function"
    },
    {
      "inputs": [
        {
          "internalType": "address",
          "name": "",
          "type": "address"
        },
        {
          "internalType": "address",
          "name": "",
          "type": "address"
        },
        {
          "internalType": "uint256[]",
          "name": "",
          "type": "uint256[]"
        },
        {
          "internalType": "uint256[]",
          "name": "",
          "type": "uint256[]"
        },
        {
          "internalType": "bytes",
          "name": "",
          "type": "bytes"
        }
      ],
      "name": "onERC1155BatchReceived",
      "outputs": [
        {
          "internalType": "bytes4",
          "name": "",
          "type": "bytes4"
        }
      ],
      "stateMutability": "nonpayable",
      "type": "function"
    },
    {
      "inputs": [
        {
          "internalType": "address",
          "name": "",
          "type": "address"
        },
        {
          "internalType": "address",
          "name": "",
          "type": "address"
        },
        {
          "internalType": "uint256",
          "name": "",
          "type": "uint256"
        },
        {
          "internalType": "uint256",
          "name": "",
          "type": "uint256"
        },
        {
          "internalType": "bytes",
          "name": "",
          "type": "bytes"
        }
      ],
      "name": "onERC1155Received",
      "outputs": [
        {
          "internalType": "bytes4",
          "name": "",
          "type": "bytes4"
        }
      ],
      "stateMutability": "nonpayable",
      "type": "function"
    },
    {
      "inputs": [
        {
          "internalType": "address",
          "name": "",
          "type": "address"
        },
        {
          "internalType": "address",
          "name": "",
          "type": "address"
        },
        {
          "internalType": "uint256",
          "name": "",
          "type": "uint256"
        },
        {
          "internalType": "bytes",
          "name": "",
          "type": "bytes"
        }
      ],
      "name": "onERC721Received",
      "outputs": [
        {
          "internalType": "bytes4",
          "name": "",
          "type": "bytes4"
        }
      ],
      "stateMutability": "nonpayable",
      "type": "function"
    },
    {
      "inputs": [
        {
          "internalType": "uint256",
          "name": "proposalId",
          "type": "uint256"
        }
      ],
      "name": "proposalDeadline",
      "outputs": [
        {
          "internalType": "uint256",
          "name": "",
          "type": "uint256"
        }
      ],
      "stateMutability": "view",
      "type": "function"
    },
    {
      "inputs": [
        {
          "internalType": "uint256",
          "name": "proposalId",
          "type": "uint256"
        }
      ],
      "name": "proposalEta",
      "outputs": [
        {
          "internalType": "uint256",
          "name": "",
          "type": "uint256"
        }
      ],
      "stateMutability": "view",
      "type": "function"
    },
    {
      "inputs": [
        {
          "internalType": "uint256",
          "name": "proposalId",
          "type": "uint256"
        }
      ],
      "name": "proposalSnapshot",
      "outputs": [
        {
          "internalType": "uint256",
          "name": "",
          "type": "uint256"
        }
      ],
      "stateMutability": "view",
      "type": "function"
    },
    {
      "inputs": [],
      "name": "proposalThreshold",
      "outputs": [
        {
          "internalType": "uint256",
          "name": "",
          "type": "uint256"
        }
      ],
      "stateMutability": "view",
      "type": "function"
    },
    {
      "inputs": [
        {
          "internalType": "uint256",
          "name": "proposalId",
          "type": "uint256"
        }
      ],
      "name": "proposalVotes",
      "outputs": [
        {
          "internalType": "uint256",
          "name": "againstVotes",
          "type": "uint256"
        },
        {
          "internalType": "uint256",
          "name": "forVotes",
          "type": "uint256"
        },
        {
          "internalType": "uint256",
          "name": "abstainVotes",
          "type": "uint256"
        }
      ],
      "stateMutability": "view",
      "type": "function"
    },
    {
      "inputs": [
        {
          "internalType": "address[]",
          "name": "targets",
          "type": "address[]"
        },
        {
          "internalType": "uint256[]",
          "name": "values",
          "type": "uint256[]"
        },
        {
          "internalType": "bytes[]",
          "name": "calldatas",
          "type": "bytes[]"
        },
        {
          "internalType": "string",
          "name": "description",
          "type": "string"
        }
      ],
      "name": "propose",
      "outputs": [
        {
          "internalType": "uint256",
          "name": "",
          "type": "uint256"
        }
      ],
      "stateMutability": "nonpayable",
      "type": "function"
    },
    {
      "inputs": [
        {
          "internalType": "address[]",
          "name": "targets",
          "type": "address[]"
        },
        {
          "internalType": "uint256[]",
          "name": "values",
          "type": "uint256[]"
        },
        {
          "internalType": "bytes[]",
          "name": "calldatas",
          "type": "bytes[]"
        },
        {
          "internalType": "bytes32",
          "name": "descriptionHash",
          "type": "bytes32"
        }
      ],
      "name": "queue",
      "outputs": [
        {
          "internalType": "uint256",
          "name": "",
          "type": "uint256"
        }
      ],
      "stateMutability": "nonpayable",
      "type": "function"
    },
    {
      "inputs": [
        {
          "internalType": "uint256",
          "name": "blockNumber",
          "type": "uint256"
        }
      ],
      "name": "quorum",
      "outputs": [
        {
          "internalType": "uint256",
          "name": "",
          "type": "uint256"
        }
      ],
      "stateMutability": "view",
      "type": "function"
    },
    {
      "inputs": [],
      "name": "quorumDenominator",
      "outputs": [
        {
          "internalType": "uint256",
          "name": "",
          "type": "uint256"
        }
      ],
      "stateMutability": "view",
      "type": "function"
    },
    {
      "inputs": [
        {
          "internalType": "uint256",
          "name": "blockNumber",
          "type": "uint256"
        }
      ],
      "name": "quorumNumerator",
      "outputs": [
        {
          "internalType": "uint256",
          "name": "",
          "type": "uint256"
        }
      ],
      "stateMutability": "view",
      "type": "function"
    },
    {
      "inputs": [],
      "name": "quorumNumerator",
      "outputs": [
        {
          "internalType": "uint256",
          "name": "",
          "type": "uint256"
        }
      ],
      "stateMutability": "view",
      "type": "function"
    },
    {
      "inputs": [
        {
          "internalType": "address",
          "name": "target",
          "type": "address"
        },
        {
          "internalType": "uint256",
          "name": "value",
          "type": "uint256"
        },
        {
          "internalType": "bytes",
          "name": "data",
          "type": "bytes"
        }
      ],
      "name": "relay",
      "outputs": [],
      "stateMutability": "payable",
      "type": "function"
    },
    {
      "inputs": [
        {
          "internalType": "uint256",
          "name": "proposalId",
          "type": "uint256"
        }
      ],
      "name": "state",
      "outputs": [
        {
          "internalType": "enum IGovernor.ProposalState",
          "name": "",
          "type": "uint8"
        }
      ],
      "stateMutability": "view",
      "type": "function"
    },
    {
      "inputs": [
        {
          "internalType": "bytes4",
          "name": "interfaceId",
          "type": "bytes4"
        }
      ],
      "name": "supportsInterface",
      "outputs": [
        {
          "internalType": "bool",
          "name": "",
          "type": "bool"
        }
      ],
      "stateMutability": "view",
      "type": "function"
    },
    {
      "inputs": [],
      "name": "timelock",
      "outputs": [
        {
          "internalType": "address",
          "name": "",
          "type": "address"
        }
      ],
      "stateMutability": "view",
      "type": "function"
    },
    {
      "inputs": [],
      "name": "token",
      "outputs": [
        {
          "internalType": "contract IVotes",
          "name": "",
          "type": "address"
        }
      ],
      "stateMutability": "view",
      "type": "function"
    },
    {
      "inputs": [
        {
          "internalType": "uint256",
          "name": "newQuorumNumerator",
          "type": "uint256"
        }
      ],
      "name": "updateQuorumNumerator",
      "outputs": [],
      "stateMutability": "nonpayable",
      "type": "function"
    },
    {
      "inputs": [
        {
          "internalType": "contract TimelockController",
          "name": "newTimelock",
          "type": "address"
        }
      ],
      "name": "updateTimelock",
      "outputs": [],
      "stateMutability": "nonpayable",
      "type": "function"
    },
    {
      "inputs": [],
      "name": "version",
      "outputs": [
        {
          "internalType": "string",
          "name": "",
          "type": "string"
        }
      ],
      "stateMutability": "view",
      "type": "function"
    },
    {
      "inputs": [],
      "name": "votingDelay",
      "outputs": [
        {
          "internalType": "uint256",
          "name": "",
          "type": "uint256"
        }
      ],
      "stateMutability": "pure",
      "type": "function"
    },
    {
      "inputs": [],
      "name": "votingPeriod",
      "outputs": [
        {
          "internalType": "uint256",
          "name": "",
          "type": "uint256"
        }
      ],
      "stateMutability": "pure",
      "type": "function"
    },
    {
      "stateMutability": "payable",
      "type": "receive"
    }
  ],
  "bytecode": "0x6101606040523480156200001257600080fd5b506040516200761038038062007610833981810160405281019062000038919062000c11565b600482826040518060400160405280600a81526020017f4d79476f7665726e6f72000000000000000000000000000000000000000000008152508062000083620001b160201b60201c565b60008280519060200120905060008280519060200120905060007f8b73c3c69bb8fe3d512ecc4cf759cc79239f7b179b0ffacaa9a75d522b39400f90508260e081815250508161010081815250504660a08181525050620000ec818484620001ee60201b60201c565b608081815250503073ffffffffffffffffffffffffffffffffffffffff1660c08173ffffffffffffffffffffffffffffffffffffffff1681525050806101208181525050505050505080600090805190602001906200014d92919062000a8a565b505062000160816200022a60201b60201c565b508073ffffffffffffffffffffffffffffffffffffffff166101408173ffffffffffffffffffffffffffffffffffffffff168152505050620001a881620002cb60201b60201c565b50505062001096565b60606040518060400160405280600181526020017f3100000000000000000000000000000000000000000000000000000000000000815250905090565b600083838346306040516020016200020b95949392919062000c9f565b6040516020818303038152906040528051906020012090509392505050565b7f08f74ea46ef7894f65eabfb5e6e695de773a000b47c529ab559178069b226401600460009054906101000a900473ffffffffffffffffffffffffffffffffffffffff16826040516200027f92919062000cfc565b60405180910390a180600460006101000a81548173ffffffffffffffffffffffffffffffffffffffff021916908373ffffffffffffffffffffffffffffffffffffffff16021790555050565b620002db620004aa60201b60201c565b81111562000320576040517f08c379a0000000000000000000000000000000000000000000000000000000008152600401620003179062000dd6565b60405180910390fd5b600062000332620004b360201b60201c565b9050600081141580156200034e57506000600760000180549050145b156200044e5760076000016040518060400160405280600063ffffffff16815260200162000387846200050960201b62001b2e1760201c565b7bffffffffffffffffffffffffffffffffffffffffffffffffffffffff168152509080600181540180825580915050600190039060005260206000200160009091909190915060008201518160000160006101000a81548163ffffffff021916908363ffffffff16021790555060208201518160000160046101000a8154817bffffffffffffffffffffffffffffffffffffffffffffffffffffffff02191690837bffffffffffffffffffffffffffffffffffffffffffffffffffffffff16021790555050505b620004698260076200057760201b62001b991790919060201c565b50507f0553476bf02ef2726e8ce5ced78d63e26e602e4a2257b1f559418e24b463399781836040516200049e92919062000df8565b60405180910390a15050565b60006064905090565b600080600760000180549050146200050057620004dc60076200060760201b62001c071760201c565b7bffffffffffffffffffffffffffffffffffffffffffffffffffffffff1662000504565b6006545b905090565b60007bffffffffffffffffffffffffffffffffffffffffffffffffffffffff80168211156200056f576040517f08c379a0000000000000000000000000000000000000000000000000000000008152600401620005669062000e9b565b60405180910390fd5b819050919050565b600080620005ba8460000162000598436200067d60201b62001c711760201c565b620005ae866200050960201b62001b2e1760201c565b620006d360201b60201c565b817bffffffffffffffffffffffffffffffffffffffffffffffffffffffff169150807bffffffffffffffffffffffffffffffffffffffffffffffffffffffff169050915091509250929050565b60008082600001805490509050600081146200067257620006408360000160018362000634919062000eec565b62000a7560201b60201c565b60000160049054906101000a90047bffffffffffffffffffffffffffffffffffffffffffffffffffffffff1662000675565b60005b915050919050565b600063ffffffff8016821115620006cb576040517f08c379a0000000000000000000000000000000000000000000000000000000008152600401620006c29062000f9d565b60405180910390fd5b819050919050565b6000806000858054905090506000811115620009855760006200070b87600184620006ff919062000eec565b62000a7560201b60201c565b6040518060400160405290816000820160009054906101000a900463ffffffff1663ffffffff1663ffffffff1681526020016000820160049054906101000a90047bffffffffffffffffffffffffffffffffffffffffffffffffffffffff167bffffffffffffffffffffffffffffffffffffffffffffffffffffffff167bffffffffffffffffffffffffffffffffffffffffffffffffffffffff168152505090508563ffffffff16816000015163ffffffff16111562000802576040517f08c379a0000000000000000000000000000000000000000000000000000000008152600401620007f9906200100f565b60405180910390fd5b8563ffffffff16816000015163ffffffff1614156200089357846200083c8860018562000830919062000eec565b62000a7560201b60201c565b60000160046101000a8154817bffffffffffffffffffffffffffffffffffffffffffffffffffffffff02191690837bffffffffffffffffffffffffffffffffffffffffffffffffffffffff16021790555062000973565b8660405180604001604052808863ffffffff168152602001877bffffffffffffffffffffffffffffffffffffffffffffffffffffffff168152509080600181540180825580915050600190039060005260206000200160009091909190915060008201518160000160006101000a81548163ffffffff021916908363ffffffff16021790555060208201518160000160046101000a8154817bffffffffffffffffffffffffffffffffffffffffffffffffffffffff02191690837bffffffffffffffffffffffffffffffffffffffffffffffffffffffff16021790555050505b80602001518593509350505062000a6d565b8560405180604001604052808763ffffffff168152602001867bffffffffffffffffffffffffffffffffffffffffffffffffffffffff168152509080600181540180825580915050600190039060005260206000200160009091909190915060008201518160000160006101000a81548163ffffffff021916908363ffffffff16021790555060208201518160000160046101000a8154817bffffffffffffffffffffffffffffffffffffffffffffffffffffffff02191690837bffffffffffffffffffffffffffffffffffffffffffffffffffffffff160217905550505060008492509250505b935093915050565b60008260005281602060002001905092915050565b82805462000a989062001060565b90600052602060002090601f01602090048101928262000abc576000855562000b08565b82601f1062000ad757805160ff191683800117855562000b08565b8280016001018555821562000b08579182015b8281111562000b0757825182559160200191906001019062000aea565b5b50905062000b17919062000b1b565b5090565b5b8082111562000b3657600081600090555060010162000b1c565b5090565b600080fd5b600073ffffffffffffffffffffffffffffffffffffffff82169050919050565b600062000b6c8262000b3f565b9050919050565b600062000b808262000b5f565b9050919050565b62000b928162000b73565b811462000b9e57600080fd5b50565b60008151905062000bb28162000b87565b92915050565b600062000bc58262000b3f565b9050919050565b600062000bd98262000bb8565b9050919050565b62000beb8162000bcc565b811462000bf757600080fd5b50565b60008151905062000c0b8162000be0565b92915050565b6000806040838503121562000c2b5762000c2a62000b3a565b5b600062000c3b8582860162000ba1565b925050602062000c4e8582860162000bfa565b9150509250929050565b6000819050919050565b62000c6d8162000c58565b82525050565b6000819050919050565b62000c888162000c73565b82525050565b62000c998162000b5f565b82525050565b600060a08201905062000cb6600083018862000c62565b62000cc5602083018762000c62565b62000cd4604083018662000c62565b62000ce3606083018562000c7d565b62000cf2608083018462000c8e565b9695505050505050565b600060408201905062000d13600083018562000c8e565b62000d22602083018462000c8e565b9392505050565b600082825260208201905092915050565b7f476f7665726e6f72566f74657351756f72756d4672616374696f6e3a2071756f60008201527f72756d4e756d657261746f72206f7665722071756f72756d44656e6f6d696e6160208201527f746f720000000000000000000000000000000000000000000000000000000000604082015250565b600062000dbe60438362000d29565b915062000dcb8262000d3a565b606082019050919050565b6000602082019050818103600083015262000df18162000daf565b9050919050565b600060408201905062000e0f600083018562000c7d565b62000e1e602083018462000c7d565b9392505050565b7f53616665436173743a2076616c756520646f65736e27742066697420696e203260008201527f3234206269747300000000000000000000000000000000000000000000000000602082015250565b600062000e8360278362000d29565b915062000e908262000e25565b604082019050919050565b6000602082019050818103600083015262000eb68162000e74565b9050919050565b7f4e487b7100000000000000000000000000000000000000000000000000000000600052601160045260246000fd5b600062000ef98262000c73565b915062000f068362000c73565b92508282101562000f1c5762000f1b62000ebd565b5b828203905092915050565b7f53616665436173743a2076616c756520646f65736e27742066697420696e203360008201527f3220626974730000000000000000000000000000000000000000000000000000602082015250565b600062000f8560268362000d29565b915062000f928262000f27565b604082019050919050565b6000602082019050818103600083015262000fb88162000f76565b9050919050565b7f436865636b706f696e743a20696e76616c6964206b6579000000000000000000600082015250565b600062000ff760178362000d29565b9150620010048262000fbf565b602082019050919050565b600060208201905081810360008301526200102a8162000fe8565b9050919050565b7f4e487b7100000000000000000000000000000000000000000000000000000000600052602260045260246000fd5b600060028204905060018216806200107957607f821691505b6020821081141562001090576200108f62001031565b5b50919050565b60805160a05160c05160e051610100516101205161014051616511620010ff60003960008181611b0c0152818161297c0152612b1b0152600061318c015260006131ce015260006131ad015260006130e2015260006131380152600061316101526165116000f3fe6080604052600436106102295760003560e01c80637b3c71d311610123578063c01f9e37116100ab578063deaaa7cc1161006f578063deaaa7cc14610949578063eb9019d414610974578063f23a6e61146109b1578063f8ce560a146109ee578063fc0c546a14610a2b5761026f565b8063c01f9e371461085d578063c28bc2fa1461089a578063c59057e4146108b6578063d33219b4146108f3578063dd4e2ba51461091e5761026f565b8063a7713a70116100f2578063a7713a7014610764578063a890c9101461078f578063ab58fb8e146107b8578063b58131b0146107f5578063bc197c81146108205761026f565b80637b3c71d3146106825780637d5e81e2146106bf57806397c3d334146106fc5780639a802a6d146107275761026f565b80632fe3e261116101b1578063544ffc9c11610175578063544ffc9c1461056157806354fd4d50146105a057806356781388146105cb5780635f398a141461060857806360c4247f146106455761026f565b80632fe3e261146104545780633932abb11461047f5780633bccf4fd146104aa5780633e4f49e6146104e757806343859632146105245761026f565b806306fdde03116101f857806306fdde0314610342578063150b7a021461036d578063160cbed7146103aa5780632656227d146103e75780632d63f693146104175761026f565b806301ffc9a71461027457806302a251a3146102b157806303420181146102dc57806306f3f9e6146103195761026f565b3661026f573073ffffffffffffffffffffffffffffffffffffffff1661024d610a56565b73ffffffffffffffffffffffffffffffffffffffff161461026d57600080fd5b005b600080fd5b34801561028057600080fd5b5061029b60048036038101906102969190613c73565b610a65565b6040516102a89190613cbb565b60405180910390f35b3480156102bd57600080fd5b506102c6610a77565b6040516102d39190613cef565b60405180910390f35b3480156102e857600080fd5b5061030360048036038101906102fe9190613f4b565b610a81565b6040516103109190613cef565b60405180910390f35b34801561032557600080fd5b50610340600480360381019061033b9190614029565b610b66565b005b34801561034e57600080fd5b50610357610c62565b60405161036491906140de565b60405180910390f35b34801561037957600080fd5b50610394600480360381019061038f919061415e565b610cf4565b6040516103a191906141f0565b60405180910390f35b3480156103b657600080fd5b506103d160048036038101906103cc9190614472565b610d08565b6040516103de9190613cef565b60405180910390f35b61040160048036038101906103fc9190614472565b610fe0565b60405161040e9190613cef565b60405180910390f35b34801561042357600080fd5b5061043e60048036038101906104399190614029565b61112d565b60405161044b9190613cef565b60405180910390f35b34801561046057600080fd5b5061046961119b565b604051610476919061453c565b60405180910390f35b34801561048b57600080fd5b506104946111bf565b6040516104a19190613cef565b60405180910390f35b3480156104b657600080fd5b506104d160048036038101906104cc9190614557565b6111c8565b6040516104de9190613cef565b60405180910390f35b3480156104f357600080fd5b5061050e60048036038101906105099190614029565b611252565b60405161051b9190614649565b60405180910390f35b34801561053057600080fd5b5061054b60048036038101906105469190614664565b611264565b6040516105589190613cbb565b60405180910390f35b34801561056d57600080fd5b5061058860048036038101906105839190614029565b6112cf565b604051610597939291906146a4565b60405180910390f35b3480156105ac57600080fd5b506105b5611307565b6040516105c291906140de565b60405180910390f35b3480156105d757600080fd5b506105f260048036038101906105ed91906146db565b611344565b6040516105ff9190613cef565b60405180910390f35b34801561061457600080fd5b5061062f600480360381019061062a919061471b565b611375565b60405161063c9190613cef565b60405180910390f35b34801561065157600080fd5b5061066c60048036038101906106679190614029565b6113df565b6040516106799190613cef565b60405180910390f35b34801561068e57600080fd5b506106a960048036038101906106a491906147bf565b61152c565b6040516106b69190613cef565b60405180910390f35b3480156106cb57600080fd5b506106e660048036038101906106e191906148d4565b611594565b6040516106f39190613cef565b60405180910390f35b34801561070857600080fd5b506107116115ac565b60405161071e9190613cef565b60405180910390f35b34801561073357600080fd5b5061074e600480360381019061074991906149ab565b6115b5565b60405161075b9190613cef565b60405180910390f35b34801561077057600080fd5b506107796115cb565b6040516107869190613cef565b60405180910390f35b34801561079b57600080fd5b506107b660048036038101906107b19190614a6a565b611612565b005b3480156107c457600080fd5b506107df60048036038101906107da9190614029565b61170e565b6040516107ec9190613cef565b60405180910390f35b34801561080157600080fd5b5061080a6117ea565b6040516108179190613cef565b60405180910390f35b34801561082c57600080fd5b5061084760048036038101906108429190614a97565b6117ef565b60405161085491906141f0565b60405180910390f35b34801561086957600080fd5b50610884600480360381019061087f9190614029565b611804565b6040516108919190613cef565b60405180910390f35b6108b460048036038101906108af9190614bbc565b611872565b005b3480156108c257600080fd5b506108dd60048036038101906108d89190614472565b611a00565b6040516108ea9190613cef565b60405180910390f35b3480156108ff57600080fd5b50610908611a3c565b6040516109159190614c3f565b60405180910390f35b34801561092a57600080fd5b50610933611a66565b60405161094091906140de565b60405180910390f35b34801561095557600080fd5b5061095e611aa3565b60405161096b919061453c565b60405180910390f35b34801561098057600080fd5b5061099b60048036038101906109969190614c5a565b611ac7565b6040516109a89190613cef565b60405180910390f35b3480156109bd57600080fd5b506109d860048036038101906109d39190614c9a565b611ae3565b6040516109e591906141f0565b60405180910390f35b3480156109fa57600080fd5b50610a156004803603810190610a109190614029565b611af8565b604051610a229190613cef565b60405180910390f35b348015610a3757600080fd5b50610a40611b0a565b604051610a4d9190614d90565b60405180910390f35b6000610a60611cc4565b905090565b6000610a7082611cee565b9050919050565b600061b2fa905090565b600080610b04610afc7fb3b3f3b703cd84ce352197dcff232b1b5d3cfb2025ce47cf04742d0651f1af888c8c8c8c604051610abd929190614ddb565b60405180910390208b80519060200120604051602001610ae1959493929190614e03565b60405160208183030381529060405280519060200120611d68565b868686611d82565b9050610b578a828b8b8b8080601f016020809104026020016040519081016040528093929190818152602001838380828437600081840152601f19601f820116905080830192505050505050508a611dad565b91505098975050505050505050565b610b6e610a56565b73ffffffffffffffffffffffffffffffffffffffff16610b8c611f6a565b73ffffffffffffffffffffffffffffffffffffffff1614610be2576040517f08c379a0000000000000000000000000000000000000000000000000000000008152600401610bd990614ea2565b60405180910390fd5b3073ffffffffffffffffffffffffffffffffffffffff16610c01610a56565b73ffffffffffffffffffffffffffffffffffffffff1614610c56576000610c26611f72565b604051610c34929190614ddb565b604051809103902090505b80610c4a6002611f7f565b14610c5457610c3f565b505b610c5f8161205b565b50565b606060008054610c7190614ef1565b80601f0160208091040260200160405190810160405280929190818152602001828054610c9d90614ef1565b8015610cea5780601f10610cbf57610100808354040283529160200191610cea565b820191906000526020600020905b815481529060010190602001808311610ccd57829003601f168201915b5050505050905090565b600063150b7a0260e01b9050949350505050565b600080610d1786868686611a00565b905060046007811115610d2d57610d2c6145d2565b5b610d3682611252565b6007811115610d4857610d476145d2565b5b14610d88576040517f08c379a0000000000000000000000000000000000000000000000000000000008152600401610d7f90614f95565b60405180910390fd5b6000600460009054906101000a900473ffffffffffffffffffffffffffffffffffffffff1673ffffffffffffffffffffffffffffffffffffffff1663f27a0c926040518163ffffffff1660e01b815260040160206040518083038186803b158015610df257600080fd5b505afa158015610e06573d6000803e3d6000fd5b505050506040513d601f19601f82011682018060405250810190610e2a9190614fca565b9050600460009054906101000a900473ffffffffffffffffffffffffffffffffffffffff1673ffffffffffffffffffffffffffffffffffffffff1663b1c5f4278888886000896040518663ffffffff1660e01b8152600401610e909594939291906152d2565b60206040518083038186803b158015610ea857600080fd5b505afa158015610ebc573d6000803e3d6000fd5b505050506040513d601f19601f82011682018060405250810190610ee0919061534f565b6005600084815260200190815260200160002081905550600460009054906101000a900473ffffffffffffffffffffffffffffffffffffffff1673ffffffffffffffffffffffffffffffffffffffff16638f2a0bb0888888600089876040518763ffffffff1660e01b8152600401610f5d9695949392919061537c565b600060405180830381600087803b158015610f7757600080fd5b505af1158015610f8b573d6000803e3d6000fd5b505050507f9a2e42fd6722813d69113e7d0079d3d940171428df7373df9c7f7617cfda2892828242610fbd9190615421565b604051610fcb929190615477565b60405180910390a18192505050949350505050565b600080610fef86868686611a00565b90506000610ffc82611252565b905060046007811115611012576110116145d2565b5b816007811115611025576110246145d2565b5b14806110555750600560078111156110405761103f6145d2565b5b816007811115611053576110526145d2565b5b145b611094576040517f08c379a000000000000000000000000000000000000000000000000000000000815260040161108b90614f95565b60405180910390fd5b600180600084815260200190815260200160002060020160006101000a81548160ff0219169083151502179055507f712ae1383f79ac853f8d882153778e0260ef8f03b504e2866e0593e04d2b291f826040516110f19190613cef565b60405180910390a1611106828888888861220f565b61111382888888886122f3565b6111208288888888612307565b8192505050949350505050565b600061118a600160008481526020019081526020016000206000016040518060200160405290816000820160009054906101000a900467ffffffffffffffff1667ffffffffffffffff1667ffffffffffffffff1681525050612362565b67ffffffffffffffff169050919050565b7fb3b3f3b703cd84ce352197dcff232b1b5d3cfb2025ce47cf04742d0651f1af8881565b60006001905090565b6000806112296112217f150214d74d59b7d1e90c73fc22ef3d991dd0a76b046543d4d80ab92d2a50328f8989604051602001611206939291906154a0565b60405160208183030381529060405280519060200120611d68565b868686611d82565b905061124687828860405180602001604052806000815250612370565b91505095945050505050565b600061125d82612390565b9050919050565b60006008600084815260200190815260200160002060030160008373ffffffffffffffffffffffffffffffffffffffff1673ffffffffffffffffffffffffffffffffffffffff16815260200190815260200160002060009054906101000a900460ff16905092915050565b600080600080600860008681526020019081526020016000209050806000015481600101548260020154935093509350509193909250565b60606040518060400160405280600181526020017f3100000000000000000000000000000000000000000000000000000000000000815250905090565b60008061134f611f6a565b905061136c84828560405180602001604052806000815250612370565b91505092915050565b600080611380611f6a565b90506113d387828888888080601f016020809104026020016040519081016040528093929190818152602001838380828437600081840152601f19601f8201169050808301925050505050505087611dad565b91505095945050505050565b6000806007600001805490509050600081141561140157600654915050611527565b6000600760000160018361141591906154d7565b815481106114265761142561550b565b5b906000526020600020016040518060400160405290816000820160009054906101000a900463ffffffff1663ffffffff1663ffffffff1681526020016000820160049054906101000a90047bffffffffffffffffffffffffffffffffffffffffffffffffffffffff167bffffffffffffffffffffffffffffffffffffffffffffffffffffffff167bffffffffffffffffffffffffffffffffffffffffffffffffffffffff1681525050905083816000015163ffffffff161161150e5780602001517bffffffffffffffffffffffffffffffffffffffffffffffffffffffff1692505050611527565b61152284600761258290919063ffffffff16565b925050505b919050565b600080611537611f6a565b905061158986828787878080601f016020809104026020016040519081016040528093929190818152602001838380828437600081840152601f19601f82011690508083019250505050505050612370565b915050949350505050565b60006115a285858585612671565b9050949350505050565b60006064905090565b60006115c2848484612978565b90509392505050565b60008060076000018054905014611609576115e66007611c07565b7bffffffffffffffffffffffffffffffffffffffffffffffffffffffff1661160d565b6006545b905090565b61161a610a56565b73ffffffffffffffffffffffffffffffffffffffff16611638611f6a565b73ffffffffffffffffffffffffffffffffffffffff161461168e576040517f08c379a000000000000000000000000000000000000000000000000000000000815260040161168590614ea2565b60405180910390fd5b3073ffffffffffffffffffffffffffffffffffffffff166116ad610a56565b73ffffffffffffffffffffffffffffffffffffffff16146117025760006116d2611f72565b6040516116e0929190614ddb565b604051809103902090505b806116f66002611f7f565b14611700576116eb565b505b61170b81612a2e565b50565b600080600460009054906101000a900473ffffffffffffffffffffffffffffffffffffffff1673ffffffffffffffffffffffffffffffffffffffff1663d45c443560056000868152602001908152602001600020546040518263ffffffff1660e01b815260040161177f919061453c565b60206040518083038186803b15801561179757600080fd5b505afa1580156117ab573d6000803e3d6000fd5b505050506040513d601f19601f820116820180604052508101906117cf9190614fca565b9050600181146117df57806117e2565b60005b915050919050565b600090565b600063bc197c8160e01b905095945050505050565b6000611861600160008481526020019081526020016000206001016040518060200160405290816000820160009054906101000a900467ffffffffffffffff1667ffffffffffffffff1667ffffffffffffffff1681525050612362565b67ffffffffffffffff169050919050565b61187a610a56565b73ffffffffffffffffffffffffffffffffffffffff16611898611f6a565b73ffffffffffffffffffffffffffffffffffffffff16146118ee576040517f08c379a00000000000000000000000000000000000000000000000000000000081526004016118e590614ea2565b60405180910390fd5b3073ffffffffffffffffffffffffffffffffffffffff1661190d610a56565b73ffffffffffffffffffffffffffffffffffffffff1614611962576000611932611f72565b604051611940929190614ddb565b604051809103902090505b806119566002611f7f565b146119605761194b565b505b6000808573ffffffffffffffffffffffffffffffffffffffff1685858560405161198d929190614ddb565b60006040518083038185875af1925050503d80600081146119ca576040519150601f19603f3d011682016040523d82523d6000602084013e6119cf565b606091505b50915091506119f782826040518060600160405280602881526020016164b460289139612acd565b50505050505050565b600084848484604051602001611a19949392919061553a565b6040516020818303038152906040528051906020012060001c9050949350505050565b6000600460009054906101000a900473ffffffffffffffffffffffffffffffffffffffff16905090565b60606040518060400160405280602081526020017f737570706f72743d627261766f2671756f72756d3d666f722c6162737461696e815250905090565b7f150214d74d59b7d1e90c73fc22ef3d991dd0a76b046543d4d80ab92d2a50328f81565b6000611adb8383611ad6612aef565b612978565b905092915050565b600063f23a6e6160e01b905095945050505050565b6000611b0382612b06565b9050919050565b7f000000000000000000000000000000000000000000000000000000000000000081565b60007bffffffffffffffffffffffffffffffffffffffffffffffffffffffff8016821115611b91576040517f08c379a0000000000000000000000000000000000000000000000000000000008152600401611b8890615606565b60405180910390fd5b819050919050565b600080611bba84600001611bac43611c71565b611bb586611b2e565b612bdd565b817bffffffffffffffffffffffffffffffffffffffffffffffffffffffff169150807bffffffffffffffffffffffffffffffffffffffffffffffffffffffff169050915091509250929050565b6000808260000180549050905060008114611c6657611c3583600001600183611c3091906154d7565b612f64565b60000160049054906101000a90047bffffffffffffffffffffffffffffffffffffffffffffffffffffffff16611c69565b60005b915050919050565b600063ffffffff8016821115611cbc576040517f08c379a0000000000000000000000000000000000000000000000000000000008152600401611cb390615698565b60405180910390fd5b819050919050565b6000600460009054906101000a900473ffffffffffffffffffffffffffffffffffffffff16905090565b60007f6e665ced000000000000000000000000000000000000000000000000000000007bffffffffffffffffffffffffffffffffffffffffffffffffffffffff1916827bffffffffffffffffffffffffffffffffffffffffffffffffffffffff19161480611d615750611d6082612f79565b5b9050919050565b6000611d7b611d756130de565b836131f8565b9050919050565b6000806000611d938787878761322b565b91509150611da08161330e565b8192505050949350505050565b60008060016000888152602001908152602001600020905060016007811115611dd957611dd86145d2565b5b611de288611252565b6007811115611df457611df36145d2565b5b14611e34576040517f08c379a0000000000000000000000000000000000000000000000000000000008152600401611e2b9061572a565b60405180910390fd5b6000611e9387611e83846000016040518060200160405290816000820160009054906101000a900467ffffffffffffffff1667ffffffffffffffff1667ffffffffffffffff1681525050612362565b67ffffffffffffffff1686612978565b9050611ea2888888848861347c565b600084511415611f05578673ffffffffffffffffffffffffffffffffffffffff167fb8e138887d0aa13bab447e82de9d5c1777041ecd21ca36ba824ff1e6c07ddda489888489604051611ef8949392919061574a565b60405180910390a2611f5c565b8673ffffffffffffffffffffffffffffffffffffffff167fe2babfbac5889a709b63bb7f598b324e08bc5a4fb9ec647fb3cbc9ec07eb87128988848989604051611f539594939291906157e0565b60405180910390a25b809250505095945050505050565b600033905090565b3660008036915091509091565b6000611f8a82613683565b15611fc1576040517f3db2a12a00000000000000000000000000000000000000000000000000000000815260040160405180910390fd5b60008260000160009054906101000a9004600f0b905082600101600082600f0b600f0b815260200190815260200160002054915082600101600082600f0b600f0b815260200190815260200160002060009055600181018360000160006101000a8154816fffffffffffffffffffffffffffffffff0219169083600f0b6fffffffffffffffffffffffffffffffff16021790555050919050565b6120636115ac565b8111156120a5576040517f08c379a000000000000000000000000000000000000000000000000000000000815260040161209c906158d9565b60405180910390fd5b60006120af6115cb565b9050600081141580156120ca57506000600760000180549050145b156121bc5760076000016040518060400160405280600063ffffffff1681526020016120f584611b2e565b7bffffffffffffffffffffffffffffffffffffffffffffffffffffffff168152509080600181540180825580915050600190039060005260206000200160009091909190915060008201518160000160006101000a81548163ffffffff021916908363ffffffff16021790555060208201518160000160046101000a8154817bffffffffffffffffffffffffffffffffffffffffffffffffffffffff02191690837bffffffffffffffffffffffffffffffffffffffffffffffffffffffff16021790555050505b6121d0826007611b9990919063ffffffff16565b50507f0553476bf02ef2726e8ce5ced78d63e26e602e4a2257b1f559418e24b46339978183604051612203929190615477565b60405180910390a15050565b3073ffffffffffffffffffffffffffffffffffffffff1661222e610a56565b73ffffffffffffffffffffffffffffffffffffffff16146122ec5760005b84518110156122ea573073ffffffffffffffffffffffffffffffffffffffff1685828151811061227f5761227e61550b565b5b602002602001015173ffffffffffffffffffffffffffffffffffffffff1614156122d9576122d88382815181106122b9576122b861550b565b5b60200260200101518051906020012060026136b890919063ffffffff16565b5b806122e3906158f9565b905061224c565b505b5050505050565b6123008585858585613734565b5050505050565b3073ffffffffffffffffffffffffffffffffffffffff16612326610a56565b73ffffffffffffffffffffffffffffffffffffffff161461235b5761234b6002613683565b61235a5761235960026137d2565b5b5b5050505050565b600081600001519050919050565b600061238685858585612381612aef565b611dad565b9050949350505050565b60008061239c83613853565b9050600460078111156123b2576123b16145d2565b5b8160078111156123c5576123c46145d2565b5b146123d3578091505061257d565b6000600560008581526020019081526020016000205490506000801b81141561240057819250505061257d565b600460009054906101000a900473ffffffffffffffffffffffffffffffffffffffff1673ffffffffffffffffffffffffffffffffffffffff16632ab0f529826040518263ffffffff1660e01b815260040161245b919061453c565b60206040518083038186803b15801561247357600080fd5b505afa158015612487573d6000803e3d6000fd5b505050506040513d601f19601f820116820180604052508101906124ab919061596e565b156124bb5760079250505061257d565b600460009054906101000a900473ffffffffffffffffffffffffffffffffffffffff1673ffffffffffffffffffffffffffffffffffffffff1663584b153e826040518263ffffffff1660e01b8152600401612516919061453c565b60206040518083038186803b15801561252e57600080fd5b505afa158015612542573d6000803e3d6000fd5b505050506040513d601f19601f82011682018060405250810190612566919061596e565b156125765760059250505061257d565b6002925050505b919050565b60004382106125c6576040517f08c379a00000000000000000000000000000000000000000000000000000000081526004016125bd906159e7565b60405180910390fd5b60006125d183611c71565b905060008460000180549050905060006125f18660000184600085613968565b905060008114612645576126148660000160018361260f91906154d7565b612f64565b60000160049054906101000a90047bffffffffffffffffffffffffffffffffffffffffffffffffffffffff16612648565b60005b7bffffffffffffffffffffffffffffffffffffffffffffffffffffffff16935050505092915050565b600061267b6117ea565b612698612686611f6a565b60014361269391906154d7565b611ac7565b10156126d9576040517f08c379a00000000000000000000000000000000000000000000000000000000081526004016126d090615a79565b60405180910390fd5b60006126ee8686868680519060200120611a00565b90508451865114612734576040517f08c379a000000000000000000000000000000000000000000000000000000000815260040161272b90615b0b565b60405180910390fd5b8351865114612778576040517f08c379a000000000000000000000000000000000000000000000000000000000815260040161276f90615b0b565b60405180910390fd5b60008651116127bc576040517f08c379a00000000000000000000000000000000000000000000000000000000081526004016127b390615b77565b60405180910390fd5b600060016000838152602001908152602001600020905061281c816000016040518060200160405290816000820160009054906101000a900467ffffffffffffffff1667ffffffffffffffff1667ffffffffffffffff16815250506139db565b61285b576040517f08c379a000000000000000000000000000000000000000000000000000000000815260040161285290615c09565b60405180910390fd5b600061286d6128686111bf565b6139f5565b612876436139f5565b6128809190615c3d565b9050600061289461288f610a77565b6139f5565b8261289f9190615c3d565b90506128b78284600001613a4c90919063ffffffff16565b6128cd8184600101613a4c90919063ffffffff16565b7f7d84a6263ae0d98d3329bd7b46bb4e8d6f98cd35a7adb45c274c8b7fd5ebd5e0846128f7611f6a565b8b8b8d5167ffffffffffffffff81111561291457612913613dea565b5b60405190808252806020026020018201604052801561294757816020015b60608152602001906001900390816129325790505b508c88888e60405161296199989796959493929190615db8565b60405180910390a183945050505050949350505050565b60007f000000000000000000000000000000000000000000000000000000000000000073ffffffffffffffffffffffffffffffffffffffff16633a46b1a885856040518363ffffffff1660e01b81526004016129d5929190615e68565b60206040518083038186803b1580156129ed57600080fd5b505afa158015612a01573d6000803e3d6000fd5b505050506040513d601f19601f82011682018060405250810190612a259190614fca565b90509392505050565b7f08f74ea46ef7894f65eabfb5e6e695de773a000b47c529ab559178069b226401600460009054906101000a900473ffffffffffffffffffffffffffffffffffffffff1682604051612a81929190615e91565b60405180910390a180600460006101000a81548173ffffffffffffffffffffffffffffffffffffffff021916908373ffffffffffffffffffffffffffffffffffffffff16021790555050565b60608315612add57829050612ae8565b612ae78383613a7b565b5b9392505050565b606060405180602001604052806000815250905090565b6000612b106115ac565b612b19836113df565b7f000000000000000000000000000000000000000000000000000000000000000073ffffffffffffffffffffffffffffffffffffffff16638e539e8c856040518263ffffffff1660e01b8152600401612b729190613cef565b60206040518083038186803b158015612b8a57600080fd5b505afa158015612b9e573d6000803e3d6000fd5b505050506040513d601f19601f82011682018060405250810190612bc29190614fca565b612bcc9190615eba565b612bd69190615f43565b9050919050565b6000806000858054905090506000811115612e74576000612c0a87600184612c0591906154d7565b612f64565b6040518060400160405290816000820160009054906101000a900463ffffffff1663ffffffff1663ffffffff1681526020016000820160049054906101000a90047bffffffffffffffffffffffffffffffffffffffffffffffffffffffff167bffffffffffffffffffffffffffffffffffffffffffffffffffffffff167bffffffffffffffffffffffffffffffffffffffffffffffffffffffff168152505090508563ffffffff16816000015163ffffffff161115612cfe576040517f08c379a0000000000000000000000000000000000000000000000000000000008152600401612cf590615fc0565b60405180910390fd5b8563ffffffff16816000015163ffffffff161415612d835784612d2d88600185612d2891906154d7565b612f64565b60000160046101000a8154817bffffffffffffffffffffffffffffffffffffffffffffffffffffffff02191690837bffffffffffffffffffffffffffffffffffffffffffffffffffffffff160217905550612e63565b8660405180604001604052808863ffffffff168152602001877bffffffffffffffffffffffffffffffffffffffffffffffffffffffff168152509080600181540180825580915050600190039060005260206000200160009091909190915060008201518160000160006101000a81548163ffffffff021916908363ffffffff16021790555060208201518160000160046101000a8154817bffffffffffffffffffffffffffffffffffffffffffffffffffffffff02191690837bffffffffffffffffffffffffffffffffffffffffffffffffffffffff16021790555050505b806020015185935093505050612f5c565b8560405180604001604052808763ffffffff168152602001867bffffffffffffffffffffffffffffffffffffffffffffffffffffffff168152509080600181540180825580915050600190039060005260206000200160009091909190915060008201518160000160006101000a81548163ffffffff021916908363ffffffff16021790555060208201518160000160046101000a8154817bffffffffffffffffffffffffffffffffffffffffffffffffffffffff02191690837bffffffffffffffffffffffffffffffffffffffffffffffffffffffff160217905550505060008492509250505b935093915050565b60008260005281602060002001905092915050565b6000639a802a6d60e01b630342018160e01b635f398a1460e01b7f79dd796f000000000000000000000000000000000000000000000000000000001818187bffffffffffffffffffffffffffffffffffffffffffffffffffffffff1916827bffffffffffffffffffffffffffffffffffffffffffffffffffffffff1916148061305f57507f79dd796f000000000000000000000000000000000000000000000000000000007bffffffffffffffffffffffffffffffffffffffffffffffffffffffff1916827bffffffffffffffffffffffffffffffffffffffffffffffffffffffff1916145b806130c757507f4e2312e0000000000000000000000000000000000000000000000000000000007bffffffffffffffffffffffffffffffffffffffffffffffffffffffff1916827bffffffffffffffffffffffffffffffffffffffffffffffffffffffff1916145b806130d757506130d682613acb565b5b9050919050565b60007f000000000000000000000000000000000000000000000000000000000000000073ffffffffffffffffffffffffffffffffffffffff163073ffffffffffffffffffffffffffffffffffffffff1614801561315a57507f000000000000000000000000000000000000000000000000000000000000000046145b15613187577f000000000000000000000000000000000000000000000000000000000000000090506131f5565b6131f27f00000000000000000000000000000000000000000000000000000000000000007f00000000000000000000000000000000000000000000000000000000000000007f0000000000000000000000000000000000000000000000000000000000000000613b35565b90505b90565b6000828260405160200161320d929190616058565b60405160208183030381529060405280519060200120905092915050565b6000807f7fffffffffffffffffffffffffffffff5d576e7357a4501ddfe92f46681b20a08360001c1115613266576000600391509150613305565b60006001878787876040516000815260200160405260405161328b949392919061608f565b6020604051602081039080840390855afa1580156132ad573d6000803e3d6000fd5b505050602060405103519050600073ffffffffffffffffffffffffffffffffffffffff168173ffffffffffffffffffffffffffffffffffffffff1614156132fc57600060019250925050613305565b80600092509250505b94509492505050565b60006004811115613322576133216145d2565b5b816004811115613335576133346145d2565b5b141561334057613479565b60016004811115613354576133536145d2565b5b816004811115613367576133666145d2565b5b14156133a8576040517f08c379a000000000000000000000000000000000000000000000000000000000815260040161339f90616120565b60405180910390fd5b600260048111156133bc576133bb6145d2565b5b8160048111156133cf576133ce6145d2565b5b1415613410576040517f08c379a00000000000000000000000000000000000000000000000000000000081526004016134079061618c565b60405180910390fd5b60036004811115613424576134236145d2565b5b816004811115613437576134366145d2565b5b1415613478576040517f08c379a000000000000000000000000000000000000000000000000000000000815260040161346f9061621e565b60405180910390fd5b5b50565b60006008600087815260200190815260200160002090508060030160008673ffffffffffffffffffffffffffffffffffffffff1673ffffffffffffffffffffffffffffffffffffffff16815260200190815260200160002060009054906101000a900460ff1615613522576040517f08c379a0000000000000000000000000000000000000000000000000000000008152600401613519906162b0565b60405180910390fd5b60018160030160008773ffffffffffffffffffffffffffffffffffffffff1673ffffffffffffffffffffffffffffffffffffffff16815260200190815260200160002060006101000a81548160ff021916908315150217905550600060028111156135905761358f6145d2565b5b60ff168460ff1614156135bd57828160000160008282546135b19190615421565b9250508190555061367b565b600160028111156135d1576135d06145d2565b5b60ff168460ff1614156135fe57828160010160008282546135f29190615421565b9250508190555061367a565b600280811115613611576136106145d2565b5b60ff168460ff16141561363e57828160020160008282546136329190615421565b92505081905550613679565b6040517f08c379a000000000000000000000000000000000000000000000000000000000815260040161367090616342565b60405180910390fd5b5b5b505050505050565b60008160000160009054906101000a9004600f0b600f0b8260000160109054906101000a9004600f0b600f0b13159050919050565b60008260000160109054906101000a9004600f0b90508183600101600083600f0b600f0b815260200190815260200160002081905550600181018360000160106101000a8154816fffffffffffffffffffffffffffffffff0219169083600f0b6fffffffffffffffffffffffffffffffff160217905550505050565b600460009054906101000a900473ffffffffffffffffffffffffffffffffffffffff1673ffffffffffffffffffffffffffffffffffffffff1663e38335e5348686866000876040518763ffffffff1660e01b81526004016137999594939291906152d2565b6000604051808303818588803b1580156137b257600080fd5b505af11580156137c6573d6000803e3d6000fd5b50505050505050505050565b60008160000160006101000a8154816fffffffffffffffffffffffffffffffff0219169083600f0b6fffffffffffffffffffffffffffffffff16021790555060008160000160106101000a8154816fffffffffffffffffffffffffffffffff0219169083600f0b6fffffffffffffffffffffffffffffffff16021790555050565b6000806001600084815260200190815260200160002090508060020160009054906101000a900460ff161561388c576007915050613963565b8060020160019054906101000a900460ff16156138ad576002915050613963565b60006138b88461112d565b905060008114156138fe576040517f08c379a00000000000000000000000000000000000000000000000000000000081526004016138f5906163ae565b60405180910390fd5b43811061391057600092505050613963565b600061391b85611804565b90504381106139305760019350505050613963565b61393985613b6f565b801561394a575061394985613bb6565b5b1561395b5760049350505050613963565b600393505050505b919050565b60005b818310156139d057600061397f8484613be1565b90508463ffffffff166139928783612f64565b60000160009054906101000a900463ffffffff1663ffffffff1611156139ba578092506139ca565b6001816139c79190615421565b93505b5061396b565b819050949350505050565b600080826000015167ffffffffffffffff16149050919050565b600067ffffffffffffffff8016821115613a44576040517f08c379a0000000000000000000000000000000000000000000000000000000008152600401613a3b90616440565b60405180910390fd5b819050919050565b808260000160006101000a81548167ffffffffffffffff021916908367ffffffffffffffff1602179055505050565b600082511115613a8e5781518083602001fd5b806040517f08c379a0000000000000000000000000000000000000000000000000000000008152600401613ac291906140de565b60405180910390fd5b60007f01ffc9a7000000000000000000000000000000000000000000000000000000007bffffffffffffffffffffffffffffffffffffffffffffffffffffffff1916827bffffffffffffffffffffffffffffffffffffffffffffffffffffffff1916149050919050565b60008383834630604051602001613b50959493929190616460565b6040516020818303038152906040528051906020012090509392505050565b60008060086000848152602001908152602001600020905080600201548160010154613b9b9190615421565b613bac613ba78561112d565b611af8565b1115915050919050565b6000806008600084815260200190815260200160002090508060000154816001015411915050919050565b60006002828418613bf29190615f43565b828416613bff9190615421565b905092915050565b6000604051905090565b600080fd5b600080fd5b60007fffffffff0000000000000000000000000000000000000000000000000000000082169050919050565b613c5081613c1b565b8114613c5b57600080fd5b50565b600081359050613c6d81613c47565b92915050565b600060208284031215613c8957613c88613c11565b5b6000613c9784828501613c5e565b91505092915050565b60008115159050919050565b613cb581613ca0565b82525050565b6000602082019050613cd06000830184613cac565b92915050565b6000819050919050565b613ce981613cd6565b82525050565b6000602082019050613d046000830184613ce0565b92915050565b613d1381613cd6565b8114613d1e57600080fd5b50565b600081359050613d3081613d0a565b92915050565b600060ff82169050919050565b613d4c81613d36565b8114613d5757600080fd5b50565b600081359050613d6981613d43565b92915050565b600080fd5b600080fd5b600080fd5b60008083601f840112613d9457613d93613d6f565b5b8235905067ffffffffffffffff811115613db157613db0613d74565b5b602083019150836001820283011115613dcd57613dcc613d79565b5b9250929050565b600080fd5b6000601f19601f8301169050919050565b7f4e487b7100000000000000000000000000000000000000000000000000000000600052604160045260246000fd5b613e2282613dd9565b810181811067ffffffffffffffff82111715613e4157613e40613dea565b5b80604052505050565b6000613e54613c07565b9050613e608282613e19565b919050565b600067ffffffffffffffff821115613e8057613e7f613dea565b5b613e8982613dd9565b9050602081019050919050565b82818337600083830152505050565b6000613eb8613eb384613e65565b613e4a565b905082815260208101848484011115613ed457613ed3613dd4565b5b613edf848285613e96565b509392505050565b600082601f830112613efc57613efb613d6f565b5b8135613f0c848260208601613ea5565b91505092915050565b6000819050919050565b613f2881613f15565b8114613f3357600080fd5b50565b600081359050613f4581613f1f565b92915050565b60008060008060008060008060e0898b031215613f6b57613f6a613c11565b5b6000613f798b828c01613d21565b9850506020613f8a8b828c01613d5a565b975050604089013567ffffffffffffffff811115613fab57613faa613c16565b5b613fb78b828c01613d7e565b9650965050606089013567ffffffffffffffff811115613fda57613fd9613c16565b5b613fe68b828c01613ee7565b9450506080613ff78b828c01613d5a565b93505060a06140088b828c01613f36565b92505060c06140198b828c01613f36565b9150509295985092959890939650565b60006020828403121561403f5761403e613c11565b5b600061404d84828501613d21565b91505092915050565b600081519050919050565b600082825260208201905092915050565b60005b83811015614090578082015181840152602081019050614075565b8381111561409f576000848401525b50505050565b60006140b082614056565b6140ba8185614061565b93506140ca818560208601614072565b6140d381613dd9565b840191505092915050565b600060208201905081810360008301526140f881846140a5565b905092915050565b600073ffffffffffffffffffffffffffffffffffffffff82169050919050565b600061412b82614100565b9050919050565b61413b81614120565b811461414657600080fd5b50565b60008135905061415881614132565b92915050565b6000806000806080858703121561417857614177613c11565b5b600061418687828801614149565b945050602061419787828801614149565b93505060406141a887828801613d21565b925050606085013567ffffffffffffffff8111156141c9576141c8613c16565b5b6141d587828801613ee7565b91505092959194509250565b6141ea81613c1b565b82525050565b600060208201905061420560008301846141e1565b92915050565b600067ffffffffffffffff82111561422657614225613dea565b5b602082029050602081019050919050565b600061424a6142458461420b565b613e4a565b9050808382526020820190506020840283018581111561426d5761426c613d79565b5b835b8181101561429657806142828882614149565b84526020840193505060208101905061426f565b5050509392505050565b600082601f8301126142b5576142b4613d6f565b5b81356142c5848260208601614237565b91505092915050565b600067ffffffffffffffff8211156142e9576142e8613dea565b5b602082029050602081019050919050565b600061430d614308846142ce565b613e4a565b905080838252602082019050602084028301858111156143305761432f613d79565b5b835b8181101561435957806143458882613d21565b845260208401935050602081019050614332565b5050509392505050565b600082601f83011261437857614377613d6f565b5b81356143888482602086016142fa565b91505092915050565b600067ffffffffffffffff8211156143ac576143ab613dea565b5b602082029050602081019050919050565b60006143d06143cb84614391565b613e4a565b905080838252602082019050602084028301858111156143f3576143f2613d79565b5b835b8181101561443a57803567ffffffffffffffff81111561441857614417613d6f565b5b8086016144258982613ee7565b855260208501945050506020810190506143f5565b5050509392505050565b600082601f83011261445957614458613d6f565b5b81356144698482602086016143bd565b91505092915050565b6000806000806080858703121561448c5761448b613c11565b5b600085013567ffffffffffffffff8111156144aa576144a9613c16565b5b6144b6878288016142a0565b945050602085013567ffffffffffffffff8111156144d7576144d6613c16565b5b6144e387828801614363565b935050604085013567ffffffffffffffff81111561450457614503613c16565b5b61451087828801614444565b925050606061452187828801613f36565b91505092959194509250565b61453681613f15565b82525050565b6000602082019050614551600083018461452d565b92915050565b600080600080600060a0868803121561457357614572613c11565b5b600061458188828901613d21565b955050602061459288828901613d5a565b94505060406145a388828901613d5a565b93505060606145b488828901613f36565b92505060806145c588828901613f36565b9150509295509295909350565b7f4e487b7100000000000000000000000000000000000000000000000000000000600052602160045260246000fd5b60088110614612576146116145d2565b5b50565b600081905061462382614601565b919050565b600061463382614615565b9050919050565b61464381614628565b82525050565b600060208201905061465e600083018461463a565b92915050565b6000806040838503121561467b5761467a613c11565b5b600061468985828601613d21565b925050602061469a85828601614149565b9150509250929050565b60006060820190506146b96000830186613ce0565b6146c66020830185613ce0565b6146d36040830184613ce0565b949350505050565b600080604083850312156146f2576146f1613c11565b5b600061470085828601613d21565b925050602061471185828601613d5a565b9150509250929050565b60008060008060006080868803121561473757614736613c11565b5b600061474588828901613d21565b955050602061475688828901613d5a565b945050604086013567ffffffffffffffff81111561477757614776613c16565b5b61478388828901613d7e565b9350935050606086013567ffffffffffffffff8111156147a6576147a5613c16565b5b6147b288828901613ee7565b9150509295509295909350565b600080600080606085870312156147d9576147d8613c11565b5b60006147e787828801613d21565b94505060206147f887828801613d5a565b935050604085013567ffffffffffffffff81111561481957614818613c16565b5b61482587828801613d7e565b925092505092959194509250565b600067ffffffffffffffff82111561484e5761484d613dea565b5b61485782613dd9565b9050602081019050919050565b600061487761487284614833565b613e4a565b90508281526020810184848401111561489357614892613dd4565b5b61489e848285613e96565b509392505050565b600082601f8301126148bb576148ba613d6f565b5b81356148cb848260208601614864565b91505092915050565b600080600080608085870312156148ee576148ed613c11565b5b600085013567ffffffffffffffff81111561490c5761490b613c16565b5b614918878288016142a0565b945050602085013567ffffffffffffffff81111561493957614938613c16565b5b61494587828801614363565b935050604085013567ffffffffffffffff81111561496657614965613c16565b5b61497287828801614444565b925050606085013567ffffffffffffffff81111561499357614992613c16565b5b61499f878288016148a6565b91505092959194509250565b6000806000606084860312156149c4576149c3613c11565b5b60006149d286828701614149565b93505060206149e386828701613d21565b925050604084013567ffffffffffffffff811115614a0457614a03613c16565b5b614a1086828701613ee7565b9150509250925092565b6000614a2582614100565b9050919050565b6000614a3782614a1a565b9050919050565b614a4781614a2c565b8114614a5257600080fd5b50565b600081359050614a6481614a3e565b92915050565b600060208284031215614a8057614a7f613c11565b5b6000614a8e84828501614a55565b91505092915050565b600080600080600060a08688031215614ab357614ab2613c11565b5b6000614ac188828901614149565b9550506020614ad288828901614149565b945050604086013567ffffffffffffffff811115614af357614af2613c16565b5b614aff88828901614363565b935050606086013567ffffffffffffffff811115614b2057614b1f613c16565b5b614b2c88828901614363565b925050608086013567ffffffffffffffff811115614b4d57614b4c613c16565b5b614b5988828901613ee7565b9150509295509295909350565b60008083601f840112614b7c57614b7b613d6f565b5b8235905067ffffffffffffffff811115614b9957614b98613d74565b5b602083019150836001820283011115614bb557614bb4613d79565b5b9250929050565b60008060008060608587031215614bd657614bd5613c11565b5b6000614be487828801614149565b9450506020614bf587828801613d21565b935050604085013567ffffffffffffffff811115614c1657614c15613c16565b5b614c2287828801614b66565b925092505092959194509250565b614c3981614120565b82525050565b6000602082019050614c546000830184614c30565b92915050565b60008060408385031215614c7157614c70613c11565b5b6000614c7f85828601614149565b9250506020614c9085828601613d21565b9150509250929050565b600080600080600060a08688031215614cb657614cb5613c11565b5b6000614cc488828901614149565b9550506020614cd588828901614149565b9450506040614ce688828901613d21565b9350506060614cf788828901613d21565b925050608086013567ffffffffffffffff811115614d1857614d17613c16565b5b614d2488828901613ee7565b9150509295509295909350565b6000819050919050565b6000614d56614d51614d4c84614100565b614d31565b614100565b9050919050565b6000614d6882614d3b565b9050919050565b6000614d7a82614d5d565b9050919050565b614d8a81614d6f565b82525050565b6000602082019050614da56000830184614d81565b92915050565b600081905092915050565b6000614dc28385614dab565b9350614dcf838584613e96565b82840190509392505050565b6000614de8828486614db6565b91508190509392505050565b614dfd81613d36565b82525050565b600060a082019050614e18600083018861452d565b614e256020830187613ce0565b614e326040830186614df4565b614e3f606083018561452d565b614e4c608083018461452d565b9695505050505050565b7f476f7665726e6f723a206f6e6c79476f7665726e616e63650000000000000000600082015250565b6000614e8c601883614061565b9150614e9782614e56565b602082019050919050565b60006020820190508181036000830152614ebb81614e7f565b9050919050565b7f4e487b7100000000000000000000000000000000000000000000000000000000600052602260045260246000fd5b60006002820490506001821680614f0957607f821691505b60208210811415614f1d57614f1c614ec2565b5b50919050565b7f476f7665726e6f723a2070726f706f73616c206e6f742073756363657373667560008201527f6c00000000000000000000000000000000000000000000000000000000000000602082015250565b6000614f7f602183614061565b9150614f8a82614f23565b604082019050919050565b60006020820190508181036000830152614fae81614f72565b9050919050565b600081519050614fc481613d0a565b92915050565b600060208284031215614fe057614fdf613c11565b5b6000614fee84828501614fb5565b91505092915050565b600081519050919050565b600082825260208201905092915050565b6000819050602082019050919050565b61502c81614120565b82525050565b600061503e8383615023565b60208301905092915050565b6000602082019050919050565b600061506282614ff7565b61506c8185615002565b935061507783615013565b8060005b838110156150a857815161508f8882615032565b975061509a8361504a565b92505060018101905061507b565b5085935050505092915050565b600081519050919050565b600082825260208201905092915050565b6000819050602082019050919050565b6150ea81613cd6565b82525050565b60006150fc83836150e1565b60208301905092915050565b6000602082019050919050565b6000615120826150b5565b61512a81856150c0565b9350615135836150d1565b8060005b8381101561516657815161514d88826150f0565b975061515883615108565b925050600181019050615139565b5085935050505092915050565b600081519050919050565b600082825260208201905092915050565b6000819050602082019050919050565b600081519050919050565b600082825260208201905092915050565b60006151c68261519f565b6151d081856151aa565b93506151e0818560208601614072565b6151e981613dd9565b840191505092915050565b600061520083836151bb565b905092915050565b6000602082019050919050565b600061522082615173565b61522a818561517e565b93508360208202850161523c8561518f565b8060005b85811015615278578484038952815161525985826151f4565b945061526483615208565b925060208a01995050600181019050615240565b50829750879550505050505092915050565b6000819050919050565b60008160001b9050919050565b60006152bc6152b76152b28461528a565b615294565b613f15565b9050919050565b6152cc816152a1565b82525050565b600060a08201905081810360008301526152ec8188615057565b905081810360208301526153008187615115565b905081810360408301526153148186615215565b905061532360608301856152c3565b615330608083018461452d565b9695505050505050565b60008151905061534981613f1f565b92915050565b60006020828403121561536557615364613c11565b5b60006153738482850161533a565b91505092915050565b600060c08201905081810360008301526153968189615057565b905081810360208301526153aa8188615115565b905081810360408301526153be8187615215565b90506153cd60608301866152c3565b6153da608083018561452d565b6153e760a0830184613ce0565b979650505050505050565b7f4e487b7100000000000000000000000000000000000000000000000000000000600052601160045260246000fd5b600061542c82613cd6565b915061543783613cd6565b9250827fffffffffffffffffffffffffffffffffffffffffffffffffffffffffffffffff0382111561546c5761546b6153f2565b5b828201905092915050565b600060408201905061548c6000830185613ce0565b6154996020830184613ce0565b9392505050565b60006060820190506154b5600083018661452d565b6154c26020830185613ce0565b6154cf6040830184614df4565b949350505050565b60006154e282613cd6565b91506154ed83613cd6565b925082821015615500576154ff6153f2565b5b828203905092915050565b7f4e487b7100000000000000000000000000000000000000000000000000000000600052603260045260246000fd5b600060808201905081810360008301526155548187615057565b905081810360208301526155688186615115565b9050818103604083015261557c8185615215565b905061558b606083018461452d565b95945050505050565b7f53616665436173743a2076616c756520646f65736e27742066697420696e203260008201527f3234206269747300000000000000000000000000000000000000000000000000602082015250565b60006155f0602783614061565b91506155fb82615594565b604082019050919050565b6000602082019050818103600083015261561f816155e3565b9050919050565b7f53616665436173743a2076616c756520646f65736e27742066697420696e203360008201527f3220626974730000000000000000000000000000000000000000000000000000602082015250565b6000615682602683614061565b915061568d82615626565b604082019050919050565b600060208201905081810360008301526156b181615675565b9050919050565b7f476f7665726e6f723a20766f7465206e6f742063757272656e746c792061637460008201527f6976650000000000000000000000000000000000000000000000000000000000602082015250565b6000615714602383614061565b915061571f826156b8565b604082019050919050565b6000602082019050818103600083015261574381615707565b9050919050565b600060808201905061575f6000830187613ce0565b61576c6020830186614df4565b6157796040830185613ce0565b818103606083015261578b81846140a5565b905095945050505050565b600082825260208201905092915050565b60006157b28261519f565b6157bc8185615796565b93506157cc818560208601614072565b6157d581613dd9565b840191505092915050565b600060a0820190506157f56000830188613ce0565b6158026020830187614df4565b61580f6040830186613ce0565b818103606083015261582181856140a5565b9050818103608083015261583581846157a7565b90509695505050505050565b7f476f7665726e6f72566f74657351756f72756d4672616374696f6e3a2071756f60008201527f72756d4e756d657261746f72206f7665722071756f72756d44656e6f6d696e6160208201527f746f720000000000000000000000000000000000000000000000000000000000604082015250565b60006158c3604383614061565b91506158ce82615841565b606082019050919050565b600060208201905081810360008301526158f2816158b6565b9050919050565b600061590482613cd6565b91507fffffffffffffffffffffffffffffffffffffffffffffffffffffffffffffffff821415615937576159366153f2565b5b600182019050919050565b61594b81613ca0565b811461595657600080fd5b50565b60008151905061596881615942565b92915050565b60006020828403121561598457615983613c11565b5b600061599284828501615959565b91505092915050565b7f436865636b706f696e74733a20626c6f636b206e6f7420796574206d696e6564600082015250565b60006159d1602083614061565b91506159dc8261599b565b602082019050919050565b60006020820190508181036000830152615a00816159c4565b9050919050565b7f476f7665726e6f723a2070726f706f73657220766f7465732062656c6f77207060008201527f726f706f73616c207468726573686f6c64000000000000000000000000000000602082015250565b6000615a63603183614061565b9150615a6e82615a07565b604082019050919050565b60006020820190508181036000830152615a9281615a56565b9050919050565b7f476f7665726e6f723a20696e76616c69642070726f706f73616c206c656e677460008201527f6800000000000000000000000000000000000000000000000000000000000000602082015250565b6000615af5602183614061565b9150615b0082615a99565b604082019050919050565b60006020820190508181036000830152615b2481615ae8565b9050919050565b7f476f7665726e6f723a20656d7074792070726f706f73616c0000000000000000600082015250565b6000615b61601883614061565b9150615b6c82615b2b565b602082019050919050565b60006020820190508181036000830152615b9081615b54565b9050919050565b7f476f7665726e6f723a2070726f706f73616c20616c726561647920657869737460008201527f7300000000000000000000000000000000000000000000000000000000000000602082015250565b6000615bf3602183614061565b9150615bfe82615b97565b604082019050919050565b60006020820190508181036000830152615c2281615be6565b9050919050565b600067ffffffffffffffff82169050919050565b6000615c4882615c29565b9150615c5383615c29565b92508267ffffffffffffffff03821115615c7057615c6f6153f2565b5b828201905092915050565b600081519050919050565b600082825260208201905092915050565b6000819050602082019050919050565b600082825260208201905092915050565b6000615cc382614056565b615ccd8185615ca7565b9350615cdd818560208601614072565b615ce681613dd9565b840191505092915050565b6000615cfd8383615cb8565b905092915050565b6000602082019050919050565b6000615d1d82615c7b565b615d278185615c86565b935083602082028501615d3985615c97565b8060005b85811015615d755784840389528151615d568582615cf1565b9450615d6183615d05565b925060208a01995050600181019050615d3d565b50829750879550505050505092915050565b6000615da2615d9d615d9884615c29565b614d31565b613cd6565b9050919050565b615db281615d87565b82525050565b600061012082019050615dce600083018c613ce0565b615ddb602083018b614c30565b8181036040830152615ded818a615057565b90508181036060830152615e018189615115565b90508181036080830152615e158188615d12565b905081810360a0830152615e298187615215565b9050615e3860c0830186615da9565b615e4560e0830185615da9565b818103610100830152615e5881846140a5565b90509a9950505050505050505050565b6000604082019050615e7d6000830185614c30565b615e8a6020830184613ce0565b9392505050565b6000604082019050615ea66000830185614c30565b615eb36020830184614c30565b9392505050565b6000615ec582613cd6565b9150615ed083613cd6565b9250817fffffffffffffffffffffffffffffffffffffffffffffffffffffffffffffffff0483118215151615615f0957615f086153f2565b5b828202905092915050565b7f4e487b7100000000000000000000000000000000000000000000000000000000600052601260045260246000fd5b6000615f4e82613cd6565b9150615f5983613cd6565b925082615f6957615f68615f14565b5b828204905092915050565b7f436865636b706f696e743a20696e76616c6964206b6579000000000000000000600082015250565b6000615faa601783614061565b9150615fb582615f74565b602082019050919050565b60006020820190508181036000830152615fd981615f9d565b9050919050565b600081905092915050565b7f1901000000000000000000000000000000000000000000000000000000000000600082015250565b6000616021600283615fe0565b915061602c82615feb565b600282019050919050565b6000819050919050565b61605261604d82613f15565b616037565b82525050565b600061606382616014565b915061606f8285616041565b60208201915061607f8284616041565b6020820191508190509392505050565b60006080820190506160a4600083018761452d565b6160b16020830186614df4565b6160be604083018561452d565b6160cb606083018461452d565b95945050505050565b7f45434453413a20696e76616c6964207369676e61747572650000000000000000600082015250565b600061610a601883614061565b9150616115826160d4565b602082019050919050565b60006020820190508181036000830152616139816160fd565b9050919050565b7f45434453413a20696e76616c6964207369676e6174757265206c656e67746800600082015250565b6000616176601f83614061565b915061618182616140565b602082019050919050565b600060208201905081810360008301526161a581616169565b9050919050565b7f45434453413a20696e76616c6964207369676e6174757265202773272076616c60008201527f7565000000000000000000000000000000000000000000000000000000000000602082015250565b6000616208602283614061565b9150616213826161ac565b604082019050919050565b60006020820190508181036000830152616237816161fb565b9050919050565b7f476f7665726e6f72566f74696e6753696d706c653a20766f746520616c72656160008201527f6479206361737400000000000000000000000000000000000000000000000000602082015250565b600061629a602783614061565b91506162a58261623e565b604082019050919050565b600060208201905081810360008301526162c98161628d565b9050919050565b7f476f7665726e6f72566f74696e6753696d706c653a20696e76616c696420766160008201527f6c756520666f7220656e756d20566f7465547970650000000000000000000000602082015250565b600061632c603583614061565b9150616337826162d0565b604082019050919050565b6000602082019050818103600083015261635b8161631f565b9050919050565b7f476f7665726e6f723a20756e6b6e6f776e2070726f706f73616c206964000000600082015250565b6000616398601d83614061565b91506163a382616362565b602082019050919050565b600060208201905081810360008301526163c78161638b565b9050919050565b7f53616665436173743a2076616c756520646f65736e27742066697420696e203660008201527f3420626974730000000000000000000000000000000000000000000000000000602082015250565b600061642a602683614061565b9150616435826163ce565b604082019050919050565b600060208201905081810360008301526164598161641d565b9050919050565b600060a082019050616475600083018861452d565b616482602083018761452d565b61648f604083018661452d565b61649c6060830185613ce0565b6164a96080830184614c30565b969550505050505056fe476f7665726e6f723a2072656c617920726576657274656420776974686f7574206d657373616765a26469706673582212205a7deb8a0868753795c650f5bf5483af58ee07e15f109f383ba74adcdfb052c364736f6c63430008090033",
  "linkReferences": {},
  "deployedLinkReferences": {}
}