{
  "_format": "hh-sol-artifact-1",
  "contractName": "Bytes32ToBytes32MapMock",
  "sourceName": "contracts/openzeppelin/mocks/EnumerableMapMock.sol",
  "abi": [
    {
      "anonymous": false,
      "inputs": [
        {
          "indexed": false,
          "internalType": "bool",
          "name": "result",
          "type": "bool"
        }
      ],
      "name": "OperationResult",
      "type": "event"
    },
    {
      "inputs": [
        {
          "internalType": "uint256",
          "name": "index",
          "type": "uint256"
        }
      ],
      "name": "at",
      "outputs": [
        {
          "internalType": "bytes32",
          "name": "key",
          "type": "bytes32"
        },
        {
          "internalType": "bytes32",
          "name": "value",
          "type": "bytes32"
        }
      ],
      "stateMutability": "view",
      "type": "function"
    },
    {
      "inputs": [
        {
          "internalType": "bytes32",
          "name": "key",
          "type": "bytes32"
        }
      ],
      "name": "contains",
      "outputs": [
        {
          "internalType": "bool",
          "name": "",
          "type": "bool"
        }
      ],
      "stateMutability": "view",
      "type": "function"
    },
    {
      "inputs": [
        {
          "internalType": "bytes32",
          "name": "key",
          "type": "bytes32"
        }
      ],
      "name": "get",
      "outputs": [
        {
          "internalType": "bytes32",
          "name": "",
          "type": "bytes32"
        }
      ],
      "stateMutability": "view",
      "type": "function"
    },
    {
      "inputs": [
        {
          "internalType": "bytes32",
          "name": "key",
          "type": "bytes32"
        },
        {
          "internalType": "string",
          "name": "errorMessage",
          "type": "string"
        }
      ],
      "name": "getWithMessage",
      "outputs": [
        {
          "internalType": "bytes32",
          "name": "",
          "type": "bytes32"
        }
      ],
      "stateMutability": "view",
      "type": "function"
    },
    {
      "inputs": [],
      "name": "length",
      "outputs": [
        {
          "internalType": "uint256",
          "name": "",
          "type": "uint256"
        }
      ],
      "stateMutability": "view",
      "type": "function"
    },
    {
      "inputs": [
        {
          "internalType": "bytes32",
          "name": "key",
          "type": "bytes32"
        }
      ],
      "name": "remove",
      "outputs": [],
      "stateMutability": "nonpayable",
      "type": "function"
    },
    {
      "inputs": [
        {
          "internalType": "bytes32",
          "name": "key",
          "type": "bytes32"
        },
        {
          "internalType": "bytes32",
          "name": "value",
          "type": "bytes32"
        }
      ],
      "name": "set",
      "outputs": [],
      "stateMutability": "nonpayable",
      "type": "function"
    },
    {
      "inputs": [
        {
          "internalType": "bytes32",
          "name": "key",
          "type": "bytes32"
        }
      ],
      "name": "tryGet",
      "outputs": [
        {
          "internalType": "bool",
          "name": "",
          "type": "bool"
        },
        {
          "internalType": "bytes32",
          "name": "",
          "type": "bytes32"
        }
      ],
      "stateMutability": "view",
      "type": "function"
    }
  ],
  "bytecode": "0x608060405234801561001057600080fd5b50610cc7806100206000396000f3fe608060405234801561001057600080fd5b50600436106100885760003560e01c806395bc26731161005b57806395bc26731461013b578063dc09a8a714610157578063e0886f9014610188578063f71f7a25146101b957610088565b80631d1a696d1461008d5780631f7b6d32146100bd5780636cf3dff1146100db5780638eaa6ac01461010b575b600080fd5b6100a760048036038101906100a29190610838565b6101d5565b6040516100b49190610880565b60405180910390f35b6100c56101f2565b6040516100d291906108b4565b60405180910390f35b6100f560048036038101906100f09190610934565b610203565b60405161010291906109a3565b60405180910390f35b61012560048036038101906101209190610838565b610268565b60405161013291906109a3565b60405180910390f35b61015560048036038101906101509190610838565b610285565b005b610171600480360381019061016c9190610838565b6102d8565b60405161017f9291906109be565b60405180910390f35b6101a2600480360381019061019d9190610a13565b6102f8565b6040516101b0929190610a40565b60405180910390f35b6101d360048036038101906101ce9190610a69565b610318565b005b60006101eb82600061036e90919063ffffffff16565b9050919050565b60006101fe600061038e565b905090565b600061025f8484848080601f016020809104026020016040519081016040528093929190818152602001838380828437600081840152601f19601f8201169050808301925050505050505060006103a39092919063ffffffff16565b90509392505050565b600061027e82600061042490919063ffffffff16565b9050919050565b600061029b8260006104a090919063ffffffff16565b90507fed9840e0775590557ad736875d96c95cf1458b766335f74339951a32c82a9e33816040516102cc9190610880565b60405180910390a15050565b6000806102ef8360006104d990919063ffffffff16565b91509150915091565b60008061030f83600061052990919063ffffffff16565b91509150915091565b6000610330838360006105699092919063ffffffff16565b90507fed9840e0775590557ad736875d96c95cf1458b766335f74339951a32c82a9e33816040516103619190610880565b60405180910390a1505050565b600061038682846000016105a490919063ffffffff16565b905092915050565b600061039c826000016105bb565b9050919050565b6000808460020160008581526020019081526020016000205490506000801b811415806103d657506103d5858561036e565b5b8390610418576040517f08c379a000000000000000000000000000000000000000000000000000000000815260040161040f9190610b42565b60405180910390fd5b50809150509392505050565b6000808360020160008481526020019081526020016000205490506000801b811415806104575750610456848461036e565b5b610496576040517f08c379a000000000000000000000000000000000000000000000000000000000815260040161048d90610bb0565b60405180910390fd5b8091505092915050565b6000826002016000838152602001908152602001600020600090556104d182846000016105d090919063ffffffff16565b905092915050565b60008060008460020160008581526020019081526020016000205490506000801b8114156105195761050b858561036e565b6000801b9250925050610522565b60018192509250505b9250929050565b600080600061054484866000016105e790919063ffffffff16565b9050808560020160008381526020019081526020016000205492509250509250929050565b6000818460020160008581526020019081526020016000208190555061059b83856000016105fe90919063ffffffff16565b90509392505050565b60006105b38360000183610615565b905092915050565b60006105c982600001610638565b9050919050565b60006105df8360000183610649565b905092915050565b60006105f6836000018361075d565b905092915050565b600061060d8360000183610788565b905092915050565b600080836001016000848152602001908152602001600020541415905092915050565b600081600001805490509050919050565b6000808360010160008481526020019081526020016000205490506000811461075157600060018261067b9190610bff565b90506000600186600001805490506106939190610bff565b90508181146107025760008660000182815481106106b4576106b3610c33565b5b90600052602060002001549050808760000184815481106106d8576106d7610c33565b5b90600052602060002001819055508387600101600083815260200190815260200160002081905550505b8560000180548061071657610715610c62565b5b600190038181906000526020600020016000905590558560010160008681526020019081526020016000206000905560019350505050610757565b60009150505b92915050565b600082600001828154811061077557610774610c33565b5b9060005260206000200154905092915050565b60006107948383610615565b6107ed5782600001829080600181540180825580915050600190039060005260206000200160009091909190915055826000018054905083600101600084815260200190815260200160002081905550600190506107f2565b600090505b92915050565b600080fd5b600080fd5b6000819050919050565b61081581610802565b811461082057600080fd5b50565b6000813590506108328161080c565b92915050565b60006020828403121561084e5761084d6107f8565b5b600061085c84828501610823565b91505092915050565b60008115159050919050565b61087a81610865565b82525050565b60006020820190506108956000830184610871565b92915050565b6000819050919050565b6108ae8161089b565b82525050565b60006020820190506108c960008301846108a5565b92915050565b600080fd5b600080fd5b600080fd5b60008083601f8401126108f4576108f36108cf565b5b8235905067ffffffffffffffff811115610911576109106108d4565b5b60208301915083600182028301111561092d5761092c6108d9565b5b9250929050565b60008060006040848603121561094d5761094c6107f8565b5b600061095b86828701610823565b935050602084013567ffffffffffffffff81111561097c5761097b6107fd565b5b610988868287016108de565b92509250509250925092565b61099d81610802565b82525050565b60006020820190506109b86000830184610994565b92915050565b60006040820190506109d36000830185610871565b6109e06020830184610994565b9392505050565b6109f08161089b565b81146109fb57600080fd5b50565b600081359050610a0d816109e7565b92915050565b600060208284031215610a2957610a286107f8565b5b6000610a37848285016109fe565b91505092915050565b6000604082019050610a556000830185610994565b610a626020830184610994565b9392505050565b60008060408385031215610a8057610a7f6107f8565b5b6000610a8e85828601610823565b9250506020610a9f85828601610823565b9150509250929050565b600081519050919050565b600082825260208201905092915050565b60005b83811015610ae3578082015181840152602081019050610ac8565b83811115610af2576000848401525b50505050565b6000601f19601f8301169050919050565b6000610b1482610aa9565b610b1e8185610ab4565b9350610b2e818560208601610ac5565b610b3781610af8565b840191505092915050565b60006020820190508181036000830152610b5c8184610b09565b905092915050565b7f456e756d657261626c654d61703a206e6f6e6578697374656e74206b65790000600082015250565b6000610b9a601e83610ab4565b9150610ba582610b64565b602082019050919050565b60006020820190508181036000830152610bc981610b8d565b9050919050565b7f4e487b7100000000000000000000000000000000000000000000000000000000600052601160045260246000fd5b6000610c0a8261089b565b9150610c158361089b565b925082821015610c2857610c27610bd0565b5b828203905092915050565b7f4e487b7100000000000000000000000000000000000000000000000000000000600052603260045260246000fd5b7f4e487b7100000000000000000000000000000000000000000000000000000000600052603160045260246000fdfea2646970667358221220867aca92aff66facde5e5f2881abd213421a17e720ae634a127d765b48100b4764736f6c63430008090033",
  "linkReferences": {},
  "deployedLinkReferences": {}
}