{
  "_format": "hh-sol-artifact-1",
  "contractName": "UintToAddressMapMock",
  "sourceName": "contracts/openzeppelin/mocks/EnumerableMapMock.sol",
  "abi": [
    {
      "anonymous": false,
      "inputs": [
        {
          "indexed": false,
          "internalType": "bool",
          "name": "result",
          "type": "bool"
        }
      ],
      "name": "OperationResult",
      "type": "event"
    },
    {
      "inputs": [
        {
          "internalType": "uint256",
          "name": "index",
          "type": "uint256"
        }
      ],
      "name": "at",
      "outputs": [
        {
          "internalType": "uint256",
          "name": "key",
          "type": "uint256"
        },
        {
          "internalType": "address",
          "name": "value",
          "type": "address"
        }
      ],
      "stateMutability": "view",
      "type": "function"
    },
    {
      "inputs": [
        {
          "internalType": "uint256",
          "name": "key",
          "type": "uint256"
        }
      ],
      "name": "contains",
      "outputs": [
        {
          "internalType": "bool",
          "name": "",
          "type": "bool"
        }
      ],
      "stateMutability": "view",
      "type": "function"
    },
    {
      "inputs": [
        {
          "internalType": "uint256",
          "name": "key",
          "type": "uint256"
        }
      ],
      "name": "get",
      "outputs": [
        {
          "internalType": "address",
          "name": "",
          "type": "address"
        }
      ],
      "stateMutability": "view",
      "type": "function"
    },
    {
      "inputs": [
        {
          "internalType": "uint256",
          "name": "key",
          "type": "uint256"
        },
        {
          "internalType": "string",
          "name": "errorMessage",
          "type": "string"
        }
      ],
      "name": "getWithMessage",
      "outputs": [
        {
          "internalType": "address",
          "name": "",
          "type": "address"
        }
      ],
      "stateMutability": "view",
      "type": "function"
    },
    {
      "inputs": [],
      "name": "length",
      "outputs": [
        {
          "internalType": "uint256",
          "name": "",
          "type": "uint256"
        }
      ],
      "stateMutability": "view",
      "type": "function"
    },
    {
      "inputs": [
        {
          "internalType": "uint256",
          "name": "key",
          "type": "uint256"
        }
      ],
      "name": "remove",
      "outputs": [],
      "stateMutability": "nonpayable",
      "type": "function"
    },
    {
      "inputs": [
        {
          "internalType": "uint256",
          "name": "key",
          "type": "uint256"
        },
        {
          "internalType": "address",
          "name": "value",
          "type": "address"
        }
      ],
      "name": "set",
      "outputs": [],
      "stateMutability": "nonpayable",
      "type": "function"
    },
    {
      "inputs": [
        {
          "internalType": "uint256",
          "name": "key",
          "type": "uint256"
        }
      ],
      "name": "tryGet",
      "outputs": [
        {
          "internalType": "bool",
          "name": "",
          "type": "bool"
        },
        {
          "internalType": "address",
          "name": "",
          "type": "address"
        }
      ],
      "stateMutability": "view",
      "type": "function"
    }
  ],
  "bytecode": "0x608060405234801561001057600080fd5b50610dd4806100206000396000f3fe608060405234801561001057600080fd5b50600436106100885760003560e01c80639507d39a1161005b5780639507d39a14610114578063c051a3a614610144578063c34052e014610174578063e0886f90146101a457610088565b80631f7b6d321461008d5780632f30c6f6146100ab5780634cc82215146100c7578063871394d9146100e3575b600080fd5b6100956101d5565b6040516100a29190610923565b60405180910390f35b6100c560048036038101906100c091906109d2565b6101e6565b005b6100e160048036038101906100dc9190610a12565b61023c565b005b6100fd60048036038101906100f89190610a12565b61028f565b60405161010b929190610a69565b60405180910390f35b61012e60048036038101906101299190610a12565b6102af565b60405161013b9190610a92565b60405180910390f35b61015e60048036038101906101599190610b12565b6102cc565b60405161016b9190610a92565b60405180910390f35b61018e60048036038101906101899190610a12565b610331565b60405161019b9190610b72565b60405180910390f35b6101be60048036038101906101b99190610a12565b61034e565b6040516101cc929190610b8d565b60405180910390f35b60006101e1600061036e565b905090565b60006101fe838360006103839092919063ffffffff16565b90507fed9840e0775590557ad736875d96c95cf1458b766335f74339951a32c82a9e338160405161022f9190610b72565b60405180910390a1505050565b60006102528260006103b890919063ffffffff16565b90507fed9840e0775590557ad736875d96c95cf1458b766335f74339951a32c82a9e33816040516102839190610b72565b60405180910390a15050565b6000806102a68360006103d290919063ffffffff16565b91509150915091565b60006102c58260006103fe90919063ffffffff16565b9050919050565b60006103288484848080601f016020809104026020016040519081016040528093929190818152602001838380828437600081840152601f19601f82011690508083019250505050505050600061041b9092919063ffffffff16565b90509392505050565b600061034782600061043a90919063ffffffff16565b9050919050565b60008061036583600061045490919063ffffffff16565b91509150915091565b600061037c82600001610480565b9050919050565b60006103af846000018460001b8473ffffffffffffffffffffffffffffffffffffffff1660001b610495565b90509392505050565b60006103ca836000018360001b6104d0565b905092915050565b6000806000806103e8866000018660001b610509565b91509150818160001c9350935050509250929050565b6000610410836000018360001b610559565b60001c905092915050565b600061042e846000018460001b846105d5565b60001c90509392505050565b600061044c836000018360001b610656565b905092915050565b6000806000806104678660000186610676565b915091508160001c8160001c9350935050509250929050565b600061048e826000016106b6565b9050919050565b600081846002016000858152602001908152602001600020819055506104c783856000016106cb90919063ffffffff16565b90509392505050565b60008260020160008381526020019081526020016000206000905561050182846000016106e290919063ffffffff16565b905092915050565b60008060008460020160008581526020019081526020016000205490506000801b8114156105495761053b8585610656565b6000801b9250925050610552565b60018192509250505b9250929050565b6000808360020160008481526020019081526020016000205490506000801b8114158061058c575061058b8484610656565b5b6105cb576040517f08c379a00000000000000000000000000000000000000000000000000000000081526004016105c290610c13565b60405180910390fd5b8091505092915050565b6000808460020160008581526020019081526020016000205490506000801b8114158061060857506106078585610656565b5b839061064a576040517f08c379a00000000000000000000000000000000000000000000000000000000081526004016106419190610cbb565b60405180910390fd5b50809150509392505050565b600061066e82846000016106f990919063ffffffff16565b905092915050565b6000806000610691848660000161071090919063ffffffff16565b9050808560020160008381526020019081526020016000205492509250509250929050565b60006106c482600001610727565b9050919050565b60006106da8360000183610738565b905092915050565b60006106f183600001836107a8565b905092915050565b600061070883600001836108bc565b905092915050565b600061071f83600001836108df565b905092915050565b600081600001805490509050919050565b600061074483836108bc565b61079d5782600001829080600181540180825580915050600190039060005260206000200160009091909190915055826000018054905083600101600084815260200190815260200160002081905550600190506107a2565b600090505b92915050565b600080836001016000848152602001908152602001600020549050600081146108b05760006001826107da9190610d0c565b90506000600186600001805490506107f29190610d0c565b905081811461086157600086600001828154811061081357610812610d40565b5b906000526020600020015490508087600001848154811061083757610836610d40565b5b90600052602060002001819055508387600101600083815260200190815260200160002081905550505b8560000180548061087557610874610d6f565b5b6001900381819060005260206000200160009055905585600101600086815260200190815260200160002060009055600193505050506108b6565b60009150505b92915050565b600080836001016000848152602001908152602001600020541415905092915050565b60008260000182815481106108f7576108f6610d40565b5b9060005260206000200154905092915050565b6000819050919050565b61091d8161090a565b82525050565b60006020820190506109386000830184610914565b92915050565b600080fd5b600080fd5b6109518161090a565b811461095c57600080fd5b50565b60008135905061096e81610948565b92915050565b600073ffffffffffffffffffffffffffffffffffffffff82169050919050565b600061099f82610974565b9050919050565b6109af81610994565b81146109ba57600080fd5b50565b6000813590506109cc816109a6565b92915050565b600080604083850312156109e9576109e861093e565b5b60006109f78582860161095f565b9250506020610a08858286016109bd565b9150509250929050565b600060208284031215610a2857610a2761093e565b5b6000610a368482850161095f565b91505092915050565b60008115159050919050565b610a5481610a3f565b82525050565b610a6381610994565b82525050565b6000604082019050610a7e6000830185610a4b565b610a8b6020830184610a5a565b9392505050565b6000602082019050610aa76000830184610a5a565b92915050565b600080fd5b600080fd5b600080fd5b60008083601f840112610ad257610ad1610aad565b5b8235905067ffffffffffffffff811115610aef57610aee610ab2565b5b602083019150836001820283011115610b0b57610b0a610ab7565b5b9250929050565b600080600060408486031215610b2b57610b2a61093e565b5b6000610b398682870161095f565b935050602084013567ffffffffffffffff811115610b5a57610b59610943565b5b610b6686828701610abc565b92509250509250925092565b6000602082019050610b876000830184610a4b565b92915050565b6000604082019050610ba26000830185610914565b610baf6020830184610a5a565b9392505050565b600082825260208201905092915050565b7f456e756d657261626c654d61703a206e6f6e6578697374656e74206b65790000600082015250565b6000610bfd601e83610bb6565b9150610c0882610bc7565b602082019050919050565b60006020820190508181036000830152610c2c81610bf0565b9050919050565b600081519050919050565b60005b83811015610c5c578082015181840152602081019050610c41565b83811115610c6b576000848401525b50505050565b6000601f19601f8301169050919050565b6000610c8d82610c33565b610c978185610bb6565b9350610ca7818560208601610c3e565b610cb081610c71565b840191505092915050565b60006020820190508181036000830152610cd58184610c82565b905092915050565b7f4e487b7100000000000000000000000000000000000000000000000000000000600052601160045260246000fd5b6000610d178261090a565b9150610d228361090a565b925082821015610d3557610d34610cdd565b5b828203905092915050565b7f4e487b7100000000000000000000000000000000000000000000000000000000600052603260045260246000fd5b7f4e487b7100000000000000000000000000000000000000000000000000000000600052603160045260246000fdfea264697066735822122022421661b96625ad7f03ee72da79284b7ce285a6fd33739f5a2f4af69f2f476a64736f6c63430008090033",
  "linkReferences": {},
  "deployedLinkReferences": {}
}