{
  "_format": "hh-sol-artifact-1",
  "contractName": "ERC4626DecimalMock",
  "sourceName": "contracts/openzeppelin/mocks/ERC4626Mock.sol",
  "abi": [
    {
      "inputs": [
        {
          "internalType": "contract IERC20Metadata",
          "name": "asset",
          "type": "address"
        },
        {
          "internalType": "string",
          "name": "name",
          "type": "string"
        },
        {
          "internalType": "string",
          "name": "symbol",
          "type": "string"
        },
        {
          "internalType": "uint8",
          "name": "decimalsOverride",
          "type": "uint8"
        }
      ],
      "stateMutability": "nonpayable",
      "type": "constructor"
    },
    {
      "anonymous": false,
      "inputs": [
        {
          "indexed": true,
          "internalType": "address",
          "name": "owner",
          "type": "address"
        },
        {
          "indexed": true,
          "internalType": "address",
          "name": "spender",
          "type": "address"
        },
        {
          "indexed": false,
          "internalType": "uint256",
          "name": "value",
          "type": "uint256"
        }
      ],
      "name": "Approval",
      "type": "event"
    },
    {
      "anonymous": false,
      "inputs": [
        {
          "indexed": true,
          "internalType": "address",
          "name": "sender",
          "type": "address"
        },
        {
          "indexed": true,
          "internalType": "address",
          "name": "owner",
          "type": "address"
        },
        {
          "indexed": false,
          "internalType": "uint256",
          "name": "assets",
          "type": "uint256"
        },
        {
          "indexed": false,
          "internalType": "uint256",
          "name": "shares",
          "type": "uint256"
        }
      ],
      "name": "Deposit",
      "type": "event"
    },
    {
      "anonymous": false,
      "inputs": [
        {
          "indexed": true,
          "internalType": "address",
          "name": "from",
          "type": "address"
        },
        {
          "indexed": true,
          "internalType": "address",
          "name": "to",
          "type": "address"
        },
        {
          "indexed": false,
          "internalType": "uint256",
          "name": "value",
          "type": "uint256"
        }
      ],
      "name": "Transfer",
      "type": "event"
    },
    {
      "anonymous": false,
      "inputs": [
        {
          "indexed": true,
          "internalType": "address",
          "name": "sender",
          "type": "address"
        },
        {
          "indexed": true,
          "internalType": "address",
          "name": "receiver",
          "type": "address"
        },
        {
          "indexed": true,
          "internalType": "address",
          "name": "owner",
          "type": "address"
        },
        {
          "indexed": false,
          "internalType": "uint256",
          "name": "assets",
          "type": "uint256"
        },
        {
          "indexed": false,
          "internalType": "uint256",
          "name": "shares",
          "type": "uint256"
        }
      ],
      "name": "Withdraw",
      "type": "event"
    },
    {
      "inputs": [
        {
          "internalType": "address",
          "name": "owner",
          "type": "address"
        },
        {
          "internalType": "address",
          "name": "spender",
          "type": "address"
        }
      ],
      "name": "allowance",
      "outputs": [
        {
          "internalType": "uint256",
          "name": "",
          "type": "uint256"
        }
      ],
      "stateMutability": "view",
      "type": "function"
    },
    {
      "inputs": [
        {
          "internalType": "address",
          "name": "spender",
          "type": "address"
        },
        {
          "internalType": "uint256",
          "name": "amount",
          "type": "uint256"
        }
      ],
      "name": "approve",
      "outputs": [
        {
          "internalType": "bool",
          "name": "",
          "type": "bool"
        }
      ],
      "stateMutability": "nonpayable",
      "type": "function"
    },
    {
      "inputs": [],
      "name": "asset",
      "outputs": [
        {
          "internalType": "address",
          "name": "",
          "type": "address"
        }
      ],
      "stateMutability": "view",
      "type": "function"
    },
    {
      "inputs": [
        {
          "internalType": "address",
          "name": "account",
          "type": "address"
        }
      ],
      "name": "balanceOf",
      "outputs": [
        {
          "internalType": "uint256",
          "name": "",
          "type": "uint256"
        }
      ],
      "stateMutability": "view",
      "type": "function"
    },
    {
      "inputs": [
        {
          "internalType": "uint256",
          "name": "shares",
          "type": "uint256"
        }
      ],
      "name": "convertToAssets",
      "outputs": [
        {
          "internalType": "uint256",
          "name": "",
          "type": "uint256"
        }
      ],
      "stateMutability": "view",
      "type": "function"
    },
    {
      "inputs": [
        {
          "internalType": "uint256",
          "name": "assets",
          "type": "uint256"
        }
      ],
      "name": "convertToShares",
      "outputs": [
        {
          "internalType": "uint256",
          "name": "",
          "type": "uint256"
        }
      ],
      "stateMutability": "view",
      "type": "function"
    },
    {
      "inputs": [],
      "name": "decimals",
      "outputs": [
        {
          "internalType": "uint8",
          "name": "",
          "type": "uint8"
        }
      ],
      "stateMutability": "view",
      "type": "function"
    },
    {
      "inputs": [
        {
          "internalType": "address",
          "name": "spender",
          "type": "address"
        },
        {
          "internalType": "uint256",
          "name": "subtractedValue",
          "type": "uint256"
        }
      ],
      "name": "decreaseAllowance",
      "outputs": [
        {
          "internalType": "bool",
          "name": "",
          "type": "bool"
        }
      ],
      "stateMutability": "nonpayable",
      "type": "function"
    },
    {
      "inputs": [
        {
          "internalType": "uint256",
          "name": "assets",
          "type": "uint256"
        },
        {
          "internalType": "address",
          "name": "receiver",
          "type": "address"
        }
      ],
      "name": "deposit",
      "outputs": [
        {
          "internalType": "uint256",
          "name": "",
          "type": "uint256"
        }
      ],
      "stateMutability": "nonpayable",
      "type": "function"
    },
    {
      "inputs": [
        {
          "internalType": "address",
          "name": "spender",
          "type": "address"
        },
        {
          "internalType": "uint256",
          "name": "addedValue",
          "type": "uint256"
        }
      ],
      "name": "increaseAllowance",
      "outputs": [
        {
          "internalType": "bool",
          "name": "",
          "type": "bool"
        }
      ],
      "stateMutability": "nonpayable",
      "type": "function"
    },
    {
      "inputs": [
        {
          "internalType": "address",
          "name": "",
          "type": "address"
        }
      ],
      "name": "maxDeposit",
      "outputs": [
        {
          "internalType": "uint256",
          "name": "",
          "type": "uint256"
        }
      ],
      "stateMutability": "view",
      "type": "function"
    },
    {
      "inputs": [
        {
          "internalType": "address",
          "name": "",
          "type": "address"
        }
      ],
      "name": "maxMint",
      "outputs": [
        {
          "internalType": "uint256",
          "name": "",
          "type": "uint256"
        }
      ],
      "stateMutability": "view",
      "type": "function"
    },
    {
      "inputs": [
        {
          "internalType": "address",
          "name": "owner",
          "type": "address"
        }
      ],
      "name": "maxRedeem",
      "outputs": [
        {
          "internalType": "uint256",
          "name": "",
          "type": "uint256"
        }
      ],
      "stateMutability": "view",
      "type": "function"
    },
    {
      "inputs": [
        {
          "internalType": "address",
          "name": "owner",
          "type": "address"
        }
      ],
      "name": "maxWithdraw",
      "outputs": [
        {
          "internalType": "uint256",
          "name": "",
          "type": "uint256"
        }
      ],
      "stateMutability": "view",
      "type": "function"
    },
    {
      "inputs": [
        {
          "internalType": "uint256",
          "name": "shares",
          "type": "uint256"
        },
        {
          "internalType": "address",
          "name": "receiver",
          "type": "address"
        }
      ],
      "name": "mint",
      "outputs": [
        {
          "internalType": "uint256",
          "name": "",
          "type": "uint256"
        }
      ],
      "stateMutability": "nonpayable",
      "type": "function"
    },
    {
      "inputs": [
        {
          "internalType": "address",
          "name": "account",
          "type": "address"
        },
        {
          "internalType": "uint256",
          "name": "amount",
          "type": "uint256"
        }
      ],
      "name": "mockBurn",
      "outputs": [],
      "stateMutability": "nonpayable",
      "type": "function"
    },
    {
      "inputs": [
        {
          "internalType": "address",
          "name": "account",
          "type": "address"
        },
        {
          "internalType": "uint256",
          "name": "amount",
          "type": "uint256"
        }
      ],
      "name": "mockMint",
      "outputs": [],
      "stateMutability": "nonpayable",
      "type": "function"
    },
    {
      "inputs": [],
      "name": "name",
      "outputs": [
        {
          "internalType": "string",
          "name": "",
          "type": "string"
        }
      ],
      "stateMutability": "view",
      "type": "function"
    },
    {
      "inputs": [
        {
          "internalType": "uint256",
          "name": "assets",
          "type": "uint256"
        }
      ],
      "name": "previewDeposit",
      "outputs": [
        {
          "internalType": "uint256",
          "name": "",
          "type": "uint256"
        }
      ],
      "stateMutability": "view",
      "type": "function"
    },
    {
      "inputs": [
        {
          "internalType": "uint256",
          "name": "shares",
          "type": "uint256"
        }
      ],
      "name": "previewMint",
      "outputs": [
        {
          "internalType": "uint256",
          "name": "",
          "type": "uint256"
        }
      ],
      "stateMutability": "view",
      "type": "function"
    },
    {
      "inputs": [
        {
          "internalType": "uint256",
          "name": "shares",
          "type": "uint256"
        }
      ],
      "name": "previewRedeem",
      "outputs": [
        {
          "internalType": "uint256",
          "name": "",
          "type": "uint256"
        }
      ],
      "stateMutability": "view",
      "type": "function"
    },
    {
      "inputs": [
        {
          "internalType": "uint256",
          "name": "assets",
          "type": "uint256"
        }
      ],
      "name": "previewWithdraw",
      "outputs": [
        {
          "internalType": "uint256",
          "name": "",
          "type": "uint256"
        }
      ],
      "stateMutability": "view",
      "type": "function"
    },
    {
      "inputs": [
        {
          "internalType": "uint256",
          "name": "shares",
          "type": "uint256"
        },
        {
          "internalType": "address",
          "name": "receiver",
          "type": "address"
        },
        {
          "internalType": "address",
          "name": "owner",
          "type": "address"
        }
      ],
      "name": "redeem",
      "outputs": [
        {
          "internalType": "uint256",
          "name": "",
          "type": "uint256"
        }
      ],
      "stateMutability": "nonpayable",
      "type": "function"
    },
    {
      "inputs": [],
      "name": "symbol",
      "outputs": [
        {
          "internalType": "string",
          "name": "",
          "type": "string"
        }
      ],
      "stateMutability": "view",
      "type": "function"
    },
    {
      "inputs": [],
      "name": "totalAssets",
      "outputs": [
        {
          "internalType": "uint256",
          "name": "",
          "type": "uint256"
        }
      ],
      "stateMutability": "view",
      "type": "function"
    },
    {
      "inputs": [],
      "name": "totalSupply",
      "outputs": [
        {
          "internalType": "uint256",
          "name": "",
          "type": "uint256"
        }
      ],
      "stateMutability": "view",
      "type": "function"
    },
    {
      "inputs": [
        {
          "internalType": "address",
          "name": "to",
          "type": "address"
        },
        {
          "internalType": "uint256",
          "name": "amount",
          "type": "uint256"
        }
      ],
      "name": "transfer",
      "outputs": [
        {
          "internalType": "bool",
          "name": "",
          "type": "bool"
        }
      ],
      "stateMutability": "nonpayable",
      "type": "function"
    },
    {
      "inputs": [
        {
          "internalType": "address",
          "name": "from",
          "type": "address"
        },
        {
          "internalType": "address",
          "name": "to",
          "type": "address"
        },
        {
          "internalType": "uint256",
          "name": "amount",
          "type": "uint256"
        }
      ],
      "name": "transferFrom",
      "outputs": [
        {
          "internalType": "bool",
          "name": "",
          "type": "bool"
        }
      ],
      "stateMutability": "nonpayable",
      "type": "function"
    },
    {
      "inputs": [
        {
          "internalType": "uint256",
          "name": "assets",
          "type": "uint256"
        },
        {
          "internalType": "address",
          "name": "receiver",
          "type": "address"
        },
        {
          "internalType": "address",
          "name": "owner",
          "type": "address"
        }
      ],
      "name": "withdraw",
      "outputs": [
        {
          "internalType": "uint256",
          "name": "",
          "type": "uint256"
        }
      ],
      "stateMutability": "nonpayable",
      "type": "function"
    }
  ],
  "bytecode": "0x60e06040523480156200001157600080fd5b506040516200366f3803806200366f833981810160405281019062000037919062000554565b83838382828281600390805190602001906200005592919062000250565b5080600490805190602001906200006e92919062000250565b50505060008062000085836200010b60201b60201c565b9150915081620000aa57620000a46200024760201b62000dda1760201c565b620000ac565b805b60ff1660a08160ff16815250508273ffffffffffffffffffffffffffffffffffffffff1660808173ffffffffffffffffffffffffffffffffffffffff16815250505050505050508060ff1660c08160ff1681525050505050506200073c565b6000806000808473ffffffffffffffffffffffffffffffffffffffff1663313ce56760e01b604051602401604051602081830303815290604052907bffffffffffffffffffffffffffffffffffffffffffffffffffffffff19166020820180517bffffffffffffffffffffffffffffffffffffffffffffffffffffffff8381831617835250505050604051620001a2919062000651565b6000604051808303816000865af19150503d8060008114620001e1576040519150601f19603f3d011682016040523d82523d6000602084013e620001e6565b606091505b5091509150818015620001fb57506020815110155b156200023857600081806020019051810190620002199190620006a5565b905060ff8016811162000236576001819450945050505062000242565b505b6000809350935050505b915091565b60006012905090565b8280546200025e9062000706565b90600052602060002090601f016020900481019282620002825760008555620002ce565b82601f106200029d57805160ff1916838001178555620002ce565b82800160010185558215620002ce579182015b82811115620002cd578251825591602001919060010190620002b0565b5b509050620002dd9190620002e1565b5090565b5b80821115620002fc576000816000905550600101620002e2565b5090565b6000604051905090565b600080fd5b600080fd5b600073ffffffffffffffffffffffffffffffffffffffff82169050919050565b6000620003418262000314565b9050919050565b6000620003558262000334565b9050919050565b620003678162000348565b81146200037357600080fd5b50565b60008151905062000387816200035c565b92915050565b600080fd5b600080fd5b6000601f19601f8301169050919050565b7f4e487b7100000000000000000000000000000000000000000000000000000000600052604160045260246000fd5b620003e28262000397565b810181811067ffffffffffffffff82111715620004045762000403620003a8565b5b80604052505050565b60006200041962000300565b9050620004278282620003d7565b919050565b600067ffffffffffffffff8211156200044a5762000449620003a8565b5b620004558262000397565b9050602081019050919050565b60005b838110156200048257808201518184015260208101905062000465565b8381111562000492576000848401525b50505050565b6000620004af620004a9846200042c565b6200040d565b905082815260208101848484011115620004ce57620004cd62000392565b5b620004db84828562000462565b509392505050565b600082601f830112620004fb57620004fa6200038d565b5b81516200050d84826020860162000498565b91505092915050565b600060ff82169050919050565b6200052e8162000516565b81146200053a57600080fd5b50565b6000815190506200054e8162000523565b92915050565b600080600080608085870312156200057157620005706200030a565b5b6000620005818782880162000376565b945050602085015167ffffffffffffffff811115620005a557620005a46200030f565b5b620005b387828801620004e3565b935050604085015167ffffffffffffffff811115620005d757620005d66200030f565b5b620005e587828801620004e3565b9250506060620005f8878288016200053d565b91505092959194509250565b600081519050919050565b600081905092915050565b6000620006278262000604565b6200063381856200060f565b93506200064581856020860162000462565b80840191505092915050565b60006200065f82846200061a565b915081905092915050565b6000819050919050565b6200067f816200066a565b81146200068b57600080fd5b50565b6000815190506200069f8162000674565b92915050565b600060208284031215620006be57620006bd6200030a565b5b6000620006ce848285016200068e565b91505092915050565b7f4e487b7100000000000000000000000000000000000000000000000000000000600052602260045260246000fd5b600060028204905060018216806200071f57607f821691505b60208210811415620007365762000735620006d7565b5b50919050565b60805160a05160c051612eee62000781600039600061087a01526000611b3e0152600081816106b4015281816108b0015281816116aa01526117960152612eee6000f3fe608060405234801561001057600080fd5b50600436106101cf5760003560e01c80636e553f6511610104578063b460af94116100a2578063ce96cb7711610071578063ce96cb77146105f0578063d905777e14610620578063dd62ed3e14610650578063ef8b30f714610680576101cf565b8063b460af9414610530578063ba08765214610560578063c63d75b614610590578063c6e6f592146105c0576101cf565b806395d89b41116100de57806395d89b4114610482578063a457c2d7146104a0578063a9059cbb146104d0578063b3d7f6b914610500576101cf565b80636e553f65146103f257806370a082311461042257806394bf804d14610452576101cf565b8063313ce56711610171578063395093511161014b5780633950935114610346578063402d267d14610376578063492dc938146103a65780634cdad506146103c2576101cf565b8063313ce567146102ee578063378934b41461030c57806338d52e0f14610328576101cf565b8063095ea7b3116101ad578063095ea7b3146102405780630a28a4771461027057806318160ddd146102a057806323b872dd146102be576101cf565b806301e1d114146101d457806306fdde03146101f257806307a2d13a14610210575b600080fd5b6101dc6106b0565b6040516101e99190611e10565b60405180910390f35b6101fa610760565b6040516102079190611ec4565b60405180910390f35b61022a60048036038101906102259190611f17565b6107f2565b6040516102379190611e10565b60405180910390f35b61025a60048036038101906102559190611fa2565b610806565b6040516102679190611ffd565b60405180910390f35b61028a60048036038101906102859190611f17565b610829565b6040516102979190611e10565b60405180910390f35b6102a861083d565b6040516102b59190611e10565b60405180910390f35b6102d860048036038101906102d39190612018565b610847565b6040516102e59190611ffd565b60405180910390f35b6102f6610876565b6040516103039190612087565b60405180910390f35b61032660048036038101906103219190611fa2565b61089e565b005b6103306108ac565b60405161033d91906120b1565b60405180910390f35b610360600480360381019061035b9190611fa2565b6108d4565b60405161036d9190611ffd565b60405180910390f35b610390600480360381019061038b91906120cc565b61090b565b60405161039d9190611e10565b60405180910390f35b6103c060048036038101906103bb9190611fa2565b610949565b005b6103dc60048036038101906103d79190611f17565b610957565b6040516103e99190611e10565b60405180910390f35b61040c600480360381019061040791906120f9565b61096b565b6040516104199190611e10565b60405180910390f35b61043c600480360381019061043791906120cc565b6109e2565b6040516104499190611e10565b60405180910390f35b61046c600480360381019061046791906120f9565b610a2a565b6040516104799190611e10565b60405180910390f35b61048a610aa1565b6040516104979190611ec4565b60405180910390f35b6104ba60048036038101906104b59190611fa2565b610b33565b6040516104c79190611ffd565b60405180910390f35b6104ea60048036038101906104e59190611fa2565b610baa565b6040516104f79190611ffd565b60405180910390f35b61051a60048036038101906105159190611f17565b610bcd565b6040516105279190611e10565b60405180910390f35b61054a60048036038101906105459190612139565b610be1565b6040516105579190611e10565b60405180910390f35b61057a60048036038101906105759190612139565b610c5a565b6040516105879190611e10565b60405180910390f35b6105aa60048036038101906105a591906120cc565b610cd3565b6040516105b79190611e10565b60405180910390f35b6105da60048036038101906105d59190611f17565b610cfd565b6040516105e79190611e10565b60405180910390f35b61060a600480360381019061060591906120cc565b610d11565b6040516106179190611e10565b60405180910390f35b61063a600480360381019061063591906120cc565b610d2d565b6040516106479190611e10565b60405180910390f35b61066a6004803603810190610665919061218c565b610d3f565b6040516106779190611e10565b60405180910390f35b61069a60048036038101906106959190611f17565b610dc6565b6040516106a79190611e10565b60405180910390f35b60007f000000000000000000000000000000000000000000000000000000000000000073ffffffffffffffffffffffffffffffffffffffff166370a08231306040518263ffffffff1660e01b815260040161070b91906120b1565b60206040518083038186803b15801561072357600080fd5b505afa158015610737573d6000803e3d6000fd5b505050506040513d601f19601f8201168201806040525081019061075b91906121e1565b905090565b60606003805461076f9061223d565b80601f016020809104026020016040519081016040528092919081815260200182805461079b9061223d565b80156107e85780601f106107bd576101008083540402835291602001916107e8565b820191906000526020600020905b8154815290600101906020018083116107cb57829003601f168201915b5050505050905090565b60006107ff826000610de3565b9050919050565b600080610811610e2f565b905061081e818585610e37565b600191505092915050565b6000610836826001611002565b9050919050565b6000600254905090565b600080610852610e2f565b905061085f858285611059565b61086a8585856110e5565b60019150509392505050565b60007f0000000000000000000000000000000000000000000000000000000000000000905090565b6108a8828261135d565b5050565b60007f0000000000000000000000000000000000000000000000000000000000000000905090565b6000806108df610e2f565b90506109008185856108f18589610d3f565b6108fb919061229e565b610e37565b600191505092915050565b60006109156114b4565b610920576000610942565b7fffffffffffffffffffffffffffffffffffffffffffffffffffffffffffffffff5b9050919050565b61095382826114d7565b5050565b6000610964826000610de3565b9050919050565b60006109768261090b565b8311156109b8576040517f08c379a00000000000000000000000000000000000000000000000000000000081526004016109af90612340565b60405180910390fd5b60006109c384610dc6565b90506109d86109d0610e2f565b8486846116a5565b8091505092915050565b60008060008373ffffffffffffffffffffffffffffffffffffffff1673ffffffffffffffffffffffffffffffffffffffff168152602001908152602001600020549050919050565b6000610a3582610cd3565b831115610a77576040517f08c379a0000000000000000000000000000000000000000000000000000000008152600401610a6e906123ac565b60405180910390fd5b6000610a8284610bcd565b9050610a97610a8f610e2f565b8483876116a5565b8091505092915050565b606060048054610ab09061223d565b80601f0160208091040260200160405190810160405280929190818152602001828054610adc9061223d565b8015610b295780601f10610afe57610100808354040283529160200191610b29565b820191906000526020600020905b815481529060010190602001808311610b0c57829003601f168201915b5050505050905090565b600080610b3e610e2f565b90506000610b4c8286610d3f565b905083811015610b91576040517f08c379a0000000000000000000000000000000000000000000000000000000008152600401610b889061243e565b60405180910390fd5b610b9e8286868403610e37565b60019250505092915050565b600080610bb5610e2f565b9050610bc28185856110e5565b600191505092915050565b6000610bda826001610de3565b9050919050565b6000610bec82610d11565b841115610c2e576040517f08c379a0000000000000000000000000000000000000000000000000000000008152600401610c25906124aa565b60405180910390fd5b6000610c3985610829565b9050610c4f610c46610e2f565b85858885611748565b809150509392505050565b6000610c6582610d2d565b841115610ca7576040517f08c379a0000000000000000000000000000000000000000000000000000000008152600401610c9e90612516565b60405180910390fd5b6000610cb285610957565b9050610cc8610cbf610e2f565b85858489611748565b809150509392505050565b60007fffffffffffffffffffffffffffffffffffffffffffffffffffffffffffffffff9050919050565b6000610d0a826000611002565b9050919050565b6000610d26610d1f836109e2565b6000610de3565b9050919050565b6000610d38826109e2565b9050919050565b6000600160008473ffffffffffffffffffffffffffffffffffffffff1673ffffffffffffffffffffffffffffffffffffffff16815260200190815260200160002060008373ffffffffffffffffffffffffffffffffffffffff1673ffffffffffffffffffffffffffffffffffffffff16815260200190815260200160002054905092915050565b6000610dd3826000611002565b9050919050565b60006012905090565b600080610dee61083d565b905060008114610e1b57610e16610e036106b0565b828587611841909392919063ffffffff16565b610e26565b610e2584846118b7565b5b91505092915050565b600033905090565b600073ffffffffffffffffffffffffffffffffffffffff168373ffffffffffffffffffffffffffffffffffffffff161415610ea7576040517f08c379a0000000000000000000000000000000000000000000000000000000008152600401610e9e906125a8565b60405180910390fd5b600073ffffffffffffffffffffffffffffffffffffffff168273ffffffffffffffffffffffffffffffffffffffff161415610f17576040517f08c379a0000000000000000000000000000000000000000000000000000000008152600401610f0e9061263a565b60405180910390fd5b80600160008573ffffffffffffffffffffffffffffffffffffffff1673ffffffffffffffffffffffffffffffffffffffff16815260200190815260200160002060008473ffffffffffffffffffffffffffffffffffffffff1673ffffffffffffffffffffffffffffffffffffffff168152602001908152602001600020819055508173ffffffffffffffffffffffffffffffffffffffff168373ffffffffffffffffffffffffffffffffffffffff167f8c5be1e5ebec7d5bd14f71427d1e84f3dd0314c0f7b2291e5b200ac8c7c3b92583604051610ff59190611e10565b60405180910390a3505050565b60008061100d61083d565b9050600084148061101e5750600081145b611045576110408161102e6106b0565b8587611841909392919063ffffffff16565b611050565b61104f84846118fe565b5b91505092915050565b60006110658484610d3f565b90507fffffffffffffffffffffffffffffffffffffffffffffffffffffffffffffffff81146110df57818110156110d1576040517f08c379a00000000000000000000000000000000000000000000000000000000081526004016110c8906126a6565b60405180910390fd5b6110de8484848403610e37565b5b50505050565b600073ffffffffffffffffffffffffffffffffffffffff168373ffffffffffffffffffffffffffffffffffffffff161415611155576040517f08c379a000000000000000000000000000000000000000000000000000000000815260040161114c90612738565b60405180910390fd5b600073ffffffffffffffffffffffffffffffffffffffff168273ffffffffffffffffffffffffffffffffffffffff1614156111c5576040517f08c379a00000000000000000000000000000000000000000000000000000000081526004016111bc906127ca565b60405180910390fd5b6111d0838383611945565b60008060008573ffffffffffffffffffffffffffffffffffffffff1673ffffffffffffffffffffffffffffffffffffffff16815260200190815260200160002054905081811015611256576040517f08c379a000000000000000000000000000000000000000000000000000000000815260040161124d9061285c565b60405180910390fd5b8181036000808673ffffffffffffffffffffffffffffffffffffffff1673ffffffffffffffffffffffffffffffffffffffff16815260200190815260200160002081905550816000808573ffffffffffffffffffffffffffffffffffffffff1673ffffffffffffffffffffffffffffffffffffffff168152602001908152602001600020600082825401925050819055508273ffffffffffffffffffffffffffffffffffffffff168473ffffffffffffffffffffffffffffffffffffffff167fddf252ad1be2c89b69c2b068fc378daa952ba7f163c4a11628f55a4df523b3ef846040516113449190611e10565b60405180910390a361135784848461194a565b50505050565b600073ffffffffffffffffffffffffffffffffffffffff168273ffffffffffffffffffffffffffffffffffffffff1614156113cd576040517f08c379a00000000000000000000000000000000000000000000000000000000081526004016113c4906128c8565b60405180910390fd5b6113d960008383611945565b80600260008282546113eb919061229e565b92505081905550806000808473ffffffffffffffffffffffffffffffffffffffff1673ffffffffffffffffffffffffffffffffffffffff168152602001908152602001600020600082825401925050819055508173ffffffffffffffffffffffffffffffffffffffff16600073ffffffffffffffffffffffffffffffffffffffff167fddf252ad1be2c89b69c2b068fc378daa952ba7f163c4a11628f55a4df523b3ef8360405161149c9190611e10565b60405180910390a36114b06000838361194a565b5050565b6000806114bf6106b0565b11806114d2575060006114d061083d565b145b905090565b600073ffffffffffffffffffffffffffffffffffffffff168273ffffffffffffffffffffffffffffffffffffffff161415611547576040517f08c379a000000000000000000000000000000000000000000000000000000000815260040161153e9061295a565b60405180910390fd5b61155382600083611945565b60008060008473ffffffffffffffffffffffffffffffffffffffff1673ffffffffffffffffffffffffffffffffffffffff168152602001908152602001600020549050818110156115d9576040517f08c379a00000000000000000000000000000000000000000000000000000000081526004016115d0906129ec565b60405180910390fd5b8181036000808573ffffffffffffffffffffffffffffffffffffffff1673ffffffffffffffffffffffffffffffffffffffff1681526020019081526020016000208190555081600260008282540392505081905550600073ffffffffffffffffffffffffffffffffffffffff168373ffffffffffffffffffffffffffffffffffffffff167fddf252ad1be2c89b69c2b068fc378daa952ba7f163c4a11628f55a4df523b3ef8460405161168c9190611e10565b60405180910390a36116a08360008461194a565b505050565b6116d17f000000000000000000000000000000000000000000000000000000000000000085308561194f565b6116db838261135d565b8273ffffffffffffffffffffffffffffffffffffffff168473ffffffffffffffffffffffffffffffffffffffff167fdcbc1c05240f31ff3ad067ef1ee35ce4997762752e3a095284754544f4c709d7848460405161173a929190612a0c565b60405180910390a350505050565b8273ffffffffffffffffffffffffffffffffffffffff168573ffffffffffffffffffffffffffffffffffffffff161461178757611786838683611059565b5b61179183826114d7565b6117bc7f000000000000000000000000000000000000000000000000000000000000000085846119d8565b8273ffffffffffffffffffffffffffffffffffffffff168473ffffffffffffffffffffffffffffffffffffffff168673ffffffffffffffffffffffffffffffffffffffff167ffbde797d201c681b91056529119e0b02407c7bb96a4a2c75c01fc9667232c8db8585604051611832929190612a0c565b60405180910390a45050505050565b60008061184f868686611a5e565b90506001600281111561186557611864612a35565b5b83600281111561187857611877612a35565b5b14801561189657506000848061189157611890612a64565b5b868809115b156118ab576001816118a8919061229e565b90505b80915050949350505050565b60006118f66118c4611b3a565b600a6118d09190612bc6565b6118d8610876565b600a6118e49190612bc6565b8486611841909392919063ffffffff16565b905092915050565b600061193d61190b610876565b600a6119179190612bc6565b61191f611b3a565b600a61192b9190612bc6565b8486611841909392919063ffffffff16565b905092915050565b505050565b505050565b6119d2846323b872dd60e01b85858560405160240161197093929190612c11565b604051602081830303815290604052907bffffffffffffffffffffffffffffffffffffffffffffffffffffffff19166020820180517bffffffffffffffffffffffffffffffffffffffffffffffffffffffff8381831617835250505050611b62565b50505050565b611a598363a9059cbb60e01b84846040516024016119f7929190612c48565b604051602081830303815290604052907bffffffffffffffffffffffffffffffffffffffffffffffffffffffff19166020820180517bffffffffffffffffffffffffffffffffffffffffffffffffffffffff8381831617835250505050611b62565b505050565b600080600080198587098587029250828110838203039150506000811415611a9a57838281611a9057611a8f612a64565b5b0492505050611b33565b808411611aa657600080fd5b60008486880990508281118203915080830392506000600186190186169050808604955080840493506001818260000304019050808302841793506000600287600302189050808702600203810290508087026002038102905080870260020381029050808702600203810290508087026002038102905080870260020381029050808502955050505050505b9392505050565b60007f0000000000000000000000000000000000000000000000000000000000000000905090565b6000611bc4826040518060400160405280602081526020017f5361666545524332303a206c6f772d6c6576656c2063616c6c206661696c65648152508573ffffffffffffffffffffffffffffffffffffffff16611c299092919063ffffffff16565b9050600081511115611c245780806020019051810190611be49190612c9d565b611c23576040517f08c379a0000000000000000000000000000000000000000000000000000000008152600401611c1a90612d3c565b60405180910390fd5b5b505050565b6060611c388484600085611c41565b90509392505050565b606082471015611c86576040517f08c379a0000000000000000000000000000000000000000000000000000000008152600401611c7d90612dce565b60405180910390fd5b6000808673ffffffffffffffffffffffffffffffffffffffff168587604051611caf9190612e35565b60006040518083038185875af1925050503d8060008114611cec576040519150601f19603f3d011682016040523d82523d6000602084013e611cf1565b606091505b5091509150611d0287838387611d0e565b92505050949350505050565b60608315611d7157600083511415611d6957611d2985611d84565b611d68576040517f08c379a0000000000000000000000000000000000000000000000000000000008152600401611d5f90612e98565b60405180910390fd5b5b829050611d7c565b611d7b8383611da7565b5b949350505050565b6000808273ffffffffffffffffffffffffffffffffffffffff163b119050919050565b600082511115611dba5781518083602001fd5b806040517f08c379a0000000000000000000000000000000000000000000000000000000008152600401611dee9190611ec4565b60405180910390fd5b6000819050919050565b611e0a81611df7565b82525050565b6000602082019050611e256000830184611e01565b92915050565b600081519050919050565b600082825260208201905092915050565b60005b83811015611e65578082015181840152602081019050611e4a565b83811115611e74576000848401525b50505050565b6000601f19601f8301169050919050565b6000611e9682611e2b565b611ea08185611e36565b9350611eb0818560208601611e47565b611eb981611e7a565b840191505092915050565b60006020820190508181036000830152611ede8184611e8b565b905092915050565b600080fd5b611ef481611df7565b8114611eff57600080fd5b50565b600081359050611f1181611eeb565b92915050565b600060208284031215611f2d57611f2c611ee6565b5b6000611f3b84828501611f02565b91505092915050565b600073ffffffffffffffffffffffffffffffffffffffff82169050919050565b6000611f6f82611f44565b9050919050565b611f7f81611f64565b8114611f8a57600080fd5b50565b600081359050611f9c81611f76565b92915050565b60008060408385031215611fb957611fb8611ee6565b5b6000611fc785828601611f8d565b9250506020611fd885828601611f02565b9150509250929050565b60008115159050919050565b611ff781611fe2565b82525050565b60006020820190506120126000830184611fee565b92915050565b60008060006060848603121561203157612030611ee6565b5b600061203f86828701611f8d565b935050602061205086828701611f8d565b925050604061206186828701611f02565b9150509250925092565b600060ff82169050919050565b6120818161206b565b82525050565b600060208201905061209c6000830184612078565b92915050565b6120ab81611f64565b82525050565b60006020820190506120c660008301846120a2565b92915050565b6000602082840312156120e2576120e1611ee6565b5b60006120f084828501611f8d565b91505092915050565b600080604083850312156121105761210f611ee6565b5b600061211e85828601611f02565b925050602061212f85828601611f8d565b9150509250929050565b60008060006060848603121561215257612151611ee6565b5b600061216086828701611f02565b935050602061217186828701611f8d565b925050604061218286828701611f8d565b9150509250925092565b600080604083850312156121a3576121a2611ee6565b5b60006121b185828601611f8d565b92505060206121c285828601611f8d565b9150509250929050565b6000815190506121db81611eeb565b92915050565b6000602082840312156121f7576121f6611ee6565b5b6000612205848285016121cc565b91505092915050565b7f4e487b7100000000000000000000000000000000000000000000000000000000600052602260045260246000fd5b6000600282049050600182168061225557607f821691505b602082108114156122695761226861220e565b5b50919050565b7f4e487b7100000000000000000000000000000000000000000000000000000000600052601160045260246000fd5b60006122a982611df7565b91506122b483611df7565b9250827fffffffffffffffffffffffffffffffffffffffffffffffffffffffffffffffff038211156122e9576122e861226f565b5b828201905092915050565b7f455243343632363a206465706f736974206d6f7265207468616e206d61780000600082015250565b600061232a601e83611e36565b9150612335826122f4565b602082019050919050565b600060208201905081810360008301526123598161231d565b9050919050565b7f455243343632363a206d696e74206d6f7265207468616e206d61780000000000600082015250565b6000612396601b83611e36565b91506123a182612360565b602082019050919050565b600060208201905081810360008301526123c581612389565b9050919050565b7f45524332303a2064656372656173656420616c6c6f77616e63652062656c6f7760008201527f207a65726f000000000000000000000000000000000000000000000000000000602082015250565b6000612428602583611e36565b9150612433826123cc565b604082019050919050565b600060208201905081810360008301526124578161241b565b9050919050565b7f455243343632363a207769746864726177206d6f7265207468616e206d617800600082015250565b6000612494601f83611e36565b915061249f8261245e565b602082019050919050565b600060208201905081810360008301526124c381612487565b9050919050565b7f455243343632363a2072656465656d206d6f7265207468616e206d6178000000600082015250565b6000612500601d83611e36565b915061250b826124ca565b602082019050919050565b6000602082019050818103600083015261252f816124f3565b9050919050565b7f45524332303a20617070726f76652066726f6d20746865207a65726f2061646460008201527f7265737300000000000000000000000000000000000000000000000000000000602082015250565b6000612592602483611e36565b915061259d82612536565b604082019050919050565b600060208201905081810360008301526125c181612585565b9050919050565b7f45524332303a20617070726f766520746f20746865207a65726f20616464726560008201527f7373000000000000000000000000000000000000000000000000000000000000602082015250565b6000612624602283611e36565b915061262f826125c8565b604082019050919050565b6000602082019050818103600083015261265381612617565b9050919050565b7f45524332303a20696e73756666696369656e7420616c6c6f77616e6365000000600082015250565b6000612690601d83611e36565b915061269b8261265a565b602082019050919050565b600060208201905081810360008301526126bf81612683565b9050919050565b7f45524332303a207472616e736665722066726f6d20746865207a65726f20616460008201527f6472657373000000000000000000000000000000000000000000000000000000602082015250565b6000612722602583611e36565b915061272d826126c6565b604082019050919050565b6000602082019050818103600083015261275181612715565b9050919050565b7f45524332303a207472616e7366657220746f20746865207a65726f206164647260008201527f6573730000000000000000000000000000000000000000000000000000000000602082015250565b60006127b4602383611e36565b91506127bf82612758565b604082019050919050565b600060208201905081810360008301526127e3816127a7565b9050919050565b7f45524332303a207472616e7366657220616d6f756e742065786365656473206260008201527f616c616e63650000000000000000000000000000000000000000000000000000602082015250565b6000612846602683611e36565b9150612851826127ea565b604082019050919050565b6000602082019050818103600083015261287581612839565b9050919050565b7f45524332303a206d696e7420746f20746865207a65726f206164647265737300600082015250565b60006128b2601f83611e36565b91506128bd8261287c565b602082019050919050565b600060208201905081810360008301526128e1816128a5565b9050919050565b7f45524332303a206275726e2066726f6d20746865207a65726f2061646472657360008201527f7300000000000000000000000000000000000000000000000000000000000000602082015250565b6000612944602183611e36565b915061294f826128e8565b604082019050919050565b6000602082019050818103600083015261297381612937565b9050919050565b7f45524332303a206275726e20616d6f756e7420657863656564732062616c616e60008201527f6365000000000000000000000000000000000000000000000000000000000000602082015250565b60006129d6602283611e36565b91506129e18261297a565b604082019050919050565b60006020820190508181036000830152612a05816129c9565b9050919050565b6000604082019050612a216000830185611e01565b612a2e6020830184611e01565b9392505050565b7f4e487b7100000000000000000000000000000000000000000000000000000000600052602160045260246000fd5b7f4e487b7100000000000000000000000000000000000000000000000000000000600052601260045260246000fd5b60008160011c9050919050565b6000808291508390505b6001851115612aea57808604811115612ac657612ac561226f565b5b6001851615612ad55780820291505b8081029050612ae385612a93565b9450612aaa565b94509492505050565b600082612b035760019050612bbf565b81612b115760009050612bbf565b8160018114612b275760028114612b3157612b60565b6001915050612bbf565b60ff841115612b4357612b4261226f565b5b8360020a915084821115612b5a57612b5961226f565b5b50612bbf565b5060208310610133831016604e8410600b8410161715612b955782820a905083811115612b9057612b8f61226f565b5b612bbf565b612ba28484846001612aa0565b92509050818404811115612bb957612bb861226f565b5b81810290505b9392505050565b6000612bd182611df7565b9150612bdc8361206b565b9250612c097fffffffffffffffffffffffffffffffffffffffffffffffffffffffffffffffff8484612af3565b905092915050565b6000606082019050612c2660008301866120a2565b612c3360208301856120a2565b612c406040830184611e01565b949350505050565b6000604082019050612c5d60008301856120a2565b612c6a6020830184611e01565b9392505050565b612c7a81611fe2565b8114612c8557600080fd5b50565b600081519050612c9781612c71565b92915050565b600060208284031215612cb357612cb2611ee6565b5b6000612cc184828501612c88565b91505092915050565b7f5361666545524332303a204552433230206f7065726174696f6e20646964206e60008201527f6f74207375636365656400000000000000000000000000000000000000000000602082015250565b6000612d26602a83611e36565b9150612d3182612cca565b604082019050919050565b60006020820190508181036000830152612d5581612d19565b9050919050565b7f416464726573733a20696e73756666696369656e742062616c616e636520666f60008201527f722063616c6c0000000000000000000000000000000000000000000000000000602082015250565b6000612db8602683611e36565b9150612dc382612d5c565b604082019050919050565b60006020820190508181036000830152612de781612dab565b9050919050565b600081519050919050565b600081905092915050565b6000612e0f82612dee565b612e198185612df9565b9350612e29818560208601611e47565b80840191505092915050565b6000612e418284612e04565b915081905092915050565b7f416464726573733a2063616c6c20746f206e6f6e2d636f6e7472616374000000600082015250565b6000612e82601d83611e36565b9150612e8d82612e4c565b602082019050919050565b60006020820190508181036000830152612eb181612e75565b905091905056fea26469706673582212200ec6eb2c36a01f3c890ced880092c970dbb9ed38ddc4bf513c98df8d08e4162b64736f6c63430008090033",
  "linkReferences": {},
  "deployedLinkReferences": {}
}