{
  "_format": "hh-sol-artifact-1",
  "contractName": "SampleHuman",
  "sourceName": "contracts/openzeppelin/mocks/MultipleInheritanceInitializableMocks.sol",
  "abi": [
    {
      "anonymous": false,
      "inputs": [
        {
          "indexed": false,
          "internalType": "uint8",
          "name": "version",
          "type": "uint8"
        }
      ],
      "name": "Initialized",
      "type": "event"
    },
    {
      "inputs": [],
      "name": "initialize",
      "outputs": [],
      "stateMutability": "nonpayable",
      "type": "function"
    },
    {
      "inputs": [],
      "name": "isHuman",
      "outputs": [
        {
          "internalType": "bool",
          "name": "",
          "type": "bool"
        }
      ],
      "stateMutability": "view",
      "type": "function"
    }
  ],
  "bytecode": "0x608060405234801561001057600080fd5b506104aa806100206000396000f3fe608060405234801561001057600080fd5b50600436106100365760003560e01c80634a6c9db61461003b5780638129fc1c14610059575b600080fd5b610043610063565b60405161005091906102b7565b60405180910390f35b610061610076565b005b600060029054906101000a900460ff1681565b60008060019054906101000a900460ff161590508080156100a75750600160008054906101000a900460ff1660ff16105b806100d457506100b6306101b4565b1580156100d35750600160008054906101000a900460ff1660ff16145b5b610113576040517f08c379a000000000000000000000000000000000000000000000000000000000815260040161010a90610355565b60405180910390fd5b60016000806101000a81548160ff021916908360ff1602179055508015610150576001600060016101000a81548160ff0219169083151502179055505b6101586101d7565b80156101b15760008060016101000a81548160ff0219169083151502179055507f7f26b83ff96e1f2b6a682f133852f6798a09c465da95921460cefb384740249860016040516101a891906103c7565b60405180910390a15b50565b6000808273ffffffffffffffffffffffffffffffffffffffff163b119050919050565b600060019054906101000a900460ff16610226576040517f08c379a000000000000000000000000000000000000000000000000000000000815260040161021d90610454565b60405180910390fd5b61022e610230565b565b600060019054906101000a900460ff1661027f576040517f08c379a000000000000000000000000000000000000000000000000000000000815260040161027690610454565b60405180910390fd5b6001600060026101000a81548160ff021916908315150217905550565b60008115159050919050565b6102b18161029c565b82525050565b60006020820190506102cc60008301846102a8565b92915050565b600082825260208201905092915050565b7f496e697469616c697a61626c653a20636f6e747261637420697320616c72656160008201527f647920696e697469616c697a6564000000000000000000000000000000000000602082015250565b600061033f602e836102d2565b915061034a826102e3565b604082019050919050565b6000602082019050818103600083015261036e81610332565b9050919050565b6000819050919050565b600060ff82169050919050565b6000819050919050565b60006103b16103ac6103a784610375565b61038c565b61037f565b9050919050565b6103c181610396565b82525050565b60006020820190506103dc60008301846103b8565b92915050565b7f496e697469616c697a61626c653a20636f6e7472616374206973206e6f74206960008201527f6e697469616c697a696e67000000000000000000000000000000000000000000602082015250565b600061043e602b836102d2565b9150610449826103e2565b604082019050919050565b6000602082019050818103600083015261046d81610431565b905091905056fea264697066735822122039e5b89d27c9c657762dc2579af5ddaf4a0cb69909854539af108f4f7cb64ae664736f6c63430008090033",
  "linkReferences": {},
  "deployedLinkReferences": {}
}