{
  "_format": "hh-sol-artifact-1",
  "contractName": "ERC20VotesMock",
  "sourceName": "contracts/openzeppelin/mocks/ERC20VotesMock.sol",
  "abi": [
    {
      "inputs": [
        {
          "internalType": "string",
          "name": "name",
          "type": "string"
        },
        {
          "internalType": "string",
          "name": "symbol",
          "type": "string"
        }
      ],
      "stateMutability": "nonpayable",
      "type": "constructor"
    },
    {
      "anonymous": false,
      "inputs": [
        {
          "indexed": true,
          "internalType": "address",
          "name": "owner",
          "type": "address"
        },
        {
          "indexed": true,
          "internalType": "address",
          "name": "spender",
          "type": "address"
        },
        {
          "indexed": false,
          "internalType": "uint256",
          "name": "value",
          "type": "uint256"
        }
      ],
      "name": "Approval",
      "type": "event"
    },
    {
      "anonymous": false,
      "inputs": [
        {
          "indexed": true,
          "internalType": "address",
          "name": "delegator",
          "type": "address"
        },
        {
          "indexed": true,
          "internalType": "address",
          "name": "fromDelegate",
          "type": "address"
        },
        {
          "indexed": true,
          "internalType": "address",
          "name": "toDelegate",
          "type": "address"
        }
      ],
      "name": "DelegateChanged",
      "type": "event"
    },
    {
      "anonymous": false,
      "inputs": [
        {
          "indexed": true,
          "internalType": "address",
          "name": "delegate",
          "type": "address"
        },
        {
          "indexed": false,
          "internalType": "uint256",
          "name": "previousBalance",
          "type": "uint256"
        },
        {
          "indexed": false,
          "internalType": "uint256",
          "name": "newBalance",
          "type": "uint256"
        }
      ],
      "name": "DelegateVotesChanged",
      "type": "event"
    },
    {
      "anonymous": false,
      "inputs": [
        {
          "indexed": true,
          "internalType": "address",
          "name": "from",
          "type": "address"
        },
        {
          "indexed": true,
          "internalType": "address",
          "name": "to",
          "type": "address"
        },
        {
          "indexed": false,
          "internalType": "uint256",
          "name": "value",
          "type": "uint256"
        }
      ],
      "name": "Transfer",
      "type": "event"
    },
    {
      "inputs": [],
      "name": "DOMAIN_SEPARATOR",
      "outputs": [
        {
          "internalType": "bytes32",
          "name": "",
          "type": "bytes32"
        }
      ],
      "stateMutability": "view",
      "type": "function"
    },
    {
      "inputs": [
        {
          "internalType": "address",
          "name": "owner",
          "type": "address"
        },
        {
          "internalType": "address",
          "name": "spender",
          "type": "address"
        }
      ],
      "name": "allowance",
      "outputs": [
        {
          "internalType": "uint256",
          "name": "",
          "type": "uint256"
        }
      ],
      "stateMutability": "view",
      "type": "function"
    },
    {
      "inputs": [
        {
          "internalType": "address",
          "name": "spender",
          "type": "address"
        },
        {
          "internalType": "uint256",
          "name": "amount",
          "type": "uint256"
        }
      ],
      "name": "approve",
      "outputs": [
        {
          "internalType": "bool",
          "name": "",
          "type": "bool"
        }
      ],
      "stateMutability": "nonpayable",
      "type": "function"
    },
    {
      "inputs": [
        {
          "internalType": "address",
          "name": "account",
          "type": "address"
        }
      ],
      "name": "balanceOf",
      "outputs": [
        {
          "internalType": "uint256",
          "name": "",
          "type": "uint256"
        }
      ],
      "stateMutability": "view",
      "type": "function"
    },
    {
      "inputs": [
        {
          "internalType": "address",
          "name": "account",
          "type": "address"
        },
        {
          "internalType": "uint256",
          "name": "amount",
          "type": "uint256"
        }
      ],
      "name": "burn",
      "outputs": [],
      "stateMutability": "nonpayable",
      "type": "function"
    },
    {
      "inputs": [
        {
          "internalType": "address",
          "name": "account",
          "type": "address"
        },
        {
          "internalType": "uint32",
          "name": "pos",
          "type": "uint32"
        }
      ],
      "name": "checkpoints",
      "outputs": [
        {
          "components": [
            {
              "internalType": "uint32",
              "name": "fromBlock",
              "type": "uint32"
            },
            {
              "internalType": "uint224",
              "name": "votes",
              "type": "uint224"
            }
          ],
          "internalType": "struct ERC20Votes.Checkpoint",
          "name": "",
          "type": "tuple"
        }
      ],
      "stateMutability": "view",
      "type": "function"
    },
    {
      "inputs": [],
      "name": "decimals",
      "outputs": [
        {
          "internalType": "uint8",
          "name": "",
          "type": "uint8"
        }
      ],
      "stateMutability": "view",
      "type": "function"
    },
    {
      "inputs": [
        {
          "internalType": "address",
          "name": "spender",
          "type": "address"
        },
        {
          "internalType": "uint256",
          "name": "subtractedValue",
          "type": "uint256"
        }
      ],
      "name": "decreaseAllowance",
      "outputs": [
        {
          "internalType": "bool",
          "name": "",
          "type": "bool"
        }
      ],
      "stateMutability": "nonpayable",
      "type": "function"
    },
    {
      "inputs": [
        {
          "internalType": "address",
          "name": "delegatee",
          "type": "address"
        }
      ],
      "name": "delegate",
      "outputs": [],
      "stateMutability": "nonpayable",
      "type": "function"
    },
    {
      "inputs": [
        {
          "internalType": "address",
          "name": "delegatee",
          "type": "address"
        },
        {
          "internalType": "uint256",
          "name": "nonce",
          "type": "uint256"
        },
        {
          "internalType": "uint256",
          "name": "expiry",
          "type": "uint256"
        },
        {
          "internalType": "uint8",
          "name": "v",
          "type": "uint8"
        },
        {
          "internalType": "bytes32",
          "name": "r",
          "type": "bytes32"
        },
        {
          "internalType": "bytes32",
          "name": "s",
          "type": "bytes32"
        }
      ],
      "name": "delegateBySig",
      "outputs": [],
      "stateMutability": "nonpayable",
      "type": "function"
    },
    {
      "inputs": [
        {
          "internalType": "address",
          "name": "account",
          "type": "address"
        }
      ],
      "name": "delegates",
      "outputs": [
        {
          "internalType": "address",
          "name": "",
          "type": "address"
        }
      ],
      "stateMutability": "view",
      "type": "function"
    },
    {
      "inputs": [],
      "name": "getChainId",
      "outputs": [
        {
          "internalType": "uint256",
          "name": "",
          "type": "uint256"
        }
      ],
      "stateMutability": "view",
      "type": "function"
    },
    {
      "inputs": [
        {
          "internalType": "uint256",
          "name": "blockNumber",
          "type": "uint256"
        }
      ],
      "name": "getPastTotalSupply",
      "outputs": [
        {
          "internalType": "uint256",
          "name": "",
          "type": "uint256"
        }
      ],
      "stateMutability": "view",
      "type": "function"
    },
    {
      "inputs": [
        {
          "internalType": "address",
          "name": "account",
          "type": "address"
        },
        {
          "internalType": "uint256",
          "name": "blockNumber",
          "type": "uint256"
        }
      ],
      "name": "getPastVotes",
      "outputs": [
        {
          "internalType": "uint256",
          "name": "",
          "type": "uint256"
        }
      ],
      "stateMutability": "view",
      "type": "function"
    },
    {
      "inputs": [
        {
          "internalType": "address",
          "name": "account",
          "type": "address"
        }
      ],
      "name": "getVotes",
      "outputs": [
        {
          "internalType": "uint256",
          "name": "",
          "type": "uint256"
        }
      ],
      "stateMutability": "view",
      "type": "function"
    },
    {
      "inputs": [
        {
          "internalType": "address",
          "name": "spender",
          "type": "address"
        },
        {
          "internalType": "uint256",
          "name": "addedValue",
          "type": "uint256"
        }
      ],
      "name": "increaseAllowance",
      "outputs": [
        {
          "internalType": "bool",
          "name": "",
          "type": "bool"
        }
      ],
      "stateMutability": "nonpayable",
      "type": "function"
    },
    {
      "inputs": [
        {
          "internalType": "address",
          "name": "account",
          "type": "address"
        },
        {
          "internalType": "uint256",
          "name": "amount",
          "type": "uint256"
        }
      ],
      "name": "mint",
      "outputs": [],
      "stateMutability": "nonpayable",
      "type": "function"
    },
    {
      "inputs": [],
      "name": "name",
      "outputs": [
        {
          "internalType": "string",
          "name": "",
          "type": "string"
        }
      ],
      "stateMutability": "view",
      "type": "function"
    },
    {
      "inputs": [
        {
          "internalType": "address",
          "name": "owner",
          "type": "address"
        }
      ],
      "name": "nonces",
      "outputs": [
        {
          "internalType": "uint256",
          "name": "",
          "type": "uint256"
        }
      ],
      "stateMutability": "view",
      "type": "function"
    },
    {
      "inputs": [
        {
          "internalType": "address",
          "name": "account",
          "type": "address"
        }
      ],
      "name": "numCheckpoints",
      "outputs": [
        {
          "internalType": "uint32",
          "name": "",
          "type": "uint32"
        }
      ],
      "stateMutability": "view",
      "type": "function"
    },
    {
      "inputs": [
        {
          "internalType": "address",
          "name": "owner",
          "type": "address"
        },
        {
          "internalType": "address",
          "name": "spender",
          "type": "address"
        },
        {
          "internalType": "uint256",
          "name": "value",
          "type": "uint256"
        },
        {
          "internalType": "uint256",
          "name": "deadline",
          "type": "uint256"
        },
        {
          "internalType": "uint8",
          "name": "v",
          "type": "uint8"
        },
        {
          "internalType": "bytes32",
          "name": "r",
          "type": "bytes32"
        },
        {
          "internalType": "bytes32",
          "name": "s",
          "type": "bytes32"
        }
      ],
      "name": "permit",
      "outputs": [],
      "stateMutability": "nonpayable",
      "type": "function"
    },
    {
      "inputs": [],
      "name": "symbol",
      "outputs": [
        {
          "internalType": "string",
          "name": "",
          "type": "string"
        }
      ],
      "stateMutability": "view",
      "type": "function"
    },
    {
      "inputs": [],
      "name": "totalSupply",
      "outputs": [
        {
          "internalType": "uint256",
          "name": "",
          "type": "uint256"
        }
      ],
      "stateMutability": "view",
      "type": "function"
    },
    {
      "inputs": [
        {
          "internalType": "address",
          "name": "to",
          "type": "address"
        },
        {
          "internalType": "uint256",
          "name": "amount",
          "type": "uint256"
        }
      ],
      "name": "transfer",
      "outputs": [
        {
          "internalType": "bool",
          "name": "",
          "type": "bool"
        }
      ],
      "stateMutability": "nonpayable",
      "type": "function"
    },
    {
      "inputs": [
        {
          "internalType": "address",
          "name": "from",
          "type": "address"
        },
        {
          "internalType": "address",
          "name": "to",
          "type": "address"
        },
        {
          "internalType": "uint256",
          "name": "amount",
          "type": "uint256"
        }
      ],
      "name": "transferFrom",
      "outputs": [
        {
          "internalType": "bool",
          "name": "",
          "type": "bool"
        }
      ],
      "stateMutability": "nonpayable",
      "type": "function"
    }
  ],
  "bytecode": "0x6101406040523480156200001257600080fd5b5060405162004222380380620042228339818101604052810190620000389190620003ea565b81806040518060400160405280600181526020017f3100000000000000000000000000000000000000000000000000000000000000815250848481600390805190602001906200008a9291906200019d565b508060049080519060200190620000a39291906200019d565b50505060008280519060200120905060008280519060200120905060007f8b73c3c69bb8fe3d512ecc4cf759cc79239f7b179b0ffacaa9a75d522b39400f90508260e081815250508161010081815250504660a081815250506200010f8184846200016160201b60201c565b608081815250503073ffffffffffffffffffffffffffffffffffffffff1660c08173ffffffffffffffffffffffffffffffffffffffff16815250508061012081815250505050505050505050620005ac565b600083838346306040516020016200017e959493929190620004ea565b6040516020818303038152906040528051906020012090509392505050565b828054620001ab9062000576565b90600052602060002090601f016020900481019282620001cf57600085556200021b565b82601f10620001ea57805160ff19168380011785556200021b565b828001600101855582156200021b579182015b828111156200021a578251825591602001919060010190620001fd565b5b5090506200022a91906200022e565b5090565b5b80821115620002495760008160009055506001016200022f565b5090565b6000604051905090565b600080fd5b600080fd5b600080fd5b600080fd5b6000601f19601f8301169050919050565b7f4e487b7100000000000000000000000000000000000000000000000000000000600052604160045260246000fd5b620002b6826200026b565b810181811067ffffffffffffffff82111715620002d857620002d76200027c565b5b80604052505050565b6000620002ed6200024d565b9050620002fb8282620002ab565b919050565b600067ffffffffffffffff8211156200031e576200031d6200027c565b5b62000329826200026b565b9050602081019050919050565b60005b838110156200035657808201518184015260208101905062000339565b8381111562000366576000848401525b50505050565b6000620003836200037d8462000300565b620002e1565b905082815260208101848484011115620003a257620003a162000266565b5b620003af84828562000336565b509392505050565b600082601f830112620003cf57620003ce62000261565b5b8151620003e18482602086016200036c565b91505092915050565b6000806040838503121562000404576200040362000257565b5b600083015167ffffffffffffffff8111156200042557620004246200025c565b5b6200043385828601620003b7565b925050602083015167ffffffffffffffff8111156200045757620004566200025c565b5b6200046585828601620003b7565b9150509250929050565b6000819050919050565b62000484816200046f565b82525050565b6000819050919050565b6200049f816200048a565b82525050565b600073ffffffffffffffffffffffffffffffffffffffff82169050919050565b6000620004d282620004a5565b9050919050565b620004e481620004c5565b82525050565b600060a08201905062000501600083018862000479565b62000510602083018762000479565b6200051f604083018662000479565b6200052e606083018562000494565b6200053d6080830184620004d9565b9695505050505050565b7f4e487b7100000000000000000000000000000000000000000000000000000000600052602260045260246000fd5b600060028204905060018216806200058f57607f821691505b60208210811415620005a657620005a562000547565b5b50919050565b60805160a05160c05160e0516101005161012051613c26620005fc60003960006114a2015260006114e4015260006114c3015260006113f80152600061144e015260006114770152613c266000f3fe608060405234801561001057600080fd5b50600436106101735760003560e01c80636fcfff45116100de5780639dc29fac11610097578063c3cda52011610071578063c3cda520146104c0578063d505accf146104dc578063dd62ed3e146104f8578063f1127ed81461052857610173565b80639dc29fac14610444578063a457c2d714610460578063a9059cbb1461049057610173565b80636fcfff451461033657806370a08231146103665780637ecebe00146103965780638e539e8c146103c657806395d89b41146103f65780639ab24eb01461041457610173565b80633644e515116101305780633644e51514610250578063395093511461026e5780633a46b1a81461029e57806340c10f19146102ce578063587cde1e146102ea5780635c19a95c1461031a57610173565b806306fdde0314610178578063095ea7b31461019657806318160ddd146101c657806323b872dd146101e4578063313ce567146102145780633408e47014610232575b600080fd5b610180610558565b60405161018d91906127c4565b60405180910390f35b6101b060048036038101906101ab919061287f565b6105ea565b6040516101bd91906128da565b60405180910390f35b6101ce61060d565b6040516101db9190612904565b60405180910390f35b6101fe60048036038101906101f9919061291f565b610617565b60405161020b91906128da565b60405180910390f35b61021c610646565b604051610229919061298e565b60405180910390f35b61023a61064f565b6040516102479190612904565b60405180910390f35b610258610657565b60405161026591906129c2565b60405180910390f35b6102886004803603810190610283919061287f565b610666565b60405161029591906128da565b60405180910390f35b6102b860048036038101906102b3919061287f565b61069d565b6040516102c59190612904565b60405180910390f35b6102e860048036038101906102e3919061287f565b610731565b005b61030460048036038101906102ff91906129dd565b61073f565b6040516103119190612a19565b60405180910390f35b610334600480360381019061032f91906129dd565b6107a8565b005b610350600480360381019061034b91906129dd565b6107bc565b60405161035d9190612a53565b60405180910390f35b610380600480360381019061037b91906129dd565b610810565b60405161038d9190612904565b60405180910390f35b6103b060048036038101906103ab91906129dd565b610858565b6040516103bd9190612904565b60405180910390f35b6103e060048036038101906103db9190612a6e565b6108a8565b6040516103ed9190612904565b60405180910390f35b6103fe6108fe565b60405161040b91906127c4565b60405180910390f35b61042e600480360381019061042991906129dd565b610990565b60405161043b9190612904565b60405180910390f35b61045e6004803603810190610459919061287f565b610a98565b005b61047a6004803603810190610475919061287f565b610aa6565b60405161048791906128da565b60405180910390f35b6104aa60048036038101906104a5919061287f565b610b1d565b6040516104b791906128da565b60405180910390f35b6104da60048036038101906104d59190612af3565b610b40565b005b6104f660048036038101906104f19190612b80565b610c44565b005b610512600480360381019061050d9190612c22565b610d86565b60405161051f9190612904565b60405180910390f35b610542600480360381019061053d9190612c8e565b610e0d565b60405161054f9190612d43565b60405180910390f35b60606003805461056790612d8d565b80601f016020809104026020016040519081016040528092919081815260200182805461059390612d8d565b80156105e05780601f106105b5576101008083540402835291602001916105e0565b820191906000526020600020905b8154815290600101906020018083116105c357829003601f168201915b5050505050905090565b6000806105f5610f1d565b9050610602818585610f25565b600191505092915050565b6000600254905090565b600080610622610f1d565b905061062f8582856110f0565b61063a85858561117c565b60019150509392505050565b60006012905090565b600046905090565b60006106616113f4565b905090565b600080610671610f1d565b90506106928185856106838589610d86565b61068d9190612dee565b610f25565b600191505092915050565b60004382106106e1576040517f08c379a00000000000000000000000000000000000000000000000000000000081526004016106d890612e90565b60405180910390fd5b610729600860008573ffffffffffffffffffffffffffffffffffffffff1673ffffffffffffffffffffffffffffffffffffffff1681526020019081526020016000208361150e565b905092915050565b61073b8282611656565b5050565b6000600760008373ffffffffffffffffffffffffffffffffffffffff1673ffffffffffffffffffffffffffffffffffffffff16815260200190815260200160002060009054906101000a900473ffffffffffffffffffffffffffffffffffffffff169050919050565b6107b96107b3610f1d565b826116e3565b50565b6000610809600860008473ffffffffffffffffffffffffffffffffffffffff1673ffffffffffffffffffffffffffffffffffffffff168152602001908152602001600020805490506117fd565b9050919050565b60008060008373ffffffffffffffffffffffffffffffffffffffff1673ffffffffffffffffffffffffffffffffffffffff168152602001908152602001600020549050919050565b60006108a1600560008473ffffffffffffffffffffffffffffffffffffffff1673ffffffffffffffffffffffffffffffffffffffff168152602001908152602001600020611850565b9050919050565b60004382106108ec576040517f08c379a00000000000000000000000000000000000000000000000000000000081526004016108e390612e90565b60405180910390fd5b6108f760098361150e565b9050919050565b60606004805461090d90612d8d565b80601f016020809104026020016040519081016040528092919081815260200182805461093990612d8d565b80156109865780601f1061095b57610100808354040283529160200191610986565b820191906000526020600020905b81548152906001019060200180831161096957829003601f168201915b5050505050905090565b600080600860008473ffffffffffffffffffffffffffffffffffffffff1673ffffffffffffffffffffffffffffffffffffffff16815260200190815260200160002080549050905060008114610a6f57600860008473ffffffffffffffffffffffffffffffffffffffff1673ffffffffffffffffffffffffffffffffffffffff1681526020019081526020016000206001820381548110610a3457610a33612eb0565b5b9060005260206000200160000160049054906101000a90047bffffffffffffffffffffffffffffffffffffffffffffffffffffffff16610a72565b60005b7bffffffffffffffffffffffffffffffffffffffffffffffffffffffff16915050919050565b610aa2828261185e565b5050565b600080610ab1610f1d565b90506000610abf8286610d86565b905083811015610b04576040517f08c379a0000000000000000000000000000000000000000000000000000000008152600401610afb90612f51565b60405180910390fd5b610b118286868403610f25565b60019250505092915050565b600080610b28610f1d565b9050610b3581858561117c565b600191505092915050565b83421115610b83576040517f08c379a0000000000000000000000000000000000000000000000000000000008152600401610b7a90612fbd565b60405180910390fd5b6000610be5610bdd7fe48329057bfd03d55e49b547132e39cffd9c1820ad7b9d4c5307691425d15adf898989604051602001610bc29493929190612fdd565b6040516020818303038152906040528051906020012061187c565b858585611896565b9050610bf0816118c1565b8614610c31576040517f08c379a0000000000000000000000000000000000000000000000000000000008152600401610c289061306e565b60405180910390fd5b610c3b81886116e3565b50505050505050565b83421115610c87576040517f08c379a0000000000000000000000000000000000000000000000000000000008152600401610c7e906130da565b60405180910390fd5b60007f6e71edae12b1b97f4d1f60370fef10105fa2faae0126114a169c64845d6126c9888888610cb68c6118c1565b89604051602001610ccc969594939291906130fa565b6040516020818303038152906040528051906020012090506000610cef8261187c565b90506000610cff82878787611896565b90508973ffffffffffffffffffffffffffffffffffffffff168173ffffffffffffffffffffffffffffffffffffffff1614610d6f576040517f08c379a0000000000000000000000000000000000000000000000000000000008152600401610d66906131a7565b60405180910390fd5b610d7a8a8a8a610f25565b50505050505050505050565b6000600160008473ffffffffffffffffffffffffffffffffffffffff1673ffffffffffffffffffffffffffffffffffffffff16815260200190815260200160002060008373ffffffffffffffffffffffffffffffffffffffff1673ffffffffffffffffffffffffffffffffffffffff16815260200190815260200160002054905092915050565b610e156126ed565b600860008473ffffffffffffffffffffffffffffffffffffffff1673ffffffffffffffffffffffffffffffffffffffff1681526020019081526020016000208263ffffffff1681548110610e6c57610e6b612eb0565b5b906000526020600020016040518060400160405290816000820160009054906101000a900463ffffffff1663ffffffff1663ffffffff1681526020016000820160049054906101000a90047bffffffffffffffffffffffffffffffffffffffffffffffffffffffff167bffffffffffffffffffffffffffffffffffffffffffffffffffffffff167bffffffffffffffffffffffffffffffffffffffffffffffffffffffff1681525050905092915050565b600033905090565b600073ffffffffffffffffffffffffffffffffffffffff168373ffffffffffffffffffffffffffffffffffffffff161415610f95576040517f08c379a0000000000000000000000000000000000000000000000000000000008152600401610f8c90613239565b60405180910390fd5b600073ffffffffffffffffffffffffffffffffffffffff168273ffffffffffffffffffffffffffffffffffffffff161415611005576040517f08c379a0000000000000000000000000000000000000000000000000000000008152600401610ffc906132cb565b60405180910390fd5b80600160008573ffffffffffffffffffffffffffffffffffffffff1673ffffffffffffffffffffffffffffffffffffffff16815260200190815260200160002060008473ffffffffffffffffffffffffffffffffffffffff1673ffffffffffffffffffffffffffffffffffffffff168152602001908152602001600020819055508173ffffffffffffffffffffffffffffffffffffffff168373ffffffffffffffffffffffffffffffffffffffff167f8c5be1e5ebec7d5bd14f71427d1e84f3dd0314c0f7b2291e5b200ac8c7c3b925836040516110e39190612904565b60405180910390a3505050565b60006110fc8484610d86565b90507fffffffffffffffffffffffffffffffffffffffffffffffffffffffffffffffff81146111765781811015611168576040517f08c379a000000000000000000000000000000000000000000000000000000000815260040161115f90613337565b60405180910390fd5b6111758484848403610f25565b5b50505050565b600073ffffffffffffffffffffffffffffffffffffffff168373ffffffffffffffffffffffffffffffffffffffff1614156111ec576040517f08c379a00000000000000000000000000000000000000000000000000000000081526004016111e3906133c9565b60405180910390fd5b600073ffffffffffffffffffffffffffffffffffffffff168273ffffffffffffffffffffffffffffffffffffffff16141561125c576040517f08c379a00000000000000000000000000000000000000000000000000000000081526004016112539061345b565b60405180910390fd5b61126783838361191f565b60008060008573ffffffffffffffffffffffffffffffffffffffff1673ffffffffffffffffffffffffffffffffffffffff168152602001908152602001600020549050818110156112ed576040517f08c379a00000000000000000000000000000000000000000000000000000000081526004016112e4906134ed565b60405180910390fd5b8181036000808673ffffffffffffffffffffffffffffffffffffffff1673ffffffffffffffffffffffffffffffffffffffff16815260200190815260200160002081905550816000808573ffffffffffffffffffffffffffffffffffffffff1673ffffffffffffffffffffffffffffffffffffffff168152602001908152602001600020600082825401925050819055508273ffffffffffffffffffffffffffffffffffffffff168473ffffffffffffffffffffffffffffffffffffffff167fddf252ad1be2c89b69c2b068fc378daa952ba7f163c4a11628f55a4df523b3ef846040516113db9190612904565b60405180910390a36113ee848484611924565b50505050565b60007f000000000000000000000000000000000000000000000000000000000000000073ffffffffffffffffffffffffffffffffffffffff163073ffffffffffffffffffffffffffffffffffffffff1614801561147057507f000000000000000000000000000000000000000000000000000000000000000046145b1561149d577f0000000000000000000000000000000000000000000000000000000000000000905061150b565b6115087f00000000000000000000000000000000000000000000000000000000000000007f00000000000000000000000000000000000000000000000000000000000000007f000000000000000000000000000000000000000000000000000000000000000061194f565b90505b90565b60008083805490509050600080829050600583111561158457600061153284611989565b8461153d919061350d565b90508561154a8883611a83565b60000160009054906101000a900463ffffffff1663ffffffff16111561157257809150611582565b60018161157f9190612dee565b92505b505b5b808210156115e45760006115998383611a98565b9050856115a68883611a83565b60000160009054906101000a900463ffffffff1663ffffffff1611156115ce578091506115de565b6001816115db9190612dee565b92505b50611585565b6000811461162a576115f98660018303611a83565b60000160049054906101000a90047bffffffffffffffffffffffffffffffffffffffffffffffffffffffff1661162d565b60005b7bffffffffffffffffffffffffffffffffffffffffffffffffffffffff16935050505092915050565b6116608282611abe565b611668611c15565b7bffffffffffffffffffffffffffffffffffffffffffffffffffffffff1661168e61060d565b11156116cf576040517f08c379a00000000000000000000000000000000000000000000000000000000081526004016116c6906135b3565b60405180910390fd5b6116dd6009611c3983611c4f565b50505050565b60006116ee8361073f565b905060006116fb84610810565b905082600760008673ffffffffffffffffffffffffffffffffffffffff1673ffffffffffffffffffffffffffffffffffffffff16815260200190815260200160002060006101000a81548173ffffffffffffffffffffffffffffffffffffffff021916908373ffffffffffffffffffffffffffffffffffffffff1602179055508273ffffffffffffffffffffffffffffffffffffffff168273ffffffffffffffffffffffffffffffffffffffff168573ffffffffffffffffffffffffffffffffffffffff167f3134e8a2e6d97e929a7e54011ea5485d7d196dd5f0ba4d4ef95803e8e3fc257f60405160405180910390a46117f7828483611f0c565b50505050565b600063ffffffff8016821115611848576040517f08c379a000000000000000000000000000000000000000000000000000000000815260040161183f90613645565b60405180910390fd5b819050919050565b600081600001549050919050565b6118688282612105565b61187660096122d383611c4f565b50505050565b600061188f6118896113f4565b836122e9565b9050919050565b60008060006118a78787878761231c565b915091506118b4816123ff565b8192505050949350505050565b600080600560008473ffffffffffffffffffffffffffffffffffffffff1673ffffffffffffffffffffffffffffffffffffffff168152602001908152602001600020905061190e81611850565b91506119198161256d565b50919050565b505050565b61192f838383612583565b61194a61193b8461073f565b6119448461073f565b83611f0c565b505050565b6000838383463060405160200161196a959493929190613665565b6040516020818303038152906040528051906020012090509392505050565b60008082141561199c5760009050611a7e565b600060016119a984612588565b901c6001901b905060018184816119c3576119c26136b8565b5b048201901c905060018184816119dc576119db6136b8565b5b048201901c905060018184816119f5576119f46136b8565b5b048201901c90506001818481611a0e57611a0d6136b8565b5b048201901c90506001818481611a2757611a266136b8565b5b048201901c90506001818481611a4057611a3f6136b8565b5b048201901c90506001818481611a5957611a586136b8565b5b048201901c9050611a7a81828581611a7457611a736136b8565b5b04612669565b9150505b919050565b60008260005281602060002001905092915050565b60006002828418611aa991906136e7565b828416611ab69190612dee565b905092915050565b600073ffffffffffffffffffffffffffffffffffffffff168273ffffffffffffffffffffffffffffffffffffffff161415611b2e576040517f08c379a0000000000000000000000000000000000000000000000000000000008152600401611b2590613764565b60405180910390fd5b611b3a6000838361191f565b8060026000828254611b4c9190612dee565b92505081905550806000808473ffffffffffffffffffffffffffffffffffffffff1673ffffffffffffffffffffffffffffffffffffffff168152602001908152602001600020600082825401925050819055508173ffffffffffffffffffffffffffffffffffffffff16600073ffffffffffffffffffffffffffffffffffffffff167fddf252ad1be2c89b69c2b068fc378daa952ba7f163c4a11628f55a4df523b3ef83604051611bfd9190612904565b60405180910390a3611c1160008383611924565b5050565b60007bffffffffffffffffffffffffffffffffffffffffffffffffffffffff905090565b60008183611c479190612dee565b905092915050565b6000806000858054905090506000808214611d1557611c718760018403611a83565b6040518060400160405290816000820160009054906101000a900463ffffffff1663ffffffff1663ffffffff1681526020016000820160049054906101000a90047bffffffffffffffffffffffffffffffffffffffffffffffffffffffff167bffffffffffffffffffffffffffffffffffffffffffffffffffffffff167bffffffffffffffffffffffffffffffffffffffffffffffffffffffff1681525050611d51565b6040518060400160405280600063ffffffff16815260200160007bffffffffffffffffffffffffffffffffffffffffffffffffffffffff168152505b905080602001517bffffffffffffffffffffffffffffffffffffffffffffffffffffffff169350611d8684868863ffffffff16565b9250600082118015611da1575043816000015163ffffffff16145b15611e1257611daf83612682565b611dbc8860018503611a83565b60000160046101000a8154817bffffffffffffffffffffffffffffffffffffffffffffffffffffffff02191690837bffffffffffffffffffffffffffffffffffffffffffffffffffffffff160217905550611f02565b866040518060400160405280611e27436117fd565b63ffffffff168152602001611e3b86612682565b7bffffffffffffffffffffffffffffffffffffffffffffffffffffffff168152509080600181540180825580915050600190039060005260206000200160009091909190915060008201518160000160006101000a81548163ffffffff021916908363ffffffff16021790555060208201518160000160046101000a8154817bffffffffffffffffffffffffffffffffffffffffffffffffffffffff02191690837bffffffffffffffffffffffffffffffffffffffffffffffffffffffff16021790555050505b5050935093915050565b8173ffffffffffffffffffffffffffffffffffffffff168373ffffffffffffffffffffffffffffffffffffffff1614158015611f485750600081115b1561210057600073ffffffffffffffffffffffffffffffffffffffff168373ffffffffffffffffffffffffffffffffffffffff161461202657600080611fcf600860008773ffffffffffffffffffffffffffffffffffffffff1673ffffffffffffffffffffffffffffffffffffffff1681526020019081526020016000206122d385611c4f565b915091508473ffffffffffffffffffffffffffffffffffffffff167fdec2bacdd2f05b59de34da9b523dff8be42e5e38e818c82fdb0bae774387a724838360405161201b929190613784565b60405180910390a250505b600073ffffffffffffffffffffffffffffffffffffffff168273ffffffffffffffffffffffffffffffffffffffff16146120ff576000806120a8600860008673ffffffffffffffffffffffffffffffffffffffff1673ffffffffffffffffffffffffffffffffffffffff168152602001908152602001600020611c3985611c4f565b915091508373ffffffffffffffffffffffffffffffffffffffff167fdec2bacdd2f05b59de34da9b523dff8be42e5e38e818c82fdb0bae774387a72483836040516120f4929190613784565b60405180910390a250505b5b505050565b600073ffffffffffffffffffffffffffffffffffffffff168273ffffffffffffffffffffffffffffffffffffffff161415612175576040517f08c379a000000000000000000000000000000000000000000000000000000000815260040161216c9061381f565b60405180910390fd5b6121818260008361191f565b60008060008473ffffffffffffffffffffffffffffffffffffffff1673ffffffffffffffffffffffffffffffffffffffff16815260200190815260200160002054905081811015612207576040517f08c379a00000000000000000000000000000000000000000000000000000000081526004016121fe906138b1565b60405180910390fd5b8181036000808573ffffffffffffffffffffffffffffffffffffffff1673ffffffffffffffffffffffffffffffffffffffff1681526020019081526020016000208190555081600260008282540392505081905550600073ffffffffffffffffffffffffffffffffffffffff168373ffffffffffffffffffffffffffffffffffffffff167fddf252ad1be2c89b69c2b068fc378daa952ba7f163c4a11628f55a4df523b3ef846040516122ba9190612904565b60405180910390a36122ce83600084611924565b505050565b600081836122e1919061350d565b905092915050565b600082826040516020016122fe929190613949565b60405160208183030381529060405280519060200120905092915050565b6000807f7fffffffffffffffffffffffffffffff5d576e7357a4501ddfe92f46681b20a08360001c11156123575760006003915091506123f6565b60006001878787876040516000815260200160405260405161237c9493929190613980565b6020604051602081039080840390855afa15801561239e573d6000803e3d6000fd5b505050602060405103519050600073ffffffffffffffffffffffffffffffffffffffff168173ffffffffffffffffffffffffffffffffffffffff1614156123ed576000600192509250506123f6565b80600092509250505b94509492505050565b60006004811115612413576124126139c5565b5b816004811115612426576124256139c5565b5b14156124315761256a565b60016004811115612445576124446139c5565b5b816004811115612458576124576139c5565b5b1415612499576040517f08c379a000000000000000000000000000000000000000000000000000000000815260040161249090613a40565b60405180910390fd5b600260048111156124ad576124ac6139c5565b5b8160048111156124c0576124bf6139c5565b5b1415612501576040517f08c379a00000000000000000000000000000000000000000000000000000000081526004016124f890613aac565b60405180910390fd5b60036004811115612515576125146139c5565b5b816004811115612528576125276139c5565b5b1415612569576040517f08c379a000000000000000000000000000000000000000000000000000000000815260040161256090613b3e565b60405180910390fd5b5b50565b6001816000016000828254019250508190555050565b505050565b600080600090506000608084901c11156125aa57608083901c92506080810190505b6000604084901c11156125c557604083901c92506040810190505b6000602084901c11156125e057602083901c92506020810190505b6000601084901c11156125fb57601083901c92506010810190505b6000600884901c111561261657600883901c92506008810190505b6000600484901c111561263157600483901c92506004810190505b6000600284901c111561264c57600283901c92506002810190505b6000600184901c1115612660576001810190505b80915050919050565b6000818310612678578161267a565b825b905092915050565b60007bffffffffffffffffffffffffffffffffffffffffffffffffffffffff80168211156126e5576040517f08c379a00000000000000000000000000000000000000000000000000000000081526004016126dc90613bd0565b60405180910390fd5b819050919050565b6040518060400160405280600063ffffffff16815260200160007bffffffffffffffffffffffffffffffffffffffffffffffffffffffff1681525090565b600081519050919050565b600082825260208201905092915050565b60005b8381101561276557808201518184015260208101905061274a565b83811115612774576000848401525b50505050565b6000601f19601f8301169050919050565b60006127968261272b565b6127a08185612736565b93506127b0818560208601612747565b6127b98161277a565b840191505092915050565b600060208201905081810360008301526127de818461278b565b905092915050565b600080fd5b600073ffffffffffffffffffffffffffffffffffffffff82169050919050565b6000612816826127eb565b9050919050565b6128268161280b565b811461283157600080fd5b50565b6000813590506128438161281d565b92915050565b6000819050919050565b61285c81612849565b811461286757600080fd5b50565b60008135905061287981612853565b92915050565b60008060408385031215612896576128956127e6565b5b60006128a485828601612834565b92505060206128b58582860161286a565b9150509250929050565b60008115159050919050565b6128d4816128bf565b82525050565b60006020820190506128ef60008301846128cb565b92915050565b6128fe81612849565b82525050565b600060208201905061291960008301846128f5565b92915050565b600080600060608486031215612938576129376127e6565b5b600061294686828701612834565b935050602061295786828701612834565b92505060406129688682870161286a565b9150509250925092565b600060ff82169050919050565b61298881612972565b82525050565b60006020820190506129a3600083018461297f565b92915050565b6000819050919050565b6129bc816129a9565b82525050565b60006020820190506129d760008301846129b3565b92915050565b6000602082840312156129f3576129f26127e6565b5b6000612a0184828501612834565b91505092915050565b612a138161280b565b82525050565b6000602082019050612a2e6000830184612a0a565b92915050565b600063ffffffff82169050919050565b612a4d81612a34565b82525050565b6000602082019050612a686000830184612a44565b92915050565b600060208284031215612a8457612a836127e6565b5b6000612a928482850161286a565b91505092915050565b612aa481612972565b8114612aaf57600080fd5b50565b600081359050612ac181612a9b565b92915050565b612ad0816129a9565b8114612adb57600080fd5b50565b600081359050612aed81612ac7565b92915050565b60008060008060008060c08789031215612b1057612b0f6127e6565b5b6000612b1e89828a01612834565b9650506020612b2f89828a0161286a565b9550506040612b4089828a0161286a565b9450506060612b5189828a01612ab2565b9350506080612b6289828a01612ade565b92505060a0612b7389828a01612ade565b9150509295509295509295565b600080600080600080600060e0888a031215612b9f57612b9e6127e6565b5b6000612bad8a828b01612834565b9750506020612bbe8a828b01612834565b9650506040612bcf8a828b0161286a565b9550506060612be08a828b0161286a565b9450506080612bf18a828b01612ab2565b93505060a0612c028a828b01612ade565b92505060c0612c138a828b01612ade565b91505092959891949750929550565b60008060408385031215612c3957612c386127e6565b5b6000612c4785828601612834565b9250506020612c5885828601612834565b9150509250929050565b612c6b81612a34565b8114612c7657600080fd5b50565b600081359050612c8881612c62565b92915050565b60008060408385031215612ca557612ca46127e6565b5b6000612cb385828601612834565b9250506020612cc485828601612c79565b9150509250929050565b612cd781612a34565b82525050565b60007bffffffffffffffffffffffffffffffffffffffffffffffffffffffff82169050919050565b612d0e81612cdd565b82525050565b604082016000820151612d2a6000850182612cce565b506020820151612d3d6020850182612d05565b50505050565b6000604082019050612d586000830184612d14565b92915050565b7f4e487b7100000000000000000000000000000000000000000000000000000000600052602260045260246000fd5b60006002820490506001821680612da557607f821691505b60208210811415612db957612db8612d5e565b5b50919050565b7f4e487b7100000000000000000000000000000000000000000000000000000000600052601160045260246000fd5b6000612df982612849565b9150612e0483612849565b9250827fffffffffffffffffffffffffffffffffffffffffffffffffffffffffffffffff03821115612e3957612e38612dbf565b5b828201905092915050565b7f4552433230566f7465733a20626c6f636b206e6f7420796574206d696e656400600082015250565b6000612e7a601f83612736565b9150612e8582612e44565b602082019050919050565b60006020820190508181036000830152612ea981612e6d565b9050919050565b7f4e487b7100000000000000000000000000000000000000000000000000000000600052603260045260246000fd5b7f45524332303a2064656372656173656420616c6c6f77616e63652062656c6f7760008201527f207a65726f000000000000000000000000000000000000000000000000000000602082015250565b6000612f3b602583612736565b9150612f4682612edf565b604082019050919050565b60006020820190508181036000830152612f6a81612f2e565b9050919050565b7f4552433230566f7465733a207369676e61747572652065787069726564000000600082015250565b6000612fa7601d83612736565b9150612fb282612f71565b602082019050919050565b60006020820190508181036000830152612fd681612f9a565b9050919050565b6000608082019050612ff260008301876129b3565b612fff6020830186612a0a565b61300c60408301856128f5565b61301960608301846128f5565b95945050505050565b7f4552433230566f7465733a20696e76616c6964206e6f6e636500000000000000600082015250565b6000613058601983612736565b915061306382613022565b602082019050919050565b600060208201905081810360008301526130878161304b565b9050919050565b7f45524332305065726d69743a206578706972656420646561646c696e65000000600082015250565b60006130c4601d83612736565b91506130cf8261308e565b602082019050919050565b600060208201905081810360008301526130f3816130b7565b9050919050565b600060c08201905061310f60008301896129b3565b61311c6020830188612a0a565b6131296040830187612a0a565b61313660608301866128f5565b61314360808301856128f5565b61315060a08301846128f5565b979650505050505050565b7f45524332305065726d69743a20696e76616c6964207369676e61747572650000600082015250565b6000613191601e83612736565b915061319c8261315b565b602082019050919050565b600060208201905081810360008301526131c081613184565b9050919050565b7f45524332303a20617070726f76652066726f6d20746865207a65726f2061646460008201527f7265737300000000000000000000000000000000000000000000000000000000602082015250565b6000613223602483612736565b915061322e826131c7565b604082019050919050565b6000602082019050818103600083015261325281613216565b9050919050565b7f45524332303a20617070726f766520746f20746865207a65726f20616464726560008201527f7373000000000000000000000000000000000000000000000000000000000000602082015250565b60006132b5602283612736565b91506132c082613259565b604082019050919050565b600060208201905081810360008301526132e4816132a8565b9050919050565b7f45524332303a20696e73756666696369656e7420616c6c6f77616e6365000000600082015250565b6000613321601d83612736565b915061332c826132eb565b602082019050919050565b6000602082019050818103600083015261335081613314565b9050919050565b7f45524332303a207472616e736665722066726f6d20746865207a65726f20616460008201527f6472657373000000000000000000000000000000000000000000000000000000602082015250565b60006133b3602583612736565b91506133be82613357565b604082019050919050565b600060208201905081810360008301526133e2816133a6565b9050919050565b7f45524332303a207472616e7366657220746f20746865207a65726f206164647260008201527f6573730000000000000000000000000000000000000000000000000000000000602082015250565b6000613445602383612736565b9150613450826133e9565b604082019050919050565b6000602082019050818103600083015261347481613438565b9050919050565b7f45524332303a207472616e7366657220616d6f756e742065786365656473206260008201527f616c616e63650000000000000000000000000000000000000000000000000000602082015250565b60006134d7602683612736565b91506134e28261347b565b604082019050919050565b60006020820190508181036000830152613506816134ca565b9050919050565b600061351882612849565b915061352383612849565b92508282101561353657613535612dbf565b5b828203905092915050565b7f4552433230566f7465733a20746f74616c20737570706c79207269736b73206f60008201527f766572666c6f77696e6720766f74657300000000000000000000000000000000602082015250565b600061359d603083612736565b91506135a882613541565b604082019050919050565b600060208201905081810360008301526135cc81613590565b9050919050565b7f53616665436173743a2076616c756520646f65736e27742066697420696e203360008201527f3220626974730000000000000000000000000000000000000000000000000000602082015250565b600061362f602683612736565b915061363a826135d3565b604082019050919050565b6000602082019050818103600083015261365e81613622565b9050919050565b600060a08201905061367a60008301886129b3565b61368760208301876129b3565b61369460408301866129b3565b6136a160608301856128f5565b6136ae6080830184612a0a565b9695505050505050565b7f4e487b7100000000000000000000000000000000000000000000000000000000600052601260045260246000fd5b60006136f282612849565b91506136fd83612849565b92508261370d5761370c6136b8565b5b828204905092915050565b7f45524332303a206d696e7420746f20746865207a65726f206164647265737300600082015250565b600061374e601f83612736565b915061375982613718565b602082019050919050565b6000602082019050818103600083015261377d81613741565b9050919050565b600060408201905061379960008301856128f5565b6137a660208301846128f5565b9392505050565b7f45524332303a206275726e2066726f6d20746865207a65726f2061646472657360008201527f7300000000000000000000000000000000000000000000000000000000000000602082015250565b6000613809602183612736565b9150613814826137ad565b604082019050919050565b60006020820190508181036000830152613838816137fc565b9050919050565b7f45524332303a206275726e20616d6f756e7420657863656564732062616c616e60008201527f6365000000000000000000000000000000000000000000000000000000000000602082015250565b600061389b602283612736565b91506138a68261383f565b604082019050919050565b600060208201905081810360008301526138ca8161388e565b9050919050565b600081905092915050565b7f1901000000000000000000000000000000000000000000000000000000000000600082015250565b60006139126002836138d1565b915061391d826138dc565b600282019050919050565b6000819050919050565b61394361393e826129a9565b613928565b82525050565b600061395482613905565b91506139608285613932565b6020820191506139708284613932565b6020820191508190509392505050565b600060808201905061399560008301876129b3565b6139a2602083018661297f565b6139af60408301856129b3565b6139bc60608301846129b3565b95945050505050565b7f4e487b7100000000000000000000000000000000000000000000000000000000600052602160045260246000fd5b7f45434453413a20696e76616c6964207369676e61747572650000000000000000600082015250565b6000613a2a601883612736565b9150613a35826139f4565b602082019050919050565b60006020820190508181036000830152613a5981613a1d565b9050919050565b7f45434453413a20696e76616c6964207369676e6174757265206c656e67746800600082015250565b6000613a96601f83612736565b9150613aa182613a60565b602082019050919050565b60006020820190508181036000830152613ac581613a89565b9050919050565b7f45434453413a20696e76616c6964207369676e6174757265202773272076616c60008201527f7565000000000000000000000000000000000000000000000000000000000000602082015250565b6000613b28602283612736565b9150613b3382613acc565b604082019050919050565b60006020820190508181036000830152613b5781613b1b565b9050919050565b7f53616665436173743a2076616c756520646f65736e27742066697420696e203260008201527f3234206269747300000000000000000000000000000000000000000000000000602082015250565b6000613bba602783612736565b9150613bc582613b5e565b604082019050919050565b60006020820190508181036000830152613be981613bad565b905091905056fea26469706673582212204365c389c57940a818633212cd3a9ed8319f9534c221c5129cb868c0b4f597b064736f6c63430008090033",
  "linkReferences": {},
  "deployedLinkReferences": {}
}