{
  "_format": "hh-sol-artifact-1",
  "contractName": "ECDSAMock",
  "sourceName": "contracts/openzeppelin/mocks/ECDSAMock.sol",
  "abi": [
    {
      "inputs": [
        {
          "internalType": "bytes32",
          "name": "hash",
          "type": "bytes32"
        },
        {
          "internalType": "bytes",
          "name": "signature",
          "type": "bytes"
        }
      ],
      "name": "recover",
      "outputs": [
        {
          "internalType": "address",
          "name": "",
          "type": "address"
        }
      ],
      "stateMutability": "pure",
      "type": "function"
    },
    {
      "inputs": [
        {
          "internalType": "bytes32",
          "name": "hash",
          "type": "bytes32"
        },
        {
          "internalType": "bytes32",
          "name": "r",
          "type": "bytes32"
        },
        {
          "internalType": "bytes32",
          "name": "vs",
          "type": "bytes32"
        }
      ],
      "name": "recover_r_vs",
      "outputs": [
        {
          "internalType": "address",
          "name": "",
          "type": "address"
        }
      ],
      "stateMutability": "pure",
      "type": "function"
    },
    {
      "inputs": [
        {
          "internalType": "bytes32",
          "name": "hash",
          "type": "bytes32"
        },
        {
          "internalType": "uint8",
          "name": "v",
          "type": "uint8"
        },
        {
          "internalType": "bytes32",
          "name": "r",
          "type": "bytes32"
        },
        {
          "internalType": "bytes32",
          "name": "s",
          "type": "bytes32"
        }
      ],
      "name": "recover_v_r_s",
      "outputs": [
        {
          "internalType": "address",
          "name": "",
          "type": "address"
        }
      ],
      "stateMutability": "pure",
      "type": "function"
    },
    {
      "inputs": [
        {
          "internalType": "bytes32",
          "name": "hash",
          "type": "bytes32"
        }
      ],
      "name": "toEthSignedMessageHash",
      "outputs": [
        {
          "internalType": "bytes32",
          "name": "",
          "type": "bytes32"
        }
      ],
      "stateMutability": "pure",
      "type": "function"
    },
    {
      "inputs": [
        {
          "internalType": "bytes",
          "name": "s",
          "type": "bytes"
        }
      ],
      "name": "toEthSignedMessageHash",
      "outputs": [
        {
          "internalType": "bytes32",
          "name": "",
          "type": "bytes32"
        }
      ],
      "stateMutability": "pure",
      "type": "function"
    }
  ],
  "bytecode": "0x608060405234801561001057600080fd5b5061107f806100206000396000f3fe608060405234801561001057600080fd5b50600436106100575760003560e01c8063126442731461005c57806319045a251461008c578063918a15cf146100bc57806392bd87b5146100ec578063a005410b1461011c575b600080fd5b61007660048036038101906100719190610866565b61014c565b604051610083919061090e565b60405180910390f35b6100a660048036038101906100a19190610a6f565b61016f565b6040516100b3919061090e565b60405180910390f35b6100d660048036038101906100d19190610acb565b61018c565b6040516100e39190610b07565b60405180910390f35b61010660048036038101906101019190610b22565b61019e565b6040516101139190610b07565b60405180910390f35b61013660048036038101906101319190610b6b565b6101b0565b604051610143919061090e565b60405180910390f35b6000610165848484886101d0909392919063ffffffff16565b9050949350505050565b600061018482846101fb90919063ffffffff16565b905092915050565b600061019782610222565b9050919050565b60006101a982610252565b9050919050565b60006101c783838661028d9092919063ffffffff16565b90509392505050565b60008060006101e1878787876102b6565b915091506101ee81610399565b8192505050949350505050565b600080600061020a8585610507565b9150915061021781610399565b819250505092915050565b6000816040516020016102359190610c36565b604051602081830303815290604052805190602001209050919050565b600061025e8251610559565b82604051602001610270929190610d5e565b604051602081830303815290604052805190602001209050919050565b600080600061029d868686610631565b915091506102aa81610399565b81925050509392505050565b6000807f7fffffffffffffffffffffffffffffff5d576e7357a4501ddfe92f46681b20a08360001c11156102f1576000600391509150610390565b6000600187878787604051600081526020016040526040516103169493929190610d9c565b6020604051602081039080840390855afa158015610338573d6000803e3d6000fd5b505050602060405103519050600073ffffffffffffffffffffffffffffffffffffffff168173ffffffffffffffffffffffffffffffffffffffff16141561038757600060019250925050610390565b80600092509250505b94509492505050565b600060048111156103ad576103ac610de1565b5b8160048111156103c0576103bf610de1565b5b14156103cb57610504565b600160048111156103df576103de610de1565b5b8160048111156103f2576103f1610de1565b5b1415610433576040517f08c379a000000000000000000000000000000000000000000000000000000000815260040161042a90610e6d565b60405180910390fd5b6002600481111561044757610446610de1565b5b81600481111561045a57610459610de1565b5b141561049b576040517f08c379a000000000000000000000000000000000000000000000000000000000815260040161049290610ed9565b60405180910390fd5b600360048111156104af576104ae610de1565b5b8160048111156104c2576104c1610de1565b5b1415610503576040517f08c379a00000000000000000000000000000000000000000000000000000000081526004016104fa90610f6b565b60405180910390fd5b5b50565b6000806041835114156105495760008060006020860151925060408601519150606086015160001a905061053d878285856102b6565b94509450505050610552565b60006002915091505b9250929050565b60606000600161056884610690565b01905060008167ffffffffffffffff81111561058757610586610944565b5b6040519080825280601f01601f1916602001820160405280156105b95781602001600182028036833780820191505090505b509050600082602001820190505b600115610626578080600190039150507f3031323334353637383961626364656600000000000000000000000000000000600a86061a8153600a85816106105761060f610f8b565b5b049450600085141561062157610626565b6105c7565b819350505050919050565b60008060007f7fffffffffffffffffffffffffffffffffffffffffffffffffffffffffffffff60001b841690506000601b60ff8660001c901c6106749190610ff3565b9050610682878288856102b6565b935093505050935093915050565b600080600090507a184f03e93ff9f4daa797ed6e38ed64bf6a1f01000000000000000083106106ee577a184f03e93ff9f4daa797ed6e38ed64bf6a1f01000000000000000083816106e4576106e3610f8b565b5b0492506040810190505b6d04ee2d6d415b85acef8100000000831061072b576d04ee2d6d415b85acef8100000000838161072157610720610f8b565b5b0492506020810190505b662386f26fc10000831061075a57662386f26fc1000083816107505761074f610f8b565b5b0492506010810190505b6305f5e1008310610783576305f5e100838161077957610778610f8b565b5b0492506008810190505b61271083106107a857612710838161079e5761079d610f8b565b5b0492506004810190505b606483106107cb57606483816107c1576107c0610f8b565b5b0492506002810190505b600a83106107da576001810190505b80915050919050565b6000604051905090565b600080fd5b600080fd5b6000819050919050565b61080a816107f7565b811461081557600080fd5b50565b60008135905061082781610801565b92915050565b600060ff82169050919050565b6108438161082d565b811461084e57600080fd5b50565b6000813590506108608161083a565b92915050565b600080600080608085870312156108805761087f6107ed565b5b600061088e87828801610818565b945050602061089f87828801610851565b93505060406108b087828801610818565b92505060606108c187828801610818565b91505092959194509250565b600073ffffffffffffffffffffffffffffffffffffffff82169050919050565b60006108f8826108cd565b9050919050565b610908816108ed565b82525050565b600060208201905061092360008301846108ff565b92915050565b600080fd5b600080fd5b6000601f19601f8301169050919050565b7f4e487b7100000000000000000000000000000000000000000000000000000000600052604160045260246000fd5b61097c82610933565b810181811067ffffffffffffffff8211171561099b5761099a610944565b5b80604052505050565b60006109ae6107e3565b90506109ba8282610973565b919050565b600067ffffffffffffffff8211156109da576109d9610944565b5b6109e382610933565b9050602081019050919050565b82818337600083830152505050565b6000610a12610a0d846109bf565b6109a4565b905082815260208101848484011115610a2e57610a2d61092e565b5b610a398482856109f0565b509392505050565b600082601f830112610a5657610a55610929565b5b8135610a668482602086016109ff565b91505092915050565b60008060408385031215610a8657610a856107ed565b5b6000610a9485828601610818565b925050602083013567ffffffffffffffff811115610ab557610ab46107f2565b5b610ac185828601610a41565b9150509250929050565b600060208284031215610ae157610ae06107ed565b5b6000610aef84828501610818565b91505092915050565b610b01816107f7565b82525050565b6000602082019050610b1c6000830184610af8565b92915050565b600060208284031215610b3857610b376107ed565b5b600082013567ffffffffffffffff811115610b5657610b556107f2565b5b610b6284828501610a41565b91505092915050565b600080600060608486031215610b8457610b836107ed565b5b6000610b9286828701610818565b9350506020610ba386828701610818565b9250506040610bb486828701610818565b9150509250925092565b600081905092915050565b7f19457468657265756d205369676e6564204d6573736167653a0a333200000000600082015250565b6000610bff601c83610bbe565b9150610c0a82610bc9565b601c82019050919050565b6000819050919050565b610c30610c2b826107f7565b610c15565b82525050565b6000610c4182610bf2565b9150610c4d8284610c1f565b60208201915081905092915050565b7f19457468657265756d205369676e6564204d6573736167653a0a000000000000600082015250565b6000610c92601a83610bbe565b9150610c9d82610c5c565b601a82019050919050565b600081519050919050565b60005b83811015610cd1578082015181840152602081019050610cb6565b83811115610ce0576000848401525b50505050565b6000610cf182610ca8565b610cfb8185610bbe565b9350610d0b818560208601610cb3565b80840191505092915050565b600081519050919050565b600081905092915050565b6000610d3882610d17565b610d428185610d22565b9350610d52818560208601610cb3565b80840191505092915050565b6000610d6982610c85565b9150610d758285610ce6565b9150610d818284610d2d565b91508190509392505050565b610d968161082d565b82525050565b6000608082019050610db16000830187610af8565b610dbe6020830186610d8d565b610dcb6040830185610af8565b610dd86060830184610af8565b95945050505050565b7f4e487b7100000000000000000000000000000000000000000000000000000000600052602160045260246000fd5b600082825260208201905092915050565b7f45434453413a20696e76616c6964207369676e61747572650000000000000000600082015250565b6000610e57601883610e10565b9150610e6282610e21565b602082019050919050565b60006020820190508181036000830152610e8681610e4a565b9050919050565b7f45434453413a20696e76616c6964207369676e6174757265206c656e67746800600082015250565b6000610ec3601f83610e10565b9150610ece82610e8d565b602082019050919050565b60006020820190508181036000830152610ef281610eb6565b9050919050565b7f45434453413a20696e76616c6964207369676e6174757265202773272076616c60008201527f7565000000000000000000000000000000000000000000000000000000000000602082015250565b6000610f55602283610e10565b9150610f6082610ef9565b604082019050919050565b60006020820190508181036000830152610f8481610f48565b9050919050565b7f4e487b7100000000000000000000000000000000000000000000000000000000600052601260045260246000fd5b6000819050919050565b7f4e487b7100000000000000000000000000000000000000000000000000000000600052601160045260246000fd5b6000610ffe82610fba565b915061100983610fba565b9250827fffffffffffffffffffffffffffffffffffffffffffffffffffffffffffffffff0382111561103e5761103d610fc4565b5b82820190509291505056fea264697066735822122072006da4c9515ca19a2e51b7dc63d03f7e7c5440c4b3435b35fe3c4676f4d5f664736f6c63430008090033",
  "linkReferences": {},
  "deployedLinkReferences": {}
}