{
  "_format": "hh-sol-artifact-1",
  "contractName": "SignatureCheckerMock",
  "sourceName": "contracts/openzeppelin/mocks/SignatureCheckerMock.sol",
  "abi": [
    {
      "inputs": [
        {
          "internalType": "address",
          "name": "signer",
          "type": "address"
        },
        {
          "internalType": "bytes32",
          "name": "hash",
          "type": "bytes32"
        },
        {
          "internalType": "bytes",
          "name": "signature",
          "type": "bytes"
        }
      ],
      "name": "isValidSignatureNow",
      "outputs": [
        {
          "internalType": "bool",
          "name": "",
          "type": "bool"
        }
      ],
      "stateMutability": "view",
      "type": "function"
    }
  ],
  "bytecode": "0x608060405234801561001057600080fd5b50610846806100206000396000f3fe608060405234801561001057600080fd5b506004361061002b5760003560e01c80636ccea65214610030575b600080fd5b61004a6004803603810190610045919061057f565b610060565b6040516100579190610609565b60405180910390f35b600061008d83838673ffffffffffffffffffffffffffffffffffffffff166100969092919063ffffffff16565b90509392505050565b60008060006100a5858561025c565b91509150600060048111156100bd576100bc610624565b5b8160048111156100d0576100cf610624565b5b14801561010857508573ffffffffffffffffffffffffffffffffffffffff168273ffffffffffffffffffffffffffffffffffffffff16145b1561011857600192505050610255565b6000808773ffffffffffffffffffffffffffffffffffffffff16631626ba7e60e01b888860405160240161014d9291906106ea565b604051602081830303815290604052907bffffffffffffffffffffffffffffffffffffffffffffffffffffffff19166020820180517bffffffffffffffffffffffffffffffffffffffffffffffffffffffff83818316178352505050506040516101b79190610756565b600060405180830381855afa9150503d80600081146101f2576040519150601f19603f3d011682016040523d82523d6000602084013e6101f7565b606091505b509150915081801561020a575060208151145b801561024e5750631626ba7e60e01b7bffffffffffffffffffffffffffffffffffffffffffffffffffffffff19168180602001905181019061024c9190610782565b145b9450505050505b9392505050565b60008060418351141561029e5760008060006020860151925060408601519150606086015160001a9050610292878285856102ae565b945094505050506102a7565b60006002915091505b9250929050565b6000807f7fffffffffffffffffffffffffffffff5d576e7357a4501ddfe92f46681b20a08360001c11156102e9576000600391509150610388565b60006001878787876040516000815260200160405260405161030e94939291906107cb565b6020604051602081039080840390855afa158015610330573d6000803e3d6000fd5b505050602060405103519050600073ffffffffffffffffffffffffffffffffffffffff168173ffffffffffffffffffffffffffffffffffffffff16141561037f57600060019250925050610388565b80600092509250505b94509492505050565b6000604051905090565b600080fd5b600080fd5b600073ffffffffffffffffffffffffffffffffffffffff82169050919050565b60006103d0826103a5565b9050919050565b6103e0816103c5565b81146103eb57600080fd5b50565b6000813590506103fd816103d7565b92915050565b6000819050919050565b61041681610403565b811461042157600080fd5b50565b6000813590506104338161040d565b92915050565b600080fd5b600080fd5b6000601f19601f8301169050919050565b7f4e487b7100000000000000000000000000000000000000000000000000000000600052604160045260246000fd5b61048c82610443565b810181811067ffffffffffffffff821117156104ab576104aa610454565b5b80604052505050565b60006104be610391565b90506104ca8282610483565b919050565b600067ffffffffffffffff8211156104ea576104e9610454565b5b6104f382610443565b9050602081019050919050565b82818337600083830152505050565b600061052261051d846104cf565b6104b4565b90508281526020810184848401111561053e5761053d61043e565b5b610549848285610500565b509392505050565b600082601f83011261056657610565610439565b5b813561057684826020860161050f565b91505092915050565b6000806000606084860312156105985761059761039b565b5b60006105a6868287016103ee565b93505060206105b786828701610424565b925050604084013567ffffffffffffffff8111156105d8576105d76103a0565b5b6105e486828701610551565b9150509250925092565b60008115159050919050565b610603816105ee565b82525050565b600060208201905061061e60008301846105fa565b92915050565b7f4e487b7100000000000000000000000000000000000000000000000000000000600052602160045260246000fd5b61065c81610403565b82525050565b600081519050919050565b600082825260208201905092915050565b60005b8381101561069c578082015181840152602081019050610681565b838111156106ab576000848401525b50505050565b60006106bc82610662565b6106c6818561066d565b93506106d681856020860161067e565b6106df81610443565b840191505092915050565b60006040820190506106ff6000830185610653565b818103602083015261071181846106b1565b90509392505050565b600081905092915050565b600061073082610662565b61073a818561071a565b935061074a81856020860161067e565b80840191505092915050565b60006107628284610725565b915081905092915050565b60008151905061077c8161040d565b92915050565b6000602082840312156107985761079761039b565b5b60006107a68482850161076d565b91505092915050565b600060ff82169050919050565b6107c5816107af565b82525050565b60006080820190506107e06000830187610653565b6107ed60208301866107bc565b6107fa6040830185610653565b6108076060830184610653565b9594505050505056fea2646970667358221220bd4c1e9d2bcb2e028044a7862af2b3356c8cca29d923aab2f6215fb99078b1dd64736f6c63430008090033",
  "linkReferences": {},
  "deployedLinkReferences": {}
}