{
  "_format": "hh-sol-artifact-1",
  "contractName": "UUPSUpgradeableMock",
  "sourceName": "contracts/openzeppelin/mocks/UUPS/UUPSUpgradeableMock.sol",
  "abi": [
    {
      "anonymous": false,
      "inputs": [
        {
          "indexed": false,
          "internalType": "address",
          "name": "previousAdmin",
          "type": "address"
        },
        {
          "indexed": false,
          "internalType": "address",
          "name": "newAdmin",
          "type": "address"
        }
      ],
      "name": "AdminChanged",
      "type": "event"
    },
    {
      "anonymous": false,
      "inputs": [
        {
          "indexed": true,
          "internalType": "address",
          "name": "beacon",
          "type": "address"
        }
      ],
      "name": "BeaconUpgraded",
      "type": "event"
    },
    {
      "anonymous": false,
      "inputs": [
        {
          "indexed": true,
          "internalType": "address",
          "name": "implementation",
          "type": "address"
        }
      ],
      "name": "Upgraded",
      "type": "event"
    },
    {
      "inputs": [],
      "name": "current",
      "outputs": [
        {
          "internalType": "uint256",
          "name": "",
          "type": "uint256"
        }
      ],
      "stateMutability": "view",
      "type": "function"
    },
    {
      "inputs": [],
      "name": "decrement",
      "outputs": [],
      "stateMutability": "nonpayable",
      "type": "function"
    },
    {
      "inputs": [],
      "name": "increment",
      "outputs": [],
      "stateMutability": "nonpayable",
      "type": "function"
    },
    {
      "inputs": [],
      "name": "proxiableUUID",
      "outputs": [
        {
          "internalType": "bytes32",
          "name": "",
          "type": "bytes32"
        }
      ],
      "stateMutability": "view",
      "type": "function"
    },
    {
      "inputs": [],
      "name": "reset",
      "outputs": [],
      "stateMutability": "nonpayable",
      "type": "function"
    },
    {
      "inputs": [
        {
          "internalType": "address",
          "name": "newImplementation",
          "type": "address"
        }
      ],
      "name": "upgradeTo",
      "outputs": [],
      "stateMutability": "nonpayable",
      "type": "function"
    },
    {
      "inputs": [
        {
          "internalType": "address",
          "name": "newImplementation",
          "type": "address"
        },
        {
          "internalType": "bytes",
          "name": "data",
          "type": "bytes"
        }
      ],
      "name": "upgradeToAndCall",
      "outputs": [],
      "stateMutability": "payable",
      "type": "function"
    }
  ],
  "bytecode": "0x60a06040523073ffffffffffffffffffffffffffffffffffffffff1660809073ffffffffffffffffffffffffffffffffffffffff1681525034801561004357600080fd5b506080516112fc61007b60003960008181610163015281816101f2015281816102ec0152818161037b015261042b01526112fc6000f3fe6080604052600436106100705760003560e01c806352d1902d1161004e57806352d1902d146100d15780639fa6a6e3146100fc578063d09de08a14610127578063d826f88f1461013e57610070565b80632baeceb7146100755780633659cfe61461008c5780634f1ef286146100b5575b600080fd5b34801561008157600080fd5b5061008a610155565b005b34801561009857600080fd5b506100b360048036038101906100ae9190610ac3565b610161565b005b6100cf60048036038101906100ca9190610c36565b6102ea565b005b3480156100dd57600080fd5b506100e6610427565b6040516100f39190610cab565b60405180910390f35b34801561010857600080fd5b506101116104e0565b60405161011e9190610cdf565b60405180910390f35b34801561013357600080fd5b5061013c6104f1565b005b34801561014a57600080fd5b506101536104fd565b005b61015f6000610509565b565b7f000000000000000000000000000000000000000000000000000000000000000073ffffffffffffffffffffffffffffffffffffffff163073ffffffffffffffffffffffffffffffffffffffff1614156101f0576040517f08c379a00000000000000000000000000000000000000000000000000000000081526004016101e790610d7d565b60405180910390fd5b7f000000000000000000000000000000000000000000000000000000000000000073ffffffffffffffffffffffffffffffffffffffff1661022f610565565b73ffffffffffffffffffffffffffffffffffffffff1614610285576040517f08c379a000000000000000000000000000000000000000000000000000000000815260040161027c90610e0f565b60405180910390fd5b61028e816105bc565b6102e781600067ffffffffffffffff8111156102ad576102ac610b0b565b5b6040519080825280601f01601f1916602001820160405280156102df5781602001600182028036833780820191505090505b5060006105bf565b50565b7f000000000000000000000000000000000000000000000000000000000000000073ffffffffffffffffffffffffffffffffffffffff163073ffffffffffffffffffffffffffffffffffffffff161415610379576040517f08c379a000000000000000000000000000000000000000000000000000000000815260040161037090610d7d565b60405180910390fd5b7f000000000000000000000000000000000000000000000000000000000000000073ffffffffffffffffffffffffffffffffffffffff166103b8610565565b73ffffffffffffffffffffffffffffffffffffffff161461040e576040517f08c379a000000000000000000000000000000000000000000000000000000000815260040161040590610e0f565b60405180910390fd5b610417826105bc565b610423828260016105bf565b5050565b60007f000000000000000000000000000000000000000000000000000000000000000073ffffffffffffffffffffffffffffffffffffffff163073ffffffffffffffffffffffffffffffffffffffff16146104b7576040517f08c379a00000000000000000000000000000000000000000000000000000000081526004016104ae90610ea1565b60405180910390fd5b7f360894a13ba1a3210667c828492db98dca3e2076cc3735a920a3ca505d382bbc60001b905090565b60006104ec600061073c565b905090565b6104fb600061074a565b565b6105076000610760565b565b60008160000154905060008111610555576040517f08c379a000000000000000000000000000000000000000000000000000000000815260040161054c90610f0d565b60405180910390fd5b6001810382600001819055505050565b60006105937f360894a13ba1a3210667c828492db98dca3e2076cc3735a920a3ca505d382bbc60001b61076d565b60000160009054906101000a900473ffffffffffffffffffffffffffffffffffffffff16905090565b50565b6105eb7f4910fdfa16fed3260ed0e7147f7cc6da11a60208b5b9406d12a635614ffd914360001b610777565b60000160009054906101000a900460ff161561060f5761060a83610781565b610737565b8273ffffffffffffffffffffffffffffffffffffffff166352d1902d6040518163ffffffff1660e01b815260040160206040518083038186803b15801561065557600080fd5b505afa92505050801561068657506040513d601f19601f820116820180604052508101906106839190610f59565b60015b6106c5576040517f08c379a00000000000000000000000000000000000000000000000000000000081526004016106bc90610ff8565b60405180910390fd5b7f360894a13ba1a3210667c828492db98dca3e2076cc3735a920a3ca505d382bbc60001b811461072a576040517f08c379a00000000000000000000000000000000000000000000000000000000081526004016107219061108a565b60405180910390fd5b5061073683838361083a565b5b505050565b600081600001549050919050565b6001816000016000828254019250508190555050565b6000816000018190555050565b6000819050919050565b6000819050919050565b61078a81610866565b6107c9576040517f08c379a00000000000000000000000000000000000000000000000000000000081526004016107c09061111c565b60405180910390fd5b806107f67f360894a13ba1a3210667c828492db98dca3e2076cc3735a920a3ca505d382bbc60001b61076d565b60000160006101000a81548173ffffffffffffffffffffffffffffffffffffffff021916908373ffffffffffffffffffffffffffffffffffffffff16021790555050565b61084383610889565b6000825111806108505750805b156108615761085f83836108d8565b505b505050565b6000808273ffffffffffffffffffffffffffffffffffffffff163b119050919050565b61089281610781565b8073ffffffffffffffffffffffffffffffffffffffff167fbc7cd75a20ee27fd9adebab32041f755214dbc6bffa90cc0225b39da2e5c2d3b60405160405180910390a250565b60606108fd83836040518060600160405280602781526020016112a060279139610905565b905092915050565b60606000808573ffffffffffffffffffffffffffffffffffffffff168560405161092f91906111b6565b600060405180830381855af49150503d806000811461096a576040519150601f19603f3d011682016040523d82523d6000602084013e61096f565b606091505b50915091506109808683838761098b565b925050509392505050565b606083156109ee576000835114156109e6576109a685610866565b6109e5576040517f08c379a00000000000000000000000000000000000000000000000000000000081526004016109dc90611219565b60405180910390fd5b5b8290506109f9565b6109f88383610a01565b5b949350505050565b600082511115610a145781518083602001fd5b806040517f08c379a0000000000000000000000000000000000000000000000000000000008152600401610a48919061127d565b60405180910390fd5b6000604051905090565b600080fd5b600080fd5b600073ffffffffffffffffffffffffffffffffffffffff82169050919050565b6000610a9082610a65565b9050919050565b610aa081610a85565b8114610aab57600080fd5b50565b600081359050610abd81610a97565b92915050565b600060208284031215610ad957610ad8610a5b565b5b6000610ae784828501610aae565b91505092915050565b600080fd5b600080fd5b6000601f19601f8301169050919050565b7f4e487b7100000000000000000000000000000000000000000000000000000000600052604160045260246000fd5b610b4382610afa565b810181811067ffffffffffffffff82111715610b6257610b61610b0b565b5b80604052505050565b6000610b75610a51565b9050610b818282610b3a565b919050565b600067ffffffffffffffff821115610ba157610ba0610b0b565b5b610baa82610afa565b9050602081019050919050565b82818337600083830152505050565b6000610bd9610bd484610b86565b610b6b565b905082815260208101848484011115610bf557610bf4610af5565b5b610c00848285610bb7565b509392505050565b600082601f830112610c1d57610c1c610af0565b5b8135610c2d848260208601610bc6565b91505092915050565b60008060408385031215610c4d57610c4c610a5b565b5b6000610c5b85828601610aae565b925050602083013567ffffffffffffffff811115610c7c57610c7b610a60565b5b610c8885828601610c08565b9150509250929050565b6000819050919050565b610ca581610c92565b82525050565b6000602082019050610cc06000830184610c9c565b92915050565b6000819050919050565b610cd981610cc6565b82525050565b6000602082019050610cf46000830184610cd0565b92915050565b600082825260208201905092915050565b7f46756e6374696f6e206d7573742062652063616c6c6564207468726f7567682060008201527f64656c656761746563616c6c0000000000000000000000000000000000000000602082015250565b6000610d67602c83610cfa565b9150610d7282610d0b565b604082019050919050565b60006020820190508181036000830152610d9681610d5a565b9050919050565b7f46756e6374696f6e206d7573742062652063616c6c6564207468726f7567682060008201527f6163746976652070726f78790000000000000000000000000000000000000000602082015250565b6000610df9602c83610cfa565b9150610e0482610d9d565b604082019050919050565b60006020820190508181036000830152610e2881610dec565b9050919050565b7f555550535570677261646561626c653a206d757374206e6f742062652063616c60008201527f6c6564207468726f7567682064656c656761746563616c6c0000000000000000602082015250565b6000610e8b603883610cfa565b9150610e9682610e2f565b604082019050919050565b60006020820190508181036000830152610eba81610e7e565b9050919050565b7f436f756e7465723a2064656372656d656e74206f766572666c6f770000000000600082015250565b6000610ef7601b83610cfa565b9150610f0282610ec1565b602082019050919050565b60006020820190508181036000830152610f2681610eea565b9050919050565b610f3681610c92565b8114610f4157600080fd5b50565b600081519050610f5381610f2d565b92915050565b600060208284031215610f6f57610f6e610a5b565b5b6000610f7d84828501610f44565b91505092915050565b7f45524331393637557067726164653a206e657720696d706c656d656e7461746960008201527f6f6e206973206e6f742055555053000000000000000000000000000000000000602082015250565b6000610fe2602e83610cfa565b9150610fed82610f86565b604082019050919050565b6000602082019050818103600083015261101181610fd5565b9050919050565b7f45524331393637557067726164653a20756e737570706f727465642070726f7860008201527f6961626c65555549440000000000000000000000000000000000000000000000602082015250565b6000611074602983610cfa565b915061107f82611018565b604082019050919050565b600060208201905081810360008301526110a381611067565b9050919050565b7f455243313936373a206e657720696d706c656d656e746174696f6e206973206e60008201527f6f74206120636f6e747261637400000000000000000000000000000000000000602082015250565b6000611106602d83610cfa565b9150611111826110aa565b604082019050919050565b60006020820190508181036000830152611135816110f9565b9050919050565b600081519050919050565b600081905092915050565b60005b83811015611170578082015181840152602081019050611155565b8381111561117f576000848401525b50505050565b60006111908261113c565b61119a8185611147565b93506111aa818560208601611152565b80840191505092915050565b60006111c28284611185565b915081905092915050565b7f416464726573733a2063616c6c20746f206e6f6e2d636f6e7472616374000000600082015250565b6000611203601d83610cfa565b915061120e826111cd565b602082019050919050565b60006020820190508181036000830152611232816111f6565b9050919050565b600081519050919050565b600061124f82611239565b6112598185610cfa565b9350611269818560208601611152565b61127281610afa565b840191505092915050565b600060208201905081810360008301526112978184611244565b90509291505056fe416464726573733a206c6f772d6c6576656c2064656c65676174652063616c6c206661696c6564a2646970667358221220c723ce4310953ef4f6c6e30815eec9c6212bbdd4a3a1d11f0165ea768f25e1ca64736f6c63430008090033",
  "linkReferences": {},
  "deployedLinkReferences": {}
}