{
  "_format": "hh-sol-artifact-1",
  "contractName": "GovernorTimelockControlMock",
  "sourceName": "contracts/openzeppelin/mocks/GovernorTimelockControlMock.sol",
  "abi": [
    {
      "inputs": [
        {
          "internalType": "string",
          "name": "name_",
          "type": "string"
        },
        {
          "internalType": "contract IVotes",
          "name": "token_",
          "type": "address"
        },
        {
          "internalType": "uint256",
          "name": "votingDelay_",
          "type": "uint256"
        },
        {
          "internalType": "uint256",
          "name": "votingPeriod_",
          "type": "uint256"
        },
        {
          "internalType": "contract TimelockController",
          "name": "timelock_",
          "type": "address"
        },
        {
          "internalType": "uint256",
          "name": "quorumNumerator_",
          "type": "uint256"
        }
      ],
      "stateMutability": "nonpayable",
      "type": "constructor"
    },
    {
      "inputs": [],
      "name": "Empty",
      "type": "error"
    },
    {
      "anonymous": false,
      "inputs": [
        {
          "indexed": false,
          "internalType": "uint256",
          "name": "proposalId",
          "type": "uint256"
        }
      ],
      "name": "ProposalCanceled",
      "type": "event"
    },
    {
      "anonymous": false,
      "inputs": [
        {
          "indexed": false,
          "internalType": "uint256",
          "name": "proposalId",
          "type": "uint256"
        },
        {
          "indexed": false,
          "internalType": "address",
          "name": "proposer",
          "type": "address"
        },
        {
          "indexed": false,
          "internalType": "address[]",
          "name": "targets",
          "type": "address[]"
        },
        {
          "indexed": false,
          "internalType": "uint256[]",
          "name": "values",
          "type": "uint256[]"
        },
        {
          "indexed": false,
          "internalType": "string[]",
          "name": "signatures",
          "type": "string[]"
        },
        {
          "indexed": false,
          "internalType": "bytes[]",
          "name": "calldatas",
          "type": "bytes[]"
        },
        {
          "indexed": false,
          "internalType": "uint256",
          "name": "startBlock",
          "type": "uint256"
        },
        {
          "indexed": false,
          "internalType": "uint256",
          "name": "endBlock",
          "type": "uint256"
        },
        {
          "indexed": false,
          "internalType": "string",
          "name": "description",
          "type": "string"
        }
      ],
      "name": "ProposalCreated",
      "type": "event"
    },
    {
      "anonymous": false,
      "inputs": [
        {
          "indexed": false,
          "internalType": "uint256",
          "name": "proposalId",
          "type": "uint256"
        }
      ],
      "name": "ProposalExecuted",
      "type": "event"
    },
    {
      "anonymous": false,
      "inputs": [
        {
          "indexed": false,
          "internalType": "uint256",
          "name": "proposalId",
          "type": "uint256"
        },
        {
          "indexed": false,
          "internalType": "uint256",
          "name": "eta",
          "type": "uint256"
        }
      ],
      "name": "ProposalQueued",
      "type": "event"
    },
    {
      "anonymous": false,
      "inputs": [
        {
          "indexed": false,
          "internalType": "uint256",
          "name": "oldProposalThreshold",
          "type": "uint256"
        },
        {
          "indexed": false,
          "internalType": "uint256",
          "name": "newProposalThreshold",
          "type": "uint256"
        }
      ],
      "name": "ProposalThresholdSet",
      "type": "event"
    },
    {
      "anonymous": false,
      "inputs": [
        {
          "indexed": false,
          "internalType": "uint256",
          "name": "oldQuorumNumerator",
          "type": "uint256"
        },
        {
          "indexed": false,
          "internalType": "uint256",
          "name": "newQuorumNumerator",
          "type": "uint256"
        }
      ],
      "name": "QuorumNumeratorUpdated",
      "type": "event"
    },
    {
      "anonymous": false,
      "inputs": [
        {
          "indexed": false,
          "internalType": "address",
          "name": "oldTimelock",
          "type": "address"
        },
        {
          "indexed": false,
          "internalType": "address",
          "name": "newTimelock",
          "type": "address"
        }
      ],
      "name": "TimelockChange",
      "type": "event"
    },
    {
      "anonymous": false,
      "inputs": [
        {
          "indexed": true,
          "internalType": "address",
          "name": "voter",
          "type": "address"
        },
        {
          "indexed": false,
          "internalType": "uint256",
          "name": "proposalId",
          "type": "uint256"
        },
        {
          "indexed": false,
          "internalType": "uint8",
          "name": "support",
          "type": "uint8"
        },
        {
          "indexed": false,
          "internalType": "uint256",
          "name": "weight",
          "type": "uint256"
        },
        {
          "indexed": false,
          "internalType": "string",
          "name": "reason",
          "type": "string"
        }
      ],
      "name": "VoteCast",
      "type": "event"
    },
    {
      "anonymous": false,
      "inputs": [
        {
          "indexed": true,
          "internalType": "address",
          "name": "voter",
          "type": "address"
        },
        {
          "indexed": false,
          "internalType": "uint256",
          "name": "proposalId",
          "type": "uint256"
        },
        {
          "indexed": false,
          "internalType": "uint8",
          "name": "support",
          "type": "uint8"
        },
        {
          "indexed": false,
          "internalType": "uint256",
          "name": "weight",
          "type": "uint256"
        },
        {
          "indexed": false,
          "internalType": "string",
          "name": "reason",
          "type": "string"
        },
        {
          "indexed": false,
          "internalType": "bytes",
          "name": "params",
          "type": "bytes"
        }
      ],
      "name": "VoteCastWithParams",
      "type": "event"
    },
    {
      "anonymous": false,
      "inputs": [
        {
          "indexed": false,
          "internalType": "uint256",
          "name": "oldVotingDelay",
          "type": "uint256"
        },
        {
          "indexed": false,
          "internalType": "uint256",
          "name": "newVotingDelay",
          "type": "uint256"
        }
      ],
      "name": "VotingDelaySet",
      "type": "event"
    },
    {
      "anonymous": false,
      "inputs": [
        {
          "indexed": false,
          "internalType": "uint256",
          "name": "oldVotingPeriod",
          "type": "uint256"
        },
        {
          "indexed": false,
          "internalType": "uint256",
          "name": "newVotingPeriod",
          "type": "uint256"
        }
      ],
      "name": "VotingPeriodSet",
      "type": "event"
    },
    {
      "inputs": [],
      "name": "BALLOT_TYPEHASH",
      "outputs": [
        {
          "internalType": "bytes32",
          "name": "",
          "type": "bytes32"
        }
      ],
      "stateMutability": "view",
      "type": "function"
    },
    {
      "inputs": [],
      "name": "COUNTING_MODE",
      "outputs": [
        {
          "internalType": "string",
          "name": "",
          "type": "string"
        }
      ],
      "stateMutability": "pure",
      "type": "function"
    },
    {
      "inputs": [],
      "name": "EXTENDED_BALLOT_TYPEHASH",
      "outputs": [
        {
          "internalType": "bytes32",
          "name": "",
          "type": "bytes32"
        }
      ],
      "stateMutability": "view",
      "type": "function"
    },
    {
      "inputs": [
        {
          "internalType": "address[]",
          "name": "targets",
          "type": "address[]"
        },
        {
          "internalType": "uint256[]",
          "name": "values",
          "type": "uint256[]"
        },
        {
          "internalType": "bytes[]",
          "name": "calldatas",
          "type": "bytes[]"
        },
        {
          "internalType": "bytes32",
          "name": "descriptionHash",
          "type": "bytes32"
        }
      ],
      "name": "cancel",
      "outputs": [
        {
          "internalType": "uint256",
          "name": "proposalId",
          "type": "uint256"
        }
      ],
      "stateMutability": "nonpayable",
      "type": "function"
    },
    {
      "inputs": [
        {
          "internalType": "uint256",
          "name": "proposalId",
          "type": "uint256"
        },
        {
          "internalType": "uint8",
          "name": "support",
          "type": "uint8"
        }
      ],
      "name": "castVote",
      "outputs": [
        {
          "internalType": "uint256",
          "name": "",
          "type": "uint256"
        }
      ],
      "stateMutability": "nonpayable",
      "type": "function"
    },
    {
      "inputs": [
        {
          "internalType": "uint256",
          "name": "proposalId",
          "type": "uint256"
        },
        {
          "internalType": "uint8",
          "name": "support",
          "type": "uint8"
        },
        {
          "internalType": "uint8",
          "name": "v",
          "type": "uint8"
        },
        {
          "internalType": "bytes32",
          "name": "r",
          "type": "bytes32"
        },
        {
          "internalType": "bytes32",
          "name": "s",
          "type": "bytes32"
        }
      ],
      "name": "castVoteBySig",
      "outputs": [
        {
          "internalType": "uint256",
          "name": "",
          "type": "uint256"
        }
      ],
      "stateMutability": "nonpayable",
      "type": "function"
    },
    {
      "inputs": [
        {
          "internalType": "uint256",
          "name": "proposalId",
          "type": "uint256"
        },
        {
          "internalType": "uint8",
          "name": "support",
          "type": "uint8"
        },
        {
          "internalType": "string",
          "name": "reason",
          "type": "string"
        }
      ],
      "name": "castVoteWithReason",
      "outputs": [
        {
          "internalType": "uint256",
          "name": "",
          "type": "uint256"
        }
      ],
      "stateMutability": "nonpayable",
      "type": "function"
    },
    {
      "inputs": [
        {
          "internalType": "uint256",
          "name": "proposalId",
          "type": "uint256"
        },
        {
          "internalType": "uint8",
          "name": "support",
          "type": "uint8"
        },
        {
          "internalType": "string",
          "name": "reason",
          "type": "string"
        },
        {
          "internalType": "bytes",
          "name": "params",
          "type": "bytes"
        }
      ],
      "name": "castVoteWithReasonAndParams",
      "outputs": [
        {
          "internalType": "uint256",
          "name": "",
          "type": "uint256"
        }
      ],
      "stateMutability": "nonpayable",
      "type": "function"
    },
    {
      "inputs": [
        {
          "internalType": "uint256",
          "name": "proposalId",
          "type": "uint256"
        },
        {
          "internalType": "uint8",
          "name": "support",
          "type": "uint8"
        },
        {
          "internalType": "string",
          "name": "reason",
          "type": "string"
        },
        {
          "internalType": "bytes",
          "name": "params",
          "type": "bytes"
        },
        {
          "internalType": "uint8",
          "name": "v",
          "type": "uint8"
        },
        {
          "internalType": "bytes32",
          "name": "r",
          "type": "bytes32"
        },
        {
          "internalType": "bytes32",
          "name": "s",
          "type": "bytes32"
        }
      ],
      "name": "castVoteWithReasonAndParamsBySig",
      "outputs": [
        {
          "internalType": "uint256",
          "name": "",
          "type": "uint256"
        }
      ],
      "stateMutability": "nonpayable",
      "type": "function"
    },
    {
      "inputs": [
        {
          "internalType": "address[]",
          "name": "targets",
          "type": "address[]"
        },
        {
          "internalType": "uint256[]",
          "name": "values",
          "type": "uint256[]"
        },
        {
          "internalType": "bytes[]",
          "name": "calldatas",
          "type": "bytes[]"
        },
        {
          "internalType": "bytes32",
          "name": "descriptionHash",
          "type": "bytes32"
        }
      ],
      "name": "execute",
      "outputs": [
        {
          "internalType": "uint256",
          "name": "",
          "type": "uint256"
        }
      ],
      "stateMutability": "payable",
      "type": "function"
    },
    {
      "inputs": [
        {
          "internalType": "address",
          "name": "account",
          "type": "address"
        },
        {
          "internalType": "uint256",
          "name": "blockNumber",
          "type": "uint256"
        }
      ],
      "name": "getVotes",
      "outputs": [
        {
          "internalType": "uint256",
          "name": "",
          "type": "uint256"
        }
      ],
      "stateMutability": "view",
      "type": "function"
    },
    {
      "inputs": [
        {
          "internalType": "address",
          "name": "account",
          "type": "address"
        },
        {
          "internalType": "uint256",
          "name": "blockNumber",
          "type": "uint256"
        },
        {
          "internalType": "bytes",
          "name": "params",
          "type": "bytes"
        }
      ],
      "name": "getVotesWithParams",
      "outputs": [
        {
          "internalType": "uint256",
          "name": "",
          "type": "uint256"
        }
      ],
      "stateMutability": "view",
      "type": "function"
    },
    {
      "inputs": [
        {
          "internalType": "uint256",
          "name": "proposalId",
          "type": "uint256"
        },
        {
          "internalType": "address",
          "name": "account",
          "type": "address"
        }
      ],
      "name": "hasVoted",
      "outputs": [
        {
          "internalType": "bool",
          "name": "",
          "type": "bool"
        }
      ],
      "stateMutability": "view",
      "type": "function"
    },
    {
      "inputs": [
        {
          "internalType": "address[]",
          "name": "targets",
          "type": "address[]"
        },
        {
          "internalType": "uint256[]",
          "name": "values",
          "type": "uint256[]"
        },
        {
          "internalType": "bytes[]",
          "name": "calldatas",
          "type": "bytes[]"
        },
        {
          "internalType": "bytes32",
          "name": "descriptionHash",
          "type": "bytes32"
        }
      ],
      "name": "hashProposal",
      "outputs": [
        {
          "internalType": "uint256",
          "name": "",
          "type": "uint256"
        }
      ],
      "stateMutability": "pure",
      "type": "function"
    },
    {
      "inputs": [],
      "name": "name",
      "outputs": [
        {
          "internalType": "string",
          "name": "",
          "type": "string"
        }
      ],
      "stateMutability": "view",
      "type": "function"
    },
    {
      "inputs": [],
      "name": "nonGovernanceFunction",
      "outputs": [],
      "stateMutability": "nonpayable",
      "type": "function"
    },
    {
      "inputs": [
        {
          "internalType": "address",
          "name": "",
          "type": "address"
        },
        {
          "internalType": "address",
          "name": "",
          "type": "address"
        },
        {
          "internalType": "uint256[]",
          "name": "",
          "type": "uint256[]"
        },
        {
          "internalType": "uint256[]",
          "name": "",
          "type": "uint256[]"
        },
        {
          "internalType": "bytes",
          "name": "",
          "type": "bytes"
        }
      ],
      "name": "onERC1155BatchReceived",
      "outputs": [
        {
          "internalType": "bytes4",
          "name": "",
          "type": "bytes4"
        }
      ],
      "stateMutability": "nonpayable",
      "type": "function"
    },
    {
      "inputs": [
        {
          "internalType": "address",
          "name": "",
          "type": "address"
        },
        {
          "internalType": "address",
          "name": "",
          "type": "address"
        },
        {
          "internalType": "uint256",
          "name": "",
          "type": "uint256"
        },
        {
          "internalType": "uint256",
          "name": "",
          "type": "uint256"
        },
        {
          "internalType": "bytes",
          "name": "",
          "type": "bytes"
        }
      ],
      "name": "onERC1155Received",
      "outputs": [
        {
          "internalType": "bytes4",
          "name": "",
          "type": "bytes4"
        }
      ],
      "stateMutability": "nonpayable",
      "type": "function"
    },
    {
      "inputs": [
        {
          "internalType": "address",
          "name": "",
          "type": "address"
        },
        {
          "internalType": "address",
          "name": "",
          "type": "address"
        },
        {
          "internalType": "uint256",
          "name": "",
          "type": "uint256"
        },
        {
          "internalType": "bytes",
          "name": "",
          "type": "bytes"
        }
      ],
      "name": "onERC721Received",
      "outputs": [
        {
          "internalType": "bytes4",
          "name": "",
          "type": "bytes4"
        }
      ],
      "stateMutability": "nonpayable",
      "type": "function"
    },
    {
      "inputs": [
        {
          "internalType": "uint256",
          "name": "proposalId",
          "type": "uint256"
        }
      ],
      "name": "proposalDeadline",
      "outputs": [
        {
          "internalType": "uint256",
          "name": "",
          "type": "uint256"
        }
      ],
      "stateMutability": "view",
      "type": "function"
    },
    {
      "inputs": [
        {
          "internalType": "uint256",
          "name": "proposalId",
          "type": "uint256"
        }
      ],
      "name": "proposalEta",
      "outputs": [
        {
          "internalType": "uint256",
          "name": "",
          "type": "uint256"
        }
      ],
      "stateMutability": "view",
      "type": "function"
    },
    {
      "inputs": [
        {
          "internalType": "uint256",
          "name": "proposalId",
          "type": "uint256"
        }
      ],
      "name": "proposalSnapshot",
      "outputs": [
        {
          "internalType": "uint256",
          "name": "",
          "type": "uint256"
        }
      ],
      "stateMutability": "view",
      "type": "function"
    },
    {
      "inputs": [],
      "name": "proposalThreshold",
      "outputs": [
        {
          "internalType": "uint256",
          "name": "",
          "type": "uint256"
        }
      ],
      "stateMutability": "view",
      "type": "function"
    },
    {
      "inputs": [
        {
          "internalType": "uint256",
          "name": "proposalId",
          "type": "uint256"
        }
      ],
      "name": "proposalVotes",
      "outputs": [
        {
          "internalType": "uint256",
          "name": "againstVotes",
          "type": "uint256"
        },
        {
          "internalType": "uint256",
          "name": "forVotes",
          "type": "uint256"
        },
        {
          "internalType": "uint256",
          "name": "abstainVotes",
          "type": "uint256"
        }
      ],
      "stateMutability": "view",
      "type": "function"
    },
    {
      "inputs": [
        {
          "internalType": "address[]",
          "name": "targets",
          "type": "address[]"
        },
        {
          "internalType": "uint256[]",
          "name": "values",
          "type": "uint256[]"
        },
        {
          "internalType": "bytes[]",
          "name": "calldatas",
          "type": "bytes[]"
        },
        {
          "internalType": "string",
          "name": "description",
          "type": "string"
        }
      ],
      "name": "propose",
      "outputs": [
        {
          "internalType": "uint256",
          "name": "",
          "type": "uint256"
        }
      ],
      "stateMutability": "nonpayable",
      "type": "function"
    },
    {
      "inputs": [
        {
          "internalType": "address[]",
          "name": "targets",
          "type": "address[]"
        },
        {
          "internalType": "uint256[]",
          "name": "values",
          "type": "uint256[]"
        },
        {
          "internalType": "bytes[]",
          "name": "calldatas",
          "type": "bytes[]"
        },
        {
          "internalType": "bytes32",
          "name": "descriptionHash",
          "type": "bytes32"
        }
      ],
      "name": "queue",
      "outputs": [
        {
          "internalType": "uint256",
          "name": "",
          "type": "uint256"
        }
      ],
      "stateMutability": "nonpayable",
      "type": "function"
    },
    {
      "inputs": [
        {
          "internalType": "uint256",
          "name": "blockNumber",
          "type": "uint256"
        }
      ],
      "name": "quorum",
      "outputs": [
        {
          "internalType": "uint256",
          "name": "",
          "type": "uint256"
        }
      ],
      "stateMutability": "view",
      "type": "function"
    },
    {
      "inputs": [],
      "name": "quorumDenominator",
      "outputs": [
        {
          "internalType": "uint256",
          "name": "",
          "type": "uint256"
        }
      ],
      "stateMutability": "view",
      "type": "function"
    },
    {
      "inputs": [
        {
          "internalType": "uint256",
          "name": "blockNumber",
          "type": "uint256"
        }
      ],
      "name": "quorumNumerator",
      "outputs": [
        {
          "internalType": "uint256",
          "name": "",
          "type": "uint256"
        }
      ],
      "stateMutability": "view",
      "type": "function"
    },
    {
      "inputs": [],
      "name": "quorumNumerator",
      "outputs": [
        {
          "internalType": "uint256",
          "name": "",
          "type": "uint256"
        }
      ],
      "stateMutability": "view",
      "type": "function"
    },
    {
      "inputs": [
        {
          "internalType": "address",
          "name": "target",
          "type": "address"
        },
        {
          "internalType": "uint256",
          "name": "value",
          "type": "uint256"
        },
        {
          "internalType": "bytes",
          "name": "data",
          "type": "bytes"
        }
      ],
      "name": "relay",
      "outputs": [],
      "stateMutability": "payable",
      "type": "function"
    },
    {
      "inputs": [
        {
          "internalType": "uint256",
          "name": "newProposalThreshold",
          "type": "uint256"
        }
      ],
      "name": "setProposalThreshold",
      "outputs": [],
      "stateMutability": "nonpayable",
      "type": "function"
    },
    {
      "inputs": [
        {
          "internalType": "uint256",
          "name": "newVotingDelay",
          "type": "uint256"
        }
      ],
      "name": "setVotingDelay",
      "outputs": [],
      "stateMutability": "nonpayable",
      "type": "function"
    },
    {
      "inputs": [
        {
          "internalType": "uint256",
          "name": "newVotingPeriod",
          "type": "uint256"
        }
      ],
      "name": "setVotingPeriod",
      "outputs": [],
      "stateMutability": "nonpayable",
      "type": "function"
    },
    {
      "inputs": [
        {
          "internalType": "uint256",
          "name": "proposalId",
          "type": "uint256"
        }
      ],
      "name": "state",
      "outputs": [
        {
          "internalType": "enum IGovernor.ProposalState",
          "name": "",
          "type": "uint8"
        }
      ],
      "stateMutability": "view",
      "type": "function"
    },
    {
      "inputs": [
        {
          "internalType": "bytes4",
          "name": "interfaceId",
          "type": "bytes4"
        }
      ],
      "name": "supportsInterface",
      "outputs": [
        {
          "internalType": "bool",
          "name": "",
          "type": "bool"
        }
      ],
      "stateMutability": "view",
      "type": "function"
    },
    {
      "inputs": [],
      "name": "timelock",
      "outputs": [
        {
          "internalType": "address",
          "name": "",
          "type": "address"
        }
      ],
      "stateMutability": "view",
      "type": "function"
    },
    {
      "inputs": [],
      "name": "token",
      "outputs": [
        {
          "internalType": "contract IVotes",
          "name": "",
          "type": "address"
        }
      ],
      "stateMutability": "view",
      "type": "function"
    },
    {
      "inputs": [
        {
          "internalType": "uint256",
          "name": "newQuorumNumerator",
          "type": "uint256"
        }
      ],
      "name": "updateQuorumNumerator",
      "outputs": [],
      "stateMutability": "nonpayable",
      "type": "function"
    },
    {
      "inputs": [
        {
          "internalType": "contract TimelockController",
          "name": "newTimelock",
          "type": "address"
        }
      ],
      "name": "updateTimelock",
      "outputs": [],
      "stateMutability": "nonpayable",
      "type": "function"
    },
    {
      "inputs": [],
      "name": "version",
      "outputs": [
        {
          "internalType": "string",
          "name": "",
          "type": "string"
        }
      ],
      "stateMutability": "view",
      "type": "function"
    },
    {
      "inputs": [],
      "name": "votingDelay",
      "outputs": [
        {
          "internalType": "uint256",
          "name": "",
          "type": "uint256"
        }
      ],
      "stateMutability": "view",
      "type": "function"
    },
    {
      "inputs": [],
      "name": "votingPeriod",
      "outputs": [
        {
          "internalType": "uint256",
          "name": "",
          "type": "uint256"
        }
      ],
      "stateMutability": "view",
      "type": "function"
    },
    {
      "stateMutability": "payable",
      "type": "receive"
    }
  ],
  "bytecode": "0x6101606040523480156200001257600080fd5b506040516200828c3803806200828c833981810160405281019062000038919062000f07565b808583868660008b8062000051620001b960201b60201c565b60008280519060200120905060008280519060200120905060007f8b73c3c69bb8fe3d512ecc4cf759cc79239f7b179b0ffacaa9a75d522b39400f90508260e081815250508161010081815250504660a08181525050620000ba818484620001f660201b60201c565b608081815250503073ffffffffffffffffffffffffffffffffffffffff1660c08173ffffffffffffffffffffffffffffffffffffffff1681525050806101208181525050505050505080600090805190602001906200011b92919062000bad565b50506200012e836200023260201b60201c565b6200013f826200027960201b60201c565b62000150816200030660201b60201c565b50505062000164816200034d60201b60201c565b508073ffffffffffffffffffffffffffffffffffffffff166101408173ffffffffffffffffffffffffffffffffffffffff168152505050620001ac81620003ee60201b60201c565b505050505050506200148e565b60606040518060400160405280600181526020017f3100000000000000000000000000000000000000000000000000000000000000815250905090565b600083838346306040516020016200021395949392919062000fff565b6040516020818303038152906040528051906020012090509392505050565b7fc565b045403dc03c2eea82b81a0465edad9e2e7fc4d97e11421c209da93d7a9360045482604051620002679291906200105c565b60405180910390a18060048190555050565b60008111620002bf576040517f08c379a0000000000000000000000000000000000000000000000000000000008152600401620002b69062001110565b60405180910390fd5b7f7e3f7f0708a84de9203036abaa450dccc85ad5ff52f78c170f3edb55cf5e882860055482604051620002f49291906200105c565b60405180910390a18060058190555050565b7fccb45da8d5717e6c4544694297c4ba5cf151d455c9bb0ed4fc7a38411bc05461600654826040516200033b9291906200105c565b60405180910390a18060068190555050565b7f08f74ea46ef7894f65eabfb5e6e695de773a000b47c529ab559178069b226401600760009054906101000a900473ffffffffffffffffffffffffffffffffffffffff1682604051620003a292919062001132565b60405180910390a180600760006101000a81548173ffffffffffffffffffffffffffffffffffffffff021916908373ffffffffffffffffffffffffffffffffffffffff16021790555050565b620003fe620005cd60201b60201c565b81111562000443576040517f08c379a00000000000000000000000000000000000000000000000000000000081526004016200043a90620011fb565b60405180910390fd5b600062000455620005d660201b60201c565b9050600081141580156200047157506000600a60000180549050145b156200057157600a6000016040518060400160405280600063ffffffff168152602001620004aa846200062c60201b6200223c1760201c565b7bffffffffffffffffffffffffffffffffffffffffffffffffffffffff168152509080600181540180825580915050600190039060005260206000200160009091909190915060008201518160000160006101000a81548163ffffffff021916908363ffffffff16021790555060208201518160000160046101000a8154817bffffffffffffffffffffffffffffffffffffffffffffffffffffffff02191690837bffffffffffffffffffffffffffffffffffffffffffffffffffffffff16021790555050505b6200058c82600a6200069a60201b620022a71790919060201c565b50507f0553476bf02ef2726e8ce5ced78d63e26e602e4a2257b1f559418e24b46339978183604051620005c19291906200105c565b60405180910390a15050565b60006064905090565b600080600a60000180549050146200062357620005ff600a6200072a60201b620023151760201c565b7bffffffffffffffffffffffffffffffffffffffffffffffffffffffff1662000627565b6009545b905090565b60007bffffffffffffffffffffffffffffffffffffffffffffffffffffffff801682111562000692576040517f08c379a0000000000000000000000000000000000000000000000000000000008152600401620006899062001293565b60405180910390fd5b819050919050565b600080620006dd84600001620006bb43620007a060201b6200237f1760201c565b620006d1866200062c60201b6200223c1760201c565b620007f660201b60201c565b817bffffffffffffffffffffffffffffffffffffffffffffffffffffffff169150807bffffffffffffffffffffffffffffffffffffffffffffffffffffffff169050915091509250929050565b600080826000018054905090506000811462000795576200076383600001600183620007579190620012e4565b62000b9860201b60201c565b60000160049054906101000a90047bffffffffffffffffffffffffffffffffffffffffffffffffffffffff1662000798565b60005b915050919050565b600063ffffffff8016821115620007ee576040517f08c379a0000000000000000000000000000000000000000000000000000000008152600401620007e59062001395565b60405180910390fd5b819050919050565b600080600085805490509050600081111562000aa85760006200082e87600184620008229190620012e4565b62000b9860201b60201c565b6040518060400160405290816000820160009054906101000a900463ffffffff1663ffffffff1663ffffffff1681526020016000820160049054906101000a90047bffffffffffffffffffffffffffffffffffffffffffffffffffffffff167bffffffffffffffffffffffffffffffffffffffffffffffffffffffff167bffffffffffffffffffffffffffffffffffffffffffffffffffffffff168152505090508563ffffffff16816000015163ffffffff16111562000925576040517f08c379a00000000000000000000000000000000000000000000000000000000081526004016200091c9062001407565b60405180910390fd5b8563ffffffff16816000015163ffffffff161415620009b657846200095f88600185620009539190620012e4565b62000b9860201b60201c565b60000160046101000a8154817bffffffffffffffffffffffffffffffffffffffffffffffffffffffff02191690837bffffffffffffffffffffffffffffffffffffffffffffffffffffffff16021790555062000a96565b8660405180604001604052808863ffffffff168152602001877bffffffffffffffffffffffffffffffffffffffffffffffffffffffff168152509080600181540180825580915050600190039060005260206000200160009091909190915060008201518160000160006101000a81548163ffffffff021916908363ffffffff16021790555060208201518160000160046101000a8154817bffffffffffffffffffffffffffffffffffffffffffffffffffffffff02191690837bffffffffffffffffffffffffffffffffffffffffffffffffffffffff16021790555050505b80602001518593509350505062000b90565b8560405180604001604052808763ffffffff168152602001867bffffffffffffffffffffffffffffffffffffffffffffffffffffffff168152509080600181540180825580915050600190039060005260206000200160009091909190915060008201518160000160006101000a81548163ffffffff021916908363ffffffff16021790555060208201518160000160046101000a8154817bffffffffffffffffffffffffffffffffffffffffffffffffffffffff02191690837bffffffffffffffffffffffffffffffffffffffffffffffffffffffff160217905550505060008492509250505b935093915050565b60008260005281602060002001905092915050565b82805462000bbb9062001458565b90600052602060002090601f01602090048101928262000bdf576000855562000c2b565b82601f1062000bfa57805160ff191683800117855562000c2b565b8280016001018555821562000c2b579182015b8281111562000c2a57825182559160200191906001019062000c0d565b5b50905062000c3a919062000c3e565b5090565b5b8082111562000c5957600081600090555060010162000c3f565b5090565b6000604051905090565b600080fd5b600080fd5b600080fd5b600080fd5b6000601f19601f8301169050919050565b7f4e487b7100000000000000000000000000000000000000000000000000000000600052604160045260246000fd5b62000cc68262000c7b565b810181811067ffffffffffffffff8211171562000ce85762000ce762000c8c565b5b80604052505050565b600062000cfd62000c5d565b905062000d0b828262000cbb565b919050565b600067ffffffffffffffff82111562000d2e5762000d2d62000c8c565b5b62000d398262000c7b565b9050602081019050919050565b60005b8381101562000d6657808201518184015260208101905062000d49565b8381111562000d76576000848401525b50505050565b600062000d9362000d8d8462000d10565b62000cf1565b90508281526020810184848401111562000db25762000db162000c76565b5b62000dbf84828562000d46565b509392505050565b600082601f83011262000ddf5762000dde62000c71565b5b815162000df184826020860162000d7c565b91505092915050565b600073ffffffffffffffffffffffffffffffffffffffff82169050919050565b600062000e278262000dfa565b9050919050565b600062000e3b8262000e1a565b9050919050565b62000e4d8162000e2e565b811462000e5957600080fd5b50565b60008151905062000e6d8162000e42565b92915050565b6000819050919050565b62000e888162000e73565b811462000e9457600080fd5b50565b60008151905062000ea88162000e7d565b92915050565b600062000ebb8262000dfa565b9050919050565b600062000ecf8262000eae565b9050919050565b62000ee18162000ec2565b811462000eed57600080fd5b50565b60008151905062000f018162000ed6565b92915050565b60008060008060008060c0878903121562000f275762000f2662000c67565b5b600087015167ffffffffffffffff81111562000f485762000f4762000c6c565b5b62000f5689828a0162000dc7565b965050602062000f6989828a0162000e5c565b955050604062000f7c89828a0162000e97565b945050606062000f8f89828a0162000e97565b935050608062000fa289828a0162000ef0565b92505060a062000fb589828a0162000e97565b9150509295509295509295565b6000819050919050565b62000fd78162000fc2565b82525050565b62000fe88162000e73565b82525050565b62000ff98162000e1a565b82525050565b600060a08201905062001016600083018862000fcc565b62001025602083018762000fcc565b62001034604083018662000fcc565b62001043606083018562000fdd565b62001052608083018462000fee565b9695505050505050565b600060408201905062001073600083018562000fdd565b62001082602083018462000fdd565b9392505050565b600082825260208201905092915050565b7f476f7665726e6f7253657474696e67733a20766f74696e6720706572696f642060008201527f746f6f206c6f7700000000000000000000000000000000000000000000000000602082015250565b6000620010f860278362001089565b915062001105826200109a565b604082019050919050565b600060208201905081810360008301526200112b81620010e9565b9050919050565b600060408201905062001149600083018562000fee565b62001158602083018462000fee565b9392505050565b7f476f7665726e6f72566f74657351756f72756d4672616374696f6e3a2071756f60008201527f72756d4e756d657261746f72206f7665722071756f72756d44656e6f6d696e6160208201527f746f720000000000000000000000000000000000000000000000000000000000604082015250565b6000620011e360438362001089565b9150620011f0826200115f565b606082019050919050565b600060208201905081810360008301526200121681620011d4565b9050919050565b7f53616665436173743a2076616c756520646f65736e27742066697420696e203260008201527f3234206269747300000000000000000000000000000000000000000000000000602082015250565b60006200127b60278362001089565b915062001288826200121d565b604082019050919050565b60006020820190508181036000830152620012ae816200126c565b9050919050565b7f4e487b7100000000000000000000000000000000000000000000000000000000600052601160045260246000fd5b6000620012f18262000e73565b9150620012fe8362000e73565b925082821015620013145762001313620012b5565b5b828203905092915050565b7f53616665436173743a2076616c756520646f65736e27742066697420696e203360008201527f3220626974730000000000000000000000000000000000000000000000000000602082015250565b60006200137d60268362001089565b91506200138a826200131f565b604082019050919050565b60006020820190508181036000830152620013b0816200136e565b9050919050565b7f436865636b706f696e743a20696e76616c6964206b6579000000000000000000600082015250565b6000620013ef60178362001089565b9150620013fc82620013b7565b602082019050919050565b600060208201905081810360008301526200142281620013e0565b9050919050565b7f4e487b7100000000000000000000000000000000000000000000000000000000600052602260045260246000fd5b600060028204905060018216806200147157607f821691505b6020821081141562001488576200148762001429565b5b50919050565b60805160a05160c05160e051610100516101205161014051616d95620014f76000396000818161221a01528181612e8001526130f601526000613767015260006137a901526000613788015260006136bd015260006137130152600061373c0152616d956000f3fe6080604052600436106102605760003560e01c806370b0f66011610144578063c28bc2fa116100b6578063ea0217cf1161007a578063ea0217cf14610a28578063eb9019d414610a51578063ece40cc114610a8e578063f23a6e6114610ab7578063f8ce560a14610af4578063fc0c546a14610b31576102a6565b8063c28bc2fa1461094e578063c59057e41461096a578063d33219b4146109a7578063dd4e2ba5146109d2578063deaaa7cc146109fd576102a6565b8063a7713a7011610108578063a7713a7014610818578063a890c91014610843578063ab58fb8e1461086c578063b58131b0146108a9578063bc197c81146108d4578063c01f9e3714610911576102a6565b806370b0f6601461070d5780637b3c71d3146107365780637d5e81e21461077357806397c3d334146107b05780639a802a6d146107db576102a6565b80633932abb1116101dd578063452115d6116101a1578063452115d6146105af578063544ffc9c146105ec57806354fd4d501461062b57806356781388146106565780635f398a141461069357806360c4247f146106d0576102a6565b80633932abb1146104b65780633bccf4fd146104e15780633e4f49e61461051e578063417491db1461055b5780634385963214610572576102a6565b8063150b7a0211610224578063150b7a02146103a4578063160cbed7146103e15780632656227d1461041e5780632d63f6931461044e5780632fe3e2611461048b576102a6565b806301ffc9a7146102ab57806302a251a3146102e8578063034201811461031357806306f3f9e61461035057806306fdde0314610379576102a6565b366102a6573073ffffffffffffffffffffffffffffffffffffffff16610284610b5c565b73ffffffffffffffffffffffffffffffffffffffff16146102a457600080fd5b005b600080fd5b3480156102b757600080fd5b506102d260048036038101906102cd91906143f9565b610b6b565b6040516102df9190614441565b60405180910390f35b3480156102f457600080fd5b506102fd610b7d565b60405161030a9190614475565b60405180910390f35b34801561031f57600080fd5b5061033a600480360381019061033591906146d1565b610b87565b6040516103479190614475565b60405180910390f35b34801561035c57600080fd5b50610377600480360381019061037291906147af565b610c6c565b005b34801561038557600080fd5b5061038e610d68565b60405161039b9190614864565b60405180910390f35b3480156103b057600080fd5b506103cb60048036038101906103c691906148e4565b610dfa565b6040516103d89190614976565b60405180910390f35b3480156103ed57600080fd5b5061040860048036038101906104039190614bf8565b610e0e565b6040516104159190614475565b60405180910390f35b61043860048036038101906104339190614bf8565b6110e6565b6040516104459190614475565b60405180910390f35b34801561045a57600080fd5b50610475600480360381019061047091906147af565b611233565b6040516104829190614475565b60405180910390f35b34801561049757600080fd5b506104a06112a1565b6040516104ad9190614cc2565b60405180910390f35b3480156104c257600080fd5b506104cb6112c5565b6040516104d89190614475565b60405180910390f35b3480156104ed57600080fd5b5061050860048036038101906105039190614cdd565b6112cf565b6040516105159190614475565b60405180910390f35b34801561052a57600080fd5b50610545600480360381019061054091906147af565b611359565b6040516105529190614dcf565b60405180910390f35b34801561056757600080fd5b5061057061136b565b005b34801561057e57600080fd5b5061059960048036038101906105949190614dea565b61136d565b6040516105a69190614441565b60405180910390f35b3480156105bb57600080fd5b506105d660048036038101906105d19190614bf8565b6113d8565b6040516105e39190614475565b60405180910390f35b3480156105f857600080fd5b50610613600480360381019061060e91906147af565b6113f0565b60405161062293929190614e2a565b60405180910390f35b34801561063757600080fd5b50610640611428565b60405161064d9190614864565b60405180910390f35b34801561066257600080fd5b5061067d60048036038101906106789190614e61565b611465565b60405161068a9190614475565b60405180910390f35b34801561069f57600080fd5b506106ba60048036038101906106b59190614ea1565b611496565b6040516106c79190614475565b60405180910390f35b3480156106dc57600080fd5b506106f760048036038101906106f291906147af565b611500565b6040516107049190614475565b60405180910390f35b34801561071957600080fd5b50610734600480360381019061072f91906147af565b61164d565b005b34801561074257600080fd5b5061075d60048036038101906107589190614f45565b611749565b60405161076a9190614475565b60405180910390f35b34801561077f57600080fd5b5061079a6004803603810190610795919061505a565b6117b1565b6040516107a79190614475565b60405180910390f35b3480156107bc57600080fd5b506107c5611ab8565b6040516107d29190614475565b60405180910390f35b3480156107e757600080fd5b5061080260048036038101906107fd9190615131565b611ac1565b60405161080f9190614475565b60405180910390f35b34801561082457600080fd5b5061082d611ad7565b60405161083a9190614475565b60405180910390f35b34801561084f57600080fd5b5061086a600480360381019061086591906151f0565b611b1e565b005b34801561087857600080fd5b50610893600480360381019061088e91906147af565b611c1a565b6040516108a09190614475565b60405180910390f35b3480156108b557600080fd5b506108be611cf6565b6040516108cb9190614475565b60405180910390f35b3480156108e057600080fd5b506108fb60048036038101906108f6919061521d565b611d05565b6040516109089190614976565b60405180910390f35b34801561091d57600080fd5b50610938600480360381019061093391906147af565b611d1a565b6040516109459190614475565b60405180910390f35b61096860048036038101906109639190615342565b611d88565b005b34801561097657600080fd5b50610991600480360381019061098c9190614bf8565b611f16565b60405161099e9190614475565b60405180910390f35b3480156109b357600080fd5b506109bc611f52565b6040516109c991906153c5565b60405180910390f35b3480156109de57600080fd5b506109e7611f7c565b6040516109f49190614864565b60405180910390f35b348015610a0957600080fd5b50610a12611fb9565b604051610a1f9190614cc2565b60405180910390f35b348015610a3457600080fd5b50610a4f6004803603810190610a4a91906147af565b611fdd565b005b348015610a5d57600080fd5b50610a786004803603810190610a7391906153e0565b6120d9565b604051610a859190614475565b60405180910390f35b348015610a9a57600080fd5b50610ab56004803603810190610ab091906147af565b6120f5565b005b348015610ac357600080fd5b50610ade6004803603810190610ad99190615420565b6121f1565b604051610aeb9190614976565b60405180910390f35b348015610b0057600080fd5b50610b1b6004803603810190610b1691906147af565b612206565b604051610b289190614475565b60405180910390f35b348015610b3d57600080fd5b50610b46612218565b604051610b539190615516565b60405180910390f35b6000610b666123d2565b905090565b6000610b76826123fc565b9050919050565b6000600554905090565b600080610c0a610c027fb3b3f3b703cd84ce352197dcff232b1b5d3cfb2025ce47cf04742d0651f1af888c8c8c8c604051610bc3929190615561565b60405180910390208b80519060200120604051602001610be7959493929190615589565b60405160208183030381529060405280519060200120612476565b868686612490565b9050610c5d8a828b8b8b8080601f016020809104026020016040519081016040528093929190818152602001838380828437600081840152601f19601f820116905080830192505050505050508a6124bb565b91505098975050505050505050565b610c74610b5c565b73ffffffffffffffffffffffffffffffffffffffff16610c92612678565b73ffffffffffffffffffffffffffffffffffffffff1614610ce8576040517f08c379a0000000000000000000000000000000000000000000000000000000008152600401610cdf90615628565b60405180910390fd5b3073ffffffffffffffffffffffffffffffffffffffff16610d07610b5c565b73ffffffffffffffffffffffffffffffffffffffff1614610d5c576000610d2c612680565b604051610d3a929190615561565b604051809103902090505b80610d50600261268d565b14610d5a57610d45565b505b610d6581612769565b50565b606060008054610d7790615677565b80601f0160208091040260200160405190810160405280929190818152602001828054610da390615677565b8015610df05780601f10610dc557610100808354040283529160200191610df0565b820191906000526020600020905b815481529060010190602001808311610dd357829003601f168201915b5050505050905090565b600063150b7a0260e01b9050949350505050565b600080610e1d86868686611f16565b905060046007811115610e3357610e32614d58565b5b610e3c82611359565b6007811115610e4e57610e4d614d58565b5b14610e8e576040517f08c379a0000000000000000000000000000000000000000000000000000000008152600401610e859061571b565b60405180910390fd5b6000600760009054906101000a900473ffffffffffffffffffffffffffffffffffffffff1673ffffffffffffffffffffffffffffffffffffffff1663f27a0c926040518163ffffffff1660e01b815260040160206040518083038186803b158015610ef857600080fd5b505afa158015610f0c573d6000803e3d6000fd5b505050506040513d601f19601f82011682018060405250810190610f309190615750565b9050600760009054906101000a900473ffffffffffffffffffffffffffffffffffffffff1673ffffffffffffffffffffffffffffffffffffffff1663b1c5f4278888886000896040518663ffffffff1660e01b8152600401610f96959493929190615a58565b60206040518083038186803b158015610fae57600080fd5b505afa158015610fc2573d6000803e3d6000fd5b505050506040513d601f19601f82011682018060405250810190610fe69190615ad5565b6008600084815260200190815260200160002081905550600760009054906101000a900473ffffffffffffffffffffffffffffffffffffffff1673ffffffffffffffffffffffffffffffffffffffff16638f2a0bb0888888600089876040518763ffffffff1660e01b815260040161106396959493929190615b02565b600060405180830381600087803b15801561107d57600080fd5b505af1158015611091573d6000803e3d6000fd5b505050507f9a2e42fd6722813d69113e7d0079d3d940171428df7373df9c7f7617cfda28928282426110c39190615ba7565b6040516110d1929190615bfd565b60405180910390a18192505050949350505050565b6000806110f586868686611f16565b9050600061110282611359565b90506004600781111561111857611117614d58565b5b81600781111561112b5761112a614d58565b5b148061115b57506005600781111561114657611145614d58565b5b81600781111561115957611158614d58565b5b145b61119a576040517f08c379a00000000000000000000000000000000000000000000000000000000081526004016111919061571b565b60405180910390fd5b600180600084815260200190815260200160002060020160006101000a81548160ff0219169083151502179055507f712ae1383f79ac853f8d882153778e0260ef8f03b504e2866e0593e04d2b291f826040516111f79190614475565b60405180910390a161120c828888888861291d565b6112198288888888612a01565b6112268288888888612a15565b8192505050949350505050565b6000611290600160008481526020019081526020016000206000016040518060200160405290816000820160009054906101000a900467ffffffffffffffff1667ffffffffffffffff1667ffffffffffffffff1681525050612a70565b67ffffffffffffffff169050919050565b7fb3b3f3b703cd84ce352197dcff232b1b5d3cfb2025ce47cf04742d0651f1af8881565b6000600454905090565b6000806113306113287f150214d74d59b7d1e90c73fc22ef3d991dd0a76b046543d4d80ab92d2a50328f898960405160200161130d93929190615c26565b60405160208183030381529060405280519060200120612476565b868686612490565b905061134d87828860405180602001604052806000815250612a7e565b91505095945050505050565b600061136482612a9e565b9050919050565b565b6000600b600084815260200190815260200160002060030160008373ffffffffffffffffffffffffffffffffffffffff1673ffffffffffffffffffffffffffffffffffffffff16815260200190815260200160002060009054906101000a900460ff16905092915050565b60006113e685858585612c90565b9050949350505050565b600080600080600b60008681526020019081526020016000209050806000015481600101548260020154935093509350509193909250565b60606040518060400160405280600181526020017f3100000000000000000000000000000000000000000000000000000000000000815250905090565b600080611470612678565b905061148d84828560405180602001604052806000815250612a7e565b91505092915050565b6000806114a1612678565b90506114f487828888888080601f016020809104026020016040519081016040528093929190818152602001838380828437600081840152601f19601f82011690508083019250505050505050876124bb565b91505095945050505050565b600080600a600001805490509050600081141561152257600954915050611648565b6000600a6000016001836115369190615c5d565b8154811061154757611546615c91565b5b906000526020600020016040518060400160405290816000820160009054906101000a900463ffffffff1663ffffffff1663ffffffff1681526020016000820160049054906101000a90047bffffffffffffffffffffffffffffffffffffffffffffffffffffffff167bffffffffffffffffffffffffffffffffffffffffffffffffffffffff167bffffffffffffffffffffffffffffffffffffffffffffffffffffffff1681525050905083816000015163ffffffff161161162f5780602001517bffffffffffffffffffffffffffffffffffffffffffffffffffffffff1692505050611648565b61164384600a612ca890919063ffffffff16565b925050505b919050565b611655610b5c565b73ffffffffffffffffffffffffffffffffffffffff16611673612678565b73ffffffffffffffffffffffffffffffffffffffff16146116c9576040517f08c379a00000000000000000000000000000000000000000000000000000000081526004016116c090615628565b60405180910390fd5b3073ffffffffffffffffffffffffffffffffffffffff166116e8610b5c565b73ffffffffffffffffffffffffffffffffffffffff161461173d57600061170d612680565b60405161171b929190615561565b604051809103902090505b80611731600261268d565b1461173b57611726565b505b61174681612d97565b50565b600080611754612678565b90506117a686828787878080601f016020809104026020016040519081016040528093929190818152602001838380828437600081840152601f19601f82011690508083019250505050505050612a7e565b915050949350505050565b60006117bb611cf6565b6117d86117c6612678565b6001436117d39190615c5d565b6120d9565b1015611819576040517f08c379a000000000000000000000000000000000000000000000000000000000815260040161181090615d32565b60405180910390fd5b600061182e8686868680519060200120611f16565b90508451865114611874576040517f08c379a000000000000000000000000000000000000000000000000000000000815260040161186b90615dc4565b60405180910390fd5b83518651146118b8576040517f08c379a00000000000000000000000000000000000000000000000000000000081526004016118af90615dc4565b60405180910390fd5b60008651116118fc576040517f08c379a00000000000000000000000000000000000000000000000000000000081526004016118f390615e30565b60405180910390fd5b600060016000838152602001908152602001600020905061195c816000016040518060200160405290816000820160009054906101000a900467ffffffffffffffff1667ffffffffffffffff1667ffffffffffffffff1681525050612ddc565b61199b576040517f08c379a000000000000000000000000000000000000000000000000000000000815260040161199290615ec2565b60405180910390fd5b60006119ad6119a86112c5565b612df6565b6119b643612df6565b6119c09190615ef6565b905060006119d46119cf610b7d565b612df6565b826119df9190615ef6565b90506119f78284600001612e4d90919063ffffffff16565b611a0d8184600101612e4d90919063ffffffff16565b7f7d84a6263ae0d98d3329bd7b46bb4e8d6f98cd35a7adb45c274c8b7fd5ebd5e084611a37612678565b8b8b8d5167ffffffffffffffff811115611a5457611a53614570565b5b604051908082528060200260200182016040528015611a8757816020015b6060815260200190600190039081611a725790505b508c88888e604051611aa199989796959493929190616071565b60405180910390a183945050505050949350505050565b60006064905090565b6000611ace848484612e7c565b90509392505050565b600080600a6000018054905014611b1557611af2600a612315565b7bffffffffffffffffffffffffffffffffffffffffffffffffffffffff16611b19565b6009545b905090565b611b26610b5c565b73ffffffffffffffffffffffffffffffffffffffff16611b44612678565b73ffffffffffffffffffffffffffffffffffffffff1614611b9a576040517f08c379a0000000000000000000000000000000000000000000000000000000008152600401611b9190615628565b60405180910390fd5b3073ffffffffffffffffffffffffffffffffffffffff16611bb9610b5c565b73ffffffffffffffffffffffffffffffffffffffff1614611c0e576000611bde612680565b604051611bec929190615561565b604051809103902090505b80611c02600261268d565b14611c0c57611bf7565b505b611c1781612f32565b50565b600080600760009054906101000a900473ffffffffffffffffffffffffffffffffffffffff1673ffffffffffffffffffffffffffffffffffffffff1663d45c443560086000868152602001908152602001600020546040518263ffffffff1660e01b8152600401611c8b9190614cc2565b60206040518083038186803b158015611ca357600080fd5b505afa158015611cb7573d6000803e3d6000fd5b505050506040513d601f19601f82011682018060405250810190611cdb9190615750565b905060018114611ceb5780611cee565b60005b915050919050565b6000611d00612fd1565b905090565b600063bc197c8160e01b905095945050505050565b6000611d77600160008481526020019081526020016000206001016040518060200160405290816000820160009054906101000a900467ffffffffffffffff1667ffffffffffffffff1667ffffffffffffffff1681525050612a70565b67ffffffffffffffff169050919050565b611d90610b5c565b73ffffffffffffffffffffffffffffffffffffffff16611dae612678565b73ffffffffffffffffffffffffffffffffffffffff1614611e04576040517f08c379a0000000000000000000000000000000000000000000000000000000008152600401611dfb90615628565b60405180910390fd5b3073ffffffffffffffffffffffffffffffffffffffff16611e23610b5c565b73ffffffffffffffffffffffffffffffffffffffff1614611e78576000611e48612680565b604051611e56929190615561565b604051809103902090505b80611e6c600261268d565b14611e7657611e61565b505b6000808573ffffffffffffffffffffffffffffffffffffffff16858585604051611ea3929190615561565b60006040518083038185875af1925050503d8060008114611ee0576040519150601f19603f3d011682016040523d82523d6000602084013e611ee5565b606091505b5091509150611f0d8282604051806060016040528060288152602001616d3860289139612fdb565b50505050505050565b600084848484604051602001611f2f9493929190616121565b6040516020818303038152906040528051906020012060001c9050949350505050565b6000600760009054906101000a900473ffffffffffffffffffffffffffffffffffffffff16905090565b60606040518060400160405280602081526020017f737570706f72743d627261766f2671756f72756d3d666f722c6162737461696e815250905090565b7f150214d74d59b7d1e90c73fc22ef3d991dd0a76b046543d4d80ab92d2a50328f81565b611fe5610b5c565b73ffffffffffffffffffffffffffffffffffffffff16612003612678565b73ffffffffffffffffffffffffffffffffffffffff1614612059576040517f08c379a000000000000000000000000000000000000000000000000000000000815260040161205090615628565b60405180910390fd5b3073ffffffffffffffffffffffffffffffffffffffff16612078610b5c565b73ffffffffffffffffffffffffffffffffffffffff16146120cd57600061209d612680565b6040516120ab929190615561565b604051809103902090505b806120c1600261268d565b146120cb576120b6565b505b6120d681612ffd565b50565b60006120ed83836120e8613085565b612e7c565b905092915050565b6120fd610b5c565b73ffffffffffffffffffffffffffffffffffffffff1661211b612678565b73ffffffffffffffffffffffffffffffffffffffff1614612171576040517f08c379a000000000000000000000000000000000000000000000000000000000815260040161216890615628565b60405180910390fd5b3073ffffffffffffffffffffffffffffffffffffffff16612190610b5c565b73ffffffffffffffffffffffffffffffffffffffff16146121e55760006121b5612680565b6040516121c3929190615561565b604051809103902090505b806121d9600261268d565b146121e3576121ce565b505b6121ee8161309c565b50565b600063f23a6e6160e01b905095945050505050565b6000612211826130e1565b9050919050565b7f000000000000000000000000000000000000000000000000000000000000000081565b60007bffffffffffffffffffffffffffffffffffffffffffffffffffffffff801682111561229f576040517f08c379a0000000000000000000000000000000000000000000000000000000008152600401612296906161ed565b60405180910390fd5b819050919050565b6000806122c8846000016122ba4361237f565b6122c38661223c565b6131b8565b817bffffffffffffffffffffffffffffffffffffffffffffffffffffffff169150807bffffffffffffffffffffffffffffffffffffffffffffffffffffffff169050915091509250929050565b6000808260000180549050905060008114612374576123438360000160018361233e9190615c5d565b61353f565b60000160049054906101000a90047bffffffffffffffffffffffffffffffffffffffffffffffffffffffff16612377565b60005b915050919050565b600063ffffffff80168211156123ca576040517f08c379a00000000000000000000000000000000000000000000000000000000081526004016123c19061627f565b60405180910390fd5b819050919050565b6000600760009054906101000a900473ffffffffffffffffffffffffffffffffffffffff16905090565b60007f6e665ced000000000000000000000000000000000000000000000000000000007bffffffffffffffffffffffffffffffffffffffffffffffffffffffff1916827bffffffffffffffffffffffffffffffffffffffffffffffffffffffff1916148061246f575061246e82613554565b5b9050919050565b60006124896124836136b9565b836137d3565b9050919050565b60008060006124a187878787613806565b915091506124ae816138e9565b8192505050949350505050565b600080600160008881526020019081526020016000209050600160078111156124e7576124e6614d58565b5b6124f088611359565b600781111561250257612501614d58565b5b14612542576040517f08c379a000000000000000000000000000000000000000000000000000000000815260040161253990616311565b60405180910390fd5b60006125a187612591846000016040518060200160405290816000820160009054906101000a900467ffffffffffffffff1667ffffffffffffffff1667ffffffffffffffff1681525050612a70565b67ffffffffffffffff1686612e7c565b90506125b08888888488613a57565b600084511415612613578673ffffffffffffffffffffffffffffffffffffffff167fb8e138887d0aa13bab447e82de9d5c1777041ecd21ca36ba824ff1e6c07ddda4898884896040516126069493929190616331565b60405180910390a261266a565b8673ffffffffffffffffffffffffffffffffffffffff167fe2babfbac5889a709b63bb7f598b324e08bc5a4fb9ec647fb3cbc9ec07eb871289888489896040516126619594939291906163c7565b60405180910390a25b809250505095945050505050565b600033905090565b3660008036915091509091565b600061269882613c5e565b156126cf576040517f3db2a12a00000000000000000000000000000000000000000000000000000000815260040160405180910390fd5b60008260000160009054906101000a9004600f0b905082600101600082600f0b600f0b815260200190815260200160002054915082600101600082600f0b600f0b815260200190815260200160002060009055600181018360000160006101000a8154816fffffffffffffffffffffffffffffffff0219169083600f0b6fffffffffffffffffffffffffffffffff16021790555050919050565b612771611ab8565b8111156127b3576040517f08c379a00000000000000000000000000000000000000000000000000000000081526004016127aa906164c0565b60405180910390fd5b60006127bd611ad7565b9050600081141580156127d857506000600a60000180549050145b156128ca57600a6000016040518060400160405280600063ffffffff1681526020016128038461223c565b7bffffffffffffffffffffffffffffffffffffffffffffffffffffffff168152509080600181540180825580915050600190039060005260206000200160009091909190915060008201518160000160006101000a81548163ffffffff021916908363ffffffff16021790555060208201518160000160046101000a8154817bffffffffffffffffffffffffffffffffffffffffffffffffffffffff02191690837bffffffffffffffffffffffffffffffffffffffffffffffffffffffff16021790555050505b6128de82600a6122a790919063ffffffff16565b50507f0553476bf02ef2726e8ce5ced78d63e26e602e4a2257b1f559418e24b46339978183604051612911929190615bfd565b60405180910390a15050565b3073ffffffffffffffffffffffffffffffffffffffff1661293c610b5c565b73ffffffffffffffffffffffffffffffffffffffff16146129fa5760005b84518110156129f8573073ffffffffffffffffffffffffffffffffffffffff1685828151811061298d5761298c615c91565b5b602002602001015173ffffffffffffffffffffffffffffffffffffffff1614156129e7576129e68382815181106129c7576129c6615c91565b5b6020026020010151805190602001206002613c9390919063ffffffff16565b5b806129f1906164e0565b905061295a565b505b5050505050565b612a0e8585858585613d0f565b5050505050565b3073ffffffffffffffffffffffffffffffffffffffff16612a34610b5c565b73ffffffffffffffffffffffffffffffffffffffff1614612a6957612a596002613c5e565b612a6857612a676002613dad565b5b5b5050505050565b600081600001519050919050565b6000612a9485858585612a8f613085565b6124bb565b9050949350505050565b600080612aaa83613e2e565b905060046007811115612ac057612abf614d58565b5b816007811115612ad357612ad2614d58565b5b14612ae15780915050612c8b565b6000600860008581526020019081526020016000205490506000801b811415612b0e578192505050612c8b565b600760009054906101000a900473ffffffffffffffffffffffffffffffffffffffff1673ffffffffffffffffffffffffffffffffffffffff16632ab0f529826040518263ffffffff1660e01b8152600401612b699190614cc2565b60206040518083038186803b158015612b8157600080fd5b505afa158015612b95573d6000803e3d6000fd5b505050506040513d601f19601f82011682018060405250810190612bb99190616555565b15612bc957600792505050612c8b565b600760009054906101000a900473ffffffffffffffffffffffffffffffffffffffff1673ffffffffffffffffffffffffffffffffffffffff1663584b153e826040518263ffffffff1660e01b8152600401612c249190614cc2565b60206040518083038186803b158015612c3c57600080fd5b505afa158015612c50573d6000803e3d6000fd5b505050506040513d601f19601f82011682018060405250810190612c749190616555565b15612c8457600592505050612c8b565b6002925050505b919050565b6000612c9e85858585613f43565b9050949350505050565b6000438210612cec576040517f08c379a0000000000000000000000000000000000000000000000000000000008152600401612ce3906165ce565b60405180910390fd5b6000612cf78361237f565b90506000846000018054905090506000612d178660000184600085614035565b905060008114612d6b57612d3a86600001600183612d359190615c5d565b61353f565b60000160049054906101000a90047bffffffffffffffffffffffffffffffffffffffffffffffffffffffff16612d6e565b60005b7bffffffffffffffffffffffffffffffffffffffffffffffffffffffff16935050505092915050565b7fc565b045403dc03c2eea82b81a0465edad9e2e7fc4d97e11421c209da93d7a9360045482604051612dca929190615bfd565b60405180910390a18060048190555050565b600080826000015167ffffffffffffffff16149050919050565b600067ffffffffffffffff8016821115612e45576040517f08c379a0000000000000000000000000000000000000000000000000000000008152600401612e3c90616660565b60405180910390fd5b819050919050565b808260000160006101000a81548167ffffffffffffffff021916908367ffffffffffffffff1602179055505050565b60007f000000000000000000000000000000000000000000000000000000000000000073ffffffffffffffffffffffffffffffffffffffff16633a46b1a885856040518363ffffffff1660e01b8152600401612ed9929190616680565b60206040518083038186803b158015612ef157600080fd5b505afa158015612f05573d6000803e3d6000fd5b505050506040513d601f19601f82011682018060405250810190612f299190615750565b90509392505050565b7f08f74ea46ef7894f65eabfb5e6e695de773a000b47c529ab559178069b226401600760009054906101000a900473ffffffffffffffffffffffffffffffffffffffff1682604051612f859291906166a9565b60405180910390a180600760006101000a81548173ffffffffffffffffffffffffffffffffffffffff021916908373ffffffffffffffffffffffffffffffffffffffff16021790555050565b6000600654905090565b60608315612feb57829050612ff6565b612ff583836140a8565b5b9392505050565b60008111613040576040517f08c379a000000000000000000000000000000000000000000000000000000000815260040161303790616744565b60405180910390fd5b7f7e3f7f0708a84de9203036abaa450dccc85ad5ff52f78c170f3edb55cf5e882860055482604051613073929190615bfd565b60405180910390a18060058190555050565b606060405180602001604052806000815250905090565b7fccb45da8d5717e6c4544694297c4ba5cf151d455c9bb0ed4fc7a38411bc05461600654826040516130cf929190615bfd565b60405180910390a18060068190555050565b60006130eb611ab8565b6130f483611500565b7f000000000000000000000000000000000000000000000000000000000000000073ffffffffffffffffffffffffffffffffffffffff16638e539e8c856040518263ffffffff1660e01b815260040161314d9190614475565b60206040518083038186803b15801561316557600080fd5b505afa158015613179573d6000803e3d6000fd5b505050506040513d601f19601f8201168201806040525081019061319d9190615750565b6131a79190616764565b6131b191906167ed565b9050919050565b600080600085805490509050600081111561344f5760006131e5876001846131e09190615c5d565b61353f565b6040518060400160405290816000820160009054906101000a900463ffffffff1663ffffffff1663ffffffff1681526020016000820160049054906101000a90047bffffffffffffffffffffffffffffffffffffffffffffffffffffffff167bffffffffffffffffffffffffffffffffffffffffffffffffffffffff167bffffffffffffffffffffffffffffffffffffffffffffffffffffffff168152505090508563ffffffff16816000015163ffffffff1611156132d9576040517f08c379a00000000000000000000000000000000000000000000000000000000081526004016132d09061686a565b60405180910390fd5b8563ffffffff16816000015163ffffffff16141561335e5784613308886001856133039190615c5d565b61353f565b60000160046101000a8154817bffffffffffffffffffffffffffffffffffffffffffffffffffffffff02191690837bffffffffffffffffffffffffffffffffffffffffffffffffffffffff16021790555061343e565b8660405180604001604052808863ffffffff168152602001877bffffffffffffffffffffffffffffffffffffffffffffffffffffffff168152509080600181540180825580915050600190039060005260206000200160009091909190915060008201518160000160006101000a81548163ffffffff021916908363ffffffff16021790555060208201518160000160046101000a8154817bffffffffffffffffffffffffffffffffffffffffffffffffffffffff02191690837bffffffffffffffffffffffffffffffffffffffffffffffffffffffff16021790555050505b806020015185935093505050613537565b8560405180604001604052808763ffffffff168152602001867bffffffffffffffffffffffffffffffffffffffffffffffffffffffff168152509080600181540180825580915050600190039060005260206000200160009091909190915060008201518160000160006101000a81548163ffffffff021916908363ffffffff16021790555060208201518160000160046101000a8154817bffffffffffffffffffffffffffffffffffffffffffffffffffffffff02191690837bffffffffffffffffffffffffffffffffffffffffffffffffffffffff160217905550505060008492509250505b935093915050565b60008260005281602060002001905092915050565b6000639a802a6d60e01b630342018160e01b635f398a1460e01b7f79dd796f000000000000000000000000000000000000000000000000000000001818187bffffffffffffffffffffffffffffffffffffffffffffffffffffffff1916827bffffffffffffffffffffffffffffffffffffffffffffffffffffffff1916148061363a57507f79dd796f000000000000000000000000000000000000000000000000000000007bffffffffffffffffffffffffffffffffffffffffffffffffffffffff1916827bffffffffffffffffffffffffffffffffffffffffffffffffffffffff1916145b806136a257507f4e2312e0000000000000000000000000000000000000000000000000000000007bffffffffffffffffffffffffffffffffffffffffffffffffffffffff1916827bffffffffffffffffffffffffffffffffffffffffffffffffffffffff1916145b806136b257506136b1826140f8565b5b9050919050565b60007f000000000000000000000000000000000000000000000000000000000000000073ffffffffffffffffffffffffffffffffffffffff163073ffffffffffffffffffffffffffffffffffffffff1614801561373557507f000000000000000000000000000000000000000000000000000000000000000046145b15613762577f000000000000000000000000000000000000000000000000000000000000000090506137d0565b6137cd7f00000000000000000000000000000000000000000000000000000000000000007f00000000000000000000000000000000000000000000000000000000000000007f0000000000000000000000000000000000000000000000000000000000000000614162565b90505b90565b600082826040516020016137e8929190616902565b60405160208183030381529060405280519060200120905092915050565b6000807f7fffffffffffffffffffffffffffffff5d576e7357a4501ddfe92f46681b20a08360001c11156138415760006003915091506138e0565b6000600187878787604051600081526020016040526040516138669493929190616939565b6020604051602081039080840390855afa158015613888573d6000803e3d6000fd5b505050602060405103519050600073ffffffffffffffffffffffffffffffffffffffff168173ffffffffffffffffffffffffffffffffffffffff1614156138d7576000600192509250506138e0565b80600092509250505b94509492505050565b600060048111156138fd576138fc614d58565b5b8160048111156139105761390f614d58565b5b141561391b57613a54565b6001600481111561392f5761392e614d58565b5b81600481111561394257613941614d58565b5b1415613983576040517f08c379a000000000000000000000000000000000000000000000000000000000815260040161397a906169ca565b60405180910390fd5b6002600481111561399757613996614d58565b5b8160048111156139aa576139a9614d58565b5b14156139eb576040517f08c379a00000000000000000000000000000000000000000000000000000000081526004016139e290616a36565b60405180910390fd5b600360048111156139ff576139fe614d58565b5b816004811115613a1257613a11614d58565b5b1415613a53576040517f08c379a0000000000000000000000000000000000000000000000000000000008152600401613a4a90616ac8565b60405180910390fd5b5b50565b6000600b600087815260200190815260200160002090508060030160008673ffffffffffffffffffffffffffffffffffffffff1673ffffffffffffffffffffffffffffffffffffffff16815260200190815260200160002060009054906101000a900460ff1615613afd576040517f08c379a0000000000000000000000000000000000000000000000000000000008152600401613af490616b5a565b60405180910390fd5b60018160030160008773ffffffffffffffffffffffffffffffffffffffff1673ffffffffffffffffffffffffffffffffffffffff16815260200190815260200160002060006101000a81548160ff02191690831515021790555060006002811115613b6b57613b6a614d58565b5b60ff168460ff161415613b985782816000016000828254613b8c9190615ba7565b92505081905550613c56565b60016002811115613bac57613bab614d58565b5b60ff168460ff161415613bd95782816001016000828254613bcd9190615ba7565b92505081905550613c55565b600280811115613bec57613beb614d58565b5b60ff168460ff161415613c195782816002016000828254613c0d9190615ba7565b92505081905550613c54565b6040517f08c379a0000000000000000000000000000000000000000000000000000000008152600401613c4b90616bec565b60405180910390fd5b5b5b505050505050565b60008160000160009054906101000a9004600f0b600f0b8260000160109054906101000a9004600f0b600f0b13159050919050565b60008260000160109054906101000a9004600f0b90508183600101600083600f0b600f0b815260200190815260200160002081905550600181018360000160106101000a8154816fffffffffffffffffffffffffffffffff0219169083600f0b6fffffffffffffffffffffffffffffffff160217905550505050565b600760009054906101000a900473ffffffffffffffffffffffffffffffffffffffff1673ffffffffffffffffffffffffffffffffffffffff1663e38335e5348686866000876040518763ffffffff1660e01b8152600401613d74959493929190615a58565b6000604051808303818588803b158015613d8d57600080fd5b505af1158015613da1573d6000803e3d6000fd5b50505050505050505050565b60008160000160006101000a8154816fffffffffffffffffffffffffffffffff0219169083600f0b6fffffffffffffffffffffffffffffffff16021790555060008160000160106101000a8154816fffffffffffffffffffffffffffffffff0219169083600f0b6fffffffffffffffffffffffffffffffff16021790555050565b6000806001600084815260200190815260200160002090508060020160009054906101000a900460ff1615613e67576007915050613f3e565b8060020160019054906101000a900460ff1615613e88576002915050613f3e565b6000613e9384611233565b90506000811415613ed9576040517f08c379a0000000000000000000000000000000000000000000000000000000008152600401613ed090616c58565b60405180910390fd5b438110613eeb57600092505050613f3e565b6000613ef685611d1a565b9050438110613f0b5760019350505050613f3e565b613f148561419c565b8015613f255750613f24856141e3565b5b15613f365760049350505050613f3e565b600393505050505b919050565b600080613f528686868661420e565b90506000801b60086000838152602001908152602001600020541461402957600760009054906101000a900473ffffffffffffffffffffffffffffffffffffffff1673ffffffffffffffffffffffffffffffffffffffff1663c4d252f560086000848152602001908152602001600020546040518263ffffffff1660e01b8152600401613fdf9190614cc2565b600060405180830381600087803b158015613ff957600080fd5b505af115801561400d573d6000803e3d6000fd5b5050505060086000828152602001908152602001600020600090555b80915050949350505050565b60005b8183101561409d57600061404c8484614367565b90508463ffffffff1661405f878361353f565b60000160009054906101000a900463ffffffff1663ffffffff16111561408757809250614097565b6001816140949190615ba7565b93505b50614038565b819050949350505050565b6000825111156140bb5781518083602001fd5b806040517f08c379a00000000000000000000000000000000000000000000000000000000081526004016140ef9190614864565b60405180910390fd5b60007f01ffc9a7000000000000000000000000000000000000000000000000000000007bffffffffffffffffffffffffffffffffffffffffffffffffffffffff1916827bffffffffffffffffffffffffffffffffffffffffffffffffffffffff1916149050919050565b6000838383463060405160200161417d959493929190616c78565b6040516020818303038152906040528051906020012090509392505050565b600080600b60008481526020019081526020016000209050806002015481600101546141c89190615ba7565b6141d96141d485611233565b612206565b1115915050919050565b600080600b600084815260200190815260200160002090508060000154816001015411915050919050565b60008061421d86868686611f16565b9050600061422a82611359565b9050600260078111156142405761423f614d58565b5b81600781111561425357614252614d58565b5b141580156142865750600660078111156142705761426f614d58565b5b81600781111561428357614282614d58565b5b14155b80156142b657506007808111156142a05761429f614d58565b5b8160078111156142b3576142b2614d58565b5b14155b6142f5576040517f08c379a00000000000000000000000000000000000000000000000000000000081526004016142ec90616d17565b60405180910390fd5b600180600084815260200190815260200160002060020160016101000a81548160ff0219169083151502179055507f789cf55be980739dad1d0699b93b58e806b51c9d96619bfa8fe0a28abaa7b30c826040516143529190614475565b60405180910390a18192505050949350505050565b6000600282841861437891906167ed565b8284166143859190615ba7565b905092915050565b6000604051905090565b600080fd5b600080fd5b60007fffffffff0000000000000000000000000000000000000000000000000000000082169050919050565b6143d6816143a1565b81146143e157600080fd5b50565b6000813590506143f3816143cd565b92915050565b60006020828403121561440f5761440e614397565b5b600061441d848285016143e4565b91505092915050565b60008115159050919050565b61443b81614426565b82525050565b60006020820190506144566000830184614432565b92915050565b6000819050919050565b61446f8161445c565b82525050565b600060208201905061448a6000830184614466565b92915050565b6144998161445c565b81146144a457600080fd5b50565b6000813590506144b681614490565b92915050565b600060ff82169050919050565b6144d2816144bc565b81146144dd57600080fd5b50565b6000813590506144ef816144c9565b92915050565b600080fd5b600080fd5b600080fd5b60008083601f84011261451a576145196144f5565b5b8235905067ffffffffffffffff811115614537576145366144fa565b5b602083019150836001820283011115614553576145526144ff565b5b9250929050565b600080fd5b6000601f19601f8301169050919050565b7f4e487b7100000000000000000000000000000000000000000000000000000000600052604160045260246000fd5b6145a88261455f565b810181811067ffffffffffffffff821117156145c7576145c6614570565b5b80604052505050565b60006145da61438d565b90506145e6828261459f565b919050565b600067ffffffffffffffff82111561460657614605614570565b5b61460f8261455f565b9050602081019050919050565b82818337600083830152505050565b600061463e614639846145eb565b6145d0565b90508281526020810184848401111561465a5761465961455a565b5b61466584828561461c565b509392505050565b600082601f830112614682576146816144f5565b5b813561469284826020860161462b565b91505092915050565b6000819050919050565b6146ae8161469b565b81146146b957600080fd5b50565b6000813590506146cb816146a5565b92915050565b60008060008060008060008060e0898b0312156146f1576146f0614397565b5b60006146ff8b828c016144a7565b98505060206147108b828c016144e0565b975050604089013567ffffffffffffffff8111156147315761473061439c565b5b61473d8b828c01614504565b9650965050606089013567ffffffffffffffff8111156147605761475f61439c565b5b61476c8b828c0161466d565b945050608061477d8b828c016144e0565b93505060a061478e8b828c016146bc565b92505060c061479f8b828c016146bc565b9150509295985092959890939650565b6000602082840312156147c5576147c4614397565b5b60006147d3848285016144a7565b91505092915050565b600081519050919050565b600082825260208201905092915050565b60005b838110156148165780820151818401526020810190506147fb565b83811115614825576000848401525b50505050565b6000614836826147dc565b61484081856147e7565b93506148508185602086016147f8565b6148598161455f565b840191505092915050565b6000602082019050818103600083015261487e818461482b565b905092915050565b600073ffffffffffffffffffffffffffffffffffffffff82169050919050565b60006148b182614886565b9050919050565b6148c1816148a6565b81146148cc57600080fd5b50565b6000813590506148de816148b8565b92915050565b600080600080608085870312156148fe576148fd614397565b5b600061490c878288016148cf565b945050602061491d878288016148cf565b935050604061492e878288016144a7565b925050606085013567ffffffffffffffff81111561494f5761494e61439c565b5b61495b8782880161466d565b91505092959194509250565b614970816143a1565b82525050565b600060208201905061498b6000830184614967565b92915050565b600067ffffffffffffffff8211156149ac576149ab614570565b5b602082029050602081019050919050565b60006149d06149cb84614991565b6145d0565b905080838252602082019050602084028301858111156149f3576149f26144ff565b5b835b81811015614a1c5780614a0888826148cf565b8452602084019350506020810190506149f5565b5050509392505050565b600082601f830112614a3b57614a3a6144f5565b5b8135614a4b8482602086016149bd565b91505092915050565b600067ffffffffffffffff821115614a6f57614a6e614570565b5b602082029050602081019050919050565b6000614a93614a8e84614a54565b6145d0565b90508083825260208201905060208402830185811115614ab657614ab56144ff565b5b835b81811015614adf5780614acb88826144a7565b845260208401935050602081019050614ab8565b5050509392505050565b600082601f830112614afe57614afd6144f5565b5b8135614b0e848260208601614a80565b91505092915050565b600067ffffffffffffffff821115614b3257614b31614570565b5b602082029050602081019050919050565b6000614b56614b5184614b17565b6145d0565b90508083825260208201905060208402830185811115614b7957614b786144ff565b5b835b81811015614bc057803567ffffffffffffffff811115614b9e57614b9d6144f5565b5b808601614bab898261466d565b85526020850194505050602081019050614b7b565b5050509392505050565b600082601f830112614bdf57614bde6144f5565b5b8135614bef848260208601614b43565b91505092915050565b60008060008060808587031215614c1257614c11614397565b5b600085013567ffffffffffffffff811115614c3057614c2f61439c565b5b614c3c87828801614a26565b945050602085013567ffffffffffffffff811115614c5d57614c5c61439c565b5b614c6987828801614ae9565b935050604085013567ffffffffffffffff811115614c8a57614c8961439c565b5b614c9687828801614bca565b9250506060614ca7878288016146bc565b91505092959194509250565b614cbc8161469b565b82525050565b6000602082019050614cd76000830184614cb3565b92915050565b600080600080600060a08688031215614cf957614cf8614397565b5b6000614d07888289016144a7565b9550506020614d18888289016144e0565b9450506040614d29888289016144e0565b9350506060614d3a888289016146bc565b9250506080614d4b888289016146bc565b9150509295509295909350565b7f4e487b7100000000000000000000000000000000000000000000000000000000600052602160045260246000fd5b60088110614d9857614d97614d58565b5b50565b6000819050614da982614d87565b919050565b6000614db982614d9b565b9050919050565b614dc981614dae565b82525050565b6000602082019050614de46000830184614dc0565b92915050565b60008060408385031215614e0157614e00614397565b5b6000614e0f858286016144a7565b9250506020614e20858286016148cf565b9150509250929050565b6000606082019050614e3f6000830186614466565b614e4c6020830185614466565b614e596040830184614466565b949350505050565b60008060408385031215614e7857614e77614397565b5b6000614e86858286016144a7565b9250506020614e97858286016144e0565b9150509250929050565b600080600080600060808688031215614ebd57614ebc614397565b5b6000614ecb888289016144a7565b9550506020614edc888289016144e0565b945050604086013567ffffffffffffffff811115614efd57614efc61439c565b5b614f0988828901614504565b9350935050606086013567ffffffffffffffff811115614f2c57614f2b61439c565b5b614f388882890161466d565b9150509295509295909350565b60008060008060608587031215614f5f57614f5e614397565b5b6000614f6d878288016144a7565b9450506020614f7e878288016144e0565b935050604085013567ffffffffffffffff811115614f9f57614f9e61439c565b5b614fab87828801614504565b925092505092959194509250565b600067ffffffffffffffff821115614fd457614fd3614570565b5b614fdd8261455f565b9050602081019050919050565b6000614ffd614ff884614fb9565b6145d0565b9050828152602081018484840111156150195761501861455a565b5b61502484828561461c565b509392505050565b600082601f830112615041576150406144f5565b5b8135615051848260208601614fea565b91505092915050565b6000806000806080858703121561507457615073614397565b5b600085013567ffffffffffffffff8111156150925761509161439c565b5b61509e87828801614a26565b945050602085013567ffffffffffffffff8111156150bf576150be61439c565b5b6150cb87828801614ae9565b935050604085013567ffffffffffffffff8111156150ec576150eb61439c565b5b6150f887828801614bca565b925050606085013567ffffffffffffffff8111156151195761511861439c565b5b6151258782880161502c565b91505092959194509250565b60008060006060848603121561514a57615149614397565b5b6000615158868287016148cf565b9350506020615169868287016144a7565b925050604084013567ffffffffffffffff81111561518a5761518961439c565b5b6151968682870161466d565b9150509250925092565b60006151ab82614886565b9050919050565b60006151bd826151a0565b9050919050565b6151cd816151b2565b81146151d857600080fd5b50565b6000813590506151ea816151c4565b92915050565b60006020828403121561520657615205614397565b5b6000615214848285016151db565b91505092915050565b600080600080600060a0868803121561523957615238614397565b5b6000615247888289016148cf565b9550506020615258888289016148cf565b945050604086013567ffffffffffffffff8111156152795761527861439c565b5b61528588828901614ae9565b935050606086013567ffffffffffffffff8111156152a6576152a561439c565b5b6152b288828901614ae9565b925050608086013567ffffffffffffffff8111156152d3576152d261439c565b5b6152df8882890161466d565b9150509295509295909350565b60008083601f840112615302576153016144f5565b5b8235905067ffffffffffffffff81111561531f5761531e6144fa565b5b60208301915083600182028301111561533b5761533a6144ff565b5b9250929050565b6000806000806060858703121561535c5761535b614397565b5b600061536a878288016148cf565b945050602061537b878288016144a7565b935050604085013567ffffffffffffffff81111561539c5761539b61439c565b5b6153a8878288016152ec565b925092505092959194509250565b6153bf816148a6565b82525050565b60006020820190506153da60008301846153b6565b92915050565b600080604083850312156153f7576153f6614397565b5b6000615405858286016148cf565b9250506020615416858286016144a7565b9150509250929050565b600080600080600060a0868803121561543c5761543b614397565b5b600061544a888289016148cf565b955050602061545b888289016148cf565b945050604061546c888289016144a7565b935050606061547d888289016144a7565b925050608086013567ffffffffffffffff81111561549e5761549d61439c565b5b6154aa8882890161466d565b9150509295509295909350565b6000819050919050565b60006154dc6154d76154d284614886565b6154b7565b614886565b9050919050565b60006154ee826154c1565b9050919050565b6000615500826154e3565b9050919050565b615510816154f5565b82525050565b600060208201905061552b6000830184615507565b92915050565b600081905092915050565b60006155488385615531565b935061555583858461461c565b82840190509392505050565b600061556e82848661553c565b91508190509392505050565b615583816144bc565b82525050565b600060a08201905061559e6000830188614cb3565b6155ab6020830187614466565b6155b8604083018661557a565b6155c56060830185614cb3565b6155d26080830184614cb3565b9695505050505050565b7f476f7665726e6f723a206f6e6c79476f7665726e616e63650000000000000000600082015250565b60006156126018836147e7565b915061561d826155dc565b602082019050919050565b6000602082019050818103600083015261564181615605565b9050919050565b7f4e487b7100000000000000000000000000000000000000000000000000000000600052602260045260246000fd5b6000600282049050600182168061568f57607f821691505b602082108114156156a3576156a2615648565b5b50919050565b7f476f7665726e6f723a2070726f706f73616c206e6f742073756363657373667560008201527f6c00000000000000000000000000000000000000000000000000000000000000602082015250565b60006157056021836147e7565b9150615710826156a9565b604082019050919050565b60006020820190508181036000830152615734816156f8565b9050919050565b60008151905061574a81614490565b92915050565b60006020828403121561576657615765614397565b5b60006157748482850161573b565b91505092915050565b600081519050919050565b600082825260208201905092915050565b6000819050602082019050919050565b6157b2816148a6565b82525050565b60006157c483836157a9565b60208301905092915050565b6000602082019050919050565b60006157e88261577d565b6157f28185615788565b93506157fd83615799565b8060005b8381101561582e57815161581588826157b8565b9750615820836157d0565b925050600181019050615801565b5085935050505092915050565b600081519050919050565b600082825260208201905092915050565b6000819050602082019050919050565b6158708161445c565b82525050565b60006158828383615867565b60208301905092915050565b6000602082019050919050565b60006158a68261583b565b6158b08185615846565b93506158bb83615857565b8060005b838110156158ec5781516158d38882615876565b97506158de8361588e565b9250506001810190506158bf565b5085935050505092915050565b600081519050919050565b600082825260208201905092915050565b6000819050602082019050919050565b600081519050919050565b600082825260208201905092915050565b600061594c82615925565b6159568185615930565b93506159668185602086016147f8565b61596f8161455f565b840191505092915050565b60006159868383615941565b905092915050565b6000602082019050919050565b60006159a6826158f9565b6159b08185615904565b9350836020820285016159c285615915565b8060005b858110156159fe57848403895281516159df858261597a565b94506159ea8361598e565b925060208a019950506001810190506159c6565b50829750879550505050505092915050565b6000819050919050565b60008160001b9050919050565b6000615a42615a3d615a3884615a10565b615a1a565b61469b565b9050919050565b615a5281615a27565b82525050565b600060a0820190508181036000830152615a7281886157dd565b90508181036020830152615a86818761589b565b90508181036040830152615a9a818661599b565b9050615aa96060830185615a49565b615ab66080830184614cb3565b9695505050505050565b600081519050615acf816146a5565b92915050565b600060208284031215615aeb57615aea614397565b5b6000615af984828501615ac0565b91505092915050565b600060c0820190508181036000830152615b1c81896157dd565b90508181036020830152615b30818861589b565b90508181036040830152615b44818761599b565b9050615b536060830186615a49565b615b606080830185614cb3565b615b6d60a0830184614466565b979650505050505050565b7f4e487b7100000000000000000000000000000000000000000000000000000000600052601160045260246000fd5b6000615bb28261445c565b9150615bbd8361445c565b9250827fffffffffffffffffffffffffffffffffffffffffffffffffffffffffffffffff03821115615bf257615bf1615b78565b5b828201905092915050565b6000604082019050615c126000830185614466565b615c1f6020830184614466565b9392505050565b6000606082019050615c3b6000830186614cb3565b615c486020830185614466565b615c55604083018461557a565b949350505050565b6000615c688261445c565b9150615c738361445c565b925082821015615c8657615c85615b78565b5b828203905092915050565b7f4e487b7100000000000000000000000000000000000000000000000000000000600052603260045260246000fd5b7f476f7665726e6f723a2070726f706f73657220766f7465732062656c6f77207060008201527f726f706f73616c207468726573686f6c64000000000000000000000000000000602082015250565b6000615d1c6031836147e7565b9150615d2782615cc0565b604082019050919050565b60006020820190508181036000830152615d4b81615d0f565b9050919050565b7f476f7665726e6f723a20696e76616c69642070726f706f73616c206c656e677460008201527f6800000000000000000000000000000000000000000000000000000000000000602082015250565b6000615dae6021836147e7565b9150615db982615d52565b604082019050919050565b60006020820190508181036000830152615ddd81615da1565b9050919050565b7f476f7665726e6f723a20656d7074792070726f706f73616c0000000000000000600082015250565b6000615e1a6018836147e7565b9150615e2582615de4565b602082019050919050565b60006020820190508181036000830152615e4981615e0d565b9050919050565b7f476f7665726e6f723a2070726f706f73616c20616c726561647920657869737460008201527f7300000000000000000000000000000000000000000000000000000000000000602082015250565b6000615eac6021836147e7565b9150615eb782615e50565b604082019050919050565b60006020820190508181036000830152615edb81615e9f565b9050919050565b600067ffffffffffffffff82169050919050565b6000615f0182615ee2565b9150615f0c83615ee2565b92508267ffffffffffffffff03821115615f2957615f28615b78565b5b828201905092915050565b600081519050919050565b600082825260208201905092915050565b6000819050602082019050919050565b600082825260208201905092915050565b6000615f7c826147dc565b615f868185615f60565b9350615f968185602086016147f8565b615f9f8161455f565b840191505092915050565b6000615fb68383615f71565b905092915050565b6000602082019050919050565b6000615fd682615f34565b615fe08185615f3f565b935083602082028501615ff285615f50565b8060005b8581101561602e578484038952815161600f8582615faa565b945061601a83615fbe565b925060208a01995050600181019050615ff6565b50829750879550505050505092915050565b600061605b61605661605184615ee2565b6154b7565b61445c565b9050919050565b61606b81616040565b82525050565b600061012082019050616087600083018c614466565b616094602083018b6153b6565b81810360408301526160a6818a6157dd565b905081810360608301526160ba818961589b565b905081810360808301526160ce8188615fcb565b905081810360a08301526160e2818761599b565b90506160f160c0830186616062565b6160fe60e0830185616062565b818103610100830152616111818461482b565b90509a9950505050505050505050565b6000608082019050818103600083015261613b81876157dd565b9050818103602083015261614f818661589b565b90508181036040830152616163818561599b565b90506161726060830184614cb3565b95945050505050565b7f53616665436173743a2076616c756520646f65736e27742066697420696e203260008201527f3234206269747300000000000000000000000000000000000000000000000000602082015250565b60006161d76027836147e7565b91506161e28261617b565b604082019050919050565b60006020820190508181036000830152616206816161ca565b9050919050565b7f53616665436173743a2076616c756520646f65736e27742066697420696e203360008201527f3220626974730000000000000000000000000000000000000000000000000000602082015250565b60006162696026836147e7565b91506162748261620d565b604082019050919050565b600060208201905081810360008301526162988161625c565b9050919050565b7f476f7665726e6f723a20766f7465206e6f742063757272656e746c792061637460008201527f6976650000000000000000000000000000000000000000000000000000000000602082015250565b60006162fb6023836147e7565b91506163068261629f565b604082019050919050565b6000602082019050818103600083015261632a816162ee565b9050919050565b60006080820190506163466000830187614466565b616353602083018661557a565b6163606040830185614466565b8181036060830152616372818461482b565b905095945050505050565b600082825260208201905092915050565b600061639982615925565b6163a3818561637d565b93506163b38185602086016147f8565b6163bc8161455f565b840191505092915050565b600060a0820190506163dc6000830188614466565b6163e9602083018761557a565b6163f66040830186614466565b8181036060830152616408818561482b565b9050818103608083015261641c818461638e565b90509695505050505050565b7f476f7665726e6f72566f74657351756f72756d4672616374696f6e3a2071756f60008201527f72756d4e756d657261746f72206f7665722071756f72756d44656e6f6d696e6160208201527f746f720000000000000000000000000000000000000000000000000000000000604082015250565b60006164aa6043836147e7565b91506164b582616428565b606082019050919050565b600060208201905081810360008301526164d98161649d565b9050919050565b60006164eb8261445c565b91507fffffffffffffffffffffffffffffffffffffffffffffffffffffffffffffffff82141561651e5761651d615b78565b5b600182019050919050565b61653281614426565b811461653d57600080fd5b50565b60008151905061654f81616529565b92915050565b60006020828403121561656b5761656a614397565b5b600061657984828501616540565b91505092915050565b7f436865636b706f696e74733a20626c6f636b206e6f7420796574206d696e6564600082015250565b60006165b86020836147e7565b91506165c382616582565b602082019050919050565b600060208201905081810360008301526165e7816165ab565b9050919050565b7f53616665436173743a2076616c756520646f65736e27742066697420696e203660008201527f3420626974730000000000000000000000000000000000000000000000000000602082015250565b600061664a6026836147e7565b9150616655826165ee565b604082019050919050565b600060208201905081810360008301526166798161663d565b9050919050565b600060408201905061669560008301856153b6565b6166a26020830184614466565b9392505050565b60006040820190506166be60008301856153b6565b6166cb60208301846153b6565b9392505050565b7f476f7665726e6f7253657474696e67733a20766f74696e6720706572696f642060008201527f746f6f206c6f7700000000000000000000000000000000000000000000000000602082015250565b600061672e6027836147e7565b9150616739826166d2565b604082019050919050565b6000602082019050818103600083015261675d81616721565b9050919050565b600061676f8261445c565b915061677a8361445c565b9250817fffffffffffffffffffffffffffffffffffffffffffffffffffffffffffffffff04831182151516156167b3576167b2615b78565b5b828202905092915050565b7f4e487b7100000000000000000000000000000000000000000000000000000000600052601260045260246000fd5b60006167f88261445c565b91506168038361445c565b925082616813576168126167be565b5b828204905092915050565b7f436865636b706f696e743a20696e76616c6964206b6579000000000000000000600082015250565b60006168546017836147e7565b915061685f8261681e565b602082019050919050565b6000602082019050818103600083015261688381616847565b9050919050565b600081905092915050565b7f1901000000000000000000000000000000000000000000000000000000000000600082015250565b60006168cb60028361688a565b91506168d682616895565b600282019050919050565b6000819050919050565b6168fc6168f78261469b565b6168e1565b82525050565b600061690d826168be565b915061691982856168eb565b60208201915061692982846168eb565b6020820191508190509392505050565b600060808201905061694e6000830187614cb3565b61695b602083018661557a565b6169686040830185614cb3565b6169756060830184614cb3565b95945050505050565b7f45434453413a20696e76616c6964207369676e61747572650000000000000000600082015250565b60006169b46018836147e7565b91506169bf8261697e565b602082019050919050565b600060208201905081810360008301526169e3816169a7565b9050919050565b7f45434453413a20696e76616c6964207369676e6174757265206c656e67746800600082015250565b6000616a20601f836147e7565b9150616a2b826169ea565b602082019050919050565b60006020820190508181036000830152616a4f81616a13565b9050919050565b7f45434453413a20696e76616c6964207369676e6174757265202773272076616c60008201527f7565000000000000000000000000000000000000000000000000000000000000602082015250565b6000616ab26022836147e7565b9150616abd82616a56565b604082019050919050565b60006020820190508181036000830152616ae181616aa5565b9050919050565b7f476f7665726e6f72566f74696e6753696d706c653a20766f746520616c72656160008201527f6479206361737400000000000000000000000000000000000000000000000000602082015250565b6000616b446027836147e7565b9150616b4f82616ae8565b604082019050919050565b60006020820190508181036000830152616b7381616b37565b9050919050565b7f476f7665726e6f72566f74696e6753696d706c653a20696e76616c696420766160008201527f6c756520666f7220656e756d20566f7465547970650000000000000000000000602082015250565b6000616bd66035836147e7565b9150616be182616b7a565b604082019050919050565b60006020820190508181036000830152616c0581616bc9565b9050919050565b7f476f7665726e6f723a20756e6b6e6f776e2070726f706f73616c206964000000600082015250565b6000616c42601d836147e7565b9150616c4d82616c0c565b602082019050919050565b60006020820190508181036000830152616c7181616c35565b9050919050565b600060a082019050616c8d6000830188614cb3565b616c9a6020830187614cb3565b616ca76040830186614cb3565b616cb46060830185614466565b616cc160808301846153b6565b9695505050505050565b7f476f7665726e6f723a2070726f706f73616c206e6f7420616374697665000000600082015250565b6000616d01601d836147e7565b9150616d0c82616ccb565b602082019050919050565b60006020820190508181036000830152616d3081616cf4565b905091905056fe476f7665726e6f723a2072656c617920726576657274656420776974686f7574206d657373616765a2646970667358221220cc1029578af30eecfbd6dea4d177e59fbc2232b94c2ff82c356dffd8d6dde7ea64736f6c63430008090033",
  "linkReferences": {},
  "deployedLinkReferences": {}
}