{
  "_format": "hh-sol-artifact-1",
  "contractName": "ERC1155URIStorageMock",
  "sourceName": "contracts/openzeppelin/mocks/ERC1155URIStorageMock.sol",
  "abi": [
    {
      "inputs": [
        {
          "internalType": "string",
          "name": "_uri",
          "type": "string"
        }
      ],
      "stateMutability": "nonpayable",
      "type": "constructor"
    },
    {
      "anonymous": false,
      "inputs": [
        {
          "indexed": true,
          "internalType": "address",
          "name": "account",
          "type": "address"
        },
        {
          "indexed": true,
          "internalType": "address",
          "name": "operator",
          "type": "address"
        },
        {
          "indexed": false,
          "internalType": "bool",
          "name": "approved",
          "type": "bool"
        }
      ],
      "name": "ApprovalForAll",
      "type": "event"
    },
    {
      "anonymous": false,
      "inputs": [
        {
          "indexed": true,
          "internalType": "address",
          "name": "operator",
          "type": "address"
        },
        {
          "indexed": true,
          "internalType": "address",
          "name": "from",
          "type": "address"
        },
        {
          "indexed": true,
          "internalType": "address",
          "name": "to",
          "type": "address"
        },
        {
          "indexed": false,
          "internalType": "uint256[]",
          "name": "ids",
          "type": "uint256[]"
        },
        {
          "indexed": false,
          "internalType": "uint256[]",
          "name": "values",
          "type": "uint256[]"
        }
      ],
      "name": "TransferBatch",
      "type": "event"
    },
    {
      "anonymous": false,
      "inputs": [
        {
          "indexed": true,
          "internalType": "address",
          "name": "operator",
          "type": "address"
        },
        {
          "indexed": true,
          "internalType": "address",
          "name": "from",
          "type": "address"
        },
        {
          "indexed": true,
          "internalType": "address",
          "name": "to",
          "type": "address"
        },
        {
          "indexed": false,
          "internalType": "uint256",
          "name": "id",
          "type": "uint256"
        },
        {
          "indexed": false,
          "internalType": "uint256",
          "name": "value",
          "type": "uint256"
        }
      ],
      "name": "TransferSingle",
      "type": "event"
    },
    {
      "anonymous": false,
      "inputs": [
        {
          "indexed": false,
          "internalType": "string",
          "name": "value",
          "type": "string"
        },
        {
          "indexed": true,
          "internalType": "uint256",
          "name": "id",
          "type": "uint256"
        }
      ],
      "name": "URI",
      "type": "event"
    },
    {
      "inputs": [
        {
          "internalType": "address",
          "name": "account",
          "type": "address"
        },
        {
          "internalType": "uint256",
          "name": "id",
          "type": "uint256"
        }
      ],
      "name": "balanceOf",
      "outputs": [
        {
          "internalType": "uint256",
          "name": "",
          "type": "uint256"
        }
      ],
      "stateMutability": "view",
      "type": "function"
    },
    {
      "inputs": [
        {
          "internalType": "address[]",
          "name": "accounts",
          "type": "address[]"
        },
        {
          "internalType": "uint256[]",
          "name": "ids",
          "type": "uint256[]"
        }
      ],
      "name": "balanceOfBatch",
      "outputs": [
        {
          "internalType": "uint256[]",
          "name": "",
          "type": "uint256[]"
        }
      ],
      "stateMutability": "view",
      "type": "function"
    },
    {
      "inputs": [
        {
          "internalType": "address",
          "name": "owner",
          "type": "address"
        },
        {
          "internalType": "uint256",
          "name": "id",
          "type": "uint256"
        },
        {
          "internalType": "uint256",
          "name": "value",
          "type": "uint256"
        }
      ],
      "name": "burn",
      "outputs": [],
      "stateMutability": "nonpayable",
      "type": "function"
    },
    {
      "inputs": [
        {
          "internalType": "address",
          "name": "owner",
          "type": "address"
        },
        {
          "internalType": "uint256[]",
          "name": "ids",
          "type": "uint256[]"
        },
        {
          "internalType": "uint256[]",
          "name": "values",
          "type": "uint256[]"
        }
      ],
      "name": "burnBatch",
      "outputs": [],
      "stateMutability": "nonpayable",
      "type": "function"
    },
    {
      "inputs": [
        {
          "internalType": "address",
          "name": "account",
          "type": "address"
        },
        {
          "internalType": "address",
          "name": "operator",
          "type": "address"
        }
      ],
      "name": "isApprovedForAll",
      "outputs": [
        {
          "internalType": "bool",
          "name": "",
          "type": "bool"
        }
      ],
      "stateMutability": "view",
      "type": "function"
    },
    {
      "inputs": [
        {
          "internalType": "address",
          "name": "to",
          "type": "address"
        },
        {
          "internalType": "uint256",
          "name": "id",
          "type": "uint256"
        },
        {
          "internalType": "uint256",
          "name": "value",
          "type": "uint256"
        },
        {
          "internalType": "bytes",
          "name": "data",
          "type": "bytes"
        }
      ],
      "name": "mint",
      "outputs": [],
      "stateMutability": "nonpayable",
      "type": "function"
    },
    {
      "inputs": [
        {
          "internalType": "address",
          "name": "to",
          "type": "address"
        },
        {
          "internalType": "uint256[]",
          "name": "ids",
          "type": "uint256[]"
        },
        {
          "internalType": "uint256[]",
          "name": "values",
          "type": "uint256[]"
        },
        {
          "internalType": "bytes",
          "name": "data",
          "type": "bytes"
        }
      ],
      "name": "mintBatch",
      "outputs": [],
      "stateMutability": "nonpayable",
      "type": "function"
    },
    {
      "inputs": [
        {
          "internalType": "address",
          "name": "from",
          "type": "address"
        },
        {
          "internalType": "address",
          "name": "to",
          "type": "address"
        },
        {
          "internalType": "uint256[]",
          "name": "ids",
          "type": "uint256[]"
        },
        {
          "internalType": "uint256[]",
          "name": "amounts",
          "type": "uint256[]"
        },
        {
          "internalType": "bytes",
          "name": "data",
          "type": "bytes"
        }
      ],
      "name": "safeBatchTransferFrom",
      "outputs": [],
      "stateMutability": "nonpayable",
      "type": "function"
    },
    {
      "inputs": [
        {
          "internalType": "address",
          "name": "from",
          "type": "address"
        },
        {
          "internalType": "address",
          "name": "to",
          "type": "address"
        },
        {
          "internalType": "uint256",
          "name": "id",
          "type": "uint256"
        },
        {
          "internalType": "uint256",
          "name": "amount",
          "type": "uint256"
        },
        {
          "internalType": "bytes",
          "name": "data",
          "type": "bytes"
        }
      ],
      "name": "safeTransferFrom",
      "outputs": [],
      "stateMutability": "nonpayable",
      "type": "function"
    },
    {
      "inputs": [
        {
          "internalType": "address",
          "name": "operator",
          "type": "address"
        },
        {
          "internalType": "bool",
          "name": "approved",
          "type": "bool"
        }
      ],
      "name": "setApprovalForAll",
      "outputs": [],
      "stateMutability": "nonpayable",
      "type": "function"
    },
    {
      "inputs": [
        {
          "internalType": "string",
          "name": "baseURI",
          "type": "string"
        }
      ],
      "name": "setBaseURI",
      "outputs": [],
      "stateMutability": "nonpayable",
      "type": "function"
    },
    {
      "inputs": [
        {
          "internalType": "string",
          "name": "newuri",
          "type": "string"
        }
      ],
      "name": "setURI",
      "outputs": [],
      "stateMutability": "nonpayable",
      "type": "function"
    },
    {
      "inputs": [
        {
          "internalType": "uint256",
          "name": "tokenId",
          "type": "uint256"
        },
        {
          "internalType": "string",
          "name": "_tokenURI",
          "type": "string"
        }
      ],
      "name": "setURI",
      "outputs": [],
      "stateMutability": "nonpayable",
      "type": "function"
    },
    {
      "inputs": [
        {
          "internalType": "bytes4",
          "name": "interfaceId",
          "type": "bytes4"
        }
      ],
      "name": "supportsInterface",
      "outputs": [
        {
          "internalType": "bool",
          "name": "",
          "type": "bool"
        }
      ],
      "stateMutability": "view",
      "type": "function"
    },
    {
      "inputs": [
        {
          "internalType": "uint256",
          "name": "tokenId",
          "type": "uint256"
        }
      ],
      "name": "uri",
      "outputs": [
        {
          "internalType": "string",
          "name": "",
          "type": "string"
        }
      ],
      "stateMutability": "view",
      "type": "function"
    }
  ],
  "bytecode": "0x608060405260405180602001604052806000815250600390805190602001906200002b92919062000097565b503480156200003957600080fd5b5060405162003bcd38038062003bcd83398181016040528101906200005f9190620002e4565b808062000072816200007b60201b60201c565b5050506200039a565b80600290805190602001906200009392919062000097565b5050565b828054620000a59062000364565b90600052602060002090601f016020900481019282620000c9576000855562000115565b82601f10620000e457805160ff191683800117855562000115565b8280016001018555821562000115579182015b8281111562000114578251825591602001919060010190620000f7565b5b50905062000124919062000128565b5090565b5b808211156200014357600081600090555060010162000129565b5090565b6000604051905090565b600080fd5b600080fd5b600080fd5b600080fd5b6000601f19601f8301169050919050565b7f4e487b7100000000000000000000000000000000000000000000000000000000600052604160045260246000fd5b620001b08262000165565b810181811067ffffffffffffffff82111715620001d257620001d162000176565b5b80604052505050565b6000620001e762000147565b9050620001f58282620001a5565b919050565b600067ffffffffffffffff82111562000218576200021762000176565b5b620002238262000165565b9050602081019050919050565b60005b838110156200025057808201518184015260208101905062000233565b8381111562000260576000848401525b50505050565b60006200027d6200027784620001fa565b620001db565b9050828152602081018484840111156200029c576200029b62000160565b5b620002a984828562000230565b509392505050565b600082601f830112620002c957620002c86200015b565b5b8151620002db84826020860162000266565b91505092915050565b600060208284031215620002fd57620002fc62000151565b5b600082015167ffffffffffffffff8111156200031e576200031d62000156565b5b6200032c84828501620002b1565b91505092915050565b7f4e487b7100000000000000000000000000000000000000000000000000000000600052602260045260246000fd5b600060028204905060018216806200037d57607f821691505b6020821081141562000394576200039362000335565b5b50919050565b61382380620003aa6000396000f3fe608060405234801561001057600080fd5b50600436106100f45760003560e01c806355f804b311610097578063a22cb46511610066578063a22cb4651461027d578063e985e9c514610299578063f242432a146102c9578063f5298aca146102e5576100f4565b806355f804b31461020d5780636b20c45414610229578063731133e914610245578063862440e214610261576100f4565b80630e89341c116100d35780630e89341c146101755780631f7fdffa146101a55780632eb2c2d6146101c15780634e1273f4146101dd576100f4565b8062fdd58e146100f957806301ffc9a71461012957806302fe530514610159575b600080fd5b610113600480360381019061010e919061209d565b610301565b60405161012091906120ec565b60405180910390f35b610143600480360381019061013e919061215f565b6103ca565b60405161015091906121a7565b60405180910390f35b610173600480360381019061016e9190612308565b6104ac565b005b61018f600480360381019061018a9190612351565b6104b8565b60405161019c9190612406565b60405180910390f35b6101bf60048036038101906101ba9190612591565b6104ca565b005b6101db60048036038101906101d6919061264c565b6104dc565b005b6101f760048036038101906101f291906127de565b61057d565b6040516102049190612914565b60405180910390f35b61022760048036038101906102229190612308565b610696565b005b610243600480360381019061023e9190612936565b6106a2565b005b61025f600480360381019061025a91906129c1565b6106b2565b005b61027b60048036038101906102769190612a44565b6106c4565b005b61029760048036038101906102929190612acc565b6106d2565b005b6102b360048036038101906102ae9190612b0c565b6106e8565b6040516102c091906121a7565b60405180910390f35b6102e360048036038101906102de9190612b4c565b61077c565b005b6102ff60048036038101906102fa9190612be3565b61081d565b005b60008073ffffffffffffffffffffffffffffffffffffffff168373ffffffffffffffffffffffffffffffffffffffff161415610372576040517f08c379a000000000000000000000000000000000000000000000000000000000815260040161036990612ca8565b60405180910390fd5b60008083815260200190815260200160002060008473ffffffffffffffffffffffffffffffffffffffff1673ffffffffffffffffffffffffffffffffffffffff16815260200190815260200160002054905092915050565b60007fd9b67a26000000000000000000000000000000000000000000000000000000007bffffffffffffffffffffffffffffffffffffffffffffffffffffffff1916827bffffffffffffffffffffffffffffffffffffffffffffffffffffffff1916148061049557507f0e89341c000000000000000000000000000000000000000000000000000000007bffffffffffffffffffffffffffffffffffffffffffffffffffffffff1916827bffffffffffffffffffffffffffffffffffffffffffffffffffffffff1916145b806104a557506104a48261082d565b5b9050919050565b6104b581610897565b50565b60606104c3826108b1565b9050919050565b6104d684848484610996565b50505050565b6104e4610bc3565b73ffffffffffffffffffffffffffffffffffffffff168573ffffffffffffffffffffffffffffffffffffffff16148061052a575061052985610524610bc3565b6106e8565b5b610569576040517f08c379a000000000000000000000000000000000000000000000000000000000815260040161056090612d3a565b60405180910390fd5b6105768585858585610bcb565b5050505050565b606081518351146105c3576040517f08c379a00000000000000000000000000000000000000000000000000000000081526004016105ba90612dcc565b60405180910390fd5b6000835167ffffffffffffffff8111156105e0576105df6121dd565b5b60405190808252806020026020018201604052801561060e5781602001602082028036833780820191505090505b50905060005b845181101561068b5761065b85828151811061063357610632612dec565b5b602002602001015185838151811061064e5761064d612dec565b5b6020026020010151610301565b82828151811061066e5761066d612dec565b5b6020026020010181815250508061068490612e4a565b9050610614565b508091505092915050565b61069f81610eed565b50565b6106ad838383610f07565b505050565b6106be848484846111d6565b50505050565b6106ce8282611387565b5050565b6106e46106dd610bc3565b83836113f3565b5050565b6000600160008473ffffffffffffffffffffffffffffffffffffffff1673ffffffffffffffffffffffffffffffffffffffff16815260200190815260200160002060008373ffffffffffffffffffffffffffffffffffffffff1673ffffffffffffffffffffffffffffffffffffffff16815260200190815260200160002060009054906101000a900460ff16905092915050565b610784610bc3565b73ffffffffffffffffffffffffffffffffffffffff168573ffffffffffffffffffffffffffffffffffffffff1614806107ca57506107c9856107c4610bc3565b6106e8565b5b610809576040517f08c379a000000000000000000000000000000000000000000000000000000000815260040161080090612d3a565b60405180910390fd5b6108168585858585611560565b5050505050565b6108288383836117fc565b505050565b60007f01ffc9a7000000000000000000000000000000000000000000000000000000007bffffffffffffffffffffffffffffffffffffffffffffffffffffffff1916827bffffffffffffffffffffffffffffffffffffffffffffffffffffffff1916149050919050565b80600290805190602001906108ad929190611f52565b5050565b606060006004600084815260200190815260200160002080546108d390612ec2565b80601f01602080910402602001604051908101604052809291908181526020018280546108ff90612ec2565b801561094c5780601f106109215761010080835404028352916020019161094c565b820191906000526020600020905b81548152906001019060200180831161092f57829003601f168201915b50505050509050600081511161096a5761096583611a43565b61098e565b60038160405160200161097e929190612fc4565b6040516020818303038152906040525b915050919050565b600073ffffffffffffffffffffffffffffffffffffffff168473ffffffffffffffffffffffffffffffffffffffff161415610a06576040517f08c379a00000000000000000000000000000000000000000000000000000000081526004016109fd9061305a565b60405180910390fd5b8151835114610a4a576040517f08c379a0000000000000000000000000000000000000000000000000000000008152600401610a41906130ec565b60405180910390fd5b6000610a54610bc3565b9050610a6581600087878787611ad7565b60005b8451811015610b1e57838181518110610a8457610a83612dec565b5b6020026020010151600080878481518110610aa257610aa1612dec565b5b6020026020010151815260200190815260200160002060008873ffffffffffffffffffffffffffffffffffffffff1673ffffffffffffffffffffffffffffffffffffffff1681526020019081526020016000206000828254610b04919061310c565b925050819055508080610b1690612e4a565b915050610a68565b508473ffffffffffffffffffffffffffffffffffffffff16600073ffffffffffffffffffffffffffffffffffffffff168273ffffffffffffffffffffffffffffffffffffffff167f4a39dc06d4c0dbc64b70af90fd698a233a518aa5d07e595d983b8c0526c8f7fb8787604051610b96929190613162565b60405180910390a4610bad81600087878787611adf565b610bbc81600087878787611ae7565b5050505050565b600033905090565b8151835114610c0f576040517f08c379a0000000000000000000000000000000000000000000000000000000008152600401610c06906130ec565b60405180910390fd5b600073ffffffffffffffffffffffffffffffffffffffff168473ffffffffffffffffffffffffffffffffffffffff161415610c7f576040517f08c379a0000000000000000000000000000000000000000000000000000000008152600401610c769061320b565b60405180910390fd5b6000610c89610bc3565b9050610c99818787878787611ad7565b60005b8451811015610e4a576000858281518110610cba57610cb9612dec565b5b602002602001015190506000858381518110610cd957610cd8612dec565b5b60200260200101519050600080600084815260200190815260200160002060008b73ffffffffffffffffffffffffffffffffffffffff1673ffffffffffffffffffffffffffffffffffffffff16815260200190815260200160002054905081811015610d7a576040517f08c379a0000000000000000000000000000000000000000000000000000000008152600401610d719061329d565b60405180910390fd5b81810360008085815260200190815260200160002060008c73ffffffffffffffffffffffffffffffffffffffff1673ffffffffffffffffffffffffffffffffffffffff168152602001908152602001600020819055508160008085815260200190815260200160002060008b73ffffffffffffffffffffffffffffffffffffffff1673ffffffffffffffffffffffffffffffffffffffff1681526020019081526020016000206000828254610e2f919061310c565b9250508190555050505080610e4390612e4a565b9050610c9c565b508473ffffffffffffffffffffffffffffffffffffffff168673ffffffffffffffffffffffffffffffffffffffff168273ffffffffffffffffffffffffffffffffffffffff167f4a39dc06d4c0dbc64b70af90fd698a233a518aa5d07e595d983b8c0526c8f7fb8787604051610ec1929190613162565b60405180910390a4610ed7818787878787611adf565b610ee5818787878787611ae7565b505050505050565b8060039080519060200190610f03929190611f52565b5050565b600073ffffffffffffffffffffffffffffffffffffffff168373ffffffffffffffffffffffffffffffffffffffff161415610f77576040517f08c379a0000000000000000000000000000000000000000000000000000000008152600401610f6e9061332f565b60405180910390fd5b8051825114610fbb576040517f08c379a0000000000000000000000000000000000000000000000000000000008152600401610fb2906130ec565b60405180910390fd5b6000610fc5610bc3565b9050610fe581856000868660405180602001604052806000815250611ad7565b60005b835181101561113257600084828151811061100657611005612dec565b5b60200260200101519050600084838151811061102557611024612dec565b5b60200260200101519050600080600084815260200190815260200160002060008973ffffffffffffffffffffffffffffffffffffffff1673ffffffffffffffffffffffffffffffffffffffff168152602001908152602001600020549050818110156110c6576040517f08c379a00000000000000000000000000000000000000000000000000000000081526004016110bd906133c1565b60405180910390fd5b81810360008085815260200190815260200160002060008a73ffffffffffffffffffffffffffffffffffffffff1673ffffffffffffffffffffffffffffffffffffffff16815260200190815260200160002081905550505050808061112a90612e4a565b915050610fe8565b50600073ffffffffffffffffffffffffffffffffffffffff168473ffffffffffffffffffffffffffffffffffffffff168273ffffffffffffffffffffffffffffffffffffffff167f4a39dc06d4c0dbc64b70af90fd698a233a518aa5d07e595d983b8c0526c8f7fb86866040516111aa929190613162565b60405180910390a46111d081856000868660405180602001604052806000815250611adf565b50505050565b600073ffffffffffffffffffffffffffffffffffffffff168473ffffffffffffffffffffffffffffffffffffffff161415611246576040517f08c379a000000000000000000000000000000000000000000000000000000000815260040161123d9061305a565b60405180910390fd5b6000611250610bc3565b9050600061125d85611cce565b9050600061126a85611cce565b905061127b83600089858589611ad7565b8460008088815260200190815260200160002060008973ffffffffffffffffffffffffffffffffffffffff1673ffffffffffffffffffffffffffffffffffffffff16815260200190815260200160002060008282546112da919061310c565b925050819055508673ffffffffffffffffffffffffffffffffffffffff16600073ffffffffffffffffffffffffffffffffffffffff168473ffffffffffffffffffffffffffffffffffffffff167fc3d58168c5ae7397731d063d5bbf3d657854427343f4c083240f7aacaa2d0f6289896040516113589291906133e1565b60405180910390a461136f83600089858589611adf565b61137e83600089898989611d48565b50505050505050565b806004600084815260200190815260200160002090805190602001906113ae929190611f52565b50817f6bb7ff708619ba0610cba295a58592e0451dee2622938c8755667688daf3529b6113da846104b8565b6040516113e79190612406565b60405180910390a25050565b8173ffffffffffffffffffffffffffffffffffffffff168373ffffffffffffffffffffffffffffffffffffffff161415611462576040517f08c379a00000000000000000000000000000000000000000000000000000000081526004016114599061347c565b60405180910390fd5b80600160008573ffffffffffffffffffffffffffffffffffffffff1673ffffffffffffffffffffffffffffffffffffffff16815260200190815260200160002060008473ffffffffffffffffffffffffffffffffffffffff1673ffffffffffffffffffffffffffffffffffffffff16815260200190815260200160002060006101000a81548160ff0219169083151502179055508173ffffffffffffffffffffffffffffffffffffffff168373ffffffffffffffffffffffffffffffffffffffff167f17307eab39ab6107e8899845ad3d59bd9653f200f220920489ca2b5937696c318360405161155391906121a7565b60405180910390a3505050565b600073ffffffffffffffffffffffffffffffffffffffff168473ffffffffffffffffffffffffffffffffffffffff1614156115d0576040517f08c379a00000000000000000000000000000000000000000000000000000000081526004016115c79061320b565b60405180910390fd5b60006115da610bc3565b905060006115e785611cce565b905060006115f485611cce565b9050611604838989858589611ad7565b600080600088815260200190815260200160002060008a73ffffffffffffffffffffffffffffffffffffffff1673ffffffffffffffffffffffffffffffffffffffff1681526020019081526020016000205490508581101561169b576040517f08c379a00000000000000000000000000000000000000000000000000000000081526004016116929061329d565b60405180910390fd5b85810360008089815260200190815260200160002060008b73ffffffffffffffffffffffffffffffffffffffff1673ffffffffffffffffffffffffffffffffffffffff168152602001908152602001600020819055508560008089815260200190815260200160002060008a73ffffffffffffffffffffffffffffffffffffffff1673ffffffffffffffffffffffffffffffffffffffff1681526020019081526020016000206000828254611750919061310c565b925050819055508773ffffffffffffffffffffffffffffffffffffffff168973ffffffffffffffffffffffffffffffffffffffff168573ffffffffffffffffffffffffffffffffffffffff167fc3d58168c5ae7397731d063d5bbf3d657854427343f4c083240f7aacaa2d0f628a8a6040516117cd9291906133e1565b60405180910390a46117e3848a8a86868a611adf565b6117f1848a8a8a8a8a611d48565b505050505050505050565b600073ffffffffffffffffffffffffffffffffffffffff168373ffffffffffffffffffffffffffffffffffffffff16141561186c576040517f08c379a00000000000000000000000000000000000000000000000000000000081526004016118639061332f565b60405180910390fd5b6000611876610bc3565b9050600061188384611cce565b9050600061189084611cce565b90506118b083876000858560405180602001604052806000815250611ad7565b600080600087815260200190815260200160002060008873ffffffffffffffffffffffffffffffffffffffff1673ffffffffffffffffffffffffffffffffffffffff16815260200190815260200160002054905084811015611947576040517f08c379a000000000000000000000000000000000000000000000000000000000815260040161193e906133c1565b60405180910390fd5b84810360008088815260200190815260200160002060008973ffffffffffffffffffffffffffffffffffffffff1673ffffffffffffffffffffffffffffffffffffffff16815260200190815260200160002081905550600073ffffffffffffffffffffffffffffffffffffffff168773ffffffffffffffffffffffffffffffffffffffff168573ffffffffffffffffffffffffffffffffffffffff167fc3d58168c5ae7397731d063d5bbf3d657854427343f4c083240f7aacaa2d0f628989604051611a149291906133e1565b60405180910390a4611a3a84886000868660405180602001604052806000815250611adf565b50505050505050565b606060028054611a5290612ec2565b80601f0160208091040260200160405190810160405280929190818152602001828054611a7e90612ec2565b8015611acb5780601f10611aa057610100808354040283529160200191611acb565b820191906000526020600020905b815481529060010190602001808311611aae57829003601f168201915b50505050509050919050565b505050505050565b505050505050565b611b068473ffffffffffffffffffffffffffffffffffffffff16611f2f565b15611cc6578373ffffffffffffffffffffffffffffffffffffffff1663bc197c8187878686866040518663ffffffff1660e01b8152600401611b4c959493929190613500565b602060405180830381600087803b158015611b6657600080fd5b505af1925050508015611b9757506040513d601f19601f82011682018060405250810190611b94919061357d565b60015b611c3d57611ba36135b7565b806308c379a01415611c005750611bb86135d9565b80611bc35750611c02565b806040517f08c379a0000000000000000000000000000000000000000000000000000000008152600401611bf79190612406565b60405180910390fd5b505b6040517f08c379a0000000000000000000000000000000000000000000000000000000008152600401611c34906136e1565b60405180910390fd5b63bc197c8160e01b7bffffffffffffffffffffffffffffffffffffffffffffffffffffffff1916817bffffffffffffffffffffffffffffffffffffffffffffffffffffffff191614611cc4576040517f08c379a0000000000000000000000000000000000000000000000000000000008152600401611cbb90613773565b60405180910390fd5b505b505050505050565b60606000600167ffffffffffffffff811115611ced57611cec6121dd565b5b604051908082528060200260200182016040528015611d1b5781602001602082028036833780820191505090505b5090508281600081518110611d3357611d32612dec565b5b60200260200101818152505080915050919050565b611d678473ffffffffffffffffffffffffffffffffffffffff16611f2f565b15611f27578373ffffffffffffffffffffffffffffffffffffffff1663f23a6e6187878686866040518663ffffffff1660e01b8152600401611dad959493929190613793565b602060405180830381600087803b158015611dc757600080fd5b505af1925050508015611df857506040513d601f19601f82011682018060405250810190611df5919061357d565b60015b611e9e57611e046135b7565b806308c379a01415611e615750611e196135d9565b80611e245750611e63565b806040517f08c379a0000000000000000000000000000000000000000000000000000000008152600401611e589190612406565b60405180910390fd5b505b6040517f08c379a0000000000000000000000000000000000000000000000000000000008152600401611e95906136e1565b60405180910390fd5b63f23a6e6160e01b7bffffffffffffffffffffffffffffffffffffffffffffffffffffffff1916817bffffffffffffffffffffffffffffffffffffffffffffffffffffffff191614611f25576040517f08c379a0000000000000000000000000000000000000000000000000000000008152600401611f1c90613773565b60405180910390fd5b505b505050505050565b6000808273ffffffffffffffffffffffffffffffffffffffff163b119050919050565b828054611f5e90612ec2565b90600052602060002090601f016020900481019282611f805760008555611fc7565b82601f10611f9957805160ff1916838001178555611fc7565b82800160010185558215611fc7579182015b82811115611fc6578251825591602001919060010190611fab565b5b509050611fd49190611fd8565b5090565b5b80821115611ff1576000816000905550600101611fd9565b5090565b6000604051905090565b600080fd5b600080fd5b600073ffffffffffffffffffffffffffffffffffffffff82169050919050565b600061203482612009565b9050919050565b61204481612029565b811461204f57600080fd5b50565b6000813590506120618161203b565b92915050565b6000819050919050565b61207a81612067565b811461208557600080fd5b50565b60008135905061209781612071565b92915050565b600080604083850312156120b4576120b3611fff565b5b60006120c285828601612052565b92505060206120d385828601612088565b9150509250929050565b6120e681612067565b82525050565b600060208201905061210160008301846120dd565b92915050565b60007fffffffff0000000000000000000000000000000000000000000000000000000082169050919050565b61213c81612107565b811461214757600080fd5b50565b60008135905061215981612133565b92915050565b60006020828403121561217557612174611fff565b5b60006121838482850161214a565b91505092915050565b60008115159050919050565b6121a18161218c565b82525050565b60006020820190506121bc6000830184612198565b92915050565b600080fd5b600080fd5b6000601f19601f8301169050919050565b7f4e487b7100000000000000000000000000000000000000000000000000000000600052604160045260246000fd5b612215826121cc565b810181811067ffffffffffffffff82111715612234576122336121dd565b5b80604052505050565b6000612247611ff5565b9050612253828261220c565b919050565b600067ffffffffffffffff821115612273576122726121dd565b5b61227c826121cc565b9050602081019050919050565b82818337600083830152505050565b60006122ab6122a684612258565b61223d565b9050828152602081018484840111156122c7576122c66121c7565b5b6122d2848285612289565b509392505050565b600082601f8301126122ef576122ee6121c2565b5b81356122ff848260208601612298565b91505092915050565b60006020828403121561231e5761231d611fff565b5b600082013567ffffffffffffffff81111561233c5761233b612004565b5b612348848285016122da565b91505092915050565b60006020828403121561236757612366611fff565b5b600061237584828501612088565b91505092915050565b600081519050919050565b600082825260208201905092915050565b60005b838110156123b857808201518184015260208101905061239d565b838111156123c7576000848401525b50505050565b60006123d88261237e565b6123e28185612389565b93506123f281856020860161239a565b6123fb816121cc565b840191505092915050565b6000602082019050818103600083015261242081846123cd565b905092915050565b600067ffffffffffffffff821115612443576124426121dd565b5b602082029050602081019050919050565b600080fd5b600061246c61246784612428565b61223d565b9050808382526020820190506020840283018581111561248f5761248e612454565b5b835b818110156124b857806124a48882612088565b845260208401935050602081019050612491565b5050509392505050565b600082601f8301126124d7576124d66121c2565b5b81356124e7848260208601612459565b91505092915050565b600067ffffffffffffffff82111561250b5761250a6121dd565b5b612514826121cc565b9050602081019050919050565b600061253461252f846124f0565b61223d565b9050828152602081018484840111156125505761254f6121c7565b5b61255b848285612289565b509392505050565b600082601f830112612578576125776121c2565b5b8135612588848260208601612521565b91505092915050565b600080600080608085870312156125ab576125aa611fff565b5b60006125b987828801612052565b945050602085013567ffffffffffffffff8111156125da576125d9612004565b5b6125e6878288016124c2565b935050604085013567ffffffffffffffff81111561260757612606612004565b5b612613878288016124c2565b925050606085013567ffffffffffffffff81111561263457612633612004565b5b61264087828801612563565b91505092959194509250565b600080600080600060a0868803121561266857612667611fff565b5b600061267688828901612052565b955050602061268788828901612052565b945050604086013567ffffffffffffffff8111156126a8576126a7612004565b5b6126b4888289016124c2565b935050606086013567ffffffffffffffff8111156126d5576126d4612004565b5b6126e1888289016124c2565b925050608086013567ffffffffffffffff81111561270257612701612004565b5b61270e88828901612563565b9150509295509295909350565b600067ffffffffffffffff821115612736576127356121dd565b5b602082029050602081019050919050565b600061275a6127558461271b565b61223d565b9050808382526020820190506020840283018581111561277d5761277c612454565b5b835b818110156127a657806127928882612052565b84526020840193505060208101905061277f565b5050509392505050565b600082601f8301126127c5576127c46121c2565b5b81356127d5848260208601612747565b91505092915050565b600080604083850312156127f5576127f4611fff565b5b600083013567ffffffffffffffff81111561281357612812612004565b5b61281f858286016127b0565b925050602083013567ffffffffffffffff8111156128405761283f612004565b5b61284c858286016124c2565b9150509250929050565b600081519050919050565b600082825260208201905092915050565b6000819050602082019050919050565b61288b81612067565b82525050565b600061289d8383612882565b60208301905092915050565b6000602082019050919050565b60006128c182612856565b6128cb8185612861565b93506128d683612872565b8060005b838110156129075781516128ee8882612891565b97506128f9836128a9565b9250506001810190506128da565b5085935050505092915050565b6000602082019050818103600083015261292e81846128b6565b905092915050565b60008060006060848603121561294f5761294e611fff565b5b600061295d86828701612052565b935050602084013567ffffffffffffffff81111561297e5761297d612004565b5b61298a868287016124c2565b925050604084013567ffffffffffffffff8111156129ab576129aa612004565b5b6129b7868287016124c2565b9150509250925092565b600080600080608085870312156129db576129da611fff565b5b60006129e987828801612052565b94505060206129fa87828801612088565b9350506040612a0b87828801612088565b925050606085013567ffffffffffffffff811115612a2c57612a2b612004565b5b612a3887828801612563565b91505092959194509250565b60008060408385031215612a5b57612a5a611fff565b5b6000612a6985828601612088565b925050602083013567ffffffffffffffff811115612a8a57612a89612004565b5b612a96858286016122da565b9150509250929050565b612aa98161218c565b8114612ab457600080fd5b50565b600081359050612ac681612aa0565b92915050565b60008060408385031215612ae357612ae2611fff565b5b6000612af185828601612052565b9250506020612b0285828601612ab7565b9150509250929050565b60008060408385031215612b2357612b22611fff565b5b6000612b3185828601612052565b9250506020612b4285828601612052565b9150509250929050565b600080600080600060a08688031215612b6857612b67611fff565b5b6000612b7688828901612052565b9550506020612b8788828901612052565b9450506040612b9888828901612088565b9350506060612ba988828901612088565b925050608086013567ffffffffffffffff811115612bca57612bc9612004565b5b612bd688828901612563565b9150509295509295909350565b600080600060608486031215612bfc57612bfb611fff565b5b6000612c0a86828701612052565b9350506020612c1b86828701612088565b9250506040612c2c86828701612088565b9150509250925092565b7f455243313135353a2061646472657373207a65726f206973206e6f742061207660008201527f616c6964206f776e657200000000000000000000000000000000000000000000602082015250565b6000612c92602a83612389565b9150612c9d82612c36565b604082019050919050565b60006020820190508181036000830152612cc181612c85565b9050919050565b7f455243313135353a2063616c6c6572206973206e6f7420746f6b656e206f776e60008201527f6572206f7220617070726f766564000000000000000000000000000000000000602082015250565b6000612d24602e83612389565b9150612d2f82612cc8565b604082019050919050565b60006020820190508181036000830152612d5381612d17565b9050919050565b7f455243313135353a206163636f756e747320616e6420696473206c656e67746860008201527f206d69736d617463680000000000000000000000000000000000000000000000602082015250565b6000612db6602983612389565b9150612dc182612d5a565b604082019050919050565b60006020820190508181036000830152612de581612da9565b9050919050565b7f4e487b7100000000000000000000000000000000000000000000000000000000600052603260045260246000fd5b7f4e487b7100000000000000000000000000000000000000000000000000000000600052601160045260246000fd5b6000612e5582612067565b91507fffffffffffffffffffffffffffffffffffffffffffffffffffffffffffffffff821415612e8857612e87612e1b565b5b600182019050919050565b7f4e487b7100000000000000000000000000000000000000000000000000000000600052602260045260246000fd5b60006002820490506001821680612eda57607f821691505b60208210811415612eee57612eed612e93565b5b50919050565b600081905092915050565b60008190508160005260206000209050919050565b60008154612f2181612ec2565b612f2b8186612ef4565b94506001821660008114612f465760018114612f5757612f8a565b60ff19831686528186019350612f8a565b612f6085612eff565b60005b83811015612f8257815481890152600182019150602081019050612f63565b838801955050505b50505092915050565b6000612f9e8261237e565b612fa88185612ef4565b9350612fb881856020860161239a565b80840191505092915050565b6000612fd08285612f14565b9150612fdc8284612f93565b91508190509392505050565b7f455243313135353a206d696e7420746f20746865207a65726f2061646472657360008201527f7300000000000000000000000000000000000000000000000000000000000000602082015250565b6000613044602183612389565b915061304f82612fe8565b604082019050919050565b6000602082019050818103600083015261307381613037565b9050919050565b7f455243313135353a2069647320616e6420616d6f756e7473206c656e6774682060008201527f6d69736d61746368000000000000000000000000000000000000000000000000602082015250565b60006130d6602883612389565b91506130e18261307a565b604082019050919050565b60006020820190508181036000830152613105816130c9565b9050919050565b600061311782612067565b915061312283612067565b9250827fffffffffffffffffffffffffffffffffffffffffffffffffffffffffffffffff0382111561315757613156612e1b565b5b828201905092915050565b6000604082019050818103600083015261317c81856128b6565b9050818103602083015261319081846128b6565b90509392505050565b7f455243313135353a207472616e7366657220746f20746865207a65726f20616460008201527f6472657373000000000000000000000000000000000000000000000000000000602082015250565b60006131f5602583612389565b915061320082613199565b604082019050919050565b60006020820190508181036000830152613224816131e8565b9050919050565b7f455243313135353a20696e73756666696369656e742062616c616e636520666f60008201527f72207472616e7366657200000000000000000000000000000000000000000000602082015250565b6000613287602a83612389565b91506132928261322b565b604082019050919050565b600060208201905081810360008301526132b68161327a565b9050919050565b7f455243313135353a206275726e2066726f6d20746865207a65726f206164647260008201527f6573730000000000000000000000000000000000000000000000000000000000602082015250565b6000613319602383612389565b9150613324826132bd565b604082019050919050565b600060208201905081810360008301526133488161330c565b9050919050565b7f455243313135353a206275726e20616d6f756e7420657863656564732062616c60008201527f616e636500000000000000000000000000000000000000000000000000000000602082015250565b60006133ab602483612389565b91506133b68261334f565b604082019050919050565b600060208201905081810360008301526133da8161339e565b9050919050565b60006040820190506133f660008301856120dd565b61340360208301846120dd565b9392505050565b7f455243313135353a2073657474696e6720617070726f76616c2073746174757360008201527f20666f722073656c660000000000000000000000000000000000000000000000602082015250565b6000613466602983612389565b91506134718261340a565b604082019050919050565b6000602082019050818103600083015261349581613459565b9050919050565b6134a581612029565b82525050565b600081519050919050565b600082825260208201905092915050565b60006134d2826134ab565b6134dc81856134b6565b93506134ec81856020860161239a565b6134f5816121cc565b840191505092915050565b600060a082019050613515600083018861349c565b613522602083018761349c565b818103604083015261353481866128b6565b9050818103606083015261354881856128b6565b9050818103608083015261355c81846134c7565b90509695505050505050565b60008151905061357781612133565b92915050565b60006020828403121561359357613592611fff565b5b60006135a184828501613568565b91505092915050565b60008160e01c9050919050565b600060033d11156135d65760046000803e6135d36000516135aa565b90505b90565b600060443d10156135e95761366c565b6135f1611ff5565b60043d036004823e80513d602482011167ffffffffffffffff8211171561361957505061366c565b808201805167ffffffffffffffff811115613637575050505061366c565b80602083010160043d03850181111561365457505050505061366c565b6136638260200185018661220c565b82955050505050505b90565b7f455243313135353a207472616e7366657220746f206e6f6e2d4552433131353560008201527f526563656976657220696d706c656d656e746572000000000000000000000000602082015250565b60006136cb603483612389565b91506136d68261366f565b604082019050919050565b600060208201905081810360008301526136fa816136be565b9050919050565b7f455243313135353a204552433131353552656365697665722072656a6563746560008201527f6420746f6b656e73000000000000000000000000000000000000000000000000602082015250565b600061375d602883612389565b915061376882613701565b604082019050919050565b6000602082019050818103600083015261378c81613750565b9050919050565b600060a0820190506137a8600083018861349c565b6137b5602083018761349c565b6137c260408301866120dd565b6137cf60608301856120dd565b81810360808301526137e181846134c7565b9050969550505050505056fea264697066735822122054fdb9a4de0711025756d00ce20c55fd7063f113ee6364f01e42a82c1b8dad3764736f6c63430008090033",
  "linkReferences": {},
  "deployedLinkReferences": {}
}