{
  "_format": "hh-sol-artifact-1",
  "contractName": "BridgeOptimismMock",
  "sourceName": "contracts/openzeppelin/mocks/crosschain/bridges.sol",
  "abi": [
    {
      "inputs": [
        {
          "internalType": "address",
          "name": "sender",
          "type": "address"
        },
        {
          "internalType": "address",
          "name": "expected",
          "type": "address"
        }
      ],
      "name": "InvalidCrossChainSender",
      "type": "error"
    },
    {
      "inputs": [],
      "name": "NotCrossChainCall",
      "type": "error"
    },
    {
      "inputs": [
        {
          "internalType": "address",
          "name": "target",
          "type": "address"
        },
        {
          "internalType": "bytes",
          "name": "data",
          "type": "bytes"
        },
        {
          "internalType": "address",
          "name": "sender",
          "type": "address"
        }
      ],
      "name": "relayAs",
      "outputs": [],
      "stateMutability": "nonpayable",
      "type": "function"
    },
    {
      "inputs": [],
      "name": "xDomainMessageSender",
      "outputs": [
        {
          "internalType": "address",
          "name": "",
          "type": "address"
        }
      ],
      "stateMutability": "view",
      "type": "function"
    }
  ],
  "bytecode": "0x608060405234801561001057600080fd5b50610609806100206000396000f3fe608060405234801561001057600080fd5b50600436106100365760003560e01c80636e296e451461003b578063fb417a5b14610059575b600080fd5b610043610075565b604051610050919061032a565b60405180910390f35b610073600480360381019061006e91906103e0565b61009e565b005b60008060009054906101000a900473ffffffffffffffffffffffffffffffffffffffff16905090565b60008060009054906101000a900473ffffffffffffffffffffffffffffffffffffffff169050816000806101000a81548173ffffffffffffffffffffffffffffffffffffffff021916908373ffffffffffffffffffffffffffffffffffffffff1602179055506000808673ffffffffffffffffffffffffffffffffffffffff16868660405161012e929190610493565b6000604051808303816000865af19150503d806000811461016b576040519150601f19603f3d011682016040523d82523d6000602084013e610170565b606091505b50915091506101b68783836040518060400160405280601781526020017f6c6f772d6c6576656c2063616c6c207265766572746564000000000000000000815250610200565b50826000806101000a81548173ffffffffffffffffffffffffffffffffffffffff021916908373ffffffffffffffffffffffffffffffffffffffff16021790555050505050505050565b606083156102635760008351141561025b5761021b85610276565b61025a576040517f08c379a000000000000000000000000000000000000000000000000000000000815260040161025190610509565b60405180910390fd5b5b82905061026e565b61026d8383610299565b5b949350505050565b6000808273ffffffffffffffffffffffffffffffffffffffff163b119050919050565b6000825111156102ac5781518083602001fd5b806040517f08c379a00000000000000000000000000000000000000000000000000000000081526004016102e091906105b1565b60405180910390fd5b600073ffffffffffffffffffffffffffffffffffffffff82169050919050565b6000610314826102e9565b9050919050565b61032481610309565b82525050565b600060208201905061033f600083018461031b565b92915050565b600080fd5b600080fd5b61035881610309565b811461036357600080fd5b50565b6000813590506103758161034f565b92915050565b600080fd5b600080fd5b600080fd5b60008083601f8401126103a05761039f61037b565b5b8235905067ffffffffffffffff8111156103bd576103bc610380565b5b6020830191508360018202830111156103d9576103d8610385565b5b9250929050565b600080600080606085870312156103fa576103f9610345565b5b600061040887828801610366565b945050602085013567ffffffffffffffff8111156104295761042861034a565b5b6104358782880161038a565b9350935050604061044887828801610366565b91505092959194509250565b600081905092915050565b82818337600083830152505050565b600061047a8385610454565b935061048783858461045f565b82840190509392505050565b60006104a082848661046e565b91508190509392505050565b600082825260208201905092915050565b7f416464726573733a2063616c6c20746f206e6f6e2d636f6e7472616374000000600082015250565b60006104f3601d836104ac565b91506104fe826104bd565b602082019050919050565b60006020820190508181036000830152610522816104e6565b9050919050565b600081519050919050565b60005b83811015610552578082015181840152602081019050610537565b83811115610561576000848401525b50505050565b6000601f19601f8301169050919050565b600061058382610529565b61058d81856104ac565b935061059d818560208601610534565b6105a681610567565b840191505092915050565b600060208201905081810360008301526105cb8184610578565b90509291505056fea26469706673582212200f6d59d2c35efc30b197cbba048b2616f4f5b38e4b567f368abe026afbd46b9864736f6c63430008090033",
  "linkReferences": {},
  "deployedLinkReferences": {}
}