{
  "_format": "hh-sol-artifact-1",
  "contractName": "MulticallTokenMock",
  "sourceName": "contracts/openzeppelin/mocks/MulticallTokenMock.sol",
  "abi": [
    {
      "inputs": [
        {
          "internalType": "uint256",
          "name": "initialBalance",
          "type": "uint256"
        }
      ],
      "stateMutability": "nonpayable",
      "type": "constructor"
    },
    {
      "anonymous": false,
      "inputs": [
        {
          "indexed": true,
          "internalType": "address",
          "name": "owner",
          "type": "address"
        },
        {
          "indexed": true,
          "internalType": "address",
          "name": "spender",
          "type": "address"
        },
        {
          "indexed": false,
          "internalType": "uint256",
          "name": "value",
          "type": "uint256"
        }
      ],
      "name": "Approval",
      "type": "event"
    },
    {
      "anonymous": false,
      "inputs": [
        {
          "indexed": true,
          "internalType": "address",
          "name": "from",
          "type": "address"
        },
        {
          "indexed": true,
          "internalType": "address",
          "name": "to",
          "type": "address"
        },
        {
          "indexed": false,
          "internalType": "uint256",
          "name": "value",
          "type": "uint256"
        }
      ],
      "name": "Transfer",
      "type": "event"
    },
    {
      "inputs": [
        {
          "internalType": "address",
          "name": "owner",
          "type": "address"
        },
        {
          "internalType": "address",
          "name": "spender",
          "type": "address"
        }
      ],
      "name": "allowance",
      "outputs": [
        {
          "internalType": "uint256",
          "name": "",
          "type": "uint256"
        }
      ],
      "stateMutability": "view",
      "type": "function"
    },
    {
      "inputs": [
        {
          "internalType": "address",
          "name": "spender",
          "type": "address"
        },
        {
          "internalType": "uint256",
          "name": "amount",
          "type": "uint256"
        }
      ],
      "name": "approve",
      "outputs": [
        {
          "internalType": "bool",
          "name": "",
          "type": "bool"
        }
      ],
      "stateMutability": "nonpayable",
      "type": "function"
    },
    {
      "inputs": [
        {
          "internalType": "address",
          "name": "owner",
          "type": "address"
        },
        {
          "internalType": "address",
          "name": "spender",
          "type": "address"
        },
        {
          "internalType": "uint256",
          "name": "value",
          "type": "uint256"
        }
      ],
      "name": "approveInternal",
      "outputs": [],
      "stateMutability": "nonpayable",
      "type": "function"
    },
    {
      "inputs": [
        {
          "internalType": "address",
          "name": "account",
          "type": "address"
        }
      ],
      "name": "balanceOf",
      "outputs": [
        {
          "internalType": "uint256",
          "name": "",
          "type": "uint256"
        }
      ],
      "stateMutability": "view",
      "type": "function"
    },
    {
      "inputs": [
        {
          "internalType": "address",
          "name": "account",
          "type": "address"
        },
        {
          "internalType": "uint256",
          "name": "amount",
          "type": "uint256"
        }
      ],
      "name": "burn",
      "outputs": [],
      "stateMutability": "nonpayable",
      "type": "function"
    },
    {
      "inputs": [],
      "name": "decimals",
      "outputs": [
        {
          "internalType": "uint8",
          "name": "",
          "type": "uint8"
        }
      ],
      "stateMutability": "view",
      "type": "function"
    },
    {
      "inputs": [
        {
          "internalType": "address",
          "name": "spender",
          "type": "address"
        },
        {
          "internalType": "uint256",
          "name": "subtractedValue",
          "type": "uint256"
        }
      ],
      "name": "decreaseAllowance",
      "outputs": [
        {
          "internalType": "bool",
          "name": "",
          "type": "bool"
        }
      ],
      "stateMutability": "nonpayable",
      "type": "function"
    },
    {
      "inputs": [
        {
          "internalType": "address",
          "name": "spender",
          "type": "address"
        },
        {
          "internalType": "uint256",
          "name": "addedValue",
          "type": "uint256"
        }
      ],
      "name": "increaseAllowance",
      "outputs": [
        {
          "internalType": "bool",
          "name": "",
          "type": "bool"
        }
      ],
      "stateMutability": "nonpayable",
      "type": "function"
    },
    {
      "inputs": [
        {
          "internalType": "address",
          "name": "account",
          "type": "address"
        },
        {
          "internalType": "uint256",
          "name": "amount",
          "type": "uint256"
        }
      ],
      "name": "mint",
      "outputs": [],
      "stateMutability": "nonpayable",
      "type": "function"
    },
    {
      "inputs": [
        {
          "internalType": "bytes[]",
          "name": "data",
          "type": "bytes[]"
        }
      ],
      "name": "multicall",
      "outputs": [
        {
          "internalType": "bytes[]",
          "name": "results",
          "type": "bytes[]"
        }
      ],
      "stateMutability": "nonpayable",
      "type": "function"
    },
    {
      "inputs": [],
      "name": "name",
      "outputs": [
        {
          "internalType": "string",
          "name": "",
          "type": "string"
        }
      ],
      "stateMutability": "view",
      "type": "function"
    },
    {
      "inputs": [],
      "name": "symbol",
      "outputs": [
        {
          "internalType": "string",
          "name": "",
          "type": "string"
        }
      ],
      "stateMutability": "view",
      "type": "function"
    },
    {
      "inputs": [],
      "name": "totalSupply",
      "outputs": [
        {
          "internalType": "uint256",
          "name": "",
          "type": "uint256"
        }
      ],
      "stateMutability": "view",
      "type": "function"
    },
    {
      "inputs": [
        {
          "internalType": "address",
          "name": "to",
          "type": "address"
        },
        {
          "internalType": "uint256",
          "name": "amount",
          "type": "uint256"
        }
      ],
      "name": "transfer",
      "outputs": [
        {
          "internalType": "bool",
          "name": "",
          "type": "bool"
        }
      ],
      "stateMutability": "nonpayable",
      "type": "function"
    },
    {
      "inputs": [
        {
          "internalType": "address",
          "name": "from",
          "type": "address"
        },
        {
          "internalType": "address",
          "name": "to",
          "type": "address"
        },
        {
          "internalType": "uint256",
          "name": "amount",
          "type": "uint256"
        }
      ],
      "name": "transferFrom",
      "outputs": [
        {
          "internalType": "bool",
          "name": "",
          "type": "bool"
        }
      ],
      "stateMutability": "nonpayable",
      "type": "function"
    },
    {
      "inputs": [
        {
          "internalType": "address",
          "name": "from",
          "type": "address"
        },
        {
          "internalType": "address",
          "name": "to",
          "type": "address"
        },
        {
          "internalType": "uint256",
          "name": "value",
          "type": "uint256"
        }
      ],
      "name": "transferInternal",
      "outputs": [],
      "stateMutability": "nonpayable",
      "type": "function"
    }
  ],
  "bytecode": "0x60806040523480156200001157600080fd5b506040516200242238038062002422833981810160405281019062000037919062000360565b6040518060400160405280600e81526020017f4d756c746963616c6c546f6b656e0000000000000000000000000000000000008152506040518060400160405280600381526020017f4243540000000000000000000000000000000000000000000000000000000000815250338383838160039080519060200190620000bf92919062000270565b508060049080519060200190620000d892919062000270565b505050620000ed8282620000f860201b60201c565b505050505062000534565b600073ffffffffffffffffffffffffffffffffffffffff168273ffffffffffffffffffffffffffffffffffffffff1614156200016b576040517f08c379a00000000000000000000000000000000000000000000000000000000081526004016200016290620003f3565b60405180910390fd5b6200017f600083836200026660201b60201c565b806002600082825462000193919062000444565b92505081905550806000808473ffffffffffffffffffffffffffffffffffffffff1673ffffffffffffffffffffffffffffffffffffffff168152602001908152602001600020600082825401925050819055508173ffffffffffffffffffffffffffffffffffffffff16600073ffffffffffffffffffffffffffffffffffffffff167fddf252ad1be2c89b69c2b068fc378daa952ba7f163c4a11628f55a4df523b3ef83604051620002469190620004b2565b60405180910390a362000262600083836200026b60201b60201c565b5050565b505050565b505050565b8280546200027e90620004fe565b90600052602060002090601f016020900481019282620002a25760008555620002ee565b82601f10620002bd57805160ff1916838001178555620002ee565b82800160010185558215620002ee579182015b82811115620002ed578251825591602001919060010190620002d0565b5b509050620002fd919062000301565b5090565b5b808211156200031c57600081600090555060010162000302565b5090565b600080fd5b6000819050919050565b6200033a8162000325565b81146200034657600080fd5b50565b6000815190506200035a816200032f565b92915050565b60006020828403121562000379576200037862000320565b5b6000620003898482850162000349565b91505092915050565b600082825260208201905092915050565b7f45524332303a206d696e7420746f20746865207a65726f206164647265737300600082015250565b6000620003db601f8362000392565b9150620003e882620003a3565b602082019050919050565b600060208201905081810360008301526200040e81620003cc565b9050919050565b7f4e487b7100000000000000000000000000000000000000000000000000000000600052601160045260246000fd5b6000620004518262000325565b91506200045e8362000325565b9250827fffffffffffffffffffffffffffffffffffffffffffffffffffffffffffffffff0382111562000496576200049562000415565b5b828201905092915050565b620004ac8162000325565b82525050565b6000602082019050620004c96000830184620004a1565b92915050565b7f4e487b7100000000000000000000000000000000000000000000000000000000600052602260045260246000fd5b600060028204905060018216806200051757607f821691505b602082108114156200052e576200052d620004cf565b5b50919050565b611ede80620005446000396000f3fe608060405234801561001057600080fd5b50600436106101005760003560e01c806356189cb411610097578063a457c2d711610066578063a457c2d7146102ad578063a9059cbb146102dd578063ac9650d81461030d578063dd62ed3e1461033d57610100565b806356189cb41461022757806370a082311461024357806395d89b41146102735780639dc29fac1461029157610100565b806323b872dd116100d357806323b872dd1461018d578063313ce567146101bd57806339509351146101db57806340c10f191461020b57610100565b806306fdde0314610105578063095ea7b31461012357806318160ddd14610153578063222f5be014610171575b600080fd5b61010d61036d565b60405161011a9190611219565b60405180910390f35b61013d600480360381019061013891906112d9565b6103ff565b60405161014a9190611334565b60405180910390f35b61015b610422565b604051610168919061135e565b60405180910390f35b61018b60048036038101906101869190611379565b61042c565b005b6101a760048036038101906101a29190611379565b61043c565b6040516101b49190611334565b60405180910390f35b6101c561046b565b6040516101d291906113e8565b60405180910390f35b6101f560048036038101906101f091906112d9565b610474565b6040516102029190611334565b60405180910390f35b610225600480360381019061022091906112d9565b6104ab565b005b610241600480360381019061023c9190611379565b6104b9565b005b61025d60048036038101906102589190611403565b6104c9565b60405161026a919061135e565b60405180910390f35b61027b610511565b6040516102889190611219565b60405180910390f35b6102ab60048036038101906102a691906112d9565b6105a3565b005b6102c760048036038101906102c291906112d9565b6105b1565b6040516102d49190611334565b60405180910390f35b6102f760048036038101906102f291906112d9565b610628565b6040516103049190611334565b60405180910390f35b61032760048036038101906103229190611495565b61064b565b60405161033491906115f9565b60405180910390f35b6103576004803603810190610352919061161b565b610757565b604051610364919061135e565b60405180910390f35b60606003805461037c9061168a565b80601f01602080910402602001604051908101604052809291908181526020018280546103a89061168a565b80156103f55780601f106103ca576101008083540402835291602001916103f5565b820191906000526020600020905b8154815290600101906020018083116103d857829003601f168201915b5050505050905090565b60008061040a6107de565b90506104178185856107e6565b600191505092915050565b6000600254905090565b6104378383836109b1565b505050565b6000806104476107de565b9050610454858285610c29565b61045f8585856109b1565b60019150509392505050565b60006012905090565b60008061047f6107de565b90506104a08185856104918589610757565b61049b91906116eb565b6107e6565b600191505092915050565b6104b58282610cb5565b5050565b6104c48383836107e6565b505050565b60008060008373ffffffffffffffffffffffffffffffffffffffff1673ffffffffffffffffffffffffffffffffffffffff168152602001908152602001600020549050919050565b6060600480546105209061168a565b80601f016020809104026020016040519081016040528092919081815260200182805461054c9061168a565b80156105995780601f1061056e57610100808354040283529160200191610599565b820191906000526020600020905b81548152906001019060200180831161057c57829003601f168201915b5050505050905090565b6105ad8282610e0c565b5050565b6000806105bc6107de565b905060006105ca8286610757565b90508381101561060f576040517f08c379a0000000000000000000000000000000000000000000000000000000008152600401610606906117b3565b60405180910390fd5b61061c82868684036107e6565b60019250505092915050565b6000806106336107de565b90506106408185856109b1565b600191505092915050565b60608282905067ffffffffffffffff81111561066a576106696117d3565b5b60405190808252806020026020018201604052801561069d57816020015b60608152602001906001900390816106885790505b50905060005b838390508110156107505761071f308585848181106106c5576106c4611802565b5b90506020028101906106d79190611840565b8080601f016020809104026020016040519081016040528093929190818152602001838380828437600081840152601f19601f82011690508083019250505050505050610fda565b82828151811061073257610731611802565b5b60200260200101819052508080610748906118a3565b9150506106a3565b5092915050565b6000600160008473ffffffffffffffffffffffffffffffffffffffff1673ffffffffffffffffffffffffffffffffffffffff16815260200190815260200160002060008373ffffffffffffffffffffffffffffffffffffffff1673ffffffffffffffffffffffffffffffffffffffff16815260200190815260200160002054905092915050565b600033905090565b600073ffffffffffffffffffffffffffffffffffffffff168373ffffffffffffffffffffffffffffffffffffffff161415610856576040517f08c379a000000000000000000000000000000000000000000000000000000000815260040161084d9061195e565b60405180910390fd5b600073ffffffffffffffffffffffffffffffffffffffff168273ffffffffffffffffffffffffffffffffffffffff1614156108c6576040517f08c379a00000000000000000000000000000000000000000000000000000000081526004016108bd906119f0565b60405180910390fd5b80600160008573ffffffffffffffffffffffffffffffffffffffff1673ffffffffffffffffffffffffffffffffffffffff16815260200190815260200160002060008473ffffffffffffffffffffffffffffffffffffffff1673ffffffffffffffffffffffffffffffffffffffff168152602001908152602001600020819055508173ffffffffffffffffffffffffffffffffffffffff168373ffffffffffffffffffffffffffffffffffffffff167f8c5be1e5ebec7d5bd14f71427d1e84f3dd0314c0f7b2291e5b200ac8c7c3b925836040516109a4919061135e565b60405180910390a3505050565b600073ffffffffffffffffffffffffffffffffffffffff168373ffffffffffffffffffffffffffffffffffffffff161415610a21576040517f08c379a0000000000000000000000000000000000000000000000000000000008152600401610a1890611a82565b60405180910390fd5b600073ffffffffffffffffffffffffffffffffffffffff168273ffffffffffffffffffffffffffffffffffffffff161415610a91576040517f08c379a0000000000000000000000000000000000000000000000000000000008152600401610a8890611b14565b60405180910390fd5b610a9c838383611007565b60008060008573ffffffffffffffffffffffffffffffffffffffff1673ffffffffffffffffffffffffffffffffffffffff16815260200190815260200160002054905081811015610b22576040517f08c379a0000000000000000000000000000000000000000000000000000000008152600401610b1990611ba6565b60405180910390fd5b8181036000808673ffffffffffffffffffffffffffffffffffffffff1673ffffffffffffffffffffffffffffffffffffffff16815260200190815260200160002081905550816000808573ffffffffffffffffffffffffffffffffffffffff1673ffffffffffffffffffffffffffffffffffffffff168152602001908152602001600020600082825401925050819055508273ffffffffffffffffffffffffffffffffffffffff168473ffffffffffffffffffffffffffffffffffffffff167fddf252ad1be2c89b69c2b068fc378daa952ba7f163c4a11628f55a4df523b3ef84604051610c10919061135e565b60405180910390a3610c2384848461100c565b50505050565b6000610c358484610757565b90507fffffffffffffffffffffffffffffffffffffffffffffffffffffffffffffffff8114610caf5781811015610ca1576040517f08c379a0000000000000000000000000000000000000000000000000000000008152600401610c9890611c12565b60405180910390fd5b610cae84848484036107e6565b5b50505050565b600073ffffffffffffffffffffffffffffffffffffffff168273ffffffffffffffffffffffffffffffffffffffff161415610d25576040517f08c379a0000000000000000000000000000000000000000000000000000000008152600401610d1c90611c7e565b60405180910390fd5b610d3160008383611007565b8060026000828254610d4391906116eb565b92505081905550806000808473ffffffffffffffffffffffffffffffffffffffff1673ffffffffffffffffffffffffffffffffffffffff168152602001908152602001600020600082825401925050819055508173ffffffffffffffffffffffffffffffffffffffff16600073ffffffffffffffffffffffffffffffffffffffff167fddf252ad1be2c89b69c2b068fc378daa952ba7f163c4a11628f55a4df523b3ef83604051610df4919061135e565b60405180910390a3610e086000838361100c565b5050565b600073ffffffffffffffffffffffffffffffffffffffff168273ffffffffffffffffffffffffffffffffffffffff161415610e7c576040517f08c379a0000000000000000000000000000000000000000000000000000000008152600401610e7390611d10565b60405180910390fd5b610e8882600083611007565b60008060008473ffffffffffffffffffffffffffffffffffffffff1673ffffffffffffffffffffffffffffffffffffffff16815260200190815260200160002054905081811015610f0e576040517f08c379a0000000000000000000000000000000000000000000000000000000008152600401610f0590611da2565b60405180910390fd5b8181036000808573ffffffffffffffffffffffffffffffffffffffff1673ffffffffffffffffffffffffffffffffffffffff1681526020019081526020016000208190555081600260008282540392505081905550600073ffffffffffffffffffffffffffffffffffffffff168373ffffffffffffffffffffffffffffffffffffffff167fddf252ad1be2c89b69c2b068fc378daa952ba7f163c4a11628f55a4df523b3ef84604051610fc1919061135e565b60405180910390a3610fd58360008461100c565b505050565b6060610fff8383604051806060016040528060278152602001611e8260279139611011565b905092915050565b505050565b505050565b60606000808573ffffffffffffffffffffffffffffffffffffffff168560405161103b9190611dfe565b600060405180830381855af49150503d8060008114611076576040519150601f19603f3d011682016040523d82523d6000602084013e61107b565b606091505b509150915061108c86838387611097565b925050509392505050565b606083156110fa576000835114156110f2576110b28561110d565b6110f1576040517f08c379a00000000000000000000000000000000000000000000000000000000081526004016110e890611e61565b60405180910390fd5b5b829050611105565b6111048383611130565b5b949350505050565b6000808273ffffffffffffffffffffffffffffffffffffffff163b119050919050565b6000825111156111435781518083602001fd5b806040517f08c379a00000000000000000000000000000000000000000000000000000000081526004016111779190611219565b60405180910390fd5b600081519050919050565b600082825260208201905092915050565b60005b838110156111ba57808201518184015260208101905061119f565b838111156111c9576000848401525b50505050565b6000601f19601f8301169050919050565b60006111eb82611180565b6111f5818561118b565b935061120581856020860161119c565b61120e816111cf565b840191505092915050565b6000602082019050818103600083015261123381846111e0565b905092915050565b600080fd5b600080fd5b600073ffffffffffffffffffffffffffffffffffffffff82169050919050565b600061127082611245565b9050919050565b61128081611265565b811461128b57600080fd5b50565b60008135905061129d81611277565b92915050565b6000819050919050565b6112b6816112a3565b81146112c157600080fd5b50565b6000813590506112d3816112ad565b92915050565b600080604083850312156112f0576112ef61123b565b5b60006112fe8582860161128e565b925050602061130f858286016112c4565b9150509250929050565b60008115159050919050565b61132e81611319565b82525050565b60006020820190506113496000830184611325565b92915050565b611358816112a3565b82525050565b6000602082019050611373600083018461134f565b92915050565b6000806000606084860312156113925761139161123b565b5b60006113a08682870161128e565b93505060206113b18682870161128e565b92505060406113c2868287016112c4565b9150509250925092565b600060ff82169050919050565b6113e2816113cc565b82525050565b60006020820190506113fd60008301846113d9565b92915050565b6000602082840312156114195761141861123b565b5b60006114278482850161128e565b91505092915050565b600080fd5b600080fd5b600080fd5b60008083601f84011261145557611454611430565b5b8235905067ffffffffffffffff81111561147257611471611435565b5b60208301915083602082028301111561148e5761148d61143a565b5b9250929050565b600080602083850312156114ac576114ab61123b565b5b600083013567ffffffffffffffff8111156114ca576114c9611240565b5b6114d68582860161143f565b92509250509250929050565b600081519050919050565b600082825260208201905092915050565b6000819050602082019050919050565b600081519050919050565b600082825260208201905092915050565b60006115358261150e565b61153f8185611519565b935061154f81856020860161119c565b611558816111cf565b840191505092915050565b600061156f838361152a565b905092915050565b6000602082019050919050565b600061158f826114e2565b61159981856114ed565b9350836020820285016115ab856114fe565b8060005b858110156115e757848403895281516115c88582611563565b94506115d383611577565b925060208a019950506001810190506115af565b50829750879550505050505092915050565b600060208201905081810360008301526116138184611584565b905092915050565b600080604083850312156116325761163161123b565b5b60006116408582860161128e565b92505060206116518582860161128e565b9150509250929050565b7f4e487b7100000000000000000000000000000000000000000000000000000000600052602260045260246000fd5b600060028204905060018216806116a257607f821691505b602082108114156116b6576116b561165b565b5b50919050565b7f4e487b7100000000000000000000000000000000000000000000000000000000600052601160045260246000fd5b60006116f6826112a3565b9150611701836112a3565b9250827fffffffffffffffffffffffffffffffffffffffffffffffffffffffffffffffff03821115611736576117356116bc565b5b828201905092915050565b7f45524332303a2064656372656173656420616c6c6f77616e63652062656c6f7760008201527f207a65726f000000000000000000000000000000000000000000000000000000602082015250565b600061179d60258361118b565b91506117a882611741565b604082019050919050565b600060208201905081810360008301526117cc81611790565b9050919050565b7f4e487b7100000000000000000000000000000000000000000000000000000000600052604160045260246000fd5b7f4e487b7100000000000000000000000000000000000000000000000000000000600052603260045260246000fd5b600080fd5b600080fd5b600080fd5b6000808335600160200384360303811261185d5761185c611831565b5b80840192508235915067ffffffffffffffff82111561187f5761187e611836565b5b60208301925060018202360383131561189b5761189a61183b565b5b509250929050565b60006118ae826112a3565b91507fffffffffffffffffffffffffffffffffffffffffffffffffffffffffffffffff8214156118e1576118e06116bc565b5b600182019050919050565b7f45524332303a20617070726f76652066726f6d20746865207a65726f2061646460008201527f7265737300000000000000000000000000000000000000000000000000000000602082015250565b600061194860248361118b565b9150611953826118ec565b604082019050919050565b600060208201905081810360008301526119778161193b565b9050919050565b7f45524332303a20617070726f766520746f20746865207a65726f20616464726560008201527f7373000000000000000000000000000000000000000000000000000000000000602082015250565b60006119da60228361118b565b91506119e58261197e565b604082019050919050565b60006020820190508181036000830152611a09816119cd565b9050919050565b7f45524332303a207472616e736665722066726f6d20746865207a65726f20616460008201527f6472657373000000000000000000000000000000000000000000000000000000602082015250565b6000611a6c60258361118b565b9150611a7782611a10565b604082019050919050565b60006020820190508181036000830152611a9b81611a5f565b9050919050565b7f45524332303a207472616e7366657220746f20746865207a65726f206164647260008201527f6573730000000000000000000000000000000000000000000000000000000000602082015250565b6000611afe60238361118b565b9150611b0982611aa2565b604082019050919050565b60006020820190508181036000830152611b2d81611af1565b9050919050565b7f45524332303a207472616e7366657220616d6f756e742065786365656473206260008201527f616c616e63650000000000000000000000000000000000000000000000000000602082015250565b6000611b9060268361118b565b9150611b9b82611b34565b604082019050919050565b60006020820190508181036000830152611bbf81611b83565b9050919050565b7f45524332303a20696e73756666696369656e7420616c6c6f77616e6365000000600082015250565b6000611bfc601d8361118b565b9150611c0782611bc6565b602082019050919050565b60006020820190508181036000830152611c2b81611bef565b9050919050565b7f45524332303a206d696e7420746f20746865207a65726f206164647265737300600082015250565b6000611c68601f8361118b565b9150611c7382611c32565b602082019050919050565b60006020820190508181036000830152611c9781611c5b565b9050919050565b7f45524332303a206275726e2066726f6d20746865207a65726f2061646472657360008201527f7300000000000000000000000000000000000000000000000000000000000000602082015250565b6000611cfa60218361118b565b9150611d0582611c9e565b604082019050919050565b60006020820190508181036000830152611d2981611ced565b9050919050565b7f45524332303a206275726e20616d6f756e7420657863656564732062616c616e60008201527f6365000000000000000000000000000000000000000000000000000000000000602082015250565b6000611d8c60228361118b565b9150611d9782611d30565b604082019050919050565b60006020820190508181036000830152611dbb81611d7f565b9050919050565b600081905092915050565b6000611dd88261150e565b611de28185611dc2565b9350611df281856020860161119c565b80840191505092915050565b6000611e0a8284611dcd565b915081905092915050565b7f416464726573733a2063616c6c20746f206e6f6e2d636f6e7472616374000000600082015250565b6000611e4b601d8361118b565b9150611e5682611e15565b602082019050919050565b60006020820190508181036000830152611e7a81611e3e565b905091905056fe416464726573733a206c6f772d6c6576656c2064656c65676174652063616c6c206661696c6564a2646970667358221220996cb05c84decdafef17a7495a55c8b4363629756e265ec55085721d324fc31c64736f6c63430008090033",
  "linkReferences": {},
  "deployedLinkReferences": {}
}