{
  "_format": "hh-sol-artifact-1",
  "contractName": "AccessControlMock",
  "sourceName": "contracts/openzeppelin/mocks/AccessControlMock.sol",
  "abi": [
    {
      "inputs": [],
      "stateMutability": "nonpayable",
      "type": "constructor"
    },
    {
      "anonymous": false,
      "inputs": [
        {
          "indexed": true,
          "internalType": "bytes32",
          "name": "role",
          "type": "bytes32"
        },
        {
          "indexed": true,
          "internalType": "bytes32",
          "name": "previousAdminRole",
          "type": "bytes32"
        },
        {
          "indexed": true,
          "internalType": "bytes32",
          "name": "newAdminRole",
          "type": "bytes32"
        }
      ],
      "name": "RoleAdminChanged",
      "type": "event"
    },
    {
      "anonymous": false,
      "inputs": [
        {
          "indexed": true,
          "internalType": "bytes32",
          "name": "role",
          "type": "bytes32"
        },
        {
          "indexed": true,
          "internalType": "address",
          "name": "account",
          "type": "address"
        },
        {
          "indexed": true,
          "internalType": "address",
          "name": "sender",
          "type": "address"
        }
      ],
      "name": "RoleGranted",
      "type": "event"
    },
    {
      "anonymous": false,
      "inputs": [
        {
          "indexed": true,
          "internalType": "bytes32",
          "name": "role",
          "type": "bytes32"
        },
        {
          "indexed": true,
          "internalType": "address",
          "name": "account",
          "type": "address"
        },
        {
          "indexed": true,
          "internalType": "address",
          "name": "sender",
          "type": "address"
        }
      ],
      "name": "RoleRevoked",
      "type": "event"
    },
    {
      "inputs": [],
      "name": "DEFAULT_ADMIN_ROLE",
      "outputs": [
        {
          "internalType": "bytes32",
          "name": "",
          "type": "bytes32"
        }
      ],
      "stateMutability": "view",
      "type": "function"
    },
    {
      "inputs": [
        {
          "internalType": "bytes32",
          "name": "role",
          "type": "bytes32"
        }
      ],
      "name": "getRoleAdmin",
      "outputs": [
        {
          "internalType": "bytes32",
          "name": "",
          "type": "bytes32"
        }
      ],
      "stateMutability": "view",
      "type": "function"
    },
    {
      "inputs": [
        {
          "internalType": "bytes32",
          "name": "role",
          "type": "bytes32"
        },
        {
          "internalType": "address",
          "name": "account",
          "type": "address"
        }
      ],
      "name": "grantRole",
      "outputs": [],
      "stateMutability": "nonpayable",
      "type": "function"
    },
    {
      "inputs": [
        {
          "internalType": "bytes32",
          "name": "role",
          "type": "bytes32"
        },
        {
          "internalType": "address",
          "name": "account",
          "type": "address"
        }
      ],
      "name": "hasRole",
      "outputs": [
        {
          "internalType": "bool",
          "name": "",
          "type": "bool"
        }
      ],
      "stateMutability": "view",
      "type": "function"
    },
    {
      "inputs": [
        {
          "internalType": "bytes32",
          "name": "role",
          "type": "bytes32"
        },
        {
          "internalType": "address",
          "name": "account",
          "type": "address"
        }
      ],
      "name": "renounceRole",
      "outputs": [],
      "stateMutability": "nonpayable",
      "type": "function"
    },
    {
      "inputs": [
        {
          "internalType": "bytes32",
          "name": "role",
          "type": "bytes32"
        },
        {
          "internalType": "address",
          "name": "account",
          "type": "address"
        }
      ],
      "name": "revokeRole",
      "outputs": [],
      "stateMutability": "nonpayable",
      "type": "function"
    },
    {
      "inputs": [
        {
          "internalType": "bytes32",
          "name": "roleId",
          "type": "bytes32"
        }
      ],
      "name": "senderProtected",
      "outputs": [],
      "stateMutability": "nonpayable",
      "type": "function"
    },
    {
      "inputs": [
        {
          "internalType": "bytes32",
          "name": "roleId",
          "type": "bytes32"
        },
        {
          "internalType": "bytes32",
          "name": "adminRoleId",
          "type": "bytes32"
        }
      ],
      "name": "setRoleAdmin",
      "outputs": [],
      "stateMutability": "nonpayable",
      "type": "function"
    },
    {
      "inputs": [
        {
          "internalType": "bytes4",
          "name": "interfaceId",
          "type": "bytes4"
        }
      ],
      "name": "supportsInterface",
      "outputs": [
        {
          "internalType": "bool",
          "name": "",
          "type": "bool"
        }
      ],
      "stateMutability": "view",
      "type": "function"
    }
  ],
  "bytecode": "0x608060405234801561001057600080fd5b506100316000801b61002661003660201b60201c565b61003e60201b60201c565b6101a8565b600033905090565b61004e828261005260201b60201c565b5050565b610062828261013e60201b60201c565b61013a57600160008084815260200190815260200160002060000160008373ffffffffffffffffffffffffffffffffffffffff1673ffffffffffffffffffffffffffffffffffffffff16815260200190815260200160002060006101000a81548160ff0219169083151502179055506100df61003660201b60201c565b73ffffffffffffffffffffffffffffffffffffffff168173ffffffffffffffffffffffffffffffffffffffff16837f2f8788117e7eff1d82e926ec794901d17c78024a50270940304540a733656f0d60405160405180910390a45b5050565b600080600084815260200190815260200160002060000160008373ffffffffffffffffffffffffffffffffffffffff1673ffffffffffffffffffffffffffffffffffffffff16815260200190815260200160002060009054906101000a900460ff16905092915050565b610fe6806101b76000396000f3fe608060405234801561001057600080fd5b50600436106100935760003560e01c806336568abe1161006657806336568abe146101305780634b9304a41461014c57806391d1485414610168578063a217fddf14610198578063d547741f146101b657610093565b806301ffc9a7146100985780631e4e0091146100c8578063248a9ca3146100e45780632f2ff15d14610114575b600080fd5b6100b260048036038101906100ad91906109aa565b6101d2565b6040516100bf91906109f2565b60405180910390f35b6100e260048036038101906100dd9190610a43565b61024c565b005b6100fe60048036038101906100f99190610a83565b61025a565b60405161010b9190610abf565b60405180910390f35b61012e60048036038101906101299190610b38565b610279565b005b61014a60048036038101906101459190610b38565b61029a565b005b61016660048036038101906101619190610a83565b61031d565b005b610182600480360381019061017d9190610b38565b61032b565b60405161018f91906109f2565b60405180910390f35b6101a0610395565b6040516101ad9190610abf565b60405180910390f35b6101d060048036038101906101cb9190610b38565b61039c565b005b60007f7965db0b000000000000000000000000000000000000000000000000000000007bffffffffffffffffffffffffffffffffffffffffffffffffffffffff1916827bffffffffffffffffffffffffffffffffffffffffffffffffffffffff191614806102455750610244826103bd565b5b9050919050565b6102568282610427565b5050565b6000806000838152602001908152602001600020600101549050919050565b6102828261025a565b61028b81610482565b6102958383610496565b505050565b6102a2610576565b73ffffffffffffffffffffffffffffffffffffffff168173ffffffffffffffffffffffffffffffffffffffff161461030f576040517f08c379a000000000000000000000000000000000000000000000000000000000815260040161030690610bfb565b60405180910390fd5b610319828261057e565b5050565b8061032781610482565b5050565b600080600084815260200190815260200160002060000160008373ffffffffffffffffffffffffffffffffffffffff1673ffffffffffffffffffffffffffffffffffffffff16815260200190815260200160002060009054906101000a900460ff16905092915050565b6000801b81565b6103a58261025a565b6103ae81610482565b6103b8838361057e565b505050565b60007f01ffc9a7000000000000000000000000000000000000000000000000000000007bffffffffffffffffffffffffffffffffffffffffffffffffffffffff1916827bffffffffffffffffffffffffffffffffffffffffffffffffffffffff1916149050919050565b60006104328361025a565b905081600080858152602001908152602001600020600101819055508181847fbd79b86ffe0ab8e8776151514217cd7cacd52c909f66475c3af44e129f0b00ff60405160405180910390a4505050565b6104938161048e610576565b61065f565b50565b6104a0828261032b565b61057257600160008084815260200190815260200160002060000160008373ffffffffffffffffffffffffffffffffffffffff1673ffffffffffffffffffffffffffffffffffffffff16815260200190815260200160002060006101000a81548160ff021916908315150217905550610517610576565b73ffffffffffffffffffffffffffffffffffffffff168173ffffffffffffffffffffffffffffffffffffffff16837f2f8788117e7eff1d82e926ec794901d17c78024a50270940304540a733656f0d60405160405180910390a45b5050565b600033905090565b610588828261032b565b1561065b57600080600084815260200190815260200160002060000160008373ffffffffffffffffffffffffffffffffffffffff1673ffffffffffffffffffffffffffffffffffffffff16815260200190815260200160002060006101000a81548160ff021916908315150217905550610600610576565b73ffffffffffffffffffffffffffffffffffffffff168173ffffffffffffffffffffffffffffffffffffffff16837ff6391f5c32d9c69d2a47ea670b442974b53935d1edc7fd64eb21e047a839171b60405160405180910390a45b5050565b610669828261032b565b6106e057610676816106e4565b6106848360001c6020610711565b604051602001610695929190610d2d565b6040516020818303038152906040526040517f08c379a00000000000000000000000000000000000000000000000000000000081526004016106d79190610db1565b60405180910390fd5b5050565b606061070a8273ffffffffffffffffffffffffffffffffffffffff16601460ff16610711565b9050919050565b6060600060028360026107249190610e0c565b61072e9190610e66565b67ffffffffffffffff81111561074757610746610ebc565b5b6040519080825280601f01601f1916602001820160405280156107795781602001600182028036833780820191505090505b5090507f3000000000000000000000000000000000000000000000000000000000000000816000815181106107b1576107b0610eeb565b5b60200101907effffffffffffffffffffffffffffffffffffffffffffffffffffffffffffff1916908160001a9053507f78000000000000000000000000000000000000000000000000000000000000008160018151811061081557610814610eeb565b5b60200101907effffffffffffffffffffffffffffffffffffffffffffffffffffffffffffff1916908160001a905350600060018460026108559190610e0c565b61085f9190610e66565b90505b60018111156108ff577f3031323334353637383961626364656600000000000000000000000000000000600f8616601081106108a1576108a0610eeb565b5b1a60f81b8282815181106108b8576108b7610eeb565b5b60200101907effffffffffffffffffffffffffffffffffffffffffffffffffffffffffffff1916908160001a905350600485901c9450806108f890610f1a565b9050610862565b5060008414610943576040517f08c379a000000000000000000000000000000000000000000000000000000000815260040161093a90610f90565b60405180910390fd5b8091505092915050565b600080fd5b60007fffffffff0000000000000000000000000000000000000000000000000000000082169050919050565b61098781610952565b811461099257600080fd5b50565b6000813590506109a48161097e565b92915050565b6000602082840312156109c0576109bf61094d565b5b60006109ce84828501610995565b91505092915050565b60008115159050919050565b6109ec816109d7565b82525050565b6000602082019050610a0760008301846109e3565b92915050565b6000819050919050565b610a2081610a0d565b8114610a2b57600080fd5b50565b600081359050610a3d81610a17565b92915050565b60008060408385031215610a5a57610a5961094d565b5b6000610a6885828601610a2e565b9250506020610a7985828601610a2e565b9150509250929050565b600060208284031215610a9957610a9861094d565b5b6000610aa784828501610a2e565b91505092915050565b610ab981610a0d565b82525050565b6000602082019050610ad46000830184610ab0565b92915050565b600073ffffffffffffffffffffffffffffffffffffffff82169050919050565b6000610b0582610ada565b9050919050565b610b1581610afa565b8114610b2057600080fd5b50565b600081359050610b3281610b0c565b92915050565b60008060408385031215610b4f57610b4e61094d565b5b6000610b5d85828601610a2e565b9250506020610b6e85828601610b23565b9150509250929050565b600082825260208201905092915050565b7f416363657373436f6e74726f6c3a2063616e206f6e6c792072656e6f756e636560008201527f20726f6c657320666f722073656c660000000000000000000000000000000000602082015250565b6000610be5602f83610b78565b9150610bf082610b89565b604082019050919050565b60006020820190508181036000830152610c1481610bd8565b9050919050565b600081905092915050565b7f416363657373436f6e74726f6c3a206163636f756e7420000000000000000000600082015250565b6000610c5c601783610c1b565b9150610c6782610c26565b601782019050919050565b600081519050919050565b60005b83811015610c9b578082015181840152602081019050610c80565b83811115610caa576000848401525b50505050565b6000610cbb82610c72565b610cc58185610c1b565b9350610cd5818560208601610c7d565b80840191505092915050565b7f206973206d697373696e6720726f6c6520000000000000000000000000000000600082015250565b6000610d17601183610c1b565b9150610d2282610ce1565b601182019050919050565b6000610d3882610c4f565b9150610d448285610cb0565b9150610d4f82610d0a565b9150610d5b8284610cb0565b91508190509392505050565b6000601f19601f8301169050919050565b6000610d8382610c72565b610d8d8185610b78565b9350610d9d818560208601610c7d565b610da681610d67565b840191505092915050565b60006020820190508181036000830152610dcb8184610d78565b905092915050565b6000819050919050565b7f4e487b7100000000000000000000000000000000000000000000000000000000600052601160045260246000fd5b6000610e1782610dd3565b9150610e2283610dd3565b9250817fffffffffffffffffffffffffffffffffffffffffffffffffffffffffffffffff0483118215151615610e5b57610e5a610ddd565b5b828202905092915050565b6000610e7182610dd3565b9150610e7c83610dd3565b9250827fffffffffffffffffffffffffffffffffffffffffffffffffffffffffffffffff03821115610eb157610eb0610ddd565b5b828201905092915050565b7f4e487b7100000000000000000000000000000000000000000000000000000000600052604160045260246000fd5b7f4e487b7100000000000000000000000000000000000000000000000000000000600052603260045260246000fd5b6000610f2582610dd3565b91506000821415610f3957610f38610ddd565b5b600182039050919050565b7f537472696e67733a20686578206c656e67746820696e73756666696369656e74600082015250565b6000610f7a602083610b78565b9150610f8582610f44565b602082019050919050565b60006020820190508181036000830152610fa981610f6d565b905091905056fea2646970667358221220a2542b7ea1741ac251c0dd12d2501d636ba6ec13af3bbb552876e9c2ca82deb664736f6c63430008090033",
  "linkReferences": {},
  "deployedLinkReferences": {}
}