{
  "_format": "hh-sol-artifact-1",
  "contractName": "EIP712External",
  "sourceName": "contracts/openzeppelin/mocks/EIP712External.sol",
  "abi": [
    {
      "inputs": [
        {
          "internalType": "string",
          "name": "name",
          "type": "string"
        },
        {
          "internalType": "string",
          "name": "version",
          "type": "string"
        }
      ],
      "stateMutability": "nonpayable",
      "type": "constructor"
    },
    {
      "inputs": [],
      "name": "domainSeparator",
      "outputs": [
        {
          "internalType": "bytes32",
          "name": "",
          "type": "bytes32"
        }
      ],
      "stateMutability": "view",
      "type": "function"
    },
    {
      "inputs": [],
      "name": "getChainId",
      "outputs": [
        {
          "internalType": "uint256",
          "name": "",
          "type": "uint256"
        }
      ],
      "stateMutability": "view",
      "type": "function"
    },
    {
      "inputs": [
        {
          "internalType": "bytes",
          "name": "signature",
          "type": "bytes"
        },
        {
          "internalType": "address",
          "name": "signer",
          "type": "address"
        },
        {
          "internalType": "address",
          "name": "mailTo",
          "type": "address"
        },
        {
          "internalType": "string",
          "name": "mailContents",
          "type": "string"
        }
      ],
      "name": "verify",
      "outputs": [],
      "stateMutability": "view",
      "type": "function"
    }
  ],
  "bytecode": "0x6101406040523480156200001257600080fd5b506040516200112f3803806200112f8339818101604052810190620000389190620002cd565b818160008280519060200120905060008280519060200120905060007f8b73c3c69bb8fe3d512ecc4cf759cc79239f7b179b0ffacaa9a75d522b39400f90508260e081815250508161010081815250504660a08181525050620000a3818484620000f460201b60201c565b608081815250503073ffffffffffffffffffffffffffffffffffffffff1660c08173ffffffffffffffffffffffffffffffffffffffff1681525050806101208181525050505050505050506200042a565b6000838383463060405160200162000111959493929190620003cd565b6040516020818303038152906040528051906020012090509392505050565b6000604051905090565b600080fd5b600080fd5b600080fd5b600080fd5b6000601f19601f8301169050919050565b7f4e487b7100000000000000000000000000000000000000000000000000000000600052604160045260246000fd5b62000199826200014e565b810181811067ffffffffffffffff82111715620001bb57620001ba6200015f565b5b80604052505050565b6000620001d062000130565b9050620001de82826200018e565b919050565b600067ffffffffffffffff8211156200020157620002006200015f565b5b6200020c826200014e565b9050602081019050919050565b60005b83811015620002395780820151818401526020810190506200021c565b8381111562000249576000848401525b50505050565b6000620002666200026084620001e3565b620001c4565b90508281526020810184848401111562000285576200028462000149565b5b6200029284828562000219565b509392505050565b600082601f830112620002b257620002b162000144565b5b8151620002c48482602086016200024f565b91505092915050565b60008060408385031215620002e757620002e66200013a565b5b600083015167ffffffffffffffff8111156200030857620003076200013f565b5b62000316858286016200029a565b925050602083015167ffffffffffffffff8111156200033a57620003396200013f565b5b62000348858286016200029a565b9150509250929050565b6000819050919050565b620003678162000352565b82525050565b6000819050919050565b62000382816200036d565b82525050565b600073ffffffffffffffffffffffffffffffffffffffff82169050919050565b6000620003b58262000388565b9050919050565b620003c781620003a8565b82525050565b600060a082019050620003e460008301886200035c565b620003f360208301876200035c565b6200040260408301866200035c565b62000411606083018562000377565b620004206080830184620003bc565b9695505050505050565b60805160a05160c05160e0516101005161012051610cb56200047a60003960006102500152600061029201526000610271015260006101a6015260006101fc015260006102250152610cb56000f3fe608060405234801561001057600080fd5b50600436106100415760003560e01c806308c6e079146100465780633408e47014610062578063f698da2514610080575b600080fd5b610060600480360381019061005b9190610825565b61009e565b005b61006a61014a565b60405161007791906108dd565b60405180910390f35b610088610152565b6040516100959190610911565b60405180910390f35b60006100fa7f847fc9da8ec3c72cae85ca691245eaeb0a4a1e74f77c3a919c43afda231d39ba8484805190602001206040516020016100df9392919061093b565b60405160208183030381529060405280519060200120610161565b90506000610108828761017b565b90508473ffffffffffffffffffffffffffffffffffffffff168173ffffffffffffffffffffffffffffffffffffffff161461014257600080fd5b505050505050565b600046905090565b600061015c6101a2565b905090565b600061017461016e6101a2565b836102bc565b9050919050565b600080600061018a85856102ef565b9150915061019781610341565b819250505092915050565b60007f000000000000000000000000000000000000000000000000000000000000000073ffffffffffffffffffffffffffffffffffffffff163073ffffffffffffffffffffffffffffffffffffffff1614801561021e57507f000000000000000000000000000000000000000000000000000000000000000046145b1561024b577f000000000000000000000000000000000000000000000000000000000000000090506102b9565b6102b67f00000000000000000000000000000000000000000000000000000000000000007f00000000000000000000000000000000000000000000000000000000000000007f00000000000000000000000000000000000000000000000000000000000000006104af565b90505b90565b600082826040516020016102d19291906109ea565b60405160208183030381529060405280519060200120905092915050565b6000806041835114156103315760008060006020860151925060408601519150606086015160001a9050610325878285856104e9565b9450945050505061033a565b60006002915091505b9250929050565b6000600481111561035557610354610a21565b5b81600481111561036857610367610a21565b5b1415610373576104ac565b6001600481111561038757610386610a21565b5b81600481111561039a57610399610a21565b5b14156103db576040517f08c379a00000000000000000000000000000000000000000000000000000000081526004016103d290610aad565b60405180910390fd5b600260048111156103ef576103ee610a21565b5b81600481111561040257610401610a21565b5b1415610443576040517f08c379a000000000000000000000000000000000000000000000000000000000815260040161043a90610b19565b60405180910390fd5b6003600481111561045757610456610a21565b5b81600481111561046a57610469610a21565b5b14156104ab576040517f08c379a00000000000000000000000000000000000000000000000000000000081526004016104a290610bab565b60405180910390fd5b5b50565b600083838346306040516020016104ca959493929190610bcb565b6040516020818303038152906040528051906020012090509392505050565b6000807f7fffffffffffffffffffffffffffffff5d576e7357a4501ddfe92f46681b20a08360001c11156105245760006003915091506105c3565b6000600187878787604051600081526020016040526040516105499493929190610c3a565b6020604051602081039080840390855afa15801561056b573d6000803e3d6000fd5b505050602060405103519050600073ffffffffffffffffffffffffffffffffffffffff168173ffffffffffffffffffffffffffffffffffffffff1614156105ba576000600192509250506105c3565b80600092509250505b94509492505050565b6000604051905090565b600080fd5b600080fd5b600080fd5b600080fd5b6000601f19601f8301169050919050565b7f4e487b7100000000000000000000000000000000000000000000000000000000600052604160045260246000fd5b610633826105ea565b810181811067ffffffffffffffff82111715610652576106516105fb565b5b80604052505050565b60006106656105cc565b9050610671828261062a565b919050565b600067ffffffffffffffff821115610691576106906105fb565b5b61069a826105ea565b9050602081019050919050565b82818337600083830152505050565b60006106c96106c484610676565b61065b565b9050828152602081018484840111156106e5576106e46105e5565b5b6106f08482856106a7565b509392505050565b600082601f83011261070d5761070c6105e0565b5b813561071d8482602086016106b6565b91505092915050565b600073ffffffffffffffffffffffffffffffffffffffff82169050919050565b600061075182610726565b9050919050565b61076181610746565b811461076c57600080fd5b50565b60008135905061077e81610758565b92915050565b600067ffffffffffffffff82111561079f5761079e6105fb565b5b6107a8826105ea565b9050602081019050919050565b60006107c86107c384610784565b61065b565b9050828152602081018484840111156107e4576107e36105e5565b5b6107ef8482856106a7565b509392505050565b600082601f83011261080c5761080b6105e0565b5b813561081c8482602086016107b5565b91505092915050565b6000806000806080858703121561083f5761083e6105d6565b5b600085013567ffffffffffffffff81111561085d5761085c6105db565b5b610869878288016106f8565b945050602061087a8782880161076f565b935050604061088b8782880161076f565b925050606085013567ffffffffffffffff8111156108ac576108ab6105db565b5b6108b8878288016107f7565b91505092959194509250565b6000819050919050565b6108d7816108c4565b82525050565b60006020820190506108f260008301846108ce565b92915050565b6000819050919050565b61090b816108f8565b82525050565b60006020820190506109266000830184610902565b92915050565b61093581610746565b82525050565b60006060820190506109506000830186610902565b61095d602083018561092c565b61096a6040830184610902565b949350505050565b600081905092915050565b7f1901000000000000000000000000000000000000000000000000000000000000600082015250565b60006109b3600283610972565b91506109be8261097d565b600282019050919050565b6000819050919050565b6109e46109df826108f8565b6109c9565b82525050565b60006109f5826109a6565b9150610a0182856109d3565b602082019150610a1182846109d3565b6020820191508190509392505050565b7f4e487b7100000000000000000000000000000000000000000000000000000000600052602160045260246000fd5b600082825260208201905092915050565b7f45434453413a20696e76616c6964207369676e61747572650000000000000000600082015250565b6000610a97601883610a50565b9150610aa282610a61565b602082019050919050565b60006020820190508181036000830152610ac681610a8a565b9050919050565b7f45434453413a20696e76616c6964207369676e6174757265206c656e67746800600082015250565b6000610b03601f83610a50565b9150610b0e82610acd565b602082019050919050565b60006020820190508181036000830152610b3281610af6565b9050919050565b7f45434453413a20696e76616c6964207369676e6174757265202773272076616c60008201527f7565000000000000000000000000000000000000000000000000000000000000602082015250565b6000610b95602283610a50565b9150610ba082610b39565b604082019050919050565b60006020820190508181036000830152610bc481610b88565b9050919050565b600060a082019050610be06000830188610902565b610bed6020830187610902565b610bfa6040830186610902565b610c0760608301856108ce565b610c14608083018461092c565b9695505050505050565b600060ff82169050919050565b610c3481610c1e565b82525050565b6000608082019050610c4f6000830187610902565b610c5c6020830186610c2b565b610c696040830185610902565b610c766060830184610902565b9594505050505056fea264697066735822122015d3b7f41a35230c8ca6b2f52024ec1ac7c4787a6a757e87c3098bb0de9e109764736f6c63430008090033",
  "linkReferences": {},
  "deployedLinkReferences": {}
}