{
  "_format": "hh-sol-artifact-1",
  "contractName": "ERC721EnumerableMock",
  "sourceName": "contracts/openzeppelin/mocks/ERC721EnumerableMock.sol",
  "abi": [
    {
      "inputs": [
        {
          "internalType": "string",
          "name": "name",
          "type": "string"
        },
        {
          "internalType": "string",
          "name": "symbol",
          "type": "string"
        }
      ],
      "stateMutability": "nonpayable",
      "type": "constructor"
    },
    {
      "anonymous": false,
      "inputs": [
        {
          "indexed": true,
          "internalType": "address",
          "name": "owner",
          "type": "address"
        },
        {
          "indexed": true,
          "internalType": "address",
          "name": "approved",
          "type": "address"
        },
        {
          "indexed": true,
          "internalType": "uint256",
          "name": "tokenId",
          "type": "uint256"
        }
      ],
      "name": "Approval",
      "type": "event"
    },
    {
      "anonymous": false,
      "inputs": [
        {
          "indexed": true,
          "internalType": "address",
          "name": "owner",
          "type": "address"
        },
        {
          "indexed": true,
          "internalType": "address",
          "name": "operator",
          "type": "address"
        },
        {
          "indexed": false,
          "internalType": "bool",
          "name": "approved",
          "type": "bool"
        }
      ],
      "name": "ApprovalForAll",
      "type": "event"
    },
    {
      "anonymous": false,
      "inputs": [
        {
          "indexed": true,
          "internalType": "address",
          "name": "from",
          "type": "address"
        },
        {
          "indexed": true,
          "internalType": "address",
          "name": "to",
          "type": "address"
        },
        {
          "indexed": true,
          "internalType": "uint256",
          "name": "tokenId",
          "type": "uint256"
        }
      ],
      "name": "Transfer",
      "type": "event"
    },
    {
      "inputs": [
        {
          "internalType": "address",
          "name": "to",
          "type": "address"
        },
        {
          "internalType": "uint256",
          "name": "tokenId",
          "type": "uint256"
        }
      ],
      "name": "approve",
      "outputs": [],
      "stateMutability": "nonpayable",
      "type": "function"
    },
    {
      "inputs": [
        {
          "internalType": "address",
          "name": "owner",
          "type": "address"
        }
      ],
      "name": "balanceOf",
      "outputs": [
        {
          "internalType": "uint256",
          "name": "",
          "type": "uint256"
        }
      ],
      "stateMutability": "view",
      "type": "function"
    },
    {
      "inputs": [],
      "name": "baseURI",
      "outputs": [
        {
          "internalType": "string",
          "name": "",
          "type": "string"
        }
      ],
      "stateMutability": "view",
      "type": "function"
    },
    {
      "inputs": [
        {
          "internalType": "uint256",
          "name": "tokenId",
          "type": "uint256"
        }
      ],
      "name": "burn",
      "outputs": [],
      "stateMutability": "nonpayable",
      "type": "function"
    },
    {
      "inputs": [
        {
          "internalType": "uint256",
          "name": "tokenId",
          "type": "uint256"
        }
      ],
      "name": "exists",
      "outputs": [
        {
          "internalType": "bool",
          "name": "",
          "type": "bool"
        }
      ],
      "stateMutability": "view",
      "type": "function"
    },
    {
      "inputs": [
        {
          "internalType": "uint256",
          "name": "tokenId",
          "type": "uint256"
        }
      ],
      "name": "getApproved",
      "outputs": [
        {
          "internalType": "address",
          "name": "",
          "type": "address"
        }
      ],
      "stateMutability": "view",
      "type": "function"
    },
    {
      "inputs": [
        {
          "internalType": "address",
          "name": "owner",
          "type": "address"
        },
        {
          "internalType": "address",
          "name": "operator",
          "type": "address"
        }
      ],
      "name": "isApprovedForAll",
      "outputs": [
        {
          "internalType": "bool",
          "name": "",
          "type": "bool"
        }
      ],
      "stateMutability": "view",
      "type": "function"
    },
    {
      "inputs": [
        {
          "internalType": "address",
          "name": "to",
          "type": "address"
        },
        {
          "internalType": "uint256",
          "name": "tokenId",
          "type": "uint256"
        }
      ],
      "name": "mint",
      "outputs": [],
      "stateMutability": "nonpayable",
      "type": "function"
    },
    {
      "inputs": [],
      "name": "name",
      "outputs": [
        {
          "internalType": "string",
          "name": "",
          "type": "string"
        }
      ],
      "stateMutability": "view",
      "type": "function"
    },
    {
      "inputs": [
        {
          "internalType": "uint256",
          "name": "tokenId",
          "type": "uint256"
        }
      ],
      "name": "ownerOf",
      "outputs": [
        {
          "internalType": "address",
          "name": "",
          "type": "address"
        }
      ],
      "stateMutability": "view",
      "type": "function"
    },
    {
      "inputs": [
        {
          "internalType": "address",
          "name": "to",
          "type": "address"
        },
        {
          "internalType": "uint256",
          "name": "tokenId",
          "type": "uint256"
        },
        {
          "internalType": "bytes",
          "name": "_data",
          "type": "bytes"
        }
      ],
      "name": "safeMint",
      "outputs": [],
      "stateMutability": "nonpayable",
      "type": "function"
    },
    {
      "inputs": [
        {
          "internalType": "address",
          "name": "to",
          "type": "address"
        },
        {
          "internalType": "uint256",
          "name": "tokenId",
          "type": "uint256"
        }
      ],
      "name": "safeMint",
      "outputs": [],
      "stateMutability": "nonpayable",
      "type": "function"
    },
    {
      "inputs": [
        {
          "internalType": "address",
          "name": "from",
          "type": "address"
        },
        {
          "internalType": "address",
          "name": "to",
          "type": "address"
        },
        {
          "internalType": "uint256",
          "name": "tokenId",
          "type": "uint256"
        }
      ],
      "name": "safeTransferFrom",
      "outputs": [],
      "stateMutability": "nonpayable",
      "type": "function"
    },
    {
      "inputs": [
        {
          "internalType": "address",
          "name": "from",
          "type": "address"
        },
        {
          "internalType": "address",
          "name": "to",
          "type": "address"
        },
        {
          "internalType": "uint256",
          "name": "tokenId",
          "type": "uint256"
        },
        {
          "internalType": "bytes",
          "name": "data",
          "type": "bytes"
        }
      ],
      "name": "safeTransferFrom",
      "outputs": [],
      "stateMutability": "nonpayable",
      "type": "function"
    },
    {
      "inputs": [
        {
          "internalType": "address",
          "name": "operator",
          "type": "address"
        },
        {
          "internalType": "bool",
          "name": "approved",
          "type": "bool"
        }
      ],
      "name": "setApprovalForAll",
      "outputs": [],
      "stateMutability": "nonpayable",
      "type": "function"
    },
    {
      "inputs": [
        {
          "internalType": "string",
          "name": "newBaseTokenURI",
          "type": "string"
        }
      ],
      "name": "setBaseURI",
      "outputs": [],
      "stateMutability": "nonpayable",
      "type": "function"
    },
    {
      "inputs": [
        {
          "internalType": "bytes4",
          "name": "interfaceId",
          "type": "bytes4"
        }
      ],
      "name": "supportsInterface",
      "outputs": [
        {
          "internalType": "bool",
          "name": "",
          "type": "bool"
        }
      ],
      "stateMutability": "view",
      "type": "function"
    },
    {
      "inputs": [],
      "name": "symbol",
      "outputs": [
        {
          "internalType": "string",
          "name": "",
          "type": "string"
        }
      ],
      "stateMutability": "view",
      "type": "function"
    },
    {
      "inputs": [
        {
          "internalType": "uint256",
          "name": "index",
          "type": "uint256"
        }
      ],
      "name": "tokenByIndex",
      "outputs": [
        {
          "internalType": "uint256",
          "name": "",
          "type": "uint256"
        }
      ],
      "stateMutability": "view",
      "type": "function"
    },
    {
      "inputs": [
        {
          "internalType": "address",
          "name": "owner",
          "type": "address"
        },
        {
          "internalType": "uint256",
          "name": "index",
          "type": "uint256"
        }
      ],
      "name": "tokenOfOwnerByIndex",
      "outputs": [
        {
          "internalType": "uint256",
          "name": "",
          "type": "uint256"
        }
      ],
      "stateMutability": "view",
      "type": "function"
    },
    {
      "inputs": [
        {
          "internalType": "uint256",
          "name": "tokenId",
          "type": "uint256"
        }
      ],
      "name": "tokenURI",
      "outputs": [
        {
          "internalType": "string",
          "name": "",
          "type": "string"
        }
      ],
      "stateMutability": "view",
      "type": "function"
    },
    {
      "inputs": [],
      "name": "totalSupply",
      "outputs": [
        {
          "internalType": "uint256",
          "name": "",
          "type": "uint256"
        }
      ],
      "stateMutability": "view",
      "type": "function"
    },
    {
      "inputs": [
        {
          "internalType": "address",
          "name": "from",
          "type": "address"
        },
        {
          "internalType": "address",
          "name": "to",
          "type": "address"
        },
        {
          "internalType": "uint256",
          "name": "tokenId",
          "type": "uint256"
        }
      ],
      "name": "transferFrom",
      "outputs": [],
      "stateMutability": "nonpayable",
      "type": "function"
    }
  ],
  "bytecode": "0x60806040523480156200001157600080fd5b5060405162003831380380620038318339818101604052810190620000379190620002c2565b818181600090805190602001906200005192919062000075565b5080600190805190602001906200006a92919062000075565b5050505050620003ac565b828054620000839062000376565b90600052602060002090601f016020900481019282620000a75760008555620000f3565b82601f10620000c257805160ff1916838001178555620000f3565b82800160010185558215620000f3579182015b82811115620000f2578251825591602001919060010190620000d5565b5b50905062000102919062000106565b5090565b5b808211156200012157600081600090555060010162000107565b5090565b6000604051905090565b600080fd5b600080fd5b600080fd5b600080fd5b6000601f19601f8301169050919050565b7f4e487b7100000000000000000000000000000000000000000000000000000000600052604160045260246000fd5b6200018e8262000143565b810181811067ffffffffffffffff82111715620001b057620001af62000154565b5b80604052505050565b6000620001c562000125565b9050620001d3828262000183565b919050565b600067ffffffffffffffff821115620001f657620001f562000154565b5b620002018262000143565b9050602081019050919050565b60005b838110156200022e57808201518184015260208101905062000211565b838111156200023e576000848401525b50505050565b60006200025b6200025584620001d8565b620001b9565b9050828152602081018484840111156200027a57620002796200013e565b5b620002878482856200020e565b509392505050565b600082601f830112620002a757620002a662000139565b5b8151620002b984826020860162000244565b91505092915050565b60008060408385031215620002dc57620002db6200012f565b5b600083015167ffffffffffffffff811115620002fd57620002fc62000134565b5b6200030b858286016200028f565b925050602083015167ffffffffffffffff8111156200032f576200032e62000134565b5b6200033d858286016200028f565b9150509250929050565b7f4e487b7100000000000000000000000000000000000000000000000000000000600052602260045260246000fd5b600060028204905060018216806200038f57607f821691505b60208210811415620003a657620003a562000347565b5b50919050565b61347580620003bc6000396000f3fe608060405234801561001057600080fd5b506004361061014d5760003560e01c80634f6ccce7116100c357806395d89b411161007c57806395d89b41146103c0578063a1448194146103de578063a22cb465146103fa578063b88d4fde14610416578063c87b56dd14610432578063e985e9c5146104625761014d565b80634f6ccce7146102da57806355f804b31461030a5780636352211e146103265780636c0360eb1461035657806370a08231146103745780638832e6e3146103a45761014d565b806323b872dd1161011557806323b872dd1461020a5780632f745c591461022657806340c10f191461025657806342842e0e1461027257806342966c681461028e5780634f558e79146102aa5761014d565b806301ffc9a71461015257806306fdde0314610182578063081812fc146101a0578063095ea7b3146101d057806318160ddd146101ec575b600080fd5b61016c6004803603810190610167919061237e565b610492565b60405161017991906123c6565b60405180910390f35b61018a61050c565b604051610197919061247a565b60405180910390f35b6101ba60048036038101906101b591906124d2565b61059e565b6040516101c79190612540565b60405180910390f35b6101ea60048036038101906101e59190612587565b6105e4565b005b6101f46106fc565b60405161020191906125d6565b60405180910390f35b610224600480360381019061021f91906125f1565b610709565b005b610240600480360381019061023b9190612587565b610769565b60405161024d91906125d6565b60405180910390f35b610270600480360381019061026b9190612587565b61080e565b005b61028c600480360381019061028791906125f1565b61081c565b005b6102a860048036038101906102a391906124d2565b61083c565b005b6102c460048036038101906102bf91906124d2565b610848565b6040516102d191906123c6565b60405180910390f35b6102f460048036038101906102ef91906124d2565b61085a565b60405161030191906125d6565b60405180910390f35b610324600480360381019061031f91906126a9565b6108cb565b005b610340600480360381019061033b91906124d2565b6108e1565b60405161034d9190612540565b60405180910390f35b61035e610968565b60405161036b919061247a565b60405180910390f35b61038e600480360381019061038991906126f6565b610977565b60405161039b91906125d6565b60405180910390f35b6103be60048036038101906103b99190612853565b610a2f565b005b6103c8610a3f565b6040516103d5919061247a565b60405180910390f35b6103f860048036038101906103f39190612587565b610ad1565b005b610414600480360381019061040f91906128ee565b610adf565b005b610430600480360381019061042b919061292e565b610af5565b005b61044c600480360381019061044791906124d2565b610b57565b604051610459919061247a565b60405180910390f35b61047c600480360381019061047791906129b1565b610bbf565b60405161048991906123c6565b60405180910390f35b60007f780e9d63000000000000000000000000000000000000000000000000000000007bffffffffffffffffffffffffffffffffffffffffffffffffffffffff1916827bffffffffffffffffffffffffffffffffffffffffffffffffffffffff19161480610505575061050482610c53565b5b9050919050565b60606000805461051b90612a20565b80601f016020809104026020016040519081016040528092919081815260200182805461054790612a20565b80156105945780601f1061056957610100808354040283529160200191610594565b820191906000526020600020905b81548152906001019060200180831161057757829003601f168201915b5050505050905090565b60006105a982610d35565b6004600083815260200190815260200160002060009054906101000a900473ffffffffffffffffffffffffffffffffffffffff169050919050565b60006105ef826108e1565b90508073ffffffffffffffffffffffffffffffffffffffff168373ffffffffffffffffffffffffffffffffffffffff161415610660576040517f08c379a000000000000000000000000000000000000000000000000000000000815260040161065790612ac4565b60405180910390fd5b8073ffffffffffffffffffffffffffffffffffffffff1661067f610d80565b73ffffffffffffffffffffffffffffffffffffffff1614806106ae57506106ad816106a8610d80565b610bbf565b5b6106ed576040517f08c379a00000000000000000000000000000000000000000000000000000000081526004016106e490612b56565b60405180910390fd5b6106f78383610d88565b505050565b6000600880549050905090565b61071a610714610d80565b82610e41565b610759576040517f08c379a000000000000000000000000000000000000000000000000000000000815260040161075090612be8565b60405180910390fd5b610764838383610ed6565b505050565b600061077483610977565b82106107b5576040517f08c379a00000000000000000000000000000000000000000000000000000000081526004016107ac90612c7a565b60405180910390fd5b600660008473ffffffffffffffffffffffffffffffffffffffff1673ffffffffffffffffffffffffffffffffffffffff168152602001908152602001600020600083815260200190815260200160002054905092915050565b61081882826111d0565b5050565b61083783838360405180602001604052806000815250610af5565b505050565b610845816113ee565b50565b60006108538261153c565b9050919050565b60006108646106fc565b82106108a5576040517f08c379a000000000000000000000000000000000000000000000000000000000815260040161089c90612d0c565b60405180910390fd5b600882815481106108b9576108b8612d2c565b5b90600052602060002001549050919050565b8181600a91906108dc92919061226f565b505050565b6000806108ed8361157d565b9050600073ffffffffffffffffffffffffffffffffffffffff168173ffffffffffffffffffffffffffffffffffffffff16141561095f576040517f08c379a000000000000000000000000000000000000000000000000000000000815260040161095690612da7565b60405180910390fd5b80915050919050565b60606109726115ba565b905090565b60008073ffffffffffffffffffffffffffffffffffffffff168273ffffffffffffffffffffffffffffffffffffffff1614156109e8576040517f08c379a00000000000000000000000000000000000000000000000000000000081526004016109df90612e39565b60405180910390fd5b600360008373ffffffffffffffffffffffffffffffffffffffff1673ffffffffffffffffffffffffffffffffffffffff168152602001908152602001600020549050919050565b610a3a83838361164c565b505050565b606060018054610a4e90612a20565b80601f0160208091040260200160405190810160405280929190818152602001828054610a7a90612a20565b8015610ac75780601f10610a9c57610100808354040283529160200191610ac7565b820191906000526020600020905b815481529060010190602001808311610aaa57829003601f168201915b5050505050905090565b610adb82826116a7565b5050565b610af1610aea610d80565b83836116c5565b5050565b610b06610b00610d80565b83610e41565b610b45576040517f08c379a0000000000000000000000000000000000000000000000000000000008152600401610b3c90612be8565b60405180910390fd5b610b5184848484611832565b50505050565b6060610b6282610d35565b6000610b6c6115ba565b90506000815111610b8c5760405180602001604052806000815250610bb7565b80610b968461188e565b604051602001610ba7929190612e95565b6040516020818303038152906040525b915050919050565b6000600560008473ffffffffffffffffffffffffffffffffffffffff1673ffffffffffffffffffffffffffffffffffffffff16815260200190815260200160002060008373ffffffffffffffffffffffffffffffffffffffff1673ffffffffffffffffffffffffffffffffffffffff16815260200190815260200160002060009054906101000a900460ff16905092915050565b60007f80ac58cd000000000000000000000000000000000000000000000000000000007bffffffffffffffffffffffffffffffffffffffffffffffffffffffff1916827bffffffffffffffffffffffffffffffffffffffffffffffffffffffff19161480610d1e57507f5b5e139f000000000000000000000000000000000000000000000000000000007bffffffffffffffffffffffffffffffffffffffffffffffffffffffff1916827bffffffffffffffffffffffffffffffffffffffffffffffffffffffff1916145b80610d2e5750610d2d82611966565b5b9050919050565b610d3e8161153c565b610d7d576040517f08c379a0000000000000000000000000000000000000000000000000000000008152600401610d7490612da7565b60405180910390fd5b50565b600033905090565b816004600083815260200190815260200160002060006101000a81548173ffffffffffffffffffffffffffffffffffffffff021916908373ffffffffffffffffffffffffffffffffffffffff160217905550808273ffffffffffffffffffffffffffffffffffffffff16610dfb836108e1565b73ffffffffffffffffffffffffffffffffffffffff167f8c5be1e5ebec7d5bd14f71427d1e84f3dd0314c0f7b2291e5b200ac8c7c3b92560405160405180910390a45050565b600080610e4d836108e1565b90508073ffffffffffffffffffffffffffffffffffffffff168473ffffffffffffffffffffffffffffffffffffffff161480610e8f5750610e8e8185610bbf565b5b80610ecd57508373ffffffffffffffffffffffffffffffffffffffff16610eb58461059e565b73ffffffffffffffffffffffffffffffffffffffff16145b91505092915050565b8273ffffffffffffffffffffffffffffffffffffffff16610ef6826108e1565b73ffffffffffffffffffffffffffffffffffffffff1614610f4c576040517f08c379a0000000000000000000000000000000000000000000000000000000008152600401610f4390612f2b565b60405180910390fd5b600073ffffffffffffffffffffffffffffffffffffffff168273ffffffffffffffffffffffffffffffffffffffff161415610fbc576040517f08c379a0000000000000000000000000000000000000000000000000000000008152600401610fb390612fbd565b60405180910390fd5b610fc983838360016119d0565b8273ffffffffffffffffffffffffffffffffffffffff16610fe9826108e1565b73ffffffffffffffffffffffffffffffffffffffff161461103f576040517f08c379a000000000000000000000000000000000000000000000000000000000815260040161103690612f2b565b60405180910390fd5b6004600082815260200190815260200160002060006101000a81549073ffffffffffffffffffffffffffffffffffffffff02191690556001600360008573ffffffffffffffffffffffffffffffffffffffff1673ffffffffffffffffffffffffffffffffffffffff168152602001908152602001600020600082825403925050819055506001600360008473ffffffffffffffffffffffffffffffffffffffff1673ffffffffffffffffffffffffffffffffffffffff16815260200190815260200160002060008282540192505081905550816002600083815260200190815260200160002060006101000a81548173ffffffffffffffffffffffffffffffffffffffff021916908373ffffffffffffffffffffffffffffffffffffffff160217905550808273ffffffffffffffffffffffffffffffffffffffff168473ffffffffffffffffffffffffffffffffffffffff167fddf252ad1be2c89b69c2b068fc378daa952ba7f163c4a11628f55a4df523b3ef60405160405180910390a46111cb8383836001611b30565b505050565b600073ffffffffffffffffffffffffffffffffffffffff168273ffffffffffffffffffffffffffffffffffffffff161415611240576040517f08c379a000000000000000000000000000000000000000000000000000000000815260040161123790613029565b60405180910390fd5b6112498161153c565b15611289576040517f08c379a000000000000000000000000000000000000000000000000000000000815260040161128090613095565b60405180910390fd5b6112976000838360016119d0565b6112a08161153c565b156112e0576040517f08c379a00000000000000000000000000000000000000000000000000000000081526004016112d790613095565b60405180910390fd5b6001600360008473ffffffffffffffffffffffffffffffffffffffff1673ffffffffffffffffffffffffffffffffffffffff16815260200190815260200160002060008282540192505081905550816002600083815260200190815260200160002060006101000a81548173ffffffffffffffffffffffffffffffffffffffff021916908373ffffffffffffffffffffffffffffffffffffffff160217905550808273ffffffffffffffffffffffffffffffffffffffff16600073ffffffffffffffffffffffffffffffffffffffff167fddf252ad1be2c89b69c2b068fc378daa952ba7f163c4a11628f55a4df523b3ef60405160405180910390a46113ea600083836001611b30565b5050565b60006113f9826108e1565b90506114098160008460016119d0565b611412826108e1565b90506004600083815260200190815260200160002060006101000a81549073ffffffffffffffffffffffffffffffffffffffff02191690556001600360008373ffffffffffffffffffffffffffffffffffffffff1673ffffffffffffffffffffffffffffffffffffffff168152602001908152602001600020600082825403925050819055506002600083815260200190815260200160002060006101000a81549073ffffffffffffffffffffffffffffffffffffffff021916905581600073ffffffffffffffffffffffffffffffffffffffff168273ffffffffffffffffffffffffffffffffffffffff167fddf252ad1be2c89b69c2b068fc378daa952ba7f163c4a11628f55a4df523b3ef60405160405180910390a4611538816000846001611b30565b5050565b60008073ffffffffffffffffffffffffffffffffffffffff1661155e8361157d565b73ffffffffffffffffffffffffffffffffffffffff1614159050919050565b60006002600083815260200190815260200160002060009054906101000a900473ffffffffffffffffffffffffffffffffffffffff169050919050565b6060600a80546115c990612a20565b80601f01602080910402602001604051908101604052809291908181526020018280546115f590612a20565b80156116425780601f1061161757610100808354040283529160200191611642565b820191906000526020600020905b81548152906001019060200180831161162557829003601f168201915b5050505050905090565b61165683836111d0565b6116636000848484611b36565b6116a2576040517f08c379a000000000000000000000000000000000000000000000000000000000815260040161169990613127565b60405180910390fd5b505050565b6116c182826040518060200160405280600081525061164c565b5050565b8173ffffffffffffffffffffffffffffffffffffffff168373ffffffffffffffffffffffffffffffffffffffff161415611734576040517f08c379a000000000000000000000000000000000000000000000000000000000815260040161172b90613193565b60405180910390fd5b80600560008573ffffffffffffffffffffffffffffffffffffffff1673ffffffffffffffffffffffffffffffffffffffff16815260200190815260200160002060008473ffffffffffffffffffffffffffffffffffffffff1673ffffffffffffffffffffffffffffffffffffffff16815260200190815260200160002060006101000a81548160ff0219169083151502179055508173ffffffffffffffffffffffffffffffffffffffff168373ffffffffffffffffffffffffffffffffffffffff167f17307eab39ab6107e8899845ad3d59bd9653f200f220920489ca2b5937696c318360405161182591906123c6565b60405180910390a3505050565b61183d848484610ed6565b61184984848484611b36565b611888576040517f08c379a000000000000000000000000000000000000000000000000000000000815260040161187f90613127565b60405180910390fd5b50505050565b60606000600161189d84611ccd565b01905060008167ffffffffffffffff8111156118bc576118bb612728565b5b6040519080825280601f01601f1916602001820160405280156118ee5781602001600182028036833780820191505090505b509050600082602001820190505b60011561195b578080600190039150507f3031323334353637383961626364656600000000000000000000000000000000600a86061a8153600a8581611945576119446131b3565b5b04945060008514156119565761195b565b6118fc565b819350505050919050565b60007f01ffc9a7000000000000000000000000000000000000000000000000000000007bffffffffffffffffffffffffffffffffffffffffffffffffffffffff1916827bffffffffffffffffffffffffffffffffffffffffffffffffffffffff1916149050919050565b6119dc84848484611e20565b6001811115611a20576040517f08c379a0000000000000000000000000000000000000000000000000000000008152600401611a1790613254565b60405180910390fd5b6000829050600073ffffffffffffffffffffffffffffffffffffffff168573ffffffffffffffffffffffffffffffffffffffff161415611a6857611a6381611f46565b611aa7565b8373ffffffffffffffffffffffffffffffffffffffff168573ffffffffffffffffffffffffffffffffffffffff1614611aa657611aa58582611f8f565b5b5b600073ffffffffffffffffffffffffffffffffffffffff168473ffffffffffffffffffffffffffffffffffffffff161415611aea57611ae5816120fc565b611b29565b8473ffffffffffffffffffffffffffffffffffffffff168473ffffffffffffffffffffffffffffffffffffffff1614611b2857611b2784826121cd565b5b5b5050505050565b50505050565b6000611b578473ffffffffffffffffffffffffffffffffffffffff1661224c565b15611cc0578373ffffffffffffffffffffffffffffffffffffffff1663150b7a02611b80610d80565b8786866040518563ffffffff1660e01b8152600401611ba294939291906132c9565b602060405180830381600087803b158015611bbc57600080fd5b505af1925050508015611bed57506040513d601f19601f82011682018060405250810190611bea919061332a565b60015b611c70573d8060008114611c1d576040519150601f19603f3d011682016040523d82523d6000602084013e611c22565b606091505b50600081511415611c68576040517f08c379a0000000000000000000000000000000000000000000000000000000008152600401611c5f90613127565b60405180910390fd5b805181602001fd5b63150b7a0260e01b7bffffffffffffffffffffffffffffffffffffffffffffffffffffffff1916817bffffffffffffffffffffffffffffffffffffffffffffffffffffffff191614915050611cc5565b600190505b949350505050565b600080600090507a184f03e93ff9f4daa797ed6e38ed64bf6a1f0100000000000000008310611d2b577a184f03e93ff9f4daa797ed6e38ed64bf6a1f0100000000000000008381611d2157611d206131b3565b5b0492506040810190505b6d04ee2d6d415b85acef81000000008310611d68576d04ee2d6d415b85acef81000000008381611d5e57611d5d6131b3565b5b0492506020810190505b662386f26fc100008310611d9757662386f26fc100008381611d8d57611d8c6131b3565b5b0492506010810190505b6305f5e1008310611dc0576305f5e1008381611db657611db56131b3565b5b0492506008810190505b6127108310611de5576127108381611ddb57611dda6131b3565b5b0492506004810190505b60648310611e085760648381611dfe57611dfd6131b3565b5b0492506002810190505b600a8310611e17576001810190505b80915050919050565b6001811115611f4057600073ffffffffffffffffffffffffffffffffffffffff168473ffffffffffffffffffffffffffffffffffffffff1614611eb45780600360008673ffffffffffffffffffffffffffffffffffffffff1673ffffffffffffffffffffffffffffffffffffffff1681526020019081526020016000206000828254611eac9190613386565b925050819055505b600073ffffffffffffffffffffffffffffffffffffffff168373ffffffffffffffffffffffffffffffffffffffff1614611f3f5780600360008573ffffffffffffffffffffffffffffffffffffffff1673ffffffffffffffffffffffffffffffffffffffff1681526020019081526020016000206000828254611f3791906133ba565b925050819055505b5b50505050565b6008805490506009600083815260200190815260200160002081905550600881908060018154018082558091505060019003906000526020600020016000909190919091505550565b60006001611f9c84610977565b611fa69190613386565b905060006007600084815260200190815260200160002054905081811461208b576000600660008673ffffffffffffffffffffffffffffffffffffffff1673ffffffffffffffffffffffffffffffffffffffff168152602001908152602001600020600084815260200190815260200160002054905080600660008773ffffffffffffffffffffffffffffffffffffffff1673ffffffffffffffffffffffffffffffffffffffff168152602001908152602001600020600084815260200190815260200160002081905550816007600083815260200190815260200160002081905550505b6007600084815260200190815260200160002060009055600660008573ffffffffffffffffffffffffffffffffffffffff1673ffffffffffffffffffffffffffffffffffffffff16815260200190815260200160002060008381526020019081526020016000206000905550505050565b600060016008805490506121109190613386565b90506000600960008481526020019081526020016000205490506000600883815481106121405761213f612d2c565b5b90600052602060002001549050806008838154811061216257612161612d2c565b5b9060005260206000200181905550816009600083815260200190815260200160002081905550600960008581526020019081526020016000206000905560088054806121b1576121b0613410565b5b6001900381819060005260206000200160009055905550505050565b60006121d883610977565b905081600660008573ffffffffffffffffffffffffffffffffffffffff1673ffffffffffffffffffffffffffffffffffffffff168152602001908152602001600020600083815260200190815260200160002081905550806007600084815260200190815260200160002081905550505050565b6000808273ffffffffffffffffffffffffffffffffffffffff163b119050919050565b82805461227b90612a20565b90600052602060002090601f01602090048101928261229d57600085556122e4565b82601f106122b657803560ff19168380011785556122e4565b828001600101855582156122e4579182015b828111156122e35782358255916020019190600101906122c8565b5b5090506122f191906122f5565b5090565b5b8082111561230e5760008160009055506001016122f6565b5090565b6000604051905090565b600080fd5b600080fd5b60007fffffffff0000000000000000000000000000000000000000000000000000000082169050919050565b61235b81612326565b811461236657600080fd5b50565b60008135905061237881612352565b92915050565b6000602082840312156123945761239361231c565b5b60006123a284828501612369565b91505092915050565b60008115159050919050565b6123c0816123ab565b82525050565b60006020820190506123db60008301846123b7565b92915050565b600081519050919050565b600082825260208201905092915050565b60005b8381101561241b578082015181840152602081019050612400565b8381111561242a576000848401525b50505050565b6000601f19601f8301169050919050565b600061244c826123e1565b61245681856123ec565b93506124668185602086016123fd565b61246f81612430565b840191505092915050565b600060208201905081810360008301526124948184612441565b905092915050565b6000819050919050565b6124af8161249c565b81146124ba57600080fd5b50565b6000813590506124cc816124a6565b92915050565b6000602082840312156124e8576124e761231c565b5b60006124f6848285016124bd565b91505092915050565b600073ffffffffffffffffffffffffffffffffffffffff82169050919050565b600061252a826124ff565b9050919050565b61253a8161251f565b82525050565b60006020820190506125556000830184612531565b92915050565b6125648161251f565b811461256f57600080fd5b50565b6000813590506125818161255b565b92915050565b6000806040838503121561259e5761259d61231c565b5b60006125ac85828601612572565b92505060206125bd858286016124bd565b9150509250929050565b6125d08161249c565b82525050565b60006020820190506125eb60008301846125c7565b92915050565b60008060006060848603121561260a5761260961231c565b5b600061261886828701612572565b935050602061262986828701612572565b925050604061263a868287016124bd565b9150509250925092565b600080fd5b600080fd5b600080fd5b60008083601f84011261266957612668612644565b5b8235905067ffffffffffffffff81111561268657612685612649565b5b6020830191508360018202830111156126a2576126a161264e565b5b9250929050565b600080602083850312156126c0576126bf61231c565b5b600083013567ffffffffffffffff8111156126de576126dd612321565b5b6126ea85828601612653565b92509250509250929050565b60006020828403121561270c5761270b61231c565b5b600061271a84828501612572565b91505092915050565b600080fd5b7f4e487b7100000000000000000000000000000000000000000000000000000000600052604160045260246000fd5b61276082612430565b810181811067ffffffffffffffff8211171561277f5761277e612728565b5b80604052505050565b6000612792612312565b905061279e8282612757565b919050565b600067ffffffffffffffff8211156127be576127bd612728565b5b6127c782612430565b9050602081019050919050565b82818337600083830152505050565b60006127f66127f1846127a3565b612788565b90508281526020810184848401111561281257612811612723565b5b61281d8482856127d4565b509392505050565b600082601f83011261283a57612839612644565b5b813561284a8482602086016127e3565b91505092915050565b60008060006060848603121561286c5761286b61231c565b5b600061287a86828701612572565b935050602061288b868287016124bd565b925050604084013567ffffffffffffffff8111156128ac576128ab612321565b5b6128b886828701612825565b9150509250925092565b6128cb816123ab565b81146128d657600080fd5b50565b6000813590506128e8816128c2565b92915050565b600080604083850312156129055761290461231c565b5b600061291385828601612572565b9250506020612924858286016128d9565b9150509250929050565b600080600080608085870312156129485761294761231c565b5b600061295687828801612572565b945050602061296787828801612572565b9350506040612978878288016124bd565b925050606085013567ffffffffffffffff81111561299957612998612321565b5b6129a587828801612825565b91505092959194509250565b600080604083850312156129c8576129c761231c565b5b60006129d685828601612572565b92505060206129e785828601612572565b9150509250929050565b7f4e487b7100000000000000000000000000000000000000000000000000000000600052602260045260246000fd5b60006002820490506001821680612a3857607f821691505b60208210811415612a4c57612a4b6129f1565b5b50919050565b7f4552433732313a20617070726f76616c20746f2063757272656e74206f776e6560008201527f7200000000000000000000000000000000000000000000000000000000000000602082015250565b6000612aae6021836123ec565b9150612ab982612a52565b604082019050919050565b60006020820190508181036000830152612add81612aa1565b9050919050565b7f4552433732313a20617070726f76652063616c6c6572206973206e6f7420746f60008201527f6b656e206f776e6572206f7220617070726f76656420666f7220616c6c000000602082015250565b6000612b40603d836123ec565b9150612b4b82612ae4565b604082019050919050565b60006020820190508181036000830152612b6f81612b33565b9050919050565b7f4552433732313a2063616c6c6572206973206e6f7420746f6b656e206f776e6560008201527f72206f7220617070726f76656400000000000000000000000000000000000000602082015250565b6000612bd2602d836123ec565b9150612bdd82612b76565b604082019050919050565b60006020820190508181036000830152612c0181612bc5565b9050919050565b7f455243373231456e756d657261626c653a206f776e657220696e646578206f7560008201527f74206f6620626f756e6473000000000000000000000000000000000000000000602082015250565b6000612c64602b836123ec565b9150612c6f82612c08565b604082019050919050565b60006020820190508181036000830152612c9381612c57565b9050919050565b7f455243373231456e756d657261626c653a20676c6f62616c20696e646578206f60008201527f7574206f6620626f756e64730000000000000000000000000000000000000000602082015250565b6000612cf6602c836123ec565b9150612d0182612c9a565b604082019050919050565b60006020820190508181036000830152612d2581612ce9565b9050919050565b7f4e487b7100000000000000000000000000000000000000000000000000000000600052603260045260246000fd5b7f4552433732313a20696e76616c696420746f6b656e2049440000000000000000600082015250565b6000612d916018836123ec565b9150612d9c82612d5b565b602082019050919050565b60006020820190508181036000830152612dc081612d84565b9050919050565b7f4552433732313a2061646472657373207a65726f206973206e6f74206120766160008201527f6c6964206f776e65720000000000000000000000000000000000000000000000602082015250565b6000612e236029836123ec565b9150612e2e82612dc7565b604082019050919050565b60006020820190508181036000830152612e5281612e16565b9050919050565b600081905092915050565b6000612e6f826123e1565b612e798185612e59565b9350612e898185602086016123fd565b80840191505092915050565b6000612ea18285612e64565b9150612ead8284612e64565b91508190509392505050565b7f4552433732313a207472616e736665722066726f6d20696e636f72726563742060008201527f6f776e6572000000000000000000000000000000000000000000000000000000602082015250565b6000612f156025836123ec565b9150612f2082612eb9565b604082019050919050565b60006020820190508181036000830152612f4481612f08565b9050919050565b7f4552433732313a207472616e7366657220746f20746865207a65726f2061646460008201527f7265737300000000000000000000000000000000000000000000000000000000602082015250565b6000612fa76024836123ec565b9150612fb282612f4b565b604082019050919050565b60006020820190508181036000830152612fd681612f9a565b9050919050565b7f4552433732313a206d696e7420746f20746865207a65726f2061646472657373600082015250565b60006130136020836123ec565b915061301e82612fdd565b602082019050919050565b6000602082019050818103600083015261304281613006565b9050919050565b7f4552433732313a20746f6b656e20616c7265616479206d696e74656400000000600082015250565b600061307f601c836123ec565b915061308a82613049565b602082019050919050565b600060208201905081810360008301526130ae81613072565b9050919050565b7f4552433732313a207472616e7366657220746f206e6f6e20455243373231526560008201527f63656976657220696d706c656d656e7465720000000000000000000000000000602082015250565b60006131116032836123ec565b915061311c826130b5565b604082019050919050565b6000602082019050818103600083015261314081613104565b9050919050565b7f4552433732313a20617070726f766520746f2063616c6c657200000000000000600082015250565b600061317d6019836123ec565b915061318882613147565b602082019050919050565b600060208201905081810360008301526131ac81613170565b9050919050565b7f4e487b7100000000000000000000000000000000000000000000000000000000600052601260045260246000fd5b7f455243373231456e756d657261626c653a20636f6e736563757469766520747260008201527f616e7366657273206e6f7420737570706f727465640000000000000000000000602082015250565b600061323e6035836123ec565b9150613249826131e2565b604082019050919050565b6000602082019050818103600083015261326d81613231565b9050919050565b600081519050919050565b600082825260208201905092915050565b600061329b82613274565b6132a5818561327f565b93506132b58185602086016123fd565b6132be81612430565b840191505092915050565b60006080820190506132de6000830187612531565b6132eb6020830186612531565b6132f860408301856125c7565b818103606083015261330a8184613290565b905095945050505050565b60008151905061332481612352565b92915050565b6000602082840312156133405761333f61231c565b5b600061334e84828501613315565b91505092915050565b7f4e487b7100000000000000000000000000000000000000000000000000000000600052601160045260246000fd5b60006133918261249c565b915061339c8361249c565b9250828210156133af576133ae613357565b5b828203905092915050565b60006133c58261249c565b91506133d08361249c565b9250827fffffffffffffffffffffffffffffffffffffffffffffffffffffffffffffffff0382111561340557613404613357565b5b828201905092915050565b7f4e487b7100000000000000000000000000000000000000000000000000000000600052603160045260246000fdfea2646970667358221220d68fd54e34850fa6d1bfc43d920c9265f97eb9178312fff7cb2751057c12950e64736f6c63430008090033",
  "linkReferences": {},
  "deployedLinkReferences": {}
}