{
  "_format": "hh-sol-artifact-1",
  "contractName": "AccessControl",
  "sourceName": "contracts/utils/access/AccessControl.sol",
  "abi": [
    {
      "inputs": [],
      "stateMutability": "nonpayable",
      "type": "constructor"
    },
    {
      "anonymous": false,
      "inputs": [
        {
          "indexed": true,
          "internalType": "bytes32",
          "name": "role",
          "type": "bytes32"
        },
        {
          "indexed": true,
          "internalType": "bytes32",
          "name": "previousAdminRole",
          "type": "bytes32"
        },
        {
          "indexed": true,
          "internalType": "bytes32",
          "name": "newAdminRole",
          "type": "bytes32"
        }
      ],
      "name": "RoleAdminChanged",
      "type": "event"
    },
    {
      "anonymous": false,
      "inputs": [
        {
          "indexed": true,
          "internalType": "bytes32",
          "name": "role",
          "type": "bytes32"
        },
        {
          "indexed": true,
          "internalType": "address",
          "name": "account",
          "type": "address"
        },
        {
          "indexed": true,
          "internalType": "address",
          "name": "sender",
          "type": "address"
        }
      ],
      "name": "RoleGranted",
      "type": "event"
    },
    {
      "anonymous": false,
      "inputs": [
        {
          "indexed": true,
          "internalType": "bytes32",
          "name": "role",
          "type": "bytes32"
        },
        {
          "indexed": true,
          "internalType": "address",
          "name": "account",
          "type": "address"
        },
        {
          "indexed": true,
          "internalType": "address",
          "name": "sender",
          "type": "address"
        }
      ],
      "name": "RoleRevoked",
      "type": "event"
    },
    {
      "inputs": [],
      "name": "ADMIN_ROLE",
      "outputs": [
        {
          "internalType": "string",
          "name": "",
          "type": "string"
        }
      ],
      "stateMutability": "view",
      "type": "function"
    },
    {
      "inputs": [],
      "name": "_msgData",
      "outputs": [
        {
          "internalType": "bytes",
          "name": "",
          "type": "bytes"
        }
      ],
      "stateMutability": "view",
      "type": "function"
    },
    {
      "inputs": [],
      "name": "_msgSender",
      "outputs": [
        {
          "internalType": "address",
          "name": "",
          "type": "address"
        }
      ],
      "stateMutability": "view",
      "type": "function"
    },
    {
      "inputs": [],
      "name": "_txSender",
      "outputs": [
        {
          "internalType": "address",
          "name": "",
          "type": "address"
        }
      ],
      "stateMutability": "view",
      "type": "function"
    },
    {
      "inputs": [],
      "name": "getAdminRole",
      "outputs": [
        {
          "internalType": "string",
          "name": "",
          "type": "string"
        }
      ],
      "stateMutability": "view",
      "type": "function"
    },
    {
      "inputs": [
        {
          "internalType": "string",
          "name": "role",
          "type": "string"
        },
        {
          "internalType": "address",
          "name": "account",
          "type": "address"
        }
      ],
      "name": "grantRole",
      "outputs": [],
      "stateMutability": "nonpayable",
      "type": "function"
    },
    {
      "inputs": [
        {
          "internalType": "string",
          "name": "role",
          "type": "string"
        },
        {
          "internalType": "address",
          "name": "account",
          "type": "address"
        }
      ],
      "name": "hasRole",
      "outputs": [
        {
          "internalType": "bool",
          "name": "",
          "type": "bool"
        }
      ],
      "stateMutability": "view",
      "type": "function"
    },
    {
      "inputs": [
        {
          "internalType": "string",
          "name": "role",
          "type": "string"
        },
        {
          "internalType": "address",
          "name": "account",
          "type": "address"
        }
      ],
      "name": "renounceRole",
      "outputs": [],
      "stateMutability": "nonpayable",
      "type": "function"
    },
    {
      "inputs": [
        {
          "internalType": "string",
          "name": "role",
          "type": "string"
        },
        {
          "internalType": "address",
          "name": "account",
          "type": "address"
        }
      ],
      "name": "revokeRole",
      "outputs": [],
      "stateMutability": "nonpayable",
      "type": "function"
    }
  ],
  "bytecode": "0x60806040526040518060400160405280600581526020017f6f776e6572000000000000000000000000000000000000000000000000000000815250600190805190602001906200005192919062000268565b503480156200005f57600080fd5b506200011360018054620000739062000347565b80601f0160208091040260200160405190810160405280929190818152602001828054620000a19062000347565b8015620000f25780601f10620000c657610100808354040283529160200191620000f2565b820191906000526020600020905b815481529060010190602001808311620000d457829003601f168201915b5050505050620001076200011960201b60201c565b6200012160201b60201c565b620004a0565b600033905090565b620001338282620001f160201b60201c565b620001ed5760016000836040516200014c919062000400565b908152602001604051809103902060000160008373ffffffffffffffffffffffffffffffffffffffff1673ffffffffffffffffffffffffffffffffffffffff16815260200190815260200160002060006101000a81548160ff021916908315150217905550600082604051620001c3919062000400565b90815260200160405180910390206002016000815480929190620001e79062000452565b91905055505b5050565b6000808360405162000204919062000400565b908152602001604051809103902060000160008373ffffffffffffffffffffffffffffffffffffffff1673ffffffffffffffffffffffffffffffffffffffff16815260200190815260200160002060009054906101000a900460ff16905092915050565b828054620002769062000347565b90600052602060002090601f0160209004810192826200029a5760008555620002e6565b82601f10620002b557805160ff1916838001178555620002e6565b82800160010185558215620002e6579182015b82811115620002e5578251825591602001919060010190620002c8565b5b509050620002f59190620002f9565b5090565b5b8082111562000314576000816000905550600101620002fa565b5090565b7f4e487b7100000000000000000000000000000000000000000000000000000000600052602260045260246000fd5b600060028204905060018216806200036057607f821691505b6020821081141562000377576200037662000318565b5b50919050565b600081519050919050565b600081905092915050565b60005b83811015620003b357808201518184015260208101905062000396565b83811115620003c3576000848401525b50505050565b6000620003d6826200037d565b620003e2818562000388565b9350620003f481856020860162000393565b80840191505092915050565b60006200040e8284620003c9565b915081905092915050565b7f4e487b7100000000000000000000000000000000000000000000000000000000600052601160045260246000fd5b6000819050919050565b60006200045f8262000448565b91507fffffffffffffffffffffffffffffffffffffffffffffffffffffffffffffffff82141562000495576200049462000419565b5b600182019050919050565b61115380620004b06000396000f3fe608060405234801561001057600080fd5b50600436106100935760003560e01c80638b49d47e116100665780638b49d47e14610120578063a1e6ab9f1461013f578063b3ecf2361461015b578063c19ae2ed14610179578063c877097d1461019557610093565b8063119df25f146100985780636c9cd097146100b6578063731f21a0146100e657806375b238fc14610102575b600080fd5b6100a06101b3565b6040516100ad91906109cf565b60405180910390f35b6100d060048036038101906100cb9190610b70565b6101bb565b6040516100dd9190610be7565b60405180910390f35b61010060048036038101906100fb9190610b70565b610230565b005b61010a6102d9565b6040516101179190610c8a565b60405180910390f35b610128610367565b604051610136929190610cea565b60405180910390f35b61015960048036038101906101549190610b70565b610374565b005b6101636103f7565b6040516101709190610c8a565b60405180910390f35b610193600480360381019061018e9190610b70565b61048f565b005b61019d610538565b6040516101aa91906109cf565b60405180910390f35b600033905090565b600080836040516101cc9190610d4a565b908152602001604051809103902060000160008373ffffffffffffffffffffffffffffffffffffffff1673ffffffffffffffffffffffffffffffffffffffff16815260200190815260200160002060009054906101000a900460ff16905092915050565b6102cb6001805461024090610d90565b80601f016020809104026020016040519081016040528092919081815260200182805461026c90610d90565b80156102b95780601f1061028e576101008083540402835291602001916102b9565b820191906000526020600020905b81548152906001019060200180831161029c57829003601f168201915b50505050506102c66101b3565b610540565b6102d582826105d0565b5050565b600180546102e690610d90565b80601f016020809104026020016040519081016040528092919081815260200182805461031290610d90565b801561035f5780601f106103345761010080835404028352916020019161035f565b820191906000526020600020905b81548152906001019060200180831161034257829003601f168201915b505050505081565b3660008036915091509091565b61037c6101b3565b73ffffffffffffffffffffffffffffffffffffffff168173ffffffffffffffffffffffffffffffffffffffff16146103e9576040517f08c379a00000000000000000000000000000000000000000000000000000000081526004016103e090610e34565b60405180910390fd5b6103f382826105d0565b5050565b606060006001805461040890610d90565b80601f016020809104026020016040519081016040528092919081815260200182805461043490610d90565b80156104815780601f1061045657610100808354040283529160200191610481565b820191906000526020600020905b81548152906001019060200180831161046457829003601f168201915b505050505090508091505090565b61052a6001805461049f90610d90565b80601f01602080910402602001604051908101604052809291908181526020018280546104cb90610d90565b80156105185780601f106104ed57610100808354040283529160200191610518565b820191906000526020600020905b8154815290600101906020018083116104fb57829003601f168201915b50505050506105256101b3565b610540565b6105348282610691565b5050565b600032905090565b61054a82826101bb565b6105cc5761056f8173ffffffffffffffffffffffffffffffffffffffff166014610752565b82604051602001610581929190610eec565b6040516020818303038152906040526040517f08c379a00000000000000000000000000000000000000000000000000000000081526004016105c39190610c8a565b60405180910390fd5b5050565b6105da82826101bb565b1561068d57600080836040516105f09190610d4a565b908152602001604051809103902060000160008373ffffffffffffffffffffffffffffffffffffffff1673ffffffffffffffffffffffffffffffffffffffff16815260200190815260200160002060006101000a81548160ff0219169083151502179055506000826040516106659190610d4a565b9081526020016040518091039020600201600081548092919061068790610f5f565b91905055505b5050565b61069b82826101bb565b61074e5760016000836040516106b19190610d4a565b908152602001604051809103902060000160008373ffffffffffffffffffffffffffffffffffffffff1673ffffffffffffffffffffffffffffffffffffffff16815260200190815260200160002060006101000a81548160ff0219169083151502179055506000826040516107269190610d4a565b9081526020016040518091039020600201600081548092919061074890610f89565b91905055505b5050565b6060600060028360026107659190610fd2565b61076f919061102c565b67ffffffffffffffff81111561078857610787610a19565b5b6040519080825280601f01601f1916602001820160405280156107ba5781602001600182028036833780820191505090505b5090507f3000000000000000000000000000000000000000000000000000000000000000816000815181106107f2576107f1611082565b5b60200101907effffffffffffffffffffffffffffffffffffffffffffffffffffffffffffff1916908160001a9053507f78000000000000000000000000000000000000000000000000000000000000008160018151811061085657610855611082565b5b60200101907effffffffffffffffffffffffffffffffffffffffffffffffffffffffffffff1916908160001a905350600060018460026108969190610fd2565b6108a0919061102c565b90505b6001811115610940577f3031323334353637383961626364656600000000000000000000000000000000600f8616601081106108e2576108e1611082565b5b1a60f81b8282815181106108f9576108f8611082565b5b60200101907effffffffffffffffffffffffffffffffffffffffffffffffffffffffffffff1916908160001a905350600485901c94508061093990610f5f565b90506108a3565b5060008414610984576040517f08c379a000000000000000000000000000000000000000000000000000000000815260040161097b906110fd565b60405180910390fd5b8091505092915050565b600073ffffffffffffffffffffffffffffffffffffffff82169050919050565b60006109b98261098e565b9050919050565b6109c9816109ae565b82525050565b60006020820190506109e460008301846109c0565b92915050565b6000604051905090565b600080fd5b600080fd5b600080fd5b600080fd5b6000601f19601f8301169050919050565b7f4e487b7100000000000000000000000000000000000000000000000000000000600052604160045260246000fd5b610a5182610a08565b810181811067ffffffffffffffff82111715610a7057610a6f610a19565b5b80604052505050565b6000610a836109ea565b9050610a8f8282610a48565b919050565b600067ffffffffffffffff821115610aaf57610aae610a19565b5b610ab882610a08565b9050602081019050919050565b82818337600083830152505050565b6000610ae7610ae284610a94565b610a79565b905082815260208101848484011115610b0357610b02610a03565b5b610b0e848285610ac5565b509392505050565b600082601f830112610b2b57610b2a6109fe565b5b8135610b3b848260208601610ad4565b91505092915050565b610b4d816109ae565b8114610b5857600080fd5b50565b600081359050610b6a81610b44565b92915050565b60008060408385031215610b8757610b866109f4565b5b600083013567ffffffffffffffff811115610ba557610ba46109f9565b5b610bb185828601610b16565b9250506020610bc285828601610b5b565b9150509250929050565b60008115159050919050565b610be181610bcc565b82525050565b6000602082019050610bfc6000830184610bd8565b92915050565b600081519050919050565b600082825260208201905092915050565b60005b83811015610c3c578082015181840152602081019050610c21565b83811115610c4b576000848401525b50505050565b6000610c5c82610c02565b610c668185610c0d565b9350610c76818560208601610c1e565b610c7f81610a08565b840191505092915050565b60006020820190508181036000830152610ca48184610c51565b905092915050565b600082825260208201905092915050565b6000610cc98385610cac565b9350610cd6838584610ac5565b610cdf83610a08565b840190509392505050565b60006020820190508181036000830152610d05818486610cbd565b90509392505050565b600081905092915050565b6000610d2482610c02565b610d2e8185610d0e565b9350610d3e818560208601610c1e565b80840191505092915050565b6000610d568284610d19565b915081905092915050565b7f4e487b7100000000000000000000000000000000000000000000000000000000600052602260045260246000fd5b60006002820490506001821680610da857607f821691505b60208210811415610dbc57610dbb610d61565b5b50919050565b7f416363657373436f6e74726f6c3a2063616e206f6e6c792072656e6f756e636560008201527f20726f6c657320666f722073656c660000000000000000000000000000000000602082015250565b6000610e1e602f83610c0d565b9150610e2982610dc2565b604082019050919050565b60006020820190508181036000830152610e4d81610e11565b9050919050565b7f416363657373436f6e74726f6c3a206163636f756e7420000000000000000000600082015250565b6000610e8a601783610d0e565b9150610e9582610e54565b601782019050919050565b7f206973206d697373696e6720726f6c6520000000000000000000000000000000600082015250565b6000610ed6601183610d0e565b9150610ee182610ea0565b601182019050919050565b6000610ef782610e7d565b9150610f038285610d19565b9150610f0e82610ec9565b9150610f1a8284610d19565b91508190509392505050565b7f4e487b7100000000000000000000000000000000000000000000000000000000600052601160045260246000fd5b6000819050919050565b6000610f6a82610f55565b91506000821415610f7e57610f7d610f26565b5b600182039050919050565b6000610f9482610f55565b91507fffffffffffffffffffffffffffffffffffffffffffffffffffffffffffffffff821415610fc757610fc6610f26565b5b600182019050919050565b6000610fdd82610f55565b9150610fe883610f55565b9250817fffffffffffffffffffffffffffffffffffffffffffffffffffffffffffffffff048311821515161561102157611020610f26565b5b828202905092915050565b600061103782610f55565b915061104283610f55565b9250827fffffffffffffffffffffffffffffffffffffffffffffffffffffffffffffffff0382111561107757611076610f26565b5b828201905092915050565b7f4e487b7100000000000000000000000000000000000000000000000000000000600052603260045260246000fd5b7f537472696e67733a20686578206c656e67746820696e73756666696369656e74600082015250565b60006110e7602083610c0d565b91506110f2826110b1565b602082019050919050565b60006020820190508181036000830152611116816110da565b905091905056fea26469706673582212207f0368a90fece873be258ab565072feb7f17bc175c41c0a38809bf78c63cb04564736f6c63430008090033",
  "linkReferences": {},
  "deployedLinkReferences": {}
}