{
  "_format": "hh-sol-artifact-1",
  "contractName": "CrossChainEnabledArbitrumL1Mock",
  "sourceName": "contracts/openzeppelin/mocks/crosschain/receivers.sol",
  "abi": [
    {
      "inputs": [
        {
          "internalType": "address",
          "name": "bridge",
          "type": "address"
        }
      ],
      "stateMutability": "nonpayable",
      "type": "constructor"
    },
    {
      "inputs": [
        {
          "internalType": "address",
          "name": "actual",
          "type": "address"
        },
        {
          "internalType": "address",
          "name": "expected",
          "type": "address"
        }
      ],
      "name": "InvalidCrossChainSender",
      "type": "error"
    },
    {
      "inputs": [],
      "name": "NotCrossChainCall",
      "type": "error"
    },
    {
      "inputs": [],
      "name": "crossChainOwnerRestricted",
      "outputs": [],
      "stateMutability": "nonpayable",
      "type": "function"
    },
    {
      "inputs": [],
      "name": "crossChainRestricted",
      "outputs": [],
      "stateMutability": "nonpayable",
      "type": "function"
    },
    {
      "inputs": [],
      "name": "owner",
      "outputs": [
        {
          "internalType": "address",
          "name": "",
          "type": "address"
        }
      ],
      "stateMutability": "view",
      "type": "function"
    }
  ],
  "bytecode": "0x60c06040523373ffffffffffffffffffffffffffffffffffffffff1660809073ffffffffffffffffffffffffffffffffffffffff1681525034801561004357600080fd5b5060405161072c38038061072c83398181016040528101906100659190610104565b808073ffffffffffffffffffffffffffffffffffffffff1660a08173ffffffffffffffffffffffffffffffffffffffff16815250505050610131565b600080fd5b600073ffffffffffffffffffffffffffffffffffffffff82169050919050565b60006100d1826100a6565b9050919050565b6100e1816100c6565b81146100ec57600080fd5b50565b6000815190506100fe816100d8565b92915050565b60006020828403121561011a576101196100a1565b5b6000610128848285016100ef565b91505092915050565b60805160a0516105ca6101626000396000818161018601526101f401526000818160ba015260de01526105ca6000f3fe608060405234801561001057600080fd5b50600436106100415760003560e01c80634b074af5146100465780638da5cb5b14610050578063f97f51891461006e575b600080fd5b61004e610078565b005b6100586100b8565b604051610065919061044f565b60405180910390f35b6100766100dc565b005b61008061017f565b6100b6576040517f4a74df9200000000000000000000000000000000000000000000000000000000815260040160405180910390fd5b565b7f000000000000000000000000000000000000000000000000000000000000000081565b7f000000000000000000000000000000000000000000000000000000000000000060006101076101af565b90508073ffffffffffffffffffffffffffffffffffffffff168273ffffffffffffffffffffffffffffffffffffffff161461017b5780826040517fef25d32b00000000000000000000000000000000000000000000000000000000815260040161017292919061046a565b60405180910390fd5b5050565b60006101aa7f000000000000000000000000000000000000000000000000000000000000000061021d565b905090565b60006101b961017f565b6101ef576040517f4a74df9200000000000000000000000000000000000000000000000000000000815260040160405180910390fd5b6102187f0000000000000000000000000000000000000000000000000000000000000000610255565b905090565b60008173ffffffffffffffffffffffffffffffffffffffff163373ffffffffffffffffffffffffffffffffffffffff16149050919050565b60006102608261021d565b610296576040517f4a74df9200000000000000000000000000000000000000000000000000000000815260040160405180910390fd5b60008273ffffffffffffffffffffffffffffffffffffffff1663ab5d89436040518163ffffffff1660e01b815260040160206040518083038186803b1580156102de57600080fd5b505afa1580156102f2573d6000803e3d6000fd5b505050506040513d601f19601f8201168201806040525081019061031691906104c4565b73ffffffffffffffffffffffffffffffffffffffff166380648b026040518163ffffffff1660e01b815260040160206040518083038186803b15801561035b57600080fd5b505afa15801561036f573d6000803e3d6000fd5b505050506040513d601f19601f8201168201806040525081019061039391906104c4565b9050600073ffffffffffffffffffffffffffffffffffffffff168173ffffffffffffffffffffffffffffffffffffffff161415610405576040517f08c379a00000000000000000000000000000000000000000000000000000000081526004016103fc90610574565b60405180910390fd5b80915050919050565b600073ffffffffffffffffffffffffffffffffffffffff82169050919050565b60006104398261040e565b9050919050565b6104498161042e565b82525050565b60006020820190506104646000830184610440565b92915050565b600060408201905061047f6000830185610440565b61048c6020830184610440565b9392505050565b600080fd5b6104a18161042e565b81146104ac57600080fd5b50565b6000815190506104be81610498565b92915050565b6000602082840312156104da576104d9610493565b5b60006104e8848285016104af565b91505092915050565b600082825260208201905092915050565b7f4c6962417262697472756d4c313a2073797374656d206d65737361676573207760008201527f6974686f75742073656e64657200000000000000000000000000000000000000602082015250565b600061055e602d836104f1565b915061056982610502565b604082019050919050565b6000602082019050818103600083015261058d81610551565b905091905056fea2646970667358221220381500adc035f2e3ba4305fe609b397ffde42419394712d7de1a9c5eba68164064736f6c63430008090033",
  "linkReferences": {},
  "deployedLinkReferences": {}
}