{
  "_format": "hh-sol-artifact-1",
  "contractName": "RandomGenerator",
  "sourceName": "contracts/utils/RandomGenerator.sol",
  "abi": [
    {
      "inputs": [],
      "name": "rand",
      "outputs": [
        {
          "internalType": "uint256",
          "name": "",
          "type": "uint256"
        }
      ],
      "stateMutability": "nonpayable",
      "type": "function"
    }
  ],
  "bytecode": "0x608060405260008055606460015534801561001957600080fd5b506102c3806100296000396000f3fe608060405234801561001057600080fd5b506004361061002b5760003560e01c80633b3dca7614610030575b600080fd5b61003861004e565b60405161004591906100c2565b60405180910390f35b60008060008154809291906100629061010c565b91905055506001544233600054604051602001610081939291906101f0565b6040516020818303038152906040528051906020012060001c6100a4919061025c565b905090565b6000819050919050565b6100bc816100a9565b82525050565b60006020820190506100d760008301846100b3565b92915050565b7f4e487b7100000000000000000000000000000000000000000000000000000000600052601160045260246000fd5b6000610117826100a9565b91507fffffffffffffffffffffffffffffffffffffffffffffffffffffffffffffffff82141561014a576101496100dd565b5b600182019050919050565b6000819050919050565b61017061016b826100a9565b610155565b82525050565b600073ffffffffffffffffffffffffffffffffffffffff82169050919050565b60006101a182610176565b9050919050565b60008160601b9050919050565b60006101c0826101a8565b9050919050565b60006101d2826101b5565b9050919050565b6101ea6101e582610196565b6101c7565b82525050565b60006101fc828661015f565b60208201915061020c82856101d9565b60148201915061021c828461015f565b602082019150819050949350505050565b7f4e487b7100000000000000000000000000000000000000000000000000000000600052601260045260246000fd5b6000610267826100a9565b9150610272836100a9565b9250826102825761028161022d565b5b82820690509291505056fea26469706673582212200fc0e3195e3cc91422b1f28eac516a500d2cc559a92950b0c4264bb39908f1e764736f6c63430008090033",
  "linkReferences": {},
  "deployedLinkReferences": {}
}