{
  "_format": "hh-sol-artifact-1",
  "contractName": "AccessControlCrossChainMock",
  "sourceName": "contracts/openzeppelin/mocks/AccessControlCrossChainMock.sol",
  "abi": [
    {
      "inputs": [],
      "stateMutability": "nonpayable",
      "type": "constructor"
    },
    {
      "inputs": [],
      "name": "NotCrossChainCall",
      "type": "error"
    },
    {
      "anonymous": false,
      "inputs": [
        {
          "indexed": true,
          "internalType": "bytes32",
          "name": "role",
          "type": "bytes32"
        },
        {
          "indexed": true,
          "internalType": "bytes32",
          "name": "previousAdminRole",
          "type": "bytes32"
        },
        {
          "indexed": true,
          "internalType": "bytes32",
          "name": "newAdminRole",
          "type": "bytes32"
        }
      ],
      "name": "RoleAdminChanged",
      "type": "event"
    },
    {
      "anonymous": false,
      "inputs": [
        {
          "indexed": true,
          "internalType": "bytes32",
          "name": "role",
          "type": "bytes32"
        },
        {
          "indexed": true,
          "internalType": "address",
          "name": "account",
          "type": "address"
        },
        {
          "indexed": true,
          "internalType": "address",
          "name": "sender",
          "type": "address"
        }
      ],
      "name": "RoleGranted",
      "type": "event"
    },
    {
      "anonymous": false,
      "inputs": [
        {
          "indexed": true,
          "internalType": "bytes32",
          "name": "role",
          "type": "bytes32"
        },
        {
          "indexed": true,
          "internalType": "address",
          "name": "account",
          "type": "address"
        },
        {
          "indexed": true,
          "internalType": "address",
          "name": "sender",
          "type": "address"
        }
      ],
      "name": "RoleRevoked",
      "type": "event"
    },
    {
      "inputs": [],
      "name": "CROSSCHAIN_ALIAS",
      "outputs": [
        {
          "internalType": "bytes32",
          "name": "",
          "type": "bytes32"
        }
      ],
      "stateMutability": "view",
      "type": "function"
    },
    {
      "inputs": [],
      "name": "DEFAULT_ADMIN_ROLE",
      "outputs": [
        {
          "internalType": "bytes32",
          "name": "",
          "type": "bytes32"
        }
      ],
      "stateMutability": "view",
      "type": "function"
    },
    {
      "inputs": [
        {
          "internalType": "bytes32",
          "name": "role",
          "type": "bytes32"
        }
      ],
      "name": "crossChainRoleAlias",
      "outputs": [
        {
          "internalType": "bytes32",
          "name": "",
          "type": "bytes32"
        }
      ],
      "stateMutability": "pure",
      "type": "function"
    },
    {
      "inputs": [
        {
          "internalType": "bytes32",
          "name": "role",
          "type": "bytes32"
        }
      ],
      "name": "getRoleAdmin",
      "outputs": [
        {
          "internalType": "bytes32",
          "name": "",
          "type": "bytes32"
        }
      ],
      "stateMutability": "view",
      "type": "function"
    },
    {
      "inputs": [
        {
          "internalType": "bytes32",
          "name": "role",
          "type": "bytes32"
        },
        {
          "internalType": "address",
          "name": "account",
          "type": "address"
        }
      ],
      "name": "grantRole",
      "outputs": [],
      "stateMutability": "nonpayable",
      "type": "function"
    },
    {
      "inputs": [
        {
          "internalType": "bytes32",
          "name": "role",
          "type": "bytes32"
        },
        {
          "internalType": "address",
          "name": "account",
          "type": "address"
        }
      ],
      "name": "hasRole",
      "outputs": [
        {
          "internalType": "bool",
          "name": "",
          "type": "bool"
        }
      ],
      "stateMutability": "view",
      "type": "function"
    },
    {
      "inputs": [
        {
          "internalType": "bytes32",
          "name": "role",
          "type": "bytes32"
        },
        {
          "internalType": "address",
          "name": "account",
          "type": "address"
        }
      ],
      "name": "renounceRole",
      "outputs": [],
      "stateMutability": "nonpayable",
      "type": "function"
    },
    {
      "inputs": [
        {
          "internalType": "bytes32",
          "name": "role",
          "type": "bytes32"
        },
        {
          "internalType": "address",
          "name": "account",
          "type": "address"
        }
      ],
      "name": "revokeRole",
      "outputs": [],
      "stateMutability": "nonpayable",
      "type": "function"
    },
    {
      "inputs": [
        {
          "internalType": "bytes32",
          "name": "roleId",
          "type": "bytes32"
        }
      ],
      "name": "senderProtected",
      "outputs": [],
      "stateMutability": "nonpayable",
      "type": "function"
    },
    {
      "inputs": [
        {
          "internalType": "bytes32",
          "name": "roleId",
          "type": "bytes32"
        },
        {
          "internalType": "bytes32",
          "name": "adminRoleId",
          "type": "bytes32"
        }
      ],
      "name": "setRoleAdmin",
      "outputs": [],
      "stateMutability": "nonpayable",
      "type": "function"
    },
    {
      "inputs": [
        {
          "internalType": "bytes4",
          "name": "interfaceId",
          "type": "bytes4"
        }
      ],
      "name": "supportsInterface",
      "outputs": [
        {
          "internalType": "bool",
          "name": "",
          "type": "bool"
        }
      ],
      "stateMutability": "view",
      "type": "function"
    }
  ],
  "bytecode": "0x60806040523480156200001157600080fd5b50620000366000801b6200002a6200003c60201b60201c565b6200004460201b60201c565b620001b5565b600033905090565b6200005682826200005a60201b60201c565b5050565b6200006c82826200014b60201b60201c565b6200014757600160008084815260200190815260200160002060000160008373ffffffffffffffffffffffffffffffffffffffff1673ffffffffffffffffffffffffffffffffffffffff16815260200190815260200160002060006101000a81548160ff021916908315150217905550620000ec6200003c60201b60201c565b73ffffffffffffffffffffffffffffffffffffffff168173ffffffffffffffffffffffffffffffffffffffff16837f2f8788117e7eff1d82e926ec794901d17c78024a50270940304540a733656f0d60405160405180910390a45b5050565b600080600084815260200190815260200160002060000160008373ffffffffffffffffffffffffffffffffffffffff1673ffffffffffffffffffffffffffffffffffffffff16815260200190815260200160002060009054906101000a900460ff16905092915050565b61132c80620001c56000396000f3fe608060405234801561001057600080fd5b50600436106100a95760003560e01c80634b9304a4116100715780634b9304a41461016257806391d148541461017e578063933c8dbd146101ae578063a217fddf146101de578063d547741f146101fc578063f9d0429514610218576100a9565b806301ffc9a7146100ae5780631e4e0091146100de578063248a9ca3146100fa5780632f2ff15d1461012a57806336568abe14610146575b600080fd5b6100c860048036038101906100c39190610c55565b610236565b6040516100d59190610c9d565b60405180910390f35b6100f860048036038101906100f39190610cee565b6102b0565b005b610114600480360381019061010f9190610d2e565b6102be565b6040516101219190610d6a565b60405180910390f35b610144600480360381019061013f9190610de3565b6102dd565b005b610160600480360381019061015b9190610de3565b6102fe565b005b61017c60048036038101906101779190610d2e565b610381565b005b61019860048036038101906101939190610de3565b61038f565b6040516101a59190610c9d565b60405180910390f35b6101c860048036038101906101c39190610d2e565b6103f9565b6040516101d59190610d6a565b60405180910390f35b6101e661040b565b6040516101f39190610d6a565b60405180910390f35b61021660048036038101906102119190610de3565b610412565b005b610220610433565b60405161022d9190610d6a565b60405180910390f35b60007f7965db0b000000000000000000000000000000000000000000000000000000007bffffffffffffffffffffffffffffffffffffffffffffffffffffffff1916827bffffffffffffffffffffffffffffffffffffffffffffffffffffffff191614806102a957506102a882610457565b5b9050919050565b6102ba82826104c1565b5050565b6000806000838152602001908152602001600020600101549050919050565b6102e6826102be565b6102ef8161051c565b6102f98383610554565b505050565b610306610634565b73ffffffffffffffffffffffffffffffffffffffff168173ffffffffffffffffffffffffffffffffffffffff1614610373576040517f08c379a000000000000000000000000000000000000000000000000000000000815260040161036a90610ea6565b60405180910390fd5b61037d828261063c565b5050565b8061038b8161051c565b5050565b600080600084815260200190815260200160002060000160008373ffffffffffffffffffffffffffffffffffffffff1673ffffffffffffffffffffffffffffffffffffffff16815260200190815260200160002060009054906101000a900460ff16905092915050565b60006104048261071d565b9050919050565b6000801b81565b61041b826102be565b6104248161051c565b61042e838361063c565b505050565b7fe870e9cffded00b0b933338bc23ae12648d8d2d4829802ab37a0908f14773b4d81565b60007f01ffc9a7000000000000000000000000000000000000000000000000000000007bffffffffffffffffffffffffffffffffffffffffffffffffffffffff1916827bffffffffffffffffffffffffffffffffffffffffffffffffffffffff1916149050919050565b60006104cc836102be565b905081600080858152602001908152602001600020600101819055508181847fbd79b86ffe0ab8e8776151514217cd7cacd52c909f66475c3af44e129f0b00ff60405160405180910390a4505050565b610524610749565b15610547576105426105358261071d565b61053d61075a565b6107a9565b610551565b6105508161082e565b5b50565b61055e828261038f565b61063057600160008084815260200190815260200160002060000160008373ffffffffffffffffffffffffffffffffffffffff1673ffffffffffffffffffffffffffffffffffffffff16815260200190815260200160002060006101000a81548160ff0219169083151502179055506105d5610634565b73ffffffffffffffffffffffffffffffffffffffff168173ffffffffffffffffffffffffffffffffffffffff16837f2f8788117e7eff1d82e926ec794901d17c78024a50270940304540a733656f0d60405160405180910390a45b5050565b600033905090565b610646828261038f565b1561071957600080600084815260200190815260200160002060000160008373ffffffffffffffffffffffffffffffffffffffff1673ffffffffffffffffffffffffffffffffffffffff16815260200190815260200160002060006101000a81548160ff0219169083151502179055506106be610634565b73ffffffffffffffffffffffffffffffffffffffff168173ffffffffffffffffffffffffffffffffffffffff16837ff6391f5c32d9c69d2a47ea670b442974b53935d1edc7fd64eb21e047a839171b60405160405180910390a45b5050565b60007fe870e9cffded00b0b933338bc23ae12648d8d2d4829802ab37a0908f14773b4d82189050919050565b60006107556064610842565b905090565b6000610764610749565b61079a576040517f4a74df9200000000000000000000000000000000000000000000000000000000815260040160405180910390fd5b6107a460646108c9565b905090565b6107b3828261038f565b61082a576107c08161098f565b6107ce8360001c60206109bc565b6040516020016107df929190610fd8565b6040516020818303038152906040526040517f08c379a0000000000000000000000000000000000000000000000000000000008152600401610821919061105c565b60405180910390fd5b5050565b61083f8161083a610634565b6107a9565b50565b60008173ffffffffffffffffffffffffffffffffffffffff1663175a260b6040518163ffffffff1660e01b815260040160206040518083038186803b15801561088a57600080fd5b505afa15801561089e573d6000803e3d6000fd5b505050506040513d601f19601f820116820180604052508101906108c291906110aa565b9050919050565b60006108d482610842565b61090a576040517f4a74df9200000000000000000000000000000000000000000000000000000000815260040160405180910390fd5b8173ffffffffffffffffffffffffffffffffffffffff1663d74523b36040518163ffffffff1660e01b815260040160206040518083038186803b15801561095057600080fd5b505afa158015610964573d6000803e3d6000fd5b505050506040513d601f19601f8201168201806040525081019061098891906110ec565b9050919050565b60606109b58273ffffffffffffffffffffffffffffffffffffffff16601460ff166109bc565b9050919050565b6060600060028360026109cf9190611152565b6109d991906111ac565b67ffffffffffffffff8111156109f2576109f1611202565b5b6040519080825280601f01601f191660200182016040528015610a245781602001600182028036833780820191505090505b5090507f300000000000000000000000000000000000000000000000000000000000000081600081518110610a5c57610a5b611231565b5b60200101907effffffffffffffffffffffffffffffffffffffffffffffffffffffffffffff1916908160001a9053507f780000000000000000000000000000000000000000000000000000000000000081600181518110610ac057610abf611231565b5b60200101907effffffffffffffffffffffffffffffffffffffffffffffffffffffffffffff1916908160001a90535060006001846002610b009190611152565b610b0a91906111ac565b90505b6001811115610baa577f3031323334353637383961626364656600000000000000000000000000000000600f861660108110610b4c57610b4b611231565b5b1a60f81b828281518110610b6357610b62611231565b5b60200101907effffffffffffffffffffffffffffffffffffffffffffffffffffffffffffff1916908160001a905350600485901c945080610ba390611260565b9050610b0d565b5060008414610bee576040517f08c379a0000000000000000000000000000000000000000000000000000000008152600401610be5906112d6565b60405180910390fd5b8091505092915050565b600080fd5b60007fffffffff0000000000000000000000000000000000000000000000000000000082169050919050565b610c3281610bfd565b8114610c3d57600080fd5b50565b600081359050610c4f81610c29565b92915050565b600060208284031215610c6b57610c6a610bf8565b5b6000610c7984828501610c40565b91505092915050565b60008115159050919050565b610c9781610c82565b82525050565b6000602082019050610cb26000830184610c8e565b92915050565b6000819050919050565b610ccb81610cb8565b8114610cd657600080fd5b50565b600081359050610ce881610cc2565b92915050565b60008060408385031215610d0557610d04610bf8565b5b6000610d1385828601610cd9565b9250506020610d2485828601610cd9565b9150509250929050565b600060208284031215610d4457610d43610bf8565b5b6000610d5284828501610cd9565b91505092915050565b610d6481610cb8565b82525050565b6000602082019050610d7f6000830184610d5b565b92915050565b600073ffffffffffffffffffffffffffffffffffffffff82169050919050565b6000610db082610d85565b9050919050565b610dc081610da5565b8114610dcb57600080fd5b50565b600081359050610ddd81610db7565b92915050565b60008060408385031215610dfa57610df9610bf8565b5b6000610e0885828601610cd9565b9250506020610e1985828601610dce565b9150509250929050565b600082825260208201905092915050565b7f416363657373436f6e74726f6c3a2063616e206f6e6c792072656e6f756e636560008201527f20726f6c657320666f722073656c660000000000000000000000000000000000602082015250565b6000610e90602f83610e23565b9150610e9b82610e34565b604082019050919050565b60006020820190508181036000830152610ebf81610e83565b9050919050565b600081905092915050565b7f416363657373436f6e74726f6c3a206163636f756e7420000000000000000000600082015250565b6000610f07601783610ec6565b9150610f1282610ed1565b601782019050919050565b600081519050919050565b60005b83811015610f46578082015181840152602081019050610f2b565b83811115610f55576000848401525b50505050565b6000610f6682610f1d565b610f708185610ec6565b9350610f80818560208601610f28565b80840191505092915050565b7f206973206d697373696e6720726f6c6520000000000000000000000000000000600082015250565b6000610fc2601183610ec6565b9150610fcd82610f8c565b601182019050919050565b6000610fe382610efa565b9150610fef8285610f5b565b9150610ffa82610fb5565b91506110068284610f5b565b91508190509392505050565b6000601f19601f8301169050919050565b600061102e82610f1d565b6110388185610e23565b9350611048818560208601610f28565b61105181611012565b840191505092915050565b600060208201905081810360008301526110768184611023565b905092915050565b61108781610c82565b811461109257600080fd5b50565b6000815190506110a48161107e565b92915050565b6000602082840312156110c0576110bf610bf8565b5b60006110ce84828501611095565b91505092915050565b6000815190506110e681610db7565b92915050565b60006020828403121561110257611101610bf8565b5b6000611110848285016110d7565b91505092915050565b6000819050919050565b7f4e487b7100000000000000000000000000000000000000000000000000000000600052601160045260246000fd5b600061115d82611119565b915061116883611119565b9250817fffffffffffffffffffffffffffffffffffffffffffffffffffffffffffffffff04831182151516156111a1576111a0611123565b5b828202905092915050565b60006111b782611119565b91506111c283611119565b9250827fffffffffffffffffffffffffffffffffffffffffffffffffffffffffffffffff038211156111f7576111f6611123565b5b828201905092915050565b7f4e487b7100000000000000000000000000000000000000000000000000000000600052604160045260246000fd5b7f4e487b7100000000000000000000000000000000000000000000000000000000600052603260045260246000fd5b600061126b82611119565b9150600082141561127f5761127e611123565b5b600182039050919050565b7f537472696e67733a20686578206c656e67746820696e73756666696369656e74600082015250565b60006112c0602083610e23565b91506112cb8261128a565b602082019050919050565b600060208201905081810360008301526112ef816112b3565b905091905056fea2646970667358221220852144082a793e495af126c8e3668743497c9e6c8cff8642b6413c5093ccd32264736f6c63430008090033",
  "linkReferences": {},
  "deployedLinkReferences": {}
}