{
  "_format": "hh-sol-artifact-1",
  "contractName": "ERC20FlashMintMock",
  "sourceName": "contracts/openzeppelin/mocks/ERC20FlashMintMock.sol",
  "abi": [
    {
      "inputs": [
        {
          "internalType": "string",
          "name": "name",
          "type": "string"
        },
        {
          "internalType": "string",
          "name": "symbol",
          "type": "string"
        },
        {
          "internalType": "address",
          "name": "initialAccount",
          "type": "address"
        },
        {
          "internalType": "uint256",
          "name": "initialBalance",
          "type": "uint256"
        }
      ],
      "stateMutability": "nonpayable",
      "type": "constructor"
    },
    {
      "anonymous": false,
      "inputs": [
        {
          "indexed": true,
          "internalType": "address",
          "name": "owner",
          "type": "address"
        },
        {
          "indexed": true,
          "internalType": "address",
          "name": "spender",
          "type": "address"
        },
        {
          "indexed": false,
          "internalType": "uint256",
          "name": "value",
          "type": "uint256"
        }
      ],
      "name": "Approval",
      "type": "event"
    },
    {
      "anonymous": false,
      "inputs": [
        {
          "indexed": true,
          "internalType": "address",
          "name": "from",
          "type": "address"
        },
        {
          "indexed": true,
          "internalType": "address",
          "name": "to",
          "type": "address"
        },
        {
          "indexed": false,
          "internalType": "uint256",
          "name": "value",
          "type": "uint256"
        }
      ],
      "name": "Transfer",
      "type": "event"
    },
    {
      "inputs": [
        {
          "internalType": "address",
          "name": "owner",
          "type": "address"
        },
        {
          "internalType": "address",
          "name": "spender",
          "type": "address"
        }
      ],
      "name": "allowance",
      "outputs": [
        {
          "internalType": "uint256",
          "name": "",
          "type": "uint256"
        }
      ],
      "stateMutability": "view",
      "type": "function"
    },
    {
      "inputs": [
        {
          "internalType": "address",
          "name": "spender",
          "type": "address"
        },
        {
          "internalType": "uint256",
          "name": "amount",
          "type": "uint256"
        }
      ],
      "name": "approve",
      "outputs": [
        {
          "internalType": "bool",
          "name": "",
          "type": "bool"
        }
      ],
      "stateMutability": "nonpayable",
      "type": "function"
    },
    {
      "inputs": [
        {
          "internalType": "address",
          "name": "account",
          "type": "address"
        }
      ],
      "name": "balanceOf",
      "outputs": [
        {
          "internalType": "uint256",
          "name": "",
          "type": "uint256"
        }
      ],
      "stateMutability": "view",
      "type": "function"
    },
    {
      "inputs": [],
      "name": "decimals",
      "outputs": [
        {
          "internalType": "uint8",
          "name": "",
          "type": "uint8"
        }
      ],
      "stateMutability": "view",
      "type": "function"
    },
    {
      "inputs": [
        {
          "internalType": "address",
          "name": "spender",
          "type": "address"
        },
        {
          "internalType": "uint256",
          "name": "subtractedValue",
          "type": "uint256"
        }
      ],
      "name": "decreaseAllowance",
      "outputs": [
        {
          "internalType": "bool",
          "name": "",
          "type": "bool"
        }
      ],
      "stateMutability": "nonpayable",
      "type": "function"
    },
    {
      "inputs": [
        {
          "internalType": "address",
          "name": "token",
          "type": "address"
        },
        {
          "internalType": "uint256",
          "name": "amount",
          "type": "uint256"
        }
      ],
      "name": "flashFee",
      "outputs": [
        {
          "internalType": "uint256",
          "name": "",
          "type": "uint256"
        }
      ],
      "stateMutability": "view",
      "type": "function"
    },
    {
      "inputs": [],
      "name": "flashFeeReceiver",
      "outputs": [
        {
          "internalType": "address",
          "name": "",
          "type": "address"
        }
      ],
      "stateMutability": "view",
      "type": "function"
    },
    {
      "inputs": [
        {
          "internalType": "contract IERC3156FlashBorrower",
          "name": "receiver",
          "type": "address"
        },
        {
          "internalType": "address",
          "name": "token",
          "type": "address"
        },
        {
          "internalType": "uint256",
          "name": "amount",
          "type": "uint256"
        },
        {
          "internalType": "bytes",
          "name": "data",
          "type": "bytes"
        }
      ],
      "name": "flashLoan",
      "outputs": [
        {
          "internalType": "bool",
          "name": "",
          "type": "bool"
        }
      ],
      "stateMutability": "nonpayable",
      "type": "function"
    },
    {
      "inputs": [
        {
          "internalType": "address",
          "name": "spender",
          "type": "address"
        },
        {
          "internalType": "uint256",
          "name": "addedValue",
          "type": "uint256"
        }
      ],
      "name": "increaseAllowance",
      "outputs": [
        {
          "internalType": "bool",
          "name": "",
          "type": "bool"
        }
      ],
      "stateMutability": "nonpayable",
      "type": "function"
    },
    {
      "inputs": [
        {
          "internalType": "address",
          "name": "token",
          "type": "address"
        }
      ],
      "name": "maxFlashLoan",
      "outputs": [
        {
          "internalType": "uint256",
          "name": "",
          "type": "uint256"
        }
      ],
      "stateMutability": "view",
      "type": "function"
    },
    {
      "inputs": [
        {
          "internalType": "address",
          "name": "account",
          "type": "address"
        },
        {
          "internalType": "uint256",
          "name": "amount",
          "type": "uint256"
        }
      ],
      "name": "mint",
      "outputs": [],
      "stateMutability": "nonpayable",
      "type": "function"
    },
    {
      "inputs": [],
      "name": "name",
      "outputs": [
        {
          "internalType": "string",
          "name": "",
          "type": "string"
        }
      ],
      "stateMutability": "view",
      "type": "function"
    },
    {
      "inputs": [
        {
          "internalType": "uint256",
          "name": "amount",
          "type": "uint256"
        }
      ],
      "name": "setFlashFee",
      "outputs": [],
      "stateMutability": "nonpayable",
      "type": "function"
    },
    {
      "inputs": [
        {
          "internalType": "address",
          "name": "receiver",
          "type": "address"
        }
      ],
      "name": "setFlashFeeReceiver",
      "outputs": [],
      "stateMutability": "nonpayable",
      "type": "function"
    },
    {
      "inputs": [],
      "name": "symbol",
      "outputs": [
        {
          "internalType": "string",
          "name": "",
          "type": "string"
        }
      ],
      "stateMutability": "view",
      "type": "function"
    },
    {
      "inputs": [],
      "name": "totalSupply",
      "outputs": [
        {
          "internalType": "uint256",
          "name": "",
          "type": "uint256"
        }
      ],
      "stateMutability": "view",
      "type": "function"
    },
    {
      "inputs": [
        {
          "internalType": "address",
          "name": "to",
          "type": "address"
        },
        {
          "internalType": "uint256",
          "name": "amount",
          "type": "uint256"
        }
      ],
      "name": "transfer",
      "outputs": [
        {
          "internalType": "bool",
          "name": "",
          "type": "bool"
        }
      ],
      "stateMutability": "nonpayable",
      "type": "function"
    },
    {
      "inputs": [
        {
          "internalType": "address",
          "name": "from",
          "type": "address"
        },
        {
          "internalType": "address",
          "name": "to",
          "type": "address"
        },
        {
          "internalType": "uint256",
          "name": "amount",
          "type": "uint256"
        }
      ],
      "name": "transferFrom",
      "outputs": [
        {
          "internalType": "bool",
          "name": "",
          "type": "bool"
        }
      ],
      "stateMutability": "nonpayable",
      "type": "function"
    }
  ],
  "bytecode": "0x60806040523480156200001157600080fd5b50604051620027c1380380620027c18339818101604052810190620000379190620004ee565b838381600390805190602001906200005192919062000201565b5080600490805190602001906200006a92919062000201565b5050506200007f82826200008960201b60201c565b5050505062000740565b600073ffffffffffffffffffffffffffffffffffffffff168273ffffffffffffffffffffffffffffffffffffffff161415620000fc576040517f08c379a0000000000000000000000000000000000000000000000000000000008152600401620000f390620005ff565b60405180910390fd5b6200011060008383620001f760201b60201c565b806002600082825462000124919062000650565b92505081905550806000808473ffffffffffffffffffffffffffffffffffffffff1673ffffffffffffffffffffffffffffffffffffffff168152602001908152602001600020600082825401925050819055508173ffffffffffffffffffffffffffffffffffffffff16600073ffffffffffffffffffffffffffffffffffffffff167fddf252ad1be2c89b69c2b068fc378daa952ba7f163c4a11628f55a4df523b3ef83604051620001d79190620006be565b60405180910390a3620001f360008383620001fc60201b60201c565b5050565b505050565b505050565b8280546200020f906200070a565b90600052602060002090601f0160209004810192826200023357600085556200027f565b82601f106200024e57805160ff19168380011785556200027f565b828001600101855582156200027f579182015b828111156200027e57825182559160200191906001019062000261565b5b5090506200028e919062000292565b5090565b5b80821115620002ad57600081600090555060010162000293565b5090565b6000604051905090565b600080fd5b600080fd5b600080fd5b600080fd5b6000601f19601f8301169050919050565b7f4e487b7100000000000000000000000000000000000000000000000000000000600052604160045260246000fd5b6200031a82620002cf565b810181811067ffffffffffffffff821117156200033c576200033b620002e0565b5b80604052505050565b600062000351620002b1565b90506200035f82826200030f565b919050565b600067ffffffffffffffff821115620003825762000381620002e0565b5b6200038d82620002cf565b9050602081019050919050565b60005b83811015620003ba5780820151818401526020810190506200039d565b83811115620003ca576000848401525b50505050565b6000620003e7620003e18462000364565b62000345565b905082815260208101848484011115620004065762000405620002ca565b5b620004138482856200039a565b509392505050565b600082601f830112620004335762000432620002c5565b5b815162000445848260208601620003d0565b91505092915050565b600073ffffffffffffffffffffffffffffffffffffffff82169050919050565b60006200047b826200044e565b9050919050565b6200048d816200046e565b81146200049957600080fd5b50565b600081519050620004ad8162000482565b92915050565b6000819050919050565b620004c881620004b3565b8114620004d457600080fd5b50565b600081519050620004e881620004bd565b92915050565b600080600080608085870312156200050b576200050a620002bb565b5b600085015167ffffffffffffffff8111156200052c576200052b620002c0565b5b6200053a878288016200041b565b945050602085015167ffffffffffffffff8111156200055e576200055d620002c0565b5b6200056c878288016200041b565b93505060406200057f878288016200049c565b92505060606200059287828801620004d7565b91505092959194509250565b600082825260208201905092915050565b7f45524332303a206d696e7420746f20746865207a65726f206164647265737300600082015250565b6000620005e7601f836200059e565b9150620005f482620005af565b602082019050919050565b600060208201905081810360008301526200061a81620005d8565b9050919050565b7f4e487b7100000000000000000000000000000000000000000000000000000000600052601160045260246000fd5b60006200065d82620004b3565b91506200066a83620004b3565b9250827fffffffffffffffffffffffffffffffffffffffffffffffffffffffffffffffff03821115620006a257620006a162000621565b5b828201905092915050565b620006b881620004b3565b82525050565b6000602082019050620006d56000830184620006ad565b92915050565b7f4e487b7100000000000000000000000000000000000000000000000000000000600052602260045260246000fd5b600060028204905060018216806200072357607f821691505b602082108114156200073a5762000739620006db565b5b50919050565b61207180620007506000396000f3fe608060405234801561001057600080fd5b50600436106101165760003560e01c8063613255ab116100a2578063a457c2d711610071578063a457c2d714610307578063a8b24f9a14610337578063a9059cbb14610355578063d9d98ce414610385578063dd62ed3e146103b557610116565b8063613255ab1461026d57806370a082311461029d578063907a267b146102cd57806395d89b41146102e957610116565b8063313ce567116100e9578063313ce567146101b757806339509351146101d557806340c10f191461020557806352741a40146102215780635cffe9de1461023d57610116565b806306fdde031461011b578063095ea7b31461013957806318160ddd1461016957806323b872dd14610187575b600080fd5b6101236103e5565b6040516101309190611344565b60405180910390f35b610153600480360381019061014e9190611404565b610477565b604051610160919061145f565b60405180910390f35b61017161049a565b60405161017e9190611489565b60405180910390f35b6101a1600480360381019061019c91906114a4565b6104a4565b6040516101ae919061145f565b60405180910390f35b6101bf6104d3565b6040516101cc9190611513565b60405180910390f35b6101ef60048036038101906101ea9190611404565b6104dc565b6040516101fc919061145f565b60405180910390f35b61021f600480360381019061021a9190611404565b610513565b005b61023b6004803603810190610236919061152e565b610521565b005b610257600480360381019061025291906115fe565b610565565b604051610264919061145f565b60405180910390f35b6102876004803603810190610282919061152e565b610761565b6040516102949190611489565b60405180910390f35b6102b760048036038101906102b2919061152e565b6107d8565b6040516102c49190611489565b60405180910390f35b6102e760048036038101906102e29190611686565b610820565b005b6102f161082a565b6040516102fe9190611344565b60405180910390f35b610321600480360381019061031c9190611404565b6108bc565b60405161032e919061145f565b60405180910390f35b61033f610933565b60405161034c91906116c2565b60405180910390f35b61036f600480360381019061036a9190611404565b610942565b60405161037c919061145f565b60405180910390f35b61039f600480360381019061039a9190611404565b610965565b6040516103ac9190611489565b60405180910390f35b6103cf60048036038101906103ca91906116dd565b6109e7565b6040516103dc9190611489565b60405180910390f35b6060600380546103f49061174c565b80601f01602080910402602001604051908101604052809291908181526020018280546104209061174c565b801561046d5780601f106104425761010080835404028352916020019161046d565b820191906000526020600020905b81548152906001019060200180831161045057829003601f168201915b5050505050905090565b600080610482610a6e565b905061048f818585610a76565b600191505092915050565b6000600254905090565b6000806104af610a6e565b90506104bc858285610c41565b6104c7858585610ccd565b60019150509392505050565b60006012905090565b6000806104e7610a6e565b90506105088185856104f985896109e7565b61050391906117ad565b610a76565b600191505092915050565b61051d8282610f45565b5050565b80600660006101000a81548173ffffffffffffffffffffffffffffffffffffffff021916908373ffffffffffffffffffffffffffffffffffffffff16021790555050565b600061057085610761565b8411156105b2576040517f08c379a00000000000000000000000000000000000000000000000000000000081526004016105a990611875565b60405180910390fd5b60006105be8686610965565b90506105ca8786610f45565b7f439148f0bbc682ca079e46d6e2c2f0c1e3b820f1a291b069d8882abf8cf18dd98773ffffffffffffffffffffffffffffffffffffffff166323e30c8b338989868a8a6040518763ffffffff1660e01b815260040161062e969594939291906118e2565b602060405180830381600087803b15801561064857600080fd5b505af115801561065c573d6000803e3d6000fd5b505050506040513d601f19601f820116820180604052508101906106809190611974565b146106c0576040517f08c379a00000000000000000000000000000000000000000000000000000000081526004016106b790611a13565b60405180910390fd5b60006106ca61109c565b90506106e2883084896106dd91906117ad565b610c41565b600082148061071d5750600073ffffffffffffffffffffffffffffffffffffffff168173ffffffffffffffffffffffffffffffffffffffff16145b1561073c5761073788838861073291906117ad565b6110c6565b610752565b61074688876110c6565b610751888284610ccd565b5b60019250505095945050505050565b60003073ffffffffffffffffffffffffffffffffffffffff168273ffffffffffffffffffffffffffffffffffffffff161461079d5760006107d1565b6107a561049a565b7fffffffffffffffffffffffffffffffffffffffffffffffffffffffffffffffff6107d09190611a33565b5b9050919050565b60008060008373ffffffffffffffffffffffffffffffffffffffff1673ffffffffffffffffffffffffffffffffffffffff168152602001908152602001600020549050919050565b8060058190555050565b6060600480546108399061174c565b80601f01602080910402602001604051908101604052809291908181526020018280546108659061174c565b80156108b25780601f10610887576101008083540402835291602001916108b2565b820191906000526020600020905b81548152906001019060200180831161089557829003601f168201915b5050505050905090565b6000806108c7610a6e565b905060006108d582866109e7565b90508381101561091a576040517f08c379a000000000000000000000000000000000000000000000000000000000815260040161091190611ad9565b60405180910390fd5b6109278286868403610a76565b60019250505092915050565b600061093d61109c565b905090565b60008061094d610a6e565b905061095a818585610ccd565b600191505092915050565b60003073ffffffffffffffffffffffffffffffffffffffff168373ffffffffffffffffffffffffffffffffffffffff16146109d5576040517f08c379a00000000000000000000000000000000000000000000000000000000081526004016109cc90611b45565b60405180910390fd5b6109df8383611294565b905092915050565b6000600160008473ffffffffffffffffffffffffffffffffffffffff1673ffffffffffffffffffffffffffffffffffffffff16815260200190815260200160002060008373ffffffffffffffffffffffffffffffffffffffff1673ffffffffffffffffffffffffffffffffffffffff16815260200190815260200160002054905092915050565b600033905090565b600073ffffffffffffffffffffffffffffffffffffffff168373ffffffffffffffffffffffffffffffffffffffff161415610ae6576040517f08c379a0000000000000000000000000000000000000000000000000000000008152600401610add90611bd7565b60405180910390fd5b600073ffffffffffffffffffffffffffffffffffffffff168273ffffffffffffffffffffffffffffffffffffffff161415610b56576040517f08c379a0000000000000000000000000000000000000000000000000000000008152600401610b4d90611c69565b60405180910390fd5b80600160008573ffffffffffffffffffffffffffffffffffffffff1673ffffffffffffffffffffffffffffffffffffffff16815260200190815260200160002060008473ffffffffffffffffffffffffffffffffffffffff1673ffffffffffffffffffffffffffffffffffffffff168152602001908152602001600020819055508173ffffffffffffffffffffffffffffffffffffffff168373ffffffffffffffffffffffffffffffffffffffff167f8c5be1e5ebec7d5bd14f71427d1e84f3dd0314c0f7b2291e5b200ac8c7c3b92583604051610c349190611489565b60405180910390a3505050565b6000610c4d84846109e7565b90507fffffffffffffffffffffffffffffffffffffffffffffffffffffffffffffffff8114610cc75781811015610cb9576040517f08c379a0000000000000000000000000000000000000000000000000000000008152600401610cb090611cd5565b60405180910390fd5b610cc68484848403610a76565b5b50505050565b600073ffffffffffffffffffffffffffffffffffffffff168373ffffffffffffffffffffffffffffffffffffffff161415610d3d576040517f08c379a0000000000000000000000000000000000000000000000000000000008152600401610d3490611d67565b60405180910390fd5b600073ffffffffffffffffffffffffffffffffffffffff168273ffffffffffffffffffffffffffffffffffffffff161415610dad576040517f08c379a0000000000000000000000000000000000000000000000000000000008152600401610da490611df9565b60405180910390fd5b610db88383836112a1565b60008060008573ffffffffffffffffffffffffffffffffffffffff1673ffffffffffffffffffffffffffffffffffffffff16815260200190815260200160002054905081811015610e3e576040517f08c379a0000000000000000000000000000000000000000000000000000000008152600401610e3590611e8b565b60405180910390fd5b8181036000808673ffffffffffffffffffffffffffffffffffffffff1673ffffffffffffffffffffffffffffffffffffffff16815260200190815260200160002081905550816000808573ffffffffffffffffffffffffffffffffffffffff1673ffffffffffffffffffffffffffffffffffffffff168152602001908152602001600020600082825401925050819055508273ffffffffffffffffffffffffffffffffffffffff168473ffffffffffffffffffffffffffffffffffffffff167fddf252ad1be2c89b69c2b068fc378daa952ba7f163c4a11628f55a4df523b3ef84604051610f2c9190611489565b60405180910390a3610f3f8484846112a6565b50505050565b600073ffffffffffffffffffffffffffffffffffffffff168273ffffffffffffffffffffffffffffffffffffffff161415610fb5576040517f08c379a0000000000000000000000000000000000000000000000000000000008152600401610fac90611ef7565b60405180910390fd5b610fc1600083836112a1565b8060026000828254610fd391906117ad565b92505081905550806000808473ffffffffffffffffffffffffffffffffffffffff1673ffffffffffffffffffffffffffffffffffffffff168152602001908152602001600020600082825401925050819055508173ffffffffffffffffffffffffffffffffffffffff16600073ffffffffffffffffffffffffffffffffffffffff167fddf252ad1be2c89b69c2b068fc378daa952ba7f163c4a11628f55a4df523b3ef836040516110849190611489565b60405180910390a3611098600083836112a6565b5050565b6000600660009054906101000a900473ffffffffffffffffffffffffffffffffffffffff16905090565b600073ffffffffffffffffffffffffffffffffffffffff168273ffffffffffffffffffffffffffffffffffffffff161415611136576040517f08c379a000000000000000000000000000000000000000000000000000000000815260040161112d90611f89565b60405180910390fd5b611142826000836112a1565b60008060008473ffffffffffffffffffffffffffffffffffffffff1673ffffffffffffffffffffffffffffffffffffffff168152602001908152602001600020549050818110156111c8576040517f08c379a00000000000000000000000000000000000000000000000000000000081526004016111bf9061201b565b60405180910390fd5b8181036000808573ffffffffffffffffffffffffffffffffffffffff1673ffffffffffffffffffffffffffffffffffffffff1681526020019081526020016000208190555081600260008282540392505081905550600073ffffffffffffffffffffffffffffffffffffffff168373ffffffffffffffffffffffffffffffffffffffff167fddf252ad1be2c89b69c2b068fc378daa952ba7f163c4a11628f55a4df523b3ef8460405161127b9190611489565b60405180910390a361128f836000846112a6565b505050565b6000600554905092915050565b505050565b505050565b600081519050919050565b600082825260208201905092915050565b60005b838110156112e55780820151818401526020810190506112ca565b838111156112f4576000848401525b50505050565b6000601f19601f8301169050919050565b6000611316826112ab565b61132081856112b6565b93506113308185602086016112c7565b611339816112fa565b840191505092915050565b6000602082019050818103600083015261135e818461130b565b905092915050565b600080fd5b600080fd5b600073ffffffffffffffffffffffffffffffffffffffff82169050919050565b600061139b82611370565b9050919050565b6113ab81611390565b81146113b657600080fd5b50565b6000813590506113c8816113a2565b92915050565b6000819050919050565b6113e1816113ce565b81146113ec57600080fd5b50565b6000813590506113fe816113d8565b92915050565b6000806040838503121561141b5761141a611366565b5b6000611429858286016113b9565b925050602061143a858286016113ef565b9150509250929050565b60008115159050919050565b61145981611444565b82525050565b60006020820190506114746000830184611450565b92915050565b611483816113ce565b82525050565b600060208201905061149e600083018461147a565b92915050565b6000806000606084860312156114bd576114bc611366565b5b60006114cb868287016113b9565b93505060206114dc868287016113b9565b92505060406114ed868287016113ef565b9150509250925092565b600060ff82169050919050565b61150d816114f7565b82525050565b60006020820190506115286000830184611504565b92915050565b60006020828403121561154457611543611366565b5b6000611552848285016113b9565b91505092915050565b600061156682611390565b9050919050565b6115768161155b565b811461158157600080fd5b50565b6000813590506115938161156d565b92915050565b600080fd5b600080fd5b600080fd5b60008083601f8401126115be576115bd611599565b5b8235905067ffffffffffffffff8111156115db576115da61159e565b5b6020830191508360018202830111156115f7576115f66115a3565b5b9250929050565b60008060008060006080868803121561161a57611619611366565b5b600061162888828901611584565b9550506020611639888289016113b9565b945050604061164a888289016113ef565b935050606086013567ffffffffffffffff81111561166b5761166a61136b565b5b611677888289016115a8565b92509250509295509295909350565b60006020828403121561169c5761169b611366565b5b60006116aa848285016113ef565b91505092915050565b6116bc81611390565b82525050565b60006020820190506116d760008301846116b3565b92915050565b600080604083850312156116f4576116f3611366565b5b6000611702858286016113b9565b9250506020611713858286016113b9565b9150509250929050565b7f4e487b7100000000000000000000000000000000000000000000000000000000600052602260045260246000fd5b6000600282049050600182168061176457607f821691505b602082108114156117785761177761171d565b5b50919050565b7f4e487b7100000000000000000000000000000000000000000000000000000000600052601160045260246000fd5b60006117b8826113ce565b91506117c3836113ce565b9250827fffffffffffffffffffffffffffffffffffffffffffffffffffffffffffffffff038211156117f8576117f761177e565b5b828201905092915050565b7f4552433230466c6173684d696e743a20616d6f756e742065786365656473206d60008201527f6178466c6173684c6f616e000000000000000000000000000000000000000000602082015250565b600061185f602b836112b6565b915061186a82611803565b604082019050919050565b6000602082019050818103600083015261188e81611852565b9050919050565b600082825260208201905092915050565b82818337600083830152505050565b60006118c18385611895565b93506118ce8385846118a6565b6118d7836112fa565b840190509392505050565b600060a0820190506118f760008301896116b3565b61190460208301886116b3565b611911604083018761147a565b61191e606083018661147a565b81810360808301526119318184866118b5565b9050979650505050505050565b6000819050919050565b6119518161193e565b811461195c57600080fd5b50565b60008151905061196e81611948565b92915050565b60006020828403121561198a57611989611366565b5b60006119988482850161195f565b91505092915050565b7f4552433230466c6173684d696e743a20696e76616c69642072657475726e207660008201527f616c756500000000000000000000000000000000000000000000000000000000602082015250565b60006119fd6024836112b6565b9150611a08826119a1565b604082019050919050565b60006020820190508181036000830152611a2c816119f0565b9050919050565b6000611a3e826113ce565b9150611a49836113ce565b925082821015611a5c57611a5b61177e565b5b828203905092915050565b7f45524332303a2064656372656173656420616c6c6f77616e63652062656c6f7760008201527f207a65726f000000000000000000000000000000000000000000000000000000602082015250565b6000611ac36025836112b6565b9150611ace82611a67565b604082019050919050565b60006020820190508181036000830152611af281611ab6565b9050919050565b7f4552433230466c6173684d696e743a2077726f6e6720746f6b656e0000000000600082015250565b6000611b2f601b836112b6565b9150611b3a82611af9565b602082019050919050565b60006020820190508181036000830152611b5e81611b22565b9050919050565b7f45524332303a20617070726f76652066726f6d20746865207a65726f2061646460008201527f7265737300000000000000000000000000000000000000000000000000000000602082015250565b6000611bc16024836112b6565b9150611bcc82611b65565b604082019050919050565b60006020820190508181036000830152611bf081611bb4565b9050919050565b7f45524332303a20617070726f766520746f20746865207a65726f20616464726560008201527f7373000000000000000000000000000000000000000000000000000000000000602082015250565b6000611c536022836112b6565b9150611c5e82611bf7565b604082019050919050565b60006020820190508181036000830152611c8281611c46565b9050919050565b7f45524332303a20696e73756666696369656e7420616c6c6f77616e6365000000600082015250565b6000611cbf601d836112b6565b9150611cca82611c89565b602082019050919050565b60006020820190508181036000830152611cee81611cb2565b9050919050565b7f45524332303a207472616e736665722066726f6d20746865207a65726f20616460008201527f6472657373000000000000000000000000000000000000000000000000000000602082015250565b6000611d516025836112b6565b9150611d5c82611cf5565b604082019050919050565b60006020820190508181036000830152611d8081611d44565b9050919050565b7f45524332303a207472616e7366657220746f20746865207a65726f206164647260008201527f6573730000000000000000000000000000000000000000000000000000000000602082015250565b6000611de36023836112b6565b9150611dee82611d87565b604082019050919050565b60006020820190508181036000830152611e1281611dd6565b9050919050565b7f45524332303a207472616e7366657220616d6f756e742065786365656473206260008201527f616c616e63650000000000000000000000000000000000000000000000000000602082015250565b6000611e756026836112b6565b9150611e8082611e19565b604082019050919050565b60006020820190508181036000830152611ea481611e68565b9050919050565b7f45524332303a206d696e7420746f20746865207a65726f206164647265737300600082015250565b6000611ee1601f836112b6565b9150611eec82611eab565b602082019050919050565b60006020820190508181036000830152611f1081611ed4565b9050919050565b7f45524332303a206275726e2066726f6d20746865207a65726f2061646472657360008201527f7300000000000000000000000000000000000000000000000000000000000000602082015250565b6000611f736021836112b6565b9150611f7e82611f17565b604082019050919050565b60006020820190508181036000830152611fa281611f66565b9050919050565b7f45524332303a206275726e20616d6f756e7420657863656564732062616c616e60008201527f6365000000000000000000000000000000000000000000000000000000000000602082015250565b60006120056022836112b6565b915061201082611fa9565b604082019050919050565b6000602082019050818103600083015261203481611ff8565b905091905056fea264697066735822122021efbed04c2fc7c989701a8d9448c19e3dad3ac79165e6d7edb0da6eb3b9181c64736f6c63430008090033",
  "linkReferences": {},
  "deployedLinkReferences": {}
}