{
  "_format": "hh-sol-artifact-1",
  "contractName": "ERC721VotesMock",
  "sourceName": "contracts/openzeppelin/mocks/ERC721VotesMock.sol",
  "abi": [
    {
      "inputs": [
        {
          "internalType": "string",
          "name": "name",
          "type": "string"
        },
        {
          "internalType": "string",
          "name": "symbol",
          "type": "string"
        }
      ],
      "stateMutability": "nonpayable",
      "type": "constructor"
    },
    {
      "anonymous": false,
      "inputs": [
        {
          "indexed": true,
          "internalType": "address",
          "name": "owner",
          "type": "address"
        },
        {
          "indexed": true,
          "internalType": "address",
          "name": "approved",
          "type": "address"
        },
        {
          "indexed": true,
          "internalType": "uint256",
          "name": "tokenId",
          "type": "uint256"
        }
      ],
      "name": "Approval",
      "type": "event"
    },
    {
      "anonymous": false,
      "inputs": [
        {
          "indexed": true,
          "internalType": "address",
          "name": "owner",
          "type": "address"
        },
        {
          "indexed": true,
          "internalType": "address",
          "name": "operator",
          "type": "address"
        },
        {
          "indexed": false,
          "internalType": "bool",
          "name": "approved",
          "type": "bool"
        }
      ],
      "name": "ApprovalForAll",
      "type": "event"
    },
    {
      "anonymous": false,
      "inputs": [
        {
          "indexed": true,
          "internalType": "address",
          "name": "delegator",
          "type": "address"
        },
        {
          "indexed": true,
          "internalType": "address",
          "name": "fromDelegate",
          "type": "address"
        },
        {
          "indexed": true,
          "internalType": "address",
          "name": "toDelegate",
          "type": "address"
        }
      ],
      "name": "DelegateChanged",
      "type": "event"
    },
    {
      "anonymous": false,
      "inputs": [
        {
          "indexed": true,
          "internalType": "address",
          "name": "delegate",
          "type": "address"
        },
        {
          "indexed": false,
          "internalType": "uint256",
          "name": "previousBalance",
          "type": "uint256"
        },
        {
          "indexed": false,
          "internalType": "uint256",
          "name": "newBalance",
          "type": "uint256"
        }
      ],
      "name": "DelegateVotesChanged",
      "type": "event"
    },
    {
      "anonymous": false,
      "inputs": [
        {
          "indexed": true,
          "internalType": "address",
          "name": "from",
          "type": "address"
        },
        {
          "indexed": true,
          "internalType": "address",
          "name": "to",
          "type": "address"
        },
        {
          "indexed": true,
          "internalType": "uint256",
          "name": "tokenId",
          "type": "uint256"
        }
      ],
      "name": "Transfer",
      "type": "event"
    },
    {
      "inputs": [],
      "name": "DOMAIN_SEPARATOR",
      "outputs": [
        {
          "internalType": "bytes32",
          "name": "",
          "type": "bytes32"
        }
      ],
      "stateMutability": "view",
      "type": "function"
    },
    {
      "inputs": [
        {
          "internalType": "address",
          "name": "to",
          "type": "address"
        },
        {
          "internalType": "uint256",
          "name": "tokenId",
          "type": "uint256"
        }
      ],
      "name": "approve",
      "outputs": [],
      "stateMutability": "nonpayable",
      "type": "function"
    },
    {
      "inputs": [
        {
          "internalType": "address",
          "name": "owner",
          "type": "address"
        }
      ],
      "name": "balanceOf",
      "outputs": [
        {
          "internalType": "uint256",
          "name": "",
          "type": "uint256"
        }
      ],
      "stateMutability": "view",
      "type": "function"
    },
    {
      "inputs": [
        {
          "internalType": "uint256",
          "name": "tokenId",
          "type": "uint256"
        }
      ],
      "name": "burn",
      "outputs": [],
      "stateMutability": "nonpayable",
      "type": "function"
    },
    {
      "inputs": [
        {
          "internalType": "address",
          "name": "delegatee",
          "type": "address"
        }
      ],
      "name": "delegate",
      "outputs": [],
      "stateMutability": "nonpayable",
      "type": "function"
    },
    {
      "inputs": [
        {
          "internalType": "address",
          "name": "delegatee",
          "type": "address"
        },
        {
          "internalType": "uint256",
          "name": "nonce",
          "type": "uint256"
        },
        {
          "internalType": "uint256",
          "name": "expiry",
          "type": "uint256"
        },
        {
          "internalType": "uint8",
          "name": "v",
          "type": "uint8"
        },
        {
          "internalType": "bytes32",
          "name": "r",
          "type": "bytes32"
        },
        {
          "internalType": "bytes32",
          "name": "s",
          "type": "bytes32"
        }
      ],
      "name": "delegateBySig",
      "outputs": [],
      "stateMutability": "nonpayable",
      "type": "function"
    },
    {
      "inputs": [
        {
          "internalType": "address",
          "name": "account",
          "type": "address"
        }
      ],
      "name": "delegates",
      "outputs": [
        {
          "internalType": "address",
          "name": "",
          "type": "address"
        }
      ],
      "stateMutability": "view",
      "type": "function"
    },
    {
      "inputs": [
        {
          "internalType": "uint256",
          "name": "tokenId",
          "type": "uint256"
        }
      ],
      "name": "getApproved",
      "outputs": [
        {
          "internalType": "address",
          "name": "",
          "type": "address"
        }
      ],
      "stateMutability": "view",
      "type": "function"
    },
    {
      "inputs": [],
      "name": "getChainId",
      "outputs": [
        {
          "internalType": "uint256",
          "name": "",
          "type": "uint256"
        }
      ],
      "stateMutability": "view",
      "type": "function"
    },
    {
      "inputs": [
        {
          "internalType": "uint256",
          "name": "blockNumber",
          "type": "uint256"
        }
      ],
      "name": "getPastTotalSupply",
      "outputs": [
        {
          "internalType": "uint256",
          "name": "",
          "type": "uint256"
        }
      ],
      "stateMutability": "view",
      "type": "function"
    },
    {
      "inputs": [
        {
          "internalType": "address",
          "name": "account",
          "type": "address"
        },
        {
          "internalType": "uint256",
          "name": "blockNumber",
          "type": "uint256"
        }
      ],
      "name": "getPastVotes",
      "outputs": [
        {
          "internalType": "uint256",
          "name": "",
          "type": "uint256"
        }
      ],
      "stateMutability": "view",
      "type": "function"
    },
    {
      "inputs": [],
      "name": "getTotalSupply",
      "outputs": [
        {
          "internalType": "uint256",
          "name": "",
          "type": "uint256"
        }
      ],
      "stateMutability": "view",
      "type": "function"
    },
    {
      "inputs": [
        {
          "internalType": "address",
          "name": "account",
          "type": "address"
        }
      ],
      "name": "getVotes",
      "outputs": [
        {
          "internalType": "uint256",
          "name": "",
          "type": "uint256"
        }
      ],
      "stateMutability": "view",
      "type": "function"
    },
    {
      "inputs": [
        {
          "internalType": "address",
          "name": "owner",
          "type": "address"
        },
        {
          "internalType": "address",
          "name": "operator",
          "type": "address"
        }
      ],
      "name": "isApprovedForAll",
      "outputs": [
        {
          "internalType": "bool",
          "name": "",
          "type": "bool"
        }
      ],
      "stateMutability": "view",
      "type": "function"
    },
    {
      "inputs": [
        {
          "internalType": "address",
          "name": "account",
          "type": "address"
        },
        {
          "internalType": "uint256",
          "name": "tokenId",
          "type": "uint256"
        }
      ],
      "name": "mint",
      "outputs": [],
      "stateMutability": "nonpayable",
      "type": "function"
    },
    {
      "inputs": [],
      "name": "name",
      "outputs": [
        {
          "internalType": "string",
          "name": "",
          "type": "string"
        }
      ],
      "stateMutability": "view",
      "type": "function"
    },
    {
      "inputs": [
        {
          "internalType": "address",
          "name": "owner",
          "type": "address"
        }
      ],
      "name": "nonces",
      "outputs": [
        {
          "internalType": "uint256",
          "name": "",
          "type": "uint256"
        }
      ],
      "stateMutability": "view",
      "type": "function"
    },
    {
      "inputs": [
        {
          "internalType": "uint256",
          "name": "tokenId",
          "type": "uint256"
        }
      ],
      "name": "ownerOf",
      "outputs": [
        {
          "internalType": "address",
          "name": "",
          "type": "address"
        }
      ],
      "stateMutability": "view",
      "type": "function"
    },
    {
      "inputs": [
        {
          "internalType": "address",
          "name": "from",
          "type": "address"
        },
        {
          "internalType": "address",
          "name": "to",
          "type": "address"
        },
        {
          "internalType": "uint256",
          "name": "tokenId",
          "type": "uint256"
        }
      ],
      "name": "safeTransferFrom",
      "outputs": [],
      "stateMutability": "nonpayable",
      "type": "function"
    },
    {
      "inputs": [
        {
          "internalType": "address",
          "name": "from",
          "type": "address"
        },
        {
          "internalType": "address",
          "name": "to",
          "type": "address"
        },
        {
          "internalType": "uint256",
          "name": "tokenId",
          "type": "uint256"
        },
        {
          "internalType": "bytes",
          "name": "data",
          "type": "bytes"
        }
      ],
      "name": "safeTransferFrom",
      "outputs": [],
      "stateMutability": "nonpayable",
      "type": "function"
    },
    {
      "inputs": [
        {
          "internalType": "address",
          "name": "operator",
          "type": "address"
        },
        {
          "internalType": "bool",
          "name": "approved",
          "type": "bool"
        }
      ],
      "name": "setApprovalForAll",
      "outputs": [],
      "stateMutability": "nonpayable",
      "type": "function"
    },
    {
      "inputs": [
        {
          "internalType": "bytes4",
          "name": "interfaceId",
          "type": "bytes4"
        }
      ],
      "name": "supportsInterface",
      "outputs": [
        {
          "internalType": "bool",
          "name": "",
          "type": "bool"
        }
      ],
      "stateMutability": "view",
      "type": "function"
    },
    {
      "inputs": [],
      "name": "symbol",
      "outputs": [
        {
          "internalType": "string",
          "name": "",
          "type": "string"
        }
      ],
      "stateMutability": "view",
      "type": "function"
    },
    {
      "inputs": [
        {
          "internalType": "uint256",
          "name": "tokenId",
          "type": "uint256"
        }
      ],
      "name": "tokenURI",
      "outputs": [
        {
          "internalType": "string",
          "name": "",
          "type": "string"
        }
      ],
      "stateMutability": "view",
      "type": "function"
    },
    {
      "inputs": [
        {
          "internalType": "address",
          "name": "from",
          "type": "address"
        },
        {
          "internalType": "address",
          "name": "to",
          "type": "address"
        },
        {
          "internalType": "uint256",
          "name": "tokenId",
          "type": "uint256"
        }
      ],
      "name": "transferFrom",
      "outputs": [],
      "stateMutability": "nonpayable",
      "type": "function"
    }
  ],
  "bytecode": "0x6101406040523480156200001257600080fd5b5060405162004d6038038062004d608339818101604052810190620000389190620003e8565b816040518060400160405280600181526020017f310000000000000000000000000000000000000000000000000000000000000081525083838160009080519060200190620000899291906200019b565b508060019080519060200190620000a29291906200019b565b50505060008280519060200120905060008280519060200120905060007f8b73c3c69bb8fe3d512ecc4cf759cc79239f7b179b0ffacaa9a75d522b39400f90508260e081815250508161010081815250504660a081815250506200010e8184846200015f60201b60201c565b608081815250503073ffffffffffffffffffffffffffffffffffffffff1660c08173ffffffffffffffffffffffffffffffffffffffff168152505080610120818152505050505050505050620005aa565b600083838346306040516020016200017c959493929190620004e8565b6040516020818303038152906040528051906020012090509392505050565b828054620001a99062000574565b90600052602060002090601f016020900481019282620001cd576000855562000219565b82601f10620001e857805160ff191683800117855562000219565b8280016001018555821562000219579182015b8281111562000218578251825591602001919060010190620001fb565b5b5090506200022891906200022c565b5090565b5b80821115620002475760008160009055506001016200022d565b5090565b6000604051905090565b600080fd5b600080fd5b600080fd5b600080fd5b6000601f19601f8301169050919050565b7f4e487b7100000000000000000000000000000000000000000000000000000000600052604160045260246000fd5b620002b48262000269565b810181811067ffffffffffffffff82111715620002d657620002d56200027a565b5b80604052505050565b6000620002eb6200024b565b9050620002f98282620002a9565b919050565b600067ffffffffffffffff8211156200031c576200031b6200027a565b5b620003278262000269565b9050602081019050919050565b60005b838110156200035457808201518184015260208101905062000337565b8381111562000364576000848401525b50505050565b6000620003816200037b84620002fe565b620002df565b905082815260208101848484011115620003a0576200039f62000264565b5b620003ad84828562000334565b509392505050565b600082601f830112620003cd57620003cc6200025f565b5b8151620003df8482602086016200036a565b91505092915050565b6000806040838503121562000402576200040162000255565b5b600083015167ffffffffffffffff8111156200042357620004226200025a565b5b6200043185828601620003b5565b925050602083015167ffffffffffffffff8111156200045557620004546200025a565b5b6200046385828601620003b5565b9150509250929050565b6000819050919050565b62000482816200046d565b82525050565b6000819050919050565b6200049d8162000488565b82525050565b600073ffffffffffffffffffffffffffffffffffffffff82169050919050565b6000620004d082620004a3565b9050919050565b620004e281620004c3565b82525050565b600060a082019050620004ff600083018862000477565b6200050e602083018762000477565b6200051d604083018662000477565b6200052c606083018562000492565b6200053b6080830184620004d7565b9695505050505050565b7f4e487b7100000000000000000000000000000000000000000000000000000000600052602260045260246000fd5b600060028204905060018216806200058d57607f821691505b60208210811415620005a457620005a362000545565b5b50919050565b60805160a05160c05160e0516101005161012051614766620005fa60003960006114a3015260006114e5015260006114c4015260006113f90152600061144f0152600061147801526147666000f3fe608060405234801561001057600080fd5b50600436106101735760003560e01c80635c19a95c116100de5780639ab24eb011610097578063c3cda52011610071578063c3cda52014610480578063c4e41b221461049c578063c87b56dd146104ba578063e985e9c5146104ea57610173565b80639ab24eb014610418578063a22cb46514610448578063b88d4fde1461046457610173565b80635c19a95c1461031e5780636352211e1461033a57806370a082311461036a5780637ecebe001461039a5780638e539e8c146103ca57806395d89b41146103fa57610173565b80633644e515116101305780633644e5151461024c5780633a46b1a81461026a57806340c10f191461029a57806342842e0e146102b657806342966c68146102d2578063587cde1e146102ee57610173565b806301ffc9a71461017857806306fdde03146101a8578063081812fc146101c6578063095ea7b3146101f657806323b872dd146102125780633408e4701461022e575b600080fd5b610192600480360381019061018d91906131b6565b61051a565b60405161019f91906131fe565b60405180910390f35b6101b06105fc565b6040516101bd91906132b2565b60405180910390f35b6101e060048036038101906101db919061330a565b61068e565b6040516101ed9190613378565b60405180910390f35b610210600480360381019061020b91906133bf565b6106d4565b005b61022c600480360381019061022791906133ff565b6107ec565b005b61023661084c565b6040516102439190613461565b60405180910390f35b610254610854565b6040516102619190613495565b60405180910390f35b610284600480360381019061027f91906133bf565b610863565b6040516102919190613461565b60405180910390f35b6102b460048036038101906102af91906133bf565b6108be565b005b6102d060048036038101906102cb91906133ff565b6108cc565b005b6102ec60048036038101906102e7919061330a565b6108ec565b005b610308600480360381019061030391906134b0565b6108f8565b6040516103159190613378565b60405180910390f35b610338600480360381019061033391906134b0565b610961565b005b610354600480360381019061034f919061330a565b61097b565b6040516103619190613378565b60405180910390f35b610384600480360381019061037f91906134b0565b610a02565b6040516103919190613461565b60405180910390f35b6103b460048036038101906103af91906134b0565b610aba565b6040516103c19190613461565b60405180910390f35b6103e460048036038101906103df919061330a565b610b0a565b6040516103f19190613461565b60405180910390f35b610402610b69565b60405161040f91906132b2565b60405180910390f35b610432600480360381019061042d91906134b0565b610bfb565b60405161043f9190613461565b60405180910390f35b610462600480360381019061045d9190613509565b610c69565b005b61047e6004803603810190610479919061367e565b610c7f565b005b61049a60048036038101906104959190613766565b610ce1565b005b6104a4610de5565b6040516104b19190613461565b60405180910390f35b6104d460048036038101906104cf919061330a565b610df4565b6040516104e191906132b2565b60405180910390f35b61050460048036038101906104ff91906137f3565b610e5c565b60405161051191906131fe565b60405180910390f35b60007f80ac58cd000000000000000000000000000000000000000000000000000000007bffffffffffffffffffffffffffffffffffffffffffffffffffffffff1916827bffffffffffffffffffffffffffffffffffffffffffffffffffffffff191614806105e557507f5b5e139f000000000000000000000000000000000000000000000000000000007bffffffffffffffffffffffffffffffffffffffffffffffffffffffff1916827bffffffffffffffffffffffffffffffffffffffffffffffffffffffff1916145b806105f557506105f482610ef0565b5b9050919050565b60606000805461060b90613862565b80601f016020809104026020016040519081016040528092919081815260200182805461063790613862565b80156106845780601f1061065957610100808354040283529160200191610684565b820191906000526020600020905b81548152906001019060200180831161066757829003601f168201915b5050505050905090565b600061069982610f5a565b6004600083815260200190815260200160002060009054906101000a900473ffffffffffffffffffffffffffffffffffffffff169050919050565b60006106df8261097b565b90508073ffffffffffffffffffffffffffffffffffffffff168373ffffffffffffffffffffffffffffffffffffffff161415610750576040517f08c379a000000000000000000000000000000000000000000000000000000000815260040161074790613906565b60405180910390fd5b8073ffffffffffffffffffffffffffffffffffffffff1661076f610fa5565b73ffffffffffffffffffffffffffffffffffffffff16148061079e575061079d81610798610fa5565b610e5c565b5b6107dd576040517f08c379a00000000000000000000000000000000000000000000000000000000081526004016107d490613998565b60405180910390fd5b6107e78383610fad565b505050565b6107fd6107f7610fa5565b82611066565b61083c576040517f08c379a000000000000000000000000000000000000000000000000000000000815260040161083390613a2a565b60405180910390fd5b6108478383836110fb565b505050565b600046905090565b600061085e6113f5565b905090565b60006108b682600760008673ffffffffffffffffffffffffffffffffffffffff1673ffffffffffffffffffffffffffffffffffffffff16815260200190815260200160002061150f90919063ffffffff16565b905092915050565b6108c88282611674565b5050565b6108e783838360405180602001604052806000815250610c7f565b505050565b6108f581611892565b50565b6000600660008373ffffffffffffffffffffffffffffffffffffffff1673ffffffffffffffffffffffffffffffffffffffff16815260200190815260200160002060009054906101000a900473ffffffffffffffffffffffffffffffffffffffff169050919050565b600061096b610fa5565b905061097781836119e0565b5050565b60008061098783611af4565b9050600073ffffffffffffffffffffffffffffffffffffffff168173ffffffffffffffffffffffffffffffffffffffff1614156109f9576040517f08c379a00000000000000000000000000000000000000000000000000000000081526004016109f090613a96565b60405180910390fd5b80915050919050565b60008073ffffffffffffffffffffffffffffffffffffffff168273ffffffffffffffffffffffffffffffffffffffff161415610a73576040517f08c379a0000000000000000000000000000000000000000000000000000000008152600401610a6a90613b28565b60405180910390fd5b600360008373ffffffffffffffffffffffffffffffffffffffff1673ffffffffffffffffffffffffffffffffffffffff168152602001908152602001600020549050919050565b6000610b03600960008473ffffffffffffffffffffffffffffffffffffffff1673ffffffffffffffffffffffffffffffffffffffff168152602001908152602001600020611b31565b9050919050565b6000438210610b4e576040517f08c379a0000000000000000000000000000000000000000000000000000000008152600401610b4590613b94565b60405180910390fd5b610b6282600861150f90919063ffffffff16565b9050919050565b606060018054610b7890613862565b80601f0160208091040260200160405190810160405280929190818152602001828054610ba490613862565b8015610bf15780601f10610bc657610100808354040283529160200191610bf1565b820191906000526020600020905b815481529060010190602001808311610bd457829003601f168201915b5050505050905090565b6000610c44600760008473ffffffffffffffffffffffffffffffffffffffff1673ffffffffffffffffffffffffffffffffffffffff168152602001908152602001600020611b3f565b7bffffffffffffffffffffffffffffffffffffffffffffffffffffffff169050919050565b610c7b610c74610fa5565b8383611ba9565b5050565b610c90610c8a610fa5565b83611066565b610ccf576040517f08c379a0000000000000000000000000000000000000000000000000000000008152600401610cc690613a2a565b60405180910390fd5b610cdb84848484611d16565b50505050565b83421115610d24576040517f08c379a0000000000000000000000000000000000000000000000000000000008152600401610d1b90613c00565b60405180910390fd5b6000610d86610d7e7fe48329057bfd03d55e49b547132e39cffd9c1820ad7b9d4c5307691425d15adf898989604051602001610d639493929190613c20565b60405160208183030381529060405280519060200120611d72565b858585611d8c565b9050610d9181611db7565b8614610dd2576040517f08c379a0000000000000000000000000000000000000000000000000000000008152600401610dc990613cb1565b60405180910390fd5b610ddc81886119e0565b50505050505050565b6000610def611e15565b905090565b6060610dff82610f5a565b6000610e09611e44565b90506000815111610e295760405180602001604052806000815250610e54565b80610e3384611e5b565b604051602001610e44929190613d0d565b6040516020818303038152906040525b915050919050565b6000600560008473ffffffffffffffffffffffffffffffffffffffff1673ffffffffffffffffffffffffffffffffffffffff16815260200190815260200160002060008373ffffffffffffffffffffffffffffffffffffffff1673ffffffffffffffffffffffffffffffffffffffff16815260200190815260200160002060009054906101000a900460ff16905092915050565b60007f01ffc9a7000000000000000000000000000000000000000000000000000000007bffffffffffffffffffffffffffffffffffffffffffffffffffffffff1916827bffffffffffffffffffffffffffffffffffffffffffffffffffffffff1916149050919050565b610f6381611f33565b610fa2576040517f08c379a0000000000000000000000000000000000000000000000000000000008152600401610f9990613a96565b60405180910390fd5b50565b600033905090565b816004600083815260200190815260200160002060006101000a81548173ffffffffffffffffffffffffffffffffffffffff021916908373ffffffffffffffffffffffffffffffffffffffff160217905550808273ffffffffffffffffffffffffffffffffffffffff166110208361097b565b73ffffffffffffffffffffffffffffffffffffffff167f8c5be1e5ebec7d5bd14f71427d1e84f3dd0314c0f7b2291e5b200ac8c7c3b92560405160405180910390a45050565b6000806110728361097b565b90508073ffffffffffffffffffffffffffffffffffffffff168473ffffffffffffffffffffffffffffffffffffffff1614806110b457506110b38185610e5c565b5b806110f257508373ffffffffffffffffffffffffffffffffffffffff166110da8461068e565b73ffffffffffffffffffffffffffffffffffffffff16145b91505092915050565b8273ffffffffffffffffffffffffffffffffffffffff1661111b8261097b565b73ffffffffffffffffffffffffffffffffffffffff1614611171576040517f08c379a000000000000000000000000000000000000000000000000000000000815260040161116890613da3565b60405180910390fd5b600073ffffffffffffffffffffffffffffffffffffffff168273ffffffffffffffffffffffffffffffffffffffff1614156111e1576040517f08c379a00000000000000000000000000000000000000000000000000000000081526004016111d890613e35565b60405180910390fd5b6111ee8383836001611f74565b8273ffffffffffffffffffffffffffffffffffffffff1661120e8261097b565b73ffffffffffffffffffffffffffffffffffffffff1614611264576040517f08c379a000000000000000000000000000000000000000000000000000000000815260040161125b90613da3565b60405180910390fd5b6004600082815260200190815260200160002060006101000a81549073ffffffffffffffffffffffffffffffffffffffff02191690556001600360008573ffffffffffffffffffffffffffffffffffffffff1673ffffffffffffffffffffffffffffffffffffffff168152602001908152602001600020600082825403925050819055506001600360008473ffffffffffffffffffffffffffffffffffffffff1673ffffffffffffffffffffffffffffffffffffffff16815260200190815260200160002060008282540192505081905550816002600083815260200190815260200160002060006101000a81548173ffffffffffffffffffffffffffffffffffffffff021916908373ffffffffffffffffffffffffffffffffffffffff160217905550808273ffffffffffffffffffffffffffffffffffffffff168473ffffffffffffffffffffffffffffffffffffffff167fddf252ad1be2c89b69c2b068fc378daa952ba7f163c4a11628f55a4df523b3ef60405160405180910390a46113f0838383600161209a565b505050565b60007f000000000000000000000000000000000000000000000000000000000000000073ffffffffffffffffffffffffffffffffffffffff163073ffffffffffffffffffffffffffffffffffffffff1614801561147157507f000000000000000000000000000000000000000000000000000000000000000046145b1561149e577f0000000000000000000000000000000000000000000000000000000000000000905061150c565b6115097f00000000000000000000000000000000000000000000000000000000000000007f00000000000000000000000000000000000000000000000000000000000000007f00000000000000000000000000000000000000000000000000000000000000006120b7565b90505b90565b6000438210611553576040517f08c379a000000000000000000000000000000000000000000000000000000000815260040161154a90613ea1565b60405180910390fd5b600061155e836120f1565b905060008460000180549050905060008082905060058311156115e157600061158684612144565b846115919190613ef0565b90506115a0886000018261223e565b60000160009054906101000a900463ffffffff1663ffffffff168563ffffffff1610156115cf578091506115df565b6001816115dc9190613f24565b92505b505b60006115f288600001868585612253565b90506000811461164657611615886000016001836116109190613ef0565b61223e565b60000160049054906101000a90047bffffffffffffffffffffffffffffffffffffffffffffffffffffffff16611649565b60005b7bffffffffffffffffffffffffffffffffffffffffffffffffffffffff169550505050505092915050565b600073ffffffffffffffffffffffffffffffffffffffff168273ffffffffffffffffffffffffffffffffffffffff1614156116e4576040517f08c379a00000000000000000000000000000000000000000000000000000000081526004016116db90613fc6565b60405180910390fd5b6116ed81611f33565b1561172d576040517f08c379a000000000000000000000000000000000000000000000000000000000815260040161172490614032565b60405180910390fd5b61173b600083836001611f74565b61174481611f33565b15611784576040517f08c379a000000000000000000000000000000000000000000000000000000000815260040161177b90614032565b60405180910390fd5b6001600360008473ffffffffffffffffffffffffffffffffffffffff1673ffffffffffffffffffffffffffffffffffffffff16815260200190815260200160002060008282540192505081905550816002600083815260200190815260200160002060006101000a81548173ffffffffffffffffffffffffffffffffffffffff021916908373ffffffffffffffffffffffffffffffffffffffff160217905550808273ffffffffffffffffffffffffffffffffffffffff16600073ffffffffffffffffffffffffffffffffffffffff167fddf252ad1be2c89b69c2b068fc378daa952ba7f163c4a11628f55a4df523b3ef60405160405180910390a461188e60008383600161209a565b5050565b600061189d8261097b565b90506118ad816000846001611f74565b6118b68261097b565b90506004600083815260200190815260200160002060006101000a81549073ffffffffffffffffffffffffffffffffffffffff02191690556001600360008373ffffffffffffffffffffffffffffffffffffffff1673ffffffffffffffffffffffffffffffffffffffff168152602001908152602001600020600082825403925050819055506002600083815260200190815260200160002060006101000a81549073ffffffffffffffffffffffffffffffffffffffff021916905581600073ffffffffffffffffffffffffffffffffffffffff168273ffffffffffffffffffffffffffffffffffffffff167fddf252ad1be2c89b69c2b068fc378daa952ba7f163c4a11628f55a4df523b3ef60405160405180910390a46119dc81600084600161209a565b5050565b60006119eb836108f8565b905081600660008573ffffffffffffffffffffffffffffffffffffffff1673ffffffffffffffffffffffffffffffffffffffff16815260200190815260200160002060006101000a81548173ffffffffffffffffffffffffffffffffffffffff021916908373ffffffffffffffffffffffffffffffffffffffff1602179055508173ffffffffffffffffffffffffffffffffffffffff168173ffffffffffffffffffffffffffffffffffffffff168473ffffffffffffffffffffffffffffffffffffffff167f3134e8a2e6d97e929a7e54011ea5485d7d196dd5f0ba4d4ef95803e8e3fc257f60405160405180910390a4611aef8183611aea866122c6565b6122d8565b505050565b60006002600083815260200190815260200160002060009054906101000a900473ffffffffffffffffffffffffffffffffffffffff169050919050565b600081600001549050919050565b6000808260000180549050905060008114611b9e57611b6d83600001600183611b689190613ef0565b61223e565b60000160049054906101000a90047bffffffffffffffffffffffffffffffffffffffffffffffffffffffff16611ba1565b60005b915050919050565b8173ffffffffffffffffffffffffffffffffffffffff168373ffffffffffffffffffffffffffffffffffffffff161415611c18576040517f08c379a0000000000000000000000000000000000000000000000000000000008152600401611c0f9061409e565b60405180910390fd5b80600560008573ffffffffffffffffffffffffffffffffffffffff1673ffffffffffffffffffffffffffffffffffffffff16815260200190815260200160002060008473ffffffffffffffffffffffffffffffffffffffff1673ffffffffffffffffffffffffffffffffffffffff16815260200190815260200160002060006101000a81548160ff0219169083151502179055508173ffffffffffffffffffffffffffffffffffffffff168373ffffffffffffffffffffffffffffffffffffffff167f17307eab39ab6107e8899845ad3d59bd9653f200f220920489ca2b5937696c3183604051611d0991906131fe565b60405180910390a3505050565b611d218484846110fb565b611d2d848484846124e5565b611d6c576040517f08c379a0000000000000000000000000000000000000000000000000000000008152600401611d6390614130565b60405180910390fd5b50505050565b6000611d85611d7f6113f5565b8361267c565b9050919050565b6000806000611d9d878787876126af565b91509150611daa81612792565b8192505050949350505050565b600080600960008473ffffffffffffffffffffffffffffffffffffffff1673ffffffffffffffffffffffffffffffffffffffff1681526020019081526020016000209050611e0481611b31565b9150611e0f81612900565b50919050565b6000611e216008611b3f565b7bffffffffffffffffffffffffffffffffffffffffffffffffffffffff16905090565b606060405180602001604052806000815250905090565b606060006001611e6a84612916565b01905060008167ffffffffffffffff811115611e8957611e88613553565b5b6040519080825280601f01601f191660200182016040528015611ebb5781602001600182028036833780820191505090505b509050600082602001820190505b600115611f28578080600190039150507f3031323334353637383961626364656600000000000000000000000000000000600a86061a8153600a8581611f1257611f11614150565b5b0494506000851415611f2357611f28565b611ec9565b819350505050919050565b60008073ffffffffffffffffffffffffffffffffffffffff16611f5583611af4565b73ffffffffffffffffffffffffffffffffffffffff1614159050919050565b600181111561209457600073ffffffffffffffffffffffffffffffffffffffff168473ffffffffffffffffffffffffffffffffffffffff16146120085780600360008673ffffffffffffffffffffffffffffffffffffffff1673ffffffffffffffffffffffffffffffffffffffff16815260200190815260200160002060008282546120009190613ef0565b925050819055505b600073ffffffffffffffffffffffffffffffffffffffff168373ffffffffffffffffffffffffffffffffffffffff16146120935780600360008573ffffffffffffffffffffffffffffffffffffffff1673ffffffffffffffffffffffffffffffffffffffff168152602001908152602001600020600082825461208b9190613f24565b925050819055505b5b50505050565b6120a5848483612a69565b6120b184848484612b29565b50505050565b600083838346306040516020016120d295949392919061417f565b6040516020818303038152906040528051906020012090509392505050565b600063ffffffff801682111561213c576040517f08c379a000000000000000000000000000000000000000000000000000000000815260040161213390614244565b60405180910390fd5b819050919050565b6000808214156121575760009050612239565b6000600161216484612b2f565b901c6001901b9050600181848161217e5761217d614150565b5b048201901c9050600181848161219757612196614150565b5b048201901c905060018184816121b0576121af614150565b5b048201901c905060018184816121c9576121c8614150565b5b048201901c905060018184816121e2576121e1614150565b5b048201901c905060018184816121fb576121fa614150565b5b048201901c9050600181848161221457612213614150565b5b048201901c90506122358182858161222f5761222e614150565b5b04612c10565b9150505b919050565b60008260005281602060002001905092915050565b60005b818310156122bb57600061226a8484612c29565b90508463ffffffff1661227d878361223e565b60000160009054906101000a900463ffffffff1663ffffffff1611156122a5578092506122b5565b6001816122b29190613f24565b93505b50612256565b819050949350505050565b60006122d182610a02565b9050919050565b8173ffffffffffffffffffffffffffffffffffffffff168373ffffffffffffffffffffffffffffffffffffffff16141580156123145750600081115b156124e057600073ffffffffffffffffffffffffffffffffffffffff168373ffffffffffffffffffffffffffffffffffffffff16146123fc576000806123a5612c4f84600760008973ffffffffffffffffffffffffffffffffffffffff1673ffffffffffffffffffffffffffffffffffffffff168152602001908152602001600020612c659092919063ffffffff16565b915091508473ffffffffffffffffffffffffffffffffffffffff167fdec2bacdd2f05b59de34da9b523dff8be42e5e38e818c82fdb0bae774387a72483836040516123f1929190614264565b60405180910390a250505b600073ffffffffffffffffffffffffffffffffffffffff168273ffffffffffffffffffffffffffffffffffffffff16146124df57600080612488612cb184600760008873ffffffffffffffffffffffffffffffffffffffff1673ffffffffffffffffffffffffffffffffffffffff168152602001908152602001600020612c659092919063ffffffff16565b915091508373ffffffffffffffffffffffffffffffffffffffff167fdec2bacdd2f05b59de34da9b523dff8be42e5e38e818c82fdb0bae774387a72483836040516124d4929190614264565b60405180910390a250505b5b505050565b60006125068473ffffffffffffffffffffffffffffffffffffffff16612cc7565b1561266f578373ffffffffffffffffffffffffffffffffffffffff1663150b7a0261252f610fa5565b8786866040518563ffffffff1660e01b815260040161255194939291906142e2565b602060405180830381600087803b15801561256b57600080fd5b505af192505050801561259c57506040513d601f19601f820116820180604052508101906125999190614343565b60015b61261f573d80600081146125cc576040519150601f19603f3d011682016040523d82523d6000602084013e6125d1565b606091505b50600081511415612617576040517f08c379a000000000000000000000000000000000000000000000000000000000815260040161260e90614130565b60405180910390fd5b805181602001fd5b63150b7a0260e01b7bffffffffffffffffffffffffffffffffffffffffffffffffffffffff1916817bffffffffffffffffffffffffffffffffffffffffffffffffffffffff191614915050612674565b600190505b949350505050565b600082826040516020016126919291906143dd565b60405160208183030381529060405280519060200120905092915050565b6000807f7fffffffffffffffffffffffffffffff5d576e7357a4501ddfe92f46681b20a08360001c11156126ea576000600391509150612789565b60006001878787876040516000815260200160405260405161270f9493929190614423565b6020604051602081039080840390855afa158015612731573d6000803e3d6000fd5b505050602060405103519050600073ffffffffffffffffffffffffffffffffffffffff168173ffffffffffffffffffffffffffffffffffffffff16141561278057600060019250925050612789565b80600092509250505b94509492505050565b600060048111156127a6576127a5614468565b5b8160048111156127b9576127b8614468565b5b14156127c4576128fd565b600160048111156127d8576127d7614468565b5b8160048111156127eb576127ea614468565b5b141561282c576040517f08c379a0000000000000000000000000000000000000000000000000000000008152600401612823906144e3565b60405180910390fd5b600260048111156128405761283f614468565b5b81600481111561285357612852614468565b5b1415612894576040517f08c379a000000000000000000000000000000000000000000000000000000000815260040161288b9061454f565b60405180910390fd5b600360048111156128a8576128a7614468565b5b8160048111156128bb576128ba614468565b5b14156128fc576040517f08c379a00000000000000000000000000000000000000000000000000000000081526004016128f3906145e1565b60405180910390fd5b5b50565b6001816000016000828254019250508190555050565b600080600090507a184f03e93ff9f4daa797ed6e38ed64bf6a1f0100000000000000008310612974577a184f03e93ff9f4daa797ed6e38ed64bf6a1f010000000000000000838161296a57612969614150565b5b0492506040810190505b6d04ee2d6d415b85acef810000000083106129b1576d04ee2d6d415b85acef810000000083816129a7576129a6614150565b5b0492506020810190505b662386f26fc1000083106129e057662386f26fc1000083816129d6576129d5614150565b5b0492506010810190505b6305f5e1008310612a09576305f5e10083816129ff576129fe614150565b5b0492506008810190505b6127108310612a2e576127108381612a2457612a23614150565b5b0492506004810190505b60648310612a515760648381612a4757612a46614150565b5b0492506002810190505b600a8310612a60576001810190505b80915050919050565b600073ffffffffffffffffffffffffffffffffffffffff168373ffffffffffffffffffffffffffffffffffffffff161415612ab957612ab6612cb1826008612c659092919063ffffffff16565b50505b600073ffffffffffffffffffffffffffffffffffffffff168273ffffffffffffffffffffffffffffffffffffffff161415612b0957612b06612c4f826008612c659092919063ffffffff16565b50505b612b24612b15846108f8565b612b1e846108f8565b836122d8565b505050565b50505050565b600080600090506000608084901c1115612b5157608083901c92506080810190505b6000604084901c1115612b6c57604083901c92506040810190505b6000602084901c1115612b8757602083901c92506020810190505b6000601084901c1115612ba257601083901c92506010810190505b6000600884901c1115612bbd57600883901c92506008810190505b6000600484901c1115612bd857600483901c92506004810190505b6000600284901c1115612bf357600283901c92506002810190505b6000600184901c1115612c07576001810190505b80915050919050565b6000818310612c1f5781612c21565b825b905092915050565b60006002828418612c3a9190614601565b828416612c479190613f24565b905092915050565b60008183612c5d9190613ef0565b905092915050565b600080612ca585612ca0612c7888611b3f565b7bffffffffffffffffffffffffffffffffffffffffffffffffffffffff16868863ffffffff16565b612cea565b91509150935093915050565b60008183612cbf9190613f24565b905092915050565b6000808273ffffffffffffffffffffffffffffffffffffffff163b119050919050565b600080612d0b84600001612cfd436120f1565b612d0686612d58565b612dc3565b817bffffffffffffffffffffffffffffffffffffffffffffffffffffffff169150807bffffffffffffffffffffffffffffffffffffffffffffffffffffffff169050915091509250929050565b60007bffffffffffffffffffffffffffffffffffffffffffffffffffffffff8016821115612dbb576040517f08c379a0000000000000000000000000000000000000000000000000000000008152600401612db2906146a4565b60405180910390fd5b819050919050565b600080600085805490509050600081111561305a576000612df087600184612deb9190613ef0565b61223e565b6040518060400160405290816000820160009054906101000a900463ffffffff1663ffffffff1663ffffffff1681526020016000820160049054906101000a90047bffffffffffffffffffffffffffffffffffffffffffffffffffffffff167bffffffffffffffffffffffffffffffffffffffffffffffffffffffff167bffffffffffffffffffffffffffffffffffffffffffffffffffffffff168152505090508563ffffffff16816000015163ffffffff161115612ee4576040517f08c379a0000000000000000000000000000000000000000000000000000000008152600401612edb90614710565b60405180910390fd5b8563ffffffff16816000015163ffffffff161415612f695784612f1388600185612f0e9190613ef0565b61223e565b60000160046101000a8154817bffffffffffffffffffffffffffffffffffffffffffffffffffffffff02191690837bffffffffffffffffffffffffffffffffffffffffffffffffffffffff160217905550613049565b8660405180604001604052808863ffffffff168152602001877bffffffffffffffffffffffffffffffffffffffffffffffffffffffff168152509080600181540180825580915050600190039060005260206000200160009091909190915060008201518160000160006101000a81548163ffffffff021916908363ffffffff16021790555060208201518160000160046101000a8154817bffffffffffffffffffffffffffffffffffffffffffffffffffffffff02191690837bffffffffffffffffffffffffffffffffffffffffffffffffffffffff16021790555050505b806020015185935093505050613142565b8560405180604001604052808763ffffffff168152602001867bffffffffffffffffffffffffffffffffffffffffffffffffffffffff168152509080600181540180825580915050600190039060005260206000200160009091909190915060008201518160000160006101000a81548163ffffffff021916908363ffffffff16021790555060208201518160000160046101000a8154817bffffffffffffffffffffffffffffffffffffffffffffffffffffffff02191690837bffffffffffffffffffffffffffffffffffffffffffffffffffffffff160217905550505060008492509250505b935093915050565b6000604051905090565b600080fd5b600080fd5b60007fffffffff0000000000000000000000000000000000000000000000000000000082169050919050565b6131938161315e565b811461319e57600080fd5b50565b6000813590506131b08161318a565b92915050565b6000602082840312156131cc576131cb613154565b5b60006131da848285016131a1565b91505092915050565b60008115159050919050565b6131f8816131e3565b82525050565b600060208201905061321360008301846131ef565b92915050565b600081519050919050565b600082825260208201905092915050565b60005b83811015613253578082015181840152602081019050613238565b83811115613262576000848401525b50505050565b6000601f19601f8301169050919050565b600061328482613219565b61328e8185613224565b935061329e818560208601613235565b6132a781613268565b840191505092915050565b600060208201905081810360008301526132cc8184613279565b905092915050565b6000819050919050565b6132e7816132d4565b81146132f257600080fd5b50565b600081359050613304816132de565b92915050565b6000602082840312156133205761331f613154565b5b600061332e848285016132f5565b91505092915050565b600073ffffffffffffffffffffffffffffffffffffffff82169050919050565b600061336282613337565b9050919050565b61337281613357565b82525050565b600060208201905061338d6000830184613369565b92915050565b61339c81613357565b81146133a757600080fd5b50565b6000813590506133b981613393565b92915050565b600080604083850312156133d6576133d5613154565b5b60006133e4858286016133aa565b92505060206133f5858286016132f5565b9150509250929050565b60008060006060848603121561341857613417613154565b5b6000613426868287016133aa565b9350506020613437868287016133aa565b9250506040613448868287016132f5565b9150509250925092565b61345b816132d4565b82525050565b60006020820190506134766000830184613452565b92915050565b6000819050919050565b61348f8161347c565b82525050565b60006020820190506134aa6000830184613486565b92915050565b6000602082840312156134c6576134c5613154565b5b60006134d4848285016133aa565b91505092915050565b6134e6816131e3565b81146134f157600080fd5b50565b600081359050613503816134dd565b92915050565b600080604083850312156135205761351f613154565b5b600061352e858286016133aa565b925050602061353f858286016134f4565b9150509250929050565b600080fd5b600080fd5b7f4e487b7100000000000000000000000000000000000000000000000000000000600052604160045260246000fd5b61358b82613268565b810181811067ffffffffffffffff821117156135aa576135a9613553565b5b80604052505050565b60006135bd61314a565b90506135c98282613582565b919050565b600067ffffffffffffffff8211156135e9576135e8613553565b5b6135f282613268565b9050602081019050919050565b82818337600083830152505050565b600061362161361c846135ce565b6135b3565b90508281526020810184848401111561363d5761363c61354e565b5b6136488482856135ff565b509392505050565b600082601f83011261366557613664613549565b5b813561367584826020860161360e565b91505092915050565b6000806000806080858703121561369857613697613154565b5b60006136a6878288016133aa565b94505060206136b7878288016133aa565b93505060406136c8878288016132f5565b925050606085013567ffffffffffffffff8111156136e9576136e8613159565b5b6136f587828801613650565b91505092959194509250565b600060ff82169050919050565b61371781613701565b811461372257600080fd5b50565b6000813590506137348161370e565b92915050565b6137438161347c565b811461374e57600080fd5b50565b6000813590506137608161373a565b92915050565b60008060008060008060c0878903121561378357613782613154565b5b600061379189828a016133aa565b96505060206137a289828a016132f5565b95505060406137b389828a016132f5565b94505060606137c489828a01613725565b93505060806137d589828a01613751565b92505060a06137e689828a01613751565b9150509295509295509295565b6000806040838503121561380a57613809613154565b5b6000613818858286016133aa565b9250506020613829858286016133aa565b9150509250929050565b7f4e487b7100000000000000000000000000000000000000000000000000000000600052602260045260246000fd5b6000600282049050600182168061387a57607f821691505b6020821081141561388e5761388d613833565b5b50919050565b7f4552433732313a20617070726f76616c20746f2063757272656e74206f776e6560008201527f7200000000000000000000000000000000000000000000000000000000000000602082015250565b60006138f0602183613224565b91506138fb82613894565b604082019050919050565b6000602082019050818103600083015261391f816138e3565b9050919050565b7f4552433732313a20617070726f76652063616c6c6572206973206e6f7420746f60008201527f6b656e206f776e6572206f7220617070726f76656420666f7220616c6c000000602082015250565b6000613982603d83613224565b915061398d82613926565b604082019050919050565b600060208201905081810360008301526139b181613975565b9050919050565b7f4552433732313a2063616c6c6572206973206e6f7420746f6b656e206f776e6560008201527f72206f7220617070726f76656400000000000000000000000000000000000000602082015250565b6000613a14602d83613224565b9150613a1f826139b8565b604082019050919050565b60006020820190508181036000830152613a4381613a07565b9050919050565b7f4552433732313a20696e76616c696420746f6b656e2049440000000000000000600082015250565b6000613a80601883613224565b9150613a8b82613a4a565b602082019050919050565b60006020820190508181036000830152613aaf81613a73565b9050919050565b7f4552433732313a2061646472657373207a65726f206973206e6f74206120766160008201527f6c6964206f776e65720000000000000000000000000000000000000000000000602082015250565b6000613b12602983613224565b9150613b1d82613ab6565b604082019050919050565b60006020820190508181036000830152613b4181613b05565b9050919050565b7f566f7465733a20626c6f636b206e6f7420796574206d696e6564000000000000600082015250565b6000613b7e601a83613224565b9150613b8982613b48565b602082019050919050565b60006020820190508181036000830152613bad81613b71565b9050919050565b7f566f7465733a207369676e617475726520657870697265640000000000000000600082015250565b6000613bea601883613224565b9150613bf582613bb4565b602082019050919050565b60006020820190508181036000830152613c1981613bdd565b9050919050565b6000608082019050613c356000830187613486565b613c426020830186613369565b613c4f6040830185613452565b613c5c6060830184613452565b95945050505050565b7f566f7465733a20696e76616c6964206e6f6e6365000000000000000000000000600082015250565b6000613c9b601483613224565b9150613ca682613c65565b602082019050919050565b60006020820190508181036000830152613cca81613c8e565b9050919050565b600081905092915050565b6000613ce782613219565b613cf18185613cd1565b9350613d01818560208601613235565b80840191505092915050565b6000613d198285613cdc565b9150613d258284613cdc565b91508190509392505050565b7f4552433732313a207472616e736665722066726f6d20696e636f72726563742060008201527f6f776e6572000000000000000000000000000000000000000000000000000000602082015250565b6000613d8d602583613224565b9150613d9882613d31565b604082019050919050565b60006020820190508181036000830152613dbc81613d80565b9050919050565b7f4552433732313a207472616e7366657220746f20746865207a65726f2061646460008201527f7265737300000000000000000000000000000000000000000000000000000000602082015250565b6000613e1f602483613224565b9150613e2a82613dc3565b604082019050919050565b60006020820190508181036000830152613e4e81613e12565b9050919050565b7f436865636b706f696e74733a20626c6f636b206e6f7420796574206d696e6564600082015250565b6000613e8b602083613224565b9150613e9682613e55565b602082019050919050565b60006020820190508181036000830152613eba81613e7e565b9050919050565b7f4e487b7100000000000000000000000000000000000000000000000000000000600052601160045260246000fd5b6000613efb826132d4565b9150613f06836132d4565b925082821015613f1957613f18613ec1565b5b828203905092915050565b6000613f2f826132d4565b9150613f3a836132d4565b9250827fffffffffffffffffffffffffffffffffffffffffffffffffffffffffffffffff03821115613f6f57613f6e613ec1565b5b828201905092915050565b7f4552433732313a206d696e7420746f20746865207a65726f2061646472657373600082015250565b6000613fb0602083613224565b9150613fbb82613f7a565b602082019050919050565b60006020820190508181036000830152613fdf81613fa3565b9050919050565b7f4552433732313a20746f6b656e20616c7265616479206d696e74656400000000600082015250565b600061401c601c83613224565b915061402782613fe6565b602082019050919050565b6000602082019050818103600083015261404b8161400f565b9050919050565b7f4552433732313a20617070726f766520746f2063616c6c657200000000000000600082015250565b6000614088601983613224565b915061409382614052565b602082019050919050565b600060208201905081810360008301526140b78161407b565b9050919050565b7f4552433732313a207472616e7366657220746f206e6f6e20455243373231526560008201527f63656976657220696d706c656d656e7465720000000000000000000000000000602082015250565b600061411a603283613224565b9150614125826140be565b604082019050919050565b600060208201905081810360008301526141498161410d565b9050919050565b7f4e487b7100000000000000000000000000000000000000000000000000000000600052601260045260246000fd5b600060a0820190506141946000830188613486565b6141a16020830187613486565b6141ae6040830186613486565b6141bb6060830185613452565b6141c86080830184613369565b9695505050505050565b7f53616665436173743a2076616c756520646f65736e27742066697420696e203360008201527f3220626974730000000000000000000000000000000000000000000000000000602082015250565b600061422e602683613224565b9150614239826141d2565b604082019050919050565b6000602082019050818103600083015261425d81614221565b9050919050565b60006040820190506142796000830185613452565b6142866020830184613452565b9392505050565b600081519050919050565b600082825260208201905092915050565b60006142b48261428d565b6142be8185614298565b93506142ce818560208601613235565b6142d781613268565b840191505092915050565b60006080820190506142f76000830187613369565b6143046020830186613369565b6143116040830185613452565b818103606083015261432381846142a9565b905095945050505050565b60008151905061433d8161318a565b92915050565b60006020828403121561435957614358613154565b5b60006143678482850161432e565b91505092915050565b7f1901000000000000000000000000000000000000000000000000000000000000600082015250565b60006143a6600283613cd1565b91506143b182614370565b600282019050919050565b6000819050919050565b6143d76143d28261347c565b6143bc565b82525050565b60006143e882614399565b91506143f482856143c6565b60208201915061440482846143c6565b6020820191508190509392505050565b61441d81613701565b82525050565b60006080820190506144386000830187613486565b6144456020830186614414565b6144526040830185613486565b61445f6060830184613486565b95945050505050565b7f4e487b7100000000000000000000000000000000000000000000000000000000600052602160045260246000fd5b7f45434453413a20696e76616c6964207369676e61747572650000000000000000600082015250565b60006144cd601883613224565b91506144d882614497565b602082019050919050565b600060208201905081810360008301526144fc816144c0565b9050919050565b7f45434453413a20696e76616c6964207369676e6174757265206c656e67746800600082015250565b6000614539601f83613224565b915061454482614503565b602082019050919050565b600060208201905081810360008301526145688161452c565b9050919050565b7f45434453413a20696e76616c6964207369676e6174757265202773272076616c60008201527f7565000000000000000000000000000000000000000000000000000000000000602082015250565b60006145cb602283613224565b91506145d68261456f565b604082019050919050565b600060208201905081810360008301526145fa816145be565b9050919050565b600061460c826132d4565b9150614617836132d4565b92508261462757614626614150565b5b828204905092915050565b7f53616665436173743a2076616c756520646f65736e27742066697420696e203260008201527f3234206269747300000000000000000000000000000000000000000000000000602082015250565b600061468e602783613224565b915061469982614632565b604082019050919050565b600060208201905081810360008301526146bd81614681565b9050919050565b7f436865636b706f696e743a20696e76616c6964206b6579000000000000000000600082015250565b60006146fa601783613224565b9150614705826146c4565b602082019050919050565b60006020820190508181036000830152614729816146ed565b905091905056fea264697066735822122004d4272dcbf108946606fef3d2904db557bd473784473d97fc57f41ce7ba777b64736f6c63430008090033",
  "linkReferences": {},
  "deployedLinkReferences": {}
}