{
  "_format": "hh-sol-artifact-1",
  "contractName": "BridgeArbitrumL1Mock",
  "sourceName": "contracts/openzeppelin/mocks/crosschain/bridges.sol",
  "abi": [
    {
      "inputs": [
        {
          "internalType": "address",
          "name": "sender",
          "type": "address"
        },
        {
          "internalType": "address",
          "name": "expected",
          "type": "address"
        }
      ],
      "name": "InvalidCrossChainSender",
      "type": "error"
    },
    {
      "inputs": [],
      "name": "NotCrossChainCall",
      "type": "error"
    },
    {
      "inputs": [],
      "name": "activeOutbox",
      "outputs": [
        {
          "internalType": "address",
          "name": "",
          "type": "address"
        }
      ],
      "stateMutability": "view",
      "type": "function"
    },
    {
      "inputs": [],
      "name": "currentSender",
      "outputs": [
        {
          "internalType": "address",
          "name": "",
          "type": "address"
        }
      ],
      "stateMutability": "view",
      "type": "function"
    },
    {
      "inputs": [],
      "name": "inbox",
      "outputs": [
        {
          "internalType": "address",
          "name": "",
          "type": "address"
        }
      ],
      "stateMutability": "view",
      "type": "function"
    },
    {
      "inputs": [],
      "name": "outbox",
      "outputs": [
        {
          "internalType": "address",
          "name": "",
          "type": "address"
        }
      ],
      "stateMutability": "view",
      "type": "function"
    },
    {
      "inputs": [
        {
          "internalType": "address",
          "name": "target",
          "type": "address"
        },
        {
          "internalType": "bytes",
          "name": "data",
          "type": "bytes"
        },
        {
          "internalType": "address",
          "name": "sender",
          "type": "address"
        }
      ],
      "name": "relayAs",
      "outputs": [],
      "stateMutability": "nonpayable",
      "type": "function"
    }
  ],
  "bytecode": "0x60c0604052604051610010906100cc565b604051809103906000f08015801561002c573d6000803e3d6000fd5b5073ffffffffffffffffffffffffffffffffffffffff1660809073ffffffffffffffffffffffffffffffffffffffff1681525060405161006b906100d9565b604051809103906000f080158015610087573d6000803e3d6000fd5b5073ffffffffffffffffffffffffffffffffffffffff1660a09073ffffffffffffffffffffffffffffffffffffffff168152503480156100c657600080fd5b506100e6565b6101538061080683390190565b6102958061095983390190565b60805160a0516106f46101126000396000818161011d01526101430152600061016701526106f46000f3fe608060405234801561001057600080fd5b50600436106100575760003560e01c806370348f3e1461005c578063ab5d89431461007a578063ce11e6ab14610098578063fb0e722b146100b6578063fb417a5b146100d4575b600080fd5b6100646100f0565b6040516100719190610415565b60405180910390f35b610082610119565b60405161008f9190610415565b60405180910390f35b6100a0610141565b6040516100ad9190610415565b60405180910390f35b6100be610165565b6040516100cb9190610415565b60405180910390f35b6100ee60048036038101906100e991906104cb565b610189565b005b60008060009054906101000a900473ffffffffffffffffffffffffffffffffffffffff16905090565b60007f0000000000000000000000000000000000000000000000000000000000000000905090565b7f000000000000000000000000000000000000000000000000000000000000000081565b7f000000000000000000000000000000000000000000000000000000000000000081565b60008060009054906101000a900473ffffffffffffffffffffffffffffffffffffffff169050816000806101000a81548173ffffffffffffffffffffffffffffffffffffffff021916908373ffffffffffffffffffffffffffffffffffffffff1602179055506000808673ffffffffffffffffffffffffffffffffffffffff16868660405161021992919061057e565b6000604051808303816000865af19150503d8060008114610256576040519150601f19603f3d011682016040523d82523d6000602084013e61025b565b606091505b50915091506102a18783836040518060400160405280601781526020017f6c6f772d6c6576656c2063616c6c2072657665727465640000000000000000008152506102eb565b50826000806101000a81548173ffffffffffffffffffffffffffffffffffffffff021916908373ffffffffffffffffffffffffffffffffffffffff16021790555050505050505050565b6060831561034e576000835114156103465761030685610361565b610345576040517f08c379a000000000000000000000000000000000000000000000000000000000815260040161033c906105f4565b60405180910390fd5b5b829050610359565b6103588383610384565b5b949350505050565b6000808273ffffffffffffffffffffffffffffffffffffffff163b119050919050565b6000825111156103975781518083602001fd5b806040517f08c379a00000000000000000000000000000000000000000000000000000000081526004016103cb919061069c565b60405180910390fd5b600073ffffffffffffffffffffffffffffffffffffffff82169050919050565b60006103ff826103d4565b9050919050565b61040f816103f4565b82525050565b600060208201905061042a6000830184610406565b92915050565b600080fd5b600080fd5b610443816103f4565b811461044e57600080fd5b50565b6000813590506104608161043a565b92915050565b600080fd5b600080fd5b600080fd5b60008083601f84011261048b5761048a610466565b5b8235905067ffffffffffffffff8111156104a8576104a761046b565b5b6020830191508360018202830111156104c4576104c3610470565b5b9250929050565b600080600080606085870312156104e5576104e4610430565b5b60006104f387828801610451565b945050602085013567ffffffffffffffff81111561051457610513610435565b5b61052087828801610475565b9350935050604061053387828801610451565b91505092959194509250565b600081905092915050565b82818337600083830152505050565b6000610565838561053f565b935061057283858461054a565b82840190509392505050565b600061058b828486610559565b91508190509392505050565b600082825260208201905092915050565b7f416464726573733a2063616c6c20746f206e6f6e2d636f6e7472616374000000600082015250565b60006105de601d83610597565b91506105e9826105a8565b602082019050919050565b6000602082019050818103600083015261060d816105d1565b9050919050565b600081519050919050565b60005b8381101561063d578082015181840152602081019050610622565b8381111561064c576000848401525b50505050565b6000601f19601f8301169050919050565b600061066e82610614565b6106788185610597565b935061068881856020860161061f565b61069181610652565b840191505092915050565b600060208201905081810360008301526106b68184610663565b90509291505056fea26469706673582212203afbc03a9542827a938b0d7a4de5b1f4ca338fee81af7f60146c2cdb1a4e799d64736f6c6343000809003360a06040523373ffffffffffffffffffffffffffffffffffffffff1660809073ffffffffffffffffffffffffffffffffffffffff1681525034801561004357600080fd5b5060805160f761005c60003960006049015260f76000f3fe6080604052348015600f57600080fd5b506004361060285760003560e01c8063e78cea9214602d575b600080fd5b60336047565b604051603e919060a8565b60405180910390f35b7f000000000000000000000000000000000000000000000000000000000000000081565b600073ffffffffffffffffffffffffffffffffffffffff82169050919050565b6000609482606b565b9050919050565b60a281608b565b82525050565b600060208201905060bb6000830184609b565b9291505056fea26469706673582212206dd38ac8c68fce84125c1997de9570c2afc01c9d3277b901183c3396ad82de1264736f6c6343000809003360a06040523373ffffffffffffffffffffffffffffffffffffffff1660809073ffffffffffffffffffffffffffffffffffffffff1681525034801561004357600080fd5b5060805161023061006560003960008181607b015261011e01526102306000f3fe608060405234801561001057600080fd5b50600436106100365760003560e01c806380648b021461003b578063e78cea9214610059575b600080fd5b610043610077565b6040516100509190610181565b60405180910390f35b61006161011c565b60405161006e9190610181565b60405180910390f35b60007f000000000000000000000000000000000000000000000000000000000000000073ffffffffffffffffffffffffffffffffffffffff166370348f3e6040518163ffffffff1660e01b815260040160206040518083038186803b1580156100df57600080fd5b505afa1580156100f3573d6000803e3d6000fd5b505050506040513d601f19601f8201168201806040525081019061011791906101cd565b905090565b7f000000000000000000000000000000000000000000000000000000000000000081565b600073ffffffffffffffffffffffffffffffffffffffff82169050919050565b600061016b82610140565b9050919050565b61017b81610160565b82525050565b60006020820190506101966000830184610172565b92915050565b600080fd5b6101aa81610160565b81146101b557600080fd5b50565b6000815190506101c7816101a1565b92915050565b6000602082840312156101e3576101e261019c565b5b60006101f1848285016101b8565b9150509291505056fea2646970667358221220501a1b2fbe0ae64f48bb2258336b1c18150d31b7b34b58758e98ce2caac035c564736f6c63430008090033",
  "linkReferences": {},
  "deployedLinkReferences": {}
}