{
  "_format": "hh-sol-artifact-1",
  "contractName": "GovernorTimelockCompoundMock",
  "sourceName": "contracts/openzeppelin/mocks/GovernorTimelockCompoundMock.sol",
  "abi": [
    {
      "inputs": [
        {
          "internalType": "string",
          "name": "name_",
          "type": "string"
        },
        {
          "internalType": "contract IVotes",
          "name": "token_",
          "type": "address"
        },
        {
          "internalType": "uint256",
          "name": "votingDelay_",
          "type": "uint256"
        },
        {
          "internalType": "uint256",
          "name": "votingPeriod_",
          "type": "uint256"
        },
        {
          "internalType": "contract ICompoundTimelock",
          "name": "timelock_",
          "type": "address"
        },
        {
          "internalType": "uint256",
          "name": "quorumNumerator_",
          "type": "uint256"
        }
      ],
      "stateMutability": "nonpayable",
      "type": "constructor"
    },
    {
      "inputs": [],
      "name": "Empty",
      "type": "error"
    },
    {
      "anonymous": false,
      "inputs": [
        {
          "indexed": false,
          "internalType": "uint256",
          "name": "proposalId",
          "type": "uint256"
        }
      ],
      "name": "ProposalCanceled",
      "type": "event"
    },
    {
      "anonymous": false,
      "inputs": [
        {
          "indexed": false,
          "internalType": "uint256",
          "name": "proposalId",
          "type": "uint256"
        },
        {
          "indexed": false,
          "internalType": "address",
          "name": "proposer",
          "type": "address"
        },
        {
          "indexed": false,
          "internalType": "address[]",
          "name": "targets",
          "type": "address[]"
        },
        {
          "indexed": false,
          "internalType": "uint256[]",
          "name": "values",
          "type": "uint256[]"
        },
        {
          "indexed": false,
          "internalType": "string[]",
          "name": "signatures",
          "type": "string[]"
        },
        {
          "indexed": false,
          "internalType": "bytes[]",
          "name": "calldatas",
          "type": "bytes[]"
        },
        {
          "indexed": false,
          "internalType": "uint256",
          "name": "startBlock",
          "type": "uint256"
        },
        {
          "indexed": false,
          "internalType": "uint256",
          "name": "endBlock",
          "type": "uint256"
        },
        {
          "indexed": false,
          "internalType": "string",
          "name": "description",
          "type": "string"
        }
      ],
      "name": "ProposalCreated",
      "type": "event"
    },
    {
      "anonymous": false,
      "inputs": [
        {
          "indexed": false,
          "internalType": "uint256",
          "name": "proposalId",
          "type": "uint256"
        }
      ],
      "name": "ProposalExecuted",
      "type": "event"
    },
    {
      "anonymous": false,
      "inputs": [
        {
          "indexed": false,
          "internalType": "uint256",
          "name": "proposalId",
          "type": "uint256"
        },
        {
          "indexed": false,
          "internalType": "uint256",
          "name": "eta",
          "type": "uint256"
        }
      ],
      "name": "ProposalQueued",
      "type": "event"
    },
    {
      "anonymous": false,
      "inputs": [
        {
          "indexed": false,
          "internalType": "uint256",
          "name": "oldProposalThreshold",
          "type": "uint256"
        },
        {
          "indexed": false,
          "internalType": "uint256",
          "name": "newProposalThreshold",
          "type": "uint256"
        }
      ],
      "name": "ProposalThresholdSet",
      "type": "event"
    },
    {
      "anonymous": false,
      "inputs": [
        {
          "indexed": false,
          "internalType": "uint256",
          "name": "oldQuorumNumerator",
          "type": "uint256"
        },
        {
          "indexed": false,
          "internalType": "uint256",
          "name": "newQuorumNumerator",
          "type": "uint256"
        }
      ],
      "name": "QuorumNumeratorUpdated",
      "type": "event"
    },
    {
      "anonymous": false,
      "inputs": [
        {
          "indexed": false,
          "internalType": "address",
          "name": "oldTimelock",
          "type": "address"
        },
        {
          "indexed": false,
          "internalType": "address",
          "name": "newTimelock",
          "type": "address"
        }
      ],
      "name": "TimelockChange",
      "type": "event"
    },
    {
      "anonymous": false,
      "inputs": [
        {
          "indexed": true,
          "internalType": "address",
          "name": "voter",
          "type": "address"
        },
        {
          "indexed": false,
          "internalType": "uint256",
          "name": "proposalId",
          "type": "uint256"
        },
        {
          "indexed": false,
          "internalType": "uint8",
          "name": "support",
          "type": "uint8"
        },
        {
          "indexed": false,
          "internalType": "uint256",
          "name": "weight",
          "type": "uint256"
        },
        {
          "indexed": false,
          "internalType": "string",
          "name": "reason",
          "type": "string"
        }
      ],
      "name": "VoteCast",
      "type": "event"
    },
    {
      "anonymous": false,
      "inputs": [
        {
          "indexed": true,
          "internalType": "address",
          "name": "voter",
          "type": "address"
        },
        {
          "indexed": false,
          "internalType": "uint256",
          "name": "proposalId",
          "type": "uint256"
        },
        {
          "indexed": false,
          "internalType": "uint8",
          "name": "support",
          "type": "uint8"
        },
        {
          "indexed": false,
          "internalType": "uint256",
          "name": "weight",
          "type": "uint256"
        },
        {
          "indexed": false,
          "internalType": "string",
          "name": "reason",
          "type": "string"
        },
        {
          "indexed": false,
          "internalType": "bytes",
          "name": "params",
          "type": "bytes"
        }
      ],
      "name": "VoteCastWithParams",
      "type": "event"
    },
    {
      "anonymous": false,
      "inputs": [
        {
          "indexed": false,
          "internalType": "uint256",
          "name": "oldVotingDelay",
          "type": "uint256"
        },
        {
          "indexed": false,
          "internalType": "uint256",
          "name": "newVotingDelay",
          "type": "uint256"
        }
      ],
      "name": "VotingDelaySet",
      "type": "event"
    },
    {
      "anonymous": false,
      "inputs": [
        {
          "indexed": false,
          "internalType": "uint256",
          "name": "oldVotingPeriod",
          "type": "uint256"
        },
        {
          "indexed": false,
          "internalType": "uint256",
          "name": "newVotingPeriod",
          "type": "uint256"
        }
      ],
      "name": "VotingPeriodSet",
      "type": "event"
    },
    {
      "inputs": [],
      "name": "BALLOT_TYPEHASH",
      "outputs": [
        {
          "internalType": "bytes32",
          "name": "",
          "type": "bytes32"
        }
      ],
      "stateMutability": "view",
      "type": "function"
    },
    {
      "inputs": [],
      "name": "COUNTING_MODE",
      "outputs": [
        {
          "internalType": "string",
          "name": "",
          "type": "string"
        }
      ],
      "stateMutability": "pure",
      "type": "function"
    },
    {
      "inputs": [],
      "name": "EXTENDED_BALLOT_TYPEHASH",
      "outputs": [
        {
          "internalType": "bytes32",
          "name": "",
          "type": "bytes32"
        }
      ],
      "stateMutability": "view",
      "type": "function"
    },
    {
      "inputs": [],
      "name": "__acceptAdmin",
      "outputs": [],
      "stateMutability": "nonpayable",
      "type": "function"
    },
    {
      "inputs": [
        {
          "internalType": "address[]",
          "name": "targets",
          "type": "address[]"
        },
        {
          "internalType": "uint256[]",
          "name": "values",
          "type": "uint256[]"
        },
        {
          "internalType": "bytes[]",
          "name": "calldatas",
          "type": "bytes[]"
        },
        {
          "internalType": "bytes32",
          "name": "salt",
          "type": "bytes32"
        }
      ],
      "name": "cancel",
      "outputs": [
        {
          "internalType": "uint256",
          "name": "proposalId",
          "type": "uint256"
        }
      ],
      "stateMutability": "nonpayable",
      "type": "function"
    },
    {
      "inputs": [
        {
          "internalType": "uint256",
          "name": "proposalId",
          "type": "uint256"
        },
        {
          "internalType": "uint8",
          "name": "support",
          "type": "uint8"
        }
      ],
      "name": "castVote",
      "outputs": [
        {
          "internalType": "uint256",
          "name": "",
          "type": "uint256"
        }
      ],
      "stateMutability": "nonpayable",
      "type": "function"
    },
    {
      "inputs": [
        {
          "internalType": "uint256",
          "name": "proposalId",
          "type": "uint256"
        },
        {
          "internalType": "uint8",
          "name": "support",
          "type": "uint8"
        },
        {
          "internalType": "uint8",
          "name": "v",
          "type": "uint8"
        },
        {
          "internalType": "bytes32",
          "name": "r",
          "type": "bytes32"
        },
        {
          "internalType": "bytes32",
          "name": "s",
          "type": "bytes32"
        }
      ],
      "name": "castVoteBySig",
      "outputs": [
        {
          "internalType": "uint256",
          "name": "",
          "type": "uint256"
        }
      ],
      "stateMutability": "nonpayable",
      "type": "function"
    },
    {
      "inputs": [
        {
          "internalType": "uint256",
          "name": "proposalId",
          "type": "uint256"
        },
        {
          "internalType": "uint8",
          "name": "support",
          "type": "uint8"
        },
        {
          "internalType": "string",
          "name": "reason",
          "type": "string"
        }
      ],
      "name": "castVoteWithReason",
      "outputs": [
        {
          "internalType": "uint256",
          "name": "",
          "type": "uint256"
        }
      ],
      "stateMutability": "nonpayable",
      "type": "function"
    },
    {
      "inputs": [
        {
          "internalType": "uint256",
          "name": "proposalId",
          "type": "uint256"
        },
        {
          "internalType": "uint8",
          "name": "support",
          "type": "uint8"
        },
        {
          "internalType": "string",
          "name": "reason",
          "type": "string"
        },
        {
          "internalType": "bytes",
          "name": "params",
          "type": "bytes"
        }
      ],
      "name": "castVoteWithReasonAndParams",
      "outputs": [
        {
          "internalType": "uint256",
          "name": "",
          "type": "uint256"
        }
      ],
      "stateMutability": "nonpayable",
      "type": "function"
    },
    {
      "inputs": [
        {
          "internalType": "uint256",
          "name": "proposalId",
          "type": "uint256"
        },
        {
          "internalType": "uint8",
          "name": "support",
          "type": "uint8"
        },
        {
          "internalType": "string",
          "name": "reason",
          "type": "string"
        },
        {
          "internalType": "bytes",
          "name": "params",
          "type": "bytes"
        },
        {
          "internalType": "uint8",
          "name": "v",
          "type": "uint8"
        },
        {
          "internalType": "bytes32",
          "name": "r",
          "type": "bytes32"
        },
        {
          "internalType": "bytes32",
          "name": "s",
          "type": "bytes32"
        }
      ],
      "name": "castVoteWithReasonAndParamsBySig",
      "outputs": [
        {
          "internalType": "uint256",
          "name": "",
          "type": "uint256"
        }
      ],
      "stateMutability": "nonpayable",
      "type": "function"
    },
    {
      "inputs": [
        {
          "internalType": "address[]",
          "name": "targets",
          "type": "address[]"
        },
        {
          "internalType": "uint256[]",
          "name": "values",
          "type": "uint256[]"
        },
        {
          "internalType": "bytes[]",
          "name": "calldatas",
          "type": "bytes[]"
        },
        {
          "internalType": "bytes32",
          "name": "descriptionHash",
          "type": "bytes32"
        }
      ],
      "name": "execute",
      "outputs": [
        {
          "internalType": "uint256",
          "name": "",
          "type": "uint256"
        }
      ],
      "stateMutability": "payable",
      "type": "function"
    },
    {
      "inputs": [
        {
          "internalType": "address",
          "name": "account",
          "type": "address"
        },
        {
          "internalType": "uint256",
          "name": "blockNumber",
          "type": "uint256"
        }
      ],
      "name": "getVotes",
      "outputs": [
        {
          "internalType": "uint256",
          "name": "",
          "type": "uint256"
        }
      ],
      "stateMutability": "view",
      "type": "function"
    },
    {
      "inputs": [
        {
          "internalType": "address",
          "name": "account",
          "type": "address"
        },
        {
          "internalType": "uint256",
          "name": "blockNumber",
          "type": "uint256"
        },
        {
          "internalType": "bytes",
          "name": "params",
          "type": "bytes"
        }
      ],
      "name": "getVotesWithParams",
      "outputs": [
        {
          "internalType": "uint256",
          "name": "",
          "type": "uint256"
        }
      ],
      "stateMutability": "view",
      "type": "function"
    },
    {
      "inputs": [
        {
          "internalType": "uint256",
          "name": "proposalId",
          "type": "uint256"
        },
        {
          "internalType": "address",
          "name": "account",
          "type": "address"
        }
      ],
      "name": "hasVoted",
      "outputs": [
        {
          "internalType": "bool",
          "name": "",
          "type": "bool"
        }
      ],
      "stateMutability": "view",
      "type": "function"
    },
    {
      "inputs": [
        {
          "internalType": "address[]",
          "name": "targets",
          "type": "address[]"
        },
        {
          "internalType": "uint256[]",
          "name": "values",
          "type": "uint256[]"
        },
        {
          "internalType": "bytes[]",
          "name": "calldatas",
          "type": "bytes[]"
        },
        {
          "internalType": "bytes32",
          "name": "descriptionHash",
          "type": "bytes32"
        }
      ],
      "name": "hashProposal",
      "outputs": [
        {
          "internalType": "uint256",
          "name": "",
          "type": "uint256"
        }
      ],
      "stateMutability": "pure",
      "type": "function"
    },
    {
      "inputs": [],
      "name": "name",
      "outputs": [
        {
          "internalType": "string",
          "name": "",
          "type": "string"
        }
      ],
      "stateMutability": "view",
      "type": "function"
    },
    {
      "inputs": [
        {
          "internalType": "address",
          "name": "",
          "type": "address"
        },
        {
          "internalType": "address",
          "name": "",
          "type": "address"
        },
        {
          "internalType": "uint256[]",
          "name": "",
          "type": "uint256[]"
        },
        {
          "internalType": "uint256[]",
          "name": "",
          "type": "uint256[]"
        },
        {
          "internalType": "bytes",
          "name": "",
          "type": "bytes"
        }
      ],
      "name": "onERC1155BatchReceived",
      "outputs": [
        {
          "internalType": "bytes4",
          "name": "",
          "type": "bytes4"
        }
      ],
      "stateMutability": "nonpayable",
      "type": "function"
    },
    {
      "inputs": [
        {
          "internalType": "address",
          "name": "",
          "type": "address"
        },
        {
          "internalType": "address",
          "name": "",
          "type": "address"
        },
        {
          "internalType": "uint256",
          "name": "",
          "type": "uint256"
        },
        {
          "internalType": "uint256",
          "name": "",
          "type": "uint256"
        },
        {
          "internalType": "bytes",
          "name": "",
          "type": "bytes"
        }
      ],
      "name": "onERC1155Received",
      "outputs": [
        {
          "internalType": "bytes4",
          "name": "",
          "type": "bytes4"
        }
      ],
      "stateMutability": "nonpayable",
      "type": "function"
    },
    {
      "inputs": [
        {
          "internalType": "address",
          "name": "",
          "type": "address"
        },
        {
          "internalType": "address",
          "name": "",
          "type": "address"
        },
        {
          "internalType": "uint256",
          "name": "",
          "type": "uint256"
        },
        {
          "internalType": "bytes",
          "name": "",
          "type": "bytes"
        }
      ],
      "name": "onERC721Received",
      "outputs": [
        {
          "internalType": "bytes4",
          "name": "",
          "type": "bytes4"
        }
      ],
      "stateMutability": "nonpayable",
      "type": "function"
    },
    {
      "inputs": [
        {
          "internalType": "uint256",
          "name": "proposalId",
          "type": "uint256"
        }
      ],
      "name": "proposalDeadline",
      "outputs": [
        {
          "internalType": "uint256",
          "name": "",
          "type": "uint256"
        }
      ],
      "stateMutability": "view",
      "type": "function"
    },
    {
      "inputs": [
        {
          "internalType": "uint256",
          "name": "proposalId",
          "type": "uint256"
        }
      ],
      "name": "proposalEta",
      "outputs": [
        {
          "internalType": "uint256",
          "name": "",
          "type": "uint256"
        }
      ],
      "stateMutability": "view",
      "type": "function"
    },
    {
      "inputs": [
        {
          "internalType": "uint256",
          "name": "proposalId",
          "type": "uint256"
        }
      ],
      "name": "proposalSnapshot",
      "outputs": [
        {
          "internalType": "uint256",
          "name": "",
          "type": "uint256"
        }
      ],
      "stateMutability": "view",
      "type": "function"
    },
    {
      "inputs": [],
      "name": "proposalThreshold",
      "outputs": [
        {
          "internalType": "uint256",
          "name": "",
          "type": "uint256"
        }
      ],
      "stateMutability": "view",
      "type": "function"
    },
    {
      "inputs": [
        {
          "internalType": "uint256",
          "name": "proposalId",
          "type": "uint256"
        }
      ],
      "name": "proposalVotes",
      "outputs": [
        {
          "internalType": "uint256",
          "name": "againstVotes",
          "type": "uint256"
        },
        {
          "internalType": "uint256",
          "name": "forVotes",
          "type": "uint256"
        },
        {
          "internalType": "uint256",
          "name": "abstainVotes",
          "type": "uint256"
        }
      ],
      "stateMutability": "view",
      "type": "function"
    },
    {
      "inputs": [
        {
          "internalType": "address[]",
          "name": "targets",
          "type": "address[]"
        },
        {
          "internalType": "uint256[]",
          "name": "values",
          "type": "uint256[]"
        },
        {
          "internalType": "bytes[]",
          "name": "calldatas",
          "type": "bytes[]"
        },
        {
          "internalType": "string",
          "name": "description",
          "type": "string"
        }
      ],
      "name": "propose",
      "outputs": [
        {
          "internalType": "uint256",
          "name": "",
          "type": "uint256"
        }
      ],
      "stateMutability": "nonpayable",
      "type": "function"
    },
    {
      "inputs": [
        {
          "internalType": "address[]",
          "name": "targets",
          "type": "address[]"
        },
        {
          "internalType": "uint256[]",
          "name": "values",
          "type": "uint256[]"
        },
        {
          "internalType": "bytes[]",
          "name": "calldatas",
          "type": "bytes[]"
        },
        {
          "internalType": "bytes32",
          "name": "descriptionHash",
          "type": "bytes32"
        }
      ],
      "name": "queue",
      "outputs": [
        {
          "internalType": "uint256",
          "name": "",
          "type": "uint256"
        }
      ],
      "stateMutability": "nonpayable",
      "type": "function"
    },
    {
      "inputs": [
        {
          "internalType": "uint256",
          "name": "blockNumber",
          "type": "uint256"
        }
      ],
      "name": "quorum",
      "outputs": [
        {
          "internalType": "uint256",
          "name": "",
          "type": "uint256"
        }
      ],
      "stateMutability": "view",
      "type": "function"
    },
    {
      "inputs": [],
      "name": "quorumDenominator",
      "outputs": [
        {
          "internalType": "uint256",
          "name": "",
          "type": "uint256"
        }
      ],
      "stateMutability": "view",
      "type": "function"
    },
    {
      "inputs": [
        {
          "internalType": "uint256",
          "name": "blockNumber",
          "type": "uint256"
        }
      ],
      "name": "quorumNumerator",
      "outputs": [
        {
          "internalType": "uint256",
          "name": "",
          "type": "uint256"
        }
      ],
      "stateMutability": "view",
      "type": "function"
    },
    {
      "inputs": [],
      "name": "quorumNumerator",
      "outputs": [
        {
          "internalType": "uint256",
          "name": "",
          "type": "uint256"
        }
      ],
      "stateMutability": "view",
      "type": "function"
    },
    {
      "inputs": [
        {
          "internalType": "address",
          "name": "target",
          "type": "address"
        },
        {
          "internalType": "uint256",
          "name": "value",
          "type": "uint256"
        },
        {
          "internalType": "bytes",
          "name": "data",
          "type": "bytes"
        }
      ],
      "name": "relay",
      "outputs": [],
      "stateMutability": "payable",
      "type": "function"
    },
    {
      "inputs": [
        {
          "internalType": "uint256",
          "name": "newProposalThreshold",
          "type": "uint256"
        }
      ],
      "name": "setProposalThreshold",
      "outputs": [],
      "stateMutability": "nonpayable",
      "type": "function"
    },
    {
      "inputs": [
        {
          "internalType": "uint256",
          "name": "newVotingDelay",
          "type": "uint256"
        }
      ],
      "name": "setVotingDelay",
      "outputs": [],
      "stateMutability": "nonpayable",
      "type": "function"
    },
    {
      "inputs": [
        {
          "internalType": "uint256",
          "name": "newVotingPeriod",
          "type": "uint256"
        }
      ],
      "name": "setVotingPeriod",
      "outputs": [],
      "stateMutability": "nonpayable",
      "type": "function"
    },
    {
      "inputs": [
        {
          "internalType": "uint256",
          "name": "proposalId",
          "type": "uint256"
        }
      ],
      "name": "state",
      "outputs": [
        {
          "internalType": "enum IGovernor.ProposalState",
          "name": "",
          "type": "uint8"
        }
      ],
      "stateMutability": "view",
      "type": "function"
    },
    {
      "inputs": [
        {
          "internalType": "bytes4",
          "name": "interfaceId",
          "type": "bytes4"
        }
      ],
      "name": "supportsInterface",
      "outputs": [
        {
          "internalType": "bool",
          "name": "",
          "type": "bool"
        }
      ],
      "stateMutability": "view",
      "type": "function"
    },
    {
      "inputs": [],
      "name": "timelock",
      "outputs": [
        {
          "internalType": "address",
          "name": "",
          "type": "address"
        }
      ],
      "stateMutability": "view",
      "type": "function"
    },
    {
      "inputs": [],
      "name": "token",
      "outputs": [
        {
          "internalType": "contract IVotes",
          "name": "",
          "type": "address"
        }
      ],
      "stateMutability": "view",
      "type": "function"
    },
    {
      "inputs": [
        {
          "internalType": "uint256",
          "name": "newQuorumNumerator",
          "type": "uint256"
        }
      ],
      "name": "updateQuorumNumerator",
      "outputs": [],
      "stateMutability": "nonpayable",
      "type": "function"
    },
    {
      "inputs": [
        {
          "internalType": "contract ICompoundTimelock",
          "name": "newTimelock",
          "type": "address"
        }
      ],
      "name": "updateTimelock",
      "outputs": [],
      "stateMutability": "nonpayable",
      "type": "function"
    },
    {
      "inputs": [],
      "name": "version",
      "outputs": [
        {
          "internalType": "string",
          "name": "",
          "type": "string"
        }
      ],
      "stateMutability": "view",
      "type": "function"
    },
    {
      "inputs": [],
      "name": "votingDelay",
      "outputs": [
        {
          "internalType": "uint256",
          "name": "",
          "type": "uint256"
        }
      ],
      "stateMutability": "view",
      "type": "function"
    },
    {
      "inputs": [],
      "name": "votingPeriod",
      "outputs": [
        {
          "internalType": "uint256",
          "name": "",
          "type": "uint256"
        }
      ],
      "stateMutability": "view",
      "type": "function"
    },
    {
      "stateMutability": "payable",
      "type": "receive"
    }
  ],
  "bytecode": "0x6101606040523480156200001257600080fd5b506040516200888e3803806200888e833981810160405281019062000038919062000f07565b808583868660008b8062000051620001b960201b60201c565b60008280519060200120905060008280519060200120905060007f8b73c3c69bb8fe3d512ecc4cf759cc79239f7b179b0ffacaa9a75d522b39400f90508260e081815250508161010081815250504660a08181525050620000ba818484620001f660201b60201c565b608081815250503073ffffffffffffffffffffffffffffffffffffffff1660c08173ffffffffffffffffffffffffffffffffffffffff1681525050806101208181525050505050505080600090805190602001906200011b92919062000bad565b50506200012e836200023260201b60201c565b6200013f826200027960201b60201c565b62000150816200030660201b60201c565b50505062000164816200034d60201b60201c565b508073ffffffffffffffffffffffffffffffffffffffff166101408173ffffffffffffffffffffffffffffffffffffffff168152505050620001ac81620003ee60201b60201c565b505050505050506200148e565b60606040518060400160405280600181526020017f3100000000000000000000000000000000000000000000000000000000000000815250905090565b600083838346306040516020016200021395949392919062000fff565b6040516020818303038152906040528051906020012090509392505050565b7fc565b045403dc03c2eea82b81a0465edad9e2e7fc4d97e11421c209da93d7a9360045482604051620002679291906200105c565b60405180910390a18060048190555050565b60008111620002bf576040517f08c379a0000000000000000000000000000000000000000000000000000000008152600401620002b69062001110565b60405180910390fd5b7f7e3f7f0708a84de9203036abaa450dccc85ad5ff52f78c170f3edb55cf5e882860055482604051620002f49291906200105c565b60405180910390a18060058190555050565b7fccb45da8d5717e6c4544694297c4ba5cf151d455c9bb0ed4fc7a38411bc05461600654826040516200033b9291906200105c565b60405180910390a18060068190555050565b7f08f74ea46ef7894f65eabfb5e6e695de773a000b47c529ab559178069b226401600760009054906101000a900473ffffffffffffffffffffffffffffffffffffffff1682604051620003a292919062001132565b60405180910390a180600760006101000a81548173ffffffffffffffffffffffffffffffffffffffff021916908373ffffffffffffffffffffffffffffffffffffffff16021790555050565b620003fe620005cd60201b60201c565b81111562000443576040517f08c379a00000000000000000000000000000000000000000000000000000000081526004016200043a90620011fb565b60405180910390fd5b600062000455620005d660201b60201c565b9050600081141580156200047157506000600a60000180549050145b156200057157600a6000016040518060400160405280600063ffffffff168152602001620004aa846200062c60201b620023a21760201c565b7bffffffffffffffffffffffffffffffffffffffffffffffffffffffff168152509080600181540180825580915050600190039060005260206000200160009091909190915060008201518160000160006101000a81548163ffffffff021916908363ffffffff16021790555060208201518160000160046101000a8154817bffffffffffffffffffffffffffffffffffffffffffffffffffffffff02191690837bffffffffffffffffffffffffffffffffffffffffffffffffffffffff16021790555050505b6200058c82600a6200069a60201b6200240d1790919060201c565b50507f0553476bf02ef2726e8ce5ced78d63e26e602e4a2257b1f559418e24b46339978183604051620005c19291906200105c565b60405180910390a15050565b60006064905090565b600080600a60000180549050146200062357620005ff600a6200072a60201b6200247b1760201c565b7bffffffffffffffffffffffffffffffffffffffffffffffffffffffff1662000627565b6009545b905090565b60007bffffffffffffffffffffffffffffffffffffffffffffffffffffffff801682111562000692576040517f08c379a0000000000000000000000000000000000000000000000000000000008152600401620006899062001293565b60405180910390fd5b819050919050565b600080620006dd84600001620006bb43620007a060201b620024e51760201c565b620006d1866200062c60201b620023a21760201c565b620007f660201b60201c565b817bffffffffffffffffffffffffffffffffffffffffffffffffffffffff169150807bffffffffffffffffffffffffffffffffffffffffffffffffffffffff169050915091509250929050565b600080826000018054905090506000811462000795576200076383600001600183620007579190620012e4565b62000b9860201b60201c565b60000160049054906101000a90047bffffffffffffffffffffffffffffffffffffffffffffffffffffffff1662000798565b60005b915050919050565b600063ffffffff8016821115620007ee576040517f08c379a0000000000000000000000000000000000000000000000000000000008152600401620007e59062001395565b60405180910390fd5b819050919050565b600080600085805490509050600081111562000aa85760006200082e87600184620008229190620012e4565b62000b9860201b60201c565b6040518060400160405290816000820160009054906101000a900463ffffffff1663ffffffff1663ffffffff1681526020016000820160049054906101000a90047bffffffffffffffffffffffffffffffffffffffffffffffffffffffff167bffffffffffffffffffffffffffffffffffffffffffffffffffffffff167bffffffffffffffffffffffffffffffffffffffffffffffffffffffff168152505090508563ffffffff16816000015163ffffffff16111562000925576040517f08c379a00000000000000000000000000000000000000000000000000000000081526004016200091c9062001407565b60405180910390fd5b8563ffffffff16816000015163ffffffff161415620009b657846200095f88600185620009539190620012e4565b62000b9860201b60201c565b60000160046101000a8154817bffffffffffffffffffffffffffffffffffffffffffffffffffffffff02191690837bffffffffffffffffffffffffffffffffffffffffffffffffffffffff16021790555062000a96565b8660405180604001604052808863ffffffff168152602001877bffffffffffffffffffffffffffffffffffffffffffffffffffffffff168152509080600181540180825580915050600190039060005260206000200160009091909190915060008201518160000160006101000a81548163ffffffff021916908363ffffffff16021790555060208201518160000160046101000a8154817bffffffffffffffffffffffffffffffffffffffffffffffffffffffff02191690837bffffffffffffffffffffffffffffffffffffffffffffffffffffffff16021790555050505b80602001518593509350505062000b90565b8560405180604001604052808763ffffffff168152602001867bffffffffffffffffffffffffffffffffffffffffffffffffffffffff168152509080600181540180825580915050600190039060005260206000200160009091909190915060008201518160000160006101000a81548163ffffffff021916908363ffffffff16021790555060208201518160000160046101000a8154817bffffffffffffffffffffffffffffffffffffffffffffffffffffffff02191690837bffffffffffffffffffffffffffffffffffffffffffffffffffffffff160217905550505060008492509250505b935093915050565b60008260005281602060002001905092915050565b82805462000bbb9062001458565b90600052602060002090601f01602090048101928262000bdf576000855562000c2b565b82601f1062000bfa57805160ff191683800117855562000c2b565b8280016001018555821562000c2b579182015b8281111562000c2a57825182559160200191906001019062000c0d565b5b50905062000c3a919062000c3e565b5090565b5b8082111562000c5957600081600090555060010162000c3f565b5090565b6000604051905090565b600080fd5b600080fd5b600080fd5b600080fd5b6000601f19601f8301169050919050565b7f4e487b7100000000000000000000000000000000000000000000000000000000600052604160045260246000fd5b62000cc68262000c7b565b810181811067ffffffffffffffff8211171562000ce85762000ce762000c8c565b5b80604052505050565b600062000cfd62000c5d565b905062000d0b828262000cbb565b919050565b600067ffffffffffffffff82111562000d2e5762000d2d62000c8c565b5b62000d398262000c7b565b9050602081019050919050565b60005b8381101562000d6657808201518184015260208101905062000d49565b8381111562000d76576000848401525b50505050565b600062000d9362000d8d8462000d10565b62000cf1565b90508281526020810184848401111562000db25762000db162000c76565b5b62000dbf84828562000d46565b509392505050565b600082601f83011262000ddf5762000dde62000c71565b5b815162000df184826020860162000d7c565b91505092915050565b600073ffffffffffffffffffffffffffffffffffffffff82169050919050565b600062000e278262000dfa565b9050919050565b600062000e3b8262000e1a565b9050919050565b62000e4d8162000e2e565b811462000e5957600080fd5b50565b60008151905062000e6d8162000e42565b92915050565b6000819050919050565b62000e888162000e73565b811462000e9457600080fd5b50565b60008151905062000ea88162000e7d565b92915050565b600062000ebb8262000dfa565b9050919050565b600062000ecf8262000eae565b9050919050565b62000ee18162000ec2565b811462000eed57600080fd5b50565b60008151905062000f018162000ed6565b92915050565b60008060008060008060c0878903121562000f275762000f2662000c67565b5b600087015167ffffffffffffffff81111562000f485762000f4762000c6c565b5b62000f5689828a0162000dc7565b965050602062000f6989828a0162000e5c565b955050604062000f7c89828a0162000e97565b945050606062000f8f89828a0162000e97565b935050608062000fa289828a0162000ef0565b92505060a062000fb589828a0162000e97565b9150509295509295509295565b6000819050919050565b62000fd78162000fc2565b82525050565b62000fe88162000e73565b82525050565b62000ff98162000e1a565b82525050565b600060a08201905062001016600083018862000fcc565b62001025602083018762000fcc565b62001034604083018662000fcc565b62001043606083018562000fdd565b62001052608083018462000fee565b9695505050505050565b600060408201905062001073600083018562000fdd565b62001082602083018462000fdd565b9392505050565b600082825260208201905092915050565b7f476f7665726e6f7253657474696e67733a20766f74696e6720706572696f642060008201527f746f6f206c6f7700000000000000000000000000000000000000000000000000602082015250565b6000620010f860278362001089565b915062001105826200109a565b604082019050919050565b600060208201905081810360008301526200112b81620010e9565b9050919050565b600060408201905062001149600083018562000fee565b62001158602083018462000fee565b9392505050565b7f476f7665726e6f72566f74657351756f72756d4672616374696f6e3a2071756f60008201527f72756d4e756d657261746f72206f7665722071756f72756d44656e6f6d696e6160208201527f746f720000000000000000000000000000000000000000000000000000000000604082015250565b6000620011e360438362001089565b9150620011f0826200115f565b606082019050919050565b600060208201905081810360008301526200121681620011d4565b9050919050565b7f53616665436173743a2076616c756520646f65736e27742066697420696e203260008201527f3234206269747300000000000000000000000000000000000000000000000000602082015250565b60006200127b60278362001089565b915062001288826200121d565b604082019050919050565b60006020820190508181036000830152620012ae816200126c565b9050919050565b7f4e487b7100000000000000000000000000000000000000000000000000000000600052601160045260246000fd5b6000620012f18262000e73565b9150620012fe8362000e73565b925082821015620013145762001313620012b5565b5b828203905092915050565b7f53616665436173743a2076616c756520646f65736e27742066697420696e203360008201527f3220626974730000000000000000000000000000000000000000000000000000602082015250565b60006200137d60268362001089565b91506200138a826200131f565b604082019050919050565b60006020820190508181036000830152620013b0816200136e565b9050919050565b7f436865636b706f696e743a20696e76616c6964206b6579000000000000000000600082015250565b6000620013ef60178362001089565b9150620013fc82620013b7565b602082019050919050565b600060208201905081810360008301526200142281620013e0565b9050919050565b7f4e487b7100000000000000000000000000000000000000000000000000000000600052602260045260246000fd5b600060028204905060018216806200147157607f821691505b6020821081141562001488576200148762001429565b5b50919050565b60805160a05160c05160e051610100516101205161014051617397620014f76000396000818161238001528181612f4e01526131d201526000613843015260006138850152600061386401526000613799015260006137ef0152600061381801526173976000f3fe6080604052600436106102605760003560e01c80637b3c71d311610144578063c28bc2fa116100b6578063ea0217cf1161007a578063ea0217cf14610a28578063eb9019d414610a51578063ece40cc114610a8e578063f23a6e6114610ab7578063f8ce560a14610af4578063fc0c546a14610b31576102a6565b8063c28bc2fa1461094e578063c59057e41461096a578063d33219b4146109a7578063dd4e2ba5146109d2578063deaaa7cc146109fd576102a6565b8063a890c91011610108578063a890c9101461082c578063ab58fb8e14610855578063b58131b014610892578063b9a61961146108bd578063bc197c81146108d4578063c01f9e3714610911576102a6565b80637b3c71d31461071f5780637d5e81e21461075c57806397c3d334146107995780639a802a6d146107c4578063a7713a7014610801576102a6565b80633932abb1116101dd578063544ffc9c116101a1578063544ffc9c146105d557806354fd4d5014610614578063567813881461063f5780635f398a141461067c57806360c4247f146106b957806370b0f660146106f6576102a6565b80633932abb1146104b65780633bccf4fd146104e15780633e4f49e61461051e578063438596321461055b578063452115d614610598576102a6565b8063150b7a0211610224578063150b7a02146103a4578063160cbed7146103e15780632656227d1461041e5780632d63f6931461044e5780632fe3e2611461048b576102a6565b806301ffc9a7146102ab57806302a251a3146102e8578063034201811461031357806306f3f9e61461035057806306fdde0314610379576102a6565b366102a6573073ffffffffffffffffffffffffffffffffffffffff16610284610b5c565b73ffffffffffffffffffffffffffffffffffffffff16146102a457600080fd5b005b600080fd5b3480156102b757600080fd5b506102d260048036038101906102cd9190614763565b610b6b565b6040516102df91906147ab565b60405180910390f35b3480156102f457600080fd5b506102fd610b7d565b60405161030a91906147df565b60405180910390f35b34801561031f57600080fd5b5061033a60048036038101906103359190614a3b565b610b87565b60405161034791906147df565b60405180910390f35b34801561035c57600080fd5b5061037760048036038101906103729190614b19565b610c6c565b005b34801561038557600080fd5b5061038e610d68565b60405161039b9190614bce565b60405180910390f35b3480156103b057600080fd5b506103cb60048036038101906103c69190614c4e565b610dfa565b6040516103d89190614ce0565b60405180910390f35b3480156103ed57600080fd5b5061040860048036038101906104039190614f62565b610e0e565b60405161041591906147df565b60405180910390f35b61043860048036038101906104339190614f62565b611238565b60405161044591906147df565b60405180910390f35b34801561045a57600080fd5b5061047560048036038101906104709190614b19565b611385565b60405161048291906147df565b60405180910390f35b34801561049757600080fd5b506104a06113f3565b6040516104ad919061502c565b60405180910390f35b3480156104c257600080fd5b506104cb611417565b6040516104d891906147df565b60405180910390f35b3480156104ed57600080fd5b5061050860048036038101906105039190615047565b611421565b60405161051591906147df565b60405180910390f35b34801561052a57600080fd5b5061054560048036038101906105409190614b19565b6114ab565b6040516105529190615139565b60405180910390f35b34801561056757600080fd5b50610582600480360381019061057d9190615154565b6114bd565b60405161058f91906147ab565b60405180910390f35b3480156105a457600080fd5b506105bf60048036038101906105ba9190614f62565b611528565b6040516105cc91906147df565b60405180910390f35b3480156105e157600080fd5b506105fc60048036038101906105f79190614b19565b611540565b60405161060b93929190615194565b60405180910390f35b34801561062057600080fd5b50610629611578565b6040516106369190614bce565b60405180910390f35b34801561064b57600080fd5b50610666600480360381019061066191906151cb565b6115b5565b60405161067391906147df565b60405180910390f35b34801561068857600080fd5b506106a3600480360381019061069e919061520b565b6115e6565b6040516106b091906147df565b60405180910390f35b3480156106c557600080fd5b506106e060048036038101906106db9190614b19565b611650565b6040516106ed91906147df565b60405180910390f35b34801561070257600080fd5b5061071d60048036038101906107189190614b19565b61179d565b005b34801561072b57600080fd5b50610746600480360381019061074191906152af565b611899565b60405161075391906147df565b60405180910390f35b34801561076857600080fd5b50610783600480360381019061077e91906153c4565b611901565b60405161079091906147df565b60405180910390f35b3480156107a557600080fd5b506107ae611c08565b6040516107bb91906147df565b60405180910390f35b3480156107d057600080fd5b506107eb60048036038101906107e6919061549b565b611c11565b6040516107f891906147df565b60405180910390f35b34801561080d57600080fd5b50610816611c27565b60405161082391906147df565b60405180910390f35b34801561083857600080fd5b50610853600480360381019061084e919061555a565b611c6e565b005b34801561086157600080fd5b5061087c60048036038101906108779190614b19565b611d6a565b60405161088991906147df565b60405180910390f35b34801561089e57600080fd5b506108a7611dd8565b6040516108b491906147df565b60405180910390f35b3480156108c957600080fd5b506108d2611de7565b005b3480156108e057600080fd5b506108fb60048036038101906108f69190615587565b611e6b565b6040516109089190614ce0565b60405180910390f35b34801561091d57600080fd5b5061093860048036038101906109339190614b19565b611e80565b60405161094591906147df565b60405180910390f35b610968600480360381019061096391906156ac565b611eee565b005b34801561097657600080fd5b50610991600480360381019061098c9190614f62565b61207c565b60405161099e91906147df565b60405180910390f35b3480156109b357600080fd5b506109bc6120b8565b6040516109c9919061572f565b60405180910390f35b3480156109de57600080fd5b506109e76120e2565b6040516109f49190614bce565b60405180910390f35b348015610a0957600080fd5b50610a1261211f565b604051610a1f919061502c565b60405180910390f35b348015610a3457600080fd5b50610a4f6004803603810190610a4a9190614b19565b612143565b005b348015610a5d57600080fd5b50610a786004803603810190610a73919061574a565b61223f565b604051610a8591906147df565b60405180910390f35b348015610a9a57600080fd5b50610ab56004803603810190610ab09190614b19565b61225b565b005b348015610ac357600080fd5b50610ade6004803603810190610ad9919061578a565b612357565b604051610aeb9190614ce0565b60405180910390f35b348015610b0057600080fd5b50610b1b6004803603810190610b169190614b19565b61236c565b604051610b2891906147df565b60405180910390f35b348015610b3d57600080fd5b50610b4661237e565b604051610b539190615880565b60405180910390f35b6000610b66612538565b905090565b6000610b7682612562565b9050919050565b6000600554905090565b600080610c0a610c027fb3b3f3b703cd84ce352197dcff232b1b5d3cfb2025ce47cf04742d0651f1af888c8c8c8c604051610bc39291906158cb565b60405180910390208b80519060200120604051602001610be79594939291906158f3565b604051602081830303815290604052805190602001206125dc565b8686866125f6565b9050610c5d8a828b8b8b8080601f016020809104026020016040519081016040528093929190818152602001838380828437600081840152601f19601f820116905080830192505050505050508a612621565b91505098975050505050505050565b610c74610b5c565b73ffffffffffffffffffffffffffffffffffffffff16610c926127de565b73ffffffffffffffffffffffffffffffffffffffff1614610ce8576040517f08c379a0000000000000000000000000000000000000000000000000000000008152600401610cdf90615992565b60405180910390fd5b3073ffffffffffffffffffffffffffffffffffffffff16610d07610b5c565b73ffffffffffffffffffffffffffffffffffffffff1614610d5c576000610d2c6127e6565b604051610d3a9291906158cb565b604051809103902090505b80610d5060026127f3565b14610d5a57610d45565b505b610d65816128cf565b50565b606060008054610d77906159e1565b80601f0160208091040260200160405190810160405280929190818152602001828054610da3906159e1565b8015610df05780601f10610dc557610100808354040283529160200191610df0565b820191906000526020600020905b815481529060010190602001808311610dd357829003601f168201915b5050505050905090565b600063150b7a0260e01b9050949350505050565b600080610e1d8686868661207c565b905060046007811115610e3357610e326150c2565b5b610e3c826114ab565b6007811115610e4e57610e4d6150c2565b5b14610e8e576040517f08c379a0000000000000000000000000000000000000000000000000000000008152600401610e8590615a85565b60405180910390fd5b6000600760009054906101000a900473ffffffffffffffffffffffffffffffffffffffff1673ffffffffffffffffffffffffffffffffffffffff16636a42b8f86040518163ffffffff1660e01b815260040160206040518083038186803b158015610ef857600080fd5b505afa158015610f0c573d6000803e3d6000fd5b505050506040513d601f19601f82011682018060405250810190610f309190615aba565b42610f3b9190615b16565b9050610f6d610f4982612a83565b60086000858152602001908152602001600020600001612ada90919063ffffffff16565b60005b87518110156111f157600760009054906101000a900473ffffffffffffffffffffffffffffffffffffffff1673ffffffffffffffffffffffffffffffffffffffff1663f2b06537898381518110610fca57610fc9615b6c565b5b6020026020010151898481518110610fe557610fe4615b6c565b5b602002602001015189858151811061100057610fff615b6c565b5b60200260200101518660405160200161101c9493929190615c16565b604051602081830303815290604052805190602001206040518263ffffffff1660e01b815260040161104e919061502c565b60206040518083038186803b15801561106657600080fd5b505afa15801561107a573d6000803e3d6000fd5b505050506040513d601f19601f8201168201806040525081019061109e9190615ca1565b156110de576040517f08c379a00000000000000000000000000000000000000000000000000000000081526004016110d590615d66565b60405180910390fd5b600760009054906101000a900473ffffffffffffffffffffffffffffffffffffffff1673ffffffffffffffffffffffffffffffffffffffff16633a66f90189838151811061112f5761112e615b6c565b5b602002602001015189848151811061114a57611149615b6c565b5b602002602001015189858151811061116557611164615b6c565b5b6020026020010151866040518563ffffffff1660e01b815260040161118d9493929190615c16565b602060405180830381600087803b1580156111a757600080fd5b505af11580156111bb573d6000803e3d6000fd5b505050506040513d601f19601f820116820180604052508101906111df9190615d9b565b50806111ea90615dc8565b9050610f70565b507f9a2e42fd6722813d69113e7d0079d3d940171428df7373df9c7f7617cfda28928282604051611223929190615e11565b60405180910390a18192505050949350505050565b6000806112478686868661207c565b90506000611254826114ab565b90506004600781111561126a576112696150c2565b5b81600781111561127d5761127c6150c2565b5b14806112ad575060056007811115611298576112976150c2565b5b8160078111156112ab576112aa6150c2565b5b145b6112ec576040517f08c379a00000000000000000000000000000000000000000000000000000000081526004016112e390615a85565b60405180910390fd5b600180600084815260200190815260200160002060020160006101000a81548160ff0219169083151502179055507f712ae1383f79ac853f8d882153778e0260ef8f03b504e2866e0593e04d2b291f8260405161134991906147df565b60405180910390a161135e8288888888612b09565b61136b8288888888612bed565b6113788288888888612c01565b8192505050949350505050565b60006113e2600160008481526020019081526020016000206000016040518060200160405290816000820160009054906101000a900467ffffffffffffffff1667ffffffffffffffff1667ffffffffffffffff1681525050612c5c565b67ffffffffffffffff169050919050565b7fb3b3f3b703cd84ce352197dcff232b1b5d3cfb2025ce47cf04742d0651f1af8881565b6000600454905090565b60008061148261147a7f150214d74d59b7d1e90c73fc22ef3d991dd0a76b046543d4d80ab92d2a50328f898960405160200161145f93929190615e3a565b604051602081830303815290604052805190602001206125dc565b8686866125f6565b905061149f87828860405180602001604052806000815250612c6a565b91505095945050505050565b60006114b682612c8a565b9050919050565b6000600b600084815260200190815260200160002060030160008373ffffffffffffffffffffffffffffffffffffffff1673ffffffffffffffffffffffffffffffffffffffff16815260200190815260200160002060009054906101000a900460ff16905092915050565b600061153685858585612db5565b9050949350505050565b600080600080600b60008681526020019081526020016000209050806000015481600101548260020154935093509350509193909250565b60606040518060400160405280600181526020017f3100000000000000000000000000000000000000000000000000000000000000815250905090565b6000806115c06127de565b90506115dd84828560405180602001604052806000815250612c6a565b91505092915050565b6000806115f16127de565b905061164487828888888080601f016020809104026020016040519081016040528093929190818152602001838380828437600081840152601f19601f8201169050808301925050505050505087612621565b91505095945050505050565b600080600a600001805490509050600081141561167257600954915050611798565b6000600a6000016001836116869190615e71565b8154811061169757611696615b6c565b5b906000526020600020016040518060400160405290816000820160009054906101000a900463ffffffff1663ffffffff1663ffffffff1681526020016000820160049054906101000a90047bffffffffffffffffffffffffffffffffffffffffffffffffffffffff167bffffffffffffffffffffffffffffffffffffffffffffffffffffffff167bffffffffffffffffffffffffffffffffffffffffffffffffffffffff1681525050905083816000015163ffffffff161161177f5780602001517bffffffffffffffffffffffffffffffffffffffffffffffffffffffff1692505050611798565b61179384600a612dcd90919063ffffffff16565b925050505b919050565b6117a5610b5c565b73ffffffffffffffffffffffffffffffffffffffff166117c36127de565b73ffffffffffffffffffffffffffffffffffffffff1614611819576040517f08c379a000000000000000000000000000000000000000000000000000000000815260040161181090615992565b60405180910390fd5b3073ffffffffffffffffffffffffffffffffffffffff16611838610b5c565b73ffffffffffffffffffffffffffffffffffffffff161461188d57600061185d6127e6565b60405161186b9291906158cb565b604051809103902090505b8061188160026127f3565b1461188b57611876565b505b61189681612ebc565b50565b6000806118a46127de565b90506118f686828787878080601f016020809104026020016040519081016040528093929190818152602001838380828437600081840152601f19601f82011690508083019250505050505050612c6a565b915050949350505050565b600061190b611dd8565b6119286119166127de565b6001436119239190615e71565b61223f565b1015611969576040517f08c379a000000000000000000000000000000000000000000000000000000000815260040161196090615f17565b60405180910390fd5b600061197e868686868051906020012061207c565b905084518651146119c4576040517f08c379a00000000000000000000000000000000000000000000000000000000081526004016119bb90615fa9565b60405180910390fd5b8351865114611a08576040517f08c379a00000000000000000000000000000000000000000000000000000000081526004016119ff90615fa9565b60405180910390fd5b6000865111611a4c576040517f08c379a0000000000000000000000000000000000000000000000000000000008152600401611a4390616015565b60405180910390fd5b6000600160008381526020019081526020016000209050611aac816000016040518060200160405290816000820160009054906101000a900467ffffffffffffffff1667ffffffffffffffff1667ffffffffffffffff1681525050612f01565b611aeb576040517f08c379a0000000000000000000000000000000000000000000000000000000008152600401611ae2906160a7565b60405180910390fd5b6000611afd611af8611417565b612a83565b611b0643612a83565b611b1091906160db565b90506000611b24611b1f610b7d565b612a83565b82611b2f91906160db565b9050611b478284600001612f1b90919063ffffffff16565b611b5d8184600101612f1b90919063ffffffff16565b7f7d84a6263ae0d98d3329bd7b46bb4e8d6f98cd35a7adb45c274c8b7fd5ebd5e084611b876127de565b8b8b8d5167ffffffffffffffff811115611ba457611ba36148da565b5b604051908082528060200260200182016040528015611bd757816020015b6060815260200190600190039081611bc25790505b508c88888e604051611bf1999897969594939291906164de565b60405180910390a183945050505050949350505050565b60006064905090565b6000611c1e848484612f4a565b90509392505050565b600080600a6000018054905014611c6557611c42600a61247b565b7bffffffffffffffffffffffffffffffffffffffffffffffffffffffff16611c69565b6009545b905090565b611c76610b5c565b73ffffffffffffffffffffffffffffffffffffffff16611c946127de565b73ffffffffffffffffffffffffffffffffffffffff1614611cea576040517f08c379a0000000000000000000000000000000000000000000000000000000008152600401611ce190615992565b60405180910390fd5b3073ffffffffffffffffffffffffffffffffffffffff16611d09610b5c565b73ffffffffffffffffffffffffffffffffffffffff1614611d5e576000611d2e6127e6565b604051611d3c9291906158cb565b604051809103902090505b80611d5260026127f3565b14611d5c57611d47565b505b611d6781613000565b50565b6000611dc7600860008481526020019081526020016000206000016040518060200160405290816000820160009054906101000a900467ffffffffffffffff1667ffffffffffffffff1667ffffffffffffffff168152505061309f565b67ffffffffffffffff169050919050565b6000611de26130ad565b905090565b600760009054906101000a900473ffffffffffffffffffffffffffffffffffffffff1673ffffffffffffffffffffffffffffffffffffffff16630e18b6816040518163ffffffff1660e01b8152600401600060405180830381600087803b158015611e5157600080fd5b505af1158015611e65573d6000803e3d6000fd5b50505050565b600063bc197c8160e01b905095945050505050565b6000611edd600160008481526020019081526020016000206001016040518060200160405290816000820160009054906101000a900467ffffffffffffffff1667ffffffffffffffff1667ffffffffffffffff1681525050612c5c565b67ffffffffffffffff169050919050565b611ef6610b5c565b73ffffffffffffffffffffffffffffffffffffffff16611f146127de565b73ffffffffffffffffffffffffffffffffffffffff1614611f6a576040517f08c379a0000000000000000000000000000000000000000000000000000000008152600401611f6190615992565b60405180910390fd5b3073ffffffffffffffffffffffffffffffffffffffff16611f89610b5c565b73ffffffffffffffffffffffffffffffffffffffff1614611fde576000611fae6127e6565b604051611fbc9291906158cb565b604051809103902090505b80611fd260026127f3565b14611fdc57611fc7565b505b6000808573ffffffffffffffffffffffffffffffffffffffff168585856040516120099291906158cb565b60006040518083038185875af1925050503d8060008114612046576040519150601f19603f3d011682016040523d82523d6000602084013e61204b565b606091505b5091509150612073828260405180606001604052806028815260200161733a602891396130b7565b50505050505050565b600084848484604051602001612095949392919061658e565b6040516020818303038152906040528051906020012060001c9050949350505050565b6000600760009054906101000a900473ffffffffffffffffffffffffffffffffffffffff16905090565b60606040518060400160405280602081526020017f737570706f72743d627261766f2671756f72756d3d666f722c6162737461696e815250905090565b7f150214d74d59b7d1e90c73fc22ef3d991dd0a76b046543d4d80ab92d2a50328f81565b61214b610b5c565b73ffffffffffffffffffffffffffffffffffffffff166121696127de565b73ffffffffffffffffffffffffffffffffffffffff16146121bf576040517f08c379a00000000000000000000000000000000000000000000000000000000081526004016121b690615992565b60405180910390fd5b3073ffffffffffffffffffffffffffffffffffffffff166121de610b5c565b73ffffffffffffffffffffffffffffffffffffffff16146122335760006122036127e6565b6040516122119291906158cb565b604051809103902090505b8061222760026127f3565b146122315761221c565b505b61223c816130d9565b50565b6000612253838361224e613161565b612f4a565b905092915050565b612263610b5c565b73ffffffffffffffffffffffffffffffffffffffff166122816127de565b73ffffffffffffffffffffffffffffffffffffffff16146122d7576040517f08c379a00000000000000000000000000000000000000000000000000000000081526004016122ce90615992565b60405180910390fd5b3073ffffffffffffffffffffffffffffffffffffffff166122f6610b5c565b73ffffffffffffffffffffffffffffffffffffffff161461234b57600061231b6127e6565b6040516123299291906158cb565b604051809103902090505b8061233f60026127f3565b1461234957612334565b505b61235481613178565b50565b600063f23a6e6160e01b905095945050505050565b6000612377826131bd565b9050919050565b7f000000000000000000000000000000000000000000000000000000000000000081565b60007bffffffffffffffffffffffffffffffffffffffffffffffffffffffff8016821115612405576040517f08c379a00000000000000000000000000000000000000000000000000000000081526004016123fc9061665a565b60405180910390fd5b819050919050565b60008061242e84600001612420436124e5565b612429866123a2565b613294565b817bffffffffffffffffffffffffffffffffffffffffffffffffffffffff169150807bffffffffffffffffffffffffffffffffffffffffffffffffffffffff169050915091509250929050565b60008082600001805490509050600081146124da576124a9836000016001836124a49190615e71565b61361b565b60000160049054906101000a90047bffffffffffffffffffffffffffffffffffffffffffffffffffffffff166124dd565b60005b915050919050565b600063ffffffff8016821115612530576040517f08c379a0000000000000000000000000000000000000000000000000000000008152600401612527906166ec565b60405180910390fd5b819050919050565b6000600760009054906101000a900473ffffffffffffffffffffffffffffffffffffffff16905090565b60007f6e665ced000000000000000000000000000000000000000000000000000000007bffffffffffffffffffffffffffffffffffffffffffffffffffffffff1916827bffffffffffffffffffffffffffffffffffffffffffffffffffffffff191614806125d557506125d482613630565b5b9050919050565b60006125ef6125e9613795565b836138af565b9050919050565b6000806000612607878787876138e2565b91509150612614816139c5565b8192505050949350505050565b6000806001600088815260200190815260200160002090506001600781111561264d5761264c6150c2565b5b612656886114ab565b6007811115612668576126676150c2565b5b146126a8576040517f08c379a000000000000000000000000000000000000000000000000000000000815260040161269f9061677e565b60405180910390fd5b6000612707876126f7846000016040518060200160405290816000820160009054906101000a900467ffffffffffffffff1667ffffffffffffffff1667ffffffffffffffff1681525050612c5c565b67ffffffffffffffff1686612f4a565b90506127168888888488613b33565b600084511415612779578673ffffffffffffffffffffffffffffffffffffffff167fb8e138887d0aa13bab447e82de9d5c1777041ecd21ca36ba824ff1e6c07ddda48988848960405161276c949392919061679e565b60405180910390a26127d0565b8673ffffffffffffffffffffffffffffffffffffffff167fe2babfbac5889a709b63bb7f598b324e08bc5a4fb9ec647fb3cbc9ec07eb871289888489896040516127c79594939291906167ea565b60405180910390a25b809250505095945050505050565b600033905090565b3660008036915091509091565b60006127fe82613d3a565b15612835576040517f3db2a12a00000000000000000000000000000000000000000000000000000000815260040160405180910390fd5b60008260000160009054906101000a9004600f0b905082600101600082600f0b600f0b815260200190815260200160002054915082600101600082600f0b600f0b815260200190815260200160002060009055600181018360000160006101000a8154816fffffffffffffffffffffffffffffffff0219169083600f0b6fffffffffffffffffffffffffffffffff16021790555050919050565b6128d7611c08565b811115612919576040517f08c379a0000000000000000000000000000000000000000000000000000000008152600401612910906168e3565b60405180910390fd5b6000612923611c27565b90506000811415801561293e57506000600a60000180549050145b15612a3057600a6000016040518060400160405280600063ffffffff168152602001612969846123a2565b7bffffffffffffffffffffffffffffffffffffffffffffffffffffffff168152509080600181540180825580915050600190039060005260206000200160009091909190915060008201518160000160006101000a81548163ffffffff021916908363ffffffff16021790555060208201518160000160046101000a8154817bffffffffffffffffffffffffffffffffffffffffffffffffffffffff02191690837bffffffffffffffffffffffffffffffffffffffffffffffffffffffff16021790555050505b612a4482600a61240d90919063ffffffff16565b50507f0553476bf02ef2726e8ce5ced78d63e26e602e4a2257b1f559418e24b46339978183604051612a77929190615e11565b60405180910390a15050565b600067ffffffffffffffff8016821115612ad2576040517f08c379a0000000000000000000000000000000000000000000000000000000008152600401612ac990616975565b60405180910390fd5b819050919050565b808260000160006101000a81548167ffffffffffffffff021916908367ffffffffffffffff1602179055505050565b3073ffffffffffffffffffffffffffffffffffffffff16612b28610b5c565b73ffffffffffffffffffffffffffffffffffffffff1614612be65760005b8451811015612be4573073ffffffffffffffffffffffffffffffffffffffff16858281518110612b7957612b78615b6c565b5b602002602001015173ffffffffffffffffffffffffffffffffffffffff161415612bd357612bd2838281518110612bb357612bb2615b6c565b5b6020026020010151805190602001206002613d6f90919063ffffffff16565b5b80612bdd90615dc8565b9050612b46565b505b5050505050565b612bfa8585858585613deb565b5050505050565b3073ffffffffffffffffffffffffffffffffffffffff16612c20610b5c565b73ffffffffffffffffffffffffffffffffffffffff1614612c5557612c456002613d3a565b612c5457612c536002613f94565b5b5b5050505050565b600081600001519050919050565b6000612c8085858585612c7b613161565b612621565b9050949350505050565b600080612c9683614015565b905060046007811115612cac57612cab6150c2565b5b816007811115612cbf57612cbe6150c2565b5b14612ccd5780915050612db0565b6000612cd884611d6a565b90506000811415612ced578192505050612db0565b600760009054906101000a900473ffffffffffffffffffffffffffffffffffffffff1673ffffffffffffffffffffffffffffffffffffffff1663c1a287e26040518163ffffffff1660e01b815260040160206040518083038186803b158015612d5557600080fd5b505afa158015612d69573d6000803e3d6000fd5b505050506040513d601f19601f82011682018060405250810190612d8d9190615aba565b81612d989190615b16565b4210612da957600692505050612db0565b6005925050505b919050565b6000612dc38585858561412a565b9050949350505050565b6000438210612e11576040517f08c379a0000000000000000000000000000000000000000000000000000000008152600401612e08906169e1565b60405180910390fd5b6000612e1c836124e5565b90506000846000018054905090506000612e3c866000018460008561427c565b905060008114612e9057612e5f86600001600183612e5a9190615e71565b61361b565b60000160049054906101000a90047bffffffffffffffffffffffffffffffffffffffffffffffffffffffff16612e93565b60005b7bffffffffffffffffffffffffffffffffffffffffffffffffffffffff16935050505092915050565b7fc565b045403dc03c2eea82b81a0465edad9e2e7fc4d97e11421c209da93d7a9360045482604051612eef929190615e11565b60405180910390a18060048190555050565b600080826000015167ffffffffffffffff16149050919050565b808260000160006101000a81548167ffffffffffffffff021916908367ffffffffffffffff1602179055505050565b60007f000000000000000000000000000000000000000000000000000000000000000073ffffffffffffffffffffffffffffffffffffffff16633a46b1a885856040518363ffffffff1660e01b8152600401612fa7929190616a01565b60206040518083038186803b158015612fbf57600080fd5b505afa158015612fd3573d6000803e3d6000fd5b505050506040513d601f19601f82011682018060405250810190612ff79190615aba565b90509392505050565b7f08f74ea46ef7894f65eabfb5e6e695de773a000b47c529ab559178069b226401600760009054906101000a900473ffffffffffffffffffffffffffffffffffffffff1682604051613053929190616a2a565b60405180910390a180600760006101000a81548173ffffffffffffffffffffffffffffffffffffffff021916908373ffffffffffffffffffffffffffffffffffffffff16021790555050565b600081600001519050919050565b6000600654905090565b606083156130c7578290506130d2565b6130d183836142ef565b5b9392505050565b6000811161311c576040517f08c379a000000000000000000000000000000000000000000000000000000000815260040161311390616ac5565b60405180910390fd5b7f7e3f7f0708a84de9203036abaa450dccc85ad5ff52f78c170f3edb55cf5e88286005548260405161314f929190615e11565b60405180910390a18060058190555050565b606060405180602001604052806000815250905090565b7fccb45da8d5717e6c4544694297c4ba5cf151d455c9bb0ed4fc7a38411bc05461600654826040516131ab929190615e11565b60405180910390a18060068190555050565b60006131c7611c08565b6131d083611650565b7f000000000000000000000000000000000000000000000000000000000000000073ffffffffffffffffffffffffffffffffffffffff16638e539e8c856040518263ffffffff1660e01b815260040161322991906147df565b60206040518083038186803b15801561324157600080fd5b505afa158015613255573d6000803e3d6000fd5b505050506040513d601f19601f820116820180604052508101906132799190615aba565b6132839190616ae5565b61328d9190616b6e565b9050919050565b600080600085805490509050600081111561352b5760006132c1876001846132bc9190615e71565b61361b565b6040518060400160405290816000820160009054906101000a900463ffffffff1663ffffffff1663ffffffff1681526020016000820160049054906101000a90047bffffffffffffffffffffffffffffffffffffffffffffffffffffffff167bffffffffffffffffffffffffffffffffffffffffffffffffffffffff167bffffffffffffffffffffffffffffffffffffffffffffffffffffffff168152505090508563ffffffff16816000015163ffffffff1611156133b5576040517f08c379a00000000000000000000000000000000000000000000000000000000081526004016133ac90616beb565b60405180910390fd5b8563ffffffff16816000015163ffffffff16141561343a57846133e4886001856133df9190615e71565b61361b565b60000160046101000a8154817bffffffffffffffffffffffffffffffffffffffffffffffffffffffff02191690837bffffffffffffffffffffffffffffffffffffffffffffffffffffffff16021790555061351a565b8660405180604001604052808863ffffffff168152602001877bffffffffffffffffffffffffffffffffffffffffffffffffffffffff168152509080600181540180825580915050600190039060005260206000200160009091909190915060008201518160000160006101000a81548163ffffffff021916908363ffffffff16021790555060208201518160000160046101000a8154817bffffffffffffffffffffffffffffffffffffffffffffffffffffffff02191690837bffffffffffffffffffffffffffffffffffffffffffffffffffffffff16021790555050505b806020015185935093505050613613565b8560405180604001604052808763ffffffff168152602001867bffffffffffffffffffffffffffffffffffffffffffffffffffffffff168152509080600181540180825580915050600190039060005260206000200160009091909190915060008201518160000160006101000a81548163ffffffff021916908363ffffffff16021790555060208201518160000160046101000a8154817bffffffffffffffffffffffffffffffffffffffffffffffffffffffff02191690837bffffffffffffffffffffffffffffffffffffffffffffffffffffffff160217905550505060008492509250505b935093915050565b60008260005281602060002001905092915050565b6000639a802a6d60e01b630342018160e01b635f398a1460e01b7f79dd796f000000000000000000000000000000000000000000000000000000001818187bffffffffffffffffffffffffffffffffffffffffffffffffffffffff1916827bffffffffffffffffffffffffffffffffffffffffffffffffffffffff1916148061371657507f79dd796f000000000000000000000000000000000000000000000000000000007bffffffffffffffffffffffffffffffffffffffffffffffffffffffff1916827bffffffffffffffffffffffffffffffffffffffffffffffffffffffff1916145b8061377e57507f4e2312e0000000000000000000000000000000000000000000000000000000007bffffffffffffffffffffffffffffffffffffffffffffffffffffffff1916827bffffffffffffffffffffffffffffffffffffffffffffffffffffffff1916145b8061378e575061378d8261433f565b5b9050919050565b60007f000000000000000000000000000000000000000000000000000000000000000073ffffffffffffffffffffffffffffffffffffffff163073ffffffffffffffffffffffffffffffffffffffff1614801561381157507f000000000000000000000000000000000000000000000000000000000000000046145b1561383e577f000000000000000000000000000000000000000000000000000000000000000090506138ac565b6138a97f00000000000000000000000000000000000000000000000000000000000000007f00000000000000000000000000000000000000000000000000000000000000007f00000000000000000000000000000000000000000000000000000000000000006143a9565b90505b90565b600082826040516020016138c4929190616c83565b60405160208183030381529060405280519060200120905092915050565b6000807f7fffffffffffffffffffffffffffffff5d576e7357a4501ddfe92f46681b20a08360001c111561391d5760006003915091506139bc565b6000600187878787604051600081526020016040526040516139429493929190616cba565b6020604051602081039080840390855afa158015613964573d6000803e3d6000fd5b505050602060405103519050600073ffffffffffffffffffffffffffffffffffffffff168173ffffffffffffffffffffffffffffffffffffffff1614156139b3576000600192509250506139bc565b80600092509250505b94509492505050565b600060048111156139d9576139d86150c2565b5b8160048111156139ec576139eb6150c2565b5b14156139f757613b30565b60016004811115613a0b57613a0a6150c2565b5b816004811115613a1e57613a1d6150c2565b5b1415613a5f576040517f08c379a0000000000000000000000000000000000000000000000000000000008152600401613a5690616d4b565b60405180910390fd5b60026004811115613a7357613a726150c2565b5b816004811115613a8657613a856150c2565b5b1415613ac7576040517f08c379a0000000000000000000000000000000000000000000000000000000008152600401613abe90616db7565b60405180910390fd5b60036004811115613adb57613ada6150c2565b5b816004811115613aee57613aed6150c2565b5b1415613b2f576040517f08c379a0000000000000000000000000000000000000000000000000000000008152600401613b2690616e49565b60405180910390fd5b5b50565b6000600b600087815260200190815260200160002090508060030160008673ffffffffffffffffffffffffffffffffffffffff1673ffffffffffffffffffffffffffffffffffffffff16815260200190815260200160002060009054906101000a900460ff1615613bd9576040517f08c379a0000000000000000000000000000000000000000000000000000000008152600401613bd090616edb565b60405180910390fd5b60018160030160008773ffffffffffffffffffffffffffffffffffffffff1673ffffffffffffffffffffffffffffffffffffffff16815260200190815260200160002060006101000a81548160ff02191690831515021790555060006002811115613c4757613c466150c2565b5b60ff168460ff161415613c745782816000016000828254613c689190615b16565b92505081905550613d32565b60016002811115613c8857613c876150c2565b5b60ff168460ff161415613cb55782816001016000828254613ca99190615b16565b92505081905550613d31565b600280811115613cc857613cc76150c2565b5b60ff168460ff161415613cf55782816002016000828254613ce99190615b16565b92505081905550613d30565b6040517f08c379a0000000000000000000000000000000000000000000000000000000008152600401613d2790616f6d565b60405180910390fd5b5b5b505050505050565b60008160000160009054906101000a9004600f0b600f0b8260000160109054906101000a9004600f0b600f0b13159050919050565b60008260000160109054906101000a9004600f0b90508183600101600083600f0b600f0b815260200190815260200160002081905550600181018360000160106101000a8154816fffffffffffffffffffffffffffffffff0219169083600f0b6fffffffffffffffffffffffffffffffff160217905550505050565b6000613df686611d6a565b905060008111613e3b576040517f08c379a0000000000000000000000000000000000000000000000000000000008152600401613e3290616fff565b60405180910390fd5b613e67600760009054906101000a900473ffffffffffffffffffffffffffffffffffffffff16346143e3565b60005b8551811015613f8b57600760009054906101000a900473ffffffffffffffffffffffffffffffffffffffff1673ffffffffffffffffffffffffffffffffffffffff16630825f38f878381518110613ec457613ec3615b6c565b5b6020026020010151878481518110613edf57613ede615b6c565b5b6020026020010151878581518110613efa57613ef9615b6c565b5b6020026020010151866040518563ffffffff1660e01b8152600401613f229493929190615c16565b600060405180830381600087803b158015613f3c57600080fd5b505af1158015613f50573d6000803e3d6000fd5b505050506040513d6000823e3d601f19601f82011682018060405250810190613f79919061708f565b5080613f8490615dc8565b9050613e6a565b50505050505050565b60008160000160006101000a8154816fffffffffffffffffffffffffffffffff0219169083600f0b6fffffffffffffffffffffffffffffffff16021790555060008160000160106101000a8154816fffffffffffffffffffffffffffffffff0219169083600f0b6fffffffffffffffffffffffffffffffff16021790555050565b6000806001600084815260200190815260200160002090508060020160009054906101000a900460ff161561404e576007915050614125565b8060020160019054906101000a900460ff161561406f576002915050614125565b600061407a84611385565b905060008114156140c0576040517f08c379a00000000000000000000000000000000000000000000000000000000081526004016140b790617124565b60405180910390fd5b4381106140d257600092505050614125565b60006140dd85611e80565b90504381106140f25760019350505050614125565b6140fb856144d7565b801561410c575061410b8561451e565b5b1561411d5760049350505050614125565b600393505050505b919050565b60008061413986868686614549565b9050600061414682611d6a565b9050600081111561426f5760005b875181101561424f57600760009054906101000a900473ffffffffffffffffffffffffffffffffffffffff1673ffffffffffffffffffffffffffffffffffffffff1663591fcdfe8983815181106141ae576141ad615b6c565b5b60200260200101518984815181106141c9576141c8615b6c565b5b60200260200101518985815181106141e4576141e3615b6c565b5b6020026020010151866040518563ffffffff1660e01b815260040161420c9493929190615c16565b600060405180830381600087803b15801561422657600080fd5b505af115801561423a573d6000803e3d6000fd5b505050508061424890615dc8565b9050614154565b5061426e600860008481526020019081526020016000206000016146a2565b5b8192505050949350505050565b60005b818310156142e457600061429384846146d1565b90508463ffffffff166142a6878361361b565b60000160009054906101000a900463ffffffff1663ffffffff1611156142ce578092506142de565b6001816142db9190615b16565b93505b5061427f565b819050949350505050565b6000825111156143025781518083602001fd5b806040517f08c379a00000000000000000000000000000000000000000000000000000000081526004016143369190614bce565b60405180910390fd5b60007f01ffc9a7000000000000000000000000000000000000000000000000000000007bffffffffffffffffffffffffffffffffffffffffffffffffffffffff1916827bffffffffffffffffffffffffffffffffffffffffffffffffffffffff1916149050919050565b600083838346306040516020016143c4959493929190617144565b6040516020818303038152906040528051906020012090509392505050565b80471015614426576040517f08c379a000000000000000000000000000000000000000000000000000000000815260040161441d906171e3565b60405180910390fd5b60008273ffffffffffffffffffffffffffffffffffffffff168260405161444c90617226565b60006040518083038185875af1925050503d8060008114614489576040519150601f19603f3d011682016040523d82523d6000602084013e61448e565b606091505b50509050806144d2576040517f08c379a00000000000000000000000000000000000000000000000000000000081526004016144c9906172ad565b60405180910390fd5b505050565b600080600b60008481526020019081526020016000209050806002015481600101546145039190615b16565b61451461450f85611385565b61236c565b1115915050919050565b600080600b600084815260200190815260200160002090508060000154816001015411915050919050565b6000806145588686868661207c565b90506000614565826114ab565b90506002600781111561457b5761457a6150c2565b5b81600781111561458e5761458d6150c2565b5b141580156145c15750600660078111156145ab576145aa6150c2565b5b8160078111156145be576145bd6150c2565b5b14155b80156145f157506007808111156145db576145da6150c2565b5b8160078111156145ee576145ed6150c2565b5b14155b614630576040517f08c379a000000000000000000000000000000000000000000000000000000000815260040161462790617319565b60405180910390fd5b600180600084815260200190815260200160002060020160016101000a81548160ff0219169083151502179055507f789cf55be980739dad1d0699b93b58e806b51c9d96619bfa8fe0a28abaa7b30c8260405161468d91906147df565b60405180910390a18192505050949350505050565b60008160000160006101000a81548167ffffffffffffffff021916908367ffffffffffffffff16021790555050565b600060028284186146e29190616b6e565b8284166146ef9190615b16565b905092915050565b6000604051905090565b600080fd5b600080fd5b60007fffffffff0000000000000000000000000000000000000000000000000000000082169050919050565b6147408161470b565b811461474b57600080fd5b50565b60008135905061475d81614737565b92915050565b60006020828403121561477957614778614701565b5b60006147878482850161474e565b91505092915050565b60008115159050919050565b6147a581614790565b82525050565b60006020820190506147c0600083018461479c565b92915050565b6000819050919050565b6147d9816147c6565b82525050565b60006020820190506147f460008301846147d0565b92915050565b614803816147c6565b811461480e57600080fd5b50565b600081359050614820816147fa565b92915050565b600060ff82169050919050565b61483c81614826565b811461484757600080fd5b50565b60008135905061485981614833565b92915050565b600080fd5b600080fd5b600080fd5b60008083601f8401126148845761488361485f565b5b8235905067ffffffffffffffff8111156148a1576148a0614864565b5b6020830191508360018202830111156148bd576148bc614869565b5b9250929050565b600080fd5b6000601f19601f8301169050919050565b7f4e487b7100000000000000000000000000000000000000000000000000000000600052604160045260246000fd5b614912826148c9565b810181811067ffffffffffffffff82111715614931576149306148da565b5b80604052505050565b60006149446146f7565b90506149508282614909565b919050565b600067ffffffffffffffff8211156149705761496f6148da565b5b614979826148c9565b9050602081019050919050565b82818337600083830152505050565b60006149a86149a384614955565b61493a565b9050828152602081018484840111156149c4576149c36148c4565b5b6149cf848285614986565b509392505050565b600082601f8301126149ec576149eb61485f565b5b81356149fc848260208601614995565b91505092915050565b6000819050919050565b614a1881614a05565b8114614a2357600080fd5b50565b600081359050614a3581614a0f565b92915050565b60008060008060008060008060e0898b031215614a5b57614a5a614701565b5b6000614a698b828c01614811565b9850506020614a7a8b828c0161484a565b975050604089013567ffffffffffffffff811115614a9b57614a9a614706565b5b614aa78b828c0161486e565b9650965050606089013567ffffffffffffffff811115614aca57614ac9614706565b5b614ad68b828c016149d7565b9450506080614ae78b828c0161484a565b93505060a0614af88b828c01614a26565b92505060c0614b098b828c01614a26565b9150509295985092959890939650565b600060208284031215614b2f57614b2e614701565b5b6000614b3d84828501614811565b91505092915050565b600081519050919050565b600082825260208201905092915050565b60005b83811015614b80578082015181840152602081019050614b65565b83811115614b8f576000848401525b50505050565b6000614ba082614b46565b614baa8185614b51565b9350614bba818560208601614b62565b614bc3816148c9565b840191505092915050565b60006020820190508181036000830152614be88184614b95565b905092915050565b600073ffffffffffffffffffffffffffffffffffffffff82169050919050565b6000614c1b82614bf0565b9050919050565b614c2b81614c10565b8114614c3657600080fd5b50565b600081359050614c4881614c22565b92915050565b60008060008060808587031215614c6857614c67614701565b5b6000614c7687828801614c39565b9450506020614c8787828801614c39565b9350506040614c9887828801614811565b925050606085013567ffffffffffffffff811115614cb957614cb8614706565b5b614cc5878288016149d7565b91505092959194509250565b614cda8161470b565b82525050565b6000602082019050614cf56000830184614cd1565b92915050565b600067ffffffffffffffff821115614d1657614d156148da565b5b602082029050602081019050919050565b6000614d3a614d3584614cfb565b61493a565b90508083825260208201905060208402830185811115614d5d57614d5c614869565b5b835b81811015614d865780614d728882614c39565b845260208401935050602081019050614d5f565b5050509392505050565b600082601f830112614da557614da461485f565b5b8135614db5848260208601614d27565b91505092915050565b600067ffffffffffffffff821115614dd957614dd86148da565b5b602082029050602081019050919050565b6000614dfd614df884614dbe565b61493a565b90508083825260208201905060208402830185811115614e2057614e1f614869565b5b835b81811015614e495780614e358882614811565b845260208401935050602081019050614e22565b5050509392505050565b600082601f830112614e6857614e6761485f565b5b8135614e78848260208601614dea565b91505092915050565b600067ffffffffffffffff821115614e9c57614e9b6148da565b5b602082029050602081019050919050565b6000614ec0614ebb84614e81565b61493a565b90508083825260208201905060208402830185811115614ee357614ee2614869565b5b835b81811015614f2a57803567ffffffffffffffff811115614f0857614f0761485f565b5b808601614f1589826149d7565b85526020850194505050602081019050614ee5565b5050509392505050565b600082601f830112614f4957614f4861485f565b5b8135614f59848260208601614ead565b91505092915050565b60008060008060808587031215614f7c57614f7b614701565b5b600085013567ffffffffffffffff811115614f9a57614f99614706565b5b614fa687828801614d90565b945050602085013567ffffffffffffffff811115614fc757614fc6614706565b5b614fd387828801614e53565b935050604085013567ffffffffffffffff811115614ff457614ff3614706565b5b61500087828801614f34565b925050606061501187828801614a26565b91505092959194509250565b61502681614a05565b82525050565b6000602082019050615041600083018461501d565b92915050565b600080600080600060a0868803121561506357615062614701565b5b600061507188828901614811565b95505060206150828882890161484a565b94505060406150938882890161484a565b93505060606150a488828901614a26565b92505060806150b588828901614a26565b9150509295509295909350565b7f4e487b7100000000000000000000000000000000000000000000000000000000600052602160045260246000fd5b60088110615102576151016150c2565b5b50565b6000819050615113826150f1565b919050565b600061512382615105565b9050919050565b61513381615118565b82525050565b600060208201905061514e600083018461512a565b92915050565b6000806040838503121561516b5761516a614701565b5b600061517985828601614811565b925050602061518a85828601614c39565b9150509250929050565b60006060820190506151a960008301866147d0565b6151b660208301856147d0565b6151c360408301846147d0565b949350505050565b600080604083850312156151e2576151e1614701565b5b60006151f085828601614811565b92505060206152018582860161484a565b9150509250929050565b60008060008060006080868803121561522757615226614701565b5b600061523588828901614811565b95505060206152468882890161484a565b945050604086013567ffffffffffffffff81111561526757615266614706565b5b6152738882890161486e565b9350935050606086013567ffffffffffffffff81111561529657615295614706565b5b6152a2888289016149d7565b9150509295509295909350565b600080600080606085870312156152c9576152c8614701565b5b60006152d787828801614811565b94505060206152e88782880161484a565b935050604085013567ffffffffffffffff81111561530957615308614706565b5b6153158782880161486e565b925092505092959194509250565b600067ffffffffffffffff82111561533e5761533d6148da565b5b615347826148c9565b9050602081019050919050565b600061536761536284615323565b61493a565b905082815260208101848484011115615383576153826148c4565b5b61538e848285614986565b509392505050565b600082601f8301126153ab576153aa61485f565b5b81356153bb848260208601615354565b91505092915050565b600080600080608085870312156153de576153dd614701565b5b600085013567ffffffffffffffff8111156153fc576153fb614706565b5b61540887828801614d90565b945050602085013567ffffffffffffffff81111561542957615428614706565b5b61543587828801614e53565b935050604085013567ffffffffffffffff81111561545657615455614706565b5b61546287828801614f34565b925050606085013567ffffffffffffffff81111561548357615482614706565b5b61548f87828801615396565b91505092959194509250565b6000806000606084860312156154b4576154b3614701565b5b60006154c286828701614c39565b93505060206154d386828701614811565b925050604084013567ffffffffffffffff8111156154f4576154f3614706565b5b615500868287016149d7565b9150509250925092565b600061551582614bf0565b9050919050565b60006155278261550a565b9050919050565b6155378161551c565b811461554257600080fd5b50565b6000813590506155548161552e565b92915050565b6000602082840312156155705761556f614701565b5b600061557e84828501615545565b91505092915050565b600080600080600060a086880312156155a3576155a2614701565b5b60006155b188828901614c39565b95505060206155c288828901614c39565b945050604086013567ffffffffffffffff8111156155e3576155e2614706565b5b6155ef88828901614e53565b935050606086013567ffffffffffffffff8111156156105761560f614706565b5b61561c88828901614e53565b925050608086013567ffffffffffffffff81111561563d5761563c614706565b5b615649888289016149d7565b9150509295509295909350565b60008083601f84011261566c5761566b61485f565b5b8235905067ffffffffffffffff81111561568957615688614864565b5b6020830191508360018202830111156156a5576156a4614869565b5b9250929050565b600080600080606085870312156156c6576156c5614701565b5b60006156d487828801614c39565b94505060206156e587828801614811565b935050604085013567ffffffffffffffff81111561570657615705614706565b5b61571287828801615656565b925092505092959194509250565b61572981614c10565b82525050565b60006020820190506157446000830184615720565b92915050565b6000806040838503121561576157615760614701565b5b600061576f85828601614c39565b925050602061578085828601614811565b9150509250929050565b600080600080600060a086880312156157a6576157a5614701565b5b60006157b488828901614c39565b95505060206157c588828901614c39565b94505060406157d688828901614811565b93505060606157e788828901614811565b925050608086013567ffffffffffffffff81111561580857615807614706565b5b615814888289016149d7565b9150509295509295909350565b6000819050919050565b600061584661584161583c84614bf0565b615821565b614bf0565b9050919050565b60006158588261582b565b9050919050565b600061586a8261584d565b9050919050565b61587a8161585f565b82525050565b60006020820190506158956000830184615871565b92915050565b600081905092915050565b60006158b2838561589b565b93506158bf838584614986565b82840190509392505050565b60006158d88284866158a6565b91508190509392505050565b6158ed81614826565b82525050565b600060a082019050615908600083018861501d565b61591560208301876147d0565b61592260408301866158e4565b61592f606083018561501d565b61593c608083018461501d565b9695505050505050565b7f476f7665726e6f723a206f6e6c79476f7665726e616e63650000000000000000600082015250565b600061597c601883614b51565b915061598782615946565b602082019050919050565b600060208201905081810360008301526159ab8161596f565b9050919050565b7f4e487b7100000000000000000000000000000000000000000000000000000000600052602260045260246000fd5b600060028204905060018216806159f957607f821691505b60208210811415615a0d57615a0c6159b2565b5b50919050565b7f476f7665726e6f723a2070726f706f73616c206e6f742073756363657373667560008201527f6c00000000000000000000000000000000000000000000000000000000000000602082015250565b6000615a6f602183614b51565b9150615a7a82615a13565b604082019050919050565b60006020820190508181036000830152615a9e81615a62565b9050919050565b600081519050615ab4816147fa565b92915050565b600060208284031215615ad057615acf614701565b5b6000615ade84828501615aa5565b91505092915050565b7f4e487b7100000000000000000000000000000000000000000000000000000000600052601160045260246000fd5b6000615b21826147c6565b9150615b2c836147c6565b9250827fffffffffffffffffffffffffffffffffffffffffffffffffffffffffffffffff03821115615b6157615b60615ae7565b5b828201905092915050565b7f4e487b7100000000000000000000000000000000000000000000000000000000600052603260045260246000fd5b50565b6000615bab600083614b51565b9150615bb682615b9b565b600082019050919050565b600081519050919050565b600082825260208201905092915050565b6000615be882615bc1565b615bf28185615bcc565b9350615c02818560208601614b62565b615c0b816148c9565b840191505092915050565b600060a082019050615c2b6000830187615720565b615c3860208301866147d0565b8181036040830152615c4981615b9e565b90508181036060830152615c5d8185615bdd565b9050615c6c60808301846147d0565b95945050505050565b615c7e81614790565b8114615c8957600080fd5b50565b600081519050615c9b81615c75565b92915050565b600060208284031215615cb757615cb6614701565b5b6000615cc584828501615c8c565b91505092915050565b7f476f7665726e6f7254696d656c6f636b436f6d706f756e643a206964656e746960008201527f63616c2070726f706f73616c20616374696f6e20616c7265616479207175657560208201527f6564000000000000000000000000000000000000000000000000000000000000604082015250565b6000615d50604283614b51565b9150615d5b82615cce565b606082019050919050565b60006020820190508181036000830152615d7f81615d43565b9050919050565b600081519050615d9581614a0f565b92915050565b600060208284031215615db157615db0614701565b5b6000615dbf84828501615d86565b91505092915050565b6000615dd3826147c6565b91507fffffffffffffffffffffffffffffffffffffffffffffffffffffffffffffffff821415615e0657615e05615ae7565b5b600182019050919050565b6000604082019050615e2660008301856147d0565b615e3360208301846147d0565b9392505050565b6000606082019050615e4f600083018661501d565b615e5c60208301856147d0565b615e6960408301846158e4565b949350505050565b6000615e7c826147c6565b9150615e87836147c6565b925082821015615e9a57615e99615ae7565b5b828203905092915050565b7f476f7665726e6f723a2070726f706f73657220766f7465732062656c6f77207060008201527f726f706f73616c207468726573686f6c64000000000000000000000000000000602082015250565b6000615f01603183614b51565b9150615f0c82615ea5565b604082019050919050565b60006020820190508181036000830152615f3081615ef4565b9050919050565b7f476f7665726e6f723a20696e76616c69642070726f706f73616c206c656e677460008201527f6800000000000000000000000000000000000000000000000000000000000000602082015250565b6000615f93602183614b51565b9150615f9e82615f37565b604082019050919050565b60006020820190508181036000830152615fc281615f86565b9050919050565b7f476f7665726e6f723a20656d7074792070726f706f73616c0000000000000000600082015250565b6000615fff601883614b51565b915061600a82615fc9565b602082019050919050565b6000602082019050818103600083015261602e81615ff2565b9050919050565b7f476f7665726e6f723a2070726f706f73616c20616c726561647920657869737460008201527f7300000000000000000000000000000000000000000000000000000000000000602082015250565b6000616091602183614b51565b915061609c82616035565b604082019050919050565b600060208201905081810360008301526160c081616084565b9050919050565b600067ffffffffffffffff82169050919050565b60006160e6826160c7565b91506160f1836160c7565b92508267ffffffffffffffff0382111561610e5761610d615ae7565b5b828201905092915050565b600081519050919050565b600082825260208201905092915050565b6000819050602082019050919050565b61614e81614c10565b82525050565b60006161608383616145565b60208301905092915050565b6000602082019050919050565b600061618482616119565b61618e8185616124565b935061619983616135565b8060005b838110156161ca5781516161b18882616154565b97506161bc8361616c565b92505060018101905061619d565b5085935050505092915050565b600081519050919050565b600082825260208201905092915050565b6000819050602082019050919050565b61620c816147c6565b82525050565b600061621e8383616203565b60208301905092915050565b6000602082019050919050565b6000616242826161d7565b61624c81856161e2565b9350616257836161f3565b8060005b8381101561628857815161626f8882616212565b975061627a8361622a565b92505060018101905061625b565b5085935050505092915050565b600081519050919050565b600082825260208201905092915050565b6000819050602082019050919050565b600082825260208201905092915050565b60006162dd82614b46565b6162e781856162c1565b93506162f7818560208601614b62565b616300816148c9565b840191505092915050565b600061631783836162d2565b905092915050565b6000602082019050919050565b600061633782616295565b61634181856162a0565b935083602082028501616353856162b1565b8060005b8581101561638f5784840389528151616370858261630b565b945061637b8361631f565b925060208a01995050600181019050616357565b50829750879550505050505092915050565b600081519050919050565b600082825260208201905092915050565b6000819050602082019050919050565b600082825260208201905092915050565b60006163e982615bc1565b6163f381856163cd565b9350616403818560208601614b62565b61640c816148c9565b840191505092915050565b600061642383836163de565b905092915050565b6000602082019050919050565b6000616443826163a1565b61644d81856163ac565b93508360208202850161645f856163bd565b8060005b8581101561649b578484038952815161647c8582616417565b94506164878361642b565b925060208a01995050600181019050616463565b50829750879550505050505092915050565b60006164c86164c36164be846160c7565b615821565b6147c6565b9050919050565b6164d8816164ad565b82525050565b6000610120820190506164f4600083018c6147d0565b616501602083018b615720565b8181036040830152616513818a616179565b905081810360608301526165278189616237565b9050818103608083015261653b818861632c565b905081810360a083015261654f8187616438565b905061655e60c08301866164cf565b61656b60e08301856164cf565b81810361010083015261657e8184614b95565b90509a9950505050505050505050565b600060808201905081810360008301526165a88187616179565b905081810360208301526165bc8186616237565b905081810360408301526165d08185616438565b90506165df606083018461501d565b95945050505050565b7f53616665436173743a2076616c756520646f65736e27742066697420696e203260008201527f3234206269747300000000000000000000000000000000000000000000000000602082015250565b6000616644602783614b51565b915061664f826165e8565b604082019050919050565b6000602082019050818103600083015261667381616637565b9050919050565b7f53616665436173743a2076616c756520646f65736e27742066697420696e203360008201527f3220626974730000000000000000000000000000000000000000000000000000602082015250565b60006166d6602683614b51565b91506166e18261667a565b604082019050919050565b60006020820190508181036000830152616705816166c9565b9050919050565b7f476f7665726e6f723a20766f7465206e6f742063757272656e746c792061637460008201527f6976650000000000000000000000000000000000000000000000000000000000602082015250565b6000616768602383614b51565b91506167738261670c565b604082019050919050565b600060208201905081810360008301526167978161675b565b9050919050565b60006080820190506167b360008301876147d0565b6167c060208301866158e4565b6167cd60408301856147d0565b81810360608301526167df8184614b95565b905095945050505050565b600060a0820190506167ff60008301886147d0565b61680c60208301876158e4565b61681960408301866147d0565b818103606083015261682b8185614b95565b9050818103608083015261683f8184615bdd565b90509695505050505050565b7f476f7665726e6f72566f74657351756f72756d4672616374696f6e3a2071756f60008201527f72756d4e756d657261746f72206f7665722071756f72756d44656e6f6d696e6160208201527f746f720000000000000000000000000000000000000000000000000000000000604082015250565b60006168cd604383614b51565b91506168d88261684b565b606082019050919050565b600060208201905081810360008301526168fc816168c0565b9050919050565b7f53616665436173743a2076616c756520646f65736e27742066697420696e203660008201527f3420626974730000000000000000000000000000000000000000000000000000602082015250565b600061695f602683614b51565b915061696a82616903565b604082019050919050565b6000602082019050818103600083015261698e81616952565b9050919050565b7f436865636b706f696e74733a20626c6f636b206e6f7420796574206d696e6564600082015250565b60006169cb602083614b51565b91506169d682616995565b602082019050919050565b600060208201905081810360008301526169fa816169be565b9050919050565b6000604082019050616a166000830185615720565b616a2360208301846147d0565b9392505050565b6000604082019050616a3f6000830185615720565b616a4c6020830184615720565b9392505050565b7f476f7665726e6f7253657474696e67733a20766f74696e6720706572696f642060008201527f746f6f206c6f7700000000000000000000000000000000000000000000000000602082015250565b6000616aaf602783614b51565b9150616aba82616a53565b604082019050919050565b60006020820190508181036000830152616ade81616aa2565b9050919050565b6000616af0826147c6565b9150616afb836147c6565b9250817fffffffffffffffffffffffffffffffffffffffffffffffffffffffffffffffff0483118215151615616b3457616b33615ae7565b5b828202905092915050565b7f4e487b7100000000000000000000000000000000000000000000000000000000600052601260045260246000fd5b6000616b79826147c6565b9150616b84836147c6565b925082616b9457616b93616b3f565b5b828204905092915050565b7f436865636b706f696e743a20696e76616c6964206b6579000000000000000000600082015250565b6000616bd5601783614b51565b9150616be082616b9f565b602082019050919050565b60006020820190508181036000830152616c0481616bc8565b9050919050565b600081905092915050565b7f1901000000000000000000000000000000000000000000000000000000000000600082015250565b6000616c4c600283616c0b565b9150616c5782616c16565b600282019050919050565b6000819050919050565b616c7d616c7882614a05565b616c62565b82525050565b6000616c8e82616c3f565b9150616c9a8285616c6c565b602082019150616caa8284616c6c565b6020820191508190509392505050565b6000608082019050616ccf600083018761501d565b616cdc60208301866158e4565b616ce9604083018561501d565b616cf6606083018461501d565b95945050505050565b7f45434453413a20696e76616c6964207369676e61747572650000000000000000600082015250565b6000616d35601883614b51565b9150616d4082616cff565b602082019050919050565b60006020820190508181036000830152616d6481616d28565b9050919050565b7f45434453413a20696e76616c6964207369676e6174757265206c656e67746800600082015250565b6000616da1601f83614b51565b9150616dac82616d6b565b602082019050919050565b60006020820190508181036000830152616dd081616d94565b9050919050565b7f45434453413a20696e76616c6964207369676e6174757265202773272076616c60008201527f7565000000000000000000000000000000000000000000000000000000000000602082015250565b6000616e33602283614b51565b9150616e3e82616dd7565b604082019050919050565b60006020820190508181036000830152616e6281616e26565b9050919050565b7f476f7665726e6f72566f74696e6753696d706c653a20766f746520616c72656160008201527f6479206361737400000000000000000000000000000000000000000000000000602082015250565b6000616ec5602783614b51565b9150616ed082616e69565b604082019050919050565b60006020820190508181036000830152616ef481616eb8565b9050919050565b7f476f7665726e6f72566f74696e6753696d706c653a20696e76616c696420766160008201527f6c756520666f7220656e756d20566f7465547970650000000000000000000000602082015250565b6000616f57603583614b51565b9150616f6282616efb565b604082019050919050565b60006020820190508181036000830152616f8681616f4a565b9050919050565b7f476f7665726e6f7254696d656c6f636b436f6d706f756e643a2070726f706f7360008201527f616c206e6f742079657420717565756564000000000000000000000000000000602082015250565b6000616fe9603183614b51565b9150616ff482616f8d565b604082019050919050565b6000602082019050818103600083015261701881616fdc565b9050919050565b600061703261702d84614955565b61493a565b90508281526020810184848401111561704e5761704d6148c4565b5b617059848285614b62565b509392505050565b600082601f8301126170765761707561485f565b5b815161708684826020860161701f565b91505092915050565b6000602082840312156170a5576170a4614701565b5b600082015167ffffffffffffffff8111156170c3576170c2614706565b5b6170cf84828501617061565b91505092915050565b7f476f7665726e6f723a20756e6b6e6f776e2070726f706f73616c206964000000600082015250565b600061710e601d83614b51565b9150617119826170d8565b602082019050919050565b6000602082019050818103600083015261713d81617101565b9050919050565b600060a082019050617159600083018861501d565b617166602083018761501d565b617173604083018661501d565b61718060608301856147d0565b61718d6080830184615720565b9695505050505050565b7f416464726573733a20696e73756666696369656e742062616c616e6365000000600082015250565b60006171cd601d83614b51565b91506171d882617197565b602082019050919050565b600060208201905081810360008301526171fc816171c0565b9050919050565b600061721060008361589b565b915061721b82615b9b565b600082019050919050565b600061723182617203565b9150819050919050565b7f416464726573733a20756e61626c6520746f2073656e642076616c75652c207260008201527f6563697069656e74206d61792068617665207265766572746564000000000000602082015250565b6000617297603a83614b51565b91506172a28261723b565b604082019050919050565b600060208201905081810360008301526172c68161728a565b9050919050565b7f476f7665726e6f723a2070726f706f73616c206e6f7420616374697665000000600082015250565b6000617303601d83614b51565b915061730e826172cd565b602082019050919050565b60006020820190508181036000830152617332816172f6565b905091905056fe476f7665726e6f723a2072656c617920726576657274656420776974686f7574206d657373616765a2646970667358221220645a0a1d285a04d3c2ecad2e0488916594413ac8985e296de22bcd044c9f58a964736f6c63430008090033",
  "linkReferences": {},
  "deployedLinkReferences": {}
}